:020000041000EA
:10000000002008205D0100101301001015010010F0
:100010001101001011010010110100101101001058
:100020001101001011010010110100101701001042
:100030001101001011010010190100101B01001026
:100040001D0100101D0100101D0100101D010010F8
:100050001D0100101D0100101D0100101D010010E8
:100060001D0100101D0100101D0100101D010010D8
:100070001D0100101D0100101D0100101D010010C8
:100080001D0100101D0100101D0100101D010010B8
:100090001D0100101D0100101D0100101D010010A8
:1000A0001D0100101D0100101D0100101D01001098
:1000B0001D0100101D0100101D0100101D01001088
:1000C0001D0100101D0100101D0100101D01001078
:1000D0001D0100101D0100101D0100101D01001068
:1000E0001D0100101D0100101D0100101D01001058
:1000F0001D0100101D0100101D0100101D01001048
:100100001D0100101D0100101D0100101D01001037
:1001100000BE00BE00BE00BE00BE00BEEFF3058004
:10012000103800BEF2EB887184690010B4690010C9
:10013000A801001090A31AE7D3DEFFFF42012110AF
:10014000FF010000686E0000793512AB4FF000002F
:100150002049086006C881F3088810474FF05040D6
:10016000006810B14FF00000F2E70FA40ECC002998
:1001700002D000F015F8F9E71749184A002000E00E
:1001800001C19142FCD1002080F30A8814498847BC
:10019000144988471449884700BEFDE701C901C2D8
:1001A0009A42FBD3704700BFB469001010010020D1
:1001B000FC060020A06F00100000082000000820AE
:1001C000A06F0010001008200010082000000000A0
:1001D0007047000008ED00E0FC060020600B0020E6
:1001E000B551001079020010AD510010F8B500BFF4
:1001F000064B0749C91A891048BF0131491003D07D
:10020000044B0BB101481847704700BFFC060020A3
:10021000FC0600200000000008B5054B1BB1054995
:100220000548AFF30080BDE80840FFF7E1BF00BF1D
:1002300000000000D00A0020B062001008B50C4990
:100240000C4805F0A5FB0321042002F043F903212B
:10025000052002F03FF900220121042002F058F9A4
:1002600000220121052002F053F9002008BD00BF43
:10027000A0860100EC0600202DE9F04FADF2244DE0
:1002800050220021F4A805F0D7FD192002F054F9FE
:1002900019234FF0010242EC4430FFF7CFFF002852
:1002A00040F0778302F08CF8652402F06DF805F0D9
:1002B000ADF804E0013C07D0642002F06FFF00209D
:1002C00005F034FC0028F5D0B54805F02DF903F011
:1002D00009F80B463C220021109022A8119305F04A
:1002E000ABFD02F0FFFF0B463C220021069031A837
:1002F000079305F0A1FD02F0F5FF0B463C2200211B
:100300001C9040A81D9305F097FD02F0EBFF0B46F3
:100310003C2200210A904FA80B9305F08DFD02F0BE
:10032000E1FF0B463C2200210C905EA80D9305F0E6
:1003300083FD02F0D7FF3C2200216DA805F07CFD73
:1003400002F0D0FF0B463C2200210E907CA80F93B8
:1003500005F072FD02F0C6FF0B463C220021129010
:100360008BA8139305F068FD02F0BCFF0B463C22FE
:10037000002114909AA8159305F05EFD02F0B2FFDB
:100380000B463C2200211690A9A8179305F054FDB6
:1003900002F0A8FF0B463C2200211890B8A8199340
:1003A00005F04AFD02F09EFF0B463C2200211E9004
:1003B000C7A81F9305F040FD02F094FF0B463C22B6
:1003C00000211A90D6A81B9305F036FD02F08AFF93
:1003D0000B4608903C220021E5A8099305F02CFD6E
:1003E00000231E466F4FDFF8E091059302F07AFF7D
:1003F000109A6D4B801A119A61EB0201984271F1CB
:10040000000180F2B48002F06DFF069A674B801AFB
:10041000079A61EB0201834276EB0101C0F2B581DC
:1004200002F060FF1C9BC01A1D9B61EB0301874219
:1004300076EB0101C0F2BB8102F054FF0A9BC01AA7
:100440000B9B61EB0301874276EB0101C0F26981EE
:10045000574A6DAB07CA03C31A70059B002B40F0C7
:10046000068102F03FFF0C9BC01A0D9B61EB03015C
:10047000059B874273EB0101C0F21B8202F032FF41
:100480000E9BC01A0F9B61EB0301874276EB0101C3
:10049000C0F2E28002F026FF129BC01A139B61EBB0
:1004A0000301874276EB0101C0F2C88002F01AFF17
:1004B000149BC01A159B61EB0301874276EB010187
:1004C000C0F2AE8002F00EFF169BC01A179B61EBC4
:1004D0000301874276EB0101C0F2948002F002FF33
:1004E000189BC01A199B61EB0301874276EB01014F
:1004F0007ADB02F0F7FE1E9BC01A1F9B61EB030123
:10050000874276EB010161DB02F0ECFE1A9BC01A18
:100510001B9B61EB0301874276EB010135DB02F0A7
:10052000E1FE089BC01A099B61EB0301874276EB51
:100530000101BFF65BAF02F0D5FE03460020CDE916
:10054000083104F069FF1B4B1B68002B40F32B8123
:10055000811C00F0F181184AD054164A013313600F
:10056000164B154A1649E5A804F0DCFD3EE702F0FB
:10057000B9FE19234FF00102CDE9100142EC4030E1
:1005800002F0B0FECDE906013DE702F0ABFE0D4BF7
:10059000CDE91A0193E80300D6908DF85C13BEE70D
:1005A000C06200103F420F00C0CF6A001FA10700C9
:1005B00034630010E80A0020580A00200C0B0020C9
:1005C0000C640010CC630010B862001006234FF0DA
:1005D000000242EC4030BF4BC7AC0FCB07C424F83D
:1005E000023B1B0C23708FE702F07CFEBA4BCDE977
:1005F000180193E80300ADF8E412090CB8908DF8E7
:10060000E61276E702F06EFEB44BCDE9160193E8F0
:100610000300ADF8A812090CA9908DF8AA125DE7A5
:1006200002F060FEAE4BCDE9140193E80300ADF893
:100630006C12090C9A908DF86E1243E702F052FE8C
:10064000A84BCDE9120193E80300ADF83012090C74
:100650008B908DF8321229E702F044FEA24BCDE9CF
:100660000E0193E803007C90ADF8F41112E701F05D
:1006700083FD002840F0548100F032FD01F068FE57
:1006800002F030FE0C9BC01A0D9B61EB0301874208
:1006900076EB0101BFF6F2AE02F024FE934A5EABA8
:1006A0000C900D9107CA03C31A800A25DFF86482F3
:1006B000DFF864B268B200F03DFB2A4641465EA80E
:1006C00004F030FD5EA805F08BFDC1B25EA801F01C
:1006D00059FD00F033FC01F01FFE052002F05EFD25
:1006E0000B2402E0642002F059FD01F03FFD08B93F
:1006F000013CF7D101F03AFD002850D0013DD9D19D
:100700007B4D5EAC00F0ECFC01F022FE0FCD0FC47F
:1007100095E8030044F8040B24F8021B090C21702F
:10072000ACE602F0DFFD734A4FAB0A900B9107CAAB
:1007300003C3C7A81A7004F079FFE5A804F076FF98
:100740004FA804F073FF40A804F070FF31A804F034
:100750006DFF22A804F06AFF9AA804F067FFA9A819
:1007600004F064FFB8A804F061FF6DA804F0DCFE9B
:100770005EA804F05BFF7CA804F058FF8BA804F08F
:1007800055FFD6A804F052FF62E602F0ABFD192334
:100790004FF00002CDE9060142EC403040E65846F9
:1007A00004F0C2FEAAE7821C7FF4D5AED8E602F0C0
:1007B00099FD034601255048CDE91C3104F0B4FEF3
:1007C0004E4804F0B1FE00214D4804F02FFF2E20CA
:1007D00004F068FE4B4804F029FF2C46AA46DFF8D7
:1007E0003C81DFF820B12FE0782B30D002F07AFD89
:1007F00042F21073C01841F100034FF0FF316FF067
:100800000042814272EB030C3CBF0846134651463E
:10081000CDE90203009601233B480DF1870205F064
:10082000DDF8002813DB394804F000FF0F2D13D149
:100830004846013404F0FAFE802C3FF4FDAD14F07C
:100840000F055FFA84FA09D01AF07803CCD140463C
:1008500004F0ECFE0F2DEBD05846EAE7214628487D
:1008600004F0E4FE02F03EFD42F210734FF0FF325E
:10087000C0186FF0004341F10001824273EB0105A3
:100880003CBF104619460096CDE9020101235146AE
:100890001D480DF1870205F0A1F8002804DB402077
:1008A00004F000FE5846C4E72E2004F0FBFD584635
:1008B000BFE702F017FD0D4A5EAB0C900D9107CA21
:1008C00003C313481A8000F025FD059000283FF46B
:1008D000D5ADEAE6BC630010B4630010AC63001051
:1008E000A46300109C630010946300103464001033
:1008F0007C63001028630010DC620010EC620010C2
:1009000020630010BC620010EC060020B4620010EE
:10091000600600204C63001068630010B062001095
:1009200000F0A8F86DA805F05BFC1B49C0F13B0284
:100930006DA805F0D3FA9FE6184AD654184B1E60EE
:100940001368184A93420CD01749144805F0F4FA7A
:1009500000287FF405AE01465022F4A805F06CFA99
:10096000FEE50E4B114A5B689342EDD1104C114DE0
:100970004FF0060C0FCD0FC495E8070003C44FF0ED
:10098000010E22704EEC40C002F0ACFCCDE91E011D
:10099000DAE702F0B7FE85E440630010580A002051
:1009A000E80A00204255524EF86300105F4F4E0097
:1009B0000C0B0020DC6300102DE9F0474FF0000A1B
:1009C00082B08146002105208DF806A0112502F095
:1009D00093FC4AEC40500124254E0520002102F0F2
:1009E0008BFC22460DF1070130688DF8074005F0B9
:1009F00037FC514623460DF10602306805F02CFC09
:100A00000520002102F078FC44EC40500520002134
:100A100002F072FC9DF80630052023F0070343EA3C
:100A2000090300218DF8063002F066FC4AEC4050C4
:100A30000520002102F060FC812322460DF1070110
:100A400030688DF8073005F00BFC22460DF10601E9
:100A5000306805F005FC0520002102F04DFC44EC57
:100A600040500520002102F047FC02B0BDE8F087AD
:100A70006C06002070B5002482B0052000218DF89E
:100A80000640112502F038FC44EC405005200021BE
:100A900002F032FC1223114E0DF1070101223068E1
:100AA0008DF8073005F0DCFB012321460DF106022D
:100AB000306805F0D1FB0520002102F01DFC4FF04D
:100AC000010343EC40500520002102F015FC9DF885
:100AD0000600C0F3401002B070BD00BF6C060020DD
:100AE0002DE9F04341F67861002405468D4A83B034
:100AF00005E0DCB252F82410002900F0BF808D42DE
:100B000004F10103F5D8884804F090FD24014FF06A
:100B10000008052000218DF80680C14602F0ECFB9C
:100B2000112748EC40700520002102F0E5FB1D2351
:100B30007E4E0DF10701012230688DF8073005F077
:100B40008FFB012341460DF10602306805F084FB5E
:100B50000520002102F0D0FB4FF0010848EC407066
:100B60000520002102F0C8FB9DF80630052023F087
:100B7000F003234300218DF8063002F0BDFB49EC61
:100B800040700520002102F0B7FB9D230DF1070105
:100B9000012230688DF8073005F062FB01220DF16B
:100BA0000601306805F05CFB0520002102F0A4FB83
:100BB00048EC40700520002102F09EFB5C4B9D42FA
:100BC0005ED841F678639D4200F0A9804FF223433E
:100BD0009D428CBF40234423052000218DF8063020
:100BE00002F08AFB49EC40700520002102F084FBF2
:100BF000AF230DF10701012230688DF8073005F0B1
:100C00002FFB01220DF10601306805F029FB0520BC
:100C1000002102F071FB48EC40700520002102F039
:100C20006BFB0023052000211D468DF806301124A2
:100C300002F062FB45EC40400520002102F05CFB25
:100C4000B0230DF10701012230688DF8073005F05F
:100C500007FB01220DF10601306805F001FB0520BC
:100C6000002102F049FB4FF0010343EC4040052016
:100C7000002102F041FB03B0BDE8F083902446E779
:100C80000223052000218DF8063002F035FB49ECE7
:100C900040700520002102F02FFBB6230DF1070163
:100CA000012230688DF8073005F0DAFA01220DF1E3
:100CB0000601306805F0D4FA0520002102F01CFB83
:100CC00048EC40700520002102F016FB642305204B
:100CD00000218DF8063002F00FFB49EC4070052032
:100CE000002102F009FBBA230DF10701012230684F
:100CF0008DF8073005F0B4FA01220DF106013068D5
:100D000005F0AEFA0520002102F0F6FA48EC40703A
:100D10000520002102F0F0FA03B0BDE8F08348237B
:100D20005AE700BF68680010806400106C0600205D
:100D30001FA107002DE9F04F0346002785B00520CD
:100D4000002101938DF80E70112402F0D5FA47ECC2
:100D500040404FF0090B784D0520002102F0CCFAFD
:100D60000DF10F01012228688DF80FB005F078FA17
:100D7000012339460DF10E02286805F06DFA0520B1
:100D8000002102F0B9FA012646EC4040052000217E
:100D900002F0B2FA9DF80E30052063F07F030021C7
:100DA0008DF80E3002F0A8FA47EC40404FF0890A67
:100DB0000520002102F0A0FA32460DF10F0128684B
:100DC0008DF80FA005F04CFA32460DF10E0128689F
:100DD00005F046FA0520002102F08EFA46EC40406C
:100DE0000520002102F088FA052000218DF80E7000
:100DF00002F082FA47EC40400520002102F07CFA24
:100E000032460DF10F0128688DF80FB005F028FA71
:100E1000334639460DF10E02286805F01DFA05200B
:100E2000002102F069FA46EC40400520002102F062
:100E300063FA9DF80E30052023F0700343F0700331
:100E400000218DF80E3002F057FA47EC40400520A3
:100E5000002102F051FA32460DF10F0128688DF899
:100E60000FA005F0FDF932460DF10E01286805F0DE
:100E7000F7F90520002102F03FFA46EC404005203A
:100E8000002102F039FA052000218DF80E7002F0E1
:100E900033FA47EC40400520002102F02DFA32469B
:100EA0000DF10F0128688DF80FB005F0D9F9334620
:100EB00039460DF10E02286805F0CEF90520002113
:100EC00002F01AFA46EC40400520002102F014FA24
:100ED000019B9DF80E2043EAE3730E2BA8BF0E235F
:100EE00022F00F0233441343052000218DF80E3009
:100EF00002F002FA47EC40400520002102F0FCF924
:100F000032460DF10F0128688DF80FA005F0A8F901
:100F100032460DF10E01286805F0A2F905200021E6
:100F200002F0EAF946EC40400520002102F0E4F925
:100F300005B0BDE8F08F00BF6C0600202DE9F0433E
:100F4000002783B0052000218DF80670112402F0DF
:100F5000D3F947EC40400520002102F0CDF992235F
:100F60005E4D0DF10701012228688DF8073005F06C
:100F700077F901220DF10601286805F071F90520C5
:100F8000002102F0B9F9012646EC4040052000217D
:100F900002F0B2F9052000218DF8067002F0ACF9DC
:100FA00047EC40400520002102F0A6F940233246DC
:100FB0000DF1070128688DF8073005F051F9334627
:100FC00039460DF10602286805F046F90520002192
:100FD00002F092F946EC40400520002102F08CF925
:100FE0009DF80630052023F0C00343F040030021A4
:100FF0008DF8063002F080F947EC404005200021D2
:1010000002F07AF9C02332460DF1070128688DF805
:10101000073005F025F932460DF10601286805F084
:101020001FF90520002102F067F946EC4040052039
:10103000002102F061F9052000218DF8067002F010
:101040005BF947EC40400520002102F055F932469B
:101050000DF1070128688DF8076005F001F93346A6
:1010600039460DF10602286805F0F6F80520002142
:1010700002F042F946EC40400520002102F03CF924
:101080009DF80630052023F0070343F003030021F9
:101090008DF8063002F030F947EC40400520002181
:1010A00002F02AF9812332460DF1070128688DF8F4
:1010B000073005F0D5F832460DF10601286805F035
:1010C000CFF80520002102F017F946EC404005203A
:1010D000002102F011F903B0BDE8F0836C06002096
:1010E0002DE9F043002783B0052000218DF806701C
:1010F000112402F001F947EC40400520002102F0E4
:10110000FBF84023824D0DF10701012228688DF87C
:10111000073005F0A5F8012339460DF106022868CD
:1011200005F09AF80520002102F0E6F8012646ECC9
:1011300040400520002102F0DFF89DF80630052030
:1011400023F0C00300218DF8063002F0D5F847ECFB
:1011500040400520002102F0CFF8C02332460DF1B7
:10116000070128688DF8073005F07AF832460DF14E
:101170000601286805F074F80520002102F0BCF88B
:1011800046EC40400520002102F0B6F80520002181
:101190008DF8067002F0B0F847EC404005200021C1
:1011A00002F0AAF88D2332460DF1070128688DF868
:1011B000073005F055F832460DF10601286805F0B4
:1011C0004FF80520002102F097F846EC404005203A
:1011D000002102F091F8052000218DF8067002F040
:1011E0008BF847EC40400520002102F085F8902361
:1011F00032460DF1070128688DF8073005F030F808
:1012000032460DF10601286805F02AF80520002174
:1012100002F072F846EC40400520002102F06CF824
:10122000052000218DF8067002F066F847EC40407A
:101230000520002102F060F8922332460DF10701EB
:1012400028688DF8073005F00BF832460DF10601DD
:10125000286805F005F80520002102F04DF846EC5D
:1012600040400520002102F047F8052000218DF8BC
:10127000067002F041F847EC40400520002102F0E2
:101280003BF832460DF1070128688DF8076004F03D
:10129000E7FF334639460DF10602286804F0DCFF0B
:1012A0000520002102F028F846EC404005200021EE
:1012B00002F022F89DF80630052023F0070343F0E2
:1012C000050300218DF8063002F016F847EC404087
:1012D0000520002102F010F8812332460DF10701AC
:1012E00028688DF8073004F0BBFF32460DF1060187
:1012F000286804F0B5FF0520002101F0FDFF46EC51
:1013000040400520002101F0F7FF03B0BDE8F08365
:101310006C0600202DE9F0470027064682B0152014
:1013200001F00AF91524B94647EC44403A463946DB
:10133000204601F0EDF84FF0010848EC4040112044
:1013400001F0FAF8112548EC44503A46394628464F
:1013500001F0DEF848EC40500121122001F0BAF80B
:101360000121132001F0B6F80121102001F0B2F89C
:1013700048EC444047EC40406420002101F0F6FE78
:1013800047EC4440A84C052001F008FF0A2001F07A
:10139000E5FF2068A549B06004F03EFB20684FF0EF
:1013A000020E0346C22653F8041F00F5805C03F5C5
:1013B0004052C2F800E0026801EA0E0182F0070222
:1013C00003F5005302F0CF02CCF800208DF8057031
:1013D00019608DF8076047EC405001220DF10701BC
:1013E00004F03EFF0123394620680DF1050204F0A8
:1013F00033FF48EC40508E4A8E4B012814BF1046F4
:10140000184604F013F98C4B9DF805108B48A9423F
:1014100018BF184604F00AF9142001F08DF81420C2
:1014200047EC44000122394601F072F80520002102
:101430008DF8067001F060FF47EC40500126052052
:10144000002101F059FF32460DF1070120688DF8A7
:10145000076004F005FF334639460DF106022068A7
:1014600004F0FAFE0520002101F046FF48EC405050
:101470000520002101F040FF9DF80630052023F0F3
:10148000070300218DF8063001F036FF47EC40508D
:101490004FF0810A0520002101F02EFF32460DF1A8
:1014A000070120688DF807A004F0DAFE32460DF13E
:1014B0000601206804F0D4FE0520002101F01CFF85
:1014C00048EC40500021052001F016FF0A2001F0F1
:1014D00065FE052000218DF8067001F00DFF47EC38
:1014E00040500520002101F007FF32460DF10701B1
:1014F00020688DF8076004F0B3FE334639460DF1DD
:101500000602206804F0A8FE0520002101F0F4FE88
:1015100048EC40500520002101F0EEFE9DF8063019
:10152000052063F07F0300218DF8063001F0E4FE12
:1015300047EC40500520002101F0DEFE32460DF15F
:10154000070120688DF807A004F08AFE32460DF1ED
:101550000601206804F084FE0520002101F0CCFE85
:1015600048EC40500021052001F0C6FE0A2001F0A1
:1015700015FE052000218DF8067001F0BDFE47EC38
:1015800040500520002101F0B7FE32460DF1070161
:1015900020688DF8076004F063FE334639460DF18C
:1015A0000602206804F058FE0520002101F0A4FE88
:1015B00048EC40500520002101F09EFE9DF8067089
:1015C00017F0070728D1052000218DF8067001F0DB
:1015D00093FE49EC40500520002101F08DFE32467B
:1015E0000DF1070120688DF8076004F039FE3346DD
:1015F00039460DF10602206804F02EFE0520002178
:1016000001F07AFE48EC40500520002101F074FE04
:101610009DF80660F60915D1094803F085FF012001
:1016200002B0BDE8F08700BF6C060020404B4C00C4
:10163000C0640010A4640010DC640010FC6400109E
:101640002C6500103046FFF7B7F9052000218DF812
:10165000067001F051FE49EC40500520002101F0D8
:101660004BFE8E2332460DF1070120688DF80730BE
:1016700004F0F6FD32460DF10601206804F0F0FD9D
:101680000520002101F038FE48EC405005200021E3
:1016900001F032FE052000218DF8067001F02CFECD
:1016A00049EC40500520002101F026FE8F233246F0
:1016B0000DF1070120688DF8073004F0D1FD3246A6
:1016C0000DF10601206804F0CBFD0520002101F09A
:1016D00013FE48EC40500520002101F00DFE6D2363
:1016E000052000218DF8063001F006FE49EC40503F
:1016F0004FF0860A0520002101F0FEFD32460DF173
:10170000070120688DF807A004F0AAFD32460DF10C
:101710000601206804F0A4FD0520002101F0ECFD85
:1017200048EC40500520002101F0E6FD0520002195
:101730008DF806A001F0E0FD49EC405005200021A5
:1017400001F0DAFD872332460DF1070120688DF89C
:10175000073004F085FD32460DF10601206804F0E3
:101760007FFD0520002101F0C7FD48EC4050052019
:10177000002101F0C1FD6623052000218DF806300F
:1017800001F0BAFD49EC40500520002101F0B4FD04
:10179000882332460DF1070120688DF8073004F0E8
:1017A0005FFD32460DF10601206804F059FD052069
:1017B000002101F0A1FD48EC40500520002101F07E
:1017C0009BFDB449B44803F031FF052000218DF89A
:1017D000067001F091FD49EC40500520002101F018
:1017E0008BFDA02332460DF1070120688DF80730EC
:1017F00004F036FD32460DF10601206804F030FD9C
:101800000520002101F078FD48EC40500520002122
:1018100001F072FD0823052000218DF8063001F04B
:101820006BFD49EC40500520002101F065FDA1232E
:1018300032460DF1070120688DF8073004F010FDE5
:1018400032460DF10601206804F00AFD0520002152
:1018500001F052FD48EC40500520002101F04CFD04
:10186000052000218DF8067001F046FD49EC40503E
:101870000520002101F040FD202332460DF1070133
:1018800020688DF8073004F0EBFC334639460DF143
:101890000602206804F0E0FC0520002101F02CFD88
:1018A00048EC40500520002101F026FD05200021D4
:1018B0009DF806A08DF8067001F01EFD49EC405021
:1018C0000520002101F018FD212332460DF107010A
:1018D00020688DF8073004F0C3FC334639460DF11B
:1018E0000602206804F0B8FC0520002101F004FD88
:1018F00048EC40500520002101F0FEFC9DF8063028
:1019000043EA0A23082B40F018840025634F112670
:101910003846FFF7E5F8052000218DF8065001F064
:10192000EBFC45EC40600520002101F0E5FC1D23A7
:101930000DF10701012220688DF8073004F090FCBA
:10194000012329460DF10602206804F085FC0520DC
:10195000002101F0D1FC4FF0010343EC4060052071
:10196000002101F0C9FC9DF806308F2B4FEA1312BD
:1019700000F2E8834A4B53F82230BB4240F0E28346
:1019800000260521474803F051FE052000218DF86F
:101990000660112501F0B0FC46EC40504FF01D09E7
:1019A0000520002101F0A8FC0DF1070101222068AB
:1019B0008DF8079004F054FC012331460DF1060226
:1019C000206804F049FC0520002101F095FC4FF04F
:1019D000010747EC40500520002101F08DFC9DF8E7
:1019E0000630052023F00E0343F0020300218DF89A
:1019F000063001F081FC46EC40500520002101F04A
:101A00007BFC9D230DF10701012220688DF8073032
:101A100004F026FC01220DF10601206804F020FCF0
:101A20000520002101F068FC47EC40500520002112
:101A300001F062FC052000218DF8066001F05CFCDD
:101A400046EC40500520002101F056FC0DF1070145
:101A5000012220688DF8079004F002FC0123314632
:101A60000DF10602206804F0F7FB0520002101F0CB
:101A700043FC47EC40500520002101F03DFC9DF85F
:101A8000063003F00E03022B10D0074803F0CEFD02
:101A90000CE000BF20E01C1A4064001048E8010080
:101AA0006868001060640010C865001000260520FA
:101AB00000218DF80660112501F01EFC46EC405017
:101AC0004FF01E090520002101F016FC0DF1070161
:101AD000012220688DF8079004F0C2FB01233146F3
:101AE0000DF10602206804F0B7FB0520002101F08B
:101AF00003FC4FF0010747EC40500520002101F0A6
:101B0000FBFB9DF80630052023F0F00343F0700343
:101B100000218DF8063001F0EFFB46EC4050052027
:101B2000002101F0E9FB9E230DF10701012220684D
:101B30008DF8073004F094FB01220DF106012068B6
:101B400004F08EFB0520002101F0D6FB47EC40504D
:101B50000520002101F0D0FB052000218DF8066052
:101B600001F0CAFB46EC40500520002101F0C4FB07
:101B70000DF10701012220688DF8079004F070FB39
:101B8000012331460DF10602206804F065FB0520B3
:101B9000002101F0B1FB47EC40500520002101F08D
:101BA000ABFB9DF806301B09072B02D0C14803F0A0
:101BB0003DFD0026052000218DF80660112501F06D
:101BC0009BFB46EC40504FF01E090520002101F020
:101BD00093FB0DF10701012220688DF8079004F0B6
:101BE0003FFB012331460DF10602206804F034FB6F
:101BF0000520002101F080FB4FF0010747EC405029
:101C00000520002101F078FB9DF80630052043F007
:101C1000040300218DF8063001F06EFB46EC4050C5
:101C20000520002101F068FB9E230DF10701012230
:101C300020688DF8073004F013FB01220DF1060136
:101C4000206804F00DFB0520002101F055FB47EC56
:101C500040500520002101F04FFB052000218DF8A8
:101C6000066001F049FB46EC40500520002101F0E0
:101C700043FB0DF10701012220688DF8079004F065
:101C8000EFFA012331460DF10602206804F0E4FA70
:101C90000520002101F030FB47EC405005200021D9
:101CA00001F02AFB9DF80630580702D4824803F061
:101CB000BDFC0026052000218DF80660112501F0ED
:101CC0001BFB46EC40504FF026090520002101F097
:101CD00013FB0DF10701012220688DF8079004F035
:101CE000BFFA012331460DF10602206804F0B4FA70
:101CF0000520002101F000FB4FF0010747EC4050A8
:101D00000520002101F0F8FA9DF80630052043F087
:101D1000040300218DF8063001F0EEFA46EC405045
:101D20000520002101F0E8FAA6230DF107010122A8
:101D300020688DF8073004F093FA01220DF10601B6
:101D4000206804F08DFA0520002101F0D5FA47EC57
:101D500040500520002101F0CFFA052000218DF828
:101D6000066001F0C9FA46EC40500520002101F060
:101D7000C3FA0DF10701012220688DF8079004F0E5
:101D80006FFA012331460DF10602206804F064FA6F
:101D90000520002101F0B0FA47EC40500021052059
:101DA00001F0AAFA9DF80630590702D4434803F01F
:101DB0003DFC0026052000218DF80660112501F06C
:101DC0009BFA46EC40504FF026090520002101F017
:101DD00093FA0DF10701012220688DF8079004F0B5
:101DE0003FFA012331460DF10602206804F034FA6F
:101DF0000520002101F080FA4FF0010747EC405028
:101E00000520002101F078FA9DF80630052043F006
:101E1000080300218DF8063001F06EFA46EC4050C0
:101E20000520002101F068FAA6230DF10701012227
:101E300020688DF8073004F013FA01220DF1060135
:101E4000206804F00DFA0520002101F055FA47EC56
:101E500040500520002101F04FFA052000218DF8A7
:101E6000066001F049FA46EC40500520002101F0DF
:101E700043FA0DF10701012220688DF8079004F064
:101E8000EFF9012331460DF10602206804F0E4F970
:101E90000520002101F030FA47EC405005200021D8
:101EA00001F02AFA9DF806301A070BD4044803F013
:101EB000BDFB07E0F86500102C6600105C660010A2
:101EC0008466001000260F20FEF734FF0520002155
:101ED0008DF80660112501F00FFA46EC4050052000
:101EE000002101F009FA09230DF107010122206800
:101EF0008DF8073004F0B4F9012331460DF10602E4
:101F0000206804F0A9F90520002101F0F5F94FF04F
:101F1000010747EC40500021052001F0EDF98D4804
:101F200003F084FB052000218DF8066001F0E4F940
:101F300046EC40504FF00A090520002101F0DCF981
:101F40000DF10701012220688DF8079004F088F94F
:101F5000012331460DF10602206804F07DF90520C9
:101F6000002101F0C9F947EC40500520002101F0A3
:101F7000C3F99DF80630052023F00F0300218DF8EA
:101F8000063001F0B9F946EC40500520002101F07F
:101F9000B3F98A230DF10701012220688DF807307B
:101FA00004F05EF901220DF10601206804F058F9F1
:101FB0000520002101F0A0F947EC40500520002148
:101FC00001F09AF9052000218DF8066001F094F9DE
:101FD00046EC40500520002101F08EF90DF107017B
:101FE000012220688DF8079004F03AF90123314668
:101FF0000DF10602206804F02FF90520002101F000
:102000007BF947EC40500520002101F075F99DF85F
:1020100006301B0740F09A800026052000218DF82D
:102020000660112501F068F946EC40504FF00C09AC
:102030000520002101F060F90DF10701012220685F
:102040008DF8079004F00CF9012331460DF10602DA
:10205000206804F001F90520002101F04DF94FF04E
:10206000010747EC40500520002101F045F99DF89B
:102070000630052023F0030343F0030300218DF80D
:10208000063001F039F946EC40500520002101F0FE
:1020900033F98C230DF10701012220688DF80730F8
:1020A00004F0DEF801220DF10601206804F0D8F8F2
:1020B0000520002101F020F947EC405005200021C7
:1020C00001F01AF9052000218DF8066001F014F9DD
:1020D00046EC40500520002101F00EF90DF10701FA
:1020E000012220688DF8079004F0BAF801233146E8
:1020F0000DF10602206804F0AFF80520002101F080
:10210000FBF847EC40500520002101F0F5F89DF860
:10211000063003F00303032B02D00F4803F086FAC6
:10212000FEF7DEFF0D4803F0FFF99DF805001138BA
:1021300018BF012002B0BDE8F087094803F076FA25
:10214000FFF7E3BB074803F071FA19E4064803F010
:102150006DFA61E7AC660010086700103867001080
:10216000586500108C650010DC6600104FF050437D
:102170005868C0F3005070474FF050435868C0F3A0
:10218000005070472DE9F04F002783B083468A4600
:10219000052000218DF80670112501F0ADF847ECFF
:1021A000405001245B4E0520002101F0A5F8224695
:1021B0000DF1070130688DF8074004F051F823460F
:1021C00039460DF10602306804F046F8052000217A
:1021D00001F092F844EC40500520002101F08CF809
:1021E0009DF80630052023F00703234300218DF8D6
:1021F000063001F081F847EC40500520002101F045
:102200007BF8812322460DF1070130688DF80730F5
:1022100004F026F822460DF10601306804F020F89B
:102220000520002101F068F844EC40500520002111
:1022300001F062F8052000218DF8067001F05CF8CD
:1022400047EC40500520002101F056F88D2322462E
:102250000DF1070130688DF8073004F001F82246CF
:102260000DF10601306803F0FBFF0520002101F0AD
:1022700043F844EC40500520002101F03DF80520D2
:10228000002101F039F847EC40500520002101F011
:1022900033F8802322460DF1070130688DF80730AE
:1022A00003F0DEFF52465946306803F0D9FF05209F
:1022B000002101F021F844EC40500520002101F0FC
:1022C0001BF8052000218DF806A001F015F847EC59
:1022D00040500520002101F00FF8A22322460DF105
:1022E000070130688DF8073003F0BAFF22460DF180
:1022F0000601306803F0B4FF0520002100F0FCFF68
:1023000044EC40500520002100F0F6FF384603B0B1
:10231000BDE8F08F6C06002001230B490B4A0868CA
:10232000126800F110018B4051681942FCD14FF442
:10233000801102EB8000016151680B42FCD14FF427
:1023400080130361704700BFC80A0020C40A002040
:1023500001230B490B4A0868126800F110018B40F9
:1023600051681942FCD14FF0006102EB800001611D
:1023700051680B42FCD14FF000630361704700BF0E
:10238000C80A0020C40A002001230A490A4A086832
:10239000126800F110018B4051681942FCD10749C5
:1023A00002EB8000016151680B42FCD1034B0361D9
:1023B000704700BFC80A0020C40A002000010101C4
:1023C00070B502218EB03A4803F030F901220221A3
:1023D000CDE901220091374809AB08AA07A903F00B
:1023E0006DFC002860D0DDE90856079C022004F14E
:1023F0002F4101F56001090D0631C9B200F06AF8FC
:102400000123022229460093204603F0BDFB4FF42E
:102410008033294A0A930C92F301F21C274943EABC
:10242000023323F0C04305200B930D9101F0D6F841
:1024300007EE100A9FED226AB8EE477ADFED216AB7
:10244000C7EE067A77EEA67ABCEEE77A17EE103A78
:102450009BB23BB307EE103AB8EE477ADFED1A6A4B
:1024600077EEC77A67EEA67AFCEEE77ACDED057ACD
:102470009DF81400000240EA0340324629460AABA8
:102480000A90204603F0C6FB0121002022680F4E6F
:102490000F4BA94011432160DDE9071231601A603A
:1024A0000EB070BD1846E6E701F02CF99BE700BFBF
:1024B00058670010906800100000067000080020A7
:1024C0000024F44A0000003B00008043C40A0020BE
:1024D000C80A002010B44FF480740C4B53F820202D
:1024E00003EB8003C00082F0400200F1804003F55E
:1024F000805C02F0C00200F5203003F54053CCF8B8
:10250000002041601C605DF8044B7047048003406C
:1025100010B4084CC90041EA820154F8202004EBB1
:102520008003514003F5805301F00C015DF8044B2A
:10253000196070470480034030B44FF0000343EC4F
:10254000440043EC400005254FF480740B4BC2005F
:1025500053F8201003EB800081F0400102F180432A
:1025600003F5203301F0C00200F5805100F5405022
:102570000A605D60046030BC704700BF04800340A7
:102580000FB400B583B0049C074802F0CDFF3CB106
:1025900005A92046019102F0EFFD044802F0C4FFB6
:1025A000012002F001FE00BF80670010B862001039
:1025B000EFF3108072B6064BD3E8CF1F012200293B
:1025C000FAD1C3E8412F0029F6D1BFF35F8F7047DE
:1025D000D30900200023034AC2E88F3F80F310880C
:1025E000704700BFD309002070B58646EFF3108511
:1025F00072B6124CD4E8CF6F0120002EFAD1C4E895
:10260000460F002EF6D1BFF35F8F4FF0010CC808C4
:1026100001F007030CFA03F31EF800C01CEA0306DE
:1026200008D14CEA030C0EF800C0C4E88F6F85F3A4
:10263000108870BD1046FFF7A3FF00BFD30900202C
:10264000F8B5EFF3108572B6234CD4E8CF7F01269E
:10265000002FFAD1C4E8476F002FF6D1BFF35F8F88
:102660009A4227D80126D70810F807E002F0070C95
:1026700006FA0CFC1EEA0C0F00EBD2070DD125E088
:102680004FEAD20E10F80EE002F0070C06FA0CFC2E
:102690001EEA0C0F00EBD20718D001329342EFD2A2
:1026A0004FF0FF300023C4E88F3F85F31088984235
:1026B00007DBF8BD0023C4E88F3F85F310884FF097
:1026C000FF300029F5D00698FFF75AFF4EEA0C0EAE
:1026D000104687F800E0E5E7D309002000B5EFF3E6
:1026E000108E72B6104BD3E8CFCF0122BCF1000F91
:1026F000F9D1C3E84C2FBCF1000FF4D1BFF35F8FC9
:1027000001224FEAD10C01F0070102FA01F110F8A1
:102710000C2022EA010200F80C200022C3E88F2FCF
:102720008EF310885DF804FBD3090020044A10786A
:10273000431CDBB2182B28BF10231370704700BF57
:10274000700600204FF0E022936843F0005393603E
:10275000704700BF0021044B03F12002C3E88F1F24
:1027600001339342FAD17047C80900204FF0E023AB
:102770004FF08032C3F80024C3F80424C3F80824BF
:10278000C3F80C24C3F81024C3F81424C3F8182485
:10279000C3F81C24C3F82024C3F82424C3F8282435
:1027A000C3F82C24C3F83024704700BF012300F085
:1027B0001F029340400941B1800000F1604000F5E4
:1027C0006140C0F8803103607047024A203042F80F
:1027D0002030704700E100E0F8B50D46EFF31087B8
:1027E00072B6124ED6E8CF2F0123002AFAD1C6E8DE
:1027F000423F002AF6D1BFF35F8F0D4B00F110046A
:102800009B680C4A53F82430934203D0994201D07C
:1028100000F078FF064B9B6843F82450BFF35F8FAE
:102820000023C6E88F3F87F31088F8BDD109002048
:1028300000ED00E01D0100102DE9F04F83B0EFF333
:10284000108A72B6744ED6E8CF2F0123002AFAD12F
:10285000C6E8423F002AF6D1BFF35F8F6F4B00F10D
:1028600010089B686E4A53F8285095423FD08D421D
:102870000C464AD06B4FEB1B2F2B38D801214FEA67
:1028800050194FEA890909F1604909F5614900F0D9
:102890001F0301FA03F0D9F80030C9F8800000EAFC
:1028A000030BBFF35F8FEFF30581C9B279B388459E
:1028B00077D125F0010EDEF808C0644505D17CE033
:1028C000D3F808C0644532D09E469EF9062002EB3C
:1028D0004203002A07EB8303F2DA644500F08180AB
:1028E000BBF1000F20D0C9F88001C9F800004B4BA4
:1028F0009B6843F82850BFF35F8F0023C6E88F3FE3
:102900008AF3108803B0BDE8F08F1546EFE725F095
:10291000010EDEF808C06445D7D19EF90640734623
:10292000002C08DA154666E0C9F88000DFE793F965
:102930000640002C56DB04EB440C07EB8C0CDCF857
:10294000082061009A609CF80720DA719CF9062043
:10295000002A9A715DDBBCF80420520504D502F50B
:10296000FF1202F5FF521F32521502F1020C4FF016
:10297000040E0C2212FB04E202EB4C026FF0070C77
:102980003A44ACEB030C6244C2F34A0242F46042A4
:102990009A80254B21441A7807EB81011C708A71BB
:1029A0009EE7CDE9000100F0ADFEDDE9000125F074
:1029B000010EDEF808C0644587D19EF906407346D3
:1029C000002CB8DA194A1A4CD21A083AC2F30A3162
:1029D0006FEA01516FEA115144EA5202DA8099809C
:1029E0007EE773460029EDD1FF228EF806204BF6D4
:1029F0000152AEF804200C4C4AF6AA2294F800C00A
:102A00001946C91B49414A43120D83F806C022707A
:102A100066E74BF60152BBE7D109002000ED00E06C
:102A20001D010010740600205C0B0020AE06002083
:102A300000F8FFFFF0B5EFF30585EDB2EFF3108C72
:102A400072B62649D1E8CF2F0123002AFAD1C1E876
:102A5000423F002AF6D1BFF35F8F214E40F0010EB6
:102A6000B4684AF6AA2354F825701E4A0446A41AEC
:102A7000644163431B0D77455BB21BD092F906405E
:102A80009C421CD092F912409C4223D092F91E40E5
:102A90009C4221D092F92A409C4208BF03240FD0C7
:102AA000114A0024157813708571C1E88F4F8CF39B
:102AB0001088F0BDB2680D4C42F82540F0E70024C4
:102AC00004EB440402EB8402FF2494714BF601549E
:102AD0009480E5E70124F3E70224F1E7D10900201F
:102AE00000ED00E0740600205C0B00201D010010CA
:102AF000014B0B4403607047C809002070B5104CAF
:102B0000104DAC420ED2FF26236863B1FFF70EFED4
:102B100001462046FFF7ECFFA680BFF35F8F083425
:102B2000AC42F1D370BDFFF701FE01462046FFF72E
:102B3000DFFF2671BFF35F8F0834AC42E4D370BD72
:102B4000F4060020FC0600200D4B1A68EFF31081FC
:102B500072B6D2E8CFCF0120BCF1000FF9D1C2E8A4
:102B60004C0FBCF1000FF4D1BFF35F8F00221B6844
:102B7000C3E88F2F81F3108840BF002000217047E9
:102B8000500B0020000000002DE9F04F2DED028BCE
:102B900085B0EFF30583DBB2103B9A0818BF012222
:102BA0004FF0010103F0030018BFAB4DAB4B08BF62
:102BB000AB4D00EB820201FA00FB53F8226005F5F1
:102BC00041539FEDA38B0190C3F804B0CDF800B042
:102BD0002AE0B388180440F18C80B379002B40F0D0
:102BE000D580B6F908100029C0F21581736901EB90
:102BF000410103EBC103D3E90247B7F1FF3F08BF2F
:102C0000B4F1FF3F09D0019B05EB8301AB6A0A6970
:102C1000D21AE31A934238BF0C61284600F05AFBDF
:102C2000A042B941C0F2F780B6F90840009B002CE1
:102C3000EB63CEDBD6F8149004EB440A284609EB8C
:102C4000CA07D7E902B800F045FB584571EB080107
:102C5000BFDBB8F1000FC0F2C180D7E90431814A6F
:102C6000934200F0EA807A88B6F9080092B242EA0C
:102C70000040984702460B4652EA030100F0AE803E
:102C8000002B80F2CE80BBEB020B68EB030839F916
:102C90003A30C7E902B8002B9BDB716903EB4302B2
:102CA00001EBC202D2E90270BB4578EB000C4FEA9F
:102CB00043028EDBB4462CF8083F0BE031F932308A
:102CC000F446002B0DDB03EB430001EBC0005A0080
:102CD000D0E90270BB451A4478EB000001EBC20E4C
:102CE000ECDA29F83A30ACF80040B38818043FF524
:102CF00074AF3369EFF3108272B6D3E8CF0F0121BE
:102D00000028FAD1C3E8401F0028F6D1BFF35F8F37
:102D10004FF6FF74B0880023316900B2B480C1E877
:102D20008F3F82F310889842FFF657AF0746A946B7
:102D3000746906F1080807EB470E04EBCE03D3E9EC
:102D40000250B6F90830C446002BA8BFB34605DAD6
:102D50000FE034F93A309446002B09DB03EB430AC9
:102D600004EBCA02D2E90261B54270EB0101F0DA6C
:102D70005E46ACF8007034F93E7024F83E30002F07
:102D8000D9DAB3794D46002B3FF42BAF0023B37152
:102D9000B6F9083006F10808591C3CD01946776985
:102DA00003E080465A1C3FF41EAF03EB430207EBDF
:102DB000C200B0F802C01C461CF4004F9E4637F912
:102DC0003230EED08C4280ED028B05D0A8F8003076
:102DD000318927F8321034817146E3E739F83A3007
:102DE00033813369EFF3108272B6D3E8CF0F01213C
:102DF0000028FAD1C3E8401F0028F6D1BFF35F8F47
:102E00007388316929F83A3000237480C1E88F3F14
:102E100082F31088DDE640BF05B0BDEC028BBDE853
:102E2000F08F2846CDE9022300F054FA029A039B62
:102E300010EB020B43EB010829E708460B690291EE
:102E400098470028CAD00299D1E9002314E700BFAF
:102E5000FFFFFFFFFFFFFFFF00800B40EC0A002099
:102E600000000B40892B00102DE9F84F364C2569E6
:102E70002DB1BDE8F84F0A213448FFF739BEDFF81D
:102E8000E4800321404600F013FA0326C4F80C80C6
:102E9000FFF74CFC4FF0504C2D4B26700344236140
:102EA000DCF800300F216370636961801D834FF08F
:102EB0000405A3F878504FF00505A3F890504FF0A3
:102EC0000605A3F8A8504FF007050E214FF6FF7234
:102ED00008274FF00A0EA3F8C0504FF001094FF039
:102EE0000C0C4FF0020B4FF0090A0D204FF00B05B0
:102EF000A3F868111749A280A3F808E1A160A3F81C
:102F000048B0A3F8F0A0A3F82051A3F838C1A3F863
:102F10005001A3F83090A3F86060A3F8D8701A802D
:102F20000D4B3046C8F820700C49DC60FFF754FCAC
:102F300049463046FFF73AFC094B0A211F64034813
:102F4000BDE8F84FFFF7D4BDBC060020500B0020B1
:102F5000C8090020FFFF1000EC0A0020892B001098
:102F600000200B4000000B400146F0B50069EFF374
:102F7000108772B6D0E8CF5F0124002DFAD1C0E8E7
:102F8000454F002DF6D1BFF35F8FB1F902E04C69D8
:102F90000EEB4E0CBEF1000F4FEACC0504EBCC0C4F
:102FA0003DDB605B002648800869C0E88F6F87F3CF
:102FB0001088BCF80200CCE902230130C0F30E00F7
:102FC000012838BF0120059BACF80200CCF8103076
:102FD000069B40EA0E40CCF814300B69EFF31082E8
:102FE00072B6D3E8CFCF0127BCF1000FF9D1C3E807
:102FF0004C7FBCF1000FF4D1BFF35F8F8B8863531C
:10300000A1F804E00B69C3E88F6F82F310880122F6
:10301000CB68097803F501538A405A60F0BD00235C
:103020000A69C2E88F3F87F310884FF0FF30F0BD88
:1030300003464089B0EB214F37DD58690A1402EB93
:10304000420210B500EBC2001C69EFF3108C72B69F
:10305000D4E8CFEF0122BEF1000FF9D1C4E84E2F22
:10306000BEF1000FF4D1BFF35F8F428889B292B2F4
:103070008A4207D000221B69C3E88F2F8CF3108887
:10308000002010BD42F40042428001210022186954
:103090009971C0E88F2F8CF310881C78DA68084685
:1030A00002F50153A140596010BD0020704700BFD8
:1030B0002DE9F041861F41F1FF35B04271EB050368
:1030C00038BF002682B038BF354604460F4600F0B0
:1030D00009F9301A65EB0103012873F1000306DAE0
:1030E0002046394602B0BDE8F04100F07BB900F05F
:1030F000F9F8864265EB010100290ADB0021174B34
:103100003246009316482B460191FFF72DFF002809
:10311000E6DB4FF0000C1348134A436A9D4204D883
:10312000816AB142DCD29D42DAD11368EFF310819B
:1031300072B6D3E8CF8F5FF0010EB8F1000FF8D16F
:10314000C3E848EFB8F1000FF3D1BFF35F8F136806
:10315000C3E88FCF81F3108820BFDEE7492B001032
:10316000BC06002000000B40500B002038B5044680
:103170000D4600F0B7F84FF0FF326FF00043201813
:1031800045EB0101824273EB010438BF1946BDE8EB
:10319000384038BF1046FFF78BBF00BF10B504465C
:1031A00000F0A0F84FF47A734FF0FF3C6FF000424C
:1031B000E4FB0301BDE81040844572EB01033CBF12
:1031C00060461146FFF774BFF0B506460D4683B062
:1031D000EFF30584E4B2002C35D1244F3A78F96836
:1031E00004328B6A51F82220D21AC31A934207D3B1
:1031F00020BF1F4B586AA8421FD2002003B0F0BD69
:1032000000F070F8864265EB0101002911DB194BD3
:103210003846CDE9003432462B46FFF7A5FE011EA5
:1032200007DD134B5A6AAA4219D220BF0F48FFF795
:10323000FFFE0F4B586AA842DFD39B6A9E4209D813
:10324000012003B0F0BD0A4B586A8842D5D39B6A6F
:10325000B342F5D2401B18BF012003B0F0BD9B6AFA
:103260009E42E3D9AA42E1D1DFE700BFBC060020BD
:1032700000000B40492B0010084AD0E90003516AB6
:103280008B4204D8926A824203D301207047002007
:103290007047581A18BF0120704700BF00000B404C
:1032A00001460248C1E90023704700BF793200108F
:1032B00010B4054B054C064AA04214BF1846581CD2
:1032C0005DF8044BFFF790B9500A002000800B40D6
:1032D000906700100346416A0A46986A596A8A4212
:1032E000FAD17047034B596A0A46986A596A914263
:1032F000FAD1704700000B4010B4174A536A9C463D
:10330000946A536A6345FAD1001959414FF000029B
:1033100028BF01220346CAB10F4B596A4B1C08BF94
:103320000B4608D04FF0FF310B460B48426A8A42E9
:10333000FCD38A4207D1084A02E0506A884202D18F
:10334000906A9842F9D35DF8044B7047024A526A7A
:103350009142EAD8EDE700BF00000B401F4B9842B6
:103360000AD84FF47A731E4A03FB00F0916A936AFD
:103370005B1A9842FBD870474FF47A7130B4184BFF
:10338000A0FB01015A6A94469C6A5A6A6245FAD1C6
:1033900003194A414FF0000528BF01259DB9104986
:1033A000496A8A4203D90E48416A9142FCD391424C
:1033B00007D10B4902E0486A904202D1886A9842DC
:1033C000F9D330BC7047064B5A6A531C08BF1346EA
:1033D000EFD04FF0FF321346E5E700BF9BC420005B
:1033E00000000B40074A536A9942FCD8994207D122
:1033F000044B02E05A6A914202D19A6A8242F9D39E
:10340000704700BF00000B40F8B5054606200E4689
:1034100000F0E4F8002842D0354A3648954214BFFF
:103420004FF080624FF00062334B344902601A6003
:103430008C6832EA0404FBD12D4B4FF48071EB1AF7
:10344000B3FA83F32E4A5B09062022F8131000F02A
:10345000C5F8C300B3FBF6F30133DA0920D14026E7
:1034600001216962AA622F6BFB0722D42B4600223E
:1034700053F82C1F062003F5805422602F6300F0C0
:10348000ADF840F2013103228000B0FBF6F0EB6AA8
:1034900083F0700303F07E0323602963AA64F8BD00
:1034A0004FF6FE718A421BD922464FF6FF71154E28
:1034B000D7E740F2013205F540531A636B6AAC6AF4
:1034C000062004EB831400F089F80F4BA402A3FB41
:1034D0000023DB0A0021B4FBF3F0FFF70DFFC5E783
:1034E000C3F34503114603EB82161A46B9E700BF42
:1034F00000800740002002400030024000000240EF
:10350000540B0020C0FF3F00757B2B8F00EB400C5D
:103510004FEA8C0C0CF1804C0CF5803CF0B5164653
:10352000DCF80420051FB2F5803F38BF4FF480322D
:10353000EDB238BFCCF80420012D2AD94FF4006732
:10354000254C0CF54052176054F82020B2B9DCF835
:103550000020012D82EA461202F0E0020CF58056AE
:1035600032602AD94FF4006144F820304FF48033A0
:103570000CF500521160CCF80430F0BD6769B7FB60
:10358000F2FE0EF1010E0EEB4E0EBEF1030EFCD25A
:10359000DDE70129D2D103240CF540521460DCF898
:1035A0000820D207FBD5DCF800200B4C82EA46123B
:1035B00002F0E0020CF5805632600122DCF8005087
:1035C0004D4005F00305356002FA01F1DCF80820F2
:1035D0000A42FBD0C6E700BF940A0020014B53F813
:1035E00020007047940A002070B4039D04682D03E6
:1035F00045EA03451B4B002CB3FBF1F3B2FBF3F69A
:103600001FDB194A194B904214BF4FF480424FF40C
:103610000042174C1A6003F580531A60A36832EA1F
:103620000303FBD1212200F540530433016086607F
:103630001A600268002AFCDA0822C5601A6070BCB1
:103640007047036803F03F038B42DAD18368C3F30A
:103650000B03B342D5D1C36803F4EE23AB42D0D100
:10366000EDE700BF001BB7000080054000200240CE
:1036700000000240012300EB4000800000F1804088
:1036800000F5841041600360704700BF0023DB8AAF
:10369000002242E800F2520201D41021184704210E
:1036A000184700BF034AD2F82838002BFBD0BFF3DD
:1036B0005F8F704700000E400021044B044ABFF3A7
:1036C0005F8F43F8041B9342F9D170470C080E40FA
:1036D0002C080E4010B42F204FF42A64054A064BE4
:1036E00006491460D06019605368002BFCDA5DF85D
:1036F000044B70470080044000A0044000B0FA0072
:10370000704700BF08B50148FEF73AFFB4670010E4
:1037100038B5054C054DAC4204D254F8043B9847EB
:10372000AC42FAD338BD00BF68620010A862001036
:1037300010B40748074C084B084A094904601A604E
:103740008B6832EA0303FBD15DF8044B704700BF7E
:10375000002002407F3BEFEF00300240F6FFF30312
:1037600000000240044BDB6CB3F5004F03D14FF473
:103770008022024BDA647047000011500020115083
:103780004FF0E022044BD2F8881D0B43C2F8883D6D
:1037900010EE3004704700BF030330006FF060414B
:1037A000044B054A19609368DB4333F06043FAD158
:1037B000704700BF003002400000024010B545F2E3
:1037C0005320FFF763FFBDE810400346042018476D
:1037D00010B545F25320FFF759FFBDE810400346EE
:1037E00001201847FEF7B6BF10B5054B054C4FF446
:1037F00088721846A16802F07DFCA06010BD00BF71
:103800000000002000ED00E0002370B52B4C82B0DA
:10381000C4F88430FFF75EFF0122294BDA63636C42
:10382000012BFCD10321264A244B11639C6B012CF4
:10383000FCD10226052521460523224A224800966E
:10384000FFF7D2FE21462B46204A21480095FFF77C
:10385000CBFE0022042031461E4BFFF757FE2146C7
:10386000284600221C4BFFF751FE0022082011467B
:103870001A4BFFF74BFE002209201146174BFFF7AA
:1038800045FE002206201146134BFFF73FFE0022A3
:10389000114B07201146FFF739FE0420FFF79EFE6B
:1038A00000240F4BA3FB0035AD0CE0B229460134D8
:1038B000FFF7E0FE062CF8D102B070BD0000014019
:1038C00000300140002F685900000540008C8647F9
:1038D00000800540001BB70080D1F008006CDC02BE
:1038E00083DE1B4386B003B451FC0804CDE902011A
:1038F00051FC0904CDE9040151EC0A04CDE90601AB
:1039000003BCF047BDE800504EEC00C4BDE80050D9
:103910004EEC01C4BDE800504EEC02C400BD0000F6
:1039200000B5FFF7DFFF02E010FE30F4F8D441EC01
:10393000100443EC112400EE010410EE010480EEAB
:10394000200451EC1004704700B5FFF7CBFF02E0F4
:1039500010FE30F4F8D441EC100443EC112400EED6
:10396000010410EE210480EE200451EC3004704775
:1039700000B5FFF7B7FF02E010FE30F4F8D410B541
:1039800041EC100443EC112451EC040453EC0524E5
:10399000A0FB024C5FF0000EE0FB03CEE1FB02CE89
:1039A0004CEC20440024E1FB03E444EC30E480EEE2
:1039B000200451EC5004BDE81040704700B5FFF7FB
:1039C00091FF02E010FE30F4F8D441EC100443EC17
:1039D000112451EC2104A0FB01126FEA820252FB78
:1039E000100052FB12F252FB1000A0EBD07C53EC03
:1039F00004245CFB13F153EC1524A1FB022001FB12
:103A0000030053EC4424A2EB000050FB1CF24FEAED
:103A1000111312EB017043EBE27140EA515020EABE
:103A2000915020F0070053EC7524A0FB023C53ECAE
:103A3000752400FB03CC01FB02CC53EC0424ACEB5B
:103A4000824C40EA5C70A0F1010041EC400480EE41
:103A5000200451EC7004704700B5FFF743FF02E00B
:103A600010FE30F4F8D440EC700400EE010410EEC7
:103A7000210480EE200451EC3004704700B5FFF7BC
:103A800031FF02E010FE30F4F8D440EC600400EEA8
:103A9000010410EE210480EE200451EC3004704744
:103AA00000B5FFF71FFF02E010FE30F4F8D441EC40
:103AB000800400EE010410EE010480EE400410EEDC
:103AC0001304704700B5FFF70DFF02E010FE30F45D
:103AD000F8D441EC800400EE010410EE010480EE05
:103AE000400410EE3304704700B5FFF7FBFE02E020
:103AF00010FE30F4F8D441EC100443EC112400EE35
:103B0000010410EE3004C0F30070704700B5FFF7F9
:103B1000E9FE02E010FE30F4F8D443EC102441EC4E
:103B2000110400EE010410EE30F48CBF01200020DF
:103B3000704700BF00B5FFF7D5FE02E010FE30F47D
:103B4000F8D441EC100443EC112400EE010410EE13
:103B500030F42CBF01200020704700BF00B5FFF7F4
:103B6000C1FE02E010FE30F4F8D441EC100443EC46
:103B7000112400EE010410EE30F48CBF012000206F
:103B8000704700BF9A4238BF88547047704700BFE3
:103B90002DE9F04F83B09946DDE90DAB0F9B8846C8
:103BA00011469A07074616D1DA453AD20C460D4619
:103BB000ABEB0A060E4422464B4641462020013418
:103BC000B847B442F7D12946BAF1000F08D12046D0
:103BD00003B0BDE8F08F0C46BAF1000F10D00E46CE
:103BE00055460C9B2E449A440191721B4B46013D55
:103BF00041461AF8010D3446B847002DF5D1019918
:103C00000F9B9B07E3D5651AAB45E0D922464B468F
:103C1000414620200135B8475D4504F10104F5D344
:103C2000D5E7BAF1000FDAD10C46D0E72DE9F04F15
:103C30000F9FDDF824E017F0020F0A9C9DF82C90EE
:103C40000E9DDDE90C8629D1002D6FD1B44225D21D
:103C5000202C07F0010B00F0128104F1FF3C4FF023
:103C6000300AF44401E0202C7AD00134A6420CF84A
:103C700001AFF8D8BBF1000F10D0AC420ED2202C0F
:103C800074D004F1FF3C4FF0300AF44401E0202CE2
:103C900029D00134AC420CF801AFF8D117F0100F65
:103CA0003AD017F4806F28D11CBBB8F1100F00F088
:103CB000CA80B8F1020F00F0D48030248EF80040A2
:103CC0000124B9F1000F67D17E0740F1AA802B26AD
:103CD0000EF804600134CDE90B57CDE909E4BDE8E5
:103CE000F04FFFF755BFFC0640F189807C0535D4C5
:103CF0002024A6426AD0AC4268D0B8F1100F00F080
:103D00008780B8F1020F5AD0202CE4D02646013427
:103D10004FF0300C0EF806C0202CD2D1CDE90B5755
:103D2000CDE909E4BDE8F04FFFF732BF17F0010B12
:103D30003ED0B9F1000F47D117F00C0F44D1B44277
:103D40009BD2202C89D1202D10D8FC0657D57C057C
:103D500055D4202E00F0B980202D10D02024CCE79F
:103D6000BBF1000F00F0A580202DBCD9FC0646D584
:103D70007C0544D4202E00F0A880202D3FD12C4675
:103D80001F26B8F1100F7FD0B8F1020FC0D14FF04D
:103D9000620C0EF806C0B7E72D260EF80460013459
:103DA000CDE90B57CDE909E4BDE8F04FFFF7F0BED0
:103DB000B442BFF473AF202C7FF44FAFD6E7202C72
:103DC00089D026460134E2E7013DB8E7661ED8D126
:103DD000B8F1100F64D0B8F1020F7FF46EAF622615
:103DE0008EF80060302644468EF80160B9F1000F6D
:103DF0003FF46AAFD0E7B8F1100F7FF46CAF202426
:103E0000CDE90B57CDE909E4BDE8F04FFFF7C0BE9F
:103E1000BE060ED4202CF2D078260EF804600134B1
:103E200072E73E077FF557AF20260EF80460013495
:103E300051E7202CE3D04FF0580C0EEB040686F827
:103E400000C0013460E7BE0617D558248EF8004044
:103E500030248EF801400224B9F1000F3FF434AF52
:103E60009AE762248EF8004030248EF80140022444
:103E7000B9F1000F3FF428AF8EE77824F2E7BBF1E9
:103E8000000F7FF462AF71E717F0200F0CBF4FF007
:103E9000780C4FF0580CA61E0EF806C0013C35E712
:103EA000BC06EAD558248EF8004030248EF8014034
:103EB000DDE717F0100F3FF40EAF17F4806F9AD1C3
:103EC000202E7FF418AF1F265BE734461F2658E7E5
:103ED00000B9704701F0E6BA10B1D1E900311847D6
:103EE000704700BF000000002DE9F04F9FB09DED2E
:103EF000287BDDE92AA558EC177B83461E460D91E9
:103F0000109243463A46384641468DED087B2C9C3C
:103F1000FFF7EEFD002840F0D880384641464FF0CC
:103F2000FF32754BFFF71EFE002840F0CE8038466A
:103F300041464FF0FF326FF48013FFF7EBFD00288E
:103F400040F0C380DDE9087800223846414600236E
:103F5000FFF7E0FD002840F0C081CDE90A78DDE9F7
:103F60000A2390461F4614F4806308BF4FF0060AE8
:103F7000139304F4006258EA0703119240F0C080E2
:103F8000002A00F0A2819FED5A7B00278DED0E7B69
:103F90004FF00009BA45CCBFAAEB070A4FF0000A60
:103FA0004F46C8BF0AF1FF3A44F480644D4594BFC0
:103FB0004FF00008A5EB090814F00203119304D098
:103FC000B9F1000F18BF4FF000083FB1DDE90A0159
:103FD000DDE90E23FFF7F6FCCDE90A01DDE9080172
:103FE00000220023FFF796FD30B1DDE90A01024609
:103FF00001F10043CDE90A239DED0A7BCDE902A83A
:10400000DDF834A024F4006304938DED007B334687
:1040100051465846109A00F097F98046B9F1000FC2
:104020004FD014F0200F024600F1010433460CBFBC
:10403000652045205146D84709F1FF3087EAE77CE3
:104040000DF1580900224B46DFF8B080ACEBE77C5D
:104050004FEAD77E01E0202A10D0E246A8FB0C717F
:10406000C90801EB8107ACEB47073037BAF1090FFC
:104070008C4602F1010203F8017BECD80523059080
:10408000069300200A230D9FCDE90330CDE9012ED0
:104090003346224639465846CDF80090FFF7C6FD14
:1040A000119B80466BB1109BC41AA54209D94246A8
:1040B0003346394620200134D847A54208F101088B
:1040C000F5D840461FB0BDE8F08F9DED087B334624
:1040D0005846109A0D998DED287BCDE92B54CDF8DB
:1040E000A8A01FB0BDE8F04F00F02EB9AFF30080DC
:1040F0000000000000000000FFFFEF7FCDCCCCCC23
:10410000C7F30A50A0F2FF30FFF7AAFC8AA3D3E955
:104110000023FFF731FC8AA3D3E90023FFF704FC57
:10412000C7F31307CDE90E0147F07F514046002247
:104130007B4B41F44011FFF70BFC6BA3D3E9002349
:10414000FFF71AFC02460B46DDE90E01FFF7ECFB18
:10415000FFF7AAFC0746FFF783FC65A3D3E900231A
:1041600080468946FFF708FC00226E4BFFF7DCFB18
:10417000FFF79AFC03464946404612935EA3D3E9F3
:104180000023FFF7F9FB804612988946FFF768FC89
:104190005BA3D3E90023FFF7EFFB02460B46404643
:1041A0004946FFF7D5FB02460B4680468946FFF796
:1041B000E3FB42464B46CDE90E0140464946FFF738
:1041C000B3FB0022CDE91401DDE90E01564BFFF7E8
:1041D000F9FB0022554BFFF7A7FB02460B46DDE932
:1041E0000E01FFF7EFFB0022514BFFF79DFB02464C
:1041F0000B46DDE90E01FFF7E5FB42464B468046E4
:10420000894600204FF08041FFF7A2FB02460B4693
:1042100040464946FFF788FB02460B46DDE914019C
:10422000FFF7D0FB0022434BFFF77EFB129B0022DF
:1042300003F2FF3C4FEA0C53FFF79EFB8046894692
:10424000DDE90A0142464B46CDE90E89FFF762FCE3
:1042500068BB4346494607F16302C62A119A8CBFE0
:104260004FF005094FF00409002A3FF49FAE0B43BD
:104270003FF48EAEDDE90A0123A3D3E90023FFF763
:104280005DFC48B1DDE90A0121A3D3E90023FFF772
:1042900041FC00287FF47CAEBAF1000F3FF486AEFB
:1042A000139B002B3FF482AE0AF1FF3A7EE6002218
:1042B0001E4B40464946FFF785FB0A46014603462A
:1042C000CDE90E12013F1146C5E79FED137B17465E
:1042D0004FF004098DED0E7B68E608F100430A9764
:1042E0000B933CE6AFF3008061436F63A787D23F37
:1042F00071A379094F930A401655B5BBB16B0240C3
:10430000EF39FAFE422EE63F2D431CEBE2361A3F10
:104310000000000080842E4100000000000000002A
:104320000000F83F0000E03F00002C400000244067
:10433000000018400000F03FFB799F501344D33F2A
:10434000B3C8608B288AC63F2DE9F04F97B0DDE9EE
:104350002089CDE90401DDE9224BCDE90623404661
:1043600042464B464946DDF890A0FFF7C1FB0028C6
:1043700040F0C581404649464FF0FF326FF480134C
:10438000FFF7C8FB002840F01D81404649464FF02A
:10439000FF32C14BFFF7E6FB002840F0E380B8A3F3
:1043A000D3E9002340464946FFF7DCFB002840F0F4
:1043B000CB80B5A3D3E9002340464946FFF7AAFBCB
:1043C000002840F0C1804046494600220023FFF704
:1043D000A1FB002840F0E0801AF480650D9000F009
:1043E000E980092C40F296810EAB1A460C933021DD
:1043F0000023A4F109050133202B02F8011BA4EBD3
:10440000030600F03A81AB42F5D19FED9D7B8DED27
:10441000087B49464046FFF747FB0446FFF720FB71
:1044200002460B4640464946FFF792FADDE908236B
:10443000FFF7A2FA02460B46CDE90A23FFF746FB37
:104440000746FFF71FFB02460B46DDE90A01FFF7AF
:104450007FFA02460B46CDE90A2300228F4BFFF775
:1044600081FB002800F0DB8001373846FFF70AFBAC
:10447000DDE90823FFF762FB08B100270134002EB5
:1044800040F0B1802046FFF7EBFA02460B4640466B
:104490004946FFF75DFA0022804B06460F46FFF7BC
:1044A00039FB40B93046394600227C4BFFF75AFBB6
:1044B000002800F015810C9B691E7948194410E012
:1044C00080FB0462C3EBA20303EB8302A4EB420470
:1044D00004F1300201351C4601F8012F002B00F0D9
:1044E000AB80202D4FEAE473EAD10AF00303012BDD
:1044F0001CD1BBF1000F19D00D9B002B40F0F980AF
:104500001AF00C0F40F0F580AB4540F2D380202D1F
:104510000BD030220C996B1E0B4401355D4503F81E
:10452000012F00F08D80202DF7D12025DDE9062315
:10453000DDE904010C9CCDE902BA01950094FFF776
:1045400027FB17B0BDE8F08FCDE92089DDE9062310
:10455000DDE90401CDE923BA229417B0BDE8F04F9C
:10456000FFF7C2BC4F4DCDF88CA00AF0040ABAF197
:10457000000F4D4C18BF2C46DDE90623DDE9040190
:1045800020940CBF03240424CDF888B0219417B0E4
:10459000BDE8F04FFFF7FCBA4B4642460020002131
:1045A000FFF7D6F901231AF48065804689460D93FA
:1045B0007FF417AF9FED367B0EAB06268DED087BA3
:1045C0000C9326E70424DDE90623DDE90401374DD9
:1045D000CDF88CA0CDF888B02095219417B0BDE817
:1045E000F04FFFF7D5BA0C9B681EDFF8C4C0184423
:1045F0000DE0ACFB0721C90801EB8102A7EB4202E9
:104600003032092F00F8012F27D90F461D46202DE3
:1046100005F1010306F1FF36EBD120254BE700221F
:10462000DDE90A011D4BFFF775FA00287FF427AF7B
:10463000002F5AD1013722E70AF00303012B75D06E
:10464000202D3FF473AF0D9BBBB32D2205F1580312
:104650006B4403F8202C013568E7202BDDD0AEB386
:104660000C9A1E441544302201E0B3422ED001338F
:10467000202B05F8012FF8D1CFE71D46C5E600BF76
:104680000000000065CDCD410000000065CDCDC12A
:104690000000000080842E41FFFFEF7F0000E03F1C
:1046A00067666666FC670010046800100C680010FE
:1046B000CDCCCCCC202D3FF439AF1AF0040F0DD166
:1046C0001AF0080F3FF432AF2022BFE72E2103F18A
:1046D00058026A4402F8201C5D1CECE62B22B5E768
:1046E000E3077FF5E8AE0134E5E6FA077FF5C7AEEC
:1046F000A0E70BF1FF3BAB453FF609AFA0E7032472
:10470000DDE90623DDE904010A4DCDF88CA0CDF8E2
:1047100088B061E7084B264603EBC40393ED007BAA
:104720000EAB8DED087B00250C9372E6BBF1000FFC
:1047300086D0E1E608680010F86800102DE9F04F17
:104740009A469BB0249C964D0B94964C0B1E18BF1A
:10475000834625609AF80000934C0A9308BFA3464D
:104760000992002800F0BC824FF000090AE04A4696
:10477000099B0A9909F10109D8479AF80000002815
:1047800000F0CE8025280AF1010AF0D1002352461C
:1047900012F8010BA0F1200110290AD8DFE801F07E
:1047A0004009093C090909090909093809340909B5
:1047B0003000A0F13001092940F28C802A2800F055
:1047C000F58000210C912E2800F099800027A0F19F
:1047D000680112292DD8DFE811F057012C00510192
:1047E0002C0045012C002C002C002C002C002C004F
:1047F0002C0027002C002C002C002C002C00270063
:10480000924643F00103C2E7924643F00203BEE73B
:10481000924643F00403BAE7924643F01003B6E72A
:10482000924643F00803B2E79AF8010043F480731C
:1048300001326728924600F28280242840F2C68026
:10484000A0F12502422A00F2C180DFE812F05F01E8
:10485000BF00BF00BF00BF00BF00BF00BF00BF0060
:10486000BF00BF00BF00BF00BF00BF00BF00BF0050
:10487000BF00BF00BF00BF00BF00BF00BF00BF0040
:10488000BF00BF00BF00BF00BF00BF00BF002601C8
:1048900045012601BF00BF00BF00BF00BF00BF0031
:1048A000BF00BF00BF00BF00BF00BF00BF00BF0010
:1048B000BF00BF00D301BF00BF00BF00BF00BF00EB
:1048C000BF00BF00BF00BF00D3016701D3012601B5
:1048D00045012601002100E0013201EB810100EBDE
:1048E000410110789246A0F13004092CA1F1300169
:1048F000F2D92E280C9102F101027FF467AF9AF8E9
:1049000001001146A0F13006092E43F4806340F205
:1049100031812A2800F03E8192460027013256E775
:104920004C46099B994501D303F1FF394A460020C3
:10493000099B0A99D84720461BB0BDE8F08FA0F12B
:104940006902D2B20F2A41D8012649F241019640AC
:104950000E4040F001810A2A3FD0072A36D10B9C35
:1049600054F8042B002A00F0288143F021010DF1B6
:10497000480E704603E0202E00F029811A4602F00E
:104980000F052B46092D94BF303337330F2A00F81B
:10499000013B06F101064FEA1213ECD817E100BF04
:1049A0003D470010CC0A00208D3B00100B9C9AF86C
:1049B000010054F8045B9246002DBDBF694243F0EC
:1049C00002030C910C950B940132FCE64A46099BBC
:1049D0000A9909F10109D847CFE60B9951F8048BE0
:1049E00098F800201046002F40F0E18072B16FF07F
:1049F000010C0CF1010C4646C44401E0664503D0AD
:104A000016F8014F002CF9D1A6EB080613F4806CC0
:104A100002D0BE4228BF3E4613F0020400F0878158
:104A2000002A00F02B81BCF1000F00F041810B94B3
:104A30000D964A46DDE909540E464F4408E02B46E0
:104A40002146D84718F8010F09F1010910B14A466B
:104A50004F45F4D131460B9C0D9E002C40F00E8149
:104A60000B918AE69AF801006C287FF4DFAE9AF881
:104A7000020043F440730AF10302DAE69AF80100F7
:104A800043F400730132D4E69AF80100682800F07C
:104A9000208143F080030132CBE6672800F0E780F5
:104AA000472800F00081452800F0FF800B9C04930C
:104AB0000C9B0734CDE9027324F007031C46DDE9A3
:104AC0000931F4E802674A465846CDE900670B947D
:104AD000FFF70AFA814650E646280B9C08BF43F0D0
:104AE000200304930C9B0734CDE9027324F00703E1
:104AF0001C46DDE90931F4E802674A465846CDE92B
:104B000000670B94FFF720FC814636E64A462520D5
:104B1000099B0A9909F10109D8472EE60B9A9C07CF
:104B200002F1040709F1010640F1E6801078099BC3
:104B30004A460A99D8470C9B012B40F22C81DDE9AB
:104B40000954994432462B46214620200136D84745
:104B50004E45F7D10B9710E66F2800F08B8040F29E
:104B60006581782800F008814FF00A0823F01003CF
:104B7000C44647E0002707EB870700EB4700A0F19A
:104B8000300711F8010FA0F13002092AF3D98A4643
:104B90004A1C1CE60B9C9AF8020054F8047B0AF1AC
:104BA000020A0AF101020B9427EAE7770FE6002ACE
:104BB0003FF42CAF07F1FF3C1BE723F0100113F487
:104BC000806241F021013FF4D2AE0DF1480E08237E
:104BD0001020059300234A46CDE90230069158463D
:104BE000DDE90931CDE900E60497FFF71FF80B94E2
:104BF0008146C2E5582879D0622840F051824FF0B2
:104C00000208C44613F480606DD123F00C0313F442
:104C1000007240F0C2800B9904310D9113F4807141
:104C200040F02E825E060B9A40F1AA801278002A8C
:104C300040F0DA8023F01003002800F0D580114600
:104C40000DF1480E06930C9BCDF80CC0CDE9047312
:104C5000019100234A4602935846DDE90931CDF817
:104C600000E0FEF7E3FF0D9B81460B9385E543F4DF
:104C700000631BE74FF00808C446C3E70C9B4C4693
:104C8000B3427FF6EDAE0F464B44A3EB0609DDE9D8
:104C9000096522463346294620200134D8474C4531
:104CA000F7D13946DCE643F4006343F02003FDE628
:104CB0000F460B94DDE909544A462B462146D84756
:104CC00018F8010F09F101090028F5D139460B9CAC
:104CD000C3E69AF8020043F0C0030AF10302A8E514
:104CE000044681461DE623F00D0390E74FF01008BF
:104CF00043F02003C44685E70C9B012B45D9DDE931
:104D000009544E4609F1FF38984432462B46214655
:104D100020200136D8474645F7D10C9B32469944AE
:104D20000B9B1878DDE90931D8470B9725E50C9BDB
:104D3000B34240F2EE81CDE90D48DDE909548846E1
:104D40004B449E1BCDF82CC04A462B4621462020C2
:104D500009F10109D847B145F6D14146DDF838805F
:104D60000C9BDDF82CC00D9C98F800205E1C1046B2
:104D7000002A7FF458AE73E64FF01008C44641E7AE
:104D80001D064CBF1288126851E713464A46187830
:104D9000DDE90931D847B146DCE60B9C073424F045
:104DA00007042246656852F8084B0B9254EA050244
:104DB00040F02C8123F01003002800F0278100260A
:104DC0000DF1480E06930C9B4A46CDE9047300236F
:104DD000CDE900E6CDF80CC002935846DDE9093173
:104DE000FEF724FF8146C8E413F0200F14BF4120D2
:104DF00061200DF1480E7646A0F10A0803E0202953
:104E00003FF420AF2246B2FBFCF40CFB1425E8B2C1
:104E1000092D00F130058ABF4044E8B2C0B26245B6
:104E200006F8010B01F10101E9D20BE723F01002B2
:104E300069280D9240F06F8113F4806204D04FF422
:104E4000806223F011030D930D9B13F4007640D183
:104E50000B9B03F104080D9B13F4807040F09880C5
:104E6000590640F1C6800B9B19780C46CB0F0029E0
:104E700000F0B98022460DF1480E74461646DFF860
:104E8000A0C201E020280FD03546ACFB0621C9089E
:104E900001EB8102A6EB42023032092D0E4600F1F1
:104EA000010004F8012BEDD80D9ACDE9010306921B
:104EB0000C9ACDE904720A234A4603935846DDE969
:104EC0000931CDF800E0FEF7B1FECDF82C80814627
:104ED00053E40B9C073424F007042146084663681A
:104EE00050F8081BDC0F0B9051EA030000F0C38060
:104EF0000A46191E48DB13460DF1480EF4460026FB
:104F0000CDE90E94DFF8188201E0202E2DD05A183A
:104F100042F10002A8FB025929F0030505EB9905AF
:104F2000521B1C469B1A61F1000508464FF0CC311C
:104F300001FB03F108FB0511A3FB085319440523EA
:104F400005F00109A9FB03399B180A2C03F1300372
:104F50004FEA550570F100000CF8013B06F101061F
:104F600045EAC1734FEA5101CFD2DDE90E940D9BA2
:104F70004A4606930C9BCDE90164CDE904730A23EC
:104F8000CDF800E0039328E7524261EB4101B2E71C
:104F90000B9B1968CB0F002900F0AB8081EAE1720E
:104FA000A2EBE1720DF1480E7046DFF874C101E02A
:104FB000202E10D01546ACFB0241C90801EB81043C
:104FC000A2EB440404F13002092D00F8012B06F194
:104FD00001060A46ECD80D9ACDE9016306920C9AB7
:104FE000CDE9047267E7002A3FF445AF0DF1480EA2
:104FF0005AE713F0800F0B9B00F08180B3F900108B
:1050000081EAE174A4EBE174A4B22FE713F0200F5E
:1050100014BF412261220DF1480E0A3ACDE90D97E5
:10502000CDF844B000267746F3469146CDE90F3CD3
:1050300003E0202E17D004460D46294642460023A1
:10504000204601F0FDF8D2B2092A02F1300388BFF0
:1050500002EB09034445DBB275F1000507F8013B9B
:1050600006F10106E5D2DE46DDE90D97DDE90F3CEC
:10507000DDF844B0A6E6002A47D1134611463BE7C7
:105080000B990968A1B923F0100388B10DF1480EFE
:1050900006930C9BCDF80CC0CDE904730192D8E5C2
:1050A00013F480627FF4CBAE23F010030D93CBE6B4
:1050B00013F0200F14BF412061200DF1480E7646F9
:1050C000A0F10A0802E0202AE2D02146B1FBFCF45C
:1050D0000CFB1415E8B2092D00F130058ABF4044DD
:1050E000E8B2C0B2614506F8010B02F10102EAD252
:1050F000CEE7002A3FF456AF0DF1480E6BE7196872
:1051000081EAE174A4EBE174B0E600260DF1480EEB
:105110002DE701362BE64FF00A081346C44671E529
:10512000CDCCCCCC0EB410B585B007AC54F8043B54
:1051300001464FF0FF32009404480394FFF7FEFA53
:1051400005B0BDE8104003B0704700BF853B0010BC
:1051500070B594461E4605460C4684B04FF0FF32AB
:10516000634602A900960348CDE90254FFF7E6FA28
:1051700004B070BDD93E001010B5094B84B01C6856
:105180004CB1034600914FF0FF3203A90548A047F8
:10519000012004B010BD00F0C7F9204604B010BDD6
:1051A000CC0A0020D13E001000BEFDE708B5FFF795
:1051B000FBFF00BF38B5064C064DFEF7A9FAAC421E
:1051C00004D254F8043B9847AC42FAD338BD00BF30
:1051D000A8620010B0620010036808461146184724
:1051E000437D2DE9F04781460F461646002B43D0FC
:1051F000002A3BDD037D00204D1E014615F8012FDE
:10520000DFF884800A2A01F101040ED0A6421CD0E6
:105210002B782146A3F10D03B3FA83F315F8012F80
:105220005B090A2A01F10104F0D1002BEED1814281
:10523000A1EB000138441BDC02214046D9F80030C4
:105240009847A64208D02046E2E7864204DD311A9C
:10525000D9F8003038449847374417F8013CA3F197
:105260000D03B3FA83F35B0989F81430BDE8F087C6
:10527000D9F800309847DFE73846D9F800301146B2
:10528000BDE8F047184700BF486900100B682DE9DA
:10529000F041802B0D46064605D05A1C2B442A604F
:1052A0001E71BDE8F0810F4B1C68A4B10E4F01F1D7
:1052B000040801E0246974B12368002BFAD03B682C
:1052C0000BB1A342F6D1204641462A68FFF788FF7A
:1052D0002469002CF0D1002301222B442A601E7186
:1052E000BDE8F081BC0A0020C00A00202DE9F0478B
:1052F00082B00D46924699460746FDF7F3FF4FF000
:10530000FF366FF000442F4A821841F100039642A5
:1053100074EB03013CBF324623462B4800F098FF54
:105320006B1C804603D1384600F05AFF0546274BD8
:10533000274E1C68274BB9F1000F18BF1E46B4B1A9
:10534000BAF1000F1AD1DFF8909001E0246974B12E
:105350002368002BFAD0D9F800300BB19C42F5D16C
:1053600020462A463946B0472469002CF0D1B8F1CE
:10537000000F1FD1284602B0BDE8F0874FF00A0A9F
:10538000DFF8549002E02469002CF0D02368002B51
:10539000F9D0D9F800300BB1A342F4D12A463946EE
:1053A0002046B047012220460DF107018DF807A0E5
:1053B000B047E8E7044800F047FF284602B0BDE8E0
:1053C000F08700BF40420F00F4060020BC0A002016
:1053D000D9510010E1510010C00A00200A4A136898
:1053E0004BB1834202D109E0984207D003F1100289
:1053F0001B69002BF8D101B1106070470029FCD166
:105400000369136001617047BC0A002008B500F011
:10541000EBF9012008BD00BF2DE9F04182B006463E
:10542000FDF760FF4FF0FF326FF00043361841F197
:105430000007B24273EB07013CBF16461F46DFF878
:105440006080154DD8F8004014B912E0246984B189
:105450002B680BB19C42F9D1A368002BF6D0012137
:1054600001A898470028F1DD9DF8040002B0BDE8CE
:10547000F0810A4B5A6A974209D89B6AB34204D317
:105480006FF0010002B0BDE8F0819742F8D1012031
:105490000021FDF731FFD5E7C00A002000000B40D6
:1054A000BC0A0020F0B583B006468DF80700FDF772
:1054B00019FF4FF0FF356FF00044174A821841F191
:1054C0000003954274EB03013CBF23462A46134870
:1054D00000F0BEFE124B07461C689CB1114D01E066
:1054E00024697CB12368002BFAD02B680BB19C4255
:1054F000F6D1204601220DF10701FFF771FE246964
:10550000002CEFD117B9304603B0F0BD034800F0CE
:105510009BFE304603B0F0BD40420F00F406002071
:10552000BC0A0020C00A002038B5044600F058FE2E
:10553000012305461A4620462946FFF7D7FE084BA9
:105540001C682CB163682BB198472469002CF9D1F1
:10555000284638BD2469002CF4D1284638BD00BF48
:10556000BC0A00202DE9F041A2B004460D46FDF72B
:10557000B9FE4FF0FF376FF00046274A821841F11D
:105580000003974276EB03013CBF3A46334623487B
:1055900000F05EFE00262B4607462246204801A961
:1055A0000196FFF7D5FD019B06467BB91D4B1C6894
:1055B0002CB1636843B198472469002CF9D10FBB23
:1055C000304622B0BDE8F0812469F1E7DFF854806D
:1055D000D8F80050EDB1144C01E02D6975B12B687D
:1055E000002BFAD023680BB1AB42F6D12846019AC2
:1055F00002A9FFF7F5FD2D69002DF0D1D8F8004084
:105600000195D5E7054800F01FFE304622B0BDE801
:10561000F0810195D3E700BF40420F00F40600205F
:105620008D520010BC0A0020C00A00200FB400B543
:1056300083B004A951F8040B0191FFF793FF03B065
:105640005DF804EB04B07047B1F1000C1DDD0F4AAA
:105650000F4B126830B5D31AB3FA83F30D240D4DF6
:105660005B09411E35F913E08C4411F8010F8645A2
:1056700006D093699B06FCD461451060F5D130BD1E
:1056800093699D06FCD41460F3E77047580B002023
:1056900000800740540B0020224BB1F1000C10B4E5
:1056A0001C682EDD034600201F4A591E12689369AC
:1056B000DB0617D401309369DB06FCD413688445FC
:1056C00001F8013FF3D14CB150211346916353F8D7
:1056D000342F02F0380203F580531A6060465DF8FB
:1056E000044B70474CB150211346916353F8342F4B
:1056F00002F0380203F580531A6078B15DF8044B6C
:1057000070475CB1084B50211A681346916353F8F7
:10571000342F02F0380203F580531A606FF0020054
:10572000ECE700BF480A0020580B0020054B1B681F
:1057300033B10021044A0548126800689163184794
:10574000704700BF480A0020580B00204C0A002078
:10575000024B1A6893691B07FCD47047580B002052
:10576000F8B51C4F1C4D3A681C4EAA4214BF2125A7
:1057700022250446D6F800C018B1BCF1000F10D0A5
:10578000F8BDBCF1000FFBD0014690632846FDF741
:105790000DF828461249FDF74FF8124B34601C6093
:1057A000F8BD0B460F4A0E49306028461360FDF7DE
:1057B00013F801212846FCF7F9FF3A6850211346F7
:1057C000916353F8342F02F0380203F580531A60C6
:1057D000F8BD00BF580B002000800740480A002099
:1057E0002D5700104C0A002010B50E490E4C0F48E2
:1057F0000F4A104B007821600020022112781B789C
:10580000FCF768FE02210120FCF764FE4FF4E13151
:105810002068FDF7F9FDBDE8104001210648FFF7BB
:10582000DDBD00BF00000740580B0020B06900102C
:10583000AC690010A8690010D40600202DE9F84FCB
:105840004FF0010CDDE90B46002791460268B3F1E9
:105850000008D766054651609DF828B0C2F86CC0B4
:1058600021DD08F1FF3A14B101213046A0472B6831
:105870005A6F102AFCD0002F33D00022BA4504BF43
:105880008BF0010142EA412242F480721A618CB12C
:10589000D3F88020596B11F0400113D0002130461D
:1058A0005B6DA047C743384685F804B0BDE8F88F64
:1058B0009A6F7AB9D3F880205A6B5206F8D5002037
:1058C0005B6DEFE73046A0470028EBD12B689A6F5D
:1058D000002ADDD01B690137B84509F8013BC2D168
:1058E000E1E72A799202C9E7F8B5064605200C4699
:1058F000FDF774FE00EB540CBCFBF4FC214B0CEBED
:105900004C02A3FB025320499F088C42ACEB930549
:1059100030D801F1D64101F5A10101F62C0100EBCF
:105920004003A1FB03139B0D013300244F2A98BFB2
:1059300001223168B0FBFCF0CC660C6801F58056A2
:1059400084F0040404F00604346088BF0D4CCD617B
:1059500084BFA4FB024292090F62C1F8A0200A464C
:10596000012452F87C5F6B409BB202F580521360B9
:10597000CC66F8BD054900EB4003A1FB0313DB0D2A
:105980000133D2E7CDCCCCCC3F420F00893BE6556A
:105990000E4A30B4904214BF202210220C4D0D4B01
:1059A0000D4C2A601A60A36832EA0303FBD140F26F
:1059B0006515032402680371D3661560D36393638E
:1059C000C2F8884030BCFFF78FBF00BFEC06002054
:1059D0000020024000300240000002402DE9F04368
:1059E00089B00DF11008044616461F46DDE9122362
:1059F00040460D469DF84090FDF752FC3B46CDE9F0
:105A00000108324629462046CDF80090FFF716FFE0
:105A100009B0BDE8F08300BF2DE9F84F374B0746CA
:105A2000984214BF4FF400234FF480230E46344DA8
:105A3000344C354A2B602360946833EA0404FBD16C
:105A40000620FDF7CBFD3946022351F8042F4FEA1B
:105A5000462E4FEAD65B704502EA030801F540592D
:105A600074EB0B02C9F8003011D34FEA965CB20216
:105A700001E05246AC460233B3F5807F07D01EEBFF
:105A8000020A4BEB0C05904274EB0C0CF1D24FF474
:105A90008072C3EB03249446013A2DD0B0FBF4F599
:105AA000AE42A4EB0304F6D20CFB03FC1202022468
:105AB0003B613B4603253E6801F500517240B0FB57
:105AC000FCF002F47F4207F5805CCCF80020C1F8BE
:105AD00000807E68C9F8004053F8242B264082F0ED
