:020000041000EA
:10000000002008205D0100101301001015010010F0
:100010001101001011010010110100101101001058
:100020001101001011010010110100101701001042
:100030001101001011010010190100101B01001026
:100040001D0100101D0100101D0100101D010010F8
:100050001D0100101D0100101D0100101D010010E8
:100060001D0100101D0100101D0100101D010010D8
:100070001D0100101D0100101D0100101D010010C8
:100080001D0100101D0100101D0100101D010010B8
:100090001D0100101D0100101D0100101D010010A8
:1000A0001D0100101D0100101D0100101D01001098
:1000B0001D0100101D0100101D0100101D01001088
:1000C0001D0100101D0100101D0100101D01001078
:1000D0001D0100101D0100101D0100101D01001068
:1000E0001D0100101D0100101D0100101D01001058
:1000F0001D0100101D0100101D0100101D01001048
:100100001D0100101D0100101D0100101D01001037
:1001100000BE00BE00BE00BE00BE00BEEFF3058004
:10012000103800BEF2EB887174380110A438011049
:10013000A801001090A31AE7D3DEFFFF42012110AF
:10014000FF01000020440100793512AB4FF00000A0
:100150002049086006C881F3088810474FF05040D6
:10016000006810B14FF00000F2E70FA40ECC002998
:1001700002D000F015F8F9E71749184A002000E00E
:1001800001C19142FCD1002080F30A8814498847BC
:10019000144988471449884700BEFDE701C901C2D8
:1001A0009A42FBD3704700BFA43801101001002011
:1001B000C40D002058450110000008200000082050
:1001C0005845011000100820001008200000000011
:1001D0007047000008ED00E0C40D0020A0130020CF
:1001E000495B0010790200100D5B0010F8B500BFEC
:1001F000064B0749C91A891048BF0131491003D07D
:10020000044B0BB101481847704700BFC40D0020D4
:10021000C40D00200000000008B5054B1BB10549C6
:100220000548AFF30080BDE80840FFF7E1BF00BF1D
:100230000000000010130020D0C0001008B50C49C9
:100240000C4806F06FF80321042002F0F5FB0321AF
:10025000052002F0F1FB00220121042002F00AFC3B
:1002600000220121052002F005FC002008BD00BF8E
:10027000A0860100EC0600202DE9F04FADF2645D90
:100280000DF5667A50220021504607F00BF8002346
:100290001920229302F002FC19234FF0010242ECD4
:1002A0004430FFF7CBFF002840F0D68302F03AFB42
:1002B000652402F01BFB05F073FD04E0013C07D050
:1002C000642003F01BFA002006F0FAF80028F5D0AD
:1002D000BA4805F0F3FD03F0B5FA0B463C220021C5
:1002E000099023A80A9306F0DDFF03F0ABFA0B4652
:1002F0003C220021059032A8069306F0D3FF03F0BC
:10030000A1FA0B463C2200211B9041A81C9306F049
:10031000C9FF03F097FA0B463C2200210B9050A82E
:100320000C9306F0BFFF03F08DFA0B463C22002130
:100330000D905FA80E9306F0B5FFA14801F0CCF830
:100340000DF57A781D9003F07DFA78220021404661
:1003500006F0A8FF03F076FA0B463C2200210F902E
:100360006EA8109306F09EFF03F06CFA0B463C2239
:10037000002111907DA8129306F094FF03F062FA19
:100380000B463C22002113908CA8149306F08AFFA0
:1003900003F058FA0B463C22002115909BA81693B7
:1003A00006F080FF03F04EFA0B463C220021179026
:1003B000AAA8189306F076FF03F044FA0B463C22F5
:1003C00000211E90B9A81F9306F06CFF03F03AFAC3
:1003D0000B463C2200211990C8A81A9306F062FF30
:1003E00003F030FA0B4607903C220021D7A808936F
:1003F000002606F057FF03F025FA099BC01A0A9B56
:1004000061EB03016F4B984271F1000180F2BD80F6
:1004100003F018FA059A6C4B801A069A61EB0201F8
:10042000834276EB0101C0F2088203F00BFA1B9BBA
:10043000C01A1C9B61EB0301644B834276EB010104
:10044000C0F2118203F0FEF90B9A614B801A0C9AEC
:1004500061EB0201834276EB0101C0F21A815D4B30
:10046000C8F800301D9B002B40F04D8103F0EAF9E5
:100470000D9A594B801A0E9A61EB0201984271F164
:10048000000180F2988203F0DDF90F9A504B801A38
:10049000109A61EB0201834276EB0101C0F2EE801B
:1004A00003F0D0F9119A4A4B801A129A61EB0201BB
:1004B000834276EB0101C0F2D38003F0C3F9139AB3
:1004C000434B801A149A61EB0201834276EB0101DF
:1004D000C0F2B88003F0B6F9159A3D4B801A169A0F
:1004E00061EB0201834276EB0101C0F29D8003F0D3
:1004F000A9F9179A364B801A189A61EB02018342C8
:1005000076EB0101C0F2828003F09CF91E9A304B19
:10051000801A1F9A61EB0201834276EB010167DBCF
:1005200003F090F9199A2A4B801A1A9A61EB02018A
:10053000834276EB010136DB03F084F9079A244B02
:10054000801A089A61EB0201834276EB0101BFF643
:1005500052AF03F077F903460020CDE9073105F0EB
:1005600025FC1E4B1B68002B40F37981811C00F099
:1005700037821B4AD054194A01331360194B184A69
:100580001949D7A805F02EFA35E703F05BF91923CE
:100590004FF00102CDE9090142EC403003F052F97D
:1005A000CDE9050134E703F04DF9104BCDE9190110
:1005B00093E80300C8908DF82413BDE7DCC0001059
:1005C00060060020C0CF6A001FA10700FFE0F5050C
:1005D0003F420F005258200000127A0028130020DA
:1005E000901200204C130020ACC200106CC200100E
:1005F00006234FF0000242EC4030A94BB9AC0FCBC0
:1006000007C424F8023B1B0C237089E703F01AF996
:10061000A44BCDE9170193E80300ADF8AC12090C27
:10062000AA908DF8AE126FE703F00CF99E4BCDE95E
:10063000150193E80300ADF87012090C9B908DF83A
:10064000721254E703F0FEF8984BCDE9130193E8DA
:100650000300ADF83412090C8C908DF8361239E78E
:1006600003F0F0F8924BCDE9110193E80300ADF8E7
:10067000F811090C7D908DF8FA111EE703F0E2F8ED
:100680008C4BCDE90F0193E803006E90ADF8BC11DF
:1006900006E703F0D7F8884A50AB0B900C9107CAD5
:1006A00003C3B9A81A7005F08BFCD7A805F088FC25
:1006B00050A805F085FC41A805F082FC32A805F0A1
:1006C0007FFC23A805F07CFC8CA805F079FC9BA896
:1006D00005F076FCAAA805F073FC404605F0EEFB99
:1006E0005FA805F06DFC6EA805F06AFC7DA805F01A
:1006F00067FCC8A805F064FC704BC8F800301D9B6F
:10070000002B3FF4B3AE6E4C6E4D01F017FE30B3CC
:1007100000F024FA0746002840F077810DF58C6040
:1007200001F0DCFE0DF58C631F5400F083FD02F038
:10073000C1F8214622AA0DF26F4006F005FD0128FE
:1007400040F06D812299132900F281805AF82130FE
:1007500001334AF8213001F0F1FD0028D8D140469C
:1007600006F09EFFD0F1770713D05446564D02E0B5
:10077000404606F095FF39462A4654F8043B40446B
:1007800005F046F98742A7EB000740F22581444572
:10079000EED100F04FFD02F08DF803F053F80D9A02
:1007A0004A4B801A0E9A61EB0201984271F10001E6
:1007B000FFF669AE03F046F8454A5FAB0D900E9127
:1007C00007CA03C31A800A25424FDFF8249168B292
:1007D00000F024FB2A4639465FA805F003F95FA81C
:1007E00006F05EFFC1B25FA801F0AEFD00F01AFC9A
:1007F00002F044F81E2002F081FF0B2402E0642086
:1008000002F07CFF01F094FD08B9013CF7D101F042
:100810008FFD00B3013DDAD12F4D5FAC00F00AFD32
:1008200002F048F80FCD0FC495E8030044F8040B1C
:1008300024F8021B090C217025E603F003F81923A4
:100840004FF00002CDE9050142EC4030EDE52846CD
:1008500005F0B6FB59E7484605F030FBDAE7821CA5
:100860007FF487AE8AE602F0EDFF034601251B48C0
:10087000CDE91B3105F022FB194805F01FFB0021D3
:10088000184805F09DFB2E2005F0D6FA164805F015
:1008900097FBAB462C46154FDFF858905CE000BF45
:1008A0005CC2001054C200104CC2001044C20010C0
:1008B0003CC2001034C2001044C100105258200045
:1008C00050C1001054C10010BCC1001000127A00C9
:1008D000D4C20010F4C100101CC20010F8C00010F7
:1008E00008C100103CC10010D8C00010D0C00010DA
:1008F00008C2001038C20010782B30D002F0A2FFDE
:1009000042F21073C01841F100034FF0FF316FF055
:100910000042814272EB030C3CBF08461346594625
:10092000CDE90203009601234D480DF1870205F041
:100930001FFD002813DB4B4805F042FB0F2D34D17F
:100940004846013405F03CFB802C3FF47BAD14F0AD
:100950000F055FFA84FB04D01BF07803CCD1384636
:10096000EAE72146404805F02BFB02F06BFF42F21C
:1009700010734FF0FF32C0186FF0004341F10001D7
:10098000824273EB01053CBF104619460096CDE943
:1009900002010123594632480DF1870205F0E8FCB7
:1009A000002804DB402005F047FA3048C9E72E2034
:1009B00005F042FAF9E702F045FF2D4A5FAB0D90D2
:1009C0000E9107CA03C32B481A8000F085FD1D90C5
:1009D00000283FF458ADF6E6274805F06FFAD8E650
:1009E000264AD654264B1E601368264A93421CD0D2
:1009F0002549224806F000FD00287FF4BFAD0146DE
:100A00005022504606F04EFCB8E5404606F048FE3F
:100A10001E49C0F13B02404606F096FC9FE60DF2EF
:100A200064411B4805F0CCFA99E6144B194A5B68FF
:100A30009342DDD1184C194D06270FCD0FC495E810
:100A4000070003C44FF0010C22704CEC407002F020
:100A5000F9FECDE91E01CBE703F004F926E400BF5F
:100A6000EC060020D4C000103CC10010D8C000101B
:100A7000D4C2001060060020C0C1001090120020F7
:100A8000281300204255524E98C2001080C6001014
:100A900084C100105F4F4E004C1300207CC2001038
:100AA0002DE9F0474FF0000A82B081460021052071
:100AB0008DF806A0112502F0CFFE4AEC405001242B
:100AC000254E0520002102F0C7FE22460DF1070148
:100AD00030688DF807400BF0D3FA514623460DF1EC
:100AE000060230680BF0C8FA0520002102F0B4FEBF
:100AF00044EC40500520002102F0AEFE9DF8063087
:100B0000052023F0070343EA090300218DF806308E
:100B100002F0A2FE4AEC40500520002102F09CFEAB
:100B2000812322460DF1070130688DF807300BF064
:100B3000A7FA22460DF1060130680BF0A1FA052054
:100B4000002102F089FE44EC40500520002102F013
:100B500083FE02B0BDE8F0876C06002070B500246B
:100B600082B0052000218DF80640112502F074FEA8
:100B700044EC40500520002102F06EFE1223114E7D
:100B80000DF10701012230688DF807300BF078FA7B
:100B9000012321460DF1060230680BF06DFA0520A5
:100BA000002102F059FE4FF0010343EC40500520B4
:100BB000002102F051FE9DF80600C0F3401002B083
:100BC00070BD00BF6C0600202DE9F04341F678614E
:100BD000002405468D4A83B005E0DCB252F82410AB
:100BE000002900F0BF808D4204F10103F5D8884848
:100BF00005F0E6F924014FF00008052000218DF8EA
:100C00000680C14602F028FE112748EC40700520FE
:100C1000002102F021FE1D237E4E0DF1070101226D
:100C200030688DF807300BF02BFA012341460DF1A7
:100C3000060230680BF020FA0520002102F00CFEBD
:100C40004FF0010848EC40700520002102F004FE3E
:100C50009DF80630052023F0F003234300218DF892
:100C6000063002F0F9FD49EC40700520002102F049
:100C7000F3FD9D230DF10701012230688DF8073047
:100C80000BF0FEF901220DF1060130680BF0F8F9C6
:100C90000520002102F0E0FD48EC40700520002115
:100CA00002F0DAFD5C4B9D425ED841F678639D42CE
:100CB00000F0A9804FF223439D428CBF4023442380
:100CC000052000218DF8063002F0C6FD49EC407089
:100CD0000520002102F0C0FDAF230DF10701012224
:100CE00030688DF807300BF0CBF901220DF10601C9
:100CF00030680BF0C5F90520002102F0ADFD48EC8D
:100D000040700520002102F0A7FD002305200021EE
:100D10001D468DF80630112402F09EFD45EC404042
:100D20000520002102F098FDB0230DF107010122FA
:100D300030688DF807300BF0A3F901220DF10601A0
:100D400030680BF09DF90520002102F085FD4FF081
:100D5000010343EC40400520002102F07DFD03B07B
:100D6000BDE8F083902446E70223052000218DF89A
:100D7000063002F071FD49EC40700520002102F0C0
:100D80006BFDB6230DF10701012230688DF80730A5
:100D90000BF076F901220DF1060130680BF070F9C5
:100DA0000520002102F058FD48EC4070052000218C
:100DB00002F052FD6423052000218DF8063002F078
:100DC0004BFD49EC40700520002102F045FDBA239F
:100DD0000DF10701012230688DF807300BF050F952
:100DE00001220DF1060130680BF04AF905200021BF
:100DF00002F032FD48EC40700520002102F02CFD8D
:100E000003B0BDE8F08348235AE700BF30C90010A3
:100E100020C300106C0600201FA107002DE9F04F31
:100E20000346002785B00520002101938DF80E7040
:100E3000112402F011FD47EC40404FF0090B784DB2
:100E40000520002102F008FD0DF10F0101222868A4
:100E50008DF80FB00BF014F9012339460DF10E0295
:100E600028680BF009F90520002102F0F5FC0126A5
:100E700046EC40400520002102F0EEFC9DF80E30CB
:100E8000052063F07F0300218DF80E3002F0E4FCB2
:100E900047EC40404FF0890A0520002102F0DCFCBD
:100EA00032460DF10F0128688DF80FA00BF0E8F81D
:100EB00032460DF10E0128680BF0E2F80520002102
:100EC00002F0CAFC46EC40400520002102F0C4FCC0
:100ED000052000218DF80E7002F0BEFC47EC40406A
:100EE0000520002102F0B8FC32460DF10F01286800
:100EF0008DF80FB00BF0C4F8334639460DF10E02F1
:100F000028680BF0B9F80520002102F0A5FC46EC9A
:100F100040400520002102F09FFC9DF80E30052086
:100F200023F0700343F0700300218DF80E3002F0BF
:100F300093FC47EC40400520002102F08DFC324636
:100F40000DF10F0128688DF80FA00BF099F83246CB
:100F50000DF10E0128680BF093F80520002102F036
:100F60007BFC46EC40400520002102F075FC05208A
:100F700000218DF80E7002F06FFC47EC4040052018
:100F8000002102F069FC32460DF10F0128688DF84E
:100F90000FB00BF075F8334639460DF10E02286894
:100FA0000BF06AF80520002102F056FC46EC4040A8
:100FB0000520002102F050FC019B9DF80E2043EA21
:100FC000E3730E2BA8BF0E2322F00F02334413430A
:100FD000052000218DF80E3002F03EFC47EC404029
:100FE0000520002102F038FC32460DF10F0128687F
:100FF0008DF80FA00BF044F832460DF10E01286871
:101000000BF03EF80520002102F026FC46EC4040A3
:101010000520002102F020FC05B0BDE8F08F00BFE4
:101020006C0600202DE9F043002683B00520002146
:101030008DF80660112502F00FFC46EC40500520AB
:10104000002102F009FC4023784C0DF10701012238
:1010500020688DF807300BF013F8012331460DF1AD
:10106000060220680BF008F80520002102F0F4FBCE
:101070004FF0010747EC40500520002102F0ECFB47
:101080009DF80630052023F0C00343F04003002103
:101090008DF8063002F0E0FB46EC405005200021C0
:1010A00002F0DAFBC0230DF10701012220688DF860
:1010B00007300AF0E5FF01220DF1060120680AF071
:1010C000DFFF0520002102F0C7FB47EC4050052060
:1010D000002102F0C1FBFF23052000218DF806301E
:1010E00002F0BAFB46EC40500520002102F0B4FBB0
:1010F00092230DF10701012220688DF807300AF0D4
:10110000BFFF01220DF1060120680AF0B9FF05209A
:10111000002102F0A1FB47EC40500520002102F025
:101120009BFB052000218DF8066002F095FB46EC44
:1011300040500520002102F08FFB12230DF1070122
:10114000012220688DF807300AF09AFF012331460A
:101150000DF1060220680AF08FFF0520002102F041
:101160007BFB47EC40500520002102F075FB9DF809
:101170000630002B56D14FF00009052000218DF8D4
:101180000690112602F068FB49EC4060012505201D
:10119000002102F061FB2A460DF1070120688DF85D
:1011A00007500AF06DFF2B4649460DF106022068F4
:1011B0000AF062FF0520002102F04EFB45EC406082
:1011C0000520002102F048FB9DF80630052023F0A1
:1011D000070343F0030300218DF8063002F03CFBC7
:1011E00049EC40600520002102F036FB81232A46AD
:1011F0000DF1070120688DF807300AF041FF2A46FB
:101200000DF1060120680AF03BFF0520002102F0E5
:1012100023FB45EC40600520002102F01DFB03B0DC
:10122000BDE8F083024804F049FEA4E76C06002004
:1012300044C300102DE9F043002683B005200021AF
:101240008DF80660112502F007FB46EC40500520A2
:10125000002102F001FB40239D4C0DF1070101220A
:1012600020688DF807300AF00BFF012331460DF19D
:10127000060220680AF000FF0520002102F0ECFAC7
:101280004FF0010747EC40500520002102F0E4FA3E
:101290009DF80630052023F0C00300218DF80630AC
:1012A00002F0DAFA46EC40500520002102F0D4FAB0
:1012B000C0230DF10701012220688DF807300AF0E4
:1012C000DFFE01220DF1060120680AF0D9FE05209B
:1012D000002102F0C1FA47EC40500520002102F045
:1012E000BBFAFF23052000218DF8063002F0B4FA86
:1012F00046EC40500520002102F0AEFA92230DF199
:101300000701012220688DF807300AF0B9FE01229A
:101310000DF1060120680AF0B3FE0520002102F05D
:101320009BFA47EC40500520002102F095FA052079
:1013300000218DF8066002F08FFA46EC405005203F
:10134000002102F089FA12230DF107010122206821
:101350008DF807300AF094FE012331460DF10602A4
:1013600020680AF089FE0520002102F075FA47EC9A
:1013700040500520002102F06FFA9DF80630002B46
:1013800040F0A1804FF00009052000218DF8069063
:10139000112502F061FA49EC40500520002102F0CD
:1013A0005BFA8D230DF10701012220688DF80730CB
:1013B0000AF066FE01220DF1060120680AF060FEC7
:1013C0000520002102F048FA012646EC4050052095
:1013D000002102F041FA052000218DF8069002F06C
:1013E0003BFA49EC40500520002102F035FA9023E9
:1013F00032460DF1070120688DF807300AF040FEF3
:1014000032460DF1060120680AF03AFE052000215F
:1014100002F022FA46EC40500520002102F01CFAAE
:10142000052000218DF8069002F016FA49EC405094
:101430000520002102F010FA32460DF10701206864
:101440008DF807600AF01CFE334649460DF106028E
:1014500020680AF011FE0520002102F0FDF946EC9B
:1014600040500520002102F0F7F99DF806300520D4
:1014700023F0070343F0050300218DF8063002F046
:10148000EBF949EC40500520002102F0E5F98123F9
:1014900032460DF1070120688DF807300AF0F0FDA3
:1014A00032460DF1060120680AF0EAFD0520002110
:1014B00002F0D2F946EC40500520002102F0CCF9B0
:1014C00003B0BDE8F083034804F0F8FC5AE700BF1E
:1014D0006C06002078C300102DE9F047002706466F
:1014E00082B0152001F0DAFA1524B94647EC4440E1
:1014F0003A463946204601F0BDFA4FF0010848EC63
:101500004040112001F0CAFA112548EC44503A46F7
:101510003946284601F0AEFA48EC4050012112202D
:1015200001F08AFA0121132001F086FA012110202E
:1015300001F082FA48EC444047EC4040642000212E
:1015400002F0C4F847EC4440A84C052002F0D6F85D
:101550000A2002F0B3F92068A549B06004F026FF24
:1015600020684FF0020E0346C22653F8041F00F510
:10157000805C03F54052C2F800E0026801EA0E0107
:1015800082F0070203F5005302F0CF02CCF80020EE
:101590008DF8057019608DF8076047EC4050012206
:1015A0000DF107010AF06CFD0123394620680DF1A9
:1015B00005020AF061FD48EC40508E4A8E4B01282E
:1015C00014BF1046184604F0FBFC8C4B9DF8051028
:1015D0008B48A94218BF184604F0F2FC142001F011
:1015E0005DFA142047EC44000122394601F042FA2A
:1015F000052000218DF8067002F02EF947EC4050CE
:1016000001260520002102F027F932460DF10701DD
:1016100020688DF807600AF033FD334639460DF136
:10162000060220680AF028FD0520002102F014F9C6
:1016300048EC40500520002102F00EF99DF80630DC
:10164000052023F0070300218DF8063002F004F98D
:1016500047EC40504FF0810A0520002102F0FCF8D1
:1016600032460DF1070120688DF807A00AF008FD49
:1016700032460DF1060120680AF002FD0520002126
:1016800002F0EAF848EC40500021052002F0E4F8AE
:101690000A2002F033F8052000218DF8067002F0D0
:1016A000DBF847EC40500520002102F0D5F8324627
:1016B0000DF1070120688DF807600AF0E1FC334660
:1016C00039460DF1060220680AF0D6FC05200021FB
:1016D00002F0C2F848EC40500520002102F0BCF8AE
:1016E0009DF80630052063F07F0300218DF8063059
:1016F00002F0B2F847EC40500520002102F0ACF8AF
:1017000032460DF1070120688DF807A00AF0B8FCF9
:1017100032460DF1060120680AF0B2FC05200021D6
:1017200002F09AF848EC40500021052002F094F8AD
:101730000A2001F0E3FF052000218DF8067002F079
:101740008BF847EC40500520002102F085F8324626
:101750000DF1070120688DF807600AF091FC33460F
:1017600039460DF1060220680AF086FC05200021AA
:1017700002F072F848EC40500520002102F06CF8AD
:101780009DF8067017F0070728D1052000218DF875
:10179000067002F061F849EC40500520002102F08B
:1017A0005BF832460DF1070120688DF807600AF0FA
:1017B00067FC334639460DF1060220680AF05CFCEE
:1017C0000520002102F048F848EC40500520002197
:1017D00002F042F89DF80660F60915D1094804F0B8
:1017E0006DFB012002B0BDE8F08700BF6C06002051
:1017F000404B4C00C8C30010ACC30010E4C3001041
:1018000004C4001034C400103046FFF749F9052025
:1018100000218DF8067002F01FF849EC40500520B9
:10182000002102F019F88E2332460DF107012068DD
:101830008DF807300AF024FC32460DF106012068CD
:101840000AF01EFC0520002102F006F848EC40508A
:101850000520002102F000F8052000218DF8067017
:1018600001F0FAFF49EC40500520002101F0F4FF9F
:101870008F2332460DF1070120688DF807300AF0FA
:10188000FFFB32460DF1060120680AF0F9FB052046
:10189000002101F0E1FF48EC40500520002101F05B
:1018A000DBFF6D23052000218DF8063001F0D4FF09
:1018B00049EC40504FF0860A0520002101F0CCFF92
:1018C00032460DF1070120688DF807A00AF0D8FB19
:1018D00032460DF1060120680AF0D2FB05200021F6
:1018E00001F0BAFF48EC40500520002101F0B4FFA0
:1018F000052000218DF806A001F0AEFF49EC405014
:101900000520002101F0A8FF872332460DF10701D1
:1019100020688DF807300AF0B3FB32460DF106015E
:1019200020680AF0ADFB0520002101F095FF48EC8E
:1019300040500520002101F08FFF66230520002183
:101940008DF8063001F088FF49EC40500520002159
:1019500001F082FF882332460DF1070120688DF8DF
:1019600007300AF08DFB32460DF1060120680AF0BF
:1019700087FB0520002101F06FFF48EC4050052057
:10198000002101F069FFB449B44804F019FB0520B7
:1019900000218DF8067001F05FFF49EC40500520F2
:1019A000002101F059FFA02332460DF10701206804
:1019B0008DF807300AF064FB32460DF1060120680D
:1019C0000AF05EFB0520002101F046FF48EC405084
:1019D0000520002101F040FF0823052000218DF89B
:1019E000063001F039FF49EC40500520002101F09C
:1019F00033FFA12332460DF1070120688DF807302F
:101A00000AF03EFB32460DF1060120680AF038FB71
:101A10000520002101F020FF48EC40500520002166
:101A200001F01AFF052000218DF8067001F014FF67
:101A300049EC40500520002101F00EFF20233246E2
:101A40000DF1070120688DF807300AF019FB3346C5
:101A500039460DF1060220680AF00EFB0520002130
:101A600001F0FAFE48EC40500520002101F0F4FEA0
:101A7000052000219DF806A08DF8067001F0ECFE0F
:101A800049EC40500520002101F0E6FE21233246BA
:101A90000DF1070120688DF807300AF0F1FA33469E
:101AA00039460DF1060220680AF0E6FA0520002109
:101AB00001F0D2FE48EC40500520002101F0CCFEA0
:101AC0009DF8063043EA0A23082B40F018840025CD
:101AD000634F11263846FFF777F8052000218DF86F
:101AE000065001F0B9FE45EC40600520002101F0F0
:101AF000B3FE1D230DF10701012220688DF8073088
:101B00000AF0BEFA012329460DF1060220680AF008
:101B1000B3FA0520002101F09FFE4FF0010343ECD2
:101B200040600520002101F097FE9DF806308F2BC4
:101B30004FEA131200F2E8834A4B53F82230BB42BB
:101B400040F0E28300260821474804F039FA0520D6
:101B500000218DF80660112501F07EFE46EC405014
:101B60004FF01D090520002101F076FE0DF107015F
:101B7000012220688DF807900AF082FA012331468D
:101B80000DF1060220680AF077FA0520002101F025
:101B900063FE4FF0010747EC40500520002101F0A3
:101BA0005BFE9DF80630052023F00E0343F008038A
:101BB00000218DF8063001F04FFE46EC4050052024
:101BC000002101F049FE9D230DF10701012220684B
:101BD0008DF807300AF054FA01220DF10601206851
:101BE0000AF04EFA0520002101F036FE47EC405085
:101BF0000520002101F030FE052000218DF806604F
:101C000001F02AFE46EC40500520002101F024FEA0
:101C10000DF10701012220688DF807900AF030FAD3
:101C2000012331460DF1060220680AF025FA05204D
:101C3000002101F011FE47EC40500520002101F089
:101C40000BFE9DF8063003F00E03082B10D007485A
:101C500004F0B6F90CE000BF20E01C1AE0C200104E
:101C600048E8010030C9001000C30010D0C40010C3
:101C70000026052000218DF80660112501F0ECFDFD
:101C800046EC40504FF01E090520002101F0E4FD14
:101C90000DF10701012220688DF807900AF0F0F994
:101CA000012331460DF1060220680AF0E5F905200E
:101CB000002101F0D1FD4FF0010747EC4050052015
:101CC000002101F0C9FD9DF80630052023F0F00346
:101CD00043F0700300218DF8063001F0BDFD46ECA5
:101CE00040500520002101F0B7FD9E230DF10701B2
:101CF000012220688DF807300AF0C2F901220DF1A7
:101D0000060120680AF0BCF90520002101F0A4FDBD
:101D100047EC40500520002101F09EFD05200021E8
:101D20008DF8066001F098FD46EC4050052000213A
:101D300001F092FD0DF10701012220688DF8079056
:101D40000AF09EF9012331460DF1060220680AF0DF
:101D500093F90520002101F07FFD47EC405005205C
:101D6000002101F079FD9DF806301B09072B02D0F8
:101D7000C14804F025F90026052000218DF80660F1
:101D8000112501F069FD46EC40504FF01E09052079
:101D9000002101F061FD0DF10701012220688DF89D
:101DA00007900AF06DF9012331460DF10602206813
:101DB0000AF062F90520002101F04EFD4FF0010705
:101DC00047EC40500520002101F046FD9DF806300B
:101DD000052043F0040300218DF8063001F03CFD9E
:101DE00046EC40500520002101F036FD9E230DF108
:101DF0000701012220688DF807300AF041F901221D
:101E00000DF1060120680AF03BF90520002101F0E0
:101E100023FD47EC40500520002101F01DFD052069
:101E200000218DF8066001F017FD46EC40500520BA
:101E3000002101F011FD0DF10701012220688DF84C
:101E400007900AF01DF9012331460DF106022068C2
:101E50000AF012F90520002101F0FEFC47EC405089
:101E60000520002101F0F8FC9DF80630580702D447
:101E7000824804F0A5F80026052000218DF80660B0
:101E8000112501F0E9FC46EC40504FF026090520F1
:101E9000002101F0E1FC0DF10701012220688DF81D
:101EA00007900AF0EDF8012331460DF10602206893
:101EB0000AF0E2F80520002101F0CEFC4FF0010706
:101EC00047EC40500520002101F0C6FC9DF806308B
:101ED000052043F0040300218DF8063001F0BCFC1E
:101EE00046EC40500520002101F0B6FCA6230DF180
:101EF0000701012220688DF807300AF0C1F801229D
:101F00000DF1060120680AF0BBF80520002101F060
:101F1000A3FC47EC40500520002101F09DFC05206A
:101F200000218DF8066001F097FC46EC405005203A
:101F3000002101F091FC0DF10701012220688DF8CC
:101F400007900AF09DF8012331460DF10602206842
:101F50000AF092F80520002101F07EFC47EC405089
:101F60000021052001F078FC9DF80630590702D4C5
:101F7000434804F025F80026052000218DF806606E
:101F8000112501F069FC46EC40504FF02609052070
:101F9000002101F061FC0DF10701012220688DF89C
:101FA00007900AF06DF8012331460DF10602206812
:101FB0000AF062F80520002101F04EFC4FF0010705
:101FC00047EC40500520002101F046FC9DF806300A
:101FD000052043F0080300218DF8063001F03CFC99
:101FE00046EC40500520002101F036FCA6230DF1FF
:101FF0000701012220688DF807300AF041F801221C
:102000000DF1060120680AF03BF80520002101F0DF
:1020100023FC47EC40500520002101F01DFC052069
:1020200000218DF8066001F017FC46EC40500520B9
:10203000002101F011FC0DF10701012220688DF84B
:1020400007900AF01DF8012331460DF106022068C1
:102050000AF012F80520002101F0FEFB47EC405089
:102060000520002101F0F8FB9DF806301A070BD47B
:10207000044803F0A5FF07E000C5001034C50010B8
:1020800064C500108CC5001000260F20FEF7C6FEA8
:10209000052000218DF80660112501F0DDFB46ECDE
:1020A00040500520002101F0D7FB09230DF1070165
:1020B000012220688DF8073009F0E2FF0123314644
:1020C0000DF10602206809F0D7FF0520002101F07C
:1020D000C3FB4FF0010747EC40500021052001F001
:1020E000BBFB8D4803F06CFF052000218DF80660D6
:1020F00001F0B2FB46EC40504FF00A0905200021E8
:1021000001F0AAFB0DF10701012220688DF807906C
:1021100009F0B6FF012331460DF10602206809F0EF
:10212000ABFF0520002101F097FB47EC4050052054
:10213000002101F091FB9DF80630052023F00F03EC
:1021400000218DF8063001F087FB46EC4050052059
:10215000002101F081FB8A230DF107010122206893
:102160008DF8073009F08CFF01220DF1060120687F
:1021700009F086FF0520002101F06EFB47EC40507E
:102180000520002101F068FB052000218DF8066084
:1021900001F062FB46EC40500520002101F05CFBA1
:1021A0000DF10701012220688DF8079009F068FF02
:1021B000012331460DF10602206809F05DFF05207C
:1021C000002101F049FB47EC40500520002101F0BF
:1021D00043FB9DF806301B0740F09A80002605203F
:1021E00000218DF80660112501F036FB46EC4050C9
:1021F0004FF00C090520002101F02EFB0DF1070125
:10220000012220688DF8079009F03AFF012331463A
:102210000DF10602206809F02FFF0520002101F0D2
:102220001BFB4FF0010747EC40500520002101F057
:1022300013FB9DF80630052023F0030343F003034E
:1022400000218DF8063001F007FB46EC40500520D8
:10225000002101F001FB8C230DF107010122206810
:102260008DF8073009F00CFF01220DF106012068FE
:1022700009F006FF0520002101F0EEFA47EC40507E
:102280000520002101F0E8FA052000218DF8066004
:1022900001F0E2FA46EC40500520002101F0DCFAA2
:1022A0000DF10701012220688DF8079009F0E8FE82
:1022B000012331460DF10602206809F0DDFE0520FC
:1022C000002101F0C9FA47EC40500520002101F03F
:1022D000C3FA9DF8063003F00303032B02D00F4826
:1022E00003F06EFEFEF7A6FF0D4803F0E7FD9DF834
:1022F0000500113818BF012002B0BDE8F087094879
:1023000003F05EFEFFF7E3BB074803F059FE19E454
:10231000064803F055FE61E7B4C5001010C6001072
:1023200040C6001060C4001094C40010E4C5001042
:102330004FF050435868C0F3005070474FF050437F
:102340005868C0F3005070472DE9F04F002783B064
:1023500083468A46052000218DF80670112501F07C
:102360007BFA47EC405001245B4E0520002101F030
:1023700073FA22460DF1070130688DF8074009F025
:102380007FFE234639460DF10602306809F074FEDF
:102390000520002101F060FA44EC405005200021A6
:1023A00001F05AFA9DF80630052023F00703234375
:1023B00000218DF8063001F04FFA47EC405005201F
:1023C000002101F049FA812322460DF1070130680E
:1023D0008DF8073009F054FE22460DF106013068F1
:1023E00009F04EFE0520002101F036FA44EC405081
:1023F0000520002101F030FA052000218DF806703B
:1024000001F02AFA47EC40500520002101F024FA9F
:102410008D2322460DF1070130688DF8073009F051
:102420002FFE22460DF10601306809F029FE052035
:10243000002101F011FA44EC40500520002101F088
:102440000BFA0520002101F007FA47EC4050052067
:10245000002101F001FA802322460DF107013068C6
:102460008DF8073009F00CFE52465946306809F0E5
:1024700007FE0520002101F0EFF944EC4050052053
:10248000002101F0E9F9052000218DF806A001F0F6
:10249000E3F947EC40500520002101F0DDF9A223CB
:1024A00022460DF1070130688DF8073009F0E8FD8C
:1024B00022460DF10601306809F0E2FD05200021F9
:1024C00001F0CAF944EC40500520002101F0C4F9A4
:1024D000384603B0BDE8F08F6C0600202DE9F04FC0
:1024E000002783B08246002105208DF80670112652
:1024F00001F0B2F947EC40600125A64C052000210F
:1025000001F0AAF92A460DF1070120688DF807505D
:1025100009F0B6FD2B4639460DF10602206809F098
:10252000ABFD0520002101F097F945EC4060052046
:10253000002101F091F99DF80680052000218DF819
:10254000067008F0070801F087F947EC40600520A5
:10255000002101F081F92A460DF1070120688DF86C
:10256000075009F08DFD2B4639460DF10602206813
:1025700009F082FD0520002101F06EF945EC406074
:102580000520002101F068F99DF80630052023F0B0
:1025900007032B4300218DF8063001F05DF947EC6D
:1025A00040600520002101F057F981232A460DF1F2
:1025B000070120688DF8073009F062FD2A460DF109
:1025C0000601206809F05CFD0520002101F044F9B6
:1025D00045EC40600520002101F03EF90520002176
:1025E0008DF8067001F038F947EC406005200021B5
:1025F00001F032F91E232A460DF1070120688DF8FB
:10260000073009F03DFD2B4639460DF106022068E2
:1026100009F032FD0520002101F01EF945EC406073
:102620000520002101F018F99DF806305A072AD537
:10263000052000218DF8067001F00EF947EC40608E
:102640000520002101F008F912232A460DF10701A7
:1026500020688DF8073009F013FD2B4639460DF13F
:102660000602206809F008FD0520002101F0F4F8B9
:1026700045EC40600520002101F0EEF89DF80630A1
:102680009B0600F1F5800025052000218DF80650FD
:10269000112601F0E1F845EC40600520002101F031
:1026A000DBF813230DF10701012220688DF80730B4
:1026B00009F0E6FC012329460DF10602206809F025
:1026C000DBFC0520002101F0C7F84FF0010949ECBF
:1026D00040600520002101F0BFF89DF80670002F32
:1026E0005AD14FF0000B052000218DF806B01126BD
:1026F00001F0B2F84BEC406001250520002101F00B
:10270000ABF82A460DF1070120688DF8075009F053
:10271000B7FC2B4659460DF10602206809F0ACFCC7
:102720000520002101F098F845EC406005200021CB
:1027300001F092F89DF80630052023F0070343EAE4
:10274000080300218DF8063001F086F84BEC40605C
:102750000520002101F080F881232A460DF10701B0
:1027600020688DF8073009F08BFC2A460DF1060130
:10277000206809F085FC0520002101F06DF845EC8A
:1027800040600520002101F067F8384603B0BDE83D
:10279000F08F00BF6C060020052000218DF8065048
:1027A00001F05AF845EC40600520002101F054F892
:1027B00010230DF10701012220688DF8073009F080
:1027C0005FFC012329460DF10602206809F054FC44
:1027D0000520002101F040F849EC4060052000216F
:1027E00001F03AF80520002101F036F845EC406090
:1027F0000520002101F030F88D230DF107010122A1
:1028000020688DF8073009F03BFC01220DF106012C
:10281000206809F035FC0520002101F01DF849EC85
:1028200040600520002101F017F80520002101F08B
:1028300013F845EC40600520002101F00DF80DF182
:102840000701012220688DF8075009F019FC3B466A
:1028500052462946206809F00FFC0520002100F0AF
:10286000FBFF49EC40600520002100F0F5FF38E750
:10287000014803F023FB34E760C6001001230B4935
:102880000B4A0868126800F110018B405168194228
:10289000FCD14FF4801102EB8000016151680B42C2
:1028A000FCD14FF480130361704700BF0413002074
:1028B0000013002001230B490B4A0868126800F13D
:1028C00010018B4051681942FCD14FF0006102EBBE
:1028D0008000016151680B42FCD14FF0006303613D
:1028E000704700BF041300200013002001230A4991
:1028F0000A4A0868126800F110018B4051681942B9
:10290000FCD1074902EB8000016151680B42FCD108
:10291000034B0361704700BF041300200013002025
:102920000001010170B502218EB03A4803F048FB66
:1029300001220221CDE901220091374809AB08AA02
:1029400007A903F085FE002860D0DDE90856079C42
:10295000022004F12F4101F56001090D0631C9B2D1
:1029600000F06AF80123022229460093204603F072
:10297000D5FD4FF48033294A0A930C92F301F21CDF
:10298000274943EA023323F0C04305200B930D91FE
:1029900001F0D4F807EE100A9FED226AB8EE477AEC
:1029A000DFED216AC7EE067A77EEA67ABCEEE77A0B
:1029B00017EE103A9BB23BB307EE103AB8EE477AE7
:1029C000DFED1A6A77EEC77A67EEA67AFCEEE77A51
:1029D000CDED057A9DF81400000240EA034032462E
:1029E00029460AAB0A90204603F0DEFD01210020B3
:1029F00022680F4E0F4BA94011432160DDE90712F9
:102A000031601A600EB070BD1846E6E701F02AF991
:102A10009BE700BF8CC6001058C90010000006706C
:102A2000000800200024F44A0000003B000080431E
:102A3000001300200413002010B44FF480740C4BDA
:102A400053F8202003EB8003C00082F0400200F125
:102A5000804003F5805C02F0C00200F5203003F5F1
:102A60004053CCF8002041601C605DF8044B704777
:102A70000480034010B4084CC90041EA820154F8B4
:102A8000202004EB8003514003F5805301F00C013A
:102A90005DF8044B196070470480034030B44FF078
:102AA000000343EC440043EC400005254FF48074E0
:102AB0000B4BC20053F8201003EB800081F0400163
:102AC00002F1804303F5203301F0C00200F580518C
:102AD00000F540500A605D60046030BC704700BF84
:102AE000048003400FB400B583B0049C074803F092
:102AF000E5F93CB105A92046019102F0D7FF044851
:102B000003F0DCF9012002F0E9FF00BFB4C60010B9
:102B100038C20010EFF3108072B6064BD3E8CF1F17
:102B200001220029FAD1C3E8412F0029F6D1BFF3D1
:102B30005F8F70470B1200200023034AC2E88F3FCB
:102B400080F31088704700BF0B12002070B58646D6
:102B5000EFF3108572B6124CD4E8CF6F0120002E2F
:102B6000FAD1C4E8460F002EF6D1BFF35F8F4FF0C5
:102B7000010CC80801F007030CFA03F31EF800C0AB
:102B80001CEA030608D14CEA030C0EF800C0C4E8A6
:102B90008F6F85F3108870BD1046FFF7A3FF00BF4D
:102BA0000B120020F8B5EFF3108572B6234CD4E871
:102BB000CF7F0126002FFAD1C4E8476F002FF6D14E
:102BC000BFF35F8F9A4227D80126D70810F807E095
:102BD00002F0070C06FA0CFC1EEA0C0F00EBD20701
:102BE0000DD125E04FEAD20E10F80EE002F0070CEE
:102BF00006FA0CFC1EEA0C0F00EBD20718D00132CB
:102C00009342EFD24FF0FF300023C4E88F3F85F3AB
:102C10001088984207DBF8BD0023C4E88F3F85F396
:102C200010884FF0FF300029F5D00698FFF75AFFC3
:102C30004EEA0C0E104687F800E0E5E70B12002084
:102C400000B5EFF3108E72B6104BD3E8CFCF012250
:102C5000BCF1000FF9D1C3E84C2FBCF1000FF4D147
:102C6000BFF35F8F01224FEAD10C01F0070102FA96
:102C700001F110F80C2022EA010200F80C200022D9
:102C8000C3E88F2F8EF310885DF804FB0B12002031
:102C9000044A1078431CDBB2182B28BF1023137092
:102CA000704700BF700600204FF0E022936843F0A9
:102CB00000539360704700BF0021044B03F12002D2
:102CC000C3E88F1F01339342FAD1704700120020EE
:102CD0004FF0E0234FF08032C3F80024C3F80424FF
:102CE000C3F80824C3F80C24C3F81024C3F8142430
:102CF000C3F81824C3F81C24C3F82024C3F82424E0
:102D0000C3F82824C3F82C24C3F83024704700BF2C
:102D1000012300F01F029340400941B1800000F1FF
:102D2000604000F56140C0F8803103607047024A9E
:102D3000203042F82030704700E100E0F8B50D4641
:102D4000EFF3108772B6124ED6E8CF2F0123002A78
:102D5000FAD1C6E8423F002AF6D1BFF35F8F0D4B90
:102D600000F110049B680C4A53F82430934203D0BE
:102D7000994201D000F076FF064B9B6843F824503F
:102D8000BFF35F8F0023C6E88F3F87F31088F8BD3D
:102D90000912002000ED00E01D0100102DE9F04FA8
:102DA00083B0EFF3108A72B6744ED6E8CF2F0123AA
:102DB000002AFAD1C6E8423F002AF6D1BFF35F8F5E
:102DC0006F4B00F110089B686E4A53F828509542EB
:102DD0003FD08D420C464AD06B4FEB1B2F2B38D87F
:102DE00001214FEA50194FEA890909F1604909F5B3
:102DF000614900F01F0301FA03F0D9F80030C9F867
:102E0000800000EA030BBFF35F8FEFF30581C9B2C7
:102E100079B3884577D125F0010EDEF808C0644506
:102E200005D17CE0D3F808C0644532D09E469EF9B7
:102E3000062002EB4203002A07EB8303F2DA644523
:102E400000F08180BBF1000F20D0C9F88001C9F8E3
:102E500000004B4B9B6843F82850BFF35F8F002363
:102E6000C6E88F3F8AF3108803B0BDE8F08F15469F
:102E7000EFE725F0010EDEF808C06445D7D19EF9D2
:102E800006407346002C08DA154666E0C9F8800053
:102E9000DFE793F90640002C56DB04EB440C07EB0C
:102EA0008C0CDCF8082061009A609CF80720DA712D
:102EB0009CF90620002A9A715DDBBCF804205205BB
:102EC00004D502F5FF1202F5FF521F32521502F12E
:102ED000020C4FF0040E0C2212FB04E202EB4C0237
:102EE0006FF0070C3A44ACEB030C6244C2F34A02A5
:102EF00042F460429A80254B21441A7807EB810105
:102F00001C708A719EE7CDE9000100F0ABFEDDE99F
:102F1000000125F0010EDEF808C0644587D19EF956
:102F200006407346002CB8DA194A1A4CD21A083AED
:102F3000C2F30A316FEA01516FEA115144EA5202B9
:102F4000DA8099807EE773460029EDD1FF228EF862
:102F500006204BF60152AEF804200C4C4AF6AA2289
:102F600094F800C01946C91B49414A43120D83F821
:102F700006C0227066E74BF60152BBE7091200203B
:102F800000ED00E01D010010740600209C130020DD
:102F9000AE06002000F8FFFFF0B5EFF30585EDB2B7
:102FA000EFF3108C72B62649D1E8CF2F0123002A07
:102FB000FAD1C1E8423F002AF6D1BFF35F8F214E1C
:102FC00040F0010EB4684AF6AA2354F825701E4A50
:102FD0000446A41A644163431B0D77455BB21BD0C2
:102FE00092F906409C421CD092F912409C4223D098
:102FF00092F91E409C4221D092F92A409C4208BF7F
:1030000003240FD0114A0024157813708571C1E88C
:103010008F4F8CF31088F0BDB2680D4C42F82540FC
:10302000F0E7002404EB440402EB8402FF249471D3
:103030004BF601549480E5E70124F3E70224F1E71D
:103040000912002000ED00E0740600209C1300200F
:103050001D010010014B0B4403607047001200205B
:1030600070B5104C104DAC420ED2FF26236863B1F0
:10307000FFF70EFE01462046FFF7ECFFA680BFF3E8
:103080005F8F0834AC42F1D370BDFFF701FE0146FB
:103090002046FFF7DFFF2671BFF35F8F0834AC4295
:1030A000E4D370BDBC0D0020C40D00200D4B1A6888
:1030B000EFF3108172B6D2E8CFCF0120BCF1000F40
:1030C000F9D1C2E84C0FBCF1000FF4D1BFF35F8F10
:1030D00000221B68C3E88F2F81F3108840BF0020B7
:1030E00000217047901300202DE9F04F2DED028B49
:1030F00085B0EFF30583DBB2103B9A0818BF0122BD
:103100004FF0010103F0030018BFAB4DAB4B08BFFC
:10311000AB4D00EB820201FA00FB53F8226005F58B
:1031200041539FEDA38B0190C3F804B0CDF800B0DC
:103130002AE0B388180440F18C80B379002B40F06A
:10314000D580B6F908100029C0F21581736901EB2A
:10315000410103EBC103D3E90247B7F1FF3F08BFC9
:10316000B4F1FF3F09D0019B05EB8301AB6A0A690B
:10317000D21AE31A934238BF0C61284600F05AFB7A
:10318000A042B941C0F2F780B6F90840009B002C7C
:10319000EB63CEDBD6F8149004EB440A284609EB27
:1031A000CA07D7E902B800F045FB584571EB0801A2
:1031B000BFDBB8F1000FC0F2C180D7E90431814A0A
:1031C000934200F0EA807A88B6F9080092B242EAA7
:1031D0000040984702460B4652EA030100F0AE80D9
:1031E000002B80F2CE80BBEB020B68EB030839F9B1
:1031F0003A30C7E902B8002B9BDB716903EB43024D
:1032000001EBC202D2E90270BB4578EB000C4FEA39
:1032100043028EDBB4462CF8083F0BE031F9323024
:10322000F446002B0DDB03EB430001EBC0005A001A
:10323000D0E90270BB451A4478EB000001EBC20EE6
:10324000ECDA29F83A30ACF80040B38818043FF5BE
:1032500074AF3369EFF3108272B6D3E8CF0F012158
:103260000028FAD1C3E8401F0028F6D1BFF35F8FD2
:103270004FF6FF74B0880023316900B2B480C1E812
:103280008F3F82F310889842FFF657AF0746A94652
:10329000746906F1080807EB470E04EBCE03D3E987
:1032A0000250B6F90830C446002BA8BFB34605DA71
:1032B0000FE034F93A309446002B09DB03EB430A64
:1032C00004EBCA02D2E90261B54270EB0101F0DA07
:1032D0005E46ACF8007034F93E7024F83E30002FA2
:1032E000D9DAB3794D46002B3FF42BAF0023B371ED
:1032F000B6F9083006F10808591C3CD01946776920
:1033000003E080465A1C3FF41EAF03EB430207EB79
:10331000C200B0F802C01C461CF4004F9E4637F9AC
:103320003230EED08C4280ED028B05D0A8F8003010
:10333000318927F8321034817146E3E739F83A30A1
:1033400033813369EFF3108272B6D3E8CF0F0121D6
:103350000028FAD1C3E8401F0028F6D1BFF35F8FE1
:103360007388316929F83A3000237480C1E88F3FAF
:1033700082F31088DDE640BF05B0BDEC028BBDE8EE
:10338000F08F2846CDE9022300F054FA029A039BFD
:1033900010EB020B43EB010829E708460B69029189
:1033A00098470028CAD00299D1E9002314E700BF4A
:1033B000FFFFFFFFFFFFFFFF00800B402C130020EB
:1033C00000000B40E93000102DE9F84F364C25691C
:1033D0002DB1BDE8F84F0A213448FFF73BBEDFF8B6
:1033E000E4800321404600F013FA0326C4F80C8061
:1033F000FFF74EFC4FF0504C2D4B267003442361D9
:10340000DCF800300F216370636961801D834FF029
:103410000405A3F878504FF00505A3F890504FF03D
:103420000605A3F8A8504FF007050E214FF6FF72CE
:1034300008274FF00A0EA3F8C0504FF001094FF0D3
:103440000C0C4FF0020B4FF0090A0D204FF00B054A
:10345000A3F868111749A280A3F808E1A160A3F8B6
:1034600048B0A3F8F0A0A3F82051A3F838C1A3F8FE
:103470005001A3F83090A3F86060A3F8D8701A80C8
:103480000D4B3046C8F820700C49DC60FFF756FC45
:1034900049463046FFF73CFC094B0A211F640348AC
:1034A000BDE8F84FFFF7D6BDBC0600209013002002
:1034B00000120020FFFF10002C130020E930001044
:1034C00000200B4000000B400146F0B50069EFF30F
:1034D000108772B6D0E8CF5F0124002DFAD1C0E882
:1034E000454F002DF6D1BFF35F8FB1F902E04C6973
:1034F0000EEB4E0CBEF1000F4FEACC0504EBCC0CEA
:103500003DDB605B002648800869C0E88F6F87F369
:103510001088BCF80200CCE902230130C0F30E0091
:10352000012838BF0120059BACF80200CCF8103010
:10353000069B40EA0E40CCF814300B69EFF3108282
:1035400072B6D3E8CFCF0127BCF1000FF9D1C3E8A1
:103550004C7FBCF1000FF4D1BFF35F8F8B886353B6
:10356000A1F804E00B69C3E88F6F82F31088012291
:10357000CB68097803F501538A405A60F0BD0023F7
:103580000A69C2E88F3F87F310884FF0FF30F0BD23
:1035900003464089B0EB214F37DD58690A1402EB2E
:1035A000420210B500EBC2001C69EFF3108C72B63A
:1035B000D4E8CFEF0122BEF1000FF9D1C4E84E2FBD
:1035C000BEF1000FF4D1BFF35F8F428889B292B28F
:1035D0008A4207D000221B69C3E88F2F8CF3108822
:1035E000002010BD42F400424280012100221869EF
:1035F0009971C0E88F2F8CF310881C78DA68084620
:1036000002F50153A140596010BD0020704700BF72
:103610002DE9F041861F41F1FF35B04271EB050302
:1036200038BF002682B038BF354604460F4600F04A
:1036300009F9301A65EB0103012873F1000306DA7A
:103640002046394602B0BDE8F04100F07BB900F0F9
:10365000F9F8864265EB010100290ADB0021174BCE
:103660003246009316482B460191FFF72DFF0028A4
:10367000E6DB4FF0000C1348134A436A9D4204D81E
:10368000816AB142DCD29D42DAD11368EFF3108136
:1036900072B6D3E8CF8F5FF0010EB8F1000FF8D10A
:1036A000C3E848EFB8F1000FF3D1BFF35F8F1368A1
:1036B000C3E88FCF81F3108820BFDEE7AD30001064
:1036C000BC06002000000B409013002038B50446D3
:1036D0000D4600F0B7F84FF0FF326FF000432018AE
:1036E00045EB0101824273EB010438BF1946BDE886
:1036F000384038BF1046FFF78BBF00BF10B50446F7
:1037000000F0A0F84FF47A734FF0FF3C6FF00042E6
:10371000E4FB0301BDE81040844572EB01033CBFAC
:1037200060461146FFF774BFF0B506460D4683B0FC
:10373000EFF30584E4B2002C35D1244F3A78F968D0
:1037400004328B6A51F82220D21AC31A934207D34B
:1037500020BF1F4B586AA8421FD2002003B0F0BD03
:1037600000F070F8864265EB0101002911DB194B6E
:103770003846CDE9003432462B46FFF7A5FE011E40
:1037800007DD134B5A6AAA4219D220BF0F48FFF730
:10379000FFFE0F4B586AA842DFD39B6A9E4209D8AE
:1037A000012003B0F0BD0A4B586A8842D5D39B6A0A
:1037B000B342F5D2401B18BF012003B0F0BD9B6A95
:1037C0009E42E3D9AA42E1D1DFE700BFBC06002058
:1037D00000000B40AD300010084AD0E90003516AE8
:1037E0008B4204D8926A824203D3012070470020A2
:1037F0007047581A18BF0120704700BF00000B40E7
:1038000001460248C1E90023704700BFD9370010C4
:1038100010B4054B054C064AA04214BF1846581C6C
:103820005DF8044BFFF792B98812002000800B402E
:10383000C4C600100346416A0A46986A596A8A4219
:10384000FAD17047034B596A0A46986A596A9142FD
:10385000FAD1704700000B4010B4174A536A9C46D7
:10386000946A536A6345FAD1001959414FF0000236
:1038700028BF01220346CAB10F4B596A4B1C08BF2F
:103880000B4608D04FF0FF310B460B48426A8A4284
:10389000FCD38A4207D1084A02E0506A884202D12A
:1038A000906A9842F9D35DF8044B7047024A526A15
:1038B0009142EAD8EDE700BF00000B401F4B984251
:1038C0000AD84FF47A731E4A03FB00F0916A936A98
:1038D0005B1A9842FBD870474FF47A7130B4184B9A
:1038E000A0FB01015A6A94469C6A5A6A6245FAD161
:1038F00003194A414FF0000528BF01259DB9104921
:10390000496A8A4203D90E48416A9142FCD39142E6
:1039100007D10B4902E0486A904202D1886A984276
:10392000F9D330BC7047064B5A6A531C08BF134684
:10393000EFD04FF0FF321346E5E700BF9BC42000F5
:1039400000000B40074A536A9942FCD8994207D1BC
:10395000044B02E05A6A914202D19A6A8242F9D338
:10396000704700BF00000B40F8B5054606200E4624
:1039700000F0E4F8002842D0354A3648954214BF9A
:103980004FF080624FF00062334B344902601A609E
:103990008C6832EA0404FBD12D4B4FF48071EB1A92
:1039A000B3FA83F32E4A5B09062022F8131000F0C5
:1039B000C5F8C300B3FBF6F30133DA0920D1402682
:1039C00001216962AA622F6BFB0722D42B460022D9
:1039D00053F82C1F062003F5805422602F6300F05B
:1039E000ADF840F2013103228000B0FBF6F0EB6A43
:1039F00083F0700303F07E0323602963AA64F8BD9B
:103A00004FF6FE718A421BD922464FF6FF71154EC2
:103A1000D7E740F2013205F540531A636B6AAC6A8E
:103A2000062004EB831400F089F80F4BA402A3FBDB
:103A30000023DB0A0021B4FBF3F0FFF70DFFC5E71D
:103A4000C3F34503114603EB82161A46B9E700BFDC
:103A50000080074000200240003002400000024089
:103A600094130020C0FF3F00757B2B8F00EB400CB0
:103A70004FEA8C0C0CF1804C0CF5803CF0B51646EE
:103A8000DCF80420051FB2F5803F38BF4FF48032C8
:103A9000EDB238BFCCF80420012D2AD94FF40067CD
:103AA000254C0CF54052176054F82020B2B9DCF8D0
:103AB0000020012D82EA461202F0E0020CF5805649
:103AC00032602AD94FF4006144F820304FF480333B
:103AD0000CF500521160CCF80430F0BD6769B7FBFB
:103AE000F2FE0EF1010E0EEB4E0EBEF1030EFCD2F5
:103AF000DDE70129D2D103240CF540521460DCF833
:103B00000820D207FBD5DCF800200B4C82EA4612D5
:103B100002F0E0020CF5805632600122DCF8005021
:103B20004D4005F00305356002FA01F1DCF808208C
:103B30000A42FBD0C6E700BFCC120020014B53F86D
:103B400020007047CC12002070B4039D04682D0340
:103B500045EA03451B4B002CB3FBF1F3B2FBF3F634
:103B60001FDB194A194B904214BF4FF480424FF4A7
:103B70000042174C1A6003F580531A60A36832EABA
:103B80000303FBD1212200F540530433016086601A
:103B90001A600268002AFCDA0822C5601A6070BC4C
:103BA0007047036803F03F038B42DAD18368C3F3A5
:103BB0000B03B342D5D1C36803F4EE23AB42D0D19B
:103BC000EDE700BF001BB700008005400020024069
:103BD00000000240012300EB4000800000F1804023
:103BE00000F5841041600360704700BF0023DB8A4A
:103BF000002242E800F2520201D4102118470421A9
:103C0000184700BF034AD2F82838002BFBD0BFF377
:103C10005F8F704700000E400021044B044ABFF341
:103C20005F8F43F8041B9342F9D170470C080E4094
:103C30002C080E4010B42F204FF42A64054A064B7E
:103C400006491460D06019605368002BFCDA5DF8F7
:103C5000044B70470080044000A0044000B0FA000C
:103C6000704700BF08B50148FEF73CFFE8C60010EA
:103C700038B5054C054DAC4204D254F8043B984786
:103C8000AC42FAD338BD00BF88C00010C8C00010D5
:103C900010B40748074C084B084A094904601A60E9
:103CA0008B6832EA0303FBD15DF8044B704700BF19
:103CB000002002407F3BEFEF00300240F6FFF303AD
:103CC00000000240044BDB6CB3F5004F03D14FF40E
:103CD0008022024BDA64704700001150002011501E
:103CE0004FF0E022044BD2F8881D0B43C2F8883D08
:103CF00010EE3004704700BF030330006FF06041E6
:103D0000044B054A19609368DB4333F06043FAD1F2
:103D1000704700BF003002400000024010B545F27D
:103D20005320FFF763FFBDE8104003460420184707
:103D300010B545F25320FFF759FFBDE81040034688
:103D400001201847FEF7B8BF10B5054B054C4FF4DE
:103D500088721846A16803F02DFCA06010BD00BF5A
:103D60000000002000ED00E0002370B52B4C82B075
:103D7000C4F88430FFF75EFF0122294BDA63636CDD
:103D8000012BFCD10321264A244B11639C6B012C8F
:103D9000FCD10226052521460523224A2248009609
:103DA000FFF7D2FE21462B46204A21480095FFF717
:103DB000CBFE0022042031461E4BFFF757FE214662
:103DC000284600221C4BFFF751FE00220820114616
:103DD0001A4BFFF74BFE002209201146174BFFF745
:103DE00045FE002206201146134BFFF73FFE00223E
:103DF000114B07201146FFF739FE0420FFF79EFE06
:103E000000240F4BA3FB0035AD0CE0B22946013472
:103E1000FFF7E0FE062CF8D102B070BD00000140B3
:103E200000300140002F685900000540008C864793
:103E300000800540001BB70080D1F008006CDC0258
:103E400083DE1B4386B003B451FC0804CDE90201B4
:103E500051FC0904CDE9040151EC0A04CDE9060145
:103E600003BCF047BDE800504EEC00C4BDE8005074
:103E70004EEC01C4BDE800504EEC02C400BD000091
:103E800000B5FFF7DFFF02E010FE30F4F8D441EC9C
:103E9000100443EC112400EE010410EE010480EE46
:103EA000200451EC1004704700B5FFF7CBFF02E08F
:103EB00010FE30F4F8D441EC100443EC112400EE71
:103EC000010410EE210480EE200451EC3004704710
:103ED00000B5FFF7B7FF02E010FE30F4F8D410B5DC
:103EE00041EC100443EC112451EC040453EC052480
:103EF000A0FB024C5FF0000EE0FB03CEE1FB02CE24
:103F00004CEC20440024E1FB03E444EC30E480EE7C
:103F1000200451EC5004BDE81040704700B5FFF795
:103F200091FF02E010FE30F4F8D441EC100443ECB1
:103F3000112451EC2104A0FB01126FEA820252FB12
:103F4000100052FB12F252FB1000A0EBD07C53EC9D
:103F500004245CFB13F153EC1524A1FB022001FBAC
:103F6000030053EC4424A2EB000050FB1CF24FEA88
:103F7000111312EB017043EBE27140EA515020EA59
:103F8000915020F0070053EC7524A0FB023C53EC49
:103F9000752400FB03CC01FB02CC53EC0424ACEBF6
:103FA000824C40EA5C70A0F1010041EC400480EEDC
:103FB000200451EC7004704700B5FFF743FF02E0A6
:103FC00010FE30F4F8D441EC100480EE220410EE20
:103FD000B204704700B5FFF735FF02E010FE30F481
:103FE000F8D440EC700400EE010410EE210480EEE1
:103FF000200451EC3004704700B5FFF723FF02E0C6
:1040000010FE30F4F8D440EC600400EE010410EE31
:10401000210480EE200451EC3004704700B5FFF716
:1040200011FF02E010FE30F4F8D441EC800400EE01
:10403000010410EE010480EE400410EE13047047FA
:1040400000B5FFF7FFFE02E010FE30F4F8D441ECBB
:10405000800400EE010410EE010480EE400410EE36
:104060003304704700B5FFF7EDFE02E010FE30F4B8
:10407000F8D441EC100443EC112400EE010410EEDE
:104080003004C0F30070704700B5FFF7DBFE02E0BC
:1040900010FE30F4F8D441EC100443EC112400EE8F
:1040A000010410EE3004C0F38070704700B5FFF7D4
:1040B000C9FE02E010FE30F4F8D443EC102441ECC9
:1040C000110400EE010410EE30F48CBF012000203A
:1040D000704700BF00B5FFF7B5FE02E010FE30F4F8
:1040E000F8D443EC102441EC110400EE010410EE6E
:1040F00030F42CBF01200020704700BF00B5FFF74F
:10410000A1FE02E010FE30F4F8D441EC100443ECC0
:10411000112400EE010410EE30F42CBF0120002029
:10412000704700BF00B5FFF78DFE02E010FE30F4CF
:10413000F8D441EC100443EC112400EE010410EE1D
:1041400030F48CBF01200020704700BF00220029FE
:1041500050DA404261EB4101C9B1B1FA81F30B3B46
:1041600017D4D3F1200C30FA0CFC9840994051EA56
:104170000C011A44524202F2324201EB025141F068
:10418000004140F2FE739A4238BF704721E0114669
:104190007EE003F1210310FA03FCA3F1010301FA0D
:1041A00003FCC3F1200320FA03F021FA03F140EAF3
:1041B0000C00A3EB020202F2324214D050F10000D4
:1041C00041EB025141F0004140F2FE739A4238BF88
:1041D00070474FF00001A8BFC7F6F0714FF0000024
:1041E000704700217047EBD350F1000020F0010030
:1041F000E6E70022B9B1B1FA81F30B3B16D4D3F153
:10420000200C30FA0CFC9840994051EA0C011A44F9
:10421000524202F2324201EB025140F2FE739A42E4
:1042200038BF704720E0114600F066B803F1210363
:1042300010FA03FCA3F1010301FA03FCC3F120030C
:1042400020FA03F021FA03F140EA0C00A3EB02028A
:1042500002F2324212D050F1000041EB025140F222
:10426000FE739A4238BF70474FF00001A8BFC7F6EF
:10427000F0714FF00000704700217047EDD350F10E
:10428000000020F00100E8E7002880F2358040427D
:10429000B0FA80F30B3B11D4984001EB0302524279
:1042A00002F2124200EB025141F000414FF00000D7
:1042B00040F2FE739A4238BF704713E0C3F1000327
:1042C00030FA03FCC3F120029040A3EB010202F29A
:1042D00012420CEB025141F0004140F2FE739A424F
:1042E00038BF70474FF00041A8BFCFF6F0714FF0D4
:1042F000000070470021704760B3B0FA80F30B3BB9
:104300000FD4984001EB0302524202F2124200EB3A
:1043100002514FF0000040F2FE739A4238BF7047DE
:1043200010E05B4230FA03FCC3F120029040A3EBA3
:10433000010202F212420CEB025140F2FE739A4269
:1043400038BF70474FF00001A8BFC7F6F0714FF0BB
:1043500000007047002170470022A2F232425FEA5B
:10436000215CACF10103A1EB03515B0513F5800F58
:1043700032D212EB535210D40B2A36DA9140D2F1DA
:10438000200330FA03F319439040BCF1000FA8BF9B
:104390007047404261EB4101704720320EDD01FA67
:1043A00002F3D2F12002D140D0401843BCF1000FFB
:1043B000A8BF7047404261EB41017047524282F30F
:1043C000050231FA02F00021BCF1000FA8BF7047CE
:1043D000404261EB4101704702D00020002170474C
:1043E00050EA013118BF4FF0000C6FF0004101EBB3
:1043F000DC716FEAEC70704710B5044602F01EFAEB
:1044000028B10346034A2344934200D810BD024812
:10441000FEF768FB00000820F4C6001010B50C463B
:1044200002F0D2FC28B10346034A2344934200D849
:1044300010BD0248FEF756FB00000820F4C600102D
:1044400002F004BA9A4238BF88547047704700BFE0
:104450002DE9F04F83B09946DDE90DAB0F9B8846FF
:1044600011469A07074616D1DA453AD20C460D4650
:10447000ABEB0A060E4422464B464146202001344F
:10448000B847B442F7D12946BAF1000F08D1204607
:1044900003B0BDE8F08F0C46BAF1000F10D00E4605
:1044A00055460C9B2E449A440191721B4B46013D8C
:1044B00041461AF8010D3446B847002DF5D101994F
:1044C0000F9B9B07E3D5651AAB45E0D922464B46C7
:1044D000414620200135B8475D4504F10104F5D37C
:1044E000D5E7BAF1000FDAD10C46D0E72DE9F04F4D
:1044F0000F9FDDF824E017F0020F0A9C9DF82C9026
:104500000E9DDDE90C8629D1002D6FD1B44225D254
:10451000202C07F0010B00F0128104F1FF3C4FF05A
:10452000300AF44401E0202C7AD00134A6420CF881
:1045300001AFF8D8BBF1000F10D0AC420ED2202C46
:1045400074D004F1FF3C4FF0300AF44401E0202C19
:1045500029D00134AC420CF801AFF8D117F0100F9C
:104560003AD017F4806F28D11CBBB8F1100F00F0BF
:10457000CA80B8F1020F00F0D48030248EF80040D9
:104580000124B9F1000F67D17E0740F1AA802B26E4
:104590000EF804600134CDE90B57CDE909E4BDE81C
:1045A000F04FFFF755BFFC0640F189807C0535D4FC
:1045B0002024A6426AD0AC4268D0B8F1100F00F0B7
:1045C0008780B8F1020F5AD0202CE4D0264601345F
:1045D0004FF0300C0EF806C0202CD2D1CDE90B578D
:1045E000CDE909E4BDE8F04FFFF732BF17F0010B4A
:1045F0003ED0B9F1000F47D117F00C0F44D1B442AF
:104600009BD2202C89D1202D10D8FC0657D57C05B3
:1046100055D4202E00F0B980202D10D02024CCE7D6
:10462000BBF1000F00F0A580202DBCD9FC0646D5BB
:104630007C0544D4202E00F0A880202D3FD12C46AC
:104640001F26B8F1100F7FD0B8F1020FC0D14FF084
:10465000620C0EF806C0B7E72D260EF80460013490
:10466000CDE90B57CDE909E4BDE8F04FFFF7F0BE07
:10467000B442BFF473AF202C7FF44FAFD6E7202CA9
:1046800089D026460134E2E7013DB8E7661ED8D15D
:10469000B8F1100F64D0B8F1020F7FF46EAF62264C
:1046A0008EF80060302644468EF80160B9F1000FA4
:1046B0003FF46AAFD0E7B8F1100F7FF46CAF20245D
:1046C000CDE90B57CDE909E4BDE8F04FFFF7C0BED7
:1046D000BE060ED4202CF2D078260EF804600134E9
:1046E00072E73E077FF557AF20260EF804600134CD
:1046F00051E7202CE3D04FF0580C0EEB040686F85F
:1047000000C0013460E7BE0617D558248EF800407B
:1047100030248EF801400224B9F1000F3FF434AF89
:104720009AE762248EF8004030248EF8014002247B
:10473000B9F1000F3FF428AF8EE77824F2E7BBF120
:10474000000F7FF462AF71E717F0200F0CBF4FF03E
:10475000780C4FF0580CA61E0EF806C0013C35E749
:10476000BC06EAD558248EF8004030248EF801406B
:10477000DDE717F0100F3FF40EAF17F4806F9AD1FA
:10478000202E7FF418AF1F265BE734461F2658E71C
:1047900000B9704701F050BB10B1D1E900311847A2
:1047A000704700BF000000002DE9F04F9FB09DED65
:1047B000287BDDE92AA558EC177B83461E460D9120
:1047C000109243463A46384641468DED087B2C9C74
:1047D000FFF74CFC002840F0D880384641464FF0A7
:1047E000FF32754BFFF7A2FC002840F0CE80384620
:1047F00041464FF0FF326FF48013FFF75BFC002857
:1048000040F0C380DDE908780022384641460023A5
:10481000FFF750FC002840F0C081CDE90A78DDE9BF
:104820000A2390461F4614F4806308BF4FF0060A1F
:10483000139304F4006258EA0703119240F0C08019
:10484000002A00F0A2819FED5A7B00278DED0E7BA0
:104850004FF00009BA45CCBFAAEB070A4FF0000A97
:104860004F46C8BF0AF1FF3A44F480644D4594BFF7
:104870004FF00008A5EB090814F00203119304D0CF
:10488000B9F1000F18BF4FF000083FB1DDE90A0190
:10489000DDE90E23FFF746FBCDE90A01DDE908015A
:1048A00000220023FFF706FC30B1DDE90A010246D1
:1048B00001F10043CDE90A239DED0A7BCDE902A871
:1048C000DDF834A024F4006304938DED007B3346BF
:1048D00051465846109A00F097F98046B9F1000FFA
:1048E0004FD014F0200F024600F1010433460CBFF4
:1048F000652045205146D84709F1FF3087EAE77C1B
:104900000DF1580900224B46DFF8B080ACEBE77C94
:104910004FEAD77E01E0202A10D0E246A8FB0C71B6
:10492000C90801EB8107ACEB47073037BAF1090F33
:104930008C4602F1010203F8017BECD805230590B7
:10494000069300200A230D9FCDE90330CDE9012E07
:104950003346224639465846CDF80090FFF7C6FD4B
:10496000119B80466BB1109BC41AA54209D94246DF
:104970003346394620200134D847A54208F10108C2
:10498000F5D840461FB0BDE8F08F9DED087B33465B
:104990005846109A0D998DED287BCDE92B54CDF812
:1049A000A8A01FB0BDE8F04F00F02EB9AFF3008013
:1049B0000000000000000000FFFFEF7FCDCCCCCC5A
:1049C000C7F30A50A0F2FF30FFF708FB8AA3D3E930
:1049D0000023FFF781FA8AA3D3E90023FFF754FAF3
:1049E000C7F31307CDE90E0147F07F51404600227F
:1049F0007B4B41F44011FFF75BFA6BA3D3E9002333
:104A0000FFF76AFA02460B46DDE90E01FFF73CFAB2
:104A1000FFF708FB0746FFF7E1FA65A3D3E9002398
:104A200080468946FFF758FA00226E4BFFF72CFAB2
:104A3000FFF7F8FA03464946404612935EA3D3E9CE
:104A40000023FFF749FA804612988946FFF7C6FA15
:104A50005BA3D3E90023FFF73FFA02460B4640462B
:104A60004946FFF725FA02460B4680468946FFF77E
:104A700033FA42464B46CDE90E0140464946FFF720
:104A800003FA0022CDE91401DDE90E01564BFFF7D0
:104A900049FA0022554BFFF7F7F902460B46DDE9CC
:104AA0000E01FFF73FFA0022514BFFF7EDF90246E6
:104AB0000B46DDE90E01FFF735FA42464B468046CC
:104AC000894600204FF08041FFF7F2F902460B467D
:104AD00040464946FFF7D8F902460B46DDE9140186
:104AE000FFF720FA0022434BFFF7CEF9129B00227A
:104AF00003F2FF3C4FEA0C53FFF7EEF9804689467C
:104B0000DDE90A0142464B46CDE90E89FFF7D2FAAC
:104B100068BB4346494607F16302C62A119A8CBF17
:104B20004FF005094FF00409002A3FF49FAE0B43F4
:104B30003FF48EAEDDE90A0123A3D3E90023FFF79A
:104B4000E1FA48B1DDE90A0121A3D3E90023FFF727
:104B5000B1FA00287FF47CAEBAF1000F3FF486AEC4
:104B6000139B002B3FF482AE0AF1FF3A7EE600224F
:104B70001E4B40464946FFF7D5F90A460146034613
:104B8000CDE90E12013F1146C5E79FED137B174695
:104B90004FF004098DED0E7B68E608F100430A979B
:104BA0000B933CE6AFF3008061436F63A787D23F6E
:104BB00071A379094F930A401655B5BBB16B0240FA
:104BC000EF39FAFE422EE63F2D431CEBE2361A3F48
:104BD0000000000080842E41000000000000000062
:104BE0000000F83F0000E03F00002C40000024409F
:104BF000000018400000F03FFB799F501344D33F62
:104C0000B3C8608B288AC63F2DE9F04F97B0DDE925
:104C10002089CDE90401DDE9224BCDE90623404698
:104C200042464B464946DDF890A0FFF71FFA0028A0
:104C300040F0C581404649464FF0FF326FF4801383
:104C4000FFF738FA002840F01D81404649464FF0F2
:104C5000FF32C14BFFF76AFA002840F0E380B8A3A7
:104C6000D3E9002340464946FFF760FA002840F0A8
:104C7000CB80B5A3D3E9002340464946FFF71AFA93
:104C8000002840F0C1804046494600220023FFF73B
:104C900011FA002840F0E0801AF480650D9000F0D1
:104CA000E980092C40F296810EAB1A460C93302114
:104CB0000023A4F109050133202B02F8011BA4EB0A
:104CC000030600F03A81AB42F5D19FED9D7B8DED5F
:104CD000087B49464046FFF7A5F90446FFF77EF9F1
:104CE00002460B4640464946FFF7E2F8DDE9082355
:104CF000FFF7F2F802460B46CDE90A23FFF7A4F9C5
:104D00000746FFF77DF902460B46DDE90A01FFF78A
:104D1000CFF802460B46CDE90A2300228F4BFFF75E
:104D200005FA002800F0DB8001373846FFF768F904
:104D3000DDE90823FFF7E6F908B100270134002E6A
:104D400040F0B1802046FFF749F902460B46404645
:104D50004946FFF7ADF80022804B06460F46FFF7A5
:104D6000A9F940B93046394600227C4BFFF7DEF9FD
:104D7000002800F015810C9B691E7948194410E049
:104D800080FB0462C3EBA20303EB8302A4EB4204A7
:104D900004F1300201351C4601F8012F002B00F010
:104DA000AB80202D4FEAE473EAD10AF00303012B14
:104DB0001CD1BBF1000F19D00D9B002B40F0F980E6
:104DC0001AF00C0F40F0F580AB4540F2D380202D57
:104DD0000BD030220C996B1E0B4401355D4503F856
:104DE000012F00F08D80202DF7D12025DDE906234D
:104DF000DDE904010C9CCDE902BA01950094FFF7AE
:104E000027FB17B0BDE8F08FCDE92089DDE9062347
:104E1000DDE90401CDE923BA229417B0BDE8F04FD3
:104E2000FFF7C2BC4F4DCDF88CA00AF0040ABAF1CE
:104E3000000F4D4C18BF2C46DDE90623DDE90401C7
:104E400020940CBF03240424CDF888B0219417B01B
:104E5000BDE8F04FFFF7FCBA4B4642460020002168
:104E6000FFF726F801231AF48065804689460D93E2
:104E70007FF417AF9FED367B0EAB06268DED087BDA
:104E80000C9326E70424DDE90623DDE90401374D10
:104E9000CDF88CA0CDF888B02095219417B0BDE84E
:104EA000F04FFFF7D5BA0C9B681EDFF8C4C018445A
:104EB0000DE0ACFB0721C90801EB8102A7EB420220
:104EC0003032092F00F8012F27D90F461D46202D1B
:104ED00005F1010306F1FF36EBD120254BE7002257
:104EE000DDE90A011D4BFFF7E5F800287FF427AF45
:104EF000002F5AD1013722E70AF00303012B75D0A6
:104F0000202D3FF473AF0D9BBBB32D2205F1580349
:104F10006B4403F8202C013568E7202BDDD0AEB3BD
:104F20000C9A1E441544302201E0B3422ED00133C6
:104F3000202B05F8012FF8D1CFE71D46C5E600BFAD
:104F40000000000065CDCD410000000065CDCDC161
:104F50000000000080842E41FFFFEF7F0000E03F53
:104F60006766666640C7001048C7001050C700104B
:104F7000CDCCCCCC202D3FF439AF1AF0040F0DD19D
:104F80001AF0080F3FF432AF2022BFE72E2103F1C1
:104F900058026A4402F8201C5D1CECE62B22B5E79F
:104FA000E3077FF5E8AE0134E5E6FA077FF5C7AE23
:104FB000A0E70BF1FF3BAB453FF609AFA0E70324A9
:104FC000DDE90623DDE904010A4DCDF88CA0CDF81A
:104FD00088B061E7084B264603EBC40393ED007BE2
:104FE0000EAB8DED087B00250C9372E6BBF1000F34
:104FF00086D0E1E64CC70010C0C900102DE9F04F83
:105000009A469BB0249C964D0B94964C0B1E18BF51
:10501000834625609AF80000934C0A9308BFA34684
:105020000992002800F0BC824FF000090AE04A46CD
:10503000099B0A9909F10109D8479AF8000000284C
:1050400000F0CE8025280AF1010AF0D10023524653
:1050500012F8010BA0F1200110290AD8DFE801F0B5
:105060004009093C090909090909093809340909EC
:105070003000A0F13001092940F28C802A2800F08C
:10508000F58000210C912E2800F099800027A0F1D6
:10509000680112292DD8DFE811F057012C005101C9
:1050A0002C0045012C002C002C002C002C002C0086
:1050B0002C0027002C002C002C002C002C0027009A
:1050C000924643F00103C2E7924643F00203BEE773
:1050D000924643F00403BAE7924643F01003B6E762
:1050E000924643F00803B2E79AF8010043F4807354
:1050F00001326728924600F28280242840F2C6805E
:10510000A0F12502422A00F2C180DFE812F05F011F
:10511000BF00BF00BF00BF00BF00BF00BF00BF0097
:10512000BF00BF00BF00BF00BF00BF00BF00BF0087
:10513000BF00BF00BF00BF00BF00BF00BF00BF0077
:10514000BF00BF00BF00BF00BF00BF00BF002601FF
:1051500045012601BF00BF00BF00BF00BF00BF0068
:10516000BF00BF00BF00BF00BF00BF00BF00BF0047
:10517000BF00BF00D301BF00BF00BF00BF00BF0022
:10518000BF00BF00BF00BF00D3016701D3012601EC
:1051900045012601002100E0013201EB810100EB15
:1051A000410110789246A0F13004092CA1F13001A0
:1051B000F2D92E280C9102F101027FF467AF9AF820
:1051C00001001146A0F13006092E43F4806340F23D
:1051D00031812A2800F03E8192460027013256E7AD
:1051E0004C46099B994501D303F1FF394A460020FB
:1051F000099B0A99D84720461BB0BDE8F08FA0F163
:105200006902D2B20F2A41D8012649F241019640E3
:105210000E4040F001810A2A3FD0072A36D10B9C6C
:1052200054F8042B002A00F0288143F021010DF1ED
:10523000480E704603E0202E00F029811A4602F045
:105240000F052B46092D94BF303337330F2A00F852
:10525000013B06F101064FEA1213ECD817E100BF3B
:10526000FD4F00100C1300204D4400100B9C9AF8C9
:10527000010054F8045B9246002DBDBF694243F023
:1052800002030C910C950B940132FCE64A46099BF3
:105290000A9909F10109D847CFE60B9951F8048B17
:1052A00098F800201046002F40F0E18072B16FF0B6
:1052B000010C0CF1010C4646C44401E0664503D0E4
:1052C00016F8014F002CF9D1A6EB080613F4806CF8
:1052D00002D0BE4228BF3E4613F0020400F0878190
:1052E000002A00F02B81BCF1000F00F041810B94EB
:1052F0000D964A46DDE909540E464F4408E02B4618
:105300002146D84718F8010F09F1010910B14A46A2
:105310004F45F4D131460B9C0D9E002C40F00E8180
:105320000B918AE69AF801006C287FF4DFAE9AF8B8
:10533000020043F440730AF10302DAE69AF801002E
:1053400043F400730132D4E69AF80100682800F0B3
:10535000208143F080030132CBE6672800F0E7802C
:10536000472800F00081452800F0FF800B9C049343
:105370000C9B0734CDE9027324F007031C46DDE9DA
:105380000931F4E802674A465846CDE900670B94B4
:10539000FFF70AFA814650E646280B9C08BF43F007
:1053A000200304930C9B0734CDE9027324F0070318
:1053B0001C46DDE90931F4E802674A465846CDE962
:1053C00000670B94FFF720FC814636E64A4625200D
:1053D000099B0A9909F10109D8472EE60B9A9C0707
:1053E00002F1040709F1010640F1E6801078099BFB
:1053F0004A460A99D8470C9B012B40F22C81DDE9E3
:105400000954994432462B46214620200136D8477C
:105410004E45F7D10B9710E66F2800F08B8040F2D5
:105420006581782800F008814FF00A0823F0100306
:10543000C44647E0002707EB870700EB4700A0F1D1
:10544000300711F8010FA0F13002092AF3D98A467A
:105450004A1C1CE60B9C9AF8020054F8047B0AF1E3
:10546000020A0AF101020B9427EAE7770FE6002A05
:105470003FF42CAF07F1FF3C1BE723F0100113F4BE
:10548000806241F021013FF4D2AE0DF1480E0823B5
:105490001020059300234A46CDE902300691584674
:1054A000DDE90931CDE900E60497FFF71FF80B9419
:1054B0008146C2E5582879D0622840F051824FF0E9
:1054C0000208C44613F480606DD123F00C0313F47A
:1054D000007240F0C2800B9904310D9113F4807179
:1054E00040F02E825E060B9A40F1AA801278002AC4
:1054F00040F0DA8023F01003002800F0D580114638
:105500000DF1480E06930C9BCDF80CC0CDE9047349
:10551000019100234A4602935846DDE90931CDF84E
:1055200000E0FEF7E3FF0D9B81460B9385E543F416
:1055300000631BE74FF00808C446C3E70C9B4C46CA
:10554000B3427FF6EDAE0F464B44A3EB0609DDE90F
:10555000096522463346294620200134D8474C4568
:10556000F7D13946DCE643F4006343F02003FDE65F
:105570000F460B94DDE909544A462B462146D8478D
:1055800018F8010F09F101090028F5D139460B9CE3
:10559000C3E69AF8020043F0C0030AF10302A8E54B
:1055A000044681461DE623F00D0390E74FF01008F6
:1055B00043F02003C44685E70C9B012B45D9DDE968
:1055C00009544E4609F1FF38984432462B4621468D
:1055D00020200136D8474645F7D10C9B32469944E6
:1055E0000B9B1878DDE90931D8470B9725E50C9B13
:1055F000B34240F2EE81CDE90D48DDE90954884619
:105600004B449E1BCDF82CC04A462B4621462020F9
:1056100009F10109D847B145F6D14146DDF8388096
:105620000C9BDDF82CC00D9C98F800205E1C1046E9
:10563000002A7FF458AE73E64FF01008C44641E7E5
:105640001D064CBF1288126851E713464A46187867
:10565000DDE90931D847B146DCE60B9C073424F07C
:1056600007042246656852F8084B0B9254EA05027B
:1056700040F02C8123F01003002800F02781002641
:105680000DF1480E06930C9B4A46CDE904730023A6
:10569000CDE900E6CDF80CC002935846DDE90931AA
:1056A000FEF724FF8146C8E413F0200F14BF412009
:1056B00061200DF1480E7646A0F10A0803E020298A
:1056C0003FF420AF2246B2FBFCF40CFB1425E8B2F9
:1056D000092D00F130058ABF4044E8B2C0B26245EE
:1056E00006F8010B01F10101E9D20BE723F01002EA
:1056F00069280D9240F06F8113F4806204D04FF45A
:10570000806223F011030D930D9B13F4007640D1BA
:105710000B9B03F104080D9B13F4807040F09880FC
:10572000590640F1C6800B9B19780C46CB0F002917
:1057300000F0B98022460DF1480E74461646DFF897
:10574000A0C201E020280FD03546ACFB0621C908D5
:1057500001EB8102A6EB42023032092D0E4600F128
:10576000010004F8012BEDD80D9ACDE90103069252
:105770000C9ACDE904720A234A4603935846DDE9A0
:105780000931CDF800E0FEF7B1FECDF82C8081465E
:1057900053E40B9C073424F0070421460846636851
:1057A00050F8081BDC0F0B9051EA030000F0C38097
:1057B0000A46191E48DB13460DF1480EF446002632
:1057C000CDE90E94DFF8188201E0202E2DD05A1872
:1057D00042F10002A8FB025929F0030505EB9905E7
:1057E000521B1C469B1A61F1000508464FF0CC3154
:1057F00001FB03F108FB0511A3FB08531944052322
:1058000005F00109A9FB03399B180A2C03F13003A9
:105810004FEA550570F100000CF8013B06F1010656
:1058200045EAC1734FEA5101CFD2DDE90E940D9BD9
:105830004A4606930C9BCDE90164CDE904730A2323
:10584000CDF800E0039328E7524261EB4101B2E753
:105850000B9B1968CB0F002900F0AB8081EAE17245
:10586000A2EBE1720DF1480E7046DFF874C101E061
:10587000202E10D01546ACFB0241C90801EB810473
:10588000A2EB440404F13002092D00F8012B06F1CB
:1058900001060A46ECD80D9ACDE9016306920C9AEE
:1058A000CDE9047267E7002A3FF445AF0DF1480ED9
:1058B0005AE713F0800F0B9B00F08180B3F90010C2
:1058C00081EAE174A4EBE174A4B22FE713F0200F96
:1058D00014BF412261220DF1480E0A3ACDE90D971D
:1058E000CDF844B000267746F3469146CDE90F3C0B
:1058F00003E0202E17D004460D46294642460023D9
:10590000204606F0ADFBD2B2092A02F1300388BF6F
:1059100002EB09034445DBB275F1000507F8013BD2
:1059200006F10106E5D2DE46DDE90D97DDE90F3C23
:10593000DDF844B0A6E6002A47D1134611463BE7FE
:105940000B990968A1B923F0100388B10DF1480E35
:1059500006930C9BCDF80CC0CDE904730192D8E5F9
:1059600013F480627FF4CBAE23F010030D93CBE6EB
:1059700013F0200F14BF412061200DF1480E764630
:10598000A0F10A0802E0202AE2D02146B1FBFCF493
:105990000CFB1415E8B2092D00F130058ABF404414
:1059A000E8B2C0B2614506F8010B02F10102EAD289
:1059B000CEE7002A3FF456AF0DF1480E6BE71968A9
:1059C00081EAE174A4EBE174B0E600260DF1480E23
:1059D0002DE701362BE64FF00A081346C44671E561
:1059E000CDCCCCCC0EB410B585B007AC54F8043B8C
:1059F00001464FF0FF32009404480394FFF7FEFA8B
:105A000005B0BDE8104003B0704700BF454400102A
:105A100084460CB410B584B006AC54F8043B0A4676
:105A20000094614604480394FFF7E8FA04B0BDE827
:105A3000104002B0704700BF4544001070B5944656
:105A40001E4605460C4684B04FF0FF32634602A95D
:105A500000960348CDE90254FFF7D0FA04B070BDB8
:105A6000994700100FB410B50E4B84B006A91C68FE
:105A700051F8043B03915CB100914FF0FF3202A951
:105A80000948A047012004B0BDE8104004B07047A9
:105A9000184600F013FA204604B0BDE8104004B0E8
:105AA000704700BF0C1300209147001010B5094B40
:105AB00084B01C684CB1034600914FF0FF3203A93B
:105AC0000548A047012004B010BD00F0F7F92046BA
:105AD00004B010BD0C1300209147001000BEFDE77C
