:020000041000EA
:10000000002008205D0100101301001015010010F0
:100010001101001011010010110100101101001058
:100020001101001011010010110100101701001042
:100030001101001011010010190100101B01001026
:100040001D0100101D0100101D0100101D010010F8
:100050001D0100101D0100101D0100101D010010E8
:100060001D0100101D0100101D0100101D010010D8
:100070001D0100101D0100101D0100101D010010C8
:100080001D0100101D0100101D0100101D010010B8
:100090001D0100101D0100101D0100101D010010A8
:1000A0001D0100101D0100101D0100101D01001098
:1000B0001D0100101D0100101D0100101D01001088
:1000C0001D0100101D0100101D0100101D01001078
:1000D0001D0100101D0100101D0100101D01001068
:1000E0001D0100101D0100101D0100101D01001058
:1000F0001D0100101D0100101D0100101D01001048
:100100001D0100101D0100101D0100101D01001037
:1001100000BE00BE00BE00BE00BE00BEEFF3058004
:10012000103800BEF2EB88713C4800106C4800109B
:10013000A801001090A31AE7D3DEFFFF42012110AF
:10014000FF010000144D0000793512AB4FF00000A4
:100150002049086006C881F3088810474FF05040D6
:10016000006810B14FF00000F2E70FA40ECC002998
:1001700002D000F015F8F9E71749184A002000E00E
:1001800001C19142FCD1002080F30A8814498847BC
:10019000144988471449884700BEFDE701C901C2D8
:1001A0009A42FBD3704700BF6C480010100100203A
:1001B000F00600204C4E001000000820000008202F
:1001C0004C4E001000100820001008200000000015
:1001D0007047000008ED00E0F0060020900B0020C2
:1001E00055360010790200104D360010F8B500BFEA
:1001F000064B0749C91A891048BF0131491003D07D
:10020000044B0BB101481847704700BFF0060020AF
:10021000F00600200000000008B5054B1BB10549A1
:100220000548AFF30080BDE80840FFF7E1BF00BF1D
:1002300000000000AC0A00209044001008B50C49F2
:100240000C4803F0F5FD0321042000F027FC0321F6
:10025000052000F023FC00220121042000F03CFCDA
:1002600000220121052000F037FC002008BD00BF5E
:10027000A0860100E00600202DE9F04F1920ADF521
:10028000777D00F03DFC19234FF0010242EC443031
:10029000FFF7D4FF002840F0528303F007FB6524EA
:1002A00004E0013C07D0642001F0C8F9002003F00D
:1002B0008DFE0028F5D0BA4803F086FB01F062FA03
:1002C0000B463C220021089024A8099303F0ACFEC1
:1002D00001F058FA0B463C220021069033A8079300
:1002E00003F0A2FE01F04EFA0B463C2200211A90C8
:1002F00042A81B9303F098FE01F044FA0B463C22FF
:1003000000210A9051A80B9303F08EFE01F03AFAF7
:100310000B463C2200210C9060A80D9303F084FE54
:1003200001F030FA0B463C2200211C906FA81D936F
:1003300003F07AFE01F026FA0B463C2200210E90D3
:100340007EA80F9303F070FE01F01CFA0B463C22CE
:10035000002110908DA8119303F066FE01F012FAAF
:100360000B463C22002112909CA8139303F05CFEE4
:1003700001F008FA0B463C2200211490ABA815931B
:1003800003F052FE01F0FEF90B463C2200211690CC
:10039000BAA8179303F048FE01F0F4F90B463C228B
:1003A00000211E90C9A81F9303F03EFE01F0EAF958
:1003B0000B463C2200211890D8A8199303F034FE74
:1003C00001F0E0F90B4604903C220021E7A80593D8
:1003D000002603F029FEDFF8EC91DFF8ECA1714F65
:1003E000B7E001F0CFF9069A6F4B801A079A61EBDC
:1003F0000201834276EB0101C0F2518101F0C2F9A2
:100400001A9BC01A1B9B61EB0301874276EB01012B
:10041000C0F2AF8101F0B6F90A9BC01A0B9B61EBE9
:100420000301874276EB0101C0F2438101F0AAF992
:100430000C9BC01A0D9B61EB0301874276EB010117
:10044000C0F2178101F09EF91C9BC01A1D9B61EB45
:100450000301874276EB0101C0F2638101F092F95A
:100460000E9BC01A0F9B61EB0301874276EB0101E3
:10047000C0F2F48001F086F9109BC01A119B61EB69
:100480000301874276EB0101C0F2DA8001F07AF9CC
:10049000129BC01A139B61EB0301874276EB0101AB
:1004A000C0F2C08001F06EF9149BC01A159B61EB7D
:1004B0000301874276EB0101C0F2A68001F062F9E8
:1004C000169BC01A179B61EB0301874276EB010173
:1004D000C0F28C8001F056F91E9BC01A1F9B61EB85
:1004E0000301874276EB010170DB01F04BF9189BA9
:1004F000C01A199B61EB0301874276EB010143DBD4
:1005000001F040F9049BC01A059B61EB030187428F
:1005100076EB01011ADA01F035F903460020CDE946
:10052000043103F0C9F9214B1B68002B40F3F5801F
:10053000811C00F096811E4AD0541C4A013313607E
:100540001C4B1B4A1C49E7A803F03CF8642001F04F
:1005500075F801F017F9089A184B801A099A61EB9F
:100560000201984271F10001FFF63BAF01F00AF978
:1005700019234FF00102CDE9080142EC403001F0AF
:1005800001F9CDE906012CE701F0FCF80C4BCDE9AF
:10059000180193E80300D8908DF86413B0E700BF0A
:1005A000A04400103F420F001FA10700C40A002012
:1005B0003C0A00203C0B0020A0450010C0CF6A0080
:1005C0006045001098440010340B0020B34B4FF0EE
:1005D00000021E60062342EC4030B14BC9AC0FCB89
:1005E00007C424F8023B1B0C23707EE701F0CAF815
:1005F000AC4BCDE9160193E80300ADF8EC12090C01
:10060000BA908DF8EE1265E701F0BCF8A64BCDE983
:10061000140193E80300ADF8B012090CAB908DF80B
:10062000B2124BE701F0AEF8A04BCDE9120193E80E
:100630000300ADF87412090C9C908DF8761231E726
:1006400001F0A0F89A4BCDE9100193E80300ADF852
:100650003812090C8D908DF83A1217E701F092F8D4
:10066000944BCDE90E0193E803007E90ADF8FC11A8
:1006700000E701F087F8904A904B60AC0C900D9128
:1006800007CA03C41B682280002B7FF4DBAE8C4BAF
:1006900093E8030000F060F9884B1860D2E601F09F
:1006A00071F819234FF00002CDE9060142EC403009
:1006B000A4E601F067F8834A51AB0A900B9107CA90
:1006C00003C3C9A81A7003F001FAE7A803F0FEF902
:1006D00051A803F0FBF942A803F0F8F933A803F09E
:1006E000F5F924A803F0F2F99CA803F0EFF9ABA800
:1006F00003F0ECF9BAA803F0E9F96FA803F0E6F902
:1007000060A803F0E3F97EA803F0E0F98DA803F0F8
:10071000DDF9D8A803F0DAF988E6821C7FF40BAF84
:100720000EE701F02FF8684A644B6FAC1C901D91E6
:1007300007CA03C41B682280002B00F0A780634D0A
:10074000634C55F8042F214621A802F03BFF6FA807
:1007500003F034FE6FAB21A9184403F0B7FC5545F4
:10076000EFD1B9F800306FA903805A4803F0AEF911
:1007700074E601F007F8034601245748CDE91A3121
:1007800003F022F9554803F01FF90021544803F003
:100790009DF92E2003F0D6F8524803F097F925462C
:1007A000A346DFF860812EE0782B2FD000F0EAFF1F
:1007B00042F21073C01841F100034FF0FF316FF0A7
:1007C0000042814272EB030C3CBF08461346594677
:1007D000CDE9020300960123434821AA03F04EFB12
:1007E000002813DB414803F071F90F2D33D148463F
:1007F000013403F06BF9802C3FF40CAE14F00F05BC
:100800005FFA84FB04D01BF07803CDD14046EAE7C1
:100810002146334803F05AF900F0B4FF42F2107356
:100820004FF0FF32C0186FF0004341F100018242E7
:1008300073EB01053CBF104619460096CDE9020155
:1008400001235946284821AA03F018FB002804DB9D
:10085000402003F077F82348CAE72E2003F072F80F
:10086000F9E7234AD654234B1E601368224A934269
:100870004AD022491E4803F04DFC00287FF460AEA8
:10088000014650221E4803F0CFFB59E60C4B93E87B
:10089000030000F061F8094B186050E72C0A0020B3
:1008A00050450010484500104045001038450010E4
:1008B000304500102845001008450010380B002076
:1008C00060060020FC44001014450010E40A0020DB
:1008D0002045001024450010BC440010CC440010FA
:1008E000F44400109C440010E006002094440010E2
:1008F0003C0A0020C40A00204255524E8C4500108C
:10090000E80A0020904400100E4B0F4A5B689342A7
:10091000AFD14FF0010C0D4B0D4C0E4DC3F800C084
:100920000FCD0FC495E8070003C44FF0060E2270E8
:100930004CEC40E000F026FFCDE91E0199E701F004
:1009400031F9AAE43C0A00205F4F4E002C0A002037
:100950003C0B0020704500102DE9F04387B002AB3E
:1009600083E803009DF80B409DF808709DF809800E
:100970009DF80A909DF80C503B4642464946CDE909
:1009800000453C4803F0A2F8204600F0B9F84FF0CB
:10099000010646EC444000222046114600F09CF837
:1009A00046EC40400121484600F078F840460121DD
:1009B00000F074F80121384600F070F8284600F085
:1009C0009FF846EC4450002747EC4050642000213B
:1009D00000F01CFE47EC4450274D052000F02EFE91
:1009E0000A2000F00BFF2846244903F065FA4FF077
:1009F000020EC221224B6A68C3F804E02B68DFF8BC
:100A000098C0204883F0070302EA0E0203F0CF03E8
:100A1000CCF8003042608DF817108DF8167047EC56
:100A2000404001220DF11701284603F009FD012382
:100A3000394628460DF1160203F0FEFC46EC404014
:100A4000114A124B012814BF1046184603F03EF815
:100A50000F4B9DF816100F48112918BF184603F0C8
:100A600035F89DF81600113818BF012007B0BDE811
:100A7000F08300BF504600100080084040420F0045
:100A800000B0084000A00840E4450010C845001030
:100A900000460010204600100090084010B44FF4AB
:100AA00080740C4B53F8202003EB8003C00082F0CD
:100AB000400200F1804003F5805C02F0C00200F5C6
:100AC000203003F54053CCF8002041601C605DF8F5
:100AD000044B70470480034010B4084CC90041EA3D
:100AE000820154F8202004EB8003514003F5805329
:100AF00001F00C015DF8044B19607047048003405D
:100B000030B44FF0000343EC440043EC40000525B3
:100B10004FF480740B4BC20053F8201003EB80009D
:100B200081F0400102F1804303F5203301F0C0025F
:100B300000F5805100F540500A605D60046030BCF3
:100B4000704700BF048003400FB400B583B0049C1D
:100B5000074802F039FF3CB105A92046019102F097
:100B60005BFD044802F030FF012002F06DFD00BF84
:100B7000944600109844001070B58646EFF3108537
:100B800072B6124CD4E8CF6F0120002EFAD1C4E81F
:100B9000460F002EF6D1BFF35F8F4FF0010CC8084F
:100BA00001F007030CFA03F31EF800C01CEA030669
:100BB00008D14CEA030C0EF800C0C4E88F6F85F32F
:100BC000108870BD1046FFF7BFFF00BFC3090020AB
:100BD000044A1078431CDBB2182B28BF1023137073
:100BE000704700BF650600204FF0E022936843F095
:100BF00000539360704700BF0021044B03F12002B3
:100C0000C3E88F1F01339342FAD17047B80900201F
:100C10004FF0E0234FF08032C3F80024C3F80424DF
:100C2000C3F80824C3F80C24C3F81024C3F8142410
:100C3000C3F81824C3F81C24C3F82024C3F82424C0
:100C4000C3F82824C3F82C24C3F83024704700BF0D
:100C5000012300F01F029340400941B1800000F1E0
:100C6000604000F56140C0F8803103607047024A7F
:100C7000203042F82030704700E100E0F8B50D4622
:100C8000EFF3108772B6124ED6E8CF2F0123002A59
:100C9000FAD1C6E8423F002AF6D1BFF35F8F0D4B71
:100CA00000F110049B680C4A53F82430934203D09F
:100CB000994201D000F076FF064B9B6843F8245020
:100CC000BFF35F8F0023C6E88F3F87F31088F8BD1E
:100CD000C109002000ED00E01D0100102DE9F04FDA
:100CE00083B0EFF3108A72B6744ED6E8CF2F01238B
:100CF000002AFAD1C6E8423F002AF6D1BFF35F8F3F
:100D00006F4B00F110089B686E4A53F828509542CB
:100D10003FD08D420C464AD06B4FEB1B2F2B38D85F
:100D200001214FEA50194FEA890909F1604909F593
:100D3000614900F01F0301FA03F0D9F80030C9F847
:100D4000800000EA030BBFF35F8FEFF30581C9B2A8
:100D500079B3884577D125F0010EDEF808C06445E7
:100D600005D17CE0D3F808C0644532D09E469EF998
:100D7000062002EB4203002A07EB8303F2DA644504
:100D800000F08180BBF1000F20D0C9F88001C9F8C4
:100D900000004B4B9B6843F82850BFF35F8F002344
:100DA000C6E88F3F8AF3108803B0BDE8F08F154680
:100DB000EFE725F0010EDEF808C06445D7D19EF9B3
:100DC00006407346002C08DA154666E0C9F8800034
:100DD000DFE793F90640002C56DB04EB440C07EBED
:100DE0008C0CDCF8082061009A609CF80720DA710E
:100DF0009CF90620002A9A715DDBBCF8042052059C
:100E000004D502F5FF1202F5FF521F32521502F10E
:100E1000020C4FF0040E0C2212FB04E202EB4C0217
:100E20006FF0070C3A44ACEB030C6244C2F34A0285
:100E300042F460429A80254B21441A7807EB8101E5
:100E40001C708A719EE7CDE9000100F0ABFEDDE980
:100E5000000125F0010EDEF808C0644587D19EF937
:100E600006407346002CB8DA194A1A4CD21A083ACE
:100E7000C2F30A316FEA01516FEA115144EA52029A
:100E8000DA8099807EE773460029EDD1FF228EF843
:100E900006204BF60152AEF804200C4C4AF6AA226A
:100EA00094F800C01946C91B49414A43120D83F802
:100EB00006C0227066E74BF60152BBE7C10900206D
:100EC00000ED00E01D010010680600208C0B0020E2
:100ED000A206002000F8FFFFF0B5EFF30585EDB2A4
:100EE000EFF3108C72B62649D1E8CF2F0123002AE8
:100EF000FAD1C1E8423F002AF6D1BFF35F8F214EFD
:100F000040F0010EB4684AF6AA2354F825701E4A30
:100F10000446A41A644163431B0D77455BB21BD0A2
:100F200092F906409C421CD092F912409C4223D078
:100F300092F91E409C4221D092F92A409C4208BF5F
:100F400003240FD0114A0024157813708571C1E86D
:100F50008F4F8CF31088F0BDB2680D4C42F82540DD
:100F6000F0E7002404EB440402EB8402FF249471B4
:100F70004BF601549480E5E70124F3E70224F1E7FE
:100F8000C109002000ED00E0680600208C0B002065
:100F90001D010010014B0B4403607047B80900208D
:100FA00070B5104C104DAC420ED2FF26236863B1D1
:100FB000FFF70EFE01462046FFF7ECFFA680BFF3C9
:100FC0005F8F0834AC42F1D370BDFFF701FE0146DC
:100FD0002046FFF7DFFF2671BFF35F8F0834AC4276
:100FE000E4D370BDE8060020F00600200D4B1A681F
:100FF000EFF3108172B6D2E8CFCF0120BCF1000F21
:10100000F9D1C2E84C0FBCF1000FF4D1BFF35F8FF0
:1010100000221B68C3E88F2F81F3108840BF002097
:1010200000217047800B00202DE9F04F2DED028B41
:1010300085B0EFF30583DBB2103B9A0818BF01229D
:101040004FF0010103F0030018BFAB4DAB4B08BFDD
:10105000AB4D00EB820201FA00FB53F8226005F56C
:1010600041539FEDA38B0190C3F804B0CDF800B0BD
:101070002AE0B388180440F18C80B379002B40F04B
:10108000D580B6F908100029C0F21581736901EB0B
:10109000410103EBC103D3E90247B7F1FF3F08BFAA
:1010A000B4F1FF3F09D0019B05EB8301AB6A0A69EC
:1010B000D21AE31A934238BF0C61284600F05AFB5B
:1010C000A042B941C0F2F780B6F90840009B002C5D
:1010D000EB63CEDBD6F8149004EB440A284609EB08
:1010E000CA07D7E902B800F045FB584571EB080183
:1010F000BFDBB8F1000FC0F2C180D7E90431814AEB
:10110000934200F0EA807A88B6F9080092B242EA87
:101110000040984702460B4652EA030100F0AE80B9
:10112000002B80F2CE80BBEB020B68EB030839F991
:101130003A30C7E902B8002B9BDB716903EB43022D
:1011400001EBC202D2E90270BB4578EB000C4FEA1A
:1011500043028EDBB4462CF8083F0BE031F9323005
:10116000F446002B0DDB03EB430001EBC0005A00FB
:10117000D0E90270BB451A4478EB000001EBC20EC7
:10118000ECDA29F83A30ACF80040B38818043FF59F
:1011900074AF3369EFF3108272B6D3E8CF0F012139
:1011A0000028FAD1C3E8401F0028F6D1BFF35F8FB3
:1011B0004FF6FF74B0880023316900B2B480C1E8F3
:1011C0008F3F82F310889842FFF657AF0746A94633
:1011D000746906F1080807EB470E04EBCE03D3E968
:1011E0000250B6F90830C446002BA8BFB34605DA52
:1011F0000FE034F93A309446002B09DB03EB430A45
:1012000004EBCA02D2E90261B54270EB0101F0DAE7
:101210005E46ACF8007034F93E7024F83E30002F82
:10122000D9DAB3794D46002B3FF42BAF0023B371CD
:10123000B6F9083006F10808591C3CD01946776900
:1012400003E080465A1C3FF41EAF03EB430207EB5A
:10125000C200B0F802C01C461CF4004F9E4637F98D
:101260003230EED08C4280ED028B05D0A8F80030F1
:10127000318927F8321034817146E3E739F83A3082
:1012800033813369EFF3108272B6D3E8CF0F0121B7
:101290000028FAD1C3E8401F0028F6D1BFF35F8FC2
:1012A0007388316929F83A3000237480C1E88F3F90
:1012B00082F31088DDE640BF05B0BDEC028BBDE8CF
:1012C000F08F2846CDE9022300F054FA029A039BDE
:1012D00010EB020B43EB010829E708460B6902916A
:1012E00098470028CAD00299D1E9002314E700BF2B
:1012F000FFFFFFFFFFFFFFFF00800B40C80A002039
:1013000000000B40291000102DE9F84F364C2569DC
:101310002DB1BDE8F84F0A213448FFF73BBEDFF896
:10132000E4800321404600F013FA0326C4F80C8041
:10133000FFF74EFC4FF0504C2D4B267003442361B9
:10134000DCF800300F216370636961801D834FF00A
:101350000405A3F878504FF00505A3F890504FF01E
:101360000605A3F8A8504FF007050E214FF6FF72AF
:1013700008274FF00A0EA3F8C0504FF001094FF0B4
:101380000C0C4FF0020B4FF0090A0D204FF00B052B
:10139000A3F868111749A280A3F808E1A160A3F897
:1013A00048B0A3F8F0A0A3F82051A3F838C1A3F8DF
:1013B0005001A3F83090A3F86060A3F8D8701A80A9
:1013C0000D4B3046C8F820700C49DC60FFF756FC26
:1013D00049463046FFF73CFC094B0A211F6403488D
:1013E000BDE8F84FFFF7D6BDB0060020800B002007
:1013F000B8090020FFFF1000C80A002029100010C3
:1014000000200B4000000B400146F0B50069EFF3EF
:10141000108772B6D0E8CF5F0124002DFAD1C0E862
:10142000454F002DF6D1BFF35F8FB1F902E04C6953
:101430000EEB4E0CBEF1000F4FEACC0504EBCC0CCA
:101440003DDB605B002648800869C0E88F6F87F34A
:101450001088BCF80200CCE902230130C0F30E0072
:10146000012838BF0120059BACF80200CCF81030F1
:10147000069B40EA0E40CCF814300B69EFF3108263
:1014800072B6D3E8CFCF0127BCF1000FF9D1C3E882
:101490004C7FBCF1000FF4D1BFF35F8F8B88635397
:1014A000A1F804E00B69C3E88F6F82F31088012272
:1014B000CB68097803F501538A405A60F0BD0023D8
:1014C0000A69C2E88F3F87F310884FF0FF30F0BD04
:1014D00003464089B0EB214F37DD58690A1402EB0F
:1014E000420210B500EBC2001C69EFF3108C72B61B
:1014F000D4E8CFEF0122BEF1000FF9D1C4E84E2F9E
:10150000BEF1000FF4D1BFF35F8F428889B292B26F
:101510008A4207D000221B69C3E88F2F8CF3108802
:10152000002010BD42F400424280012100221869CF
:101530009971C0E88F2F8CF310881C78DA68084600
:1015400002F50153A140596010BD0020704700BF53
:101550002DE9F041861F41F1FF35B04271EB0503E3
:1015600038BF002682B038BF354604460F4600F02B
:1015700009F9301A65EB0103012873F1000306DA5B
:101580002046394602B0BDE8F04100F07BB900F0DA
:10159000F9F8864265EB010100290ADB0021174BAF
:1015A0003246009316482B460191FFF72DFF002885
:1015B000E6DB4FF0000C1348134A436A9D4204D8FF
:1015C000816AB142DCD29D42DAD11368EFF3108117
:1015D00072B6D3E8CF8F5FF0010EB8F1000FF8D1EB
:1015E000C3E848EFB8F1000FF3D1BFF35F8F136882
:1015F000C3E88FCF81F3108820BFDEE7ED0F001026
:10160000B006002000000B40800B002038B50446D7
:101610000D4600F0B7F84FF0FF326FF0004320188E
:1016200045EB0101824273EB010438BF1946BDE866
:10163000384038BF1046FFF78BBF00BF10B50446D7
:1016400000F0A0F84FF47A734FF0FF3C6FF00042C7
:10165000E4FB0301BDE81040844572EB01033CBF8D
:1016600060461146FFF774BFF0B506460D4683B0DD
:10167000EFF30584E4B2002C35D1244F3A78F968B1
:1016800004328B6A51F82220D21AC31A934207D32C
:1016900020BF1F4B586AA8421FD2002003B0F0BDE4
:1016A00000F070F8864265EB0101002911DB194B4F
:1016B0003846CDE9003432462B46FFF7A5FE011E21
:1016C00007DD134B5A6AAA4219D220BF0F48FFF711
:1016D000FFFE0F4B586AA842DFD39B6A9E4209D88F
:1016E000012003B0F0BD0A4B586A8842D5D39B6AEB
:1016F000B342F5D2401B18BF012003B0F0BD9B6A76
:101700009E42E3D9AA42E1D1DFE700BFB006002044
:1017100000000B40ED0F0010084AD0E90003516AA9
:101720008B4204D8926A824203D301207047002082
:101730007047581A18BF0120704700BF00000B40C7
:1017400001460248C1E90023704700BF1917001085
:1017500010B4054B054C064AA04214BF1846581C4D
:101760005DF8044BFFF708BA380A002000800B40F0
:10177000A44600100346416A0A46986A596A8A429A
:10178000FAD17047034B596A0A46986A596A9142DE
:10179000FAD1704700000B4010B4174A536A9C46B8
:1017A000946A536A6345FAD1001959414FF0000217
:1017B00028BF01220346CAB10F4B596A4B1C08BF10
:1017C0000B4608D04FF0FF310B460B48426A8A4265
:1017D000FCD38A4207D1084A02E0506A884202D10B
:1017E000906A9842F9D35DF8044B7047024A526AF6
:1017F0009142EAD8EDE700BF00000B401F4B984232
:101800000AD84FF47A731E4A03FB00F0916A936A78
:101810005B1A9842FBD870474FF47A7130B4184B7A
:10182000A0FB01015A6A94469C6A5A6A6245FAD141
:1018300003194A414FF0000528BF01259DB9104901
:10184000496A8A4203D90E48416A9142FCD39142C7
:1018500007D10B4902E0486A904202D1886A984257
:10186000F9D330BC7047064B5A6A531C08BF134665
:10187000EFD04FF0FF321346E5E700BF9BC42000D6
:1018800000000B40074A536A9942FCD8994207D19D
:10189000044B02E05A6A914202D19A6A8242F9D319
:1018A000704700BF00000B40F8B5054606200E4605
:1018B00000F0E4F8002842D0354A3648954214BF7B
:1018C0004FF080624FF00062334B344902601A607F
:1018D0008C6832EA0404FBD12D4B4FF48071EB1A73
:1018E000B3FA83F32E4A5B09062022F8131000F0A6
:1018F000C5F8C300B3FBF6F30133DA0920D1402663
:1019000001216962AA622F6BFB0722D42B460022B9
:1019100053F82C1F062003F5805422602F6300F03B
:10192000ADF840F2013103228000B0FBF6F0EB6A23
:1019300083F0700303F07E0323602963AA64F8BD7B
:101940004FF6FE718A421BD922464FF6FF71154EA3
:10195000D7E740F2013205F540531A636B6AAC6A6F
:10196000062004EB831400F089F80F4BA402A3FBBC
:101970000023DB0A0021B4FBF3F0FFF70DFFC5E7FE
:10198000C3F34503114603EB82161A46B9E700BFBD
:10199000008007400020024000300240000002406A
:1019A000840B0020C0FF3F00757B2B8F00EB400CA9
:1019B0004FEA8C0C0CF1804C0CF5803CF0B51646CF
:1019C000DCF80420051FB2F5803F38BF4FF48032A9
:1019D000EDB238BFCCF80420012D2AD94FF40067AE
:1019E000254C0CF54052176054F82020B2B9DCF8B1
:1019F0000020012D82EA461202F0E0020CF580562A
:101A000032602AD94FF4006144F820304FF480331B
:101A10000CF500521160CCF80430F0BD6769B7FBDB
:101A2000F2FE0EF1010E0EEB4E0EBEF1030EFCD2D5
:101A3000DDE70129D2D103240CF540521460DCF813
:101A40000820D207FBD5DCF800200B4C82EA4612B6
:101A500002F0E0020CF5805632600122DCF8005002
:101A60004D4005F00305356002FA01F1DCF808206D
:101A70000A42FBD0C6E700BF780A0020014B53F8AA
:101A800020007047780A002070B4039D04682D037D
:101A900045EA03451B4B002CB3FBF1F3B2FBF3F615
:101AA0001FDB194A194B904214BF4FF480424FF488
:101AB0000042174C1A6003F580531A60A36832EA9B
:101AC0000303FBD1212200F54053043301608660FB
:101AD0001A600268002AFCDA0822C5601A6070BC2D
:101AE0007047036803F03F038B42DAD18368C3F386
:101AF0000B03B342D5D1C36803F4EE23AB42D0D17C
:101B0000EDE700BF001BB700008005400020024049
:101B100000000240012300EB4000800000F1804003
:101B200000F5841041600360704700BF0023DB8A2A
:101B3000002242E800F2520201D410211847042189
:101B4000184700BF034AD2F82838002BFBD0BFF358
:101B50005F8F704700000E400021044B044ABFF322
:101B60005F8F43F8041B9342F9D170470C080E4075
:101B70002C080E4010B42F204FF42A64054A064B5F
:101B800006491460D06019605368002BFCDA5DF8D8
:101B9000044B70470080044000A0044000B0FA00ED
:101BA000704700BF08B50148FEF7CEFFC8460010D9
:101BB00038B5054C054DAC4204D254F8043B984767
:101BC000AC42FAD338BD00BF48440010884400102E
:101BD00010B40748074C084B084A094904601A60CA
:101BE0008B6832EA0303FBD15DF8044B704700BFFA
:101BF000002002407F3BEFEF00300240F6FFF3038E
:101C000000000240044BDB6CB3F5004F03D14FF4EE
:101C10008022024BDA6470470000115000201150FE
:101C20004FF0E022044BD2F8881D0B43C2F8883DE8
:101C300010EE3004704700BF030330006FF06041C6
:101C4000044B054A19609368DB4333F06043FAD1D3
:101C5000704700BF003002400000024010B545F25E
:101C60005320FFF763FFBDE81040034604201847E8
:101C700010B545F25320FFF759FFBDE81040034669
:101C800001201847FEF7B8BF10B5054B054C4FF4BF
:101C900088721846A16802F01BFBA06010BD00BF4F
:101CA0000000002000ED00E0002370B52B4C82B056
:101CB000C4F88430FFF75EFF0122294BDA63636CBE
:101CC000012BFCD10321264A244B11639C6B012C70
:101CD000FCD10226052521460523224A22480096EA
:101CE000FFF7D2FE21462B46204A21480095FFF7F8
:101CF000CBFE0022042031461E4BFFF757FE214643
:101D0000284600221C4BFFF751FE002208201146F6
:101D10001A4BFFF74BFE002209201146174BFFF725
:101D200045FE002206201146134BFFF73FFE00221E
:101D3000114B07201146FFF739FE0420FFF79EFEE6
:101D400000240F4BA3FB0035AD0CE0B22946013453
:101D5000FFF7E0FE062CF8D102B070BD0000014094
:101D600000300140002F685900000540008C864774
:101D700000800540001BB70080D1F008006CDC0239
:101D800083DE1B4386B003B451FC0804CDE9020195
:101D900051FC0904CDE9040151EC0A04CDE9060126
:101DA00003BCF047BDE800504EEC00C4BDE8005055
:101DB0004EEC01C4BDE800504EEC02C400BD000072
:101DC00000B5FFF7DFFF02E010FE30F4F8D441EC7D
:101DD000100443EC112400EE010410EE010480EE27
:101DE000200451EC1004704700B5FFF7CBFF02E070
:101DF00010FE30F4F8D441EC100443EC112400EE52
:101E0000010410EE210480EE200451EC30047047F0
:101E100000B5FFF7B7FF02E010FE30F4F8D410B5BC
:101E200041EC100443EC112451EC040453EC052460
:101E3000A0FB024C5FF0000EE0FB03CEE1FB02CE04
:101E40004CEC20440024E1FB03E444EC30E480EE5D
:101E5000200451EC5004BDE81040704700B5FFF776
:101E600091FF02E010FE30F4F8D441EC100443EC92
:101E7000112451EC2104A0FB01126FEA820252FBF3
:101E8000100052FB12F252FB1000A0EBD07C53EC7E
:101E900004245CFB13F153EC1524A1FB022001FB8D
:101EA000030053EC4424A2EB000050FB1CF24FEA69
:101EB000111312EB017043EBE27140EA515020EA3A
:101EC000915020F0070053EC7524A0FB023C53EC2A
:101ED000752400FB03CC01FB02CC53EC0424ACEBD7
:101EE000824C40EA5C70A0F1010041EC400480EEBD
:101EF000200451EC7004704700B5FFF743FF02E087
:101F000010FE30F4F8D440EC700400EE010410EE42
:101F1000210480EE200451EC3004704700B5FFF737
:101F200031FF02E010FE30F4F8D440EC600400EE23
:101F3000010410EE210480EE200451EC30047047BF
:101F400000B5FFF71FFF02E010FE30F4F8D441ECBB
:101F5000800400EE010410EE010480EE400410EE57
:101F60001304704700B5FFF70DFF02E010FE30F4D8
:101F7000F8D441EC800400EE010410EE010480EE80
:101F8000400410EE3304704700B5FFF7FBFE02E09B
:101F900010FE30F4F8D441EC100443EC112400EEB0
:101FA000010410EE3004C0F30070704700B5FFF775
:101FB000E9FE02E010FE30F4F8D443EC102441ECCA
:101FC000110400EE010410EE30F48CBF012000205B
:101FD000704700BF00B5FFF7D5FE02E010FE30F4F9
:101FE000F8D441EC100443EC112400EE010410EE8F
:101FF00030F42CBF01200020704700BF00B5FFF770
:10200000C1FE02E010FE30F4F8D441EC100443ECC1
:10201000112400EE010410EE30F48CBF01200020EA
:10202000704700BF9A4238BF88547047704700BF5E
:102030002DE9F04F83B09946DDE90DAB0F9B884643
:1020400011469A07074616D1DA453AD20C460D4694
:10205000ABEB0A060E4422464B4641462020013493
:10206000B847B442F7D12946BAF1000F08D120464B
:1020700003B0BDE8F08F0C46BAF1000F10D00E4649
:1020800055460C9B2E449A440191721B4B46013DD0
:1020900041461AF8010D3446B847002DF5D1019993
:1020A0000F9B9B07E3D5651AAB45E0D922464B460B
:1020B000414620200135B8475D4504F10104F5D3C0
:1020C000D5E7BAF1000FDAD10C46D0E72DE9F04F91
:1020D0000F9FDDF824E017F0020F0A9C9DF82C906A
:1020E0000E9DDDE90C8629D1002D6FD1B44225D299
:1020F000202C07F0010B00F0128104F1FF3C4FF09F
:10210000300AF44401E0202C7AD00134A6420CF8C5
:1021100001AFF8D8BBF1000F10D0AC420ED2202C8A
:1021200074D004F1FF3C4FF0300AF44401E0202C5D
:1021300029D00134AC420CF801AFF8D117F0100FE0
:102140003AD017F4806F28D11CBBB8F1100F00F003
:10215000CA80B8F1020F00F0D48030248EF800401D
:102160000124B9F1000F67D17E0740F1AA802B2628
:102170000EF804600134CDE90B57CDE909E4BDE860
:10218000F04FFFF755BFFC0640F189807C0535D440
:102190002024A6426AD0AC4268D0B8F1100F00F0FB
:1021A0008780B8F1020F5AD0202CE4D026460134A3
:1021B0004FF0300C0EF806C0202CD2D1CDE90B57D1
:1021C000CDE909E4BDE8F04FFFF732BF17F0010B8E
:1021D0003ED0B9F1000F47D117F00C0F44D1B442F3
:1021E0009BD2202C89D1202D10D8FC0657D57C05F8
:1021F00055D4202E00F0B980202D10D02024CCE71B
:10220000BBF1000F00F0A580202DBCD9FC0646D5FF
:102210007C0544D4202E00F0A880202D3FD12C46F0
:102220001F26B8F1100F7FD0B8F1020FC0D14FF0C8
:10223000620C0EF806C0B7E72D260EF804600134D4
:10224000CDE90B57CDE909E4BDE8F04FFFF7F0BE4B
:10225000B442BFF473AF202C7FF44FAFD6E7202CED
:1022600089D026460134E2E7013DB8E7661ED8D1A1
:10227000B8F1100F64D0B8F1020F7FF46EAF622690
:102280008EF80060302644468EF80160B9F1000FE8
:102290003FF46AAFD0E7B8F1100F7FF46CAF2024A1
:1022A000CDE90B57CDE909E4BDE8F04FFFF7C0BE1B
:1022B000BE060ED4202CF2D078260EF8046001342D
:1022C00072E73E077FF557AF20260EF80460013411
:1022D00051E7202CE3D04FF0580C0EEB040686F8A3
:1022E00000C0013460E7BE0617D558248EF80040C0
:1022F00030248EF801400224B9F1000F3FF434AFCE
:102300009AE762248EF8004030248EF801400224BF
:10231000B9F1000F3FF428AF8EE77824F2E7BBF164
:10232000000F7FF462AF71E717F0200F0CBF4FF082
:10233000780C4FF0580CA61E0EF806C0013C35E78D
:10234000BC06EAD558248EF8004030248EF80140AF
:10235000DDE717F0100F3FF40EAF17F4806F9AD13E
:10236000202E7FF418AF1F265BE734461F2658E760
:1023700000B9704701F0E6BA10B1D1E90031184751
:10238000704700BF000000002DE9F04F9FB09DEDA9
:10239000287BDDE92AA558EC177B83461E460D9164
:1023A000109243463A46384641468DED087B2C9CB8
:1023B000FFF7EEFD002840F0D880384641464FF048
:1023C000FF32754BFFF71EFE002840F0CE803846E6
:1023D00041464FF0FF326FF48013FFF7EBFD00280A
:1023E00040F0C380DDE908780022384641460023EA
:1023F000FFF7E0FD002840F0C081CDE90A78DDE973
:102400000A2390461F4614F4806308BF4FF0060A63
:10241000139304F4006258EA0703119240F0C0805D
:10242000002A00F0A2819FED5A7B00278DED0E7BE4
:102430004FF00009BA45CCBFAAEB070A4FF0000ADB
:102440004F46C8BF0AF1FF3A44F480644D4594BF3B
:102450004FF00008A5EB090814F00203119304D013
:10246000B9F1000F18BF4FF000083FB1DDE90A01D4
:10247000DDE90E23FFF7F6FCCDE90A01DDE90801ED
:1024800000220023FFF796FD30B1DDE90A01024684
:1024900001F10043CDE90A239DED0A7BCDE902A8B5
:1024A000DDF834A024F4006304938DED007B334603
:1024B00051465846109A00F097F98046B9F1000F3E
:1024C0004FD014F0200F024600F1010433460CBF38
:1024D000652045205146D84709F1FF3087EAE77C5F
:1024E0000DF1580900224B46DFF8B080ACEBE77CD9
:1024F0004FEAD77E01E0202A10D0E246A8FB0C71FB
:10250000C90801EB8107ACEB47073037BAF1090F77
:102510008C4602F1010203F8017BECD805230590FB
:10252000069300200A230D9FCDE90330CDE9012E4B
:102530003346224639465846CDF80090FFF7C6FD8F
:10254000119B80466BB1109BC41AA54209D9424623
:102550003346394620200134D847A54208F1010806
:10256000F5D840461FB0BDE8F08F9DED087B33469F
:102570005846109A0D998DED287BCDE92B54CDF856
:10258000A8A01FB0BDE8F04F00F02EB9AFF3008057
:102590000000000000000000FFFFEF7FCDCCCCCC9E
:1025A000C7F30A50A0F2FF30FFF7AAFC8AA3D3E9D1
:1025B0000023FFF731FC8AA3D3E90023FFF704FCD3
:1025C000C7F31307CDE90E0147F07F5140460022C3
:1025D0007B4B41F44011FFF70BFC6BA3D3E90023C5
:1025E000FFF71AFC02460B46DDE90E01FFF7ECFB94
:1025F000FFF7AAFC0746FFF783FC65A3D3E9002396
:1026000080468946FFF708FC00226E4BFFF7DCFB93
:10261000FFF79AFC03464946404612935EA3D3E96E
:102620000023FFF7F9FB804612988946FFF768FC04
:102630005BA3D3E90023FFF7EFFB02460B464046BE
:102640004946FFF7D5FB02460B4680468946FFF711
:10265000E3FB42464B46CDE90E0140464946FFF7B3
:10266000B3FB0022CDE91401DDE90E01564BFFF763
:10267000F9FB0022554BFFF7A7FB02460B46DDE9AD
:102680000E01FFF7EFFB0022514BFFF79DFB0246C7
:102690000B46DDE90E01FFF7E5FB42464B4680465F
:1026A000894600204FF08041FFF7A2FB02460B460F
:1026B00040464946FFF788FB02460B46DDE9140118
:1026C000FFF7D0FB0022434BFFF77EFB129B00225B
:1026D00003F2FF3C4FEA0C53FFF79EFB804689460E
:1026E000DDE90A0142464B46CDE90E89FFF762FC5F
:1026F00068BB4346494607F16302C62A119A8CBF5C
:102700004FF005094FF00409002A3FF49FAE0B4338
:102710003FF48EAEDDE90A0123A3D3E90023FFF7DE
:102720005DFC48B1DDE90A0121A3D3E90023FFF7ED
:1027300041FC00287FF47CAEBAF1000F3FF486AE76
:10274000139B002B3FF482AE0AF1FF3A7EE6002293
:102750001E4B40464946FFF785FB0A4601460346A5
:10276000CDE90E12013F1146C5E79FED137B1746D9
:102770004FF004098DED0E7B68E608F100430A97DF
:102780000B933CE6AFF3008061436F63A787D23FB2
:1027900071A379094F930A401655B5BBB16B02403E
:1027A000EF39FAFE422EE63F2D431CEBE2361A3F8C
:1027B0000000000080842E410000000000000000A6
:1027C0000000F83F0000E03F00002C4000002440E3
:1027D000000018400000F03FFB799F501344D33FA6
:1027E000B3C8608B288AC63F2DE9F04F97B0DDE96A
:1027F0002089CDE90401DDE9224BCDE906234046DD
:1028000042464B464946DDF890A0FFF7C1FB002841
:1028100040F0C581404649464FF0FF326FF48013C7
:10282000FFF7C8FB002840F01D81404649464FF0A5
:10283000FF32C14BFFF7E6FB002840F0E380B8A36E
:10284000D3E9002340464946FFF7DCFB002840F06F
:10285000CB80B5A3D3E9002340464946FFF7AAFB46
:10286000002840F0C1804046494600220023FFF77F
:10287000A1FB002840F0E0801AF480650D9000F084
:10288000E980092C40F296810EAB1A460C93302158
:102890000023A4F109050133202B02F8011BA4EB4E
:1028A000030600F03A81AB42F5D19FED9D7B8DEDA3
:1028B000087B49464046FFF747FB0446FFF720FBED
:1028C00002460B4640464946FFF792FADDE90823E7
:1028D000FFF7A2FA02460B46CDE90A23FFF746FBB3
:1028E0000746FFF71FFB02460B46DDE90A01FFF72B
:1028F0007FFA02460B46CDE90A2300228F4BFFF7F1
:1029000081FB002800F0DB8001373846FFF70AFB27
:10291000DDE90823FFF762FB08B100270134002E30
:1029200040F0B1802046FFF7EBFA02460B464046E6
:102930004946FFF75DFA0022804B06460F46FFF737
:1029400039FB40B93046394600227C4BFFF75AFB31
:10295000002800F015810C9B691E7948194410E08D
:1029600080FB0462C3EBA20303EB8302A4EB4204EB
:1029700004F1300201351C4601F8012F002B00F054
:10298000AB80202D4FEAE473EAD10AF00303012B58
:102990001CD1BBF1000F19D00D9B002B40F0F9802A
:1029A0001AF00C0F40F0F580AB4540F2D380202D9B
:1029B0000BD030220C996B1E0B4401355D4503F89A
:1029C000012F00F08D80202DF7D12025DDE9062391
:1029D000DDE904010C9CCDE902BA01950094FFF7F2
:1029E00027FB17B0BDE8F08FCDE92089DDE906238C
:1029F000DDE90401CDE923BA229417B0BDE8F04F18
:102A0000FFF7C2BC4F4DCDF88CA00AF0040ABAF112
:102A1000000F4D4C18BF2C46DDE90623DDE904010B
:102A200020940CBF03240424CDF888B0219417B05F
:102A3000BDE8F04FFFF7FCBA4B46424600200021AC
:102A4000FFF7D6F901231AF48065804689460D9375
:102A50007FF417AF9FED367B0EAB06268DED087B1E
:102A60000C9326E70424DDE90623DDE90401374D54
:102A7000CDF88CA0CDF888B02095219417B0BDE892
:102A8000F04FFFF7D5BA0C9B681EDFF8C4C018449E
:102A90000DE0ACFB0721C90801EB8102A7EB420264
:102AA0003032092F00F8012F27D90F461D46202D5F
:102AB00005F1010306F1FF36EBD120254BE700229B
:102AC000DDE90A011D4BFFF775FA00287FF427AFF7
:102AD000002F5AD1013722E70AF00303012B75D0EA
:102AE000202D3FF473AF0D9BBBB32D2205F158038E
:102AF0006B4403F8202C013568E7202BDDD0AEB302
:102B00000C9A1E441544302201E0B3422ED001330A
:102B1000202B05F8012FF8D1CFE71D46C5E600BFF1
:102B20000000000065CDCD410000000065CDCDC1A5
:102B30000000000080842E41FFFFEF7F0000E03F97
:102B4000676666661047001018470010204700109F
:102B5000CDCCCCCC202D3FF439AF1AF0040F0DD1E1
:102B60001AF0080F3FF432AF2022BFE72E2103F105
:102B700058026A4402F8201C5D1CECE62B22B5E7E3
:102B8000E3077FF5E8AE0134E5E6FA077FF5C7AE67
:102B9000A0E70BF1FF3BAB453FF609AFA0E70324ED
:102BA000DDE90623DDE904010A4DCDF88CA0CDF85E
:102BB00088B061E7084B264603EBC40393ED007B26
:102BC0000EAB8DED087B00250C9372E6BBF1000F78
:102BD00086D0E1E61C470010B04700102DE9F04F09
:102BE0009A469BB0249C964D0B94964C0B1E18BF96
:102BF000834625609AF80000934C0A9308BFA346C9
:102C00000992002800F0BC824FF000090AE04A4611
:102C1000099B0A9909F10109D8479AF80000002890
:102C200000F0CE8025280AF1010AF0D10023524697
:102C300012F8010BA0F1200110290AD8DFE801F0F9
:102C40004009093C09090909090909380934090930
:102C50003000A0F13001092940F28C802A2800F0D0
:102C6000F58000210C912E2800F099800027A0F11A
:102C7000680112292DD8DFE811F057012C0051010D
:102C80002C0045012C002C002C002C002C002C00CA
:102C90002C0027002C002C002C002C002C002700DE
:102CA000924643F00103C2E7924643F00203BEE7B7
:102CB000924643F00403BAE7924643F01003B6E7A6
:102CC000924643F00803B2E79AF8010043F4807398
:102CD00001326728924600F28280242840F2C680A2
:102CE000A0F12502422A00F2C180DFE812F05F0164
:102CF000BF00BF00BF00BF00BF00BF00BF00BF00DC
:102D0000BF00BF00BF00BF00BF00BF00BF00BF00CB
:102D1000BF00BF00BF00BF00BF00BF00BF00BF00BB
:102D2000BF00BF00BF00BF00BF00BF00BF00260143
:102D300045012601BF00BF00BF00BF00BF00BF00AC
:102D4000BF00BF00BF00BF00BF00BF00BF00BF008B
:102D5000BF00BF00D301BF00BF00BF00BF00BF0066
:102D6000BF00BF00BF00BF00D3016701D301260130
:102D700045012601002100E0013201EB810100EB59
:102D8000410110789246A0F13004092CA1F13001E4
:102D9000F2D92E280C9102F101027FF467AF9AF864
:102DA00001001146A0F13006092E43F4806340F281
:102DB00031812A2800F03E8192460027013256E7F1
:102DC0004C46099B994501D303F1FF394A4600203F
:102DD000099B0A99D84720461BB0BDE8F08FA0F1A7
:102DE0006902D2B20F2A41D8012649F24101964028
:102DF0000E4040F001810A2A3FD0072A36D10B9CB1
:102E000054F8042B002A00F0288143F021010DF131
:102E1000480E704603E0202E00F029811A4602F089
:102E20000F052B46092D94BF303337330F2A00F896
:102E3000013B06F101064FEA1213ECD817E100BF7F
:102E4000DD2B0010A80A00202D2000100B9C9AF802
:102E5000010054F8045B9246002DBDBF694243F067
:102E600002030C910C950B940132FCE64A46099B37
:102E70000A9909F10109D847CFE60B9951F8048B5B
:102E800098F800201046002F40F0E18072B16FF0FA
:102E9000010C0CF1010C4646C44401E0664503D028
:102EA00016F8014F002CF9D1A6EB080613F4806C3C
:102EB00002D0BE4228BF3E4613F0020400F08781D4
:102EC000002A00F02B81BCF1000F00F041810B942F
:102ED0000D964A46DDE909540E464F4408E02B465C
:102EE0002146D84718F8010F09F1010910B14A46E7
:102EF0004F45F4D131460B9C0D9E002C40F00E81C5
:102F00000B918AE69AF801006C287FF4DFAE9AF8FC
:102F1000020043F440730AF10302DAE69AF8010072
:102F200043F400730132D4E69AF80100682800F0F7
:102F3000208143F080030132CBE6672800F0E78070
:102F4000472800F00081452800F0FF800B9C049387
:102F50000C9B0734CDE9027324F007031C46DDE91E
:102F60000931F4E802674A465846CDE900670B94F8
:102F7000FFF70AFA814650E646280B9C08BF43F04B
:102F8000200304930C9B0734CDE9027324F007035C
:102F90001C46DDE90931F4E802674A465846CDE9A6
:102FA00000670B94FFF720FC814636E64A46252051
:102FB000099B0A9909F10109D8472EE60B9A9C074B
:102FC00002F1040709F1010640F1E6801078099B3F
:102FD0004A460A99D8470C9B012B40F22C81DDE927
:102FE0000954994432462B46214620200136D847C1
:102FF0004E45F7D10B9710E66F2800F08B8040F21A
:103000006581782800F008814FF00A0823F010034A
:10301000C44647E0002707EB870700EB4700A0F115
:10302000300711F8010FA0F13002092AF3D98A46BE
:103030004A1C1CE60B9C9AF8020054F8047B0AF127
:10304000020A0AF101020B9427EAE7770FE6002A49
:103050003FF42CAF07F1FF3C1BE723F0100113F402
:10306000806241F021013FF4D2AE0DF1480E0823F9
:103070001020059300234A46CDE9023006915846B8
:10308000DDE90931CDE900E60497FFF71FF80B945D
:103090008146C2E5582879D0622840F051824FF02D
:1030A0000208C44613F480606DD123F00C0313F4BE
:1030B000007240F0C2800B9904310D9113F48071BD
:1030C00040F02E825E060B9A40F1AA801278002A08
:1030D00040F0DA8023F01003002800F0D58011467C
:1030E0000DF1480E06930C9BCDF80CC0CDE904738E
:1030F000019100234A4602935846DDE90931CDF893
:1031000000E0FEF7E3FF0D9B81460B9385E543F45A
:1031100000631BE74FF00808C446C3E70C9B4C460E
:10312000B3427FF6EDAE0F464B44A3EB0609DDE953
:10313000096522463346294620200134D8474C45AC
:10314000F7D13946DCE643F4006343F02003FDE6A3
:103150000F460B94DDE909544A462B462146D847D1
:1031600018F8010F09F101090028F5D139460B9C27
:10317000C3E69AF8020043F0C0030AF10302A8E58F
:10318000044681461DE623F00D0390E74FF010083A
:1031900043F02003C44685E70C9B012B45D9DDE9AC
:1031A00009544E4609F1FF38984432462B462146D1
:1031B00020200136D8474645F7D10C9B324699442A
:1031C0000B9B1878DDE90931D8470B9725E50C9B57
:1031D000B34240F2EE81CDE90D48DDE9095488465D
:1031E0004B449E1BCDF82CC04A462B46214620203E
:1031F00009F10109D847B145F6D14146DDF83880DB
:103200000C9BDDF82CC00D9C98F800205E1C10462D
:10321000002A7FF458AE73E64FF01008C44641E729
:103220001D064CBF1288126851E713464A461878AB
:10323000DDE90931D847B146DCE60B9C073424F0C0
:1032400007042246656852F8084B0B9254EA0502BF
:1032500040F02C8123F01003002800F02781002685
:103260000DF1480E06930C9B4A46CDE904730023EA
:10327000CDE900E6CDF80CC002935846DDE90931EE
:10328000FEF724FF8146C8E413F0200F14BF41204D
:1032900061200DF1480E7646A0F10A0803E02029CE
:1032A0003FF420AF2246B2FBFCF40CFB1425E8B23D
:1032B000092D00F130058ABF4044E8B2C0B2624532
:1032C00006F8010B01F10101E9D20BE723F010022E
:1032D00069280D9240F06F8113F4806204D04FF49E
:1032E000806223F011030D930D9B13F4007640D1FF
:1032F0000B9B03F104080D9B13F4807040F0988041
:10330000590640F1C6800B9B19780C46CB0F00295B
:1033100000F0B98022460DF1480E74461646DFF8DB
:10332000A0C201E020280FD03546ACFB0621C90819
:1033300001EB8102A6EB42023032092D0E4600F16C
:10334000010004F8012BEDD80D9ACDE90103069296
:103350000C9ACDE904720A234A4603935846DDE9E4
:103360000931CDF800E0FEF7B1FECDF82C808146A2
:1033700053E40B9C073424F0070421460846636895
:1033800050F8081BDC0F0B9051EA030000F0C380DB
:103390000A46191E48DB13460DF1480EF446002676
:1033A000CDE90E94DFF8188201E0202E2DD05A18B6
:1033B00042F10002A8FB025929F0030505EB99052B
:1033C000521B1C469B1A61F1000508464FF0CC3198
:1033D00001FB03F108FB0511A3FB08531944052366
:1033E00005F00109A9FB03399B180A2C03F13003EE
:1033F0004FEA550570F100000CF8013B06F101069B
:1034000045EAC1734FEA5101CFD2DDE90E940D9B1D
:103410004A4606930C9BCDE90164CDE904730A2367
:10342000CDF800E0039328E7524261EB4101B2E797
:103430000B9B1968CB0F002900F0AB8081EAE17289
:10344000A2EBE1720DF1480E7046DFF874C101E0A5
:10345000202E10D01546ACFB0241C90801EB8104B7
:10346000A2EB440404F13002092D00F8012B06F10F
:1034700001060A46ECD80D9ACDE9016306920C9A32
:10348000CDE9047267E7002A3FF445AF0DF1480E1D
:103490005AE713F0800F0B9B00F08180B3F9001006
:1034A00081EAE174A4EBE174A4B22FE713F0200FDA
:1034B00014BF412261220DF1480E0A3ACDE90D9761
:1034C000CDF844B000267746F3469146CDE90F3C4F
:1034D00003E0202E17D004460D462946424600231D
:1034E000204600F09DFFD2B2092A02F1300388BFC6
:1034F00002EB09034445DBB275F1000507F8013B17
:1035000006F10106E5D2DE46DDE90D97DDE90F3C67
:10351000DDF844B0A6E6002A47D1134611463BE742
:103520000B990968A1B923F0100388B10DF1480E79
:1035300006930C9BCDF80CC0CDE904730192D8E53D
:1035400013F480627FF4CBAE23F010030D93CBE62F
:1035500013F0200F14BF412061200DF1480E764674
:10356000A0F10A0802E0202AE2D02146B1FBFCF4D7
:103570000CFB1415E8B2092D00F130058ABF404458
:10358000E8B2C0B2614506F8010B02F10102EAD2CD
:10359000CEE7002A3FF456AF0DF1480E6BE71968ED
:1035A00081EAE174A4EBE174B0E600260DF1480E67
:1035B0002DE701362BE64FF00A081346C44671E5A5
:1035C000CDCCCCCC0EB410B585B007AC54F8043BD0
:1035D00001464FF0FF32009404480394FFF7FEFACF
:1035E00005B0BDE8104003B0704700BF25200010B3
:1035F00070B594461E4605460C4684B04FF0FF3227
:10360000634602A900960348CDE90254FFF7E6FAA3
:1036100004B070BD7923001010B5094B84B01C684C
:103620004CB1034600914FF0FF3203A90548A04773
:10363000012004B010BD00F0C7F9204604B010BD51
:10364000A80A00207123001000BEFDE708B5FFF7AF
:10365000FBFF00BF38B5064C064DFEF7A9FAAC4299
:1036600004D254F8043B9847AC42FAD338BD00BFAB
:10367000884400109044001003680846114618471B
:10368000437D2DE9F04781460F461646002B43D077
:10369000002A3BDD037D00204D1E014615F8012F59
:1036A000DFF884800A2A01F101040ED0A6421CD062
:1036B0002B782146A3F10D03B3FA83F315F8012FFC
:1036C0005B090A2A01F10104F0D1002BEED18142FD
:1036D000A1EB000138441BDC02214046D9F8003040
:1036E0009847A64208D02046E2E7864204DD311A18
:1036F000D9F8003038449847374417F8013CA3F113
:103700000D03B3FA83F35B0989F81430BDE8F08741
:10371000D9F800309847DFE73846D9F8003011462D
:10372000BDE8F047184700BF004800100B682DE9BE
:10373000F041802B0D46064605D05A1C2B442A60CA
:103740001E71BDE8F0810F4B1C68A4B10E4F01F152
:10375000040801E0246974B12368002BFAD03B68A7
:103760000BB1A342F6D1204641462A68FFF788FFF5
:103770002469002CF0D1002301222B442A601E7101
:10378000BDE8F081A00A0020A40A00202DE9F0473E
:1037900082B00D46924699460746FDF7F3FF4FF07B
:1037A000FF366FF000442F4A821841F10003964221
:1037B00074EB03013CBF324623462B4800F038FE31
:1037C0006B1C804603D1384600F0F8FD0546274BB8
:1037D000274E1C68274BB9F1000F18BF1E46B4B125
:1037E000BAF1000F1AD1DFF8909001E0246974B1AA
:1037F0002368002BFAD0D9F800300BB19C42F5D1E8
:1038000020462A463946B0472469002CF0D1B8F149
:10381000000F1FD1284602B0BDE8F0874FF00A0A1A
:10382000DFF8549002E02469002CF0D02368002BCC
:10383000F9D0D9F800300BB1A342F4D12A46394669
:103840002046B047012220460DF107018DF807A060
:10385000B047E8E7044800F0E7FD284602B0BDE8BD
:10386000F08700BF40420F00E8060020A00A0020B9
:103870007936001081360010A40A00200A4A136825
:103880004BB1834202D109E0984207D003F1100204
:103890001B69002BF8D101B1106070470029FCD1E1
:1038A0000369136001617047A00A002008B500F0A9
:1038B000EBF9012008BD00BF2DE9F04182B00646BA
:1038C000FDF760FF4FF0FF326FF00043361841F113
:1038D0000007B24273EB07013CBF16461F46DFF8F4
:1038E0006080154DD8F8004014B912E0246984B105
:1038F0002B680BB19C42F9D1A368002BF6D00121B3
:1039000001A898470028F1DD9DF8040002B0BDE849
:10391000F0810A4B5A6A974209D89B6AB34204D392
:103920006FF0010002B0BDE8F0819742F8D10120AC
:103930000021FDF731FFD5E7A40A002000000B406D
:10394000A00A0020F0B583B006468DF80700FDF709
:1039500019FF4FF0FF356FF00044174A821841F10C
:103960000003954274EB03013CBF23462A461348EB
:1039700000F05EFD124B07461C689CB1114D01E042
:1039800024697CB12368002BFAD02B680BB19C42D0
:10399000F6D1204601220DF10701FFF771FE2469DF
:1039A000002CEFD117B9304603B0F0BD034800F04A
:1039B0003BFD304603B0F0BD40420F00E80600205A
:1039C000A00A0020A40A002038B5044600F0F6FC46
:1039D000012305461A4620462946FFF7D7FE084B25
:1039E0001C682CB163682BB198472469002CF9D16D
:1039F000284638BD2469002CF4D1284638BD00BFC4
:103A0000A00A00202DE9F041A2B004460D46FDF7C2
:103A1000B9FE4FF0FF376FF00046274A821841F198
:103A20000003974276EB03013CBF3A4633462348F6
:103A300000F0FEFC00262B4607462246204801A93E
:103A40000196FFF7D5FD019B06467BB91D4B1C680F
:103A50002CB1636843B198472469002CF9D10FBB9E
:103A6000304622B0BDE8F0812469F1E7DFF85480E8
:103A7000D8F80050EDB1144C01E02D6975B12B68F8
:103A8000002BFAD023680BB1AB42F6D12846019A3D
:103A900002A9FFF7F5FD2D69002DF0D1D8F80040FF
:103AA0000195D5E7054800F0BFFC304622B0BDE8DF
:103AB000F0810195D3E700BF40420F00E8060020E7
:103AC0002D370010A00A0020A40A00200FB400B572
:103AD00083B004A951F8040B0191FFF793FF03B0E1
:103AE0005DF804EB04B07047B1F1000C1DDD0F4A26
:103AF0000F4B126830B5D31AB3FA83F30D240D4D72
:103B00005B09411E35F913E08C4411F8010F86451D
:103B100006D093699B06FCD461451060F5D130BD99
:103B200093699D06FCD41460F3E77047880B00206E
:103B300000800740840B0020224BB1F1000C10B430
:103B40001C682EDD034600201F4A591E1268936927
:103B5000DB0617D401309369DB06FCD41368844577
:103B600001F8013FF3D14CB150211346916353F852
:103B7000342F02F0380203F580531A6060465DF876
:103B8000044B70474CB150211346916353F8342FC6
:103B900002F0380203F580531A6078B15DF8044BE7
:103BA00070475CB1084B50211A681346916353F873
:103BB000342F02F0380203F580531A606FF00200D0
:103BC000ECE700BF300A0020880B0020054B1B6883
:103BD00033B10021044A0548126800689163184710
:103BE000704700BF300A0020880B0020340A0020F4
:103BF000024B1A6893691B07FCD47047880B00209E
:103C0000F8B51C4F1C4D3A681C4EAA4214BF212522
:103C100022250446D6F800C018B1BCF1000F10D020
:103C2000F8BDBCF1000FFBD0014690632846FDF7BC
:103C30000FF828461249FDF751F8124B34601C600A
:103C4000F8BD0B460F4A0E49306028461360FDF759
:103C500015F801212846FCF7FBFF3A68502113466E
:103C6000916353F8342F02F0380203F580531A6041
:103C7000F8BD00BF880B002000800740300A0020FC
:103C8000CD3B0010340A002010B50E490E4C0F48F1
:103C90000F4A104B007821600020022112781B7817
:103CA000FCF7FCFE02210120FCF7F8FE4FF4E131A5
:103CB0002068FDF7F9FDBDE8104001210648FFF737
:103CC000DDBD00BF00000740880B002068480010E1
:103CD0006448001060480010C80600202DE9F84F25
:103CE0004FF0010CDDE90B46002791460268B3F165
:103CF0000008D766054651609DF828B0C2F86CC030
:103D000021DD08F1FF3A14B101213046A0472B68AC
:103D10005A6F102AFCD0002F33D00022BA4504BFBE
:103D20008BF0010142EA412242F480721A618CB1A7
:103D3000D3F88020596B11F0400113D00021304698
:103D40005B6DA047C743384685F804B0BDE8F88FDF
:103D50009A6F7AB9D3F880205A6B5206F8D50020B2
:103D60005B6DEFE73046A0470028EBD12B689A6FD8
:103D7000002ADDD01B690137B84509F8013BC2D1E3
:103D8000E1E72A799202C9E7F8B5064605200C4614
:103D9000FDF774FE00EB540CBCFBF4FC214B0CEB68
:103DA0004C02A3FB025320499F088C42ACEB9305C5
:103DB00030D801F1D64101F5A10101F62C0100EB4B
:103DC0004003A1FB03139B0D013300244F2A98BF2E
:103DD00001223168B0FBFCF0CC660C6801F580561E
:103DE00084F0040404F00604346088BF0D4CCD61F7
:103DF00084BFA4FB024292090F62C1F8A0200A46C8
:103E0000012452F87C5F6B409BB202F58052136034
:103E1000CC66F8BD054900EB4003A1FB0313DB0DA5
:103E20000133D2E7CDCCCCCC3F420F00893BE655E5
:103E30000E4A30B4904214BF202210220C4D0D4B7C
:103E40000D4C2A601A60A36832EA0303FBD140F2EA
:103E50006515032402680371D3661560D363936309
:103E6000C2F8884030BCFFF78FBF00BFE0060020DB
:103E70000020024000300240000002402DE9F043E3
:103E800089B00DF11008044616461F46DDE91223DD
:103E900040460D469DF84090FDF752FC3B46CDE96B
:103EA0000108324629462046CDF80090FFF716FF5C
:103EB00009B0BDE8F08300BF2DE9F84F374B074646
:103EC000984214BF4FF400234FF480230E46344D24
:103ED000344C354A2B602360946833EA0404FBD1E8
:103EE0000620FDF7CBFD3946022351F8042F4FEA97
:103EF000462E4FEAD65B704502EA030801F54059A9
:103F000074EB0B02C9F8003011D34FEA965CB20291
:103F100001E05246AC460233B3F5807F07D01EEB7A
:103F2000020A4BEB0C05904274EB0C0CF1D24FF4EF
:103F30008072C3EB03249446013A2DD0B0FBF4F514
:103F4000AE42A4EB0304F6D20CFB03FC12020224E3
:103F50003B613B4603253E6801F500517240B0FBD2
:103F6000FCF002F47F4207F5805CCCF80020C1F839
:103F700000807E68C9F8004053F8242B264082F068
:103F8000070202F0CF0203F50053CCF800200E60C8
:103F90001D600C60BDE8F88F9C46D8E70000084023
:103FA000002002400030024000000240024B5878DE
:103FB000003818BF01207047D8090020024B18783C
:103FC000C0F38000704700BFD809002010B5044638
:103FD000FFF7ECFF08B9002010BDFFF7EFFF002846
:103FE000F9D14FF4A472034B02FB0433187900F0AB
:103FF000010010BDF006002000B545F247308BB03F
:10400000FDF794FD01220346092101A89847DDE947
:104010000332044912BA1BBAC1E900230BB05DF8A0
:1040200004FB00BF780B002070B5860747D0541EF4
:10403000002A3ED0CAB2034601E0013C39D303F85E
:10404000012B9D07F9D1032C2CD9CDB20F2C05EBF8
:10405000052505EB054535D9A4F1100C03F1100E2B
:104060001A462CF00F064FEA1C1CB644C2E9005554
:10407000C2E9025510327245F8D10CF1010214F078
:104080000C0F04F00F0C03EB021213D0ACF104037D
:1040900023F003030433134442F8045B9342FBD13F
:1040A0000CF003042CB1C9B21C4403F8011BA34259
:1040B000FBD170BD64461346002CF4D1F9E70346EA
:1040C0001446C0E71A46A446E0E700BF41EA0002F2
:1040D0000346920715D10A68A2F1013020EA0200D6
:1040E00010F0803F0DD101F1040C614643F8042B20
:1040F0005CF8042BA2F1013020EA020010F0803FAE
:10410000F3D011F8012B184603F8012B002AF8D13F
:10411000704700BF80EA010C1CF0030F37D110F08C
:10412000030C20F0030021F0030150F8042B08BF1A
:1041300051F8043B0ED08CF0030C6FF07F434FEA34
:10414000CC0C23FA0CFC51F8043B42EA0C0243EA83
:104150000C0300BFA2F1013C9A4201BF2CEA020C01
:104160001CF0803F50F8042B51F8043BF2D04FEA8A
:1041700002604FEA1222012828BFB0EB036F08BF8C
:104180001B0AF4D003F0FF03000EC01A704710F0B2
:10419000030F0AD010F8012B11F8013B012A28BFA8
:1041A0009A42F4D0A2EB030070474DF8045D50F83A
:1041B000042B01F0030521F0030151F8043B022D0B
:1041C00026D04DD822F07F45B5EB132FA2F1013C4C
:1041D0002CEA020C0DD11CF0803C08BF51F8043BC6
:1041E0000AD185EA0205B5EB036F0CD150F8042B18
:1041F000E8E74FEA13235BE03CF07F4C54D10B78A7
:104200004FEA126554E04FEA126503F0FF034FE0F6
:104210004FEA0245A2F1013C4FEA15452CEA020C97
:10422000B5EB134F18D11CF0803C08BF51F8043B8C
:1042300007D185EA0205B5EB034F09D150F8042BED
:10424000E6E75FEA0C4C2FD10B884FEA12452FE0CE
:104250004FEA03434FEA12454FEA134328E000BFF9
:1042600002F0FF05B5EB136FA2F1013C2CEA020C42
:104270000DD11CF0803C08BF51F8043B0AD185EAFF
:104280000205B5EB032F0AD150F8042BE8E74FEAFB
:1042900013630DE012F0FF0F06D051F8043B4FEA14
:1042A000122523F07F4303E04FF0000020BC70474D
:1042B00005F0FF0203F0FF00012828BF904204BF71
:1042C0002D0A1B0AF4D0A2EB000020BC704700BFEF
:1042D000844641EA000313F0030349D1403A23D353
:1042E0000B6803604B6843608B688360CB68C36076
:1042F0000B6903614B6943618B698361CB69C3615E
:104300000B6A03624B6A43628B6A8362CB6AC36245
:104310000B6B03634B6B43638B6B8363CB6BC3632D
:1043200040304031403ADBD230320BD30B6803606F
:104330004B6843608B688360CB68C360103010317A
:10434000103AF3D20C3205D351F8043B40F8043B49
:10435000043AF9D2043208D0D2071CBF11F8013B4D
:1043600000F8013B01D30B8803806046704700BF13
:10437000082A13D38B07B1D010F00303AED0C3F1DA
:104380000403D21ADB071CBF11F8013B00F8013B04
:10439000A4D331F8023B20F8023B9FE7043AD9D37B
:1043A000013A11F8013B00F8013BF9D20B78037098
:1043B0004B7843708B7883706046704720F0030120
:1043C00010F00300C0F1000051F8043B00F1040CB0
:1043D0004FEACC0C6FF000021CBF22FA0CF2134320
:1043E0004FF0010C4CEA0C2C4CEA0C4CA3EB0C02E9
:1043F00022EA030212EACC1204BF51F8043B043053
:10440000F4D0C2F1000102EA0102B2FA82F2C2F172
:104410001F0200EBD2007047F8B500BF000000009B
:104420005FF800F0210300205FF800F0ED010020AC
:104430005FF800F0810100205FF800F0B902002071
:104440005FF800F0290200205D1C0010D11B001055
:10445000051C0010A91C00103D1C0010591B001069
:10446000851C0010451B0010A10F0010891C0010B6
:1044700009130010A11B0010711C0010211C00105A
:10448000E90B0010110C001019020010F93F001088
:104490002E000000400000000A0000002020000064
:1044A0005553425F636F6E6E6563746564206F720F
:1044B0002074696D6564206F757400004932432073
:1044C000427573205363616E00000000202020308D
:1044D0002020312020322020332034203520362067
:1044E00037203820392041204220432044204520D5
:1044F00046000000253032782000000044697370C7
:104500006C61790A00000000524144494F5F5458E1
:104510000A000000524144494F5F52580A0000000F
:104520002564200025730000554152540A00000004
:1045300055415254320A00004D505054310A000087
:104540004D505054320A0000506F7765720A0000D7
:104550004255524E5F57495245206F66660A000029
:104560005744540A000000004255524E5F4F4E001F
:104570004255524E5F5749524520776173207475FA
:10458000726E6564206F6E0A00000000524553543D
:104590004152545F484953544F4752414D0A00001D
:1045A000434F4D4D414E4453206C61737420636FF3
:1045B0006D6D616E643A25733B20726573706F6E2A
:1045C00073653A25730A000052464D3958204368F6
:1045D0006970204944207265616420737563636566
:1045E00073730A0052464D39582043686970204958
:1045F000442072656164206661696C65640A00002C
:1046000052464D39582076657273696F6E20636823
:1046100065636B20737563636573730A0000000044
:1046200052464D39582076657273696F6E20307826
:10463000313120636865636B206661696C65642C49
:104640002072657475726E656420253032780A00B8
:1046500052464D393620696E69743A204750494FA9
:10466000206172652053434B3D25642C20434F50FD
:10467000493D25642C204349504F3D25642C20435F
:10468000533D256420616E642052455345543D25B9
:10469000640A00000A2A2A2A2050414E4943202A4F
:1046A0002A2A0A00486172647761726520616C6130
:1046B000726D20256420616C726561647920636C81
:1046C00061696D6564000000486172642061737304
:1046D0006572740052656C6561736500626F6F741A
:1046E000325F77323571303830000000322E312E93
:1046F000300000007069636F32000000626C696E08
:104700006B0000004D6172203234203230323500AF
:10471000666E692B00000000666E69006E616E00B7
:10472000666E692D00000000554152542073746478
:10473000696E000055415254207374646F757400A3
:104740005541525420737464696E202F2073746431
:104750006F7574004C45440006005250D3F075420A
:10476000D446001006005250E182887FDC460010DB
:1047700006005250ABB36053EC4600100600525096
:10478000BBFF3CB6F446001006005250861C0302E4
:10479000FC460010060052505422A29D044700100F
:1047A00005005250DE65F468604E00100000000005
:1047B000000000000000F03F000000000000244066
:1047C00000000000000059400000000000408F4041
:1047D000000000000088C34000000000006AF840AC
:1047E0000000000080842E4100000000D0126341D0
:1047F0000000000084D797410000000065CDCD4146
:104800000D0A00000600525053B4F4A140470010B6
:104810000800525012000000080052509210000090
:104820000900525000000002544700100800525086
:044830001210020060
:08483400E0F8FF7F0100000025
:10483C005847001064470010704700107C47001068
:10484C008847001094470010A04700102C48001017
:10485C0020480010184800101048001004480010A0
:10486C004FF050412DE9F0410027044616461D46F5
:10487C00D1F8008009E02368C3E88F7F8CF310889F
:10488C003046294600F090FAF0B92168EFF3108C0D
:10489C0072B6D1E8CF2F0123002AFAD1C1E8423FEA
:1048AC00002AF6D1BFF35F8F94F904E0BEF1000F3C
:1048BC00E1DA0023226884F80480C2E88F3F8CF38D
:1048CC0010880120BDE8F0810020BDE8F08100BF18
:1048DC0030B501460468EFF3108C72B6D4E8CFEF14
:1048EC000125BEF1000FF9D1C4E84E5FBEF1000FF7
:1048FC00F4D1BFF35F8F90F90440002C11DB002141
:10490C000568C5E88F1F8CF310884FF0504C9CF94C
:10491C0000C0A44501D1084630BDBDE83040FFF7CA
:10492C009FBF4FF05040006800230A680871C2E82E
:10493C008F3F8CF31088012030BD00BF0368EFF36C
:10494C00108272B6D3E8CFCF0121BCF1000FF9D1A0
:10495C00C3E84C1FBCF1000FF4D1BFF35F8F4FF0D5
:10496C00FF0C0023016880F804C0C1E88F3F82F37C
:10497C00108840BF704700BF844610466AB30139A7
:10498C0000B501EB020EDCF80C309B07FBD511F8DF
:10499C00013F8E45CCF80830F5D1DCF80C305907C6
:1049AC0005D5DCF80830DCF80C305907F9D4DCF804
:1049BC000C30DA0606D5DCF80C30DA06F7D401E058
:1049CC00DCF80830DCF80C305B07F9D40123CCF8A8
:1049DC0020305DF804FBDCF80830DCF80C305907AB
:1049EC00F9D4DCF80C30DA0606D5DCF80C30DA0633
:1049FC00F7D401E0DCF80830DCF80C305B07F9D4B4
:104A0C000123CCF820307047F0B51D4684461C4677
:104A1C0075B95CB1DCF80C209507FBD514F1080FC7
:104A2C00F8D0013CCCF80810002CF3D11846F0BD9E
:104A3C00964664B9DCF80C607607FAD5DCF80860A9
:104A4C00013D01328EF80060002DE2D0F0E7DCF879
:104A5C000C6004F10807B007ECD5AF42EAD9CCF8EA
:104A6C000810DCF80C00013C4007E7D4E1E700BF7C
:104A7C0053B94AB9002908BF00281CBF4FF0FF31B9
:104A8C004FF0FF3000F08CB9ADF1080C6DE904CE9D
:104A9C0000F006F8DDF804E0DDE9022304B070470D
:104AAC002DE9F04F099D0E4604460F46002B47D1C9
:104ABC008A429446B2FA82F35AD943B102FA03FC01
:104ACC00C3F120029F409C4020FA02F217434FEAA8
:104ADC001C461FFA8CFE220CB7FBF6F106FB117775
:104AEC0001FB0EF042EA0742904208D91CEB02028D
:104AFC0001F1FF3702D2904200F23C813946121A82
:104B0C00A4B2B2FBF6F006FB102200FB0EFE44EA48
:104B1C000244A64508D91CEB040400F1FF3202D272
:104B2C00A64500F22A81104640EA0140A4EB0E048F
:104B3C0000211DB1DC400023C5E90043BDE8F08F26
:104B4C008B4205D90DB1C5E9000100210846F5E7F6
:104B5C00B3FA83F100294FD1B342C0F002818242F3
:104B6C0040F2FF800846002DE8D0C5E90047E5E794
:104B7C00002B40F0AF808A1A4FEA1C4E1FFA8CF7BC
:104B8C000121B2FBFEF60EFB1620220C42EA00427B
:104B9C0007FB06F090420FD91CEB020206F1FF381E
:104BAC002CBF4FF001094FF00009904203D9B9F125
:104BBC00000F00F0DC804646121AA4B2B2FBFEF0E5
:104BCC000EFB102200FB07F744EA0244A7420FD960
:104BDC001CEB040400F1FF322CBF4FF0010E4FF020
:104BEC00000EA74203D9BEF1000F00F0C980104699
:104BFC00E41B40EA06409CE7C1F120048B4006FA16
:104C0C0001FC00FA01FE22FA04F7E6408A401F4339
:104C1C0020FA04F34FEA174843EA0C031FFA87FC07
:104C2C004FEA1349B6FBF8F008FB106649EA064652
:104C3C0000FB0CF9B1450ED9BE1900F1FF3A2CBF9F
:104C4C004FF0010B4FF0000BB14503D9BBF1000F36
:104C5C0000F0A2805046A6EB09061FFA83F9B6FBBA
:104C6C00F8F308FB136603FB0CFC49EA0646B44553
:104C7C000ED9BE1903F1FF382CBF4FF001094FF0CC
:104C8C000009B44503D9B9F1000F00F08280434606
:104C9C0043EA0040A6EB0C06A0FB028C664543469B
:104CAC00E14602D307D1C64505D2B8EB02036CEB43
:104CBC00070C0138E1465DB1BEEB030266EB090659
:104CCC0006FA04F422FA01F3CE401C43C5E900466F
:104CDC00002133E702FA03FCC3F1200299409C4007
:104CEC00D6404FEA1C4E20FA02F21FFA8CF7B6FBA4
:104CFC00FEF00A430EFB1066110C41EA064100FB64
:104D0C0007F68E420ED91CEB010100F1FF382CBFC7
:104D1C004FF001094FF000098E4202D9B9F1000F92
:104D2C0034D04046891B92B2B1FBFEF60EFB161135
:104D3C0042EA014206FB07F191420ED91CEB02023A
:104D4C0006F1FF382CBF4FF001094FF000099142DA
:104D5C0002D9B9F1000F16D04646521A46EA004164
:104D6C000FE7841A66EB030201201746FBE6023EAE
:104D7C00624421E702396244C1E664440238D3E656
:104D8C006444023834E7023E6244E6E70238614488
:104D9C00C8E7023B3E447BE702383E445BE700BF7A
:104DAC00704700BF000000005FF800F069160010AB
:104DBC000C0F0E0D0B100000000000000000010095
:104DCC0000000000000000000000020000000000D5
:104DDC0000000000000003000000000000000000C4
:104DEC000000FF000000000001B5486801318E464C
:104DFC000047704609380149884701BDD90E00109B
:104E0C000000000000000000000000000000000096
:104E1C000000000038080020E93A0010F13B0010B7
:104E2C00393B0010013C00100000000000010000A4
:104E3C00000009400000000000000000000000001D
:104E4C00D3DEFFFFFE010000FF010000ECB2FFFF0C
:044E5C00793512ABE7
:040000051000014D99
:00000001FF
