:020000041000EA
:1000000000B5324B212058609868022188439860DF
:10001000D860186158612E4B002199600221596106
:100020000121F02299502B49196001219960352056
:1000300000F044F80222904214D00621196600F024
:1000400034F8196E01211966002018661A6600F04E
:100050002CF8196E196E196E052000F02FF8012189
:100060000842F9D1002199601B49196000215960AB
:100070001A491B48016001219960EB211966A021F2
:10008000196600F012F800219960164914480160C1
:100090000121996001BC002800D000471248134993
:1000A000086003C880F30888084703B5996A0420EC
:1000B0000142FBD001200142F8D103BD02B5186610
:1000C0001866FFF7F2FF186E186E02BD00000240BE
:1000D000000000180000070000035F00212200005C
:1000E000F4000018222000A00001001008ED00E03C
:1000F00000000000000000000000000074B24E7A12
:1001000000200420F7010010C3010010C5010010F9
:10011000C1010010C1010010C1010010C101001097
:10012000C1010010C1010010C1010010C701001081
:10013000C1010010C1010010C9010010CB01001065
:10014000CD010010CD010010CD010010CD01001037
:10015000CD010010CD010010CD010010CD01001027
:10016000CD010010CD010010CD010010CD01001017
:10017000CD010010CD010010CD010010CD01001007
:10018000CD010010CD010010CD010010CD010010F7
:10019000CD010010CD010010CD010010CD010010E7
:1001A000CD010010CD010010CD010010CD010010D7
:1001B000CD010010CD010010CD010010CD010010C7
:1001C00000BE00BE00BE00BE00BE00BEEFF3058054
:1001D000103800BEF2EB8871344F0110644F0110EB
:1001E0003802001090A31AE71E481F49086006C88D
:1001F00081F3088810471D480068002801D019487D
:10020000F3E70DA40ECC002902D000F012F8F9E7B4
:100210001749184A002000E001C19142FCD116495B
:100220008847164988471649884700BEFDE701C937
:1002300001C29A42FBD37047644F0110C0000020F6
:10024000180B0020BC5901100000042000000420FD
:10025000BC59011000100420001004200000000010
:10026000704700000000000008ED00E0000000D032
:10027000180B0020C8130020656300101103001044
:1002800025630010F8B5C04606480749091A8B10C7
:10029000C90FC91810B5491003D0044B002B00D06A
:1002A000984710BD180B0020180B0020000000001C
:1002B000054B10B5002B03D00449054800E000BFF2
:1002C000FFF7E2FF10BDC04600000000441300200D
:1002D000ECD2001010B50C490C4806F0C3FC032109
:1002E000042002F089F90321052002F085F900229B
:1002F0000121042002F09AF905200022012102F0D8
:1003000095F9002010BDC046A086010038040020E9
:10031000F0B5DE4657464E464546E0B5D94C50222C
:10032000A544FFAB4C3300211800339304F0B4FB19
:10033000002319203C9302F08DF9D02380221B0664
:1003400092045A62FFF7C6FF002801D000F021FC9A
:1003500002F0CCF8652402F0ADF806F077F905E07C
:10036000013C002C07D0642002F040FF002006F082
:1003700073FD0028F4D0C44806F006FA02F0EEFF40
:100380003C220A900B9140A8002104F085FB02F06A
:10039000E5FF3C22069007914FA8002104F07CFB6A
:1003A00002F0DCFF3C221C901D915EA8002104F0AD
:1003B00073FB02F0D3FF3C220C900D916DA800213D
:1003C00004F06AFB02F0CAFF3C221A901B917CA841
:1003D00000218BAD04F060FB02F0C0FF3C22002145
:1003E000280004F059FB02F0B9FF3C220E900F9157
:1003F0009AA8002104F050FB02F0B0FF3C221090BC
:100400001191A9A8002104F047FB02F0A7FF3C22AC
:1004100012901391B8A8002104F03EFB02F09EFF59
:100420003C2214901591C7A8002104F035FB02F07E
:1004300095FF3C2216901791D6A8002104F02CFBC2
:1004400002F08CFF3C2220902191E5A8002104F0CD
:1004500023FB02F083FF3C2218901991F4A800219D
:1004600004F01AFB02F07AFF0890FFA809913C22E1
:100470000021103004F010FB00232393834B844FA2
:100480003593844B3693844B0493844B1E93FFAB7C
:100490009C339A46824B0593824B3B93824B9B46FF
:1004A000824B1F93824B2E93824B2593824B229338
:1004B000824B3293824B2793824B3993824B2A9300
:1004C000824B2B93824B2C93824B2D93824B2F93F9
:1004D000824B3093824B3193824B2693824B2493F1
:1004E000824B2893824B3A93824B3893824B2993C9
:1004F000824B379302F032FF0A9B0B9CC01AA1413A
:10050000002900DDCAE100D1C4E102F027FF069B0B
:10051000079CC01AA141002900DDB1E100D1ABE187
:1005200002F01CFF1C9B1D9CC01AA141002900DD8C
:10053000CAE100D1C4E102F011FF0C9B0D9CC01A6E
:10054000A141002900DD61E100D15BE12B00259A8A
:1005500003CA03C312881A80239B002B00D047E2F2
:1005600002F0FCFE1A9B1B9CC01AA141002900DD71
:10057000D2E200D1CCE202F0F1FE0E9B0F9CC01A39
:10058000A141002900DD2FE100D129E102F0E6FEC2
:10059000109B119CC01AA141002900DD0CE100D183
:1005A00006E102F0DBFE129B139CC01AA141002958
:1005B00000DDEAE000D1E4E002F0D0FE149B159CDF
:1005C000C01AA141002900DDB7E000D1B1E002F07E
:1005D000C5FE169B179CC01AA141002900DD95E0BD
:1005E00000D18FE002F0BAFE209B219CC01AA141ED
:1005F000002900DDB8E000D1B2E002F0AFFE189BA8
:10060000199CC01AA14100292DDC29D002F0A6FEB8
:10061000089B099CC01AA141002905DC00D069E7AC
:10062000374B984200D865E702F098FE089000200A
:10063000099106F011F8269B1B68002B00DC3BE1BA
:10064000821C00D17AE226995A1C0A60249AD0545E
:10065000FFA8289B249A2999103005F0B3FD49E79B
:10066000274B9842D2D902F079FE1991BD21319AD7
:10067000189013688900F493137938AA52181370EC
:10068000C4E7C04664FAFFFFFCD2001018D3001084
:1006900080D3001028D300105CD30010F8D20010D3
:1006A00038040020F4D20010F0D20010C0D30010A3
:1006B00064D3001070D300107CD3001084D30010DA
:1006C00090D30010A4D30010BCD30010C4D30010EA
:1006D000CCD30010D4D30010DCD30010E4D300102E
:1006E000F4D300105C130020C4120020701300200B
:1006F00004D4001020D4001034D40010880300204B
:100700003F420F00B24B984200D86BE702F026FE42
:1007100016909F202F9A1791136838A9D693938823
:10072000800009180B80AB49937938AA52181370CE
:1007300058E7A74B984200D849E702F00FFE149003
:1007400090202D9A1591136838A9C793938880003B
:1007500009180B80A049937938AA5218137036E70C
:100760009B4B984200D848E7D02340221B069A6151
:10077000309AE5AB13CA13C31188198092789A7026
:100780003BE7934B984200D816E702F0E7FD129042
:1007900081202C9A1391136838A9B893938880000C
:1007A00009180B808D49937938AA5218137003E702
:1007B000874B984200D8F4E602F0D0FD1090E42078
:1007C0002B9A1191136838A9A993938840000918AE
:1007D0000B80E5219379490038AA52181370E0E69E
:1007E0007B4B984200D8D1E602F0B8FD0F91C621AC
:1007F0002A9A0E90136849009A93938838AA52183F
:100800001380C3E6724B984200D89FE602F0A6FD23
:100810002E9A0D910C906DAB03CA03C31278E5A814
:100820001A7006F039F8FFA8103006F035F86DA8F8
:1008300006F032F85EA806F02FF84FA806F02CF864
:1008400040A806F029F8B8A806F026F8C7A806F0D0
:1008500023F8D6A806F020F8280006F01DF87CA89A
:1008600006F01AF89AA806F017F8A9A806F014F8E6
:10087000F4A806F011F869E6594B984200D84FE603
:1008800002F06CFDD02380221B0692040690079193
:100890009A6145E6534B984200D836E602F05EFD79
:1008A000D02380221B0692040A900B915A6102F019
:1008B00055FD0690079128E6821C00D0C3E6C7E6E6
:1008C000434B984200D836E602F048FD1C9035981C
:1008D0001D9105F059FF369805F056FF0021049848
:1008E00005F0DAFF2E2005F003FF1E9805F0D4FF77
:1008F00001239846773399461F9B34970126474634
:10090000012498462BE0782B2ED002F027FD0023FF
:10091000354A12184B41802109068B4202D301222D
:10092000324B52420292039300235246009331000D
:100930000598013306F0BEF9002815DB3B9805F059
:10094000ABFF0F2F15D14046013405F0A5FF802CD9
:1009500015D00F231F00E6B22740234211D04B468B
:100960004A4633403242CED1584605F095FF0F2F0C
:10097000E9D01E98013405F08FFF802CE9D1349F17
:10098000D9E52100049805F087FF02F0E7FC002379
:10099000154A8018594180231B06994202D3012031
:1009A00012494042002302900391009352463100C5
:1009B0000598013306F07EF9002804DB402005F09D
:1009C00097FE1E98D6E72E2005F092FE1E98D1E7DE
:1009D0003F420F007E0200004202000006020000BB
:1009E0001FA10700BFCF6A0010270000FFFFFF7F95
:1009F00001F044FD00239846339BFFAE99469C3698
:100A000001F020FA00282CD0504601F05DFB53463F
:100A1000424622991A5450463CAA07F0D9F84A4651
:100A200049463C9BB2469B00D2580132CA50FFABAC
:100A30004C3399461C00390004CC3DA805F0C2FB9C
:100A4000280007F0C5F93DA9281807F02BF9A642A0
:100A5000F1D102221F9904F025F801F0F3F90028E2
:100A6000D2D14B46339302F079FC1A9B1B9CC01ADF
:100A7000A141002900DC90E002F070FC329A1A904B
:100A80001B917CAB03CA03C312881A801426B94693
:100A9000229F70B200F00EFA320039007CA805F0F7
:100AA00091FB7CA807F094F9C1B27CA801F0D0F9C1
:100AB000032000F081F801F0C5FC052002F096FB50
:100AC0000B2402E00A2002F091FB01F0B5F90028A6
:100AD00002D0013C002CF5D101F0AEF9002813D171
:100AE000013E002ED5D1052000F066F801F0C6FCCD
:100AF000399A7CAB13CA13C303CA03C311884F4688
:100B0000198092789A7036E5279805F03DFEE7E760
:100B1000264B984200D82EE502F020FC329A1A901B
:100B20001B917CAB03CA03C312881A80379800F06C
:100B3000C5FA2390002800D11DE5A7E700222499DB
:100B4000CA54269B1A601A4B0A689A420CD03899EC
:100B5000249807F0F9F8002800D079E55022002108
:100B6000339803F099FF73E5124B4A689A42EED12D
:100B7000289B3A9A13CA13C313CA13C312781A7064
:100B8000D02340221B065A6102F0E8FB20902191FD
:100B9000DDE702F0A5FEFFF7DBFB002900D0EAE469
:100BA000024B984200D967E7E5E4C0463F420F0098
:100BB0004255524E5F4F4E00F0B5C64600B582B06A
:100BC0006B46D0259C1D802600232D06B601237080
:100BD00080460021052002F0CBFB05200021AE61FC
:100BE00002F0C6FB6A460123D3716B461F4FD91D25
:100BF000012238680CF048FB2200012300213868EC
:100C00000CF022FB0520002102F0B2FB05200021A0
:100C10006E6102F0ADFB0723207800219843434624
:100C200018432070052002F0A3FB05200021AE61CF
:100C300002F09EFB6A468123D3716B460122D91DC7
:100C400038680CF021FB0122210038680CF01CFBF5
:100C50000520002102F08CFB052000216E6102F0CE
:100C600087FB02B080BCB846F0BDC04694030020AC
:100C7000F0B5CE46474680B5050000248749884A2E
:100C800083B006E00134E4B2A3009958002900D1F2
:100C9000B4E08D42F6D8834805F0FEFD2301984666
:100CA0006B469E1D002305200021337002F060FB7F
:100CB000D024802324069B0105200021A3619946AE
:100CC00002F056FB1D236A46D3716B46764FD91D41
:100CD000012238680CF0D8FA32000123002138686C
:100CE0000CF0B2FA0520002102F042FB4B46052031
:100CF0000021636102F03CFBF0223378052093432E
:100D0000424613430021337002F032FB4B4605206C
:100D10000021A36102F02CFB9D236A46D3716B4630
:100D20000122D91D38680CF0AFFA01223100386871
:100D30000CF0AAFA0520002102F01AFB4B46052010
:100D40006361002102F014FB584B9D4259D8534B6C
:100D50009D4200D1A0E0564B9D4200D89AE040232E
:100D600005200021337002F003FB4B460520A361F0
:100D7000002102F0FDFAAF236A46D3716B460122CF
:100D8000D91D38680CF080FA0122310038680CF067
:100D90007BFA0520002102F0EBFA4B460520636147
:100DA000002102F0E5FAD0240023802533700520CD
:100DB00000212406AD0102F0DBFA05200021A56127
:100DC00002F0D6FAB0236A46D3716B460122D91DD0
:100DD00038680CF059FA0122310038680CF054FAE6
:100DE0000520002102F0C4FA05200021656102F00F
:100DF000BFFA03B0C0BCB946B046F0BD90239846D8
:100E00004EE7022305203370002102F0B1FA4B4671
:100E10000520A361002102F0ABFA6A46B623D37124
:100E20006B460122D91D38680CF02EFA01223100E0
:100E300038680CF029FA0520002102F099FA4B4697
:100E400005206361002102F093FA642305203370CA
:100E5000002102F08DFA4B460520A361002102F02B
:100E600087FA6A46BA23D3716B460122D91D3868C6
:100E70000CF00AFA0122310038680CF005FA05205E
:100E8000002102F075FA4B4605200021636102F053
:100E90006FFAAEE7442363E7482361E7781E00005A
:100EA0009CD900109CD40010940300201FA10700BF
:100EB00023F40000F0B5DE464E4657464546E0B501
:100EC00085B002AB9C1D00230021019023700520FA
:100ED0009A46D02702F04CFA80233F069B0105205A
:100EE0000021BB61984602F043FA02ABDE1D0923E4
:100EF000714D012231003370286899460CF0C4F915
:100F000022000123002128680CF09EF90520002111
:100F100002F02EFA4346052000217B6102F028FAF8
:100F2000802322785B42134305200021237002F0C6
:100F30001FFA434605200021BB6102F019FA8923FC
:100F400001223370310028689B460CF09DF9012284
:100F5000210028680CF098F90520002102F008FA19
:100F60004346052000217B6102F002FA534605202A
:100F70000021237002F0FCF9434605200021BB61EB
:100F800002F0F6F94B4601223100337028680CF06C
:100F90007BF922000123002128680CF055F9052077
:100FA000002102F0E5F94346052000217B6102F0B3
:100FB000DFF9702223780520934313430021237027
:100FC00002F0D6F9434605200021BB6102F0D0F9BA
:100FD0005B4601223370310028680CF055F901227C
:100FE000210028680CF050F90520002102F0C0F91A
:100FF0004346052000217B6102F0BAF953460520E3
:101000000021237002F0B4F9434605200021BB61A2
:1010100002F0AEF94B4601223100337028680CF023
:1010200033F922000123002128680CF00DF9052076
:10103000002102F09DF9434600217B61052002F06A
:1010400097F9019922780B1C002933DB49B20E294C
:1010500000DD0E230F2101338A4313432370052043
:10106000002102F085F9D02780233F069B01BB6158
:1010700005200021984602F07BF989233100337066
:10108000012228680CF000F90122210028680CF0E8
:10109000FBF80520002102F06BF9434605200021F2
:1010A0007B6102F065F905B0F0BCBB46B246A946CB
:1010B000A046F0BDFF23CDE794030020F0B5DE4647
:1010C00057464E464546E0B5060083B0152001F070
:1010D000C1FAD0248023802580279B0324066362E5
:1010E0002D0163610B2001F0B5FA002200210B20D5
:1010F000A56201F09BFABF010D20656101F0AAFA1B
:10110000002200210D20676201F090FA01210E20DB
:10111000676101F071FA01210F2001F06DFA0121E0
:101120000C2001F069FA002165626420A56102F0DB
:1011300049F80520A56202F059F80A2002F04CF99E
:10114000FD4DFE492868B06005F0D8FD02222868F0
:10115000FB49436841180A60016813400532514059
:10116000C8320A408021490141180A60F54A8218B4
:1011700013606A4600235371C223D61D33700122C7
:101180003100A7610CF080F86A460123002128682D
:1011900005320CF059F86761012801D100F036FEE4
:1011A000E94805F079FB6B465979112901D100F026
:1011B0002AFEE64805F070FB142001F04BFAD02718
:1011C00080233F065B03012200211420BB6201F053
:1011D0002DFA6B469C1D00230520002123709946A3
:1011E00002F0C6F880239B0105200021BB619846D0
:1011F00002F0BEF8C02301223370310028680CF0E1
:1012000043F80122210028680CF03EF80520002157
:1012100002F0AEF8434600217B61052002F0A8F8F9
:101220000120FFF7C9FC0A2001F0E0FF4B46052032
:101230000021237002F09CF8434605200021BB6189
:1012400002F096F8242301223100337028680CF054
:101250001BF822000123002128680BF0F5FF052070
:10126000002102F085F84346052000217B6102F051
:101270007FF808222378052013430021237002F011
:1012800077F8434605200021BB6102F071F8A423E2
:1012900001223370310028689B460BF0F5FF0122D4
:1012A000210028680BF0F0FF0520002102F060F813
:1012B000434600217B61052002F05AF8FA208000A5
:1012C00001F094FF0020FFF777FC0A2001F08EFF69
:1012D0004B4605200021237002F04AF843460520C2
:1012E0000021BB6102F044F8012301223100337078
:1012F00028680BF0C9FF22000123002128680BF0A9
:10130000A3FF0520002102F033F843460520002109
:101310007B6102F02DF8802322785B421343052085
:101320000021237002F024F8434605200021BB6110
:1013300002F01EF8812301223370310028680BF07F
:10134000A3FF0122210028680BF09EFF0520002149
:1013500002F00EF84346052000217B6102F008F8F8
:101360004B4605200021237002F002F84346052079
:101370000021BB6101F0FCFF8E230122337031009C
:1013800028680BF081FF0122210028680BF07CFF08
:101390000520002101F0ECFF4346052000217B6180
:1013A00001F0E6FF4B4605200021237001F0E0FF2D
:1013B000434605200021BB6101F0DAFF8F230122A3
:1013C0003370310028689A460BF05EFF012221003D
:1013D00028680BF059FF0520002101F0C9FF4346A2
:1013E000052000217B6101F0C3FF4B460520002151
:1013F000237001F0BDFF434605200021BB6101F0D1
:10140000B7FF5B4601223370310028680BF03CFFC8
:101410000122210028680BF037FF0520002101F090
:10142000A7FF4346052000217B6101F0A1FF6D234A
:1014300005200021237001F09BFF43460520002179
:10144000BB6101F095FF86230122337031002868CB
:101450000BF01AFF0122210028680BF015FF052070
:10146000002101F085FF4346052000217B6101F04A
:101470007FFF962305200021237001F079FF43466A
:1014800005200021BB6101F073FF87230122337027
:10149000310028680BF0F8FE0122210028680BF0CB
:1014A000F3FE0520002101F063FF434605200021E3
:1014B0007B6101F05DFF534605200021237001F0A0
:1014C00057FF434605200021BB6101F051FF8823EF
:1014D00001223370310028680BF0D6FE0122210072
:1014E00028680BF0D1FE0520002101F041FF4346A2
:1014F00005207B61002101F03BFF1549154805F0EF
:10150000CBF94B4605200021237001F031FF434603
:1015100005200021BB6101F02BFFA02301223370C5
:10152000310028680BF0B0FE0122210028680BF082
:10153000ABFE052000210FE09403002040420F0085
:101540000430000004200000DCD40010F8D40010A7
:1015500020E01C1A5CD4001001F00AFF434605206D
:1015600000217B6101F004FF082305200021237086
:1015700001F0FEFE434605200021BB6101F0F8FEAC
:10158000A12301223370310028680BF07DFE012277
:10159000210028680BF078FE0520002101F0E8FE0C
:1015A0004346052000217B6101F0E2FE4B46052009
:1015B0000021237001F0DCFE434605200021BB61C1
:1015C00001F0D6FE202301223100337028680BF091
:1015D0005BFE22000123002128680BF035FE052068
:1015E000002101F0C5FE4346052000217B6101F08A
:1015F000BFFE237805209A464B460021237001F058
:10160000B7FE434605200021BB6101F0B1FE212356
:1016100001223100337028680BF036FE22000123CE
:10162000002128680BF010FE0520002101F0A0FE2B
:10163000434605207B61002101F09AFE5346227843
:101640001B021343082B02D0D44805F025F9D44BD4
:10165000D02718009946FFF70BFB00230520002137
:10166000237001F085FE80233F069B0105200021A9
:10167000BB61984601F07CFE1D23012231003370CE
:1016800028680BF001FE22000123002128680BF0DE
:10169000DBFD0520002101F06BFE434605207B6148
:1016A000002101F065FE23781A098F2B00D9A6E3EB
:1016B000BC4B9200D3584B4500D0A0E30521BA485B
:1016C00005F0EAF800230520002123709B46D0276F
:1016D00001F04EFE80233F069B0105200021BB61E7
:1016E000984601F045FE1D23012231003370286821
:1016F0009A460BF0C9FD22000123002128680BF057
:10170000A3FD0520002101F033FE43460520002102
:101710007B6101F02DFE0E222378914693430C3A13
:10172000134305200021237001F022FE43460520CB
:101730000021BB6101F01CFE9D23012233703100AA
:1017400028680BF0A1FD0122210028680BF09CFD08
:101750000520002101F00CFE4346052000217B619D
:1017600001F006FE5B4605200021237001F000FE1B
:10177000434605200021BB6101F0FAFD53460122DA
:101780003100337028680BF07FFD22000123002117
:1017900028680BF059FD0520002101F0E9FD4346C2
:1017A00005207B61002101F0E3FD4A4623781340C8
:1017B000022B02D07D4805F06FF8002305200021A0
:1017C00023709A46D02701F0D3FD80233F069B016A
:1017D00005200021BB61984601F0CAFD1E230122AD
:1017E00031003370286899460BF04EFD220001232A
:1017F000002128680BF028FD0520002101F0B8FD2C
:101800004346052000217B6101F0B2FDF0222378E0
:1018100005209343803A13430021237001F0A8FD73
:10182000434605200021BB6101F0A2FD9E23012259
:101830003370310028680BF027FD01222100286851
:101840000BF022FD0520002101F092FD434605200A
:1018500000217B6101F08CFD53460520002123709F
:1018600001F086FD434605200021BB6101F080FDAB
:101870004B4601223100337028680BF005FD01232F
:101880002200002128680BF0DFFC0520002101F078
:101890006FFD434605207B61002101F069FD23783F
:1018A0001B09072B02D0424804F0F6FF0023052055
:1018B000002123709A46D02701F05AFD80233F066D
:1018C0009B0105200021BB61984601F051FD1E23BC
:1018D000012231003370286899460BF0D5FC2200B4
:1018E0000123002128680BF0AFFC0520002101F046
:1018F0003FFD4346052000217B6101F039FD0422B4
:101900002378052013430021237001F031FD434665
:1019100005200021BB6101F02BFD9E2301223370C5
:10192000310028680BF0B0FC0122210028680BF080
:10193000ABFC0520002101F01BFD434605200021E2
:101940007B6101F015FD534605200021237001F055
:101950000FFD434605200021BB6101F009FD4B4608
:1019600001223100337028680BF08EFC0123220025
:10197000002128680BF068FC0520002101F0F8FC2C
:10198000434605207B61002101F0F2FC23785B07D0
:1019900012D4084804F080FF0EE0C04648D500107D
:1019A00048E801009CD900107CD40010B8D5001084
:1019B000E8D500101CD6001000230520002123705C
:1019C0009946D02701F0D4FC80233F069B010520D7
:1019D0000021BB61984601F0CBFCA62301223370A5
:1019E000310028680BF050FC0122210028680BF020
:1019F0004BFC0520002101F0BBFC434605200021E3
:101A00007B6101F0B5FC4B4605200021237001F0FD
:101A1000AFFC434605200021BB6101F0A9FC09236E
:101A200001223100337028689B460BF02DFC220008
:101A30000123002128680BF007FC0520002101F09C
:101A400097FC4346052000217B6101F091FC802337
:101A500022785B42134305200021237001F088FCAB
:101A6000434605200021BB6101F082FC892301224D
:101A70003370310028680BF007FC01222100286830
:101A80000BF002FC0520002101F072FC424605200B
:101A900000217A6101F06CFC4A4605200021227089
:101AA00001F066FC424605200021BA6101F060FCAD
:101AB0005A46310032702868083A0BF0E5FB0123E2
:101AC0002200002128680BF0BFFB0520002101F057
:101AD0004FFC4246052000217A6101F049FC70224A
:101AE00023780520934313432370002101F040FC29
:101AF000424605200021BA6101F03AFC8923012207
:101B00003370310028680BF0BFFB012221002868E8
:101B10000BF0BAFB0520002101F02AFC424605200B
:101B200000217A6101F024FC4A4605200021227040
:101B300001F01EFC424605200021BA6101F018FCAC
:101B40005A46310032702868083A0BF09DFB012399
:101B50002200002128680BF077FB0520002101F00E
:101B600007FC4246052000217A6101F001FC0F22AA
:101B7000237805209343134323700021924601F0FC
:101B8000F7FB424605200021BA6101F0F1FB8923F1
:101B900001223370310028680BF076FB012221000E
:101BA00028680BF071FB0520002101F0E1FB4346A2
:101BB000052000217B6101F0DBFB4B460520002165
:101BC000237001F0D5FB434605200021BB6101F0E5
:101BD000CFFB5B4601223100337028680BF054FBC9
:101BE00022000123002128680BF02EFB0520002194
:101BF00001F0BEFB434600217B61052001F0B8FBEC
:101C0000864804F049FE4B4605200021237001F070
:101C1000AFFB434605200021BB6101F0A9FB0A236D
:101C200001223100337028689B460BF02DFB220007
:101C30000123002128680BF007FB0520002101F09B
:101C400097FB4346052000217B6101F091FB524642
:101C50002378052093430021237001F089FB43463C
:101C600005200021BB6101F083FB8A230122337030
:101C7000310028680BF008FB0122210028680BF0D6
:101C800003FB0520002101F073FB434605200021E2
:101C90007B6101F06DFB4B4605200021237001F0B4
:101CA00067FB434605200021BB6101F061FB5B46F9
:101CB00001223100337028680BF0E6FA220001237C
:101CC000002128680BF0C0FA0520002101F050FB2C
:101CD000434605207B61002101F04AFB52462378F0
:101CE0001A4200D095E000230520002123709B4676
:101CF000D02701F03DFB80233F069B0105200021FA
:101D0000BB61984601F034FB0C2301223100337093
:101D100028689A460BF0B8FA2200012300212868AF
:101D20000BF092FA0520002101F022FB434605202A
:101D300000217B6101F01CFB0322237805209343E3
:101D4000134300212370914601F012FB4346052006
:101D50000021BB6101F00CFB8C23012233703100A8
:101D600028680BF091FA0122210028680BF08CFA08
:101D70000520002101F0FCFA4346052000217B618B
:101D800001F0F6FA5B4605200021237001F0F0FA1D
:101D9000434605200021BB6101F0EAFA53460122C7
:101DA0003100337028680BF06FFA22000123002104
:101DB00028680BF049FA0520002101F0D9FA4346C2
:101DC00005207B61002101F0D3FA4A4623781340B5
:101DD000032B02D0124804F05FFD0520FEF7ECFE55
:101DE000104804F0D1FC6B4658791138431E9841D5
:101DF00003B0F0BCBB46B246A946A046F0BD0A48B7
:101E000004F04AFD5AE40948FFF7D4F90848FFF7FF
:101E1000C8F9084804F040FD65E7C0464CD60010FC
:101E2000A8D60010D8D600107CD5001018D5001008
:101E3000C0D400107CD60010D0231B065868C00206
:101E4000C00F7047D0231B065868C002C00F7047F0
:101E5000F0B5DE4657464E464546E0B587B004AB82
:101E60009C1DD025002380262D06B60123700390EB
:101E70000191052000219A4601F07AFA05200021FF
:101E8000AE6101F075FA04ABDF1D012399463B708A
:101E90008C4B39009846012218680BF0F5F943463F
:101EA00022000021186801230BF0CEF90520002143
:101EB00001F05EFA052000216E6101F059FA5246E8
:101EC0002378052022700021029301F051FA0520A9
:101ED0000021AE6101F04CFA4A463A7042463900A0
:101EE000106801220BF0D0F942460123002110684E
:101EF00022000BF0A9F90520002101F039FA052094
:101F000000216E6101F034FA07222378934693434F
:101F10004A46134323700520002101F029FA0520C9
:101F20000021AE6101F024FA8122404639003A7066
:101F30000068803A0BF0A8F94046012221000068B1
:101F40000BF0A2F90520002101F012FA0520002172
:101F50006E6101F00DFA504600212070052001F05D
:101F600007FA05200021AE6101F002FA8D234046F8
:101F70003B703900012200680BF086F940460122CF
:101F8000210000680BF080F90520002101F0F0F934
:101F9000052000216E6101F0EBF90520002101F020
:101FA000E7F905200021AE6101F0E2F98023404607
:101FB0003B703900012200680BF066F94046019A37
:101FC000039900680BF060F90520002101F0D0F9B9
:101FD000052000216E6101F0CBF9019905202170E7
:101FE000002101F0C5F905200021AE6101F0C0F922
:101FF000A22341463B700122086839000BF044F9E6
:1020000041460122086821000BF03EF9052000211D
:1020100001F0AEF9052000216E6101F0A9F95146E9
:1020200005202170002101F0A3F905200021AE61F7
:1020300001F09EF94946397041460122086839008D
:102040000BF022F9414622000123086800210BF021
:10205000FBF80520002101F08BF9052000216E61BD
:1020600001F086F959462278029B8A430B401343BC
:1020700023700520002101F07BF905200021AE61CD
:1020800001F076F94346812239003A701868803AA7
:102090000BF0FAF843460122186821000BF0F4F81F
:1020A0000520002101F064F9052000216E6101F096
:1020B0005FF9002007B0F0BCBB46B246A946A04677
:1020C000F0BDC04694030020F0B5DE464E465746AC
:1020D0004546E0B585B002AB9C1D00230021019070
:1020E000237005209A46D02701F042F980233F064D
:1020F0009B0105200021BB61984601F039F902AB34
:10210000DE1D0123CE4D012231003370286899462F
:102110000BF0BAF822000123002128680BF094F894
:102120000520002101F024F94346052000217B61B0
:1021300001F01EF90722237893461A4053460520E2
:1021400000212370009201F013F94346052000217D
:10215000BB6101F00DF94B46012231003370286854
:102160000BF092F822000123002128680BF06CF894
:102170000520002101F0FCF84346052000217B6189
:1021800001F0F6F85A462378052093434A46134354
:102190000021237001F0ECF8434605200021BB61CB
:1021A00001F0E6F8812301223370310028680BF03A
:1021B0006BF80122210028680BF066F80520002149
:1021C00001F0D6F84346052000217B6101F0D0F8EC
:1021D000534605200021237001F0CAF8434605202C
:1021E0000021BB6101F0C4F81E23012231003370CD
:1021F00028680BF049F801232200002128680BF021
:1022000023F80520002101F0B3F8434605207B6147
:10221000002101F0ADF823785B0700D47EE053463F
:1022200005200021237001F0A3F84346052000217A
:10223000BB6101F09DF81223012231003370286840
:102240000BF022F822000123002128680AF0FCFF8D
:102250000520002101F08CF8434605207B61002118
:1022600001F086F8002292464A4623785B111A4212
:1022700054D0002305202370002101F079F8D027E5
:1022800080233F069B01BB6105200021984601F099
:102290006FF8012331003370012228680AF0F4FF3F
:1022A00022000123002128680AF0CEFF052000212A
:1022B00001F05EF8434605207B61002101F058F8EB
:1022C0000722237805209343009A002113432370AB
:1022D00001F04EF843460520BB61002101F048F8AB
:1022E000812331003370012228680AF0CDFF0122DA
:1022F000210028680AF0C8FF0520002101F038F805
:102300004346052000217B6101F032F8504605B0BC
:10231000F0BCBB46B246A946A046F0BD002305204E
:10232000002123709946D02701F022F880233F0630
:102330009B0105200021BB61984601F019F8132389
:1023400001223100337028680AF09EFF0123220029
:10235000002128680AF078FF0520002101F008F824
:10236000434605207B61002101F002F823789A465C
:10237000002B00D17DE74B4605202370002100F0A3
:10238000F7FF43460520BB61002100F0F1FF102359
:1023900031003370012228680AF076FF2200012301
:1023A000002128680AF050FF0520002100F0E0FF1E
:1023B000434605207B61002100F0DAFF0520002163
:1023C00000F0D6FF43460520BB61002100F0D0FF9E
:1023D0008D2331003370012228680AF055FF012255
:1023E000210028680AF050FF0520002100F0C0FFFE
:1023F000434605207B61002100F0BAFF0520002143
:1024000000F0B6FF43460520BB61002100F0B0FF9D
:102410004B4631003370012228680AF035FF5346DD
:10242000019A002128680AF00FFF0520002100F022
:102430009FFF4346052000217B6100F099FF18E7CC
:10244000940300200B4B1A680B4B18680123010002
:1024500010318B4051680B42FCD180218000101854
:102460004903016151681942FCD180235B03036178
:102470007047C04634130020381300200B4B1A68F5
:102480000B4B18680123010010318B4051680B423F
:10249000FCD18021800010180905016151681942A2
:1024A000FCD180231B0503617047C0463413002014
:1024B000381300200A4B1A680A4B186801230100E0
:1024C00010318B4051680B42FCD107498000101835
:1024D000016151681942FCD1034B03617047C0464A
:1024E000341300203813002000010101F0B5C64666
:1024F00000B502218CB0374804F0CEF901230293D5
:10250000019301330093344807AB06AA05A904F0F0
:102510008BFD00285AD0059D304B0220E918090D8B
:102520000631C9B2079F069E00F066F8012331000C
:1025300002220093280004F0CFFC80235B02089362
:10254000FB1CFA011B031343254A05201340099382
:10255000244B0B93244B0A9301F01AF902F0F6F97D
:10256000224902F0D8F9EC21890502F0D1F9804620
:1025700002F014FA84B20023002C0ED0200002F0E6
:10258000E5F9011C404602F0C0F98721C90502F0B7
:10259000D6F902F003FAC3B21B0224043A001C432A
:1025A000310008AB2800089404F0F0FC0123B3408C
:1025B00000202A6813432B60059A0D4B1A600D4BBF
:1025C000069A1A600CB080BCB846F0BD01F088F9DC
:1025D000A1E7C046F8D60010C4D900100000E0AF53
:1025E000FFFFFF9F00080020000006700024F44A4F
:1025F0003413002038130020094A83009A1810B5BC
:1026000014684022544080322240064CC000A44648
:1026100063441A60044B9C466044416010BDC04650
:1026200004C0014004D0014000400140074B80003D
:10263000C3181B68C90092000A435A400C23134078
:10264000034A9446604403607047C04604C001409A
:1026500004D001400123D02283401206936293618B
:10266000094A83009A1811684022514080320A407A
:102670000649C0008C4663441A60054B9C460523FE
:10268000604443607047C04604C0014004D001402C
:10269000004001400FB400B5084883B004F074F85E
:1026A000049B002B07D005A91800019103F0D0FD71
:1026B000034804F069F8012003F0E2FD20D7001080
:1026C000C0D30010EFF3108072B6034A1368002BDA
:1026D000FCD0BFF35F8F70472C0100D0BFF35F8F3A
:1026E0000022024B1A6080F3108870472C0100D042
:1026F00070B5EFF3108C72B60D4D2B68002BFCD02B
:10270000BFF35F8F0724CB08C618C05C01230C40C1
:10271000A3401C000440034207D118433070BFF3AC
:102720005F8F2C608CF3108870BD1000FFF7B2FF34
:102730002C0100D0F8B54746CE46884680B5EFF369
:10274000108C72B6214D2C68002CFCD0BFF35F8F2B
:102750009A422CD8D4080727055D06190124174092
:10276000BC402C421FD007210127894609E0D4082C
:10277000055D06194C4639001440A1400C00294261
:1027800011D001329342F2D201204042BFF35F8F59
:1027900000220E4B1A608CF3108800280FDBC0BC9F
:1027A000B946B046F8BD254310003570EEE7BFF3DB
:1027B0005F8F00232B608CF310880120404243463A
:1027C000002BECD00898FFF765FFC0462C0100D025
:1027D00030B5EFF3108C72B60A4C2368002BFCD096
:1027E000BFF35F8F072301220B409A40CD08435D62
:1027F00093434355BFF35F8F002323608CF310880E
:1028000030BDC0462C0100D0044A1078431CDBB216
:10281000172B00D9102313707047C046980300206F
:102820000021044B044ABFF35F8F02C39342FAD1E5
:102830007047C046000100D0800100D0054B064A19
:102840001360064A136053609360D3601361536151
:10285000936170478080808000E400E004E400E041
:102860001F2318401E3B8340002905D0C021044A85
:102870004900535013607047802201498B50FAE79A
:1028800000E100E070B50D00EFF3108672B60F4A5C
:102890001368002BFCD0BFF35F8F0D4B10309B688B
:1028A00084001B590B4A934203D09D4201D001F092
:1028B00017F8074B9B681D51BFF35F8FBFF35F8F06
:1028C0000022024B1A6086F3108870BD240100D0EC
:1028D00000ED00E0CD010010F0B5DE4657464E4653
:1028E0004546E0B50C0083B0EFF3108872B6634A3A
:1028F0001368002BFCD0BFF35F8F614B61499A686E
:10290000030010339F00D55900938D4243D0A54258
:1029100054D05D4EAA1B2F2A3DD85C4B9C461B68A9
:102920009A4601231A0099468240534613401F22BB
:1029300001934B46024093409A468022634650469C
:102940009850BFF35F8FEFF305839B46002B37D082
:10295000009B5B4501D000F0C3FF2A004B469A4321
:102960009068844208D177E04B005B189B00F31815
:102970009868844236D01A00062151560029F3DAAD
:10298000844255D0019B002B27D0C02251463F4B9B
:102990005200995019603A4B9B68DD51BFF35F8F2D
:1029A000BFF35F8F0022354B1A6088F3108803B0A5
:1029B000F0BCBB46B246A946A046F0BD0D00EAE712
:1029C0002A004B469A4390688442D5D1062010567F
:1029D000130000280ADA0D0032E0802351462B4A0A
:1029E000D150D8E706201856002822DB42001118E3
:1029F000890074188946A1689960E179D971062126
:102A000061569971002925DBA488F11A6405241503
:102A10004C440919E0240905490D240221439980F9
:102A200013181B4A9B001178F31899711070A9E7CD
:102A300013005946002914D1FF3191711549918035
:102A400013490A789A71144A9B1B5B415A43120D31
:102A50000A7097E71149E2E7062010561300002894
:102A6000C4DA0F4A0F49D21A083A5002400D014306
:102A700099800D4952080A43DA8083E7240100D087
:102A800000ED00E0CD0100109C03002000E100E01B
:102A9000C513002001BDFFFFAAAA000001BD000070
:102AA000D603002000F0FFFF00F8FFFF70B50124FF
:102AB0000443EFF30581EFF3108C72B6214A1368DB
:102AC000002BFCD0BFF35F8F1F4B05001F4AED1A90
:102AD0006D416A43120D1E4D8900AE6852B27658A0
:102AE000A6421CD00621595691421CD0122159569B
:102AF000914222D01E215956914220D02A21595666
:102B00000324914210D0134B19781A708171BFF3CE
:102B10005F8F00220B4B1A608CF3108870BDAB687E
:102B20000D4C5C50EFE700246100091989005B1827
:102B3000FF21997109499980E5E70124F4E702240E
:102B4000F2E7C046240100D09C030020AAAA00009E
:102B500000ED00E0C5130020CD01001001BDFFFF16
:102B6000024B9C466144890001607047400000347C
:102B700070B5114C114DAC420FD2FF262368002BCB
:102B80000CD0FFF741FE01002000FFF7E9FFA6800F
:102B9000BFF35F8F0834AC42F0D370BDFFF734FE53
:102BA00001002000FFF7DCFF2671BFF35F8F0834C0
:102BB000AC42E3D3F1E7C046100B0020180B002015
:102BC0000A4B1968EFF3108072B60A68002AFCD02D
:102BD000BFF35F8F1B68BFF35F8F00221A6080F323
:102BE000108840BF002000217047C046B813002065
:102BF000F0B5DE4657464E464546E0B583B0EFF3A6
:102C0000058203231340B54A99005258009190461B
:102C100001229A40B24B93461A60B24B01932EE0C8
:102C200043469B881BB2002B00DB99E043469B790F
:102C3000002B00D0DDE0434608241C5F002C00DAA6
:102C400006E143465A6963001B19DB00D3189D68EF
:102C5000DC686B1C00D107E1A34B00999C466144E2
:102C60009A6A0B69A81A9B1A984200D20D619E4875
:102C700000F06CFB8C4200DDEAE000D126E15B460F
:102C800099484363434608229B5E9946002BC7DB65
:102C9000424652695B0092464B44DB009A445346DD
:102CA0009E68DF6800F052FB8F42B9DC00D100E182
:102CB000002F00DAE1E05246534654691B69019A3D
:102CC000934200D1D4E0414652460820085E528823
:102CD000000421001043984704000D0023002B43FB
:102CE00000D1CAE0002D00DBE7E030003900001B16
:102CF000A94153469860D96000229A5E002A8FDB72
:102D000043465D6953009C18E4002C19A768E468E9
:102D10008C4200DD84E702D1874200D980E7464635
:102D2000328108360DE08C4200D1D3E01E00002332
:102D3000F25E002A0ADB53009C18E4002C19A768F5
:102D4000E4689B18DB00EB188C42ECDD53461A80DC
:102D50004B46338043469B881BB2002B00DA65E765
:102D600043461A69EFF3108172B61368002BFCD04A
:102D7000BFF35F8F43469E88012342465B429380A8
:102D800036B21369BFF35F8F00221A6081F3108897
:102D9000002E00DA4AE743465D69083342469C4606
:102DA0007700BF19FF00EF19BB68604698460823FB
:102DB000D15E9246FC68002907DA0EE0A2424FD0AD
:102DC00018000023C15E002906DB4B005B18DB0006
:102DD000EB18DA68A242F1DD524606800023FE5E5F
:102DE0003980002EDCDA904643469B79002B00D1D7
:102DF00021E7002342469371434646460821595E27
:102E000008364B1C24D047468946556902E0060027
:102E10004B1C18D04B005B18DB00E8180A008C46EE
:102E2000E95E43881BB2002BF1DA01235B42DC1719
:102E30008360C4604A4503D031803B8903803A8176
:102E4000E1464B1CE6D14C46B846002C00DBF8E6C8
:102E500040BF03B0F0BCBB46B246A946A046F0BD99
:102E60009A684245ACD9B7E7631C00D0F4E6FEE6A9
:102E7000200023699847002825D1534642461B88E5
:102E800013811269EFF3108372B611680029FCD028
:102E9000BFF35F8F4246514652880A8042464946F8
:102EA00051801269BFF35F8F0021116083F3108896
:102EB000B6E6864200D8FBE6B2E60B4800F046FADA
:102EC0000019694115E76568246807E7854200D85D
:102ED000D5E6BDE7874200D828E737E76013002032
:102EE0003C700540F12B00100040054070B52E4CA1
:102EF0002569002D04D00A212C48FFF731FE70BD52
:102F00002B4E0321300000F017FAE660FFF77CFC3F
:102F1000284B03229C46D02322701B061B680121EC
:102F20006370254B6044A3600F2380002061022062
:102F3000638063694942A180198002311986473153
:102F40001D83585218315A5275325C3999521832D1
:102F50000131995218320131995218320131995286
:102F6000083518329D520231183299521832013107
:102F7000995218320131995218320131995218324E
:102F8000013199521832013199520C4B0C49DC60D5
:102F900001303562FFF776FC01210320FFF760FC6A
:102FA000084B1D60A7E7C046E4030020B8130020CB
:102FB0000040054040000034FFFF10006013002077
:102FC000F12B00103860054070B501000469EFF383
:102FD000108C72B620680028FCD0BFF35F8F0220EF
:102FE0000D5E4C6968004019C0002418002D37DBC5
:102FF000208848800869BFF35F8F002606608CF345
:103000001088E36063880498013320615B040598AD
:103010005B0CA26060611A1C002B1FD093B22804C5
:10302000628018430A69EFF3108C72B61368002BA4
:10303000FCD0BFF35F8F8B8823808D800B69BFF33B
:103040005F8F00221A608CF310880B7801329A404F
:10305000CB6808498C4663441A6070BD0122DDE7E5
:103060000B69BFF35F8F00221A608CF31088012078
:103070004042F2E73C20000010B543890A14934215
:103080001ADD53009B184269DB00D3180469EFF383
:10309000108C72B62268002AFCD0BFF35F8F5A886A
:1030A000090494B2090C8A4208D00369BFF35F8F08
:1030B00000221A608CF31088002010BD80221202BA
:1030C00014435C80012302698371BFF35F8F002189
:1030D00011608CF31088044902788C469340C268D2
:1030E000012062441360E8E73C200000F0B50400D2
:1030F0000D0006267642F717C64636196F4100B511
:1031000082B08F4214D811D000F028F932003B0071
:10311000121A8B41002B17DC002B47D0200029000E
:1031200000F0A8F902B080BCB846F0BD8642EBD9E9
:103130000022002316001F0000F010F932003B00AF
:10314000121A8B41002BE7DD00F008F932003B003A
:10315000121A8B41002B0ADB00230193154B32001E
:10316000009315483B00FFF72FFF0028D6DB002314
:103170009C46B046114A124E736A9F4204D8B16A07
:103180008845CBD99F42C9D11168EFF3108072B640
:103190000B68002BFCD0BFF35F8F1368BFF35F8F0A
:1031A0006146196080F3108820BFE5E7002AB5D09A
:1031B000CAE7C046C12B0010E4030020B81300206A
:1031C0000040054070B504000D0000F0C7F88023F2
:1031D000001969411B06994202D30120024940426D
:1031E000FFF784FF70BDC046FFFFFF7F70B506008C
:1031F00000F0B4F8FA2204000D0000233000002192
:10320000920001F065FB8023001969411B06994279
:1032100002D3012002494042FFF768FF70BDC0465B
:10322000FFFFFF7FF0B5CE46474680B504000D0096
:1032300083B0EFF305878846002F3ED12E4EA1467E
:103240003378F06804339B00816A1B58601A5B1A5C
:1032500098420ED320BF294900204B6AAB4203D3CA
:103260008A6A0130944231D803B0C0BCB946B04636
:10327000F0BD00F073F822002B00121A8B41002BD6
:103280002FDB1F4B2200009330002B000197FFF72C
:103290009BFE011E25DD194B5A6AAA421BD220BF94
:1032A0003000FFF7E9FE154A0020536A4345DBD39F
:1032B000926A01309145D7D908E0104900204B6A45
:1032C000AB42D1D38A6A0130A242CDD25B1B5A1ED7
:1032D0009341D8B2C8E79B6A9C42E1D9AA42DFD1A8
:1032E000DDE7064A0020536A4345BDD3926A0120B8
:1032F0009145B9D9EAE7C046E40300200040054003
:10330000C12B0010084A4368516A10B504680020B8
:103310008B4203D8926A0130A24200D310BD5B1ADF
:103320005A1E9341D8B2F9E700400540026043605D
:10333000004870470533001010B5024A0248FFF7F5
:10334000D7F910BD30D70010BC1200200300416A2D
:103350000A00986A596A8A42FAD17047034B596A3F
:103360000A00986A596A9142FAD1704700400540B4
:1033700070B504000D00174A536A1900966A536A23
:103380008B42FAD13000190024184D41AB4216D8B7
:1033900013D0104A2B00526A954203D90D494A6A4C
:1033A0009A42FCD39A4207D10A4A02E0516A9942F2
:1033B00002D1916AA142F9D370BDA642E9D9054B69
:1033C0005B6A1C005A1CEFD0012301246442E517FC
:1033D0005B42E3E700400540244B70B598420BD8B0
:1033E00043011B1A224A9B001818916AC000936A75
:1033F0005B1A9842FBD870BDFA220023920000218C
:1034000001F066FA04000D00194A536A1900966A21
:10341000536A8B42FAD13000190024184D41AB4257
:1034200018D9134B5B6A1C005A1C0AD001230124D3
:103430006442E5175B420E494A6A9A42FCD39A42BB
:10344000D9D10B4A02E0516A9942D4D1916AA14282
:10345000F9D3D0E7AB4205D0054A2B00526A95421A
:10346000E9D8ECE7A642F7D9DBE7C0469BC42000C9
:1034700000400540064A536A9942FCD807D1044BE4
:1034800002E05A6A914202D19A6A8242F9D37047A5
:1034900000400540F8B5040006200D0000F078F962
:1034A000002844D0374B3849E3185A1E93418022F4
:1034B000120494465B429B0D344A9B05634413609F
:1034C000334A136018000A689043FBD12D4B314AF0
:1034D000E31859424B4180215B0049000620995274
:1034E00000F056F92900C00000F000FB0130C309CC
:1034F0001ED1402701226262A362266BF30722D409
:10350000E36A254B0620E51800232B60266300F0B4
:103510003FF93900800000F0E9FA7023E26A5A406E
:103520000E3313402B601D4B23630323A364F8BDAC
:103530001B4A93421ED900231A4A1B4F6262A362A0
:10354000266BF307DCD5194B144AE3181A60656A39
:10355000A36A0620AD01ED1800F01AF9144900F035
:10356000C5FAAD020100280000F0C0FA0021FFF703
:10357000FFFEC5E74006800E9F011A003F180300BA
:10358000B9E7C0460080FCBF08C0004000E0004032
:1035900000F00040BC1300202C10000001030000CC
:1035A000FEFF0000FFFF0000C0FF3F0030300000C2
:1035B0004E0E0000F8B5DE464E4657464546E0B58D
:1035C0008B4605000A991800160000F08FFA0A9B36
:1035D0006C001F02324B64199C46A400644463686B
:1035E00081469F4200D967602B1FDBB29846012BB2
:1035F00030D9C02380229B01E31812011A60294BA5
:10360000AD0059599A4600291BD17301E026226862
:1036100053401E40802342465B01E3181E60012A8E
:1036200030D9802380229B01E31812011A6053468F
:103630004A4667605A51F0BCBB46B246A946A0460E
:10364000F8BD586900F052FA013043001B18033BE3
:10365000FDD2DAE75B46012BCBD1C02303229B01CD
:10366000E3181A60023AA3681A42FCD07301E026FC
:103670002268AD0053401E4080230A4A5B019246F7
:10368000E3181E605A462168514003220A401A601E
:1036900001225B469A40A3681A42FCD0C1E7C046AB
:1036A0000080004000130020F0B546464F46D64645
:1036B000C0B51F00344B44009C462418A400644449
:1036C000636888461600FF2B02D880235B00636086
:1036D000031FDBB29A46012B30D9C02380229B0105
:1036E000E31812011A60294B85005959994600299F
:1036F0001BD17301E026226853401E4080235246AE
:103700005B01E3181E60012A30D9802380229B01CF
:10371000E31812011A6080235B0063604B465F511F
:10372000E0BCBA46B146A846F0BD586900F0DEF9E3
:10373000013043001B18033BFDD2DAE74346012B5F
:10374000CBD1C02303229B01E3181A60023AA3687D
:103750001A42FCD07301E0262268850053401E40C7
:1037600080230A4A5B019146E3181E6042462168A5
:10377000514003220A401A60012342469340A26846
:103780001342FCD0C1E7C046008000400013002077
:10379000014B8000C058704700130020F8B50400AA
:1037A00021481E0017000D0000F0A0F901003800AC
:1037B00000F09CF9069B36041B031E432368002B74
:1037C00020DB1A4B1A49E3185A1E934180229201BA
:1037D00094465B421B0B174A1B0363441360164A53
:1037E00013601F000A689743FBD1144B2560E21851
:1037F0002123A06013602368002BFCDA0823E66015
:103800001360F8BD3F2322681340AB42D9D1A368AF
:103810001B051B0D8342D4D1EE22E368D202134074
:10382000B342CED1EDE7C046001BB7000040FDBF5C
:1038300008C0004000E0004000F0004004300000FC
:103840008023024A9B000B43D362704700800540EF
:10385000142310B50100188804331B88984710BD45
:10386000162310B50100188802331B88984710BD35
:10387000F8B54746CE4680B50F1E19D01423994699
:10388000043304000025012698464B461888434619
:1038900021681B88984701C4431E98410135404266
:1038A0000640AF42F1D13000C0BCB946B046F8BDC9
:1038B0000126F8E7AA23064A1B0113602F230549B6
:1038C000D360054B19605368002BFCDA7047C04683
:1038D0000040024000B0FA00006002407047C0465D
:1038E00010B50148FEF7D6FE54D7001070B5074D4D
:1038F000074EB54209D20024013E761BB60808CD1A
:10390000984723000134B342F9D170BDA8D200100A
:10391000E4D20010054B064A06491A60064A074BD6
:103920001A6010000B689843FBD1704700E000401C
:10393000BFCDFBFE08C00040FE7F3C0000F0004011
:10394000044BDB6C002B03D18022034BD2021A60A4
:103950007047C046000011504C201150044A054BDE
:103960001A60054A1368DB018033FBD17047C046FB
:10397000FFFFFF0100F0004008C000404022034B61
:103980009A675A671A67DA667047C04600F00140C6
:1039900010B5FEF745FF10BD70B5044D044CA96885
:1039A000C022200001F07EF8AC6070BD00ED00E0A8
:1039B00000000020002310B5294C82B0A367FFF758
:1039C00079FF0122274B1A60636C012BFCD1032283
:1039D000254B1A60224A936B012BFCD101330093D3
:1039E0000121224A22480433FFF7D8FE0523012192
:1039F0000093204A2048FFF7D1FE00220221042034
:103A00001E4BFFF751FE0022012105201C4BFFF742
:103A10004BFE0022002107201A4BFFF745FE002233
:103A200000210820174BFFF73FFE8023DB000093A7
:103A3000002200210920134BFFF7BCFD0022104B90
:103A400000210620FFF730FE0420FFF7A1FE0E49FB
:103A500000F04CF801000020FFF7F2FE02B010BDAC
:103A6000008000403CB0004030B00040002F68595A
:103A700000800240008C864700C00240001BB70057
:103A800040597307006CDC0240420F0001480421DA
:103A9000014B18470004002071380010124A936F40
:103AA0009B0815D29066D166002905D0FFE7FFE795
:103AB000FFE7516F106F704704B580210906C217E8
:103AC0005140002800D0C84309F0D6FB002104BDB6
:103AD000F0B5146E556E576F166FFFF7E3FF14665F
:103AE000556657671667F0BD000000D0114A936F06
:103AF0009B0813D210665166002905D0FFE7FFE747
:103B0000FFE7516F106F704704B5002801D0002007
:103B1000C04309F0B1FB002104BDC046F0B5146EEE
:103B2000556E576F166FFFF7E5FF146655665767BA
:103B30001667F0BD000000D094464A4A926F920882
:103B4000624601D228E0C046F0B5464E346E756E2E
:103B5000776F366F00F020F89446424A1466556637
:103B6000576716676246F0BD94463E4A926F9208C8
:103B7000624601D254E0C046F0B53A4E346E756EDE
:103B8000776F366F00F04CF89446364A14665566E7
:103B9000576716676246F0BD002B24DB11D0002961
:103BA0003EDA00B5C943404200D1013100F038F897
:103BB000C943404200D10131DB43524200D10133BD
:103BC00000BD002AEBD1002801D1002905D000203A
:103BD000C90FC90701D1C043410800B509F044FB32
:103BE0000022002300BD00B500290ADBDB4352425E
:103BF00000D1013300F014F8C943404200D1013133
:103C000000BDC943404200D10131DB43524200D1E3
:103C1000013300F005F8DB43524200D1013300BD0F
:103C2000002923D1002B18D1002A0CD0BC460D4FFF
:103C300038667A6600210023FFE7FFE7FFE77A6F27
:103C4000386F67467047002801D00748010000B56B
:103C500009F00AFB0022002300BD02000B00002037
:103C600000217047000000D0FFFFFFFF002B00D0B5
:103C7000BFE0130C28D1002AE7D080B4114F396679
:103C80007A66FFE7FFE730B4040C7B6F396F1B04E3
:103C900023433B667A66FFE7FFE7FFE7C04684B24F
:103CA0007B6F3D6F1B0423433B667A66FFE7FFE7AC
:103CB000C04600232C042D0C7A6F386F001969411F
:103CC000B0BC7047000000D0F0B594460025140E3B
:103CD00001D112020835140F01D112010435940FDD
:103CE00001D192000235D40F01D152000135D40B1D
:103CF0000134254F7C66254C3C660E0C93B2FFE7E1
:103D0000FFE7FFE73C6F6643360C7703BE4673431D
:103D1000DF0B5B04C01AB941130C7343DB18C91ADB
:103D2000CE086643360CB64493B273431F0F1B0193
:103D3000C01AB941130C73431F0B1B05C01AB941BC
:103D4000860D8F023E436643360C092D24DB520A52
:103D50007243801A7703460A6643360C16235B1BB0
:103D6000DE40DF40BF1964466643821B704604355F
:103D700006330100D940A840C01900D30131A24246
:103D800006D20023F0BD0000000000D0FFFFFFFFBF
:103D9000121B0130F3D3F1E709277F1BFE40644675
:103DA000A2B27243801A00D20139220C7243130C62
:103DB0001204821A99410B00704604351337010032
:103DC000F940A840801900D30131002B02D1A24252
:103DD0000AD2F0BD013000D30131121BFAD2013BEF
:103DE000F8D1A24200D2F0BD013000D30131121B44
:103DF000F7E7F0B51C0C00D080E00CB400251C0ADD
:103E000004D11B02160E3343120208351C0B04D1D9
:103E10001B01160F3343120104359C0B04D19B0088
:103E2000960F334392000235DC0B02D192185B41AE
:103E300001351C00971864410134464F7C66464C9E
:103E40003C660E0CFFE7FFE7FFE7C0463C6F6643AA
:103E5000360C7703BE4697B27743C01B00D20139B8
:103E6000C01B00D201399FB27743C91BC91B170C75
:103E700077437E04FF0B801BB941CE086643360CA6
:103E80000C2D33DBB644120B1F053A431B0B97B2C4
:103E90007743C01B00D201399FB27743C91B170C6F
:103EA00077433E043F0C801BB941860D8F023E4391
:103EB000664329277F1BFE400C3D7746AF40BF1964
:103EC00030BCA2B2ABB272437343801A9941220C48
:103ED0007243130C1204801A994102000B0001373F
:103EE000001BA941F9D2781E0021F0BD0C277F1BD1
:103EF000FE4077467F0BAF40FF19E0E700245D1CD2
:103F000007D0144F7D663966FFE7FFE7FFE7FFE75D
:103F10003C6F95B29EB265436643401BB141150CA0
:103F20001E0C6543664336042F0C3E432D04401B94
:103F3000B141994204D202000B0020000021F0BDE3
:103F400001D19042F7D3801A994101349942F2D3BA
:103F5000F6E70000000000D0FFFFFFFF48404140AF
:103F6000484018B41B4B5B68FC46019308BD04DF56
:103F70009F42001018B4174B1B68FC46019308BD04
:103F800000DFA94200109446134A926F920809D2AA
:103F9000624618B40F4BDB68FC46019308BD0CDF8A
:103FA000614500100C4AF0B5146E556E576F166FD0
:103FB0006246FFF7EEFF084A1466556657671667B4
:103FC000F0BD18B4034B9B68FC46019308BD08DFA5
:103FD00005440010980C0020000000D0FFB55040B0
:103FE0004240504059404B40594000E0FFB5154F0A
:103FF0004C00640D03D0BC4204D10C0314D8002043
:10400000090D09055C00640D03D0BC4204D11C03FA
:104010000AD800221B0D1B0501264B4009D44B403A
:1040200003D58B4200D18242FFBD9942FCD1904220
:10403000FFBD0B43DB1803431343F5D0C9434918B5
:10404000FFBD0000FF07000000B5FFF7CFFF01D064
:10405000002000BD012000BD00B5FFF7C7FF804173
:1040600000BDC04600B5FFF7C1FF01D9002000BD6B
:10407000012000BD00B5FFF7B1FF01D9002000BD50
:10408000012000BD00B5FFF7A9FF804100BD012060
:1040900040054A00121804D85A00121801D800200E
:1040A00070470120704700000021002805D17047AB
:1040B000C1174840401AFAD0C90713B5064B1B6810
:1040C00098470CBC441CA2401005120B0349091B65
:1040D00009051943114310BDB41300201F0400004B
:1040E00010B54C00620D8023D218DB00D21A5B059C
:1040F0007E2A10DD9E3A13DACC17090349081943CA
:104100005242D140640001341532202A05DAD040F1
:104110000843604310BD002010BD0846604310BD39
:10412000C80FC018013810BD18B4044B5B6AFC46B8
:10413000019308BD24DF114700100000980C0020F7
:1041400018B4044BDB6DFC46019308BD5CDF1D48D1
:1041500000100000980C0020C94211D300B549009E
:104160004908002200F018F8002904D40022404237
:104170008A41114600BD80210906002000BD0000D3
:1041800018B4044BDB6EFC46019308BD6CDF1F477F
:1041900000100000980C002018B4044B9B6FFC46E4
:1041A000019308BD78DF3B4700100000980C002009
:1041B00018B4044BDB6FFC46019308BD7CDFA947B4
:1041C00000100000980C0020132370B51D78012DFD
:1041D00019D014DD1F48FFF743FB06001E48FFF708
:1041E0003FFB1E4C80223100200000F05BFC022DC2
:1041F0002DD01B48FFF72CFB1A4B186070BD1A4BD3
:10420000164CA364F5E7184B144C23606360A3605D
:10421000E36023616361A361E36123626362A3627C
:10422000E36223636363A363E36323646364A3645C
:10423000E36423656365A365E36523666366A3663C
:10424000E36623676367A367E367A364D1E7064B6D
:10425000A364CEE75344000053460000980C0020AE
:104260004C330000B41300206D42001007B56046C7
:1042700001880A0A0230DF2AFAD1C9B2820804D3BF
:10428000028840880004104300E00068014A505052
:10429000039007BD980C00200FB403BC0CBCF0B514
:1042A0000124E407634000E0F0B50C0DCF0F661E5B
:1042B0003605891B640503D3C943404200D301314D
:1042C000640D03D0661CF60A07D0E41B00207F00B3
:1042D000791C89078912803C24031D0DDF0F6E1E97
:1042E00036059B1B6D0503D3DB43524200D30133DC
:1042F0006D0D03D06E1CF60A07D0ED1B00227F0067
:104300007B1C9B079B12803D2D032F1B661B58D4E3
:10431000A446202E46DA20371400BC401D00BD40C4
:10432000F24033412A4380185941CB0F05D0C9438D
:10433000C043002264425041514162464D0D28D194
:104340000D0D07D100281FD0241940414941013AE1
:104350000D0DF9D0640006D3013000D30131002CDB
:1043600001D140084000013A0BD4941CE40A04D166
:1043700012051144DB071944F0BDD907204B19433E
:1043800000E0D9070020F0BD0029DDD1002CDBD1F1
:10439000F0BD0132C6074008CD0728434908002E6A
:1043A000E1D0D9E73C2E29DA203E40371400BC404A
:1043B00000D00124F24014431A00BB401C43D31721
:1043C000ACE7AC46202F08DA20360400B4400D00DC
:1043D000B540F84039412843A5E73C2F0CDA203F8F
:1043E00040360400B44000D00124F84004430800E3
:1043F000B1400C43C117EAE710001900002494E70C
:104400000000F07FF0B50C0D661E3605891BE60A2C
:104410006405640D02D0651CED0A04D00020012162
:104420000905803C2403A4461C0D671E3F05DB1BC9
:10443000E70A6405640D02D0651CED0A04D0002271
:1044400001231B05803C24037740644497B484B265
:1044500096B27443070C7E43150C6F4380B26843D9
:10446000361802D3012000043F183004350C00191F
:104470007D41844688B29AB250430C0C62431F0CB3
:104480007C438EB27E43921902D301263604A419CE
:104490001604170C3618674101BC81B29AB2514319
:1044A000040C62431B0C5C4380B25843121802D3C5
:1044B0000120000424181004130C401863412D1827
:1044C0005E410020474106BC88B293B258430C0CB1
:1044D0006343120C544389B251435B1802D3012148
:1044E0000904641819041A0C091862416D18564120
:1044F0000020474118BCF902720D1143F0026A0D09
:104500001043ED020A0D03D16D1940414941013BB1
:10451000124E9B1B7600B3420ED26D0007D30130C2
:10452000002671416646354301D1400840001B0515
:10453000C918E4072144F0BD0BDA013306D101307C
:1045400004D101314F0D01D04908F2E7E107002005
:10455000F0BD013631050020EBE70000FF0300004D
:10456000F0B51C0D671E3F05DB1BE70A6405640DF3
:1045700002D0661CF60A04D0002201231B05803CF1
:104580002403D0252D060026F6432E661E096E66EE
:10459000CE0FF619B44649004F0D02D07E1CF60A24
:1045A00003D000200021403F3F033E1BB600B4442F
:1045B000013F7F05C91B49082E6F013676089C0212
:1045C000950D25437543ED137543AD1301356D10FE
:1045D000F603761B0CB4CC02450D2C43A2B2B3B249
:1045E0005A43270C7B43350C6F43A4B26C431B1911
:1045F00002D3012424043F191C041D0CA4187D417E
:1046000024196D41009A91B2ACB26143170C7C43FE
:104610002B0C5F4392B25A43A41802D30122120416
:10462000BF182204230C52187B41019C6C431B19B8
:10463000520ED9010A434401A01A81B2B2B25143C9
:1046400003145A43360C734387B27743D617D219F3
:1046500000277E4136049B191704160C7F185E4113
:104660007316ED18F301002680337541A90F06D1AA
:104670006400690AE8055B0A184309D22FE00422A6
:10468000944480337541A90AA8059B0A184326D390
:10469000404149412404009A019B0D005543641B8D
:1046A0004343E41A95B286B27543170C7E43030C5C
:1046B0005F4392B25A43B61802D301221204BF18C4
:1046C0003204330C52197B4152429C41002C02D4DB
:1046D0000022013051414008CA071043490802B086
:1046E0006246D7079210084BD218084B9A4203D261
:1046F00012058918C919F0BD0020002A01DC390013
:10470000F0BD01331905F5E7FD030000FE070000C9
:10471000002200B5203200F010F8080000BD002291
:1047200000B500F00CF8CA179A4200D100BDD8437A
:104730000121C907414000BD00220B150AD410B564
:10474000944600F0A7F81414013400DA0021CB17C6
:10475000144C20470020002170476244343A0CD4A6
:104760000C2A07DA04009140904052422032D44093
:10477000214310BDD843D94310BD203207D40C4685
:104780009440524220321141D040204310BD0800D5
:10479000C917203203D452422032104110BD1800F4
:1047A000190010BD5B4700104A00520D144BD21A7D
:1047B00013DDFF2A1EDAD205CB0FDB071A43C30035
:1047C000400F0903490A084310435B0001D301D09D
:1047D000013070474308FBD2704702D0C80FC007B2
:1047E00070470A0312130132F8D1420F072AF5D19C
:1047F000012200E0FF22C80F00028018C0057047A8
:104800008003000000210A00002104E000210A00CA
:10481000C11704E00022002306E0C0460022CB17A7
:1048200058405940C01A994130B5184CA21A002975
:1048300003D1010010D00020203A4C1512D104D22F
:10484000013A001849414C0DFAD3114CA24204D24E
:1048500012058918DB07C91830BDD243520D00205C
:104860000021F5E703D4013A00184941FBD50B328A
:104870004405C00A4D052843C90A640003D000243A
:1048800060416141E1E7E0D34408F8E73204000009
:10489000FE0700000A0DCC0F531E1B05C91A520556
:1048A00003D3C943404200D30131520D03D0531CFE
:1048B000DB0A07D0121B00206400611C89078912E3
:1048C000803A1203014BD21A70470000FF03000028
:1048D00051434343C9188C46110C83B24B4310B467
:1048E000040C614392B280B2504362431C041B0C1F
:1048F000001910BC59411304120CC01851416144F5
:10490000704700004840414048400E4B5B681847E4
:104910000C4B1B6818470C4A936F9B0802D2094B3B
:10492000DB681847F0B5146E556E576F166FFFF7BA
:10493000F6FF054A1466556657671667F0BD014BCA
:104940009B681847980D0020000000D0491A0028E5
:1049500008D1084670470000C10FC90700D5404282
:10496000002817D0F44603B40B4B1B68984706BCCD
:1049700081409E384042803107D20B0607D0490063
:10498000490AC0051043084360470130F8E7490A67
:104990008902F5E770470000B4130020014B5B6A01
:1049A00018470000980D0020132310B512481C78FA
:1049B000FEF756FF0100012C0AD003DD80220F48CC
:1049C00000F070F80E48FEF743FF0E4B186010BD64
:1049D0000A4C5422200000F065F80B4B6365A36578
:1049E000E36523666366A366E36623676367A3677D
:1049F000E3672362E361E5E753460000980D00207A
:104A00004C330000B41300200D4A001007B5604677
:104A100001880A0A0230DF2AFAD1C9B2820804D317
:104A2000028840880004104300E00068014A5050AA
:104A3000039007BD980D002010B5040002F00EFC95
:104A4000002804D0034B04199C4200D810BD024832
:104A5000FDF720FE0000042060D7001010B50C0008
:104A600002F002FF002804D0034B04199C4200D836
:104A700010BD0248FDF70EFE0000042060D70010B4
:104A800010B502F0F5FB10BD01480421014B184799
:104A90001004002071380010014B1B6818470000FB
:104AA00010040020014B5B68184700001004002030
:104AB0009A4200D2885470477047C046F8B55746AE
:104AC000DE464E464546E0B599460A9B07009A46A3
:104AD0000D9B884693460B9C9B073BD10C9B9C42AD
:104AE0003DD21E1B0B9415000C005E442A004B4661
:104AF000013521002020B847B542F7D1A0460B9CD4
:104B0000002C20D0454636195346321B013C185D17
:104B100029004B46B847002CF6D12B0035009846AB
:104B20000D9B9B070FD55B46EC1A0C9BA3420AD941
:104B3000464698462A004B46310020200134B847AB
:104B400001354445F6D32800F0BCBB46B246A94621
:104B5000A046F8BD16001500002CD3D1E0E71600E2
:104B6000002CCFD11500EEE7F0B54F464646D646AD
:104B7000C0B584B098460EAB1B7894469946129BFC
:104B80000D9C109F119E9A0725D4002E65D1BC4222
:104B900021D201221A409246202C00D1E9E00C9A41
:104BA000551E302202E0202C00D17BE001342A5532
:104BB000A742F8D85246002A0DD0B4420BD20C9A24
:104BC000551E3022202C02D171E0202C2DD0013432
:104BD0002A55B442F9D1DA063CD55A052ED4002C18
:104BE00028D10F9A102A00D1B6E0022A00D1BCE0E9
:104BF00030220C9C227001244A46002A65D15A07B3
:104C000000D499E02B220C9D2A55013403930C9B70
:104C100062460093029643460194FFF74FFF04B0AB
:104C2000E0BCBA46B146A846F0BD2024DA06EDD570
:104C30005A0503D4A74266D0B44264D00F9A102A12
:104C400071D0022A57D0202CE0D022000134302528
:104C50000C9FBD54202CD9D0CEE7012215001D4059
:104C6000AA461A4236D04A46002A4AD10C321A4283
:104C700047D1BC42A1D2202C91D1202E17D820247C
:104C8000DA06C3D55A051BD4202F01D0202ED5D14A
:104C90001F220F9D102D6FD0022DD8D162250C9FA1
:104CA000BD54D0E75246002A79D0202EBDD9202409
:104CB000DA06ABD55A0503D4202FE9D0202EE7D051
:104CC0000F9A102AA2D12024A0E72D220C9D2A554C
:104CD00001349BE7BC4200D37DE7202C00D05EE787
:104CE000DA06F0D55A05EED4202F62D0202EEAD174
:104CF00034001F22CDE7202C00D187E722000134A9
:104D0000CCE7013EB5E7621E012CC2D10F9A102AF2
:104D100000D06AE79A063BD558220C9C2270283AAC
:104D20006270022468E79A060ED4202CCBD0782239
:104D30000C9D2A55013486E71A0700D466E7202225
:104D40000C9D2A55013461E7202CBCD058250C9AC3
:104D500012191570013476E79A0608D558220C9C72
:104D6000227030226270022446E76032F7E7782230
:104D7000F5E7002A83D1B3E7A21E013C9D0603D4C8
:104D800078250C9FBD5460E758250C9FBD545CE707
:104D900078220C9C2270483A627002242CE7DA06D2
:104DA00000D433E75A058BD4202F00D044E71F22CC
:104DB0006FE73C001F226CE710B5002800D110BD42
:104DC00001F096FCFBE7C0460B0010B5002802D0AE
:104DD00049681B68984710BDF0B557464E46454692
:104DE000DE46E0B599B08246894690460893229AFD
:104DF000239B10001900FFF74AF9002800D0CDE0EE
:104E0000229823990122D94B5242FFF73BF90028FF
:104E100000D0C3E0229823990122D54B5242FFF7DC
:104E20001BF9002800D0B9E0229823990022002322
:104E3000FFF712F9002800D0F1E1229E239F802382
:104E4000269ADB001A400D92269A1A4201D10623B7
:104E500024938023269A1B011A403B00934609960F
:104E6000334300D0B3E0002A00D0C2E10023002485
:104E70000A930B94002304250993259B0024AB423D
:104E800000D95C1B0223269A1A400C92269A1342E0
:104E900003D06B426B415B421C40099B002B07D047
:104EA0000A9A0B9B30003900FFF76DF806000F00DF
:104EB0002298239900220023FFF7CEF8002803D080
:104EC000802109067B181F00269AAA4B009601979D
:104ED0001340089E0493249B03940293424633009C
:104EE0004946504600F0AAF90400002D67D0202062
:104EF000269A4946024013005A4253415B42621CC3
:104F000018400A92330022004530D047099A6F1E9C
:104F1000D317D4185C40D30F9B46002501E0202D09
:104F200013D008AA94461F23200063440A210135A8
:104F30005E19FEF7DBFD3031317020000A21FEF7EB
:104F4000D5FD26000400092EE9D805230693002389
:104F500004930A3303935B46089E029310AB0A9AAC
:104F6000009349463300504605970195FFF7FCFD35
:104F70000C9A0400002A22D04246851A259AAA4299
:104F80001DD9B04657461600220043464946202008
:104F90000135B8470134AE42F6D810E0269B4246B0
:104FA0000493259B49460393249B50460293229BDE
:104FB000239C00930194089B00F040F9040020001A
:104FC00019B0F0BCBB46B246A946A046F0BD6A4B3C
:104FD00078009C46400D6044FFF76AF8674A684BCA
:104FE000FEF7EFFF674A684BFEF7C4FF674A3B03D3
:104FF0001B0B1A4304000D0009981100644B00229A
:10500000FEF7AFFF634A644BFEF7DBFF02000B00C5
:1050100020002900FEF7AEFFFFF762F80990FFF7C6
:1050200047F85E4A5E4B04000D00FEF7CAFF0022FF
:105030005C4BFEF79FFFFFF753F85B4A5B4B290081
:105040000C902000FEF7BDFF04000C980D00FFF748
:105050002FF8574A574BFEF7B4FF02000B00200011
:105060002900FEF77EFF04000D0002000B000A94E9
:105070000B95FEF7A6FF04000D000A980B9902009D
:105080000B00FEF777FF00220E900F914A4B200095
:105090002900FEF778FF0022484BFEF76BFF020065
:1050A0000B0020002900FEF76EFF0022444BFEF7A4
:1050B00061FF02000B0020002900FEF764FF0A9A3E
:1050C0000B9B0D0080210400C9050020FEF749FF5D
:1050D00002000B0020002900FEF74CFF02000B002D
:1050E0000E980F99FEF74FFF0022284BFEF742FF64
:1050F000344B0C9C9C46644423050022FEF761FF60
:1051000004000D0002000B00300039000A940B95DA
:10511000FEF7A2FF00285DD123002A00C6250999C9
:1051200063318D42AD4159466D420435002900D1AD
:10513000A3E6134363D030003900234A234BFEF724
:1051400099FF002807D0002230003900204BFEF7DD
:1051500083FF002853D1249B002B00D18DE60D9BAB
:105160005A1E9341249AD31A249386E6FFFFEF7FB9
:10517000FFFFEFFFFFF7FFFF01FCFFFFFB799F50F1
:105180001344D33FB3C8608B288AC63F0000F03F6A
:105190000000F83F61436F63A787D23F71A379098D
:1051A0004F930A400000E03F1655B5BBB16B02407B
:1051B000EF39FAFE422EE63F00002C40000024406A
:1051C00000001840FF0300002D431CEBE2361A3F9D
:1051D00080842E41099B0022013B09932000164B3D
:1051E0002900FEF7D0FE0A00010003000A910B928D
:1051F00094E7002300240A930B9400230993249A34
:10520000099B9A4214DDD31A013B24938023269AEA
:10521000DB001A4300230025269209932DE6802205
:1052200012069446229B1E00239B63441F0006E641
:1052300000232493EAE7C04600002440F0B5454629
:10524000DE464E465746E0B595B08B4690469946A9
:105250001E9A1F9B0A9019001000209DFEF717FF51
:10526000002800D0B0E11E981F990122C74B52427E
:10527000FEF7F2FE002800D037E11E981F990122A8
:10528000C34B5242FEF7FEFE002800D0A7E01E9856
:105290001F990022BF4BFEF7F5FE002800D088E0E2
:1052A0001E981F990022BC4BFEF7D6FE002800D0A6
:1052B0007FE01E981F9900220023FEF7CDFE0028F4
:1052C00000D0FAE000230B938023229C229ADB007B
:1052D0001C401A4200D102E1092D00D87CE106A948
:1052E0008C462C00172200233021093C62440133F4
:1052F000D154EF1A202B00D132E1A342F7D1002282
:10530000A44B069207931E981F99FEF7E9FE05002D
:10531000FEF7CEFE02000B001E981F99FEF721FE3D
:10532000069A079BFEF74DFE08900991FEF7FCFEDA
:105330000600FEF7B9FE02000B0008980999FEF777
:1053400010FE0022954B08900991FEF79BFE002865
:1053500000D1D2E001363000FEF7A6FE069A079B88
:10536000FEF788FE002801D000260135AA46002F4E
:1053700000D098E02800FEF79BFE02000B001E986C
:105380001F99FEF7EEFD854B002206000F00FEF789
:1053900063FE0CAB9A46002845D10022300039004C
:1053A0007E4BFEF76FFE00283DD1EB073BD5013564
:1053B00039E0229B42460493219B594603930A9865
:1053C0001E9B1F9C0295009301944B46FFF704FD22
:1053D00015B0F0BCBB46B246A946A046F0BD229B24
:1053E0005B0767D403226E4B2299019203912199A6
:1053F0000291009342464B4659460A98FFF75EFBDE
:10540000E6E706AA94461723280063440A210134DC
:105410001E19FEF743FB3031280031700A21FEF7D8
:105420003DFB051E76D0202CEBD10323229A13409E
:10543000012B1DD1219B002B1AD00B9B002B00D0E0
:10544000BBE0229A0C33134200D0B6E0219BA3426A
:1054500000D887E006AB9C4617223023624404E064
:105460002199013413558C4259D0202CF8D1202495
:10547000229B01940393219B02935346B9E706AA0A
:10548000944617230A216344300001341D19FEF7A6
:105490002DFB3031297030000A21013FFEF726FB39
:1054A000092E46D90600202CE9D155460CAB202404
:1054B0009A46B8E704223B4B96E71E9A1F9B0020B2
:1054C0000021FEF74EFD01230B938023229C229A9C
:1054D000DB001E901F911C401A4200D0FCE6002207
:1054E000314B0627069207930DE7229B0393219BDE
:1054F0000293042301932D4B7BE70022089809991E
:10550000264BFEF7A9FD002800D02FE7002E4FD133
:1055100001362BE70323229A1340012B66D0202C5F
:10552000A6D00B9B002B1FD02D23524613550134C0
:105530009EE75546202CB9D030233A19002F08D0C9
:10554000172006A9013409180B55202CAED094421F
:10555000F6D10CAB9A462E2352461355013462E71E
:105560002024CCE6202C83D0229B5B0708D4229BEE
:105570001B0700D47CE7202352461355013477E7FC
:105580002B2352461355013472E7C046FFFFEFFF4D
:10559000FFFFEF7F65CDCD4165CDCDC10000E03F80
:1055A000B4D70010ACD7001080842E41BCD70010B7
:1055B000F30700D4DAE60136D8E6219B013B2193BC
:1055C000A34200D946E7AAE7229B0393219B0293BB
:1055D00003230193074B0CE7074BEA009B185C6819
:1055E0001B682F000693079400248CE6219B002B58
:1055F00095D022E7B8D70010D0DB0010F0B55746A1
:10560000DE464E464546E0B5A5B01F002E9B9146AE
:105610000D93CA4ACA4B82468B461A60002900D1B4
:1056200029E2002338789846002800D12BE2C54BA8
:1056300044460C93C44B55464E460E930AE0631CF9
:105640009846220033005946A84744463878002837
:1056500000D187E001372528F1D108239A46043B81
:105660009946023B9846013B00229C460B943878B1
:10567000791C0300203BDBB2102B03D80C9C9B0051
:10568000E3589F460300303B0B9C0B92092B3AD901
:10569000002398462A2800D1DDE000239A462E28D0
:1056A0004BD00300683BDBB2122B1ED80E9A9B0036
:1056B000D3589F4663460F001A43D8E743460F006E
:1056C0001A43D4E74B460F001A43D0E710230F00CC
:1056D0001A43CCE753460F001A43C8E780235B0008
:1056E0000B9A78781A430B9201310F0067284FD834
:1056F0002428A4D90300253BDBB2422B9FD8934931
:105700009B00CB589F46002398460B9B47469C46E0
:1057100000E00131BB00DB195B001F180878303F47
:105720000300303B092BF4D963460B930023B846A2
:105730009A460F0001312E28B3D180200B9AC00069
:1057400002430B9230225242944678780B008444F4
:105750006246092A00D8AAE12A2800D1B9E10F003F
:1057600001319EE7A046AA46B146C84503D30123AE
:105770005B424B4498464B46424659460020D04730
:10578000200025B0F0BCBB46B246A946A046F0BDFD
:1057900001006939C9B20F2900D950E701238B40B4
:1057A0009C466B4B994663464A4613400F936246AC
:1057B0004B461A4200D068E10A2956D0072900D08A
:1057C0003DE70D9B02CB9846002900D092E10B9B50
:1057D00010211A008A4310001131084381468020AD
:1057E0001A00C0000240110003421CD114AB9C46B9
:1057F0001F220F2362440D959C4615000F9B0B94AE
:1058000002E0202B0CD0110064460C402000373001
:10581000092C00D807380133E8540A090F29F0D8B9
:105820000B9C0D9D0F934B46082206935346059201
:1058300008320392002204930F9B029201931CAB47
:1058400022000093594633002800FFF78DF94346A4
:1058500004000D93FAE60D9B04CB9046002A79DBF9
:1058600078780D930F00013117E70D9B02CB14934D
:105870000B789C4618005346002B00D134E10028D9
:1058800015D05346013B013399460D940B9C894436
:105890004A460B00A14601E0934203D05C780133F5
:1058A000002CF9D14A465B1A0D9C0B920F93802372
:1058B000DB0099460B9A13400D934B461A4204D0D5
:1058C0000F9B534501D953460F93022399460B9AD8
:1058D00013400B934B46134200D1F5E16346002B76
:1058E00000D1D6E10D9B002B00D182E10B1BD146EC
:1058F00031009A463B00A1442E005F464D462200EF
:105900009B46894609E04B463900541CB047534634
:10591000185D002800D192E122009542F3D14B4658
:105920005A46A946BB46350017001E004C460B9B45
:10593000002B00D0ADE1149B0D9387E6FD550010C0
:105940004013002034DA001078DA0010C4DA0010B6
:10595000419000000B9A283802430B924246524273
:10596000787890460F000D93013196E678786C2890
:1059700000D15DE180230B9A5B001A430B92013149
:10598000B3E680239B00ABE67878682800D148E135
:1059900080230B9A01311A430B92A6E6672800D1A7
:1059A000B2E0472800D11AE1452800D11CE10B9A4A
:1059B0000721049242460D9B0392073352468B43C4
:1059C000190002920CC92800009201930D91220047
:1059D00033005946FFF700FA040037E6462800D1A5
:1059E0008DE00B9A0721049242460D9B03920733E8
:1059F00052468B43190002920CC928000092019371
:105A00000D91220033005946FFF718FC04001DE6F3
:105A1000631C98462200330059462520A847444677
:105A200014E60D9B04330F93631C99460B9B9A0756
:105A300000D40AE10D9B2200187859463300A8478C
:105A400043464444012B00D86FE1B0462E002500A8
:105A50004C46B9465F4622004346013439002020B7
:105A6000B047AC42F7D12C00BB4635004F46464606
:105A70000F9B0D93EAE5D64B38789A46002398465B
:105A8000002800D0D3E500246FE66F2842D000D86C
:105A9000FDE11023782800D19BE00B9A9A430B92EA
:105AA0000A239C46002314930A330F9338E0574689
:105AB0000B9AB900C919490001330F181878303F03
:105AC000010030390929F4D9BA460B921F00591C3C
:105AD000E7E50D9BB87804CB0237D143C9170A40DC
