:020000041000EA
:10000000002008205D0100101301001015010010F0
:100010001101001011010010110100101101001058
:100020001101001011010010110100101701001042
:100030001101001011010010190100101B01001026
:100040001D0100101D0100101D0100101D010010F8
:100050001D0100101D0100101D0100101D010010E8
:100060001D0100101D0100101D0100101D010010D8
:100070001D0100101D0100101D0100101D010010C8
:100080001D0100101D0100101D0100101D010010B8
:100090001D0100101D0100101D0100101D010010A8
:1000A0001D0100101D0100101D0100101D01001098
:1000B0001D0100101D0100101D0100101D01001088
:1000C0001D0100101D0100101D0100101D01001078
:1000D0001D0100101D0100101D0100101D01001068
:1000E0001D0100101D0100101D0100101D01001058
:1000F0001D0100101D0100101D0100101D01001048
:100100001D0100101D0100101D0100101D01001037
:1001100000BE00BE00BE00BE00BE00BEEFF3058004
:10012000103800BEF2EB8871AC360110DC360110DD
:10013000A801001090A31AE7D3DEFFFF42012110AF
:10014000FF01000064420100793512AB4FF000005E
:100150002049086006C881F3088810474FF05040D6
:10016000006810B14FF00000F2E70FA40ECC002998
:1001700002D000F015F8F9E71749184A002000E00E
:1001800001C19142FCD1002080F30A8814498847BC
:10019000144988471449884700BEFDE701C901C2D8
:1001A0009A42FBD3704700BFDC36011010010020DB
:1001B000D00D00209C430110000008200000082002
:1001C0009C430110001008200010082000000000CF
:1001D0007047000008ED00E0D00D002098130020CB
:1001E000DD53001079020010A1530010F8B500BFD4
:1001F000064B0749C91A891048BF0131491003D07D
:10020000044B0BB101481847704700BFD00D0020C8
:10021000D00D00200000000008B5054B1BB10549BA
:100220000548AFF30080BDE80840FFF7E1BF00BF1D
:10023000000000000813002010C1001008B50C4990
:100240000C4805F0F7FC0321042002F0B5F8032167
:10025000052002F0B1F800220121042002F0CAF8C2
:1002600000220121052002F0C5F8002008BD00BFD2
:10027000A0860100EC0600202DE9F04FADF22C5DC8
:1002800050220021F6A806F023FB0023192020931A
:1002900002F0C4F819234FF0010242EC4430FFF79A
:1002A000CDFF002840F08C8305F002FA652404E0BD
:1002B000013C07D0642002F051FE002005F088FDCB
:1002C0000028F5D0B74805F081FA02F0EBFE0B46A6
:1002D0003C2200210A9024A80B9306F0F9FA02F0C0
:1002E000E1FE0B463C220021069033A8079306F05E
:1002F000EFFA02F0D7FE0B463C2200211C9042A8E8
:100300001D9306F0E5FA02F0CDFE0B463C220021DB
:100310000C9051A80D9306F0DBFA02F0C3FE0B46D9
:100320003C2200211A9060A81B9306F0D1FA02F03B
:10033000B9FE3C2200216FA806F0CAFA02F0B2FE14
:100340000B463C2200210E907EA80F9306F0C0FAC7
:1003500002F0A8FE0B463C22002110908DA81193BC
:1003600006F0B6FA02F09EFE0B463C2200211290E7
:100370009CA8139306F0ACFA02F094FE0B463C22C4
:1003800000211490ABA8159306F0A2FA02F08AFEA1
:100390000B463C2200211690BAA8179306F098FA53
:1003A00002F080FE0B463C2200211E90C9A81F933C
:1003B00006F08EFA02F076FE0B463C2200211890E1
:1003C000D8A8199306F084FA02F06CFE0B46089048
:1003D0003C220021E7A8099306F07AFA00231F4681
:1003E000DFF8E491DFF8E48105930DF2244502F093
:1003F00059FE0A9A6C4B801A0B9A61EB02019842E3
:1004000071F1000180F2B48002F04CFE069A674B55
:10041000801A079A61EB0201834277EB0101C0F277
:100420005C8102F03FFE1C9BC01A1D9B61EB030127
:10043000804577EB0101C0F2E38102F033FE0C9BB3
:10044000C01A0D9B61EB0301804577EB0101C0F2FF
:100450001081574A6FAB07CA03C31A80059B002B54
:1004600040F0458102F01EFE1A9BC01A1B9B61EBF7
:100470000301059B804573EB0101C0F2638202F02A
:1004800011FE0E9BC01A0F9B61EB0301804577EBB9
:100490000101C0F2E38002F005FE109BC01A119B1F
:1004A00061EB0301804577EB0101C0F2C98002F0E6
:1004B000F9FD129BC01A139B61EB0301804577EB9A
:1004C0000101C0F2AF8002F0EDFD149BC01A159B34
:1004D00061EB0301804577EB0101C0F2958002F0EA
:1004E000E1FD169BC01A179B61EB0301804577EB7A
:1004F00001017BDB02F0D6FD1E9BC01A1F9B61EB46
:100500000301804577EB010162DB02F0CBFD189B14
:10051000C01A199B61EB0301804577EB010135DBC4
:1005200002F0C0FD089BC01A099B61EB03018045E6
:1005300077EB0101BFF65BAF02F0B4FD034600208C
:10054000CDE9083105F0BAF81A4B1B68002B40F3CF
:100550005381811C00F00782174AD054154A013399
:100560001360164B144A1649E7A804F06BFE3EE7E9
:1005700002F098FD19234FF00102CDE90A0142EC87
:10058000403002F08FFDCDE906013DE702F08AFD23
:100590000C4BCDE9180193E80300D8908DF8641353
:1005A000BEE700BF1CC10010C0CF6A001FA107003A
:1005B00090C100102013002090120020441300204E
:1005C00050C2001010C20010DCC100103F420F00EA
:1005D00006234FF0000242EC4030B24BC9AC0FCBC7
:1005E00007C424F8023B1B0C23708EE702F05AFD6F
:1005F000AD4BCDE9160193E80300ADF8EC12090C00
:10060000BA908DF8EE1275E702F04CFDA74BCDE9DC
:10061000140193E80300ADF8B012090CAB908DF80B
:10062000B2125CE702F03EFDA14BCDE9120193E866
:100630000300ADF87412090C9C908DF8761242E715
:1006400002F030FD9B4BCDE9100193E80300ADF8BB
:100650003812090C8D908DF83A1228E702F022FD2D
:10066000954BCDE90E0193E803007E90ADF8FC11A7
:1006700011E702F017FD914A51AB0C900D9107CA9A
:1006800003C3C9A81A7005F023F9E7A805F020F9FB
:1006900051A805F01DF942A805F01AF933A805F094
:1006A00017F924A805F014F99CA805F011F9ABA8D6
:1006B00005F00EF9BAA805F00BF96FA805F008F9D6
:1006C00060A805F005F97EA805F002F98DA805F0EF
:1006D000FFF8D8A805F0FCF8BBE602F0E3FC19230C
:1006E0004FF00002CDE9060142EC403099E6744E2D
:1006F000744C01F047FB60B30DF5856001F090FC90
:100700000DF585631F543146184620AA06F04CF8B3
:10071000209AF6AB53F82230F6A901330DF5757A1D
:1007200041F822305AF8042F214621A804F08AFD0E
:100730006FA806F0C5FA6FAB21A9184406F01AF9A4
:10074000AA45EFD1B9F80030038001F01BFB002867
:10075000D2D1824602F0A6FC1A9BC01A1B9B61EB09
:10076000030180457AEB0101BFF689AE02F09AFCE5
:10077000554A60AB1A901B9107CA03C31A8014260E
:10078000DFF83CA1DFF860B170B200F0BDFA32468C
:10079000514660A804F056FD60A806F091FAC1B277
:1007A00060A801F0F5FA032000F026F9052002F018
:1007B000D5FB0B2402E0642002F0D0FB01F0DCFA50
:1007C00008B1013CF7D101F0D7FA88B9013EDBD17D
:1007D0003E4E052060AC00F00FF90FCE0FC496E836
:1007E000030044F8040B24F8021B090C217046E6B0
:1007F000584604F0EBFFE9E7821C7FF4ADAEB0E6AB
:1008000002F050FC03464FF0010B3148CDE91C319A
:1008100004F0DCFF2F4804F0D9FF00212E4805F03A
:1008200057F82E2004F090FF2C4805F051F85E4652
:100830005C46DFF8B8A02FE0782B30D002F032FC15
:1008400042F21073C01841F100034FF0FF316FF016
:100850000042814272EB030C3CBF084613465946E6
:10086000CDE90203009701231D480DF5856205F0CF
:1008700007FA002813DB1B4805F02AF80F2E5BD17E
:100880004846013405F024F8802C3FF4D6AD14F02E
:100890000F065FFA84FB2BD01BF07803CCD15046B7
:1008A000EAE700BF00C20010F8C10010F0C100105C
:1008B000E8C10010E0C10010D8C1001084C10010D0
:1008C0009CC10010A0C10010A4C10010C0C1001044
:1008D00038C1001048C100107CC1001018C10010C0
:1008E000EC06002014C10010B0C1001010C10010AF
:1008F0002146354804F0ECFF02F0D4FB42F21073BD
:100900004FF0FF32C0186FF0004341F10001824206
:1009100073EB01063CBF104619460097CDE9020172
:100920000123594629480DF5856205F0A9F90028EB
:1009300004DB402004F008FF2548A2E72E2004F045
:1009400003FFF9E702F0AEFB224A60AB1A901B915D
:1009500007CA03C320481A8000F0DAFA059000287D
:100960003FF48DAD0BE71D4AD7541D4B1F60136834
:100970001C4A93420CD01C49184806F04DF8014619
:1009800000287FF4EEAD5022F6A805F0A1FFE8E5BF
:10099000124B164A5B689342EDD1154C154E4FF041
:1009A000060C0FCE0FC496E8070003C44FF0010EEB
:1009B00022704EEC40C002F075FBCDE91E01DAE773
:1009C00002F080FD70E400BF7CC10010EC06002046
:1009D00018C10010A4C10010600600209012002071
:1009E000201300204255524E3CC200105F4F4E0073
:1009F0004413002020C200102DE9F0474FF0000AF8
:100A000082B08146002105208DF806A00D2502F058
:100A100053FB4AEC40500124254E0520002102F0F2
:100A20004BFB22460DF1070130688DF807400BF0B3
:100A300047FB514623460DF1060230680BF03CFBA4
:100A40000520002102F038FB44EC40500520002135
:100A500002F032FB9DF80630052023F0070343EA3D
:100A6000090300218DF8063002F026FB4AEC4050C5
:100A70000520002102F020FB812322460DF1070111
:100A800030688DF807300BF01BFB22460DF1060194
:100A900030680BF015FB0520002102F00DFB44EC43
:100AA00040500520002102F007FB02B0BDE8F087AE
:100AB0006C0600202DE9F04341F6786100240546DC
:100AC0008D4A83B005E0DCB252F82410002900F012
:100AD000BF808D4204F10103F5D8884804F0F8FE88
:100AE00024014FF00008052000218DF80680C14642
:100AF00002F0E2FA0D2748EC40700520002102F0D8
:100B0000DBFA1D237E4E0DF10701012230688DF8BE
:100B100007300BF0D5FA012341460DF1060230688B
:100B20000BF0CAFA0520002102F0C6FA4FF00108C6
:100B300048EC40700520002102F0BEFA9DF8063016
:100B4000052023F0F003234300218DF8063002F046
:100B5000B3FA49EC40700520002102F0ADFA9D2364
:100B60000DF10701012230688DF807300BF0A8FA6B
:100B700001220DF1060130680BF0A2FA05200021D8
:100B800002F09AFA48EC40700520002102F094FA35
:100B90005C4B9D425ED841F678639D4200F0A9808F
:100BA0004FF223439D428CBF402344230520002164
:100BB0008DF8063002F080FA49EC407005200021E3
:100BC00002F07AFAAF230DF10701012230688DF8A7
:100BD00007300BF075FA01220DF1060130680BF0B9
:100BE0006FFA0520002102F067FA48EC40700520FA
:100BF000002102F061FA0023052000211D468DF836
:100C000006300D2402F058FA45EC40400520002142
:100C100002F052FAB0230DF10701012230688DF87D
:100C200007300BF04DFA01220DF1060130680BF090
:100C300047FA0520002102F03FFA4FF0010343EC90
:100C400040400520002102F037FA03B0BDE8F083F0
:100C5000902446E70223052000218DF8063002F09B
:100C60002BFA49EC40700520002102F025FAB6234A
:100C70000DF10701012230688DF807300BF020FAE2
:100C800001220DF1060130680BF01AFA052000214F
:100C900002F012FA48EC40700520002102F00CFA34
:100CA0006423052000218DF8063002F005FA49EC96
:100CB00040700520002102F0FFF9BA230DF1070171
:100CC000012230688DF807300BF0FAF901220DF19E
:100CD000060130680BF0F4F90520002102F0ECF970
:100CE00048EC40700520002102F0E6F903B0BDE8B1
:100CF000F08348235AE700BF6CC70010B8C2001049
:100D00006C0600201FA107002DE9F04F03460027C5
:100D100085B00520002101938DF80E700D2402F09E
:100D2000CBF947EC40404FF0090B784D05200021EE
:100D300002F0C2F90DF10F01012228688DF80FB001
:100D40000BF0BEF9012339460DF10E0228680BF0B5
:100D5000B3F90520002102F0AFF9012646EC40402E
:100D60000520002102F0A8F99DF80E30052063F05F
:100D70007F0300218DF80E3002F09EF947EC4040D1
:100D80004FF0890A0520002102F096F932460DF154
:100D90000F0128688DF80FA00BF092F932460DF183
:100DA0000E0128680BF08CF90520002102F084F96F
:100DB00046EC40400520002102F07EF9052000218C
:100DC0008DF80E7002F078F947EC404005200021C4
:100DD00002F072F932460DF10F0128688DF80FB05C
:100DE0000BF06EF9334639460DF10E0228680BF010
:100DF00063F90520002102F05FF946EC4040052030
:100E0000002102F059F99DF80E30052023F07003FF
:100E100043F0700300218DF80E3002F04DF947ECDD
:100E200040400520002102F047F932460DF10F0144
:100E300028688DF80FA00BF043F932460DF10E0132
:100E400028680BF03DF90520002102F035F946EC49
:100E500040400520002102F02FF9052000218DF8E7
:100E60000E7002F029F947EC40400520002102F005
:100E700023F932460DF10F0128688DF80FB00BF001
:100E80001FF9334639460DF10E0228680BF014F9AC
:100E90000520002102F010F946EC40400520002119
:100EA00002F00AF9019B9DF80E2043EAE3730E2B32
:100EB000A8BF0E2322F00F02334413430520002164
:100EC0008DF80E3002F0F8F847EC40400520002184
:100ED00002F0F2F832460DF10F0128688DF80FA0EC
:100EE0000BF0EEF832460DF10E0128680BF0E8F831
:100EF0000520002102F0E0F846EC404005200021EA
:100F000002F0DAF805B0BDE8F08F00BF6C060020F3
:100F10002DE9F04F064683B0152001F07FFA4FF01F
:100F20000107152347EC443047EC40300B2001F01B
:100F300075FA4FF000080B2448EC44404246414605
:100F4000204601F057FA47EC40400D2001F066FAC8
:100F50000D2547EC445042464146284601F04AFAE6
:100F600047EC405001210E2001F026FA01210F200C
:100F700001F022FA01210C2001F01EFA47EC444056
:100F800048EC40406420002101F0D0FF48EC444090
:100F9000D84C052001F0E2FF0A2002F0BFF82068DB
:100FA000D549B06004F08AFE20684FF0020E034677
:100FB000C22653F8041F00F5805C03F54052C2F8C6
:100FC00000E0026801EA0E0182F0070203F5005317
:100FD00002F0CF02CCF800208DF8058019608DF862
:100FE000076048EC405001220DF107010BF068F852
:100FF0000123414620680DF105020BF05DF847EC36
:101000004050BE4ABE4B012814BF1046184604F09B
:101010005FFCBC4B9DF80510BB48112918BF184652
:1010200004F056FC142001F0F9F9142048EC4400B7
:101030000122414601F0DEF9052000218DF80680ED
:1010400002F03AF848EC40500520002102F034F854
:10105000C0230DF10701012220688DF807300BF045
:101060002FF801220DF1060120680BF029F8052068
:10107000002102F021F8012647EC40500021052014
:1010800002F01AF83046FFF7B7FC0A2001F066FFBD
:10109000052000218DF8068002F00EF848EC405043
:1010A0000520002102F008F8242332460DF1070143
:1010B00020688DF807300BF003F8334641460DF1F8
:1010C000060220680AF0F8FF0520002101F0F4FF75
:1010D00047EC40500520002101F0EEFF9DF806305E
:1010E000052043F0080300218DF8063001F0E4FFED
:1010F00048EC40504FF0A40A0520002101F0DCFF2D
:1011000032460DF1070120688DF807A00AF0D8FFDC
:1011100032460DF1060120680AF0D2FF05200021B9
:1011200001F0CAFF47EC40500021052001F0C4FF48
:101130004FF47A7001F012FF4046FFF75DFC0A2081
:1011400001F00CFF052000218DF8068001F0B4FFAE
:1011500048EC40500520002101F0AEFF32460DF171
:10116000070120688DF807600AF0AAFF3346414660
:101170000DF1060220680AF09FFF0520002101F012
:101180009BFF47EC40500520002101F095FF9DF8A2
:101190000630052063F07F0300218DF8063001F052
:1011A0008BFF48EC40500520002101F085FF812392
:1011B00032460DF1070120688DF807300AF080FFF4
:1011C00032460DF1060120680AF07AFF0520002161
:1011D00001F072FF47EC40500520002101F06CFF48
:1011E000052000218DF8068001F066FF48EC405094
:1011F0000520002101F060FF8E2332460DF107012A
:1012000020688DF807300AF05BFF32460DF10601C9
:1012100020680AF055FF0520002101F04DFF47EC42
:1012200040500520002101F047FF052000218DF8E6
:10123000068001F041FF48EC40504FF08F0B052035
:10124000002101F039FF32460DF1070120688DF8C9
:1012500007B00AF035FF32460DF1060120680AF0AA
:101260002FFF0520002101F027FF47EC405005200B
:10127000002101F021FF052000218DF8068001F0FA
:101280001BFF48EC40500520002101F015FF3246BD
:101290000DF1070120688DF807A00AF011FF324612
:1012A0000DF1060120680AF00BFF0520002101F076
:1012B00003FF47EC40500520002101F0FDFE6D23A7
:1012C000052000218DF8063001F0F6FE48EC405074
:1012D0000520002101F0F0FE862332460DF10701C2
:1012E00020688DF807300AF0EBFE32460DF106015A
:1012F00020680BE06C06002040420F00F8C200108E
:10130000DCC2001014C3001034C300100AF0D8FE71
:101310000520002101F0D0FE47EC405005200021BF
:1013200001F0CAFE9623052000218DF8063001F059
:10133000C3FE48EC40500520002101F0BDFE87238C
:1013400032460DF1070120688DF807300AF0B8FE2B
:1013500032460DF1060120680AF0B2FE0520002198
:1013600001F0AAFE47EC40500520002101F0A4FE48
:10137000052000218DF806B001F09EFE48EC40509B
:101380000520002101F098FE882332460DF1070167
:1013900020688DF807300AF093FE32460DF1060101
:1013A00020680AF08DFE0520002101F085FE47EC43
:1013B00040500520002101F07FFEB549B54804F0FA
:1013C00087FA052000218DF8068001F075FE48ECB3
:1013D00040500520002101F06FFEA02332460DF1A0
:1013E000070120688DF807300AF06AFE32460DF1D9
:1013F000060120680AF064FE0520002101F05CFE71
:1014000047EC40500520002101F056FE082305203E
:1014100000218DF8063001F04FFE48EC40500520C9
:10142000002101F049FEA12332460DF10701206899
:101430008DF807300AF044FE32460DF106012068AF
:101440000AF03EFE0520002101F036FE47EC405038
:101450000520002101F030FE052000218DF80680D6
:1014600001F02AFE48EC40500520002101F024FE46
:10147000202332460DF1070120688DF807300AF06D
:101480001FFE334641460DF1060220680AF014FEA5
:101490000520002101F010FE47EC405005200021FE
:1014A00001F00AFE052000219DF806A08DF80680B7
:1014B00001F002FE48EC40500520002101F0FCFD47
:1014C000212332460DF1070120688DF807300AF01C
:1014D000F7FD334641460DF1060220680AF0ECFDA7
:1014E0000520002101F0E8FD47EC405005200021D7
:1014F00001F0E2FD9DF8063043EA0A23082B02D0F2
:10150000654804F0E5F90025644F0D263846FFF7DD
:10151000D1FA052000218DF8065001F0CDFD45ECF3
:1015200040600520002101F0C7FD1D230DF10701DA
:10153000012220688DF807300AF0C2FD01232946F8
:101540000DF1060220680AF0B7FD0520002101F028
:10155000B3FD4FF0010343EC40600520002101F092
:10156000ABFD9DF806308F2B4FEA131200F2F28389
:101570004B4B53F82230BB4240F0EC830026052150
:10158000484804F0A5F9052000218DF806600D25D6
:1015900001F092FD46EC40504FF01D09052000215E
:1015A00001F08AFD0DF10701012220688DF80790F6
:1015B0000AF086FD012331460DF1060220680AF08B
:1015C0007BFD0520002101F077FD4FF0010747EC7E
:1015D00040500520002101F06FFD9DF806300520E8
:1015E00023F00E0343F0020300218DF8063001F0D2
:1015F00063FD46EC40500520002101F05DFD9D2378
:101600000DF10701012220688DF807300AF058FD1E
:1016100001220DF1060120680AF052FD052000218B
:1016200001F04AFD47EC40500520002101F044FD47
:10163000052000218DF8066001F03EFD46EC40508B
:101640000520002101F038FD0DF10701012220687D
:101650008DF807900AF034FD012331460DF10602A2
:1016600020680AF029FD0520002101F025FD47EC46
:1016700040500520002101F01FFD9DF8063003F0C9
:101680000E03022B12D0084804F022F90EE000BF2E
:1016900020E01C1A78C2001064C3001048E8010062
:1016A0006CC7001098C20010D4C30010002605209B
:1016B00000218DF806600D2501F0FEFC46EC40503F
:1016C0004FF01E090520002101F0F6FC0DF1070185
:1016D000012220688DF807900AF0F2FC01233146C0
:1016E0000DF1060220680AF0E7FC0520002101F058
:1016F000E3FC4FF0010747EC40500520002101F0CA
:10170000DBFC9DF80630052023F0F00343F0700366
:1017100000218DF8063001F0CFFC46EC405005204A
:10172000002101F0C9FC9E230DF107010122206870
:101730008DF807300AF0C4FC01220DF10601206883
:101740000AF0BEFC0520002101F0B6FC47EC405039
:101750000520002101F0B0FC052000218DF8066075
:1017600001F0AAFC46EC40500520002101F0A4FC49
:101770000DF10701012220688DF807900AF0A0FC06
:10178000012331460DF1060220680AF095FC052080
:10179000002101F091FC47EC40500520002101F0B0
:1017A0008BFC9DF806301B09072B02D0414804F042
:1017B0008FF80026052000218DF806600D2501F028
:1017C0007BFC46EC40504FF01E090520002101F043
:1017D00073FC0DF10701012220688DF807900AF0D3
:1017E0006FFC012331460DF1060220680AF064FC0B
:1017F0000520002101F060FC4FF0010747EC40504C
:101800000520002101F058FC9DF80630052043F02A
:10181000040300218DF8063001F04EFC46EC4050E8
:101820000520002101F048FC9E230DF10701012253
:1018300020688DF807300AF043FC01220DF1060103
:1018400020680AF03DFC0520002101F035FC47EC42
:1018500040500520002101F02FFC052000218DF8CB
:10186000066001F029FC46EC40500520002101F003
:1018700023FC0DF10701012220688DF807900AF082
:101880001FFC012331460DF1060220680AF014FC0A
:101890000520002101F010FC47EC405005200021FC
:1018A00001F00AFC9DF806305A0707D4024804F0FC
:1018B0000FF803E004C4001038C40010002605200F
:1018C00000218DF806600D2501F0F6FB46EC405036
:1018D0000520002101F0F0FBA6230DF107010122F4
:1018E00020688DF807300AF0EBFB01220DF10601AC
:1018F00020680AF0E5FB0520002101F0DDFB4FF038
:10190000010747EC40500520002101F0D5FB0520E0
:1019100000218DF8066001F0CFFB46EC40504FF0FF
:1019200009090520002101F0C7FB0DF10701012283
:1019300020688DF807900AF0C3FB012331460DF1B2
:10194000060220680AF0B8FB0520002101F0B4FB74
:1019500047EC40500520002101F0AEFB9DF8063019
:10196000052063F07F0300218DF8063001F0A4FB11
:1019700046EC40504FF0890A0520002101F09CFB05
:101980000DF10701012220688DF807A00AF098FBED
:1019900001220DF1060120680AF092FB05200021CA
:1019A00001F08AFB47EC40500520002101F084FB48
:1019B000052000218DF8066001F07EFB46EC4050CA
:1019C0000520002101F078FB0DF1070101222068BC
:1019D0008DF807900AF074FB012331460DF10602E1
:1019E00020680AF069FB0520002101F065FB47EC47
:1019F00040500520002101F05FFB9DF806300520D6
:101A000023F0700343F0700300218DF8063001F0DD
:101A100053FB46EC40500520002101F04DFB0DF139
:101A20000701012220688DF807A00AF049FB012276
:101A30000DF1060120680AF043FB0520002101F0AA
:101A40003BFB47EC40500520002101F035FB052011
:101A500000218DF8066001F02FFB46EC4050052078
:101A6000002101F029FB0DF10701012220688DF80A
:101A700007900AF025FB012331460DF1060220688C
:101A80000AF01AFB0520002101F016FB47EC40503C
:101A90000520002101F010FB9DF80630052023F001
:101AA0000F0343F00F0300218DF8063001F004FB13
:101AB00046EC40500520002101F0FEFA0DF107012F
:101AC000012220688DF807A00AF0FAFA01220DF130
:101AD000060120680AF0F4FA0520002101F0ECFA72
:101AE00047EC40500520002101F0E6FA05200021D6
:101AF0008DF8066001F0E0FA46EC40500520002128
:101B000001F0DAFA0DF10701012220688DF8079043
:101B10000AF0D6FA012331460DF1060220680AF0D8
:101B2000CBFA0520002101F0C7FA47EC4050002114
:101B3000052001F0C1FA8B4803F0CAFE0520002100
:101B40008DF8066001F0B8FA46EC40504FF00A09F3
:101B50000520002101F0B0FA0DF1070101222068F3
:101B60008DF807900AF0ACFA012331460DF1060218
:101B700020680AF0A1FA0520002101F09DFA47EC47
:101B800040500520002101F097FA9DF8063005200D
:101B900023F00F0300218DF8063001F08DFA46EC9A
:101BA00040500520002101F087FA8A230DF107013A
:101BB000012220688DF807300AF082FA01220DF127
:101BC000060120680AF07CFA0520002101F074FA71
:101BD00047EC40500520002101F06EFA052000215D
:101BE0008DF8066001F068FA46EC405005200021AF
:101BF00001F062FA0DF10701012220688DF80790CB
:101C00000AF05EFA012331460DF1060220680AF05F
:101C100053FA0520002101F04FFA47EC405005200F
:101C2000002101F049FA9DF806301B0740F096802C
:101C30000026052000218DF806600D2501F03CFAF4
:101C400046EC40504FF00C090520002101F034FA19
:101C50000DF10701012220688DF807900AF030FA93
:101C6000012331460DF1060220680AF025FA05200D
:101C7000002101F021FA4FF0010747EC4050052008
:101C8000002101F019FA9DF80630052023F0030326
:101C900043F0030300218DF8063001F00DFA46EC05
:101CA00040500520002101F007FA8C230DF10701B7
:101CB000012220688DF807300AF002FA01220DF1A6
:101CC000060120680AF0FCF90520002101F0F4F972
:101CD00047EC40500520002101F0EEF905200021DD
:101CE0008DF8066001F0E8F946EC4050052000212F
:101CF00001F0E2F90DF10701012220688DF807904B
:101D00000AF0DEF9012331460DF1060220680AF0DF
:101D1000D3F90520002101F0CFF947EC4050052010
:101D2000002101F0C9F99DF8063003F00303032BED
:101D300002D00D4803F0CCFD0520FEF75DFE0B48F8
:101D400003F044FD9DF80500113818BF012003B0D1
:101D5000BDE8F08F064803F0BBFD0FE4054803F033
:101D6000B7FD65E768C40010C4C40010F4C40010D7
:101D700098C3001098C400104FF050435868C0F347
:101D8000005070474FF050435868C0F30050704700
:101D90002DE9F04F0346002785B08A460520002133
:101DA00001938DF80E700D2501F086F947EC405037
:101DB00001249A4E0520002101F07EF922460DF102
:101DC0000F0130688DF80F400AF07AF92346394642
:101DD0000DF10E0230680AF06FF90520002101F0C4
:101DE0006BF944EC40500520002101F065F99DF8A5
:101DF0000E200520002100928DF80E7001F05CF994
:101E000047EC40500520002101F056F922460DF123
:101E10000F0130688DF80F400AF052F90DF10E00F5
:101E200002462346394630680AF046F9052000216B
:101E300001F042F944EC40500520002101F03CF94A
:101E40009DF80E30052023F00703234300218DF871
:101E50000E3001F031F947EC40504FF0810B052076
:101E6000002101F029F922460DF10F0130688DF8AB
:101E70000FB00AF025F922460DF10E0130680AF084
:101E80001FF90520002101F017F944EC405005200E
:101E9000002101F011F9052000218DF80E7001F0EC
:101EA0000BF947EC40500520002101F005F98D2386
:101EB00022460DF10F0130688DF80F300AF000F95D
:101EC00022460DF10E0130680AF0FAF805200021D3
:101ED00001F0F2F844EC40500520002101F0ECF84C
:101EE0000520002101F0E8F847EC405005200021D2
:101EF00001F0E2F8802322460DF10F0130688DF8E1
:101F00000F300AF0DDF85246019930680AF0D8F82F
:101F10000520002101F0D0F844EC405005200021BC
:101F200001F0CAF8052000218DF80EA001F0C4F8D8
:101F300047EC40500520002101F0BEF8A2232246C4
:101F40000DF10F0130688DF80F300AF0B9F8224614
:101F50000DF10E0130680AF0B3F80520002101F000
:101F6000ABF844EC40500520002101F0A5F8052015
:101F700000218DF80E7001F09FF847EC40500520CD
:101F8000002101F099F822460DF10F0130688DF81B
:101F90000F400AF095F80DF10E010A462346394626
:101FA00030680AF089F80520002101F085F844EC3A
:101FB00040500520002101F07FF8009A052002F032
:101FC00007039DF80E20002122F0070213438DF82D
:101FD0000E3001F071F847EC40500520002101F06F
:101FE0006BF822460DF10F0130688DF80FB00AF042
:101FF00067F822460DF10E0130680AF061F80520FD
:10200000002101F059F844EC40500520002101F076
:1020100053F8384605B0BDE8F08F00BF6C060020CD
:102020002DE9F04F002783B08246002105208DF86E
:1020300006700D2601F040F847EC406001258F4CFA
:102040000520002101F038F82A460DF1070120682B
:102050008DF807500AF034F82B4639460DF1060288
:1020600020680AF029F80520002101F025F845EC48
:1020700040600520002101F01FF89DF80680052032
:1020800000218DF8067008F0070801F015F847ECFC
:1020900040600520002101F00FF82A460DF10701EC
:1020A00020688DF807500AF00BF82B4639460DF1E1
:1020B000060220680AF000F80520002100F0FCFF6D
:1020C00045EC40600520002100F0F6FF9DF8063049
:1020D000052023F007032B4300218DF8063000F084
:1020E000EBFF47EC40600520002100F0E5FF812375
:1020F0002A460DF1070120688DF8073009F0E0FF4E
:102100002A460DF10601206809F0DAFF05200021BA
:1021100000F0D2FF45EC40600520002100F0CCFF2C
:10212000052000218DF8067000F0C6FF47EC4060E6
:102130000520002100F0C0FF1E232A460DF10701F3
:1021400020688DF8073009F0BBFF2B4639460DF1AA
:102150000602206809F0B0FF0520002100F0ACFF66
:1021600045EC40600520002100F0A6FF9DF80630F8
:102170005A0740F18580052000218DF8067000F097
:102180009BFF47EC40600520002100F095FF1223E3
:102190002A460DF1070120688DF8073009F090FFFD
:1021A0002B4639460DF10602206809F085FF05200F
:1021B000002100F081FF45EC40600520002100F087
:1021C0007BFF9DF806309B065AD54FF0000B05208B
:1021D00000218DF806B00D2600F06EFF4BEC40603C
:1021E00001250520002100F067FF2A460DF10701B7
:1021F00020688DF8075009F063FF2B4659460DF112
:102200000602206809F058FF0520002100F054FF65
:1022100045EC40600520002100F04EFF9DF806309F
:10222000052023F0070343EA080300218DF8063058
:1022300000F042FF4BEC40600520002100F03CFF25
:1022400081232A460DF1070120688DF8073009F037
:1022500037FF2A460DF10601206809F031FF0520FD
:10226000002100F029FF45EC40600520002100F02E
:1022700023FF384603B0BDE8F08F00BF6C06002096
:102280000025052000218DF806500D2600F014FFD2
:1022900045EC40600520002100F00EFF13230DF1F6
:1022A0000701012220688DF8073009F009FF01239A
:1022B00029460DF10602206809F0FEFE05200021E6
:1022C00000F0FAFE4FF0010949EC406005200021C2
:1022D00000F0F2FE9DF80670002F3FF476AF052067
:1022E00000218DF8065000F0E7FE45EC4060052027
:1022F000002100F0E1FE10230DF10701012220680A
:102300008DF8073009F0DCFE012329460DF10602A5
:10231000206809F0D1FE0520002100F0CDFE49EC37
:1023200040600520002100F0C7FE0520002100F0DC
:10233000C3FE45EC40600520002100F0BDFE8D236A
:102340000DF10701012220688DF8073009F0B8FE71
:1023500001220DF10601206809F0B2FE05200021DE
:1023600000F0AAFE49EC40600520002100F0A4FE28
:102370000520002100F0A0FE45EC40600520002172
:1023800000F09AFE0DF10701012220688DF8075038
:1023900009F096FE3B4652462946206809F08CFE1D
:1023A0000520002100F088FE49EC40600520002156
:1023B00000F082FE09E700BF10B44FF480740C4BAC
:1023C00053F8202003EB8003C00082F0400200F1AC
:1023D000804003F5805C02F0C00200F5203003F578
:1023E0004053CCF8002041601C605DF8044B7047FE
:1023F0000480034010B4084CC90041EA820154F83B
:10240000202004EB8003514003F5805301F00C01C0
:102410005DF8044B196070470480034030B44FF0FE
:10242000000343EC440043EC400005254FF4807466
:102430000B4BC20053F8201003EB800081F04001E9
:1024400002F1804303F5203301F0C00200F5805112
:1024500000F540500A605D60046030BC704700BF0A
:10246000048003400FB400B583B0049C074803F018
:10247000ADF93CB105A92046019102F031FF0448B5
:1024800003F0A4F9012002F043FF00BF14C50010BF
:10249000DCC1001070B58646EFF3108572B6124CA1
:1024A000D4E8CF6F0120002EFAD1C4E8460F002EE9
:1024B000F6D1BFF35F8F4FF0010CC80801F007039E
:1024C0000CFA03F31EF800C01CEA030608D14CEA1C
:1024D000030C0EF800C0C4E88F6F85F3108870BD40
:1024E0001046FFF7BFFF00BF1B120020044A107800
:1024F000431CDBB2182B28BF10231370704700BF9A
:10250000700600204FF0E022936843F00053936080
:10251000704700BF0021044B03F12002C3E88F1F66
:1025200001339342FAD17047101200204FF0E0239C
:102530004FF08032C3F80024C3F80424C3F8082401
:10254000C3F80C24C3F81024C3F81424C3F81824C7
:10255000C3F81C24C3F82024C3F82424C3F8282477
:10256000C3F82C24C3F83024704700BF012300F0C7
:102570001F029340400941B1800000F1604000F526
:102580006140C0F8803103607047024A203042F851
:102590002030704700E100E0F8B50D46EFF31087FA
:1025A00072B6124ED6E8CF2F0123002AFAD1C6E820
:1025B000423F002AF6D1BFF35F8F0D4B00F11004AC
:1025C0009B680C4A53F82430934203D0994201D0BF
:1025D00000F078FF064B9B6843F82450BFF35F8FF1
:1025E0000023C6E88F3F87F31088F8BD191200203A
:1025F00000ED00E01D0100102DE9F04F83B0EFF376
:10260000108A72B6744ED6E8CF2F0123002AFAD171
:10261000C6E8423F002AF6D1BFF35F8F6F4B00F14F
:1026200010089B686E4A53F8285095423FD08D425F
:102630000C464AD06B4FEB1B2F2B38D801214FEAA9
:1026400050194FEA890909F1604909F5614900F01B
:102650001F0301FA03F0D9F80030C9F8800000EA3E
:10266000030BBFF35F8FEFF30581C9B279B38845E0
:1026700077D125F0010EDEF808C0644505D17CE075
:10268000D3F808C0644532D09E469EF9062002EB7E
:102690004203002A07EB8303F2DA644500F08180ED
:1026A000BBF1000F20D0C9F88001C9F800004B4BE6
:1026B0009B6843F82850BFF35F8F0023C6E88F3F25
:1026C0008AF3108803B0BDE8F08F1546EFE725F0D8
:1026D000010EDEF808C06445D7D19EF90640734666
:1026E000002C08DA154666E0C9F88000DFE793F9A8
:1026F0000640002C56DB04EB440C07EB8C0CDCF89A
:10270000082061009A609CF80720DA719CF9062085
:10271000002A9A715DDBBCF80420520504D502F54D
:10272000FF1202F5FF521F32521502F1020C4FF058
:10273000040E0C2212FB04E202EB4C026FF0070CB9
:102740003A44ACEB030C6244C2F34A0242F46042E6
:102750009A80254B21441A7807EB81011C708A71FD
:102760009EE7CDE9000100F0ADFEDDE9000125F0B6
:10277000010EDEF808C0644587D19EF90640734615
:10278000002CB8DA194A1A4CD21A083AC2F30A31A4
:102790006FEA01516FEA115144EA5202DA809980DE
:1027A0007EE773460029EDD1FF228EF806204BF616
:1027B0000152AEF804200C4C4AF6AA2294F800C04C
:1027C0001946C91B49414A43120D83F806C02270BD
:1027D00066E74BF60152BBE71912002000ED00E05E
:1027E0001D0100107406002094130020AE06002086
:1027F00000F8FFFFF0B5EFF30585EDB2EFF3108CB5
:1028000072B62649D1E8CF2F0123002AFAD1C1E8B8
:10281000423F002AF6D1BFF35F8F214E40F0010EF8
:10282000B4684AF6AA2354F825701E4A0446A41A2E
:10283000644163431B0D77455BB21BD092F90640A0
:102840009C421CD092F912409C4223D092F91E4027
:102850009C4221D092F92A409C4208BF03240FD009
:10286000114A0024157813708571C1E88F4F8CF3DD
:102870001088F0BDB2680D4C42F82540F0E7002406
:1028800004EB440402EB8402FF2494714BF60154E0
:102890009480E5E70124F3E70224F1E71912002010
:1028A00000ED00E074060020941300201D010010CC
:1028B000014B0B44036070471012002070B5104CA0
:1028C000104DAC420ED2FF26236863B1FFF70EFE17
:1028D00001462046FFF7ECFFA680BFF35F8F083468
:1028E000AC42F1D370BDFFF701FE01462046FFF771
:1028F000DFFF2671BFF35F8F0834AC42E4D370BDB5
:10290000C80D0020D00D00200D4B1A68EFF3108188
:1029100072B6D2E8CFCF0120BCF1000FF9D1C2E8E6
:102920004C0FBCF1000FF4D1BFF35F8F00221B6886
:10293000C3E88F2F81F3108840BF0020002170472B
:1029400088130020000000002DE9F04F2DED028BD0
:1029500085B0EFF30583DBB2103B9A0818BF012264
:102960004FF0010103F0030018BFAB4DAB4B08BFA4
:10297000AB4D00EB820201FA00FB53F8226005F533
:1029800041539FEDA38B0190C3F804B0CDF800B084
:102990002AE0B388180440F18C80B379002B40F012
:1029A000D580B6F908100029C0F21581736901EBD2
:1029B000410103EBC103D3E90247B7F1FF3F08BF71
:1029C000B4F1FF3F09D0019B05EB8301AB6A0A69B3
:1029D000D21AE31A934238BF0C61284600F05AFB22
:1029E000A042B941C0F2F780B6F90840009B002C24
:1029F000EB63CEDBD6F8149004EB440A284609EBCF
:102A0000CA07D7E902B800F045FB584571EB080149
:102A1000BFDBB8F1000FC0F2C180D7E90431814AB1
:102A2000934200F0EA807A88B6F9080092B242EA4E
:102A30000040984702460B4652EA030100F0AE8080
:102A4000002B80F2CE80BBEB020B68EB030839F958
:102A50003A30C7E902B8002B9BDB716903EB4302F4
:102A600001EBC202D2E90270BB4578EB000C4FEAE1
:102A700043028EDBB4462CF8083F0BE031F93230CC
:102A8000F446002B0DDB03EB430001EBC0005A00C2
:102A9000D0E90270BB451A4478EB000001EBC20E8E
:102AA000ECDA29F83A30ACF80040B38818043FF566
:102AB00074AF3369EFF3108272B6D3E8CF0F012100
:102AC0000028FAD1C3E8401F0028F6D1BFF35F8F7A
:102AD0004FF6FF74B0880023316900B2B480C1E8BA
:102AE0008F3F82F310889842FFF657AF0746A946FA
:102AF000746906F1080807EB470E04EBCE03D3E92F
:102B00000250B6F90830C446002BA8BFB34605DA18
:102B10000FE034F93A309446002B09DB03EB430A0B
:102B200004EBCA02D2E90261B54270EB0101F0DAAE
:102B30005E46ACF8007034F93E7024F83E30002F49
:102B4000D9DAB3794D46002B3FF42BAF0023B37194
:102B5000B6F9083006F10808591C3CD019467769C7
:102B600003E080465A1C3FF41EAF03EB430207EB21
:102B7000C200B0F802C01C461CF4004F9E4637F954
:102B80003230EED08C4280ED028B05D0A8F80030B8
:102B9000318927F8321034817146E3E739F83A3049
:102BA00033813369EFF3108272B6D3E8CF0F01217E
:102BB0000028FAD1C3E8401F0028F6D1BFF35F8F89
:102BC0007388316929F83A3000237480C1E88F3F57
:102BD00082F31088DDE640BF05B0BDEC028BBDE896
:102BE000F08F2846CDE9022300F054FA029A039BA5
:102BF00010EB020B43EB010829E708460B69029131
:102C000098470028CAD00299D1E9002314E700BFF1
:102C1000FFFFFFFFFFFFFFFF00800B40241300209A
:102C200000000B40492900102DE9F84F364C25696A
:102C30002DB1BDE8F84F0A213448FFF739BEDFF85F
:102C4000E4800321404600F013FA0326C4F80C8008
:102C5000FFF74CFC4FF0504C2D4B26700344236182
:102C6000DCF800300F216370636961801D834FF0D1
:102C70000405A3F878504FF00505A3F890504FF0E5
:102C80000605A3F8A8504FF007050E214FF6FF7276
:102C900008274FF00A0EA3F8C0504FF001094FF07B
:102CA0000C0C4FF0020B4FF0090A0D204FF00B05F2
:102CB000A3F868111749A280A3F808E1A160A3F85E
:102CC00048B0A3F8F0A0A3F82051A3F838C1A3F8A6
:102CD0005001A3F83090A3F86060A3F8D8701A8070
:102CE0000D4B3046C8F820700C49DC60FFF754FCEF
:102CF00049463046FFF73AFC094B0A211F64034856
:102D0000BDE8F84FFFF7D4BDBC06002088130020B3
:102D100010120020FFFF100024130020492900108A
:102D200000200B4000000B400146F0B50069EFF3B6
:102D3000108772B6D0E8CF5F0124002DFAD1C0E829
:102D4000454F002DF6D1BFF35F8FB1F902E04C691A
:102D50000EEB4E0CBEF1000F4FEACC0504EBCC0C91
:102D60003DDB605B002648800869C0E88F6F87F311
:102D70001088BCF80200CCE902230130C0F30E0039
:102D8000012838BF0120059BACF80200CCF81030B8
:102D9000069B40EA0E40CCF814300B69EFF310822A
:102DA00072B6D3E8CFCF0127BCF1000FF9D1C3E849
:102DB0004C7FBCF1000FF4D1BFF35F8F8B8863535E
:102DC000A1F804E00B69C3E88F6F82F31088012239
:102DD000CB68097803F501538A405A60F0BD00239F
:102DE0000A69C2E88F3F87F310884FF0FF30F0BDCB
:102DF00003464089B0EB214F37DD58690A1402EBD6
:102E0000420210B500EBC2001C69EFF3108C72B6E1
:102E1000D4E8CFEF0122BEF1000FF9D1C4E84E2F64
:102E2000BEF1000FF4D1BFF35F8F428889B292B236
:102E30008A4207D000221B69C3E88F2F8CF31088C9
:102E4000002010BD42F40042428001210022186996
:102E50009971C0E88F2F8CF310881C78DA680846C7
:102E600002F50153A140596010BD0020704700BF1A
:102E70002DE9F041861F41F1FF35B04271EB0503AA
:102E800038BF002682B038BF354604460F4600F0F2
:102E900009F9301A65EB0103012873F1000306DA22
:102EA0002046394602B0BDE8F04100F07BB900F0A1
:102EB000F9F8864265EB010100290ADB0021174B76
:102EC0003246009316482B460191FFF72DFF00284C
:102ED000E6DB4FF0000C1348134A436A9D4204D8C6
:102EE000816AB142DCD29D42DAD11368EFF31081DE
:102EF00072B6D3E8CF8F5FF0010EB8F1000FF8D1B2
:102F0000C3E848EFB8F1000FF3D1BFF35F8F136848
:102F1000C3E88FCF81F3108820BFDEE709290010B6
:102F2000BC06002000000B408813002038B5044682
:102F30000D4600F0B7F84FF0FF326FF00043201855
:102F400045EB0101824273EB010438BF1946BDE82D
:102F5000384038BF1046FFF78BBF00BF10B504469E
:102F600000F0A0F84FF47A734FF0FF3C6FF000428E
:102F7000E4FB0301BDE81040844572EB01033CBF54
:102F800060461146FFF774BFF0B506460D4683B0A4
:102F9000EFF30584E4B2002C35D1244F3A78F96878
:102FA00004328B6A51F82220D21AC31A934207D3F3
:102FB00020BF1F4B586AA8421FD2002003B0F0BDAB
:102FC00000F070F8864265EB0101002911DB194B16
:102FD0003846CDE9003432462B46FFF7A5FE011EE8
:102FE00007DD134B5A6AAA4219D220BF0F48FFF7D8
:102FF000FFFE0F4B586AA842DFD39B6A9E4209D856
:10300000012003B0F0BD0A4B586A8842D5D39B6AB1
:10301000B342F5D2401B18BF012003B0F0BD9B6A3C
:103020009E42E3D9AA42E1D1DFE700BFBC060020FF
:1030300000000B4009290010084AD0E90003516A3A
:103040008B4204D8926A824203D301207047002049
:103050007047581A18BF0120704700BF00000B408E
:1030600001460248C1E90023704700BF3930001013
:1030700010B4054B054C064AA04214BF1846581C14
:103080005DF8044BFFF706BA8C12002000800B405D
:1030900024C500100346416A0A46986A596A8A4262
:1030A000FAD17047034B596A0A46986A596A9142A5
:1030B000FAD1704700000B4010B4174A536A9C467F
:1030C000946A536A6345FAD1001959414FF00002DE
:1030D00028BF01220346CAB10F4B596A4B1C08BFD7
:1030E0000B4608D04FF0FF310B460B48426A8A422C
:1030F000FCD38A4207D1084A02E0506A884202D1D2
:10310000906A9842F9D35DF8044B7047024A526ABC
:103110009142EAD8EDE700BF00000B401F4B9842F8
:103120000AD84FF47A731E4A03FB00F0916A936A3F
:103130005B1A9842FBD870474FF47A7130B4184B41
:10314000A0FB01015A6A94469C6A5A6A6245FAD108
:1031500003194A414FF0000528BF01259DB91049C8
:10316000496A8A4203D90E48416A9142FCD391428E
:1031700007D10B4902E0486A904202D1886A98421E
:10318000F9D330BC7047064B5A6A531C08BF13462C
:10319000EFD04FF0FF321346E5E700BF9BC420009D
:1031A00000000B40074A536A9942FCD8994207D164
:1031B000044B02E05A6A914202D19A6A8242F9D3E0
:1031C000704700BF00000B40F8B5054606200E46CC
:1031D00000F0E4F8002842D0354A3648954214BF42
:1031E0004FF080624FF00062334B344902601A6046
:1031F0008C6832EA0404FBD12D4B4FF48071EB1A3A
:10320000B3FA83F32E4A5B09062022F8131000F06C
:10321000C5F8C300B3FBF6F30133DA0920D1402629
:1032200001216962AA622F6BFB0722D42B46002280
:1032300053F82C1F062003F5805422602F6300F002
:10324000ADF840F2013103228000B0FBF6F0EB6AEA
:1032500083F0700303F07E0323602963AA64F8BD42
:103260004FF6FE718A421BD922464FF6FF71154E6A
:10327000D7E740F2013205F540531A636B6AAC6A36
:10328000062004EB831400F089F80F4BA402A3FB83
:103290000023DB0A0021B4FBF3F0FFF70DFFC5E7C5
:1032A000C3F34503114603EB82161A46B9E700BF84
:1032B0000080074000200240003002400000024031
:1032C0008C130020C0FF3F00757B2B8F00EB400C60
:1032D0004FEA8C0C0CF1804C0CF5803CF0B5164696
:1032E000DCF80420051FB2F5803F38BF4FF4803270
:1032F000EDB238BFCCF80420012D2AD94FF4006775
:10330000254C0CF54052176054F82020B2B9DCF877
:103310000020012D82EA461202F0E0020CF58056F0
:1033200032602AD94FF4006144F820304FF48033E2
:103330000CF500521160CCF80430F0BD6769B7FBA2
:10334000F2FE0EF1010E0EEB4E0EBEF1030EFCD29C
:10335000DDE70129D2D103240CF540521460DCF8DA
:103360000820D207FBD5DCF800200B4C82EA46127D
:1033700002F0E0020CF5805632600122DCF80050C9
:103380004D4005F00305356002FA01F1DCF8082034
:103390000A42FBD0C6E700BFCC120020014B53F815
:1033A00020007047CC12002070B4039D04682D03E8
:1033B00045EA03451B4B002CB3FBF1F3B2FBF3F6DC
:1033C0001FDB194A194B904214BF4FF480424FF44F
:1033D0000042174C1A6003F580531A60A36832EA62
:1033E0000303FBD1212200F54053043301608660C2
:1033F0001A600268002AFCDA0822C5601A6070BCF4
:103400007047036803F03F038B42DAD18368C3F34C
:103410000B03B342D5D1C36803F4EE23AB42D0D142
:10342000EDE700BF001BB700008005400020024010
:1034300000000240012300EB4000800000F18040CA
:1034400000F5841041600360704700BF0023DB8AF1
:10345000002242E800F2520201D410211847042150
:10346000184700BF034AD2F82838002BFBD0BFF31F
:103470005F8F704700000E400021044B044ABFF3E9
:103480005F8F43F8041B9342F9D170470C080E403C
:103490002C080E4010B42F204FF42A64054A064B26
:1034A00006491460D06019605368002BFCDA5DF89F
:1034B000044B70470080044000A0044000B0FA00B4
:1034C000704700BF08B50148FEF7CCFF48C50010A3
:1034D00038B5054C054DAC4204D254F8043B98472E
:1034E000AC42FAD338BD00BFC8C0001008C10010FC
:1034F00010B40748074C084B084A094904601A6091
:103500008B6832EA0303FBD15DF8044B704700BFC0
:10351000002002407F3BEFEF00300240F6FFF30354
:1035200000000240044BDB6CB3F5004F03D14FF4B5
:103530008022024BDA6470470000115000201150C5
:103540004FF0E022044BD2F8881D0B43C2F8883DAF
:1035500010EE3004704700BF030330006FF060418D
:10356000044B054A19609368DB4333F06043FAD19A
:10357000704700BF003002400000024010B545F225
:103580005320FFF763FFBDE81040034604201847AF
:1035900010B545F25320FFF759FFBDE81040034630
:1035A00001201847FEF7B6BF10B5054B054C4FF488
:1035B00088721846A16803F00DFBA06010BD00BF23
:1035C0000000002000ED00E0002370B52B4C82B01D
:1035D000C4F88430FFF75EFF0122294BDA63636C85
:1035E000012BFCD10321264A244B11639C6B012C37
:1035F000FCD10226052521460523224A22480096B1
:10360000FFF7D2FE21462B46204A21480095FFF7BE
:10361000CBFE0022042031461E4BFFF757FE214609
:10362000284600221C4BFFF751FE002208201146BD
:103630001A4BFFF74BFE002209201146174BFFF7EC
:1036400045FE002206201146134BFFF73FFE0022E5
:10365000114B07201146FFF739FE0420FFF79EFEAD
:1036600000240F4BA3FB0035AD0CE0B2294601341A
:10367000FFF7E0FE062CF8D102B070BD000001405B
:1036800000300140002F685900000540008C86473B
:1036900000800540001BB70080D1F008006CDC0200
:1036A00083DE1B4386B003B451FC0804CDE902015C
:1036B00051FC0904CDE9040151EC0A04CDE90601ED
:1036C00003BCF047BDE800504EEC00C4BDE800501C
:1036D0004EEC01C4BDE800504EEC02C400BD000039
:1036E00000B5FFF7DFFF02E010FE30F4F8D441EC44
:1036F000100443EC112400EE010410EE010480EEEE
:10370000200451EC1004704700B5FFF7CBFF02E036
:1037100010FE30F4F8D441EC100443EC112400EE18
:10372000010410EE210480EE200451EC30047047B7
:1037300000B5FFF7B7FF02E010FE30F4F8D410B583
:1037400041EC100443EC112451EC040453EC052427
:10375000A0FB024C5FF0000EE0FB03CEE1FB02CECB
:103760004CEC20440024E1FB03E444EC30E480EE24
:10377000200451EC5004BDE81040704700B5FFF73D
:1037800091FF02E010FE30F4F8D441EC100443EC59
:10379000112451EC2104A0FB01126FEA820252FBBA
:1037A000100052FB12F252FB1000A0EBD07C53EC45
:1037B00004245CFB13F153EC1524A1FB022001FB54
:1037C000030053EC4424A2EB000050FB1CF24FEA30
:1037D000111312EB017043EBE27140EA515020EA01
:1037E000915020F0070053EC7524A0FB023C53ECF1
:1037F000752400FB03CC01FB02CC53EC0424ACEB9E
:10380000824C40EA5C70A0F1010041EC400480EE83
:10381000200451EC7004704700B5FFF743FF02E04D
:1038200010FE30F4F8D441EC100480EE220410EEC7
:10383000B204704700B5FFF735FF02E010FE30F428
:10384000F8D440EC700400EE010410EE210480EE88
:10385000200451EC3004704700B5FFF723FF02E06D
:1038600010FE30F4F8D440EC600400EE010410EED9
:10387000210480EE200451EC3004704700B5FFF7BE
:1038800011FF02E010FE30F4F8D441EC800400EEA9
:10389000010410EE010480EE400410EE13047047A2
:1038A00000B5FFF7FFFE02E010FE30F4F8D441EC63
:1038B000800400EE010410EE010480EE400410EEDE
:1038C0003304704700B5FFF7EDFE02E010FE30F460
:1038D000F8D441EC100443EC112400EE010410EE86
:1038E0003004C0F30070704700B5FFF7DBFE02E064
:1038F00010FE30F4F8D441EC100443EC112400EE37
:10390000010410EE3004C0F38070704700B5FFF77B
:10391000C9FE02E010FE30F4F8D443EC102441EC70
:10392000110400EE010410EE30F48CBF01200020E1
:10393000704700BF00B5FFF7B5FE02E010FE30F49F
:10394000F8D443EC102441EC110400EE010410EE15
:1039500030F42CBF01200020704700BF00B5FFF7F6
:10396000A1FE02E010FE30F4F8D441EC100443EC68
:10397000112400EE010410EE30F42CBF01200020D1
:10398000704700BF00B5FFF78DFE02E010FE30F477
:10399000F8D441EC100443EC112400EE010410EEC5
:1039A00030F48CBF01200020704700BF00220029A6
:1039B00050DA404261EB4101C9B1B1FA81F30B3BEE
:1039C00017D4D3F1200C30FA0CFC9840994051EAFE
:1039D0000C011A44524202F2324201EB025141F010
:1039E000004140F2FE739A4238BF704721E0114611
:1039F0007EE003F1210310FA03FCA3F1010301FAB5
:103A000003FCC3F1200320FA03F021FA03F140EA9A
:103A10000C00A3EB020202F2324214D050F100007B
:103A200041EB025141F0004140F2FE739A4238BF2F
:103A300070474FF00001A8BFC7F6F0714FF00000CB
:103A4000704700217047EBD350F1000020F00100D7
:103A5000E6E70022B9B1B1FA81F30B3B16D4D3F1FA
:103A6000200C30FA0CFC9840994051EA0C011A44A1
:103A7000524202F2324201EB025140F2FE739A428C
:103A800038BF704720E0114600F066B803F121030B
:103A900010FA03FCA3F1010301FA03FCC3F12003B4
:103AA00020FA03F021FA03F140EA0C00A3EB020232
:103AB00002F2324212D050F1000041EB025140F2CA
:103AC000FE739A4238BF70474FF00001A8BFC7F697
:103AD000F0714FF00000704700217047EDD350F1B6
:103AE000000020F00100E8E7002880F23580404225
:103AF000B0FA80F30B3B11D4984001EB0302524221
:103B000002F2124200EB025141F000414FF000007E
:103B100040F2FE739A4238BF704713E0C3F10003CE
:103B200030FA03FCC3F120029040A3EB010202F241
:103B300012420CEB025141F0004140F2FE739A42F6
:103B400038BF70474FF00041A8BFCFF6F0714FF07B
:103B5000000070470021704760B3B0FA80F30B3B60
:103B60000FD4984001EB0302524202F2124200EBE2
:103B700002514FF0000040F2FE739A4238BF704786
:103B800010E05B4230FA03FCC3F120029040A3EB4B
:103B9000010202F212420CEB025140F2FE739A4211
:103BA00038BF70474FF00001A8BFC7F6F0714FF063
:103BB00000007047002170470022A2F232425FEA03
:103BC000215CACF10103A1EB03515B0513F5800F00
:103BD00032D212EB535210D40B2A36DA9140D2F182
:103BE000200330FA03F319439040BCF1000FA8BF43
:103BF0007047404261EB4101704720320EDD01FA0F
:103C000002F3D2F12002D140D0401843BCF1000FA2
:103C1000A8BF7047404261EB41017047524282F3B6
:103C2000050231FA02F00021BCF1000FA8BF704775
:103C3000404261EB4101704702D0002000217047F3
:103C400050EA013118BF4FF0000C6FF0004101EB5A
:103C5000DC716FEAEC70704710B5044602F01EF993
:103C600028B10346034A2344934200D810BD0248BA
:103C7000FEF7F8FB0000082054C5001010B50C46F4
:103C800002F0D2FB28B10346034A2344934200D8F2
:103C900010BD0248FEF7E6FB0000082054C50010E6
:103CA00002F004B99A4238BF88547047704700BF89
:103CB0002DE9F04F83B09946DDE90DAB0F9B8846A7
:103CC00011469A07074616D1DA453AD20C460D46F8
:103CD000ABEB0A060E4422464B46414620200134F7
:103CE000B847B442F7D12946BAF1000F08D12046AF
:103CF00003B0BDE8F08F0C46BAF1000F10D00E46AD
:103D000055460C9B2E449A440191721B4B46013D33
:103D100041461AF8010D3446B847002DF5D10199F6
:103D20000F9B9B07E3D5651AAB45E0D922464B466E
:103D3000414620200135B8475D4504F10104F5D323
:103D4000D5E7BAF1000FDAD10C46D0E72DE9F04FF4
:103D50000F9FDDF824E017F0020F0A9C9DF82C90CD
:103D60000E9DDDE90C8629D1002D6FD1B44225D2FC
:103D7000202C07F0010B00F0128104F1FF3C4FF002
:103D8000300AF44401E0202C7AD00134A6420CF829
:103D900001AFF8D8BBF1000F10D0AC420ED2202CEE
:103DA00074D004F1FF3C4FF0300AF44401E0202CC1
:103DB00029D00134AC420CF801AFF8D117F0100F44
:103DC0003AD017F4806F28D11CBBB8F1100F00F067
:103DD000CA80B8F1020F00F0D48030248EF8004081
:103DE0000124B9F1000F67D17E0740F1AA802B268C
:103DF0000EF804600134CDE90B57CDE909E4BDE8C4
:103E0000F04FFFF755BFFC0640F189807C0535D4A3
:103E10002024A6426AD0AC4268D0B8F1100F00F05E
:103E20008780B8F1020F5AD0202CE4D02646013406
:103E30004FF0300C0EF806C0202CD2D1CDE90B5734
:103E4000CDE909E4BDE8F04FFFF732BF17F0010BF1
:103E50003ED0B9F1000F47D117F00C0F44D1B44256
:103E60009BD2202C89D1202D10D8FC0657D57C055B
:103E700055D4202E00F0B980202D10D02024CCE77E
:103E8000BBF1000F00F0A580202DBCD9FC0646D563
:103E90007C0544D4202E00F0A880202D3FD12C4654
:103EA0001F26B8F1100F7FD0B8F1020FC0D14FF02C
:103EB000620C0EF806C0B7E72D260EF80460013438
:103EC000CDE90B57CDE909E4BDE8F04FFFF7F0BEAF
:103ED000B442BFF473AF202C7FF44FAFD6E7202C51
:103EE00089D026460134E2E7013DB8E7661ED8D105
:103EF000B8F1100F64D0B8F1020F7FF46EAF6226F4
:103F00008EF80060302644468EF80160B9F1000F4B
:103F10003FF46AAFD0E7B8F1100F7FF46CAF202404
:103F2000CDE90B57CDE909E4BDE8F04FFFF7C0BE7E
:103F3000BE060ED4202CF2D078260EF80460013490
:103F400072E73E077FF557AF20260EF80460013474
:103F500051E7202CE3D04FF0580C0EEB040686F806
:103F600000C0013460E7BE0617D558248EF8004023
:103F700030248EF801400224B9F1000F3FF434AF31
:103F80009AE762248EF8004030248EF80140022423
:103F9000B9F1000F3FF428AF8EE77824F2E7BBF1C8
:103FA000000F7FF462AF71E717F0200F0CBF4FF0E6
:103FB000780C4FF0580CA61E0EF806C0013C35E7F1
:103FC000BC06EAD558248EF8004030248EF8014013
:103FD000DDE717F0100F3FF40EAF17F4806F9AD1A2
:103FE000202E7FF418AF1F265BE734461F2658E7C4
:103FF00000B9704701F0A8BB10B1D1E900311847F2
:10400000704700BF000000002DE9F04F9FB09DED0C
:10401000287BDDE92AA558EC177B83461E460D91C7
:10402000109243463A46384641468DED087B2C9C1B
:10403000FFF74CFC002840F0D880384641464FF04E
:10404000FF32754BFFF7A2FC002840F0CE803846C7
:1040500041464FF0FF326FF48013FFF75BFC0028FE
:1040600040F0C380DDE9087800223846414600234D
:10407000FFF750FC002840F0C081CDE90A78DDE967
:104080000A2390461F4614F4806308BF4FF0060AC7
:10409000139304F4006258EA0703119240F0C080C1
:1040A000002A00F0A2819FED5A7B00278DED0E7B48
:1040B0004FF00009BA45CCBFAAEB070A4FF0000A3F
:1040C0004F46C8BF0AF1FF3A44F480644D4594BF9F
:1040D0004FF00008A5EB090814F00203119304D077
:1040E000B9F1000F18BF4FF000083FB1DDE90A0138
:1040F000DDE90E23FFF746FBCDE90A01DDE9080102
:1041000000220023FFF706FC30B1DDE90A01024678
:1041100001F10043CDE90A239DED0A7BCDE902A818
:10412000DDF834A024F4006304938DED007B334666
:1041300051465846109A00F097F98046B9F1000FA1
:104140004FD014F0200F024600F1010433460CBF9B
:10415000652045205146D84709F1FF3087EAE77CC2
:104160000DF1580900224B46DFF8B080ACEBE77C3C
:104170004FEAD77E01E0202A10D0E246A8FB0C715E
:10418000C90801EB8107ACEB47073037BAF1090FDB
:104190008C4602F1010203F8017BECD8052305905F
:1041A000069300200A230D9FCDE90330CDE9012EAF
:1041B0003346224639465846CDF80090FFF7C6FDF3
:1041C000119B80466BB1109BC41AA54209D9424687
:1041D0003346394620200134D847A54208F101086A
:1041E000F5D840461FB0BDE8F08F9DED087B334603
:1041F0005846109A0D998DED287BCDE92B54CDF8BA
:10420000A8A01FB0BDE8F04F00F02EB9AFF30080BA
:104210000000000000000000FFFFEF7FCDCCCCCC01
:10422000C7F30A50A0F2FF30FFF708FB8AA3D3E9D7
:104230000023FFF781FA8AA3D3E90023FFF754FA9A
:10424000C7F31307CDE90E0147F07F514046002226
:104250007B4B41F44011FFF75BFA6BA3D3E90023DA
:10426000FFF76AFA02460B46DDE90E01FFF73CFA5A
:10427000FFF708FB0746FFF7E1FA65A3D3E9002340
:1042800080468946FFF758FA00226E4BFFF72CFA5A
:10429000FFF7F8FA03464946404612935EA3D3E976
:1042A0000023FFF749FA804612988946FFF7C6FABD
:1042B0005BA3D3E90023FFF73FFA02460B464046D3
:1042C0004946FFF725FA02460B4680468946FFF726
:1042D00033FA42464B46CDE90E0140464946FFF7C8
:1042E00003FA0022CDE91401DDE90E01564BFFF778
:1042F00049FA0022554BFFF7F7F902460B46DDE974
:104300000E01FFF73FFA0022514BFFF7EDF902468D
:104310000B46DDE90E01FFF735FA42464B46804673
:10432000894600204FF08041FFF7F2F902460B4624
:1043300040464946FFF7D8F902460B46DDE914012D
:10434000FFF720FA0022434BFFF7CEF9129B002221
:1043500003F2FF3C4FEA0C53FFF7EEF98046894623
:10436000DDE90A0142464B46CDE90E89FFF7D2FA54
:1043700068BB4346494607F16302C62A119A8CBFBF
:104380004FF005094FF00409002A3FF49FAE0B439C
:104390003FF48EAEDDE90A0123A3D3E90023FFF742
:1043A000E1FA48B1DDE90A0121A3D3E90023FFF7CF
:1043B000B1FA00287FF47CAEBAF1000F3FF486AE6C
:1043C000139B002B3FF482AE0AF1FF3A7EE60022F7
:1043D0001E4B40464946FFF7D5F90A4601460346BB
:1043E000CDE90E12013F1146C5E79FED137B17463D
:1043F0004FF004098DED0E7B68E608F100430A9743
:104400000B933CE6AFF3008061436F63A787D23F15
:1044100071A379094F930A401655B5BBB16B0240A1
:10442000EF39FAFE422EE63F2D431CEBE2361A3FEF
:104430000000000080842E41000000000000000009
:104440000000F83F0000E03F00002C400000244046
:10445000000018400000F03FFB799F501344D33F09
:10446000B3C8608B288AC63F2DE9F04F97B0DDE9CD
:104470002089CDE90401DDE9224BCDE90623404640
:1044800042464B464946DDF890A0FFF71FFA002848
:1044900040F0C581404649464FF0FF326FF480132B
:1044A000FFF738FA002840F01D81404649464FF09A
:1044B000FF32C14BFFF76AFA002840F0E380B8A34F
:1044C000D3E9002340464946FFF760FA002840F050
:1044D000CB80B5A3D3E9002340464946FFF71AFA3B
:1044E000002840F0C1804046494600220023FFF7E3
:1044F00011FA002840F0E0801AF480650D9000F079
:10450000E980092C40F296810EAB1A460C933021BB
:104510000023A4F109050133202B02F8011BA4EBB1
:10452000030600F03A81AB42F5D19FED9D7B8DED06
:10453000087B49464046FFF7A5F90446FFF77EF998
:1045400002460B4640464946FFF7E2F8DDE90823FC
:10455000FFF7F2F802460B46CDE90A23FFF7A4F96C
:104560000746FFF77DF902460B46DDE90A01FFF732
:10457000CFF802460B46CDE90A2300228F4BFFF706
:1045800005FA002800F0DB8001373846FFF768F9AC
:10459000DDE90823FFF7E6F908B100270134002E12
:1045A00040F0B1802046FFF749F902460B464046ED
:1045B0004946FFF7ADF80022804B06460F46FFF74D
:1045C000A9F940B93046394600227C4BFFF7DEF9A5
:1045D000002800F015810C9B691E7948194410E0F1
:1045E00080FB0462C3EBA20303EB8302A4EB42044F
:1045F00004F1300201351C4601F8012F002B00F0B8
:10460000AB80202D4FEAE473EAD10AF00303012BBB
:104610001CD1BBF1000F19D00D9B002B40F0F9808D
:104620001AF00C0F40F0F580AB4540F2D380202DFE
:104630000BD030220C996B1E0B4401355D4503F8FD
:10464000012F00F08D80202DF7D12025DDE90623F4
:10465000DDE904010C9CCDE902BA01950094FFF755
:1046600027FB17B0BDE8F08FCDE92089DDE90623EF
:10467000DDE90401CDE923BA229417B0BDE8F04F7B
:10468000FFF7C2BC4F4DCDF88CA00AF0040ABAF176
:10469000000F4D4C18BF2C46DDE90623DDE904016F
:1046A00020940CBF03240424CDF888B0219417B0C3
:1046B000BDE8F04FFFF7FCBA4B4642460020002110
:1046C000FFF726F801231AF48065804689460D938A
:1046D0007FF417AF9FED367B0EAB06268DED087B82
:1046E0000C9326E70424DDE90623DDE90401374DB8
:1046F000CDF88CA0CDF888B02095219417B0BDE8F6
:10470000F04FFFF7D5BA0C9B681EDFF8C4C0184401
:104710000DE0ACFB0721C90801EB8102A7EB4202C7
:104720003032092F00F8012F27D90F461D46202DC2
:1047300005F1010306F1FF36EBD120254BE70022FE
:10474000DDE90A011D4BFFF7E5F800287FF427AFEC
:10475000002F5AD1013722E70AF00303012B75D04D
:10476000202D3FF473AF0D9BBBB32D2205F15803F1
:104770006B4403F8202C013568E7202BDDD0AEB365
:104780000C9A1E441544302201E0B3422ED001336E
:10479000202B05F8012FF8D1CFE71D46C5E600BF55
:1047A0000000000065CDCD410000000065CDCDC109
:1047B0000000000080842E41FFFFEF7F0000E03FFB
:1047C00067666666A0C50010A8C50010B0C50010D9
:1047D000CDCCCCCC202D3FF439AF1AF0040F0DD145
:1047E0001AF0080F3FF432AF2022BFE72E2103F169
:1047F00058026A4402F8201C5D1CECE62B22B5E747
:10480000E3077FF5E8AE0134E5E6FA077FF5C7AECA
:10481000A0E70BF1FF3BAB453FF609AFA0E7032450
:10482000DDE90623DDE904010A4DCDF88CA0CDF8C1
:1048300088B061E7084B264603EBC40393ED007B89
:104840000EAB8DED087B00250C9372E6BBF1000FDB
:1048500086D0E1E6ACC50010F8C700102DE9F04F96
:104860009A469BB0249C964D0B94964C0B1E18BFF9
:10487000834625609AF80000934C0A9308BFA3462C
:104880000992002800F0BC824FF000090AE04A4675
:10489000099B0A9909F10109D8479AF800000028F4
:1048A00000F0CE8025280AF1010AF0D100235246FB
:1048B00012F8010BA0F1200110290AD8DFE801F05D
:1048C0004009093C09090909090909380934090994
:1048D0003000A0F13001092940F28C802A2800F034
:1048E000F58000210C912E2800F099800027A0F17E
:1048F000680112292DD8DFE811F057012C00510171
:104900002C0045012C002C002C002C002C002C002D
:104910002C0027002C002C002C002C002C00270041
:10492000924643F00103C2E7924643F00203BEE71A
:10493000924643F00403BAE7924643F01003B6E709
:10494000924643F00803B2E79AF8010043F48073FB
:1049500001326728924600F28280242840F2C68005
:10496000A0F12502422A00F2C180DFE812F05F01C7
:10497000BF00BF00BF00BF00BF00BF00BF00BF003F
:10498000BF00BF00BF00BF00BF00BF00BF00BF002F
:10499000BF00BF00BF00BF00BF00BF00BF00BF001F
:1049A000BF00BF00BF00BF00BF00BF00BF002601A7
:1049B00045012601BF00BF00BF00BF00BF00BF0010
:1049C000BF00BF00BF00BF00BF00BF00BF00BF00EF
:1049D000BF00BF00D301BF00BF00BF00BF00BF00CA
:1049E000BF00BF00BF00BF00D3016701D301260194
:1049F00045012601002100E0013201EB810100EBBD
:104A0000410110789246A0F13004092CA1F1300147
:104A1000F2D92E280C9102F101027FF467AF9AF8C7
:104A200001001146A0F13006092E43F4806340F2E4
:104A300031812A2800F03E8192460027013256E754
:104A40004C46099B994501D303F1FF394A460020A2
:104A5000099B0A99D84720461BB0BDE8F08FA0F10A
:104A60006902D2B20F2A41D8012649F2410196408B
:104A70000E4040F001810A2A3FD0072A36D10B9C14
:104A800054F8042B002A00F0288143F021010DF195
:104A9000480E704603E0202E00F029811A4602F0ED
:104AA0000F052B46092D94BF303337330F2A00F8FA
:104AB000013B06F101064FEA1213ECD817E100BFE3
:104AC0005D48001004130020AD3C00100B9C9AF8C8
:104AD000010054F8045B9246002DBDBF694243F0CB
:104AE00002030C910C950B940132FCE64A46099B9B
:104AF0000A9909F10109D847CFE60B9951F8048BBF
:104B000098F800201046002F40F0E18072B16FF05D
:104B1000010C0CF1010C4646C44401E0664503D08B
:104B200016F8014F002CF9D1A6EB080613F4806C9F
:104B300002D0BE4228BF3E4613F0020400F0878137
:104B4000002A00F02B81BCF1000F00F041810B9492
:104B50000D964A46DDE909540E464F4408E02B46BF
:104B60002146D84718F8010F09F1010910B14A464A
:104B70004F45F4D131460B9C0D9E002C40F00E8128
:104B80000B918AE69AF801006C287FF4DFAE9AF860
:104B9000020043F440730AF10302DAE69AF80100D6
:104BA00043F400730132D4E69AF80100682800F05B
:104BB000208143F080030132CBE6672800F0E780D4
:104BC000472800F00081452800F0FF800B9C0493EB
:104BD0000C9B0734CDE9027324F007031C46DDE982
:104BE0000931F4E802674A465846CDE900670B945C
:104BF000FFF70AFA814650E646280B9C08BF43F0AF
:104C0000200304930C9B0734CDE9027324F00703BF
:104C10001C46DDE90931F4E802674A465846CDE909
:104C200000670B94FFF720FC814636E64A462520B4
:104C3000099B0A9909F10109D8472EE60B9A9C07AE
:104C400002F1040709F1010640F1E6801078099BA2
:104C50004A460A99D8470C9B012B40F22C81DDE98A
:104C60000954994432462B46214620200136D84724
:104C70004E45F7D10B9710E66F2800F08B8040F27D
:104C80006581782800F008814FF00A0823F01003AE
:104C9000C44647E0002707EB870700EB4700A0F179
:104CA000300711F8010FA0F13002092AF3D98A4622
:104CB0004A1C1CE60B9C9AF8020054F8047B0AF18B
:104CC000020A0AF101020B9427EAE7770FE6002AAD
:104CD0003FF42CAF07F1FF3C1BE723F0100113F466
:104CE000806241F021013FF4D2AE0DF1480E08235D
:104CF0001020059300234A46CDE90230069158461C
:104D0000DDE90931CDE900E60497FFF71FF80B94C0
:104D10008146C2E5582879D0622840F051824FF090
:104D20000208C44613F480606DD123F00C0313F421
:104D3000007240F0C2800B9904310D9113F4807120
:104D400040F02E825E060B9A40F1AA801278002A6B
:104D500040F0DA8023F01003002800F0D5801146DF
:104D60000DF1480E06930C9BCDF80CC0CDE90473F1
:104D7000019100234A4602935846DDE90931CDF8F6
:104D800000E0FEF7E3FF0D9B81460B9385E543F4BE
:104D900000631BE74FF00808C446C3E70C9B4C4672
:104DA000B3427FF6EDAE0F464B44A3EB0609DDE9B7
:104DB000096522463346294620200134D8474C4510
:104DC000F7D13946DCE643F4006343F02003FDE607
:104DD0000F460B94DDE909544A462B462146D84735
:104DE00018F8010F09F101090028F5D139460B9C8B
:104DF000C3E69AF8020043F0C0030AF10302A8E5F3
:104E0000044681461DE623F00D0390E74FF010089D
:104E100043F02003C44685E70C9B012B45D9DDE90F
:104E200009544E4609F1FF38984432462B46214634
:104E300020200136D8474645F7D10C9B324699448D
:104E40000B9B1878DDE90931D8470B9725E50C9BBA
:104E5000B34240F2EE81CDE90D48DDE909548846C0
:104E60004B449E1BCDF82CC04A462B4621462020A1
:104E700009F10109D847B145F6D14146DDF838803E
:104E80000C9BDDF82CC00D9C98F800205E1C104691
:104E9000002A7FF458AE73E64FF01008C44641E78D
:104EA0001D064CBF1288126851E713464A4618780F
:104EB000DDE90931D847B146DCE60B9C073424F024
:104EC00007042246656852F8084B0B9254EA050223
:104ED00040F02C8123F01003002800F027810026E9
:104EE0000DF1480E06930C9B4A46CDE9047300234E
:104EF000CDE900E6CDF80CC002935846DDE9093152
:104F0000FEF724FF8146C8E413F0200F14BF4120B0
:104F100061200DF1480E7646A0F10A0803E0202931
:104F20003FF420AF2246B2FBFCF40CFB1425E8B2A0
:104F3000092D00F130058ABF4044E8B2C0B2624595
:104F400006F8010B01F10101E9D20BE723F0100291
:104F500069280D9240F06F8113F4806204D04FF401
:104F6000806223F011030D930D9B13F4007640D162
:104F70000B9B03F104080D9B13F4807040F09880A4
:104F8000590640F1C6800B9B19780C46CB0F0029BF
:104F900000F0B98022460DF1480E74461646DFF83F
:104FA000A0C201E020280FD03546ACFB0621C9087D
:104FB00001EB8102A6EB42023032092D0E4600F1D0
:104FC000010004F8012BEDD80D9ACDE901030692FA
:104FD0000C9ACDE904720A234A4603935846DDE948
:104FE0000931CDF800E0FEF7B1FECDF82C80814606
:104FF00053E40B9C073424F00704214608466368F9
:1050000050F8081BDC0F0B9051EA030000F0C3803E
:105010000A46191E48DB13460DF1480EF4460026D9
:10502000CDE90E94DFF8188201E0202E2DD05A1819
:1050300042F10002A8FB025929F0030505EB99058E
:10504000521B1C469B1A61F1000508464FF0CC31FB
:1050500001FB03F108FB0511A3FB085319440523C9
:1050600005F00109A9FB03399B180A2C03F1300351
:105070004FEA550570F100000CF8013B06F10106FE
:1050800045EAC1734FEA5101CFD2DDE90E940D9B81
:105090004A4606930C9BCDE90164CDE904730A23CB
:1050A000CDF800E0039328E7524261EB4101B2E7FB
:1050B0000B9B1968CB0F002900F0AB8081EAE172ED
:1050C000A2EBE1720DF1480E7046DFF874C101E009
:1050D000202E10D01546ACFB0241C90801EB81041B
:1050E000A2EB440404F13002092D00F8012B06F173
:1050F00001060A46ECD80D9ACDE9016306920C9A96
:10510000CDE9047267E7002A3FF445AF0DF1480E80
:105110005AE713F0800F0B9B00F08180B3F9001069
:1051200081EAE174A4EBE174A4B22FE713F0200F3D
:1051300014BF412261220DF1480E0A3ACDE90D97C4
:10514000CDF844B000267746F3469146CDE90F3CB2
:1051500003E0202E17D004460D4629464246002380
:10516000204606F09DFFD2B2092A02F1300388BF23
:1051700002EB09034445DBB275F1000507F8013B7A
:1051800006F10106E5D2DE46DDE90D97DDE90F3CCB
:10519000DDF844B0A6E6002A47D1134611463BE7A6
:1051A0000B990968A1B923F0100388B10DF1480EDD
:1051B00006930C9BCDF80CC0CDE904730192D8E5A1
:1051C00013F480627FF4CBAE23F010030D93CBE693
:1051D00013F0200F14BF412061200DF1480E7646D8
:1051E000A0F10A0802E0202AE2D02146B1FBFCF43B
:1051F0000CFB1415E8B2092D00F130058ABF4044BC
:10520000E8B2C0B2614506F8010B02F10102EAD230
:10521000CEE7002A3FF456AF0DF1480E6BE7196850
:1052200081EAE174A4EBE174B0E600260DF1480ECA
:105230002DE701362BE64FF00A081346C44671E508
:10524000CDCCCCCC0EB410B585B007AC54F8043B33
:1052500001464FF0FF32009404480394FFF7FEFA32
:1052600005B0BDE8104003B0704700BFA53C00107A
:1052700070B594461E4605460C4684B04FF0FF328A
:10528000634602A900960348CDE90254FFF7E6FA07
:1052900004B070BDF93F00100FB410B50E4B84B0D0
:1052A00006A91C6851F8043B03915CB100914FF0D2
:1052B000FF3202A90948A047012004B0BDE8104010
:1052C00004B07047184600F081FA204604B0BDE8EB
:1052D000104004B0704700BF04130020F13F0010DD
:1052E00010B5094B84B01C684CB1034600914FF0D7
:1052F000FF3203A90548A047012004B010BD00F00B
:1053000065FA204604B010BD04130020F13F0010E0
:1053100000BEFDE7074A0346106838B1064903445A
:105320008B428CBF4FF0FF30136070470349084633
:105330001160F3E7001300200000082098130020FC
:1053400003460846114623B9034BD3E9002300F076
:1053500059B94FF0FF30704798C70010431E012B1A
:1053600009D810B51446084601230022214600F052
:10537000D1F8204610BD4FF0FF3070474FF0FF309E
:10538000704700BF4FF0FF30704700BF4FF0FF3055
:10539000704700BF02288CBF00200120704700BF6B
:1053A00008B5FFF7B5FF00BF9C46144600B50B4695
:1053B0000246614683B044B1054D0648019400950C
:1053C000FFF76AFF0120FFF7A3FF034D2C46F4E728
:1053D000B8C50010C8C5001014C2001038B5064C7E
:1053E000064DFEF775F8AC4204D254F8043B9847DA
:1053F000AC42FAD338BD00BF08C1001010C1001084
:105400000368084611461847437D2DE9F047814659
:105410000F461646002B43D0002A3BDD037D0020BB
:105420004D1E014615F8012FDFF884800A2A01F18C
:1054300001040ED0A6421CD02B782146A3F10D0307
:10544000B3FA83F315F8012F5B090A2A01F101046D
:10545000F0D1002BEED18142A1EB000138441BDCDE
:1054600002214046D9F800309847A64208D020468D
:10547000E2E7864204DD311AD9F800303844984713
:10548000374417F8013CA3F10D03B3FA83F35B092A
:1054900089F81430BDE8F087D9F800309847DFE785
:1054A0003846D9F800301146BDE8F047184700BF2C
:1054B00048C800100B682DE9F041802B0D460646C8
:1054C00005D05A1C2B442A601E71BDE8F0810F4B99
:1054D0001C68A4B10E4F01F1040801E0246974B105
:1054E0002368002BFAD03B680BB1A342F6D12046CB
:1054F00041462A68FFF788FF2469002CF0D1002379
:1055000001222B442A601E71BDE8F081F4120020B4
:10551000FC1200202DE9F04782B00D4692469946D4
:105520000746FDF7BFFD4FF0FF366FF000442F4AEE
:10553000821841F10003964274EB03013CBF3246EE
:1055400023462B4806F0B4FD6B1C804603D1384639
:1055500001F0B6FB0546274B274E1C68274BB9F1D7
:10556000000F18BF1E46B4B1BAF1000F1AD1DFF810
:10557000909001E0246974B12368002BFAD0D9F827
:1055800000300BB19C42F5D120462A463946B0473F
:105590002469002CF0D1B8F1000F1FD1284602B0C9
:1055A000BDE8F0874FF00A0ADFF8549002E0246962
:1055B000002CF0D02368002BF9D0D9F800300BB1C3
:1055C000A342F4D12A4639462046B047012220465C
:1055D0000DF107018DF807A0B047E8E7044806F091
:1055E00063FD284602B0BDE8F08700BF40420F00CF
:1055F000C80D0020F41200200154001009540010BE
:10560000FC1200202DE9F04F984607460E4683B065
:10561000DFF860B0DFF86090DFF860A00192DBF89F
:10562000004014B911E024697CB1D9F800500DB1E3
:10563000A542F8D1A268002AF5D0314638469047F5
:105640000028F0DD03B0BDE8F08FDAF824209045A3
:105650000BD8DAF82810019B994204D36FF00100AF
:1056600003B0BDE8F08F9045F8D101200021FDF78F
:1056700023FDD4E7F4120020FC12002000000B40B0
:105680000A4A13684BB1834202D109E0984207D01D
:1056900003F110021B69002BF8D101B110607047B3
:1056A0000029FCD10369136001617047F4120020E6
:1056B00008B500F0EBF9012008BD00BF2DE9F0416D
:1056C00082B00646FDF7EEFC4FF0FF326FF000436C
:1056D000361841F10007B24273EB07013CBF164692
:1056E0001F46DFF86080154DD8F8004014B912E06D
:1056F000246984B12B680BB19C42F9D1A368002BBB
:10570000F6D0012101A898470028F1DD9DF804009A
:1057100002B0BDE8F0810A4B5A6A974209D89B6AE9
:10572000B34204D36FF0010002B0BDE8F0819742AC
:10573000F8D101200021FDF7BFFCD5E7FC120020C5
:1057400000000B40F4120020F0B583B006468DF83F
:105750000700FDF7A7FC4FF0FF356FF00044174A34
:10576000821841F10003954274EB03013CBF2346CC
:105770002A46134806F09CFC124B07461C689CB155
:10578000114D01E024697CB12368002BFAD02B680D
:105790000BB19C42F6D1204601220DF10701FFF723
:1057A00033FE2469002CEFD117B9304603B0F0BDA9
:1057B000034806F079FC304603B0F0BD40420F00CC
:1057C000C80D0020F4120020FC12002038B5044659
:1057D00001F076FA012305461A4620462946FFF7CE
:1057E00099FE084B1C682CB163682BB1984724695B
:1057F000002CF9D1284638BD2469002CF4D1284664
:1058000038BD00BFF41200202DE9F041A2B00446DB
:105810000D46FDF747FC4FF0FF376FF00046274A73
:10582000821841F10003974276EB03013CBF3A46F0
:105830003346234806F03CFC00262B46074622460A
:10584000204801A90196FFF713FD019B06467BB98D
:105850001D4B1C682CB1636843B198472469002C28
:10586000F9D10FBB304622B0BDE8F0812469F1E7E1
:10587000DFF85480D8F80050EDB1144C01E02D69E8
:1058800075B12B68002BFAD023680BB1AB42F6D16F
:105890002846019A02A9FFF7B7FD2D69002DF0D126
:1058A000D8F800400195D5E7054806F0FDFB3046E5
:1058B00022B0BDE8F0810195D3E700BF40420F0060
:1058C000C80D0020B5540010F4120020FC12002076
:1058D0000FB400B583B004A951F8040B0191FFF790
:1058E00093FF03B05DF804EB04B07047B1F1000C16
:1058F0001DDD0F4A0F4B126830B5D31AB3FA83F38C
:105900000D240D4D5B09411E35F913E08C4411F84F
:10591000010F864506D093699B06FCD46145106053
:10592000F5D130BD93699D06FCD41460F3E7704750
:1059300090130020008007408C130020224BB1F10F
:10594000000C10B41C682EDD034600201F4A591EAF
:1059500012689369DB0617D401309369DB06FCD427
:105960001368844501F8013FF3D14CB1502113462F
:10597000916353F8342F02F0380203F580531A6014
:1059800060465DF8044B70474CB15021134691635B
:1059900053F8342F02F0380203F580531A6078B1BF
:1059A0005DF8044B70475CB1084B50211A681346F0
:1059B000916353F8342F02F0380203F580531A60D4
:1059C0006FF00200ECE700BF84120020901300206B
:1059D000054B1B6833B10021044A05481268006872
:1059E00091631847704700BF841200209013002075
:1059F00088120020024B1A6893691B07FCD4704779
:105A000090130020F8B51C4F1C4D3A681C4EAA425A
:105A100014BF212522250446D6F800C018B1BCF1D8
:105A2000000F10D0F8BDBCF1000FFBD00146906311
:105A30002846FCF79BFD28461249FCF7DDFD124B7A
:105A400034601C60F8BD0B460F4A0E493060284692
:105A50001360FCF7A1FD01212846FCF787FD3A6899
:105A600050211346916353F8342F02F0380203F5A6
:105A700080531A60F8BD00BF9013002000800740DB
:105A800084120020D15900108812002010B50E4950
:105A90000E4C0F480F4A104B007821600020022165
:105AA00012781B78FCF788FC02210120FCF784FCAB
:105AB0004FF4E1312068FDF787FBBDE8104001217C
:105AC0000648FFF7DDBD00BF00000740901300202F
:105AD000D8360110D4360110D0360110D40600207B
