:020000041000EA
:10000000002008205D0100101301001015010010F0
:100010001101001011010010110100101101001058
:100020001101001011010010110100101701001042
:100030001101001011010010190100101B01001026
:100040001D0100101D0100101D0100101D010010F8
:100050001D0100101D0100101D0100101D010010E8
:100060001D0100101D0100101D0100101D010010D8
:100070001D0100101D0100101D0100101D010010C8
:100080001D0100101D0100101D0100101D010010B8
:100090001D0100101D0100101D0100101D010010A8
:1000A0001D0100101D0100101D0100101D01001098
:1000B0001D0100101D0100101D0100101D01001088
:1000C0001D0100101D0100101D0100101D01001078
:1000D0001D0100101D0100101D0100101D01001068
:1000E0001D0100101D0100101D0100101D01001058
:1000F0001D0100101D0100101D0100101D01001048
:100100001D0100101D0100101D0100101D01001037
:1001100000BE00BE00BE00BE00BE00BEEFF3058004
:10012000103800BEF2EB887198590110C8590110BF
:10013000A801001090A31AE7D3DEFFFF42012110AF
:10014000FF01000040690100793512AB4FF000005B
:100150002049086006C881F3088810474FF05040D6
:10016000006810B14FF00000F2E70FA40ECC002998
:1001700002D000F015F8F9E71749184A002000E00E
:1001800001C19142FCD1002080F30A8814498847BC
:10019000144988471449884700BEFDE701C901C2D8
:1001A0009A42FBD3704700BFC859011010010020CC
:1001B000C0110020786A011000000820000008200B
:1001C000786A0110001008200010082000000000CC
:1001D0007047000008ED00E0C01100209C170020CF
:1001E000C5700010A902001089700010F8B500BF9A
:1001F000064B0749C91A891048BF0131491003D07D
:10020000044B0BB101481847704700BFC0110020D4
:10021000C01100200000000008B5054B1BB10549C6
:100220000548AFF30080BDE80840FFF7E1BF00BF1D
:10023000000000000C170020E0DF001008B517498F
:10024000174807F03DFC03210C2003F023FD032198
:100250000D2003F01FFD002201210C2003F038FDCA
:10026000002201210D2003F033FD0C490D4807F059
:1002700027FC03210A2003F00DFD03210B2003F0CE
:1002800009FD002201210A2003F022FD00220121A4
:100290000B2003F01DFD002008BD00BFA08601005B
:1002A000F00A0020E80A00202DE9F04FADF2146DAD
:1002B0000DF5896A50220021504609F059FE0023AD
:1002C00019202E9303F018FD19234FF0010242EC80
:1002D0004430FFF7B3FF652402F050FC02F032FC1B
:1002E00007F018F804E0013C07D0642004F020FB7C
:1002F000002007F0D9FC0028F5D0BC4807F098F89A
:1003000004F028FC0B463C220021109031A81193E8
:1003100009F02EFE04F01EFC0B463C2200210C903E
:1003200040A80D9309F024FE04F014FC0B463C2277
:10033000002126904FA8279309F01AFE3C220021A5
:100340005EA809F015FE04F005FC0B463C220021D6
:1003500012906DA8139309F00BFE04F0FBFB0B4603
:100360003C22002114907CA8159309F001FEA048BE
:1003700001F0DEF90DF59366289004F0EBFB78228E
:100380000021304609F0F4FD002404F0E3FB8DF871
:100390002C421690179104F0DDFB0B463C222146BF
:1003A00018909AA8199309F0E3FD04F0D3FB914B40
:1003B0001A90F8201C701B9105F056FA834600280D
:1003C00000F05A8404F0C6FB0B463C2200211C902E
:1003D000A9A81D9309F0CCFD04F0BCFB0B463C2200
:1003E00000211E90B8A81F9309F0C2FD04F0B2FBD3
:1003F00000250B463C2200212090C7A8219309F03C
:10040000B7FD8DF8B65004F0A5FB0B463C222946FB
:100410002290D6A8239309F0ABFD04F09BFB0B467A
:100420003C2229462990E5A82A9309F0A1FD04F071
:1004300091FB0B463C2229462490F4A8259309F011
:1004400097FD04F087FB0B460E903C2229460DF2E7
:100450000C400F9309F08CFD0DF5A26704F07AFBB8
:10046000109BC01A119B61EB0301634B984271F121
:10047000000180F2D18104F06DFB0C9A5F4B801A71
:100480000D9A61EB0201834275EB0101C0F2BA8162
:1004900004F060FB269A5A4B801A279A61EB0201FE
:1004A000834275EB0101C0F2DA8204F053FB129A29
:1004B000544B801A139A61EB0201834275EB0101E0
:1004C000C0F26581504B3360289B002B40F0C980FF
:1004D0004E4A7CAB07CA03C31A8004F03BFB149A54
:1004E0004B4B801A159A61EB0201984271F10001A1
:1004F00080F2738304F02EFB169A414B801A179AF0
:1005000061EB0201834275EB0101C0F2648204F0E9
:1005100021FB189A3A4B801A199A61EB0201834227
:1005200075EB0101C0F2498204F014FB1A9A344BB6
:10053000801A1B9A61EB0201834275EB0101C0F244
:10054000078204F007FB1C9A2D4B801A1D9A61EB61
:100550000201834275EB0101C0F2608204F0FAFAF5
:100560001E9A274B801A1F9A61EB0201834275EB9A
:100570000101C0F2458204F0EDFA209A204B801A66
:10058000219A61EB0201834275EB0101C0F28A817D
:1005900004F0E0FA229A1A4B801A239A61EB0201C6
:1005A000834275EB0101C0F25D8104F0D3FA299A10
:1005B000134B801A2A9A61EB0201834275EB010109
:1005C000C0F2428104F0C6FA249A0D4B801A259A93
:1005D00061EB0201834275EB0101C0F22A8104F054
:1005E000B9FA0E9A064B801A0F9A13E0E0DF00105A
:1005F000380A002000160020C0CF6A001FA10700A3
:100600003F420F004F690F0052582000F8E00010E1
:1006100000127A0061EB0201834275EB0101BFF623
:100620001DAF04F097FA03460020CDE90E3106F025
:1006300077FEB34B1B68002B40F30382811C00F054
:10064000DD82B04AD054AE4A01331360AE4BAD4A9E
:10065000AE490DF20C4006F083FCFFE6AC4806F014
:1006600067FF01F097FF10B300F0A6FB04460028D7
:1006700040F0D982384602F05DF83C5400F006FFA5
:1006800002F044FAA3492EAA0DF21F5009F0C4FB50
:10069000012840F0D2822E991329DFD85AF8213050
:1006A00001334AF8213001F075FF0028DCD13046D3
:1006B00009F030FFD0F17704D04610D0304609F071
:1006C00029FF2146944A58F8043B304406F05EFC6A
:1006D0008442A4EB000440F28D82B045EED100F0DC
:1006E000D5FE02F013FA8D4A7CAB07CA03C31A8009
:1006F00004F030FA149A8A4B801A159A61EB0201C1
:10070000984271F10001FFF6F5AE04F023FACDE94D
:1007100014014FF00A084FFA88F000F0ADFC424691
:1007200080497CA806F01CFC7CA809F0F3FEC1B24D
:100730007CA801F035FF00F0A1FD02F0CBF91E20EE
:1007400004F0F6F80B2402E0642004F0F1F801F064
:100750001BFF08B9013CF7D101F016FF002800F09B
:100760006C81B8F10108D6D100F090FE02F0CEF90C
:10077000DFF8D8C17CACBCE80F000FC49CE80300D4
:1007800044F8040B24F8021B090C2170B2E604F0B3
:10079000E1F9654A6DAB1290139107CA03C3E5A84E
:1007A0001A7006F0C5FE0DF20C4006F0C1FE4FA80F
:1007B00006F0BEFE5EA806F0BBFE40A806F0B8FE3E
:1007C00031A806F0B5FEA9A806F0B2FEB8A806F05A
:1007D000AFFEC7A806F0ACFED6A806F0A9FE7CA81E
:1007E00006F0A6FE304606F023FE8BA806F0A0FE1B
:1007F0009AA806F09DFE4D4806F09AFEF4A806F071
:1008000097FE5FE604F0A6F919234FF00002CDE948
:100810000C0142EC40303BE604F09CF91923012224
:10082000CDE9100142EC403004F094F9CDE90C011F
:1008300021E604F08FF93E4BCDE9240193E8030053
:10084000F4908DF8D413CAE606234FF0000242EC70
:100850004030384BE5AC0FCB07C424F8023B1B0CEF
:100860002370AFE604F076F9334BCDE9220193E82B
:100870000300D6903148ADF85C1302F06DFD0028FE
:1008800000F06A81D6A809F045FE2D4B441ED6AA79
:1008900002EB040C07CBD6AB1851CCF80410CCF803
:1008A000082082E604F056F9264BCDE9200193E8B2
:1008B0000300C790ADF820132048090C8DF82213CF
:1008C00002F0F2FC30AA2FA91C4802F01BFDC7A8B9
:1008D00009F020FE04462F980DF046FB013CC7AB03
:1008E000804630981C4489460DF03EFB4246CDE9D7
:1008F00000014B462046144906F032FB48E600BF93
:10090000241700208C1600204817002094E20010C5
:1009100058E0001054E00010C0E00010F8E00010B3
:1009200000127A0004E1001048E0001000160020D8
:1009300054E2001044E2001020E20010F00A00200F
:1009400038E20010F4E10010FCE100102CE100108E
:1009500004F000F99DF82C321A901B91002B00F046
:100960002B81BBF1000F00F0278159468BA802F0C4
:100970006FFD9BF834308DF82C52002B00F0158160
:10098000DBE91A23CDE90A23DBE91623CDE90823A5
:100990009BF82930BB490693DBE90823CDE9042302
:1009A0009BF82830B8480293DBE90623CDE9002301
:1009B000DBF82C2006F0D4FAC3E504F0CBF8B34BF7
:1009C000CDE9180193E80300ADF86C12090C9A9078
:1009D0008DF86E12A8E504F0BDF88DF82C52169033
:1009E000179103F0F7F8002840F0ED809DF82C32C5
:1009F000002B3FF48CAD8BA9A54806F0B1FA86E533
:100A000004F0A8F8A34BCDE91E0193E80300ADF86C
:100A1000E412090CB8908DF8E612ACE504F09AF8EF
:100A20009D4AA9AB1C901D9107CA03C31A7002F01E
:100A300031F950B902F0E4F990E5984806F0F8FC75
:100A40008FE6821C7FF4FDAD00E6DFF8A4C2A9ACFE
:100A5000BCE80F000FC4DCF8003023707EE504F022
:100A600079F8002442F210798D4BCDE9260193E804
:100A700003004FAB83E80300CDF8ACB014F078036B
:100A80005FFA84F828D0782B26D004F063F84FF072
:100A9000FF3B8C466FF0004E414610EB09084CF1CD
:100AA000000CC3457EEB0C003CBFD846F446012346
:100AB000CDE9028C7B480DF1B702009507F04CF8A8
:100AC000002809DB4FA809F025FD4FAB013822466D
:100AD0007549184406F044FA0134802CCED1002424
:100AE00042F21079714B93E803005EAB83E8030098
:100AF00014F078035FFA84F828D0782B26D004F01D
:100B000029F84FF0FF3B8C466FF0004E414610EB4A
:100B100009084CF1000CC3457EEB0C003CBFD846E5
:100B2000F4460123CDE9028C61480DF1B70200952E
:100B300007F012F8002809DB5EA809F0EBFC5EABB9
:100B4000013822465849184406F00AFA0134802C2C
:100B5000CED1DDF8ACB0A8E4044609E01046554912
:100B60009DF8B62006F0FCF90134082C3FF41DADC9
:100B70000DF1B602E1B24B4802F01AFC8046D6A84D
:100B800009F0C8FCD6AA431E1A44B8F1000FE5D0FC
:100B900049490DF5567E0868B1F804C089794EF8C8
:100BA0000300A2F804C09171DEE7444B93E807000C
:100BB000354B83E80700C4E4414B93E80300324B14
:100BC00018601971BDE4DFF82CC18BACBCE80F00D4
:100BD0000FC4DCF80030237099E403F0BBFF034638
:100BE0003848CDE9143100F0A3FD289000283FF4E7
:100BF00081AC8EE5344806F01BFC70E5334AD554D1
:100C0000334B1D601368334A93421CD032492F483E
:100C100009F02CFB00287FF419AD01465022504604
:100C200009F0A6F912E5304609F074FC2B49C0F131
:100C30003B02304609F052FA39E50DF214512848CA
:100C400006F076FC33E5214B264A5B689342DDD102
:100C5000254CDFF8A4C04FF0060EBCE80F000FC40F
:100C60009CE8070003C40123227043EC40E003F03A
:100C700071FFCDE92901C9E71C4806F0D9FBFFF750
:100C8000A1BB00BF6CE100100016002064E1001061
:100C900044E10010ECE10010CCE1001018E100107C
:100CA0002CE00010F00A002034E0001040E00010BA
:100CB000E80A002028E2001030E20010B8E100103D
:100CC000C4E10010380A0020C4E000108C16002097
:100CD000241700204255524E80E200105CE60010BE
:100CE00088E000105F4F4E0048170020FCDF001026
:100CF000D8E1001050E1001064E200102DE9F04747
:100D00004FF0000A82B08146002105208DF806A030
:100D1000112503F029FF4AEC40500124254E0520FF
:100D2000002103F021FF22460DF1070130688DF804
:100D300007400DF02DF9514623460DF106023068AB
:100D40000DF022F90520002103F00EFF44EC405085
:100D50000520002103F008FF9DF80630052023F050
:100D6000070343EA090300218DF8063003F0FCFE77
:100D70004AEC40500520002103F0F6FE8123224674
:100D80000DF1070130688DF807300DF001F92246AA
:100D90000DF1060130680DF0FBF80520002103F08D
:100DA000E3FE44EC40500520002103F0DDFE02B0DC
:100DB000BDE8F087440A002070B5002482B0052009
:100DC00000218DF80640112503F0CEFE44EC405082
:100DD0000520002103F0C8FE1223114E0DF107017A
:100DE000012230688DF807300DF0D2F8012321463A
:100DF0000DF1060230680DF0C7F80520002103F060
:100E0000B3FE4FF0010343EC40500520002103F0F6
:100E1000ABFE9DF80600C0F3401002B070BD00BFED
:100E2000440A00202DE9F04341F67861002405468C
:100E30008D4A83B005E0DCB252F82410002900F09E
:100E4000BF808D4204F10103F5D8884806F070FB9D
:100E500024014FF00008052000218DF80680C146CE
:100E600003F082FE112748EC40700520002103F0BA
:100E70007BFE1D237E4E0DF10701012230688DF8A7
:100E800007300DF085F8012341460DF10602306868
:100E90000DF07AF80520002103F066FE4FF00108FE
:100EA00048EC40700520002103F05EFE9DF80630FE
:100EB000052023F0F003234300218DF8063003F0D2
:100EC00053FE49EC40700520002103F04DFE9D23A8
:100ED0000DF10701012230688DF807300DF058F848
:100EE00001220DF1060130680DF052F805200021B5
:100EF00003F03AFE48EC40700520002103F034FE78
:100F00005C4B9D425ED841F678639D4200F0A9801B
:100F10004FF223439D428CBF4023442305200021F0
:100F20008DF8063003F020FE49EC407005200021CA
:100F300003F01AFEAF230DF10701012230688DF88E
:100F400007300DF025F801220DF1060130680DF093
:100F50001FF80520002103F007FE48EC4070052033
:100F6000002103F001FE0023052000211D468DF81D
:100F70000630112403F0F8FD45EC40400520002127
:100F800003F0F2FDB0230DF10701012230688DF866
:100F900007300CF0FDFF01220DF1060130680CF066
:100FA000F7FF0520002103F0DFFD4FF0010343ECC4
:100FB00040400520002103F0D7FD03B0BDE8F083D9
:100FC000902446E70223052000218DF8063003F027
:100FD000CBFD49EC40700520002103F0C5FDB62390
:100FE0000DF10701012230688DF807300CF0D0FFB9
:100FF00001220DF1060130680CF0CAFF0520002126
:1010000003F0B2FD48EC40700520002103F0ACFD78
:101010006423052000218DF8063003F0A5FD49EC7E
:1010200040700520002103F09FFDBA230DF1070158
:10103000012230688DF807300CF0AAFF01220DF173
:10104000060130680CF0A4FF0520002103F08CFDA0
:1010500048EC40700520002103F086FD03B0BDE898
:10106000F08348235AE700BF44EA0010FCE2001076
:10107000440A00201FA107002DE9F04F4FF0000A9D
:1010800083B00646002105208DF806A0112403F048
:101090006BFD4AEC40404FF0090B774D05200021D5
:1010A00003F062FD0DF10701012228688DF807B0F9
:1010B0000CF06EFF012351460DF1060228680CF07A
:1010C00063FF0520002103F04FFD4FF0010747ECBF
:1010D00040400520002103F047FD9DF80630052023
:1010E00063F07F0300218DF8063003F03DFD4AECEC
:1010F00040404FF089090520002103F035FD0DF136
:101100000701012228688DF807900CF041FF0122A9
:101110000DF1060128680CF03BFF0520002103F0CB
:1011200023FD47EC40400520002103F01DFD052074
:1011300000218DF806A003F017FD4AEC4040052081
:10114000002103F011FD0DF10701012228688DF83F
:1011500007B00CF01DFF012351460DF1060228686F
:101160000CF012FF0520002103F0FEFC47EC40408C
:101170000520002103F0F8FC9DF80630052043F01F
:10118000700300218DF8063003F0EEFC4AEC40407D
:101190000520002103F0E8FC0DF107010122286879
:1011A0008DF807900CF0F4FE01220DF1060128687D
:1011B0000CF0EEFE0520002103F0D6FC47EC404089
:1011C0000520002103F0D0FC052000218DF806A0A9
:1011D00003F0CAFC4AEC40400520002103F0C4FCA7
:1011E0000DF10701012228688DF807B00CF0D0FE40
:1011F000012351460DF1060228680CF0C5FE0520BA
:10120000002103F0B1FC47EC4040052046EAE676B9
:10121000002103F0A9FC0E2EA8BF0E269DF8063073
:10122000013623F00F031E43052000218DF80660D0
:1012300003F09AFC4AEC40400520002103F094FCA6
:101240000DF10701012228688DF807900CF0A0FE2F
:1012500001220DF1060128680CF09AFE05200021FC
:1012600003F082FC47EC40400520002103F07CFCA9
:1012700003B0BDE8F08F00BF440A00202DE9F04321
:10128000002683B0052000218DF80660112503F0AB
:101290006BFC46EC40500520002103F065FC402328
:1012A000784C0DF10701012220688DF807300CF011
:1012B0006FFE012331460DF1060220680CF064FE3A
:1012C0000520002103F050FC4FF0010747EC40508F
:1012D0000520002103F048FC9DF80630052023F08E
:1012E000C00343F0400300218DF8063003F03CFCBE
:1012F00046EC40500520002103F036FCC0230DF1E0
:101300000701012220688DF807300CF041FE012210
:101310000DF1060120680CF03BFE0520002103F0D2
:1013200023FC47EC40500520002103F01DFCFF2367
:10133000052000218DF8063003F016FC46EC4050E5
:101340000520002103F010FC92230DF1070101227A
:1013500020688DF807300CF01BFE01220DF106010C
:1013600020680CF015FE0520002103F0FDFB47EC82
:1013700040500520002103F0F7FB052000218DF8E7
:10138000066003F0F1FB46EC40500520002103F01D
:10139000EBFB12230DF10701012220688DF80730C5
:1013A0000CF0F6FD012331460DF1060220680CF029
:1013B000EBFD0520002103F0D7FB47EC4050052052
:1013C000002103F0D1FB9DF80630002B56D14FF0E1
:1013D0000009052000218DF80690112603F0C4FBBA
:1013E00049EC406001250520002103F0BDFB2A46A1
:1013F0000DF1070120688DF807500CF0C9FD2B4650
:1014000049460DF1060220680CF0BEFD05200021C2
:1014100003F0AAFB45EC40600520002103F0A4FB8B
:101420009DF80630052023F0070343F00303002155
:101430008DF8063003F098FB49EC40600520002150
:1014400003F092FB81232A460DF1070120688DF8F5
:1014500007300CF09DFD2A460DF1060120680CF0C6
:1014600097FD0520002103F07FFB45EC406005203F
:10147000002103F079FB03B0BDE8F083024805F0DA
:10148000D7FFA4E7440A002020E300102DE9F04331
:10149000002683B0052000218DF80660112503F099
:1014A00063FB46EC40500520002103F05DFB402328
:1014B0009D4C0DF10701012220688DF807300CF0DA
:1014C00067FD012331460DF1060220680CF05CFD3A
:1014D0000520002103F048FB4FF0010747EC405086
:1014E0000520002103F040FB9DF80630052023F085
:1014F000C00300218DF8063003F036FB46EC405067
:101500000520002103F030FBC0230DF1070101226B
:1015100020688DF807300CF03BFD01220DF106012B
:1015200020680CF035FD0520002103F01DFB47EC81
:1015300040500520002103F017FBFF230520002168
:101540008DF8063003F010FB46EC405005200021DA
:1015500003F00AFB92230DF10701012220688DF8A8
:1015600007300CF015FD01220DF1060120680CF08A
:101570000FFD0520002103F0F7FA47EC405005204D
:10158000002103F0F1FA052000218DF8066003F038
:10159000EBFA46EC40500520002103F0E5FA122357
:1015A0000DF10701012220688DF807300CF0F0FCE6
:1015B000012331460DF1060220680CF0E5FC052000
:1015C000002103F0D1FA47EC40500520002103F040
:1015D000CBFA9DF80630002B40F0A1804FF00009B7
:1015E000052000218DF80690112503F0BDFA49EC85
:1015F00040500520002103F0B7FA8D230DF10701BB
:10160000012220688DF807300CF0C2FC01220DF198
:10161000060120680CF0BCFC0520002103F0A4FAB0
:10162000012646EC40500520002103F09DFA0520DC
:1016300000218DF8069003F097FA49EC4050052000
:10164000002103F091FA902332460DF10701206842
:101650008DF807300CF09CFC32460DF10601206835
:101660000CF096FC0520002103F07EFA46EC405079
:101670000520002103F078FA052000218DF806905E
:1016800003F072FA49EC40500520002103F06CFA97
:1016900032460DF1070120688DF807600CF078FCE8
:1016A000334649460DF1060220680CF06DFC05201A
:1016B000002103F059FA46EC40500520002103F0C8
:1016C00053FA9DF80630052023F0070343F0050385
:1016D00000218DF8063003F047FA49EC4050052010
:1016E000002103F041FA812332460DF10701206801
:1016F0008DF807300CF04CFC32460DF106012068E5
:101700000CF046FC0520002103F02EFA46EC405078
:101710000520002103F028FA03B0BDE8F083034858
:1017200005F086FE5AE700BF440A002054E300108B
:101730002DE9F047814682B0152002F0DDFA002540
:10174000152445EC44402A462946204602F0C0FABA
:101750004FF0010747EC4040112002F0CDFA11266E
:1017600047EC44602A462946304602F0B1FA47EC7D
:1017700040600121122002F08DFA0121132002F0B5
:1017800089FA0121102002F085FA47EC444045EC2B
:1017900040406420002103F05FF845EC4440AA4C2F
:1017A000052003F0C5F80A2003F00CFA2068A749C9
:1017B000C9F8080006F0EEF920684FF00209034668
:1017C0004FF0C20C53F8041F00F5805E03F5405241
:1017D000C2F80090026801EA090182F0070203F5ED
:1017E000005302F0CF02CEF800208DF805501960AA
:1017F0008DF807C045EC406001220DF107010CF0A7
:10180000C7FB0123294620680DF105020CF0BCFB43
:1018100047EC40604FF0000801280CBF8C488D4811
:1018200005F086FE9DF805104746112914BF8A4829
:101830008A4805F07DFE142002F05EFA142048EC80
:1018400044000122414602F043FA052000218DF8B0
:101850000680112603F088F948EC40600125052038
:10186000002103F081F92A460DF1070120688DF867
:1018700007500CF08DFB2B4641460DF10602206807
:101880000CF082FB05200021A94603F06DF945EC20
:1018900040600520002103F067F99DF8063005201F
:1018A00023F0070300218DF8063003F05DF948ECC2
:1018B00040604FF0810A0520002103F055F92A46C7
:1018C0000DF1070120688DF807A00CF061FB2A4696
:1018D0000DF1060120680CF05BFB0520002103F0F0
:1018E00043F945EC40600021052003F03DF90A2052
:1018F00003F01EF8052000218DF8068003F034F96E
:1019000048EC40600520002103F02EF92A460DF135
:10191000070120688DF807500CF03AFB2B46414632
:101920000DF1060220680CF02FFB0520002103F0CA
:101930001BF945EC40600520002103F015F99DF8E6
:101940000630052063F07F0300218DF8063003F098
:101950000BF948EC40600520002103F005F92A4608
:101960000DF1070120688DF807A00CF011FB2A4645
:101970000DF1060120680CF00BFB0520002103F09F
:10198000F3F845EC40600021052003F0EDF80A2053
:1019900002F0CEFF052000218DF8068003F0E4F868
:1019A00048EC40600520002103F0DEF82A460DF1E6
:1019B000070120688DF807500CF0EAFA2B464146E3
:1019C0000DF1060220680CF0DFFA0520002103F07B
:1019D000CBF845EC40600520002103F0C5F89DF8E8
:1019E000068018F0070828D1052000218DF8068010
:1019F00003F0BAF847EC40600520002103F0B4F88A
:101A00002A460DF1070120688DF807500CF0C0FA46
:101A10002B4641460DF1060220680CF0B5FA052070
:101A2000002103F0A1F845EC40600520002103F0FF
:101A30009BF89DF80650ED0914D1094805F0F8FC13
:101A4000012002B0BDE8F087440A0020404B4C0062
:101A500088E30010A4E30010C0E30010E0E30010EE
:101A600010E400102846FFF749F9052000218DF801
:101A7000068003F079F847EC40600520002103F070
:101A800073F88E232A460DF1070120688DF8073080
:101A90000CF07EFA2A460DF1060120680CF078FA67
:101AA0000520002103F060F849EC4060052000218A
:101AB00003F05AF8052000218DF8068003F054F851
:101AC00047EC40600520002103F04EF88F232A46A2
:101AD0000DF1070120688DF807300CF059FA2A46FD
:101AE0000DF1060120680CF053FA0520002103F0E7
:101AF0003BF849EC40600520002103F035F86D23E8
:101B0000052000218DF8063003F02EF847EC4060E8
:101B10004FF0860A0520002103F026F82A460DF131
:101B2000070120688DF807A00CF032FA2A460DF163
:101B3000060120680CF02CFA0520002103F014F8AF
:101B400049EC40600520002103F00EF8052000213B
:101B50008DF806A003F008F847EC4060052000214E
:101B600003F002F887232A460DF1070120688DF85B
:101B700007300CF00DFA2A460DF1060120680CF032
:101B800007FA0520002102F0EFFF49EC4060052034
:101B9000002102F0E9FF6623052000218DF80630C0
:101BA00002F0E2FF47EC40600520002102F0DCFF7C
:101BB00088232A460DF1070120688DF807300CF0C4
:101BC000E7F92A460DF1060120680CF0E1F905203D
:101BD000002102F0C9FF49EC40600520002102F01D
:101BE000C3FFB449B44805F0A3FC052000218DF8DB
:101BF000068002F0B9FF47EC40600520002102F0AA
:101C0000B3FFA0232A460DF1070120688DF80730A5
:101C10000CF0BEF92A460DF1060120680CF0B8F967
:101C20000520002102F0A0FF49EC406005200021C2
:101C300002F09AFF0823052000218DF8063002F0FB
:101C400093FF47EC40600520002102F08DFFA123A7
:101C50002A460DF1070120688DF807300CF098F93D
:101C60002A460DF1060120680CF092F905200021AA
:101C700002F07AFF49EC40600520002102F074FF79
:101C8000052000218DF8068002F06EFF47EC4060D1
:101C90000520002102F068FF20232A460DF10701EC
:101CA00020688DF807300CF073F92B4641460DF192
:101CB000060220680CF068F90520002102F054FFAC
:101CC00049EC40600520002102F04EFF0520002174
:101CD0009DF806A08DF8068002F046FF47EC4060B4
:101CE0000520002102F040FF21232A460DF10701C3
:101CF00020688DF807300CF04BF92B4641460DF16A
:101D0000060220680CF040F90520002102F02CFFAB
:101D100049EC40600520002102F026FF9DF80630C6
:101D200043EA0A23082B40F0168400256348FFF796
:101D300079F8052000218DF80650112602F014FFD5
:101D400045EC40600520002102F00EFF1D230DF13F
:101D50000701012220688DF807300CF019F90123E2
:101D600029460DF1060220680CF00EF9052000212D
:101D700002F0FAFE4FF0010343EC40600520002121
:101D800002F0F2FE9DF806308F2B4FEA131200F29C
:101D9000E7834B4B53F82230484A934240F0E083AC
:101DA00000260821474805F0C3FB052000218DF8D7
:101DB0000660112502F0D8FE46EC40504FF01D0998
:101DC0000520002102F0D0FE0DF10701012220685C
:101DD0008DF807900CF0DCF8012331460DF1060276
:101DE00020680CF0D1F80520002102F0BDFE4FF074
:101DF000010747EC40500520002102F0B5FE9DF898
:101E00000630052023F00E0343F0080300218DF86F
:101E1000063002F0A9FE46EC40500520002102F0F9
:101E2000A3FE9D230DF10701012220688DF80730E4
:101E30000CF0AEF801220DF1060120680CF0A8F8B4
:101E40000520002102F090FE47EC405005200021C3
:101E500002F08AFE052000218DF8066002F084FE63
:101E600046EC40500520002102F07EFE0DF10701F6
:101E7000012220688DF807900CF08AF80123314682
:101E80000DF1060220680CF07FF80520002102F019
:101E90006BFE47EC40500520002102F065FE9DF8E6
:101EA000063003F00E03082B10D0074805F040FB66
:101EB0000CE000BF20E01C1ABCE2001048E8010062
:101EC00044EA0010DCE20010ACE40010002605201B
:101ED00000218DF80660112502F046FE46EC4050C8
:101EE0004FF01E090520002102F03EFE0DF1070112
:101EF000012220688DF807900CF04AF80123314642
:101F00000DF1060220680CF03FF80520002102F0D8
:101F10002BFE4FF0010747EC40500520002102F056
:101F200023FE9DF80630052023F0F00343F07003F4
:101F300000218DF8063002F017FE46EC40500520D7
:101F4000002102F011FE9E230DF1070101222068FD
:101F50008DF807300CF01CF801220DF10601206805
:101F60000CF016F80520002102F0FEFD47EC405071
:101F70000520002102F0F8FD052000218DF8066003
:101F800002F0F2FD46EC40500520002102F0ECFD8D
:101F90000DF10701012220688DF807900BF0F8FF82
:101FA000012331460DF1060220680BF0EDFF0520FC
:101FB000002102F0D9FD47EC40500520002102F03D
:101FC000D3FD9DF806301B09072B02D0C14805F050
:101FD000AFFA0026052000218DF80660112502F0D9
:101FE000C3FD46EC40504FF01E090520002102F0D1
:101FF000BBFD0DF10701012220688DF807900BF061
:10200000C7FF012331460DF1060220680BF0BCFF2B
:102010000520002102F0A8FD4FF0010747EC4050D9
:102020000520002102F0A0FD9DF80630052043F0B8
:10203000040300218DF8063002F096FD46EC405076
:102040000520002102F090FD9E230DF107010122E1
:1020500020688DF807300BF09BFF01220DF106017F
:1020600020680BF095FF0520002102F07DFD47EC74
:1020700040500520002102F077FD052000218DF859
:10208000066002F071FD46EC40500520002102F090
:102090006BFD0DF10701012220688DF807900BF010
:1020A00077FF012331460DF1060220680BF06CFF2B
:1020B0000520002102F058FD47EC4050052000218A
:1020C00002F052FD9DF80630580702D4824805F010
:1020D0002FFA0026052000218DF80660112502F058
:1020E00043FD46EC40504FF026090520002102F048
:1020F0003BFD0DF10701012220688DF807900BF0E0
:1021000047FF012331460DF1060220680BF03CFF2A
:102110000520002102F028FD4FF0010747EC405058
:102120000520002102F020FD9DF80630052043F037
:10213000040300218DF8063002F016FD46EC4050F5
:102140000520002102F010FDA6230DF10701012258
:1021500020688DF807300BF01BFF01220DF10601FE
:1021600020680BF015FF0520002102F0FDFC47EC74
:1021700040500520002102F0F7FC052000218DF8D9
:10218000066002F0F1FC46EC40500520002102F010
:10219000EBFC0DF10701012220688DF807900BF090
:1021A000F7FE012331460DF1060220680BF0ECFE2C
:1021B0000520002102F0D8FC47EC4050002105200A
:1021C00002F0D2FC9DF80630590702D4434805F0CE
:1021D000AFF90026052000218DF80660112502F0D8
:1021E000C3FC46EC40504FF026090520002102F0C8
:1021F000BBFC0DF10701012220688DF807900BF060
:10220000C7FE012331460DF1060220680BF0BCFE2B
:102210000520002102F0A8FC4FF0010747EC4050D8
:102220000520002102F0A0FC9DF80630052043F0B7
:10223000080300218DF8063002F096FC46EC405071
:102240000520002102F090FCA6230DF107010122D8
:1022500020688DF807300BF09BFE01220DF106017E
:1022600020680BF095FE0520002102F07DFC47EC74
:1022700040500520002102F077FC052000218DF858
:10228000066002F071FC46EC40500520002102F08F
:102290006BFC0DF10701012220688DF807900BF00F
:1022A00077FE012331460DF1060220680BF06CFE2B
:1022B0000520002102F058FC47EC40500520002189
:1022C00002F052FC9DF806301A070BD4044805F0C2
:1022D0002FF907E0DCE4001010E5001040E50010E5
:1022E00068E5001000260F20FEF7C6FE052000213D
:1022F0008DF80660112502F037FC46EC40500520B1
:10230000002102F031FC09230DF1070101222068B0
:102310008DF807300BF03CFE012331460DF106022B
:1023200020680BF031FE0520002102F01DFC4FF06B
:10233000010747EC40500021052002F015FC8C48B5
:1023400005F0F6F8052000218DF8066002F00CFC7F
:1023500046EC40504FF00A090520002102F004FC31
:102360000DF10701012220688DF807900BF010FE97
:10237000012331460DF1060220680BF005FE052011
:10238000002102F0F1FB47EC40500520002102F053
:10239000EBFB9DF80630052023F00F0300218DF89C
:1023A000063002F0E1FB46EC40500520002102F02F
:1023B000DBFB8A230DF10701012220688DF807302D
:1023C0000BF0E6FD01220DF1060120680BF0E0FDA7
:1023D0000520002102F0C8FB47EC405005200021F9
:1023E00002F0C2FB052000218DF8066002F0BCFB64
:1023F00046EC40500520002102F0B6FB0DF107012C
:10240000012220688DF807900BF0C2FD01233146B0
:102410000DF1060220680BF0B7FD0520002102F047
:10242000A3FB47EC40500520002102F09DFB9DF8E6
:1024300006301B0740F098800026052000218DF80B
:102440000660112502F090FB46EC40504FF00C095D
:102450000520002102F088FB0DF107010122206810
:102460008DF807900BF094FD012331460DF1060223
:1024700020680BF089FD0520002102F075FB4FF06C
:10248000010747EC40500520002102F06DFB9DF84C
:102490000630052043F0030300218DF8063002F0DA
:1024A00063FB46EC40500520002102F05DFB8C23CD
:1024B0000DF10701012220688DF807300BF068FD4F
:1024C00001220DF1060120680BF062FD05200021BC
:1024D00002F04AFB47EC40500520002102F044FB8B
:1024E000052000218DF8066002F03EFB46EC4050CE
:1024F0000520002102F038FB0DF1070101222068C0
:102500008DF807900BF044FD012331460DF10602D2
:1025100020680BF039FD0520002102F025FB47EC77
:1025200040500520002102F01FFB9DF8063003F00B
:102530000303032B02D00F4804F0FAFFFEF7A6FFB7
:102540000D4804F075FF9DF80500113818BF0120F3
:1025500002B0BDE8F087094804F0EAFFFFF7E5BBE9
:10256000074804F0E5FF1BE4064804F0E1FF63E7D9
:1025700090E50010ECE500101CE600103CE40010B3
:1025800070E40010C0E500104FF050435868C0F3ED
:10259000005070474FF050435868C0F300507047E8
:1025A0002DE9F04F002783B083468A46052000219D
:1025B0008DF80670112502F0D7FA47EC405001243F
:1025C0005B4E0520002102F0CFFA22460DF10701F3
:1025D00030688DF807400BF0DBFC234639460DF1DF
:1025E000060230680BF0D0FC0520002102F0BCFA96
:1025F00044EC40500520002102F0B6FA9DF8063068
:10260000052023F00703234300218DF8063002F054
:10261000ABFA47EC40500520002102F0A5FA8123D7
:1026200022460DF1070130688DF807300BF0B0FC41
:1026300022460DF1060130680BF0AAFC05200021AE
:1026400002F092FA44EC40500520002102F08CFA8E
:10265000052000218DF8067002F086FA47EC405004
:102660000520002102F080FA8D2322460DF107019A
:1026700030688DF807300BF08BFC22460DF1060117
:1026800030680BF085FC0520002102F06DFA44EC67
:1026900040500520002102F067FA0520002102F0D9
:1026A00063FA47EC40500520002102F05DFA8023D8
:1026B00022460DF1070130688DF807300BF068FCF9
:1026C0005246594630680BF063FC0520002102F0A9
:1026D0004BFA44EC40500520002102F045FA052059
:1026E00000218DF806A002F03FFA47EC405005208B
:1026F000002102F039FAA22322460DF107013068C9
:102700008DF807300BF044FC22460DF106013068CD
:102710000BF03EFC0520002102F026FA44EC40506C
:102720000520002102F020FA384603B0BDE8F08F02
:10273000440A00202DE9F04F002783B08246002193
:1027400005208DF80670112602F00EFA47EC406065
:102750000125A64C0520002102F006FA2A460DF1BB
:10276000070120688DF807500BF012FC2B46394604
:102770000DF1060220680BF007FC0520002102F095
:10278000F3F945EC40600520002102F0EDF99DF8D9
:102790000680052000218DF8067008F0070802F079
:1027A000E3F947EC40600520002102F0DDF92A46FC
:1027B0000DF1070120688DF807500BF0E9FB2B465F
:1027C00039460DF1060220680BF0DEFB05200021E2
:1027D00002F0CAF945EC40600520002102F0C4F97E
:1027E0009DF80630052023F007032B4300218DF8C8
:1027F000063002F0B9F947EC40600520002102F0F4
:10280000B3F981232A460DF1070120688DF80730BE
:102810000BF0BEFB2A460DF1060120680BF0B8FB59
:102820000520002102F0A0F945EC406005200021C0
:1028300002F09AF9052000218DF8067002F094F953
:1028400047EC40600520002102F08EF91E232A4645
:102850000DF1070120688DF807300BF099FB2B462E
:1028600039460DF1060220680BF08EFB0520002191
:1028700002F07AF945EC40600520002102F074F97D
:102880009DF806305A072AD5052000218DF80670DC
:1028900002F06AF947EC40600520002102F064F97B
:1028A00012232A460DF1070120688DF807300BF03E
:1028B0006FFB2B4639460DF1060220680BF064FBD6
:1028C0000520002102F050F945EC40600520002170
:1028D00002F04AF99DF806309B0600F1F5800025CC
:1028E000052000218DF80650112602F03DF945EC37
:1028F00040600520002102F037F913230DF1070194
:10290000012220688DF807300BF042FB0123294695
:102910000DF1060220680BF037FB0520002102F0C4
:1029200023F94FF0010949EC40600520002102F035
:102930001BF99DF80670002F5AD14FF0000B0520AF
:1029400000218DF806B0112602F00EF94BEC406024
:1029500001250520002102F007F92A460DF10701A3
:1029600020688DF807500BF013FB2B4659460DF1EC
:10297000060220680BF008FB0520002102F0F4F8A5
:1029800045EC40600520002102F0EEF89DF806308D
:10299000052023F0070343EA080300218DF80630E1
:1029A00002F0E2F84BEC40600520002102F0DCF878
:1029B00081232A460DF1070120688DF807300BF0BE
:1029C000E7FA2A460DF1060120680BF0E1FA05202E
:1029D000002102F0C9F845EC40600520002102F01A
:1029E000C3F8384603B0BDE8F08F00BF440A0020AA
:1029F000052000218DF8065002F0B6F845EC406045
:102A00000520002102F0B0F810230DF1070101228A
:102A100020688DF807300BF0BBFA012329460DF131
:102A2000060220680BF0B0FA0520002102F09CF8A5
:102A300049EC40600520002102F096F805200021B5
:102A400002F092F845EC40600520002102F08CF87D
:102A50008D230DF10701012220688DF807300BF05E
:102A600097FA01220DF1060120680BF091FA05207A
:102A7000002102F079F849EC40600520002102F0C5
:102A800073F80520002102F06FF845EC4060052046
:102A9000002102F069F80DF10701012220688DF88C
:102AA00007500BF075FA3B465246294620680BF05A
:102AB0006BFA0520002102F057F849EC4060052030
:102AC000002102F051F838E7014804F0B1FC34E786
:102AD0003CE6001001230B490B4A0868126800F11C
:102AE00010018B4051681942FCD14FF4801102EB68
:102AF0008000016151680B42FCD14FF480130361E7
:102B0000704700BF00170020FC16002001230B496E
:102B10000B4A0868126800F110018B405168194295
:102B2000FCD14FF0006102EB8000016151680B4263
:102B3000FCD14FF000630361704700BF0017002015
:102B4000FC16002001230A490A4A0868126800F1AD
:102B500010018B4051681942FCD1074902EB8000FB
:102B6000016151680B42FCD1034B0361704700BF08
:102B700000170020FC1600200001010170B50221A1
:102B80008EB03B4804F0D4FC01220221CDE90122A1
:102B90000091384808AB07AA06A905F0E1F900281A
:102BA00063D0DDE90756069C022004F12F4101F5B0
:102BB0006001090D0631C9B201F06CF8012302224F
:102BC00029460093204605F0F3F84FF480336FF464
:102BD000F841294A09930C92F301F21C43EA0233AB
:102BE000264A23F0C0430520CDE90A320D9102F0B8
:102BF000DBF907EE100A9FED226AB8EE477ADFEDA7
:102C0000216AC7EE067A77EEA67ABCEEE77A17EE6F
:102C1000103A9BB23BB307EE103AB8EE477ADFEDBD
:102C20001A6A77EEC77A67EEA67AFCEEE77ACDED00
:102C3000057A9DF81400000240EA03403246294616
:102C400009AB0990204605F0F9F80121002026681B
:102C50000E4A0F4BA94031432160DDE90641146063
:102C600019600EB070BD1846E6E702F033FA98E737
:102C700068E600106CEA00100008002000000670F2
:102C80000024F44A0000003B00008043FC160020B2
:102C9000001700202DE9F047534F88B03B781BB157
:102CA000002008B0BDE8F08723238DF8123001F032
:102CB00051FF42F210734FF0FF346FF00042C01822
:102CC00041F10001844272EB01033CBF11462046F2
:102CD0000123CDE902010DF11202102143480093B6
:102CE00004F01CFF01307AD001F034FF42F210737F
:102CF0004FF0FF346FF00042C01841F100018442F0
:102D000072EB01033CBF114620460026CDE90201CB
:102D100001231021354804AA009604F01DFF01305C
:102D200058D0334D05F124082B786A888DF813307C
:102D30008DF8143001338DF81830130A8DF81520F2
:102D40008DF8193005AA022310212848009604F0B6
:102D5000DDFE013006AA42D002231021234800964E
:102D600004F0D4FE01300DF1130238D001231021FC
:102D70001E48009304F0CAFE013030D001F0EAFE94
:102D800042F210734FF0FF396FF0004EC41841F15A
:102D9000000CA1457EEB0C0A3CBF4C46F4460223D6
:102DA0001021CDE9024C114807AA009604F0D4FE88
:102DB000013014D0BDF81C200E489DF813100435C6
:102DC00004F0B6FB4545AFD101230B483B7004F03E
:102DD0002FFB65E79DF81010084804F0A9FBFF20C1
:102DE00008B0BDE8F08700BF98170020F00A002067
:102DF000480A0020A4E60010B0E6001090E600109B
:102E0000012310B5232486B01021CE480DF1120203
:102E100000938DF8124004F079FE013000F0368204
:102E200001F098FE42F210734FF0FF346FF0004251
:102E3000C01841F10001844272EB01033CBF2046FF
:102E400011460024CDE9020101231021BD4804AA46
:102E5000009404F081FE013000F018829DF81010FB
:102E6000B94804F065FB0123122210218DF81320CC
:102E7000B44800930DF1130204F048FE013000F055
:102E8000058201F067FE42F210734FF0FF346FF0DD
:102E90000042C01841F10001844272EB01033CBFC3
:102EA000204611460024CDE9020101231021A54846
:102EB00004AA009404F050FE013000F0E7819DF870
:102EC0001010A24804F034FB0123192410219D485E
:102ED0000DF1130200938DF8134004F017FE01303A
:102EE00000F0D48101F036FE42F210734FF0FF344F
:102EF0006FF00042C01841F10001844272EB0103FF
:102F00003CBF204611460024CDE9020101231021D7
:102F10008C4804AA009404F01FFE013000F0B68132
:102F20009DF810108A4804F003FB012308241021A7
:102F300084480DF1130200938DF8134004F0E6FD70
:102F4000013000F0A38101F005FE42F210734FF052
:102F5000FF346FF00042C01841F10001844272EB6F
:102F600001033CBF204611460024CDE902010223A3
:102F70001021744805AA009404F0EEFD013000F021
:102F80008581BDF81410734804F0D2FA01230C2493
:102F900010216C480DF1130200938DF8134004F0DA
:102FA000B5FD013000F0728101F0D4FD42F21073E2
:102FB0004FF0FF346FF00042C01841F1000184422D
:102FC00072EB01033CBF204611460024CDE902010B
:102FD000022310215B4805AA009404F0BDFD0130D6
:102FE00000F054815C4BBDF814105C48A3FB013128
:102FF000490904F09DFA01230224102151480DF1E2
:10300000130200938DF8134004F080FD013000F0AE
:103010003D8101F09FFD42F210734FF0FF346FF0DD
:103020000042C01841F10001844272EB01033CBF31
:10303000204611460024CDE9020102231021414817
:1030400005AA009404F088FD013000F01F81424B76
:10305000BDF814104248A3FB0131490904F068FA95
:1030600001230A24102137480DF1130200938DF833
:10307000134004F04BFD013000F0088101F06AFDBF
:1030800042F210734FF0FF346FF00042C01841F16C
:103090000001844272EB01033CBF2046114600242C
:1030A000CDE9020102231021264805AA009404F06C
:1030B00053FD013000F0EA80BDF81410294804F0F7
:1030C00037FA012310211F4800930DF113028DF8E8
:1030D000131004F01BFD013000F0D88001F03AFD20
:1030E00042F210734FF0FF346FF00042C01841F10C
:1030F0000001844272EB01033CBF204611460024CC
:10310000CDE90201022310210E4805AA009404F023
:1031100023FD013000F0BA800F4BBDF814101248A7
:10312000A3FB0131490904F003FA01230E24102105
:1031300004480DF1130200938DF8134004F0E6FCEF
:10314000013013E0F00A002090E60010C4E6001001
:10315000D8E60010F0E600101F85EB5104E70010E0
:1031600018E700102CE7001040E7001000F08E80F8
:1031700001F0F0FC42F210734FF0FF346FF00042A8
:10318000C01841F10003844272EB03013CBF2046AA
:1031900013460024CDE90203102102233D4805AA6D
:1031A000009404F0D9FC013070D03B4BBDF81410F2
:1031B0003A48A3FB0131490904F0BAF90123042478
:1031C000102134480DF1130200938DF8134004F0E0
:1031D0009DFC01305AD001F0BDFC42F210734FF05B
:1031E000FF346FF00042C01841F10003844272EBDB
:1031F00003013CBF204613460024CDE90203102101
:103200000223244805AA009404F0A6FC01303DD016
:10321000214BBDF814102248A3FB0131490904F0E9
:1032200087F90123062410211A480DF11302009397
:103230008DF8134004F06AFC013027D001F08AFCBD
:1032400042F210734FF0FF346FF00042C01841F1AA
:103250000001844272EB01033CBF2046114600246A
:10326000CDE90201022310210A4805AA009404F0C6
:1032700073FC01300AD0BDF81410074B0948A3FBBA
:103280000131490904F054F9204600E0FF2006B05E
:1032900010BD00BFF00A00201F85EB5154E700105D
:1032A00064E7001074E70010052230B5134B85B0B9
:1032B00004461A7001F04EFC4FF0FF3E6FF0004CD8
:1032C0000F4A0025821841F1000196457CEB01036D
:1032D0003CBF724661460123CDE9022120464A21C6
:1032E000064A009504F01AFC023001284FF0FF3026
:1032F00088BF0020C0B205B030BD00BF7C150020E3
:10330000A086010030B585B0044601F023FC4FF0E3
:10331000FF3E6FF0004C0E4A0025821841F100017B
:1033200096457CEB01033CBF724661460323CDE921
:10333000022120464A21074A009504F00DFC023084
:1033400001284FF0FF3088BF0020C0B205B030BD6B
:10335000A0860100B01400208C2330B587B004464D
:103360008DF8173001F0F6FB42F210734FF0FF3C7E
:103370006FF00042C31841F100019C4572EB01005F
:103380003CBF634611460025CDE9023120460123AA
:1033900048210DF11702009504F0C0FB023001280E
:1033A0004FF0FF3088BF0020C0B207B030BD00BF73
:1033B0002DE9F041072986B03FD8234B06465B5CD8
:1033C00017461B0143F00C038DF8173001F0C2FBC8
:1033D00042F210734FF0FF3C6FF00042C41841F10D
:1033E0000005A44572EB05033CBF154664464FF04B
:1033F0000008012348213046CDE902450DF11702AE
:10340000CDF8008004F08AFB023019D2012001F0CF
:103410008FFA012348213A463046CDE90245CDF8DE
:10342000008004F099FB023001284FF0FF3088BF84
:103430000020C0B206B0BDE8F081044803F0F8FFF8
:10344000FF2006B0BDE8F0817CEA001088E700109C
:10345000002800F069822DE9F0430E46B5B000293E
:1034600000F0378103780446242B40F032812A2172
:1034700006F0CCFD002800F02C81651CA84240F22B
:103480002683A0EB040CACF10203042B0CF1FF3CEF
:1034900040F2598300222CF0030E2B46754453F85A
:1034A000041B9D4282EA0102F9D1C2F3072757406B
:1034B000C2F307435F4087EA1267F445FFB218D0B2
:1034C0002B4613F8012B984287EA020711D96B7833
:1034D0007B40DFB2AB1C98420BD9AB785F40EB1C52
:1034E000984206D9EB785F402B1D984201D92B7981
:1034F0005F4010220021013006F078FCC0B2B842D3
:1035000040F0E78000257F22214606F1780006F092
:103510004BFE21467F2286F8F75014A806F044FEA1
:103520002A2114A88DF8CF5006F070FD00B1057067
:1035300000246D46274650220021684606F018FDFB
:103540000DF151000378002B00F0C0802C2145F8CC
:10355000040B06F05BFD013418B1142C00F8017B5C
:10356000F0D1009B1A78472A00F0B780522A40F029
:10357000318159784D2940F02D819978432940F0C7
:103580002981019CFCB1204606F0C4FF05281AD908
:10359000217860783039303801EB810100EB41014E
:1035A000A2782379E07831606179303A303B02EBE0
:1035B000820203EB83033038303900EB420201EB27
:1035C0004303C6E90123039818B10378002B40F0A8
:1035D0004282002200230598C6E90623002800F055
:1035E0006D820378002B00F06982069B1D7804F041
:1035F000E9FD0022754B8046894601F0CBFE01F0C3
:1036000049FF6423044603FB00F001F01FFF02465C
:103610000B464046494601F083FE00226C4B01F008
:10362000B9FE80462046894601F010FF02460B464F
:103630004046494601F060FE05F0FB05532D024669
:103640000B4603D101F1004102460B460798C6E93B
:103650000823002800F038820378002B00F0348221
:1036600004F0B0FD02460B460898C6E91A2300286C
:1036700000F027820378002B00F0238204F0A2FDE3
:10368000099CC6E91C01FCB1204606F043FF052851
:103690001AD90A2220796179237800FB0211303B84
:1036A00003EB830201F5B861A37860787161E1787A
:1036B000303B303800EB420003EB8303A1F13002D2
:1036C00002EB4303C6E90303029B24E1002C7FF4D1
:1036D00048AFFF2035B0BDE8F083597847297FF423
:1036E00045AF9878B0F141047FF440AF019D05B338
:1036F000284606F00FFF05281BD92B786A78303B47
:1037000003EB8303303A02EB4302AB78E878303BBB
:10371000326003EB83022B796979303B303800EB60
:10372000420003EB8303A1F1300202EB4303C6E93D
:103730000103029818B10378002B40F03F8100226A
:1037400000230498C6E9062318B10378002B40F043
:103750000281002200230698C6E90823002800F011
:10376000F4810378002B40F0F2800798F36218B1DF
:103770000378002B40F0E7800898B46318B1037811
:10378000002B40F0DB80002200230998C6E91023BB
:1037900018B10378002B40F0CC80002200230B9856
:1037A000C6E9162318B10378002B40F0BF80002033
:1037B0000021F36AC6E91801002BD4BF00230123BE
:1037C00086F83430002035B0BDE8F0830000594061
:1037D00000004E40472A7FF47CAF59784C2940F0D6
:1037E000208199784C2940F01C810198002800F034
:1037F00073810378002B00F06F81029B1D7804F029
:10380000E1FC0022B64B8046894601F0C3FD01F081
:1038100041FE6423044603FB00F001F017FE02465C
:103820000B464046494601F07BFD0022AD4B01F0BE
:10383000B1FD80462046894601F008FE02460B464F
:103840004046494601F058FD05F0FB05532D024660
:103850000B4603D101F1004102460B460398C6E92D
:103860000623002800F035810378002B00F0318119
:10387000049B1D7804F0A6FC0022994B80468946E3
:1038800001F088FD01F006FE6423044603FB00F00E
:1038900001F0DCFD02460B464046494601F040FD82
:1038A0000022904B01F076FD80462046894601F0CB
:1038B000CDFD05F0FB0502460B464046494601F0AA
:1038C0001BFD532D02D101F100431946059CC6E9A9
:1038D0000801FCB1204606F01DFE05281AD9217802
:1038E00060783039303801EB810100EB4101A2787A
:1038F0002379E07831606179303A303B02EB820223
:1039000003EB83033038303900EB420201EB430311
:10391000C6E90123069B1B78A3F14103B3FA83F3A5
:103920005B0986F834304DE7FF20704704F04AFC0D
:103930003FE704F047FC02460B4630E704F042FC48
:1039400002460B4621E704F041FC044614E704F06C
:103950003DFC034609E7059B1F7804F033FC002279
:103960005F4B8046894601F015FD01F093FD64230D
:10397000054603FB00F001F069FD02460B46404698
:10398000494601F0CDFC0022564B01F003FD804674
:103990002846894601F05AFD02460B4640464946F4
:1039A00001F0AAFC07F0FB07532F02460B467FF4F9
:1039B000D2AE01F1004102460B46CCE6039B1F78D4
:1039C00004F000FC0022464B8046894601F0E2FCF0
:1039D00001F060FD6423054603FB00F001F036FDB5
:1039E00002460B464046494601F09AFC00223D4BF8
:1039F00001F0D0FC80462846894601F027FD0246AA
:103A00000B464046494601F077FC07F0FB07532F71
:103A100002460B467FF495AE01F1004102460B468B
:103A20008FE6472A7FF455AE597853295CD0472A50
:103A30007FF44FAE5A78532A7FF44BAE9B78563BB7
:103A40007FF447AE039820B1027812B104F0BEFBB8
:103A50000346B363B6E6049B1D7804F0B3FB002273
:103A60001F4B8046894601F095FC01F013FD64234D
:103A7000044603FB00F001F0E9FC02460B46404619
:103A8000494601F04DFC0022164B01F083FC8046B4
:103A90002046894601F0DAFC02460B46404649467C
:103AA00001F02AFC05F0FB05532D02460B467FF47E
:103AB00092AD01F1004102460B468CE50022002345
:103AC000C4E500200021DBE500220023CCE500272F
:103AD0000FE500200021F9E600220023BEE600BF2A
:103AE0000000594000004E40997841399FD102981A
:103AF00020B1037813B104F069FB01460F983163DC
:103B000058B303784BB304F05DFB02460B461098A4
:103B1000C6E91223F0B10378E3B104F053FB024687
:103B20000B461198C6E9102388B103787BB104F0E5
:103B300049FB336BC6E91401022BD4BF00230123D8
:103B400086F835303EE60027BAE403460DE600204D
:103B50000021EEE700220023E3E700220023D6E75E
:103B600030B5DFF86CE00025DEF800C0154C61468A
:103B7000154A20789369DB0611D49369DB06FCD4DF
:103B80001368DBB20A2B0CD00D2B0AD038B93A29B6
:103B9000F0DC63540D4B012558540231E9E76DB94F
:103BA00030BD002D18BF8C46BCF13B0FDCBF00239D
:103BB00004F80C300023CEF8003030BDCEF80010F1
:103BC00030BD00BF3C160020000007403D1600201D
:103BD00080160020F8B52A4C4FF41661204601F0FB
:103BE00047F80B21022000F055F80B21032000F0CC
:103BF00051F84FF4E131204601F0BCF8206B214D23
:103C000000F440400023012208212863204601F0EF
:103C1000FFF80121204601F033F921201A4900F074
:103C2000ADF90121212000F093F950210A20002351
:103C30000D26A163616B154F01F038016963144AC9
:103C4000B7F9001083B9814215D0A3699B06FCD453
:103C5000206012F8013BA3F10D03B3FA83F310784F
:103C60005B090028EED1F8BDA3699F06F0D5A369D2
:103C70009F06F9D4ECE7A3699D06FCD42660E4E72F
:103C80000000074000100740613B00109017002023
:103C9000A8E7001010B44FF480740C4B53F82020A8
:103CA00003EB8003C00082F0400200F1804003F586
:103CB000805C02F0C00200F5203003F54053CCF8E0
:103CC000002041601C605DF8044B70470480034095
:103CD00010B4084CC90041EA820154F8202004EBDA
:103CE0008003514003F5805301F00C015DF8044B53
:103CF000196070470480034030B44FF0000343EC78
:103D0000440043EC400005254FF480740B4BC20087
:103D100053F8201003EB800081F0400102F1804352
:103D200003F5203301F0C00200F5805100F540504A
:103D30000A605D60046030BC704700BF04800340CF
:103D40000FB400B583B0049C074803F071FB3CB18D
:103D500005A92046019103F067F9044803F068FBC8
:103D6000012003F079F900BFC4E700103CE0001027
:103D7000EFF3108072B6064BD3E8CF1F0122002963
:103D8000FAD1C3E8412F0029F6D1BFF35F8F704706
:103D90008B1500200023034AC2E88F3F80F3108870
:103DA000704700BF8B15002070B58646EFF3108575
:103DB00072B6124CD4E8CF6F0120002EFAD1C4E8BD
:103DC000460F002EF6D1BFF35F8F4FF0010CC808ED
:103DD00001F007030CFA03F31EF800C01CEA030607
:103DE00008D14CEA030C0EF800C0C4E88F6F85F3CD
:103DF000108870BD1046FFF7A3FF00BF8B15002091
:103E0000F8B5EFF3108772B61C4ED6E8CF5F0124E9
:103E1000002DFAD1C6E8454F002DF6D1BFF35F8FD4
:103E20009A421BD8012502E00132934222D3D408E2
:103E300010F804E002F0070C05FA0CFC1EEA0C0F67
:103E4000F2D14EEA0C0E00F804E010460023C6E85A
:103E50008F3F87F31088984207DBF8BD0023C6E840
:103E60008F3F87F310884FF0FF300029F5D0069878
:103E7000FFF766FF4FF0FF30E8E700BF8B1500202B
:103E800000B5EFF3108E72B6104BD3E8CFCF0122FE
:103E9000BCF1000FF9D1C3E84C2FBCF1000FF4D1F5
:103EA000BFF35F8F01224FEAD10C01F0070102FA44
:103EB00001F110F80C2022EA010200F80C20002287
:103EC000C3E88F2F8EF310885DF804FB8B1500205C
:103ED000044A1078431CDBB2182B28BF1023137040
:103EE000704700BF6C0A00204FF0E022936843F057
:103EF00000539360704700BF0021044B03F1200280
:103F0000C3E88F1F01339342FAD170478015002018
:103F10004FF0E0234FF08032C3F80024C3F80424AC
:103F2000C3F80824C3F80C24C3F81024C3F81424DD
:103F3000C3F81824C3F81C24C3F82024C3F824248D
:103F4000C3F82824C3F82C24C3F83024704700BFDA
:103F5000012300F01F029340400941B1800000F1AD
:103F6000604000F56140C0F8803103607047024A4C
:103F7000203042F82030704700E100E0F8B50D46EF
:103F8000EFF3108772B6124ED6E8CF2F0123002A26
:103F9000FAD1C6E8423F002AF6D1BFF35F8F0D4B3E
:103FA00000F110049B680C4A53F82430934203D06C
:103FB000994201D001F08EF8064B9B6843F82450DB
:103FC000BFF35F8F0023C6E88F3F87F31088F8BDEB
:103FD0008915002000ED00E01D0100102DE9F04FD3
:103FE00083B0EFF3108A72B6714ED6E8CF2F01235B
:103FF000002AFAD1C6E8423F002AF6D1BFF35F8F0C
:104000006C4B00F110089B686B4A53F8285095429E
:1040100045D08D420C4650D0684FEB1B2F2B3ED81D
:1040200001214FEA50194FEA890909F1604909F560
:10403000614900F01F0301FA03F0D9F80030C9F814
:10404000800000EA030BBFF35F8FEFF30581C9B275
:10405000002934D0884505D0CDE9001001F03AF8A8
:10406000DDE9001025F0010EDEF808C0644505D139
:1040700089E0D3F808C0644531D09E469EF90620F9
:1040800002EB4203002A07EB8303F2DA644561D0B6
:10409000BBF1000F20D0C9F88001C9F80000454BE2
:1040A0009B6843F82850BFF35F8F0023C6E88F3F1B
:1040B0008AF3108803B0BDE8F08F1546EFE725F0CE
:1040C000010EDEF808C06445D8D19EF9064073465B
:1040D000002C08DA154646E0C9F88000DFE793F9BE
:1040E0000640002C37DB04EB440C07EB8C0C9CF8EF
:1040F0000710DCF80820D9719A609CF9062061004D
:10410000002A9A713DDBBCF804E05FEA4E5E05D5FB
:104110000EF5FF1E0EF5FF5E0EF11F0E6FF0070C81
:104120000A194FEA6E5E920002EB4E0208323A44E0
:10413000ACEB030C6244C2F34A026FEAC2426FEA7C
:10414000D2429A801E4B21441A7807EB81011C70E1
:104150008A719DE77346D9B9FF228EF806204BF687
:104160000152AEF80420164C4AF6AA2294F800C078
:104170001946C91B49414A43120D83F806C02270F3
:1041800086E7104ADDE79EF906407346002CAADA5E
:104190000D4A0E4CD21A083AC2F30A316FEA0151A5
:1041A0006FEA115144EA5202DA80998070E700BF49
:1041B0008915002000ED00E01D010010700A0020AC
:1041C0009917002001BDFFFFAA0A002000F8FFFF99
:1041D000F0B5EFF30585EDB2EFF3108C72B626491A
:1041E000D1E8CF2F0123002AFAD1C1E8423F002AAB
:1041F000F6D1BFF35F8F214E40F0010EB4684AF64E
:10420000AA2354F825701E4A0446A41A6441634345
:104210001B0D77455BB21BD092F906409C421CD027
:1042200092F912409C4223D092F91E409C4221D028
:1042300092F92A409C4208BF03240FD0114A00245F
:10424000157813708571C1E88F4F8CF31088F0BD1D
:10425000B2680D4C42F82540F0E7002404EB44041A
:1042600002EB8402FF2494714BF601549480E5E73D
:104270000124F3E70224F1E78915002000ED00E0B6
:10428000700A0020991700201D010010014B0B44FB
:10429000036070478015002070B5104C104DAC4283
:1042A0000ED2FF26236863B1FFF712FE01462046B7
:1042B000FFF7ECFFA680BFF35F8F0834AC42F1D369
:1042C00070BDFFF705FE01462046FFF7DFFF2671B0
:1042D000BFF35F8F0834AC42E4D370BDB811002047
:1042E000C01100200D4B1A68EFF3108172B6D2E8AE
:1042F000CFCF0120BCF1000FF9D1C2E84C0FBCF1C7
:10430000000FF4D1BFF35F8F00221B68C3E88F2F2B
:1043100081F3108840BF0020002170478C170020D7
:104320002DE9F04F2DED028B85B0EFF30583DBB265
:10433000103B9A0818BF01224FF0010103F0030B54
:1043400018BFAF4DAF4B08BFAF4D0BEB820253F818
:10435000226001FA0BF205F541539FEDA78B019204
:104360005A602FE0B3881C0440F19380B379002B8E
:1043700040F0DD80B6F90820002AC0F21E81736982
:1043800002EB420203EBC203D3E90247B7F1FF3F5E
:1043900008BFB4F1FF3F0ED005EB8B01AB6A0A6991
:1043A000D21AE31A934205D301232A6A03FA0BF3C4
:1043B000134200D10C61284600F0C4FBA042B94171
:1043C000C0F2FB80B6F90830019A002B0093EA6333
:1043D000C8DBD6F8148003EB4309284608EBC9076D
:1043E000D7E9024A00F0AEFBA04271EB0A01B9DB4B
:1043F000BAF1000FC0F2C380D7E90431834A934277
:1044000000F0ED807A88B6F9080092B242EA0040E6
:10441000984702460B4652EA030100F0B080002B99
:1044200080F2D180B4EB020E6AEB030A38F939301E
:10443000C7E902EA002B95DB716903EB430201EB4C
:10444000C202D2E90270BE457AEB000C4FEA430289
:1044500088DBB4462CF8083F06E003EB430001EB91
:10446000C0005A00D0E90270BE451A447AEB000041
:1044700001EBC20404DB31F93230A446002BECDA44
:1044800028F83930009BACF80030B3881C043FF5A5
:104490006DAF3369EFF3108272B6D3E8CF0F01210D
:1044A0000028FAD1C3E8401F0028F6D1BFF35F8F80
:1044B0004FF6FF74B0880023316900B2B480C1E8C0
:1044C0008F3F82F310889842FFF650AF0746A94607
:1044D000746906F1080807EB470E04EBCE03D3E935
:1044E0000250B6F90830C446002B13DBB2460097E1
:1044F00004E034F936309446002B09DB03EB430625
:1045000004EBC602D2E90271BD4270EB0101F0DAA0
:104510005646009FACF8007034F93E7024F83E30E7
:10452000002FD8DAB3794D46002B3FF423AF002398
:10453000B371B6F9083006F10808581C3DD01A4688
:10454000776903E08046591C3FF416AF03EB430143
:1045500007EBC100B0F802C01C461CF4004F9E4699
:1045600037F93130EED0944280ED028B05D0A8F8B7
:104570000030328927F8312034817246E3E738F879
:10458000393033813369EFF3108272B6D3E8CF0F3D
:1045900001210028FAD1C3E8401F0028F6D1BFF35B
:1045A0005F8F7388316928F83930009B738000234E
:1045B000C1E88F3F82F31088D4E640BF05B0BDEC60
:1045C000028BBDE8F08F2846CDE9022300F0BAFA4D
:1045D000029A039B10EB020E43EB010A26E7084602
:1045E0000B69029198470028C9D00299D1E90023AC
:1045F00011E700BFAFF30080FFFFFFFFFFFFFFFFEA
:1046000000800B402817002000000B4021430010C1
:104610002DE9F84F364C25692DB1BDE8F84F0A2138
:104620003448FFF733BEDFF8E4800321404600F052
:1046300077FA0326C4F80C80FFF74AFC4FF0504C81
:104640002D4B267003442361DCF800300F2163708A
:10465000636961801D834FF00405A3F878504FF023
:104660000505A3F890504FF00605A3F8A8504FF0A9
:1046700007050E214FF6FF7208274FF00A0EA3F828
:10468000C0504FF001094FF00C0C4FF0020B4FF0EF
:10469000090A0D204FF00B05A3F868111749A280F5
:1046A000A3F808E1A160A3F848B0A3F8F0A0A3F82C
:1046B0002051A3F838C1A3F85001A3F83090A3F813
:1046C0006060A3F8D8701A800D4B3046C8F820708F
:1046D0000C49DC60FFF752FC49463046FFF738FCD6
:1046E000094B0A211F640348BDE8F84FFFF7CEBD10
:1046F000B80A00208C17002080150020FFFF100052
:10470000281700202143001000200B4000000B4020
:104710000146F0B50069EFF3108772B6D0E8CF5FBD
:104720000124002DFAD1C0E8454F002DF6D1BFF38A
:104730005F8FB1F902E04C690EEB4E0CBEF1000F39
:104740004FEACC05086904EBCC0C3CDB665B4E8081
:104750000026C0E88F6F87F31088BCF80200CCE910
:1047600002230130C0F30E00012838BF0120059B51
:10477000ACF80200CCF81030069B40EA0E40CCF8B2
:1047800014300B69EFF3108272B6D3E8CFCF012754
:10479000BCF1000FF9D1C3E84C7FBCF1000FF4D19C
:1047A000BFF35F8F8B886353A1F804E00B69C3E804
:1047B0008F6F82F310880122CB68097803F50153CB
:1047C0008A405A60F0BD0023C0E88F3F87F310880D
:1047D0004FF0FF30F0BD00BF03464089B0EB214FE2
:1047E00037DD58690A1402EB420210B500EBC20033
:1047F0001C69EFF3108C72B6D4E8CFEF0122BEF142
:10480000000FF9D1C4E84E2FBEF1000FF4D1BFF371
:104810005F8F428889B292B28A4207D000221B6918
:10482000C3E88F2F8CF31088002010BD42F40042A3
:1048300042800121002218699971C0E88F2F8CF302
:1048400010881C78DA68084602F50153A1405960C7
:1048500010BD0020704700BF2DE9F04182B0044632
:104860000E4600F077F94FF0FF326FF00043241846
:1048700046EB0106A24273EB06013CBF14461E46FE
:10488000A51F46F1FF37AC4276EB07033CBF00257E
:104890002F4600F05FF9281A67EB010C01287CF124
:1048A000000C06DA2046314602B0BDE8F04100F0C7
:1048B000CDB900F04FF9854267EB010100290ADB11
:1048C0000021174B2A46009316483B460191FFF7FB
:1048D0001FFF0130E6D04FF0000C134A1349536A12
:1048E0009F4204D8906AA842DCD29F42DAD10B687A
:1048F000EFF3108072B6D3E8CF8F5FF0010EB8F1FE
:10490000000FF8D1C3E848EFB8F1000FF3D1BFF3BF
:104910005F8F0B68C3E88FCF80F3108820BFDEE77E
:10492000E5420010B80A002000000B408C17002060
:104930002DE9F04182B0064600F00CF94FF47A738D
:1049400004464FF0FF306FF00042E6FB0341A04207
:1049500072EB01033ABF044615460D46A61F45F10A
:10496000FF37B44275EB07033CBF0026374600F023
:10497000F1F8301A67EB0101012871F1000106DA44
:104980002046294602B0BDE8F04100F05FB900F0D2
:10499000E1F8864267EB010100290ADB0021174B91
:1049A0003246009316483B460191FFF7B1FE0130B5
:1049B000E6D04FF0000C134A1349536A9F4204D8C3
:1049C000906AB042DCD29F42DAD10B68EFF31080DC
:1049D00072B6D3E8CF8F5FF0010EB8F1000FF8D1B7
:1049E000C3E848EFB8F1000FF3D1BFF35F8F0B6856
:1049F000C3E88FCF80F3108820BFDEE7E5420010C8
:104A0000B80A002000000B408C1700202DE9F0436D
:104A100006460D4683B0EFF30584E4B23CB12D4B5E
:104A20005A6AAA421CD2002003B0BDE8F0832A4F84
:104A3000D7F80C9097F80080484600F083F808F10A
:104A4000040859F828301B1A301A65EB0101984206
:104A500071F1000110DB20BF1E4B5A6AAA42E2D35B
:104A600014BF012400249B6AB34234BF204644F0A3
:104A7000010003B0BDE8F08300F06CF8864265EBFE
:104A80000101002914DB154B3846CDE900343246CC
:104A90002B46FFF73DFE011E0ADD0E4B5A6AAA4265
:104AA00016D39B6AB34211D30B48FFF795FEB6E7C6
:104AB000084B5C6AAC42B6D3641B18BF01249B6AE6
:104AC000B34234BF204644F00100ADE7AA42EBD127
:104AD00020BFE9E700000B40B80A0020E5420010C3
:104AE0000A4B10B4D0E900415A6A91420AD814BF67
:104AF000012000209B6AA34228BF40F001005DF81E
:104B0000044B704700205DF8044B704700000B40D9
:104B100001460248C1E90023704700BFE14A001086
:104B200010B4054B054C064AA04214BF1846581C49
:104B30005DF8044BFFF738B98416002000800B4065
:104B4000D4E700100346416A0A46986A596A8A42C5
:104B5000FAD17047034B596A0A46986A596A9142DA
:104B6000FAD1704700000B4030B4154A536A9C4696
:104B7000946A536A6345FAD1021959414FF000050E
:104B800028BF01250E4B5B6AB5B15A1C08BF1A46F7
:104B900008D04FF0FF310A460948436A8B42FCD3E4
:104BA0008B4207D1064902E0486A984202D1886ADE
:104BB0009042F9D330BC70479942EDD8F0E700BF7E
:104BC00000000B401F4B98420AD84FF47A731E4ADC
:104BD00003FB00F0916A936A5B1A9842FBD8704716
:104BE0004FF47A7130B4184BA0FB01015A6A944615
:104BF0009C6A5A6A6245FAD103194A414FF000058E
:104C000028BF01259DB91049496A8A4203D90E4837
:104C1000416A9142FCD3914207D10B4902E0486AB4
:104C2000904202D1886A9842F9D330BC7047064B53
:104C30005A6A531C08BF1346EFD04FF0FF32134699
:104C4000E5E700BF9BC4200000000B40074A536A01
:104C50009942FCD8994207D1044B02E05A6A91422A
:104C600002D19A6A9042F9D8704700BF00000B4009
:104C7000F8B5054606200E4600F096F9002842D009
:104C8000354A3648954214BF4FF080624FF00062BB
:104C9000334B344902601A608C6832EA0404FBD159
:104CA0002D4B4FF48071EB1AB3FA83F32E4A5B0954
:104CB000062022F8131000F077F9C300B3FBF6F3D7
:104CC0000133DA0920D1402601216962AA622F6BE3
:104CD000FB0722D42B46002253F82C1F062003F595
:104CE000805422602F6300F05FF940F2013103220B
:104CF0008000B0FBF6F0EB6A83F0700303F07E03F4
:104D000023602963AA64F8BD4FF6FE718A421BD95D
:104D100022464FF6FF71154ED7E740F2013205F5F6
:104D200040531A636B6AAC6A062004EB831400F0EC
:104D30003BF90F4BA402A3FB0023DB0A0021B4FBC9
:104D4000F3F0FFF711FFC5E7C3F34503114603EB8B
:104D500082161A46B9E700BF0080074000200240D3
:104D6000003002400000024090170020C0FF3F00CA
:104D7000757B2B8FF8B5044606200D4600F014F91C
:104D8000C300B3FBF5F30133DA0908D04FF6FE7127
:104D90008A421AD900224FF6FF711B4D01E04025CF
:104DA00001216162A262266BF30715D4234600221B
:104DB00053F82C1F062003F580531A60266300F079
:104DC000F3F88000B0FBF5F0F8BDC3F345031146DE
:104DD00003EB82151A46E4E740F2013204F5405332
:104DE0001A63636AA76A062007EB831700F0DCF8F2
:104DF000064BBF02A3FB0030C00A0021B7FBF0F056
:104E0000FFF7B2FED2E700BFC0FF3F00757B2B8FDC
:104E1000013A0539D200F8B5054642EA411443B1DA
:104E2000A3F10103B3FA83F35B0944EA830343F07C
:104E300002042E6BF3070AD42B4653F82C2F624042
:104E400002F06E0203F580531A602E63F8BD40F243
:104E5000013205F540531A636B6AAF6A062007EB0F
:104E6000831700F0A1F8054BBF02A3FB0030C00A76
:104E70000021B7FBF0F0FFF777FEDDE7757B2B8FA6
:104E8000F8B5066B0546F3074FEA01140AD42B4622
:104E900053F82C2F544004F0100403F580531C6089
:104EA0002E63F8BD40F2013200F540531A636B6A7D
:104EB000AF6A062007EB831700F076F8054BBF02B8
:104EC000A3FB0030C00A0021B7FBF0F0FFF74CFE57
:104ED000DDE700BF757B2B8F00EB400C4FEA8C0C9D
:104EE0000CF1804C0CF5803CF0B51646DCF8042043
:104EF000051FB2F5803F38BF4FF48032EDB238BFA6
:104F0000CCF80420012D2AD94FF40067254C0CF56C
:104F10004052176054F82020B2B9DCF80020012D6F
:104F200082EA461202F0E0020CF5805632602AD97D
:104F30004FF4006144F820304FF480330CF50052F8
:104F40001160CCF80430F0BD6769B7FBF2FE0EF1DA
:104F5000010E0EEB4E0EBEF1030EFCD2DDE7012971
:104F6000D2D103240CF540521460DCF80820D2079B
:104F7000FBD5DCF800200B4C82EA461202F0E0027E
:104F80000CF5805632600122DCF800504D4005F0EF
:104F90000305356002FA01F1DCF808200A42FBD073
:104FA000C6E700BFC8160020014B53F82000704729
:104FB000C816002070B4039D04682D0345EA03451C
:104FC0001B4B002CB3FBF1F3B2FBF3F61FDB194ACA
:104FD000194B904214BF4FF480424FF40042174CDB
:104FE0001A6003F580531A60A36832EA0303FBD109
:104FF000212200F540530433016086601A60026884
:10500000002AFCDA0822C5601A6070BC7047036889
:1050100003F03F038B42DAD18368C3F30B03B3423F
:10502000D5D1C36803F4EE23AB42D0D1EDE700BF86
:10503000001BB70000800540002002400000024035
:10504000012300EB4000800000F1804000F5841057
:1050500041600360704700BF0023DB8A002242E802
:1050600000F2520201D4102118470421184700BF52
:10507000034AD2F82838002BFBD0BFF35F8F70476C
:1050800000000E400021044B044ABFF35F8F43F839
:10509000041B9342F9D170470C080E402C080E40B7
:1050A00010B44FF48D704FF42A64064A064B07493A
:1050B0001460D06019605368002BFCDA5DF8044B73
:1050C000704700BF0080044000A0044000B0FA0018
:1050D000704700BF08B50148FEF732FEF8E7001040
:1050E00038B5054C054DAC4204D254F8043B984702
:1050F000AC42FAD338BD00BF98DF0010D8DF0010F3
:1051000010B40748074C084B084A094904601A6064
:105110008B6832EA0303FBD15DF8044B704700BF94
:10512000002002407F3BEFEF00300240F6FFF30328
:1051300000000240044BDB6CB3F5004F03D14FF489
:105140008022024BDA647047000011500020115099
:105150004FF0E022044BD2F8881D0B43C2F8883D83
:1051600010EE3004704700BF030330006FF0604161
:10517000044B054A19609368DB4333F06043FAD16E
:10518000704700BF003002400000024010B545F2F9
:105190005320FFF761FFBDE8104003460420184785
:1051A00010B545F25320FFF757FFBDE81040034606
:1051B00001201847FEF7A0BE10B5054B054C4FF473
:1051C00088721846A16805F02FF9A06010BD00BFD5
:1051D0000000002000ED00E0002370B52B4C82B0F1
:1051E000C4F88430FFF75CFF0122294BDA63636C5B
:1051F000012BFCD10321264A244B11639C6B012C0B
:10520000FCD10226052521460523224A2248009684
:10521000FFF7D0FE21462B46204A21480095FFF794
:10522000C9FE0022042031461E4BFFF755FE2146E1
:10523000284600221C4BFFF74FFE00220820114693
:105240001A4BFFF749FE002209201146174BFFF7C2
:1052500043FE002206201146134BFFF73DFE0022BD
:10526000114B07201146FFF737FE0420FFF79CFE85
:1052700000240F4BA3FB0035AD0CE0B229460134EE
:10528000FFF7DEFE062CF8D102B070BD0000014031
:1052900000300140002F685900000540008C86470F
:1052A00000800540001BB70080D1F008006CDC02D4
:1052B00083DE1B4386B003B451FC0804CDE9020130
:1052C00051FC0904CDE9040151EC0A04CDE90601C1
:1052D00003BCF047BDE800504EEC00C4BDE80050F0
:1052E0004EEC01C4BDE800504EEC02C400BD00000D
:1052F00000B5FFF7DFFF02E010FE30F4F8D441EC18
:10530000100443EC112400EE010410EE010480EEC1
:10531000200451EC1004704700B5FFF7CBFF02E00A
:1053200010FE30F4F8D441EC100443EC112400EEEC
:10533000010410EE210480EE200451EC300470478B
:1053400000B5FFF7B7FF02E010FE30F4F8D410B557
:1053500041EC100443EC112451EC040453EC0524FB
:10536000A0FB024C5FF0000EE0FB03CEE1FB02CE9F
:105370004CEC20440024E1FB03E444EC30E480EEF8
:10538000200451EC5004BDE81040704700B5FFF711
:1053900091FF02E010FE30F4F8D441EC100443EC2D
:1053A000112451EC2104A0FB01126FEA820252FB8E
:1053B000100052FB12F252FB1000A0EBD07C53EC19
:1053C00004245CFB13F153EC1524A1FB022001FB28
:1053D000030053EC4424A2EB000050FB1CF24FEA04
:1053E000111312EB017043EBE27140EA515020EAD5
:1053F000915020F0070053EC7524A0FB023C53ECC5
:10540000752400FB03CC01FB02CC53EC0424ACEB71
:10541000824C40EA5C70A0F1010041EC400480EE57
:10542000200451EC7004704700B5FFF743FF02E021
:1054300010FE30F4F8D441EC100480EE220410EE9B
:10544000B204704700B5FFF735FF02E010FE30F4FC
:10545000F8D440EC700400EE010410EE210480EE5C
:10546000200451EC3004704700B5FFF723FF02E041
:1054700010FE30F4F8D440EC600400EE010410EEAD
:10548000210480EE200451EC3004704700B5FFF792
:1054900011FF02E010FE30F4F8D441EC800400EE7D
:1054A000010410EE010480EE400410EE1304704776
:1054B00000B5FFF7FFFE02E010FE30F4F8D441EC37
:1054C000800400EE010410EE010480EE400410EEB2
:1054D0003304704700B5FFF7EDFE02E010FE30F434
:1054E000F8D441EC100443EC112400EE010410EE5A
:1054F0003004C0F30070704700B5FFF7DBFE02E038
:1055000010FE30F4F8D441EC100443EC112400EE0A
:10551000010410EE3004C0F38070704700B5FFF74F
:10552000C9FE02E010FE30F4F8D443EC102441EC44
:10553000110400EE010410EE30F48CBF01200020B5
:10554000704700BF00B5FFF7B5FE02E010FE30F473
:10555000F8D443EC102441EC110400EE010410EEE9
:1055600030F42CBF01200020704700BF00B5FFF7CA
:10557000A1FE02E010FE30F4F8D441EC100443EC3C
:10558000112400EE010410EE30F42CBF01200020A5
:10559000704700BF00B5FFF78DFE02E010FE30F44B
:1055A000F8D441EC100443EC112400EE010410EE99
:1055B00030F48CBF01200020704700BF002200297A
:1055C00050DA404261EB4101C9B1B1FA81F30B3BC2
:1055D00017D4D3F1200C30FA0CFC9840994051EAD2
:1055E0000C011A44524202F2324201EB025141F0E4
:1055F000004140F2FE739A4238BF704721E01146E5
:105600007EE003F1210310FA03FCA3F1010301FA88
:1056100003FCC3F1200320FA03F021FA03F140EA6E
:105620000C00A3EB020202F2324214D050F100004F
:1056300041EB025141F0004140F2FE739A4238BF03
:1056400070474FF00001A8BFC7F6F0714FF000009F
:10565000704700217047EBD350F1000020F00100AB
:10566000E6E70022B9B1B1FA81F30B3B16D4D3F1CE
:10567000200C30FA0CFC9840994051EA0C011A4475
:10568000524202F2324201EB025140F2FE739A4260
:1056900038BF704720E0114600F066B803F12103DF
:1056A00010FA03FCA3F1010301FA03FCC3F1200388
:1056B00020FA03F021FA03F140EA0C00A3EB020206
:1056C00002F2324212D050F1000041EB025140F29E
:1056D000FE739A4238BF70474FF00001A8BFC7F66B
:1056E000F0714FF00000704700217047EDD350F18A
:1056F000000020F00100E8E7002880F235804042F9
:10570000B0FA80F30B3B11D4984001EB03025242F4
:1057100002F2124200EB025141F000414FF0000052
:1057200040F2FE739A4238BF704713E0C3F10003A2
:1057300030FA03FCC3F120029040A3EB010202F215
:1057400012420CEB025141F0004140F2FE739A42CA
:1057500038BF70474FF00041A8BFCFF6F0714FF04F
:10576000000070470021704760B3B0FA80F30B3B34
:105770000FD4984001EB0302524202F2124200EBB6
:1057800002514FF0000040F2FE739A4238BF70475A
:1057900010E05B4230FA03FCC3F120029040A3EB1F
:1057A000010202F212420CEB025140F2FE739A42E5
:1057B00038BF70474FF00001A8BFC7F6F0714FF037
:1057C00000007047002170470022A2F232425FEAD7
:1057D000215CACF10103A1EB03515B0513F5800FD4
:1057E00032D212EB535210D40B2A36DA9140D2F156
:1057F000200330FA03F319439040BCF1000FA8BF17
:105800007047404261EB4101704720320EDD01FAE2
:1058100002F3D2F12002D140D0401843BCF1000F76
:10582000A8BF7047404261EB41017047524282F38A
:10583000050231FA02F00021BCF1000FA8BF704749
:10584000404261EB4101704702D0002000217047C7
:1058500050EA013118BF4FF0000C6FF0004101EB2E
:10586000DC716FEAEC70704710B5044602F0EAFC98
:1058700028B10346034A2344934200D810BD02488E
:10588000FEF75EFA0000082004E8001010B50C4690
:1058900002F0B0FF28B10346034A2344934200D8E4
:1058A00010BD0248FEF74CFA0000082004E8001082
:1058B00002F0D0BC9A4238BF88547047704700BF8E
:1058C0002DE9F04F83B09946DDE90DAB0F9B88467B
:1058D00011469A07074616D1DA453AD20C460D46CC
:1058E000ABEB0A060E4422464B46414620200134CB
:1058F000B847B442F7D12946BAF1000F08D1204683
:1059000003B0BDE8F08F0C46BAF1000F10D00E4680
:1059100055460C9B2E449A440191721B4B46013D07
:1059200041461AF8010D3446B847002DF5D10199CA
:105930000F9B9B07E3D5651AAB45E0D922464B4642
:10594000414620200135B8475D4504F10104F5D3F7
:10595000D5E70C46BAF1000FD9D1D0E72DE9F04FC9
:105960000F9FDDF8248017F0020F0A9C9DF82CA0F1
:105970000E9DDDE90C9644D1F5BBB44241D207F04F
:10598000010B04F1FF3C4FF0300EC44404E001343D
:10599000A6420CF801EF01D9202CF8D1BBF1000F81
:1059A00000F08880A5422CD904F1FF3C4FF0300E66
:1059B000C44404E00134AC420CF801EF21D0202CA7
:1059C000F8D117F0100F0ED017F4806F54D1A64203
:1059D00063D0A54261D0B9F1100F50D0B9F1020FD8
:1059E00056D0202C29D12024CDE90B57CDE90984AC
:1059F000BDE8F04FFFF764BF17F0010B34D1B4429C
:105A0000BFD317F0100F1ED017F4806FE3D1002C16
:105A1000DDD1B9F1100F63D0B9F1020F77D0302486
:105A200088F800400124BAF1000F11D17E0748D553
:105A30002B2608F804600134D6E7264601344FF0DF
:105A4000300C08F806C0202CCDD0BAF1000FEDD0F4
:105A50002D2608F804600134CDE90B57CDE90984FF
:105A6000BDE8F04FFFF72CBFBAF1000F30D0B442C1
:105A700005F1FF3585D395E7B9F1100FB3D1BE0617
:105A80003BD5202CAFD0582608F804600134A8E795
:105A9000202CA8D02646013407E0661EB9D0B9F103
:105AA000100F36D0B9F1020FC9D14FF0620C08F8CF
:105AB00006C096E717F0100FC5D017F4806F86D098
:105AC00089E73E0790D5202608F8046001348BE76B
:105AD00017F00C0F00D0013DB442FFF452AF61E764
