:020000041000EA
:10000000002008205D0100101301001015010010F0
:100010001101001011010010110100101101001058
:100020001101001011010010110100101701001042
:100030001101001011010010190100101B01001026
:100040001D0100101D0100101D0100101D010010F8
:100050001D0100101D0100101D0100101D010010E8
:100060001D0100101D0100101D0100101D010010D8
:100070001D0100101D0100101D0100101D010010C8
:100080001D0100101D0100101D0100101D010010B8
:100090001D0100101D0100101D0100101D010010A8
:1000A0001D0100101D0100101D0100101D01001098
:1000B0001D0100101D0100101D0100101D01001088
:1000C0001D0100101D0100101D0100101D01001078
:1000D0001D0100101D0100101D0100101D01001068
:1000E0001D0100101D0100101D0100101D01001058
:1000F0001D0100101D0100101D0100101D01001048
:100100001D0100101D0100101D0100101D01001037
:1001100000BE00BE00BE00BE00BE00BEEFF3058004
:10012000103800BEF2EB8871B4320110E4320110D5
:10013000A801001090A31AE7D3DEFFFF42012110AF
:10014000FF010000603E0100793512AB4FF0000066
:100150002049086006C881F3088810474FF05040D6
:10016000006810B14FF00000F2E70FA40ECC002998
:1001700002D000F015F8F9E71749184A002000E00E
:1001800001C19142FCD1002080F30A8814498847BC
:10019000144988471449884700BEFDE701C901C2D8
:1001A0009A42FBD3704700BFE432011010010020D7
:1001B000C40D0020983F0110000008200000082016
:1001C000983F0110001008200010082000000000D7
:1001D0007047000008ED00E0C40D0020A0130020CF
:1001E000D9560010790200109D560010F8B500BFD6
:1001F000064B0749C91A891048BF0131491003D07D
:10020000044B0BB101481847704700BFC40D0020D4
:10021000C40D00200000000008B5054B1BB10549C6
:100220000548AFF30080BDE80840FFF7E1BF00BF1D
:10023000000000001013002060BC001008B50C493D
:100240000C4805F037FE0321042002F0BBF903211E
:10025000052002F0B7F900220121042002F0D0F9B4
:1002600000220121052002F0CBF9002008BD00BFCB
:10027000A0860100EC0600202DE9F04FADF2245DD0
:1002800050220021F4A806F0D5FD00231920219367
:1002900002F0CAF919234FF0010242EC4430FFF793
:1002A000CDFF002840F0B48302F002F9652402F08B
:1002B000E3F805F03DFB04E0013C07D0642002F0C8
:1002C000E5FF002005F0C4FE0028F5D0B74805F092
:1002D000BDFB03F07FF80B463C2200210A9022A8C8
:1002E0000B9306F0A7FD03F075F80B463C220021A6
:1002F000069031A8079306F09DFD03F06BF80B46BE
:100300003C2200211C9040A81D9306F093FD03F0B1
:1003100061F80B463C2200210C904FA80D9306F08B
:1003200089FD03F057F80B463C2200211A905EA885
:100330001B9306F07FFD03F04DF83C2200216DA8D1
:1003400006F078FD03F046F80B463C2200210E90A3
:100350007CA80F9306F06EFD03F03CF80B463C22A0
:10036000002110908BA8119306F064FD03F032F881
:100370000B463C22002112909AA8139306F05AFDD6
:1003800003F028F80B463C2200211490A9A81593ED
:1003900006F050FD03F01EF80B463C22002116909B
:1003A000B8A8179306F046FD03F014F80B463C225C
:1003B00000211E90C7A81F9306F03CFD03F00AF829
:1003C0000B463C2200211890D6A8199306F032FD66
:1003D00003F000F80B4608903C220021E5A80993A1
:1003E00006F028FD00231F46DFF8E481DFF8E491E2
:1003F00005930DF5846602F0EDFF0A9A6C4B801AA6
:100400000B9A61EB0201984271F1000180F2B48015
:1004100002F0E0FF069A674B801A079A61EB02012F
:10042000834277EB0101C0F25C8102F0D3FF1C9B99
:10043000C01A1D9B61EB0301804577EB0101C0F2FF
:100440005E8102F0C7FF0C9BC01A0D9B61EB03019C
:10045000804577EB0101C0F21081574A6DAB07CAA6
:1004600003C31A80059B002B40F0C18102F0B2FF4C
:100470001A9BC01A1B9B61EB0301059B804573EB24
:100480000101C0F2728202F0A5FF0E9BC01A0F9B01
:1004900061EB0301804577EB0101C0F2E38002F0DC
:1004A00099FF109BC01A119B61EB0301804577EB0C
:1004B0000101C0F2C98002F08DFF129BC01A139B8C
:1004C00061EB0301804577EB0101C0F2AF8002F0E0
:1004D00081FF149BC01A159B61EB0301804577EBEC
:1004E0000101C0F2958002F075FF169BC01A179BA0
:1004F00061EB0301804577EB01017BDB02F06AFFD2
:100500001E9BC01A1F9B61EB0301804577EB010125
:1005100062DB02F05FFF189BC01A199B61EB0301BD
:10052000804577EB010135DB02F054FF089BC01AD0
:10053000099B61EB0301804577EB0101BFF65BAFDF
:1005400002F048FF03460020CDE9083105F0F6F936
:100550001A4B1B68002B40F3CE80811C00F01A82DE
:10056000174AD054154A01331360164B144A1649E2
:10057000E5A804F0FFFF3EE702F02CFF19234FF03F
:100580000102CDE90A0142EC403002F023FFCDE93F
:1005900006013DE702F01EFF0C4BCDE9180193E880
:1005A0000300D6908DF85C13BEE700BF6CBC001052
:1005B000C0CF6A001FA10700E0BC00102813002074
:1005C000901200204C1300200CBE0010CCBD001077
:1005D0003F420F0098BD001006234FF0000242EC8E
:1005E0004030BE4BC7AC0FCB07C424F8023B1B0CFA
:1005F00023708EE702F0EEFEB94BCDE9160193E8C9
:100600000300ADF8E412090CB8908DF8E61275E716
:1006100002F0E0FEB34BCDE9140193E80300ADF81E
:10062000A812090CA9908DF8AA125CE702F0D2FE7C
:10063000AD4BCDE9120193E80300ADF86C12090C43
:100640009A908DF86E1242E702F0C4FEA74BCDE9F6
:10065000100193E80300ADF83012090C8B908DF86F
:10066000321228E702F0B6FEA14BCDE90E0193E865
:1006700003007C90ADF8F41111E702F0ABFE9D4A47
:100680004FAB0C900D9107CA03C3C7A81A7005F0B1
:100690005FFAE5A805F05CFA4FA805F059FA40A802
:1006A00005F056FA31A805F053FA22A805F050FAE1
:1006B0009AA805F04DFAA9A805F04AFAB8A805F0DD
:1006C00047FA6DA805F044FA5EA805F041FA7CA847
:1006D00005F03EFA8BA805F03BFAD6A805F038FAEB
:1006E000BBE602F077FE19234FF00002CDE90601C8
:1006F00042EC403099E6821C7FF432AF35E702F0DD
:1007000069FE034601257C48CDE91C3105F09EF9C0
:100710007A4805F09BF90021794805F019FA2E2056
:1007200005F052F9774805F013FAAB462C46DFF88E
:10073000E8A12EE0782B2FD002F04CFE42F210738D
:10074000C01841F100034FF0FF316FF000428142C9
:1007500072EB030C3CBF084613465946CDE9020331
:10076000324601236848009705F0CAFB002813DBD6
:10077000664805F0EDF90F2D33D14846013405F0F8
:10078000E7F9802C3FF45DAE14F00F055FFA84FBAF
:1007900004D01BF07803CDD15046EAE721465848F3
:1007A00005F0D6F902F016FE42F210734FF0FF3258
:1007B000C0186FF0004341F10001824273EB010564
:1007C0003CBF104619463246CDE902010123594685
:1007D0004D48009705F094FB002804DB402005F00D
:1007E000F3F84848CAE72E2005F0EEF8F9E701F0E3
:1007F00027FEDFF828A1464D01F0ECFA002839D099
:10080000304601F035FC5146375421AA304606F0F7
:1008100063FA012840F0D3802199132900F2A180C6
:10082000F4AB53F82130F4AA013342F821306DA81B
:1008300006F0FEFCD0F13B0B13D0F4AC02E06DA847
:1008400006F0F6FC0DF5DA7C2A46594654F8043BCE
:10085000604404F0A5FE834503D9B442ABEB000B22
:10086000EDD15A4649466DA806F036FB01F0B2FAC2
:100870000028C5D1044602F0ADFD1A9BC01A1B9B8F
:1008800061EB0301804574EB0101BFF6FCAD02F0A2
:10089000A1FD204A5EAB1A901B9107CA03C31A80C0
:1008A0001425DFF878A0DFF878B068B200F054FAC9
:1008B0002A4651465EA804F05DFE5EA806F0B8FC2C
:1008C000C1B25EA801F08CFA032000F0BDF801F07F
:1008D0009BFD052002F0DAFC0B2426E0BCBD0010D5
:1008E000B4BD0010ACBD0010A4BD00109CBD001034
:1008F00094BD0010D4BC001088BC001098BC00103F
:10090000CCBC001068BC0010EC06002064BC0010D9
:1009100058BD00105CBD001060BC0010ECBC0010A5
:1009200068BD00100A2002F0B1FC01F04DFA08B1D8
:10093000013CF7D101F048FA40BB013DB5D1364D3D
:1009400005205EAC00F080F801F07AFD0FCD0FC4F9
:1009500095E8030044F8040B24F8021B090C2170ED
:1009600091E52E4805F0F4F861E702F033FD2C4ADA
:100970005EAB1A901B9107CA03C32A481A8000F085
:10098000EFFA059000283FF47EAD89E7584605F060
:100990005DF8D2E7244AD754244B1F601368244AD9
:1009A00093421DD02349204806F0EEFA00287FF438
:1009B000DCAD01465022F4A806F03CFAD5E53146FC
:1009C0001D4805F0C5F802F005FD1A9BC01A1B9BD7
:1009D00061EB0301804577EB0101FFF658AF52E56B
:1009E000114B164A5B689342DCD1154C154D4FF004
:1009F000060C0FCD0FC495E8070003C44FF0010E9D
:100A000022704EEC40C002F0E5FCCDE91E01C9E7C2
:100A100002F0F0FE48E400BF7CBD0010F0BC001006
:100A20005CBD0010600600209012002028130020FA
:100A30004255524EF8BD001020BD00105F4F4E00D1
:100A40004C130020DCBD00102DE9F0474FF0000AE8
:100A500082B08146002105208DF806A00D2502F008
:100A6000C3FC4AEC40500124254E0520002102F031
:100A7000BBFC22460DF1070130688DF807400BF0F2
:100A8000C7F8514623460DF1060230680BF0BCF85A
:100A90000520002102F0A8FC44EC40500520002174
:100AA00002F0A2FC9DF80630052023F0070343EA7C
:100AB000090300218DF8063002F096FC4AEC405004
:100AC0000520002102F090FC812322460DF1070150
:100AD00030688DF807300BF09BF822460DF10601C7
:100AE00030680BF095F80520002102F07DFC44EC05
:100AF00040500520002102F077FC02B0BDE8F087ED
:100B00006C0600202DE9F04341F67861002405468B
:100B10008D4A83B005E0DCB252F82410002900F0C1
:100B2000BF808D4204F10103F5D8884805F010F824
:100B300024014FF00008052000218DF80680C146F1
:100B400002F052FC0D2748EC40700520002102F015
:100B50004BFC1D237E4E0DF10701012230688DF8FC
:100B600007300BF055F8012341460DF106023068BD
:100B70000BF04AF80520002102F036FC4FF0010886
:100B800048EC40700520002102F02EFC9DF8063054
:100B9000052023F0F003234300218DF8063002F0F6
:100BA00023FC49EC40700520002102F01DFC9D2330
:100BB0000DF10701012230688DF807300BF028F89D
:100BC00001220DF1060130680BF022F8052000210A
:100BD00002F00AFC48EC40700520002102F004FC01
:100BE0005C4B9D425ED841F678639D4200F0A9803F
:100BF0004FF223439D428CBF402344230520002114
:100C00008DF8063002F0F0FB49EC40700520002121
:100C100002F0EAFBAF230DF10701012230688DF8E5
:100C200007300AF0F5FF01220DF1060130680AF0E5
:100C3000EFFF0520002102F0D7FB48EC40700520B3
:100C4000002102F0D1FB0023052000211D468DF874
:100C500006300D2402F0C8FB45EC40400520002181
:100C600002F0C2FBB0230DF10701012230688DF8BC
:100C700007300AF0CDFF01220DF1060130680AF0BD
:100C8000C7FF0520002102F0AFFB4FF0010343EC4A
:100C900040400520002102F0A7FB03B0BDE8F0832F
:100CA000902446E70223052000218DF8063002F04B
:100CB0009BFB49EC40700520002102F095FBB62318
:100CC0000DF10701012230688DF807300AF0A0FF0E
:100CD00001220DF1060130680AF09AFF052000217B
:100CE00002F082FB48EC40700520002102F07CFB02
:100CF0006423052000218DF8063002F075FB49ECD5
:100D000040700520002102F06FFBBA230DF10701AE
:100D1000012230688DF807300AF07AFF01220DF1C8
:100D2000060130680AF074FF0520002102F05CFB28
:100D300048EC40700520002102F056FB03B0BDE8EE
:100D4000F08348235AE700BF74C3001074BE00103C
:100D50006C0600201FA107002DE9F04F0346002775
:100D600085B00520002101938DF80E700D2402F04E
:100D70003BFB47EC40404FF0090B784D052000212C
:100D800002F032FB0DF10F01012228688DF80FB03F
:100D90000AF03EFF012339460DF10E0228680AF0E1
:100DA00033FF0520002102F01FFB012646EC4040E6
:100DB0000520002102F018FB9DF80E30052063F09D
:100DC0007F0300218DF80E3002F00EFB47EC40400F
:100DD0004FF0890A0520002102F006FB32460DF192
:100DE0000F0128688DF80FA00AF012FF32460DF1AE
:100DF0000E0128680AF00CFF0520002102F0F4FA29
:100E000046EC40400520002102F0EEFA05200021CA
:100E10008DF80E7002F0E8FA47EC40400520002102
:100E200002F0E2FA32460DF10F0128688DF80FB09A
:100E30000AF0EEFE334639460DF10E0228680AF03C
:100E4000E3FE0520002102F0CFFA46EC40400520E9
:100E5000002102F0C9FA9DF80E30052023F070033E
:100E600043F0700300218DF80E3002F0BDFA47EC1C
:100E700040400520002102F0B7FA32460DF10F0183
:100E800028688DF80FA00AF0C3FE32460DF10E015E
:100E900028680AF0BDFE0520002102F0A5FA46EC04
:100EA00040400520002102F09FFA052000218DF826
:100EB0000E7002F099FA47EC40400520002102F044
:100EC00093FA32460DF10F0128688DF80FB00AF041
:100ED0009FFE334639460DF10E0228680AF094FE53
:100EE0000520002102F080FA46EC40400520002158
:100EF00002F07AFA019B9DF80E2043EAE3730E2B71
:100F0000A8BF0E2322F00F02334413430520002113
:100F10008DF80E3002F068FA47EC404005200021C1
:100F200002F062FA32460DF10F0128688DF80FA029
:100F30000AF06EFE32460DF10E0128680AF068FED6
:100F40000520002102F050FA46EC40400520002127
:100F500002F04AFA05B0BDE8F08F00BF6C06002031
:100F60002DE9F04F064683B0152001F05DFB4FF0F0
:100F70000107152347EC443047EC40300B2001F0CB
:100F800053FB4FF000080B2448EC444042464146D6
:100F9000204601F035FB47EC40400D2001F044FBBA
:100FA0000D2547EC445042464146284601F028FBB7
:100FB00047EC405001210E2001F004FB01210F20DD
:100FC00001F000FB01210C2001F0FCFA47EC444049
:100FD00048EC40406420002102F040F948EC4440D5
:100FE000D84C052002F052F90A2002F02FFA2068AE
:100FF000D549B06004F0A2FF20684FF0020E03460E
:10100000C22653F8041F00F5805C03F54052C2F875
:1010100000E0026801EA0E0182F0070203F50053C6
:1010200002F0CF02CCF800208DF8058019608DF811
:10103000076048EC405001220DF107010AF0E8FD7D
:101040000123414620680DF105020AF0DDFD47EC61
:101050004050BE4ABE4B012814BF1046184604F04B
:1010600077FDBC4B9DF80510BB48112918BF1846E9
:1010700004F06EFD142001F0D7FA142048EC44006F
:101080000122414601F0BCFA052000218DF80680BE
:1010900002F0AAF948EC40500520002102F0A4F922
:1010A000C0230DF10701012220688DF807300AF0F6
:1010B000AFFD01220DF1060120680AF0A9FD05200F
:1010C000002102F091F9012647EC40500021052053
:1010D00002F08AF93046FFF7B7FC0A2002F0D6F892
:1010E000052000218DF8068002F07EF948EC405082
:1010F0000520002102F078F9242332460DF1070182
:1011000020688DF807300AF083FD334641460DF123
:10111000060220680AF078FD0520002102F064F93B
:1011200047EC40500520002102F05EF99DF80630A2
:10113000052043F0080300218DF8063002F054F931
:1011400048EC40504FF0A40A0520002102F04CF971
:1011500032460DF1070120688DF807A00AF058FD0E
:1011600032460DF1060120680AF052FD05200021EB
:1011700002F03AF947EC40500021052002F034F922
:101180004FF47A7002F082F84046FFF75DFC0A20C7
:1011900002F07CF8052000218DF8068002F024F989
:1011A00048EC40500520002102F01EF932460DF1B6
:1011B000070120688DF807600AF02AFD3346414692
:1011C0000DF1060220680AF01FFD0520002102F043
:1011D0000BF947EC40500520002102F005F99DF87D
:1011E0000630052063F07F0300218DF8063002F001
:1011F000FBF848EC40500520002102F0F5F881236F
:1012000032460DF1070120688DF807300AF000FD25
:1012100032460DF1060120680AF0FAFC0520002193
:1012200002F0E2F847EC40500520002102F0DCF823
:10123000052000218DF8068002F0D6F848EC4050D9
:101240000520002102F0D0F88E2332460DF107016F
:1012500020688DF807300AF0DBFC32460DF10601FC
:1012600020680AF0D5FC0520002102F0BDF847EC0B
:1012700040500520002102F0B7F8052000218DF82C
:10128000068002F0B1F848EC40504FF08F0B05207B
:10129000002102F0A9F832460DF1070120688DF80F
:1012A00007B00AF0B5FC32460DF1060120680AF0DD
:1012B000AFFC0520002102F097F847EC40500520D4
:1012C000002102F091F8052000218DF8068002F03F
:1012D0008BF848EC40500520002102F085F832469A
:1012E0000DF1070120688DF807A00AF091FC324645
:1012F0000DF1060120680AF08BFC0520002102F0A8
:1013000073F847EC40500520002102F06DF86D2382
:10131000052000218DF8063002F066F848EC4050B8
:101320000520002102F060F8862332460DF1070106
:1013300020688DF807300AF06BFC32460DF106018B
:1013400020680BE06C06002040420F00B4BE001085
:1013500098BE0010D0BE0010F0BE00100AF058FC7D
:101360000520002102F040F847EC40500520002104
:1013700002F03AF89623052000218DF8063002F09D
:1013800033F848EC40500520002102F02DF8872367
:1013900032460DF1070120688DF807300AF038FC5D
:1013A00032460DF1060120680AF032FC05200021CA
:1013B00002F01AF847EC40500520002102F014F822
:1013C000052000218DF806B002F00EF848EC4050E0
:1013D0000520002102F008F8882332460DF10701AC
:1013E00020688DF807300AF013FC32460DF1060133
:1013F00020680AF00DFC0520002101F0F5FF47EC04
:1014000040500520002101F0EFFFB549B54804F038
:101410009FFB052000218DF8068001F0E5FF48ECD8
:1014200040500520002101F0DFFFA02332460DF1DE
:10143000070120688DF807300AF0EAFB32460DF10B
:10144000060120680AF0E4FB0520002101F0CCFF32
:1014500047EC40500520002101F0C6FF082305207D
:1014600000218DF8063001F0BFFF48EC4050052008
:10147000002101F0B9FFA12332460DF107012068D8
:101480008DF807300AF0C4FB32460DF106012068E2
:101490000AF0BEFB0520002101F0A6FF47EC4050FA
:1014A0000520002101F0A0FF052000218DF8068015
:1014B00001F09AFF48EC40500520002101F094FF14
:1014C000202332460DF1070120688DF807300AF01D
:1014D0009FFB334641460DF1060220680AF094FB5B
:1014E0000520002101F080FF47EC4050052000213D
:1014F00001F07AFF052000219DF806A08DF80680F6
:1015000001F072FF48EC40500520002101F06CFF13
:10151000212332460DF1070120688DF807300AF0CB
:1015200077FB334641460DF1060220680AF06CFB5A
:101530000520002101F058FF47EC40500520002114
:1015400001F052FF9DF8063043EA0A23082B02D02F
:10155000654804F0FDFA0025644F0D263846FFF774
:10156000D1FA052000218DF8065001F03DFF45EC31
:1015700040600520002101F037FF1D230DF1070118
:10158000012220688DF807300AF042FB012329462A
:101590000DF1060220680AF037FB0520002101F05A
:1015A00023FF4FF0010343EC40600520002101F0D0
:1015B0001BFF9DF806308F2B4FEA131200F2F283C7
:1015C0004B4B53F82230BB4240F0EC830026052100
:1015D000484804F0BDFA052000218DF806600D256D
:1015E00001F002FF46EC40504FF01D09052000219C
:1015F00001F0FAFE0DF10701012220688DF8079035
:101600000AF006FB012331460DF1060220680AF0BC
:10161000FBFA0520002101F0E7FE4FF0010747EC3F
:1016200040500520002101F0DFFE9DF80630052026
:1016300023F00E0343F0020300218DF8063001F081
:10164000D3FE46EC40500520002101F0CDFE9D2345
:101650000DF10701012220688DF807300AF0D8FA51
:1016600001220DF1060120680AF0D2FA05200021BE
:1016700001F0BAFE47EC40500520002101F0B4FE15
:10168000052000218DF8066001F0AEFE46EC4050CA
:101690000520002101F0A8FE0DF1070101222068BC
:1016A0008DF807900AF0B4FA012331460DF10602D5
:1016B00020680AF0A9FA0520002101F095FE47EC08
:1016C00040500520002101F08FFE9DF8063003F008
:1016D0000E03022B12D0084804F03AFA0EE000BFC5
:1016E00020E01C1A34BE001020BF001048E80100A2
:1016F00074C3001054BE001090BF001000260520D7
:1017000000218DF806600D2501F06EFE46EC40507C
:101710004FF01E090520002101F066FE0DF10701C2
:10172000012220688DF807900AF072FA01233146F1
:101730000DF1060220680AF067FA0520002101F089
:1017400053FE4FF0010747EC40500520002101F007
:101750004BFE9DF80630052023F0F00343F07003A4
:1017600000218DF8063001F03FFE46EC4050052088
:10177000002101F039FE9E230DF1070101222068AE
:101780008DF807300AF044FA01220DF106012068B5
:101790000AF03EFA0520002101F026FE47EC4050F9
:1017A0000520002101F020FE052000218DF80660B3
:1017B00001F01AFE46EC40500520002101F014FE15
:1017C0000DF10701012220688DF807900AF020FA38
:1017D000012331460DF1060220680AF015FA0520B2
:1017E000002101F001FE47EC40500520002101F0EE
:1017F000FBFD9DF806301B09072B02D0414804F081
:10180000A7F90026052000218DF806600D2501F0BE
:10181000EBFD46EC40504FF01E090520002101F081
:10182000E3FD0DF10701012220688DF807900AF011
:10183000EFF9012331460DF1060220680AF0E4F9C0
:101840000520002101F0D0FD4FF0010747EC40508A
:101850000520002101F0C8FD9DF80630052043F069
:10186000040300218DF8063001F0BEFD46EC405027
:101870000520002101F0B8FD9E230DF10701012292
:1018800020688DF807300AF0C3F901220DF1060136
:1018900020680AF0BDF90520002101F0A5FD47EC04
:1018A00040500520002101F09FFD052000218DF80A
:1018B000066001F099FD46EC40500520002101F042
:1018C00093FD0DF10701012220688DF807900AF0C1
:1018D0009FF9012331460DF1060220680AF094F9C0
:1018E0000520002101F080FD47EC4050052000213B
:1018F00001F07AFD9DF806305A0707D4024804F03B
:1019000027F903E0C0BF0010F4BF00100026052037
:1019100000218DF806600D2501F066FD46EC405073
:101920000520002101F060FDA6230DF10701012231
:1019300020688DF807300AF06BF901220DF10601DD
:1019400020680AF065F90520002101F04DFD4FF0F7
:10195000010747EC40500520002101F045FD05201E
:1019600000218DF8066001F03FFD46EC40504FF03D
:1019700009090520002101F037FD0DF107010122C1
:1019800020688DF807900AF043F9012331460DF1E4
:10199000060220680AF038F90520002101F024FD34
:1019A00047EC40500520002101F01EFD9DF8063057
:1019B000052063F07F0300218DF8063001F014FD4F
:1019C00046EC40504FF0890A0520002101F00CFD43
:1019D0000DF10701012220688DF807A00AF018F91F
:1019E00001220DF1060120680AF012F905200021FC
:1019F00001F0FAFC47EC40500520002101F0F4FC16
:101A0000052000218DF8066001F0EEFC46EC405008
:101A10000520002101F0E8FC0DF1070101222068FA
:101A20008DF807900AF0F4F8012331460DF1060213
:101A300020680AF0E9F80520002101F0D5FC47EC08
:101A400040500520002101F0CFFC9DF80630052014
:101A500023F0700343F0700300218DF8063001F08D
:101A6000C3FC46EC40500520002101F0BDFC0DF107
:101A70000701012220688DF807A00AF0C9F80122A9
:101A80000DF1060120680AF0C3F80520002101F0DD
:101A9000ABFC47EC40500520002101F0A5FC0520DF
:101AA00000218DF8066001F09FFC46EC40500520B7
:101AB000002101F099FC0DF10701012220688DF849
:101AC00007900AF0A5F8012331460DF106022068BF
:101AD0000AF09AF80520002101F086FC47EC4050FE
:101AE0000520002101F080FC9DF80630052023F040
:101AF0000F0343F00F0300218DF8063001F074FC52
:101B000046EC40500520002101F06EFC0DF107016C
:101B1000012220688DF807A00AF07AF801220DF161
:101B2000060120680AF074F80520002101F05CFC31
:101B300047EC40500520002101F056FC0520002113
:101B40008DF8066001F050FC46EC40500520002165
:101B500001F04AFC0DF10701012220688DF8079081
:101B60000AF056F8012331460DF1060220680AF00A
:101B70004BF80520002101F037FC47EC40500021D4
:101B8000052001F031FC8B4803F0E2FF0520002125
:101B90008DF8066001F028FC46EC40504FF00A0931
:101BA0000520002101F020FC0DF107010122206831
:101BB0008DF807900AF02CF8012331460DF106024A
:101BC00020680AF021F80520002101F00DFC47EC07
:101BD00040500520002101F007FC9DF8063005204B
:101BE00023F00F0300218DF8063001F0FDFB46ECD9
:101BF00040500520002101F0F7FB8A230DF1070179
:101C0000012220688DF807300AF002F801220DF158
:101C10000601206809F0FCFF0520002101F0E4FB2B
:101C200047EC40500520002101F0DEFB052000219B
:101C30008DF8066001F0D8FB46EC405005200021ED
:101C400001F0D2FB0DF10701012220688DF8079009
:101C500009F0DEFF012331460DF10602206809F08C
:101C6000D3FF0520002101F0BFFB47EC40500520C9
:101C7000002101F0B9FB9DF806301B0740F096806B
:101C80000026052000218DF806600D2501F0ACFB33
:101C900046EC40504FF00C090520002101F0A4FB58
:101CA0000DF10701012220688DF8079009F0B0FFBF
:101CB000012331460DF10602206809F0A5FF052039
:101CC000002101F091FB4FF0010747EC4050052047
:101CD000002101F089FB9DF80630052023F0030365
:101CE00043F0030300218DF8063001F07DFB46EC44
:101CF00040500520002101F077FB8C230DF10701F6
:101D0000012220688DF8073009F082FF01220DF1D1
:101D10000601206809F07CFF0520002101F064FB2A
:101D200047EC40500520002101F05EFB052000211A
:101D30008DF8066001F058FB46EC4050052000216C
:101D400001F052FB0DF10701012220688DF8079088
:101D500009F05EFF012331460DF10602206809F00B
:101D600053FF0520002101F03FFB47EC40500520C8
:101D7000002101F039FB9DF8063003F00303032B2B
:101D800002D00D4803F0E4FE0520FEF75DFE0B488F
:101D900003F05CFE9DF80500113818BF012003B068
:101DA000BDE8F08F064803F0D3FE0FE4054803F0CA
:101DB000CFFE65E724C0001080C00010B0C0001046
:101DC00054BF001054C000104FF050435868C0F387
:101DD000005070474FF050435868C0F300507047B0
:101DE0002DE9F04F0346002785B08A4605200021E3
:101DF00001938DF80E700D2501F0F6FA47EC405076
:101E000001249A4E0520002101F0EEFA22460DF140
:101E10000F0130688DF80F4009F0FAFE234639466D
:101E20000DF10E02306809F0EFFE0520002101F0EF
:101E3000DBFA44EC40500520002101F0D5FA9DF872
:101E40000E200520002100928DF80E7001F0CCFAD2
:101E500047EC40500520002101F0C6FA22460DF162
:101E60000F0130688DF80F4009F0D2FE0DF10E0021
:101E7000024623463946306809F0C6FE0520002197
:101E800001F0B2FA44EC40500520002101F0ACFA18
:101E90009DF80E30052023F00703234300218DF821
:101EA0000E3001F0A1FA47EC40504FF0810B0520B5
:101EB000002101F099FA22460DF10F0130688DF8EA
:101EC0000FB009F0A5FE22460DF10E01306809F0B1
:101ED0009FFE0520002101F087FA44EC40500520C8
:101EE000002101F081FA052000218DF80E7001F02B
:101EF0007BFA47EC40500520002101F075FA8D2354
:101F000022460DF10F0130688DF80F3009F080FE88
:101F100022460DF10E01306809F07AFE05200021FD
:101F200001F062FA44EC40500520002101F05CFA17
:101F30000520002101F058FA47EC4050052000210F
:101F400001F052FA802322460DF10F0130688DF81E
:101F50000F3009F05DFE52460199306809F058FED5
:101F60000520002101F040FA44EC405005200021FA
:101F700001F03AFA052000218DF80EA001F034FAA4
:101F800047EC40500520002101F02EFAA223224602
:101F90000DF10F0130688DF80F3009F039FE22463F
:101FA0000DF10E01306809F033FE0520002101F02B
:101FB0001BFA44EC40500520002101F015FA0520E1
:101FC00000218DF80E7001F00FFA47EC405005200B
:101FD000002101F009FA22460DF10F0130688DF859
:101FE0000F4009F015FE0DF10E010A462346394651
:101FF000306809F009FE0520002101F0F5F944ECF4
:1020000040500520002101F0EFF9009A052002F070
:1020100007039DF80E20002122F0070213438DF8DC
:102020000E3001F0E1F947EC40500520002101F0AD
:10203000DBF922460DF10F0130688DF80FB009F081
:10204000E7FD22460DF10E01306809F0E1FD0520A3
:10205000002101F0C9F944EC40500520002101F0B5
:10206000C3F9384605B0BDE8F08F00BF6C0600200C
:102070002DE9F04F002783B08246002105208DF81E
:1020800006700D2601F0B0F947EC406001258F4C39
:102090000520002101F0A8F92A460DF1070120686A
:1020A0008DF8075009F0B4FD2B4639460DF10602B4
:1020B000206809F0A9FD0520002101F095F945EC03
:1020C00040600520002101F08FF99DF80680052071
:1020D00000218DF8067008F0070801F085F947EC3B
:1020E00040600520002101F07FF92A460DF107012B
:1020F00020688DF8075009F08BFD2B4639460DF10D
:102100000602206809F080FD0520002101F06CF92D
:1021100045EC40600520002101F066F99DF806308D
:10212000052023F007032B4300218DF8063001F032
:102130005BF947EC40600520002101F055F981234F
:102140002A460DF1070120688DF8073009F060FD7F
:102150002A460DF10601206809F05AFD05200021EC
:1021600001F042F945EC40600520002101F03CF906
:10217000052000218DF8067001F036F947EC40602B
:102180000520002101F030F91E232A460DF1070138
:1021900020688DF8073009F03BFD2B4639460DF1DC
:1021A0000602206809F030FD0520002101F01CF92D
:1021B00045EC40600520002101F016F99DF806303D
:1021C0005A0740F18580052000218DF8067001F046
:1021D0000BF947EC40600520002101F005F91223BE
:1021E0002A460DF1070120688DF8073009F010FD2F
:1021F0002B4639460DF10602206809F005FD052041
:10220000002101F0F1F845EC40600520002101F0CB
:10221000EBF89DF806309B065AD54FF0000B0520D1
:1022200000218DF806B00D2601F0DEF84BEC406081
:1022300001250520002101F0D7F82A460DF10701FC
:1022400020688DF8075009F0E3FC2B4659460DF144
:102250000602206809F0D8FC0520002101F0C4F82E
:1022600045EC40600520002101F0BEF89DF80630E5
:10227000052023F0070343EA080300218DF8063008
:1022800001F0B2F84BEC40600520002101F0ACF801
:1022900081232A460DF1070120688DF8073009F0E7
:1022A000B7FC2A460DF10601206809F0B1FC0520B3
:1022B000002101F099F845EC40600520002101F073
:1022C00093F8384603B0BDE8F08F00BF6C060020DD
:1022D0000025052000218DF806500D2601F084F818
:1022E00045EC40600520002101F07EF813230DF13C
:1022F0000701012220688DF8073009F089FC0123CD
:1023000029460DF10602206809F07EFC0520002117
:1023100001F06AF84FF0010949EC40600520002106
:1023200001F062F89DF80670002F3FF476AF0520AB
:1023300000218DF8065001F057F845EC406005206B
:10234000002101F051F810230DF10701012220684E
:102350008DF8073009F05CFC012329460DF10602D7
:10236000206809F051FC0520002101F03DF849ECFE
:1023700040600520002101F037F80520002101F020
:1023800033F845EC40600520002101F02DF88D2345
:102390000DF10701012220688DF8073009F038FCA3
:1023A00001220DF10601206809F032FC0520002110
:1023B00001F01AF849EC40600520002101F014F802
:1023C0000520002101F010F845EC406005200021B7
:1023D00001F00AF80DF10701012220688DF807507D
:1023E00009F016FC3B4652462946206809F00CFCD1
:1023F0000520002100F0F8FF49EC40600520002195
:1024000000F0F2FF09E700BF01230B490B4A0868FF
:10241000126800F110018B4051681942FCD14FF451
:10242000801102EB8000016151680B42FCD14FF436
:1024300080130361704700BF0413002000130020C5
:1024400001230B490B4A0868126800F110018B4008
:1024500051681942FCD14FF0006102EB800001612C
:1024600051680B42FCD14FF000630361704700BF1D
:10247000041300200013002001230A490A4A0868B7
:10248000126800F110018B4051681942FCD10749D4
:1024900002EB8000016151680B42FCD1034B0361E8
:1024A000704700BF04130020001300200001010149
:1024B00070B502218EB03A4803F04AFB0122022196
:1024C000CDE901220091374809AB08AA07A903F01A
:1024D00087FE002860D0DDE90856079C022004F141
:1024E0002F4101F56001090D0631C9B200F06AF80B
:1024F0000123022229460093204603F0D7FD4FF422
:102500008033294A0A930C92F301F21C274943EACB
:10251000023323F0C04305200B930D9101F0D6F850
:1025200007EE100A9FED226AB8EE477ADFED216AC6
:10253000C7EE067A77EEA67ABCEEE77A17EE103A87
:102540009BB23BB307EE103AB8EE477ADFED1A6A5A
:1025500077EEC77A67EEA67AFCEEE77ACDED057ADC
:102560009DF81400000240EA0340324629460AABB7
:102570000A90204603F0E0FD0121002022680F4E62
:102580000F4BA94011432160DDE9071231601A6049
:102590000EB070BD1846E6E701F02CF99BE700BFCE
:1025A000D0C000109CC3001000000670000800207E
:1025B0000024F44A0000003B000080430013002088
:1025C0000413002010B44FF480740C4B53F82020F7
:1025D00003EB8003C00082F0400200F1804003F56D
:1025E000805C02F0C00200F5203003F54053CCF8C7
:1025F000002041601C605DF8044B7047048003407C
:1026000010B4084CC90041EA820154F8202004EBC0
:102610008003514003F5805301F00C015DF8044B39
:10262000196070470480034030B44FF0000343EC5E
:10263000440043EC400005254FF480740B4BC2006E
:1026400053F8201003EB800081F0400102F1804339
:1026500003F5203301F0C00200F5805100F5405031
:102660000A605D60046030BC704700BF04800340B6
:102670000FB400B583B0049C074803F0E7F93CB100
:1026800005A92046019102F0D9FF044803F0DEF9C4
:10269000012002F0EBFF00BFF8C0001098BD001051
:1026A000EFF3108072B6064BD3E8CF1F012200294A
:1026B000FAD1C3E8412F0029F6D1BFF35F8F7047ED
:1026C0000B1200200023034AC2E88F3F80F31088DA
:1026D000704700BF0B12002070B58646EFF31085DF
:1026E00072B6124CD4E8CF6F0120002EFAD1C4E8A4
:1026F000460F002EF6D1BFF35F8F4FF0010CC808D4
:1027000001F007030CFA03F31EF800C01CEA0306ED
:1027100008D14CEA030C0EF800C0C4E88F6F85F3B3
:10272000108870BD1046FFF7A3FF00BF0B120020FA
:10273000F8B5EFF3108572B6234CD4E8CF7F0126AD
:10274000002FFAD1C4E8476F002FF6D1BFF35F8F97
:102750009A4227D80126D70810F807E002F0070CA4
:1027600006FA0CFC1EEA0C0F00EBD2070DD125E097
:102770004FEAD20E10F80EE002F0070C06FA0CFC3D
:102780001EEA0C0F00EBD20718D001329342EFD2B1
:102790004FF0FF300023C4E88F3F85F31088984244
:1027A00007DBF8BD0023C4E88F3F85F310884FF0A6
:1027B000FF300029F5D00698FFF75AFF4EEA0C0EBD
:1027C000104687F800E0E5E70B12002000B5EFF3B4
:1027D000108E72B6104BD3E8CFCF0122BCF1000FA0
:1027E000F9D1C3E84C2FBCF1000FF4D1BFF35F8FD8
:1027F00001224FEAD10C01F0070102FA01F110F8B1
:102800000C2022EA010200F80C200022C3E88F2FDE
:102810008EF310885DF804FB0B120020044A107838
:10282000431CDBB2182B28BF10231370704700BF66
:10283000700600204FF0E022936843F0005393604D
:10284000704700BF0021044B03F12002C3E88F1F33
:1028500001339342FAD17047001200204FF0E02379
:102860004FF08032C3F80024C3F80424C3F80824CE
:10287000C3F80C24C3F81024C3F81424C3F8182494
:10288000C3F81C24C3F82024C3F82424C3F8282444
:10289000C3F82C24C3F83024704700BF012300F094
:1028A0001F029340400941B1800000F1604000F5F3
:1028B0006140C0F8803103607047024A203042F81E
:1028C0002030704700E100E0F8B50D46EFF31087C7
:1028D00072B6124ED6E8CF2F0123002AFAD1C6E8ED
:1028E000423F002AF6D1BFF35F8F0D4B00F1100479
:1028F0009B680C4A53F82430934203D0994201D08C
:1029000000F078FF064B9B6843F82450BFF35F8FBD
:102910000023C6E88F3F87F31088F8BD0912002016
:1029200000ED00E01D0100102DE9F04F83B0EFF342
:10293000108A72B6744ED6E8CF2F0123002AFAD13E
:10294000C6E8423F002AF6D1BFF35F8F6F4B00F11C
:1029500010089B686E4A53F8285095423FD08D422C
:102960000C464AD06B4FEB1B2F2B38D801214FEA76
:1029700050194FEA890909F1604909F5614900F0E8
:102980001F0301FA03F0D9F80030C9F8800000EA0B
:10299000030BBFF35F8FEFF30581C9B279B38845AD
:1029A00077D125F0010EDEF808C0644505D17CE042
:1029B000D3F808C0644532D09E469EF9062002EB4B
:1029C0004203002A07EB8303F2DA644500F08180BA
:1029D000BBF1000F20D0C9F88001C9F800004B4BB3
:1029E0009B6843F82850BFF35F8F0023C6E88F3FF2
:1029F0008AF3108803B0BDE8F08F1546EFE725F0A5
:102A0000010EDEF808C06445D7D19EF90640734632
:102A1000002C08DA154666E0C9F88000DFE793F974
:102A20000640002C56DB04EB440C07EB8C0CDCF866
:102A3000082061009A609CF80720DA719CF9062052
:102A4000002A9A715DDBBCF80420520504D502F51A
:102A5000FF1202F5FF521F32521502F1020C4FF025
:102A6000040E0C2212FB04E202EB4C026FF0070C86
:102A70003A44ACEB030C6244C2F34A0242F46042B3
:102A80009A80254B21441A7807EB81011C708A71CA
:102A90009EE7CDE9000100F0ADFEDDE9000125F083
:102AA000010EDEF808C0644587D19EF906407346E2
:102AB000002CB8DA194A1A4CD21A083AC2F30A3171
:102AC0006FEA01516FEA115144EA5202DA809980AB
:102AD0007EE773460029EDD1FF228EF806204BF6E3
:102AE0000152AEF804200C4C4AF6AA2294F800C019
:102AF0001946C91B49414A43120D83F806C022708A
:102B000066E74BF60152BBE70912002000ED00E03A
:102B10001D010010740600209C130020AE0600204A
:102B200000F8FFFFF0B5EFF30585EDB2EFF3108C81
:102B300072B62649D1E8CF2F0123002AFAD1C1E885
:102B4000423F002AF6D1BFF35F8F214E40F0010EC5
:102B5000B4684AF6AA2354F825701E4A0446A41AFB
:102B6000644163431B0D77455BB21BD092F906406D
:102B70009C421CD092F912409C4223D092F91E40F4
:102B80009C4221D092F92A409C4208BF03240FD0D6
:102B9000114A0024157813708571C1E88F4F8CF3AA
:102BA0001088F0BDB2680D4C42F82540F0E70024D3
:102BB00004EB440402EB8402FF2494714BF60154AD
:102BC0009480E5E70124F3E70224F1E709120020ED
:102BD00000ED00E0740600209C1300201D01001091
:102BE000014B0B44036070470012002070B5104C7D
:102BF000104DAC420ED2FF26236863B1FFF70EFEE4
:102C000001462046FFF7ECFFA680BFF35F8F083434
:102C1000AC42F1D370BDFFF701FE01462046FFF73D
:102C2000DFFF2671BFF35F8F0834AC42E4D370BD81
:102C3000BC0D0020C40D00200D4B1A68EFF310816D
:102C400072B6D2E8CFCF0120BCF1000FF9D1C2E8B3
:102C50004C0FBCF1000FF4D1BFF35F8F00221B6853
:102C6000C3E88F2F81F3108840BF002000217047F8
:102C700090130020000000002DE9F04F2DED028B95
:102C800085B0EFF30583DBB2103B9A0818BF012231
:102C90004FF0010103F0030018BFAB4DAB4B08BF71
:102CA000AB4D00EB820201FA00FB53F8226005F500
:102CB00041539FEDA38B0190C3F804B0CDF800B051
:102CC0002AE0B388180440F18C80B379002B40F0DF
:102CD000D580B6F908100029C0F21581736901EB9F
:102CE000410103EBC103D3E90247B7F1FF3F08BF3E
:102CF000B4F1FF3F09D0019B05EB8301AB6A0A6980
:102D0000D21AE31A934238BF0C61284600F05AFBEE
:102D1000A042B941C0F2F780B6F90840009B002CF0
:102D2000EB63CEDBD6F8149004EB440A284609EB9B
:102D3000CA07D7E902B800F045FB584571EB080116
:102D4000BFDBB8F1000FC0F2C180D7E90431814A7E
:102D5000934200F0EA807A88B6F9080092B242EA1B
:102D60000040984702460B4652EA030100F0AE804D
:102D7000002B80F2CE80BBEB020B68EB030839F925
:102D80003A30C7E902B8002B9BDB716903EB4302C1
:102D900001EBC202D2E90270BB4578EB000C4FEAAE
:102DA00043028EDBB4462CF8083F0BE031F9323099
:102DB000F446002B0DDB03EB430001EBC0005A008F
:102DC000D0E90270BB451A4478EB000001EBC20E5B
:102DD000ECDA29F83A30ACF80040B38818043FF533
:102DE00074AF3369EFF3108272B6D3E8CF0F0121CD
:102DF0000028FAD1C3E8401F0028F6D1BFF35F8F47
:102E00004FF6FF74B0880023316900B2B480C1E886
:102E10008F3F82F310889842FFF657AF0746A946C6
:102E2000746906F1080807EB470E04EBCE03D3E9FB
:102E30000250B6F90830C446002BA8BFB34605DAE5
:102E40000FE034F93A309446002B09DB03EB430AD8
:102E500004EBCA02D2E90261B54270EB0101F0DA7B
:102E60005E46ACF8007034F93E7024F83E30002F16
:102E7000D9DAB3794D46002B3FF42BAF0023B37161
:102E8000B6F9083006F10808591C3CD01946776994
:102E900003E080465A1C3FF41EAF03EB430207EBEE
:102EA000C200B0F802C01C461CF4004F9E4637F921
:102EB0003230EED08C4280ED028B05D0A8F8003085
:102EC000318927F8321034817146E3E739F83A3016
:102ED00033813369EFF3108272B6D3E8CF0F01214B
:102EE0000028FAD1C3E8401F0028F6D1BFF35F8F56
:102EF0007388316929F83A3000237480C1E88F3F24
:102F000082F31088DDE640BF05B0BDEC028BBDE862
:102F1000F08F2846CDE9022300F054FA029A039B71
:102F200010EB020B43EB010829E708460B690291FD
:102F300098470028CAD00299D1E9002314E700BFBE
:102F4000FFFFFFFFFFFFFFFF00800B402C1300205F
:102F500000000B40792C00102DE9F84F364C256904
:102F60002DB1BDE8F84F0A213448FFF739BEDFF82C
:102F7000E4800321404600F013FA0326C4F80C80D5
:102F8000FFF74CFC4FF0504C2D4B2670034423614F
:102F9000DCF800300F216370636961801D834FF09E
:102FA0000405A3F878504FF00505A3F890504FF0B2
:102FB0000605A3F8A8504FF007050E214FF6FF7243
:102FC00008274FF00A0EA3F8C0504FF001094FF048
:102FD0000C0C4FF0020B4FF0090A0D204FF00B05BF
:102FE000A3F868111749A280A3F808E1A160A3F82B
:102FF00048B0A3F8F0A0A3F82051A3F838C1A3F873
:103000005001A3F83090A3F86060A3F8D8701A803C
:103010000D4B3046C8F820700C49DC60FFF754FCBB
:1030200049463046FFF73AFC094B0A211F64034822
:10303000BDE8F84FFFF7D4BDBC0600209013002078
:1030400000120020FFFF10002C130020792C00102C
:1030500000200B4000000B400146F0B50069EFF383
:10306000108772B6D0E8CF5F0124002DFAD1C0E8F6
:10307000454F002DF6D1BFF35F8FB1F902E04C69E7
:103080000EEB4E0CBEF1000F4FEACC0504EBCC0C5E
:103090003DDB605B002648800869C0E88F6F87F3DE
:1030A0001088BCF80200CCE902230130C0F30E0006
:1030B000012838BF0120059BACF80200CCF8103085
:1030C000069B40EA0E40CCF814300B69EFF31082F7
:1030D00072B6D3E8CFCF0127BCF1000FF9D1C3E816
:1030E0004C7FBCF1000FF4D1BFF35F8F8B8863532B
:1030F000A1F804E00B69C3E88F6F82F31088012206
:10310000CB68097803F501538A405A60F0BD00236B
:103110000A69C2E88F3F87F310884FF0FF30F0BD97
:1031200003464089B0EB214F37DD58690A1402EBA2
:10313000420210B500EBC2001C69EFF3108C72B6AE
:10314000D4E8CFEF0122BEF1000FF9D1C4E84E2F31
:10315000BEF1000FF4D1BFF35F8F428889B292B203
:103160008A4207D000221B69C3E88F2F8CF3108896
:10317000002010BD42F40042428001210022186963
:103180009971C0E88F2F8CF310881C78DA68084694
:1031900002F50153A140596010BD0020704700BFE7
:1031A0002DE9F041861F41F1FF35B04271EB050377
:1031B00038BF002682B038BF354604460F4600F0BF
:1031C00009F9301A65EB0103012873F1000306DAEF
:1031D0002046394602B0BDE8F04100F07BB900F06E
:1031E000F9F8864265EB010100290ADB0021174B43
:1031F0003246009316482B460191FFF72DFF002819
:10320000E6DB4FF0000C1348134A436A9D4204D892
:10321000816AB142DCD29D42DAD11368EFF31081AA
:1032200072B6D3E8CF8F5FF0010EB8F1000FF8D17E
:10323000C3E848EFB8F1000FF3D1BFF35F8F136815
:10324000C3E88FCF81F3108820BFDEE7392C001050
:10325000BC06002000000B409013002038B5044647
:103260000D4600F0B7F84FF0FF326FF00043201822
:1032700045EB0101824273EB010438BF1946BDE8FA
:10328000384038BF1046FFF78BBF00BF10B504466B
:1032900000F0A0F84FF47A734FF0FF3C6FF000425B
:1032A000E4FB0301BDE81040844572EB01033CBF21
:1032B00060461146FFF774BFF0B506460D4683B071
:1032C000EFF30584E4B2002C35D1244F3A78F96845
:1032D00004328B6A51F82220D21AC31A934207D3C0
:1032E00020BF1F4B586AA8421FD2002003B0F0BD78
:1032F00000F070F8864265EB0101002911DB194BE3
:103300003846CDE9003432462B46FFF7A5FE011EB4
:1033100007DD134B5A6AAA4219D220BF0F48FFF7A4
:10332000FFFE0F4B586AA842DFD39B6A9E4209D822
:10333000012003B0F0BD0A4B586A8842D5D39B6A7E
:10334000B342F5D2401B18BF012003B0F0BD9B6A09
:103350009E42E3D9AA42E1D1DFE700BFBC060020CC
:1033600000000B40392C0010084AD0E90003516AD4
:103370008B4204D8926A824203D301207047002016
:103380007047581A18BF0120704700BF00000B405B
:1033900001460248C1E90023704700BF69330010AD
:1033A00010B4054B054C064AA04214BF1846581CE1
:1033B0005DF8044BFFF790B98812002000800B40A5
:1033C00008C100100346416A0A46986A596A8A424F
:1033D000FAD17047034B596A0A46986A596A914272
:1033E000FAD1704700000B4010B4174A536A9C464C
:1033F000946A536A6345FAD1001959414FF00002AB
:1034000028BF01220346CAB10F4B596A4B1C08BFA3
:103410000B4608D04FF0FF310B460B48426A8A42F8
:10342000FCD38A4207D1084A02E0506A884202D19E
:10343000906A9842F9D35DF8044B7047024A526A89
:103440009142EAD8EDE700BF00000B401F4B9842C5
:103450000AD84FF47A731E4A03FB00F0916A936A0C
:103460005B1A9842FBD870474FF47A7130B4184B0E
:10347000A0FB01015A6A94469C6A5A6A6245FAD1D5
:1034800003194A414FF0000528BF01259DB9104995
:10349000496A8A4203D90E48416A9142FCD391425B
:1034A00007D10B4902E0486A904202D1886A9842EB
:1034B000F9D330BC7047064B5A6A531C08BF1346F9
:1034C000EFD04FF0FF321346E5E700BF9BC420006A
:1034D00000000B40074A536A9942FCD8994207D131
:1034E000044B02E05A6A914202D19A6A8242F9D3AD
:1034F000704700BF00000B40F8B5054606200E4699
:1035000000F0E4F8002842D0354A3648954214BF0E
:103510004FF080624FF00062334B344902601A6012
:103520008C6832EA0404FBD12D4B4FF48071EB1A06
:10353000B3FA83F32E4A5B09062022F8131000F039
:10354000C5F8C300B3FBF6F30133DA0920D14026F6
:1035500001216962AA622F6BFB0722D42B4600224D
:1035600053F82C1F062003F5805422602F6300F0CF
:10357000ADF840F2013103228000B0FBF6F0EB6AB7
:1035800083F0700303F07E0323602963AA64F8BD0F
:103590004FF6FE718A421BD922464FF6FF71154E37
:1035A000D7E740F2013205F540531A636B6AAC6A03
:1035B000062004EB831400F089F80F4BA402A3FB50
:1035C0000023DB0A0021B4FBF3F0FFF70DFFC5E792
:1035D000C3F34503114603EB82161A46B9E700BF51
:1035E00000800740002002400030024000000240FE
:1035F00094130020C0FF3F00757B2B8F00EB400C25
:103600004FEA8C0C0CF1804C0CF5803CF0B5164662
:10361000DCF80420051FB2F5803F38BF4FF480323C
:10362000EDB238BFCCF80420012D2AD94FF4006741
:10363000254C0CF54052176054F82020B2B9DCF844
:103640000020012D82EA461202F0E0020CF58056BD
:1036500032602AD94FF4006144F820304FF48033AF
:103660000CF500521160CCF80430F0BD6769B7FB6F
:10367000F2FE0EF1010E0EEB4E0EBEF1030EFCD269
:10368000DDE70129D2D103240CF540521460DCF8A7
:103690000820D207FBD5DCF800200B4C82EA46124A
:1036A00002F0E0020CF5805632600122DCF8005096
:1036B0004D4005F00305356002FA01F1DCF8082001
:1036C0000A42FBD0C6E700BFCC120020014B53F8E2
:1036D00020007047CC12002070B4039D04682D03B5
:1036E00045EA03451B4B002CB3FBF1F3B2FBF3F6A9
:1036F0001FDB194A194B904214BF4FF480424FF41C
:103700000042174C1A6003F580531A60A36832EA2E
:103710000303FBD1212200F540530433016086608E
:103720001A600268002AFCDA0822C5601A6070BCC0
:103730007047036803F03F038B42DAD18368C3F319
:103740000B03B342D5D1C36803F4EE23AB42D0D10F
:10375000EDE700BF001BB7000080054000200240DD
:1037600000000240012300EB4000800000F1804097
:1037700000F5841041600360704700BF0023DB8ABE
:10378000002242E800F2520201D41021184704211D
:10379000184700BF034AD2F82838002BFBD0BFF3EC
:1037A0005F8F704700000E400021044B044ABFF3B6
:1037B0005F8F43F8041B9342F9D170470C080E4009
:1037C0002C080E4010B42F204FF42A64054A064BF3
:1037D00006491460D06019605368002BFCDA5DF86C
:1037E000044B70470080044000A0044000B0FA0081
:1037F000704700BF08B50148FEF73AFF2CC1001022
:1038000038B5054C054DAC4204D254F8043B9847FA
:10381000AC42FAD338BD00BF18BC001058BC001031
:1038200010B40748074C084B084A094904601A605D
:103830008B6832EA0303FBD15DF8044B704700BF8D
:10384000002002407F3BEFEF00300240F6FFF30321
:1038500000000240044BDB6CB3F5004F03D14FF482
:103860008022024BDA647047000011500020115092
:103870004FF0E022044BD2F8881D0B43C2F8883D7C
:1038800010EE3004704700BF030330006FF060415A
:10389000044B054A19609368DB4333F06043FAD167
:1038A000704700BF003002400000024010B545F2F2
:1038B0005320FFF763FFBDE810400346042018477C
:1038C00010B545F25320FFF759FFBDE810400346FD
:1038D00001201847FEF7B6BF10B5054B054C4FF455
:1038E00088721846A16803F02DFCA06010BD00BFCF
:1038F0000000002000ED00E0002370B52B4C82B0EA
:10390000C4F88430FFF75EFF0122294BDA63636C51
:10391000012BFCD10321264A244B11639C6B012C03
:10392000FCD10226052521460523224A224800967D
:10393000FFF7D2FE21462B46204A21480095FFF78B
:10394000CBFE0022042031461E4BFFF757FE2146D6
:10395000284600221C4BFFF751FE0022082011468A
:103960001A4BFFF74BFE002209201146174BFFF7B9
:1039700045FE002206201146134BFFF73FFE0022B2
:10398000114B07201146FFF739FE0420FFF79EFE7A
:1039900000240F4BA3FB0035AD0CE0B229460134E7
:1039A000FFF7E0FE062CF8D102B070BD0000014028
:1039B00000300140002F685900000540008C864708
:1039C00000800540001BB70080D1F008006CDC02CD
:1039D00083DE1B4386B003B451FC0804CDE9020129
:1039E00051FC0904CDE9040151EC0A04CDE90601BA
:1039F00003BCF047BDE800504EEC00C4BDE80050E9
:103A00004EEC01C4BDE800504EEC02C400BD000005
:103A100000B5FFF7DFFF02E010FE30F4F8D441EC10
:103A2000100443EC112400EE010410EE010480EEBA
:103A3000200451EC1004704700B5FFF7CBFF02E003
:103A400010FE30F4F8D441EC100443EC112400EEE5
:103A5000010410EE210480EE200451EC3004704784
:103A600000B5FFF7B7FF02E010FE30F4F8D410B550
:103A700041EC100443EC112451EC040453EC0524F4
:103A8000A0FB024C5FF0000EE0FB03CEE1FB02CE98
:103A90004CEC20440024E1FB03E444EC30E480EEF1
:103AA000200451EC5004BDE81040704700B5FFF70A
:103AB00091FF02E010FE30F4F8D441EC100443EC26
:103AC000112451EC2104A0FB01126FEA820252FB87
:103AD000100052FB12F252FB1000A0EBD07C53EC12
:103AE00004245CFB13F153EC1524A1FB022001FB21
:103AF000030053EC4424A2EB000050FB1CF24FEAFD
:103B0000111312EB017043EBE27140EA515020EACD
:103B1000915020F0070053EC7524A0FB023C53ECBD
:103B2000752400FB03CC01FB02CC53EC0424ACEB6A
:103B3000824C40EA5C70A0F1010041EC400480EE50
:103B4000200451EC7004704700B5FFF743FF02E01A
:103B500010FE30F4F8D441EC100480EE220410EE94
:103B6000B204704700B5FFF735FF02E010FE30F4F5
:103B7000F8D440EC700400EE010410EE210480EE55
:103B8000200451EC3004704700B5FFF723FF02E03A
:103B900010FE30F4F8D440EC600400EE010410EEA6
:103BA000210480EE200451EC3004704700B5FFF78B
:103BB00011FF02E010FE30F4F8D441EC800400EE76
:103BC000010410EE010480EE400410EE130470476F
:103BD00000B5FFF7FFFE02E010FE30F4F8D441EC30
:103BE000800400EE010410EE010480EE400410EEAB
:103BF0003304704700B5FFF7EDFE02E010FE30F42D
:103C0000F8D441EC100443EC112400EE010410EE52
:103C10003004C0F30070704700B5FFF7DBFE02E030
:103C200010FE30F4F8D441EC100443EC112400EE03
:103C3000010410EE3004C0F38070704700B5FFF748
:103C4000C9FE02E010FE30F4F8D443EC102441EC3D
:103C5000110400EE010410EE30F48CBF01200020AE
:103C6000704700BF00B5FFF7B5FE02E010FE30F46C
:103C7000F8D443EC102441EC110400EE010410EEE2
:103C800030F42CBF01200020704700BF00B5FFF7C3
:103C9000A1FE02E010FE30F4F8D441EC100443EC35
:103CA000112400EE010410EE30F42CBF012000209E
:103CB000704700BF00B5FFF78DFE02E010FE30F444
:103CC000F8D441EC100443EC112400EE010410EE92
:103CD00030F48CBF01200020704700BF0022002973
:103CE00050DA404261EB4101C9B1B1FA81F30B3BBB
:103CF00017D4D3F1200C30FA0CFC9840994051EACB
:103D00000C011A44524202F2324201EB025141F0DC
:103D1000004140F2FE739A4238BF704721E01146DD
:103D20007EE003F1210310FA03FCA3F1010301FA81
:103D300003FCC3F1200320FA03F021FA03F140EA67
:103D40000C00A3EB020202F2324214D050F1000048
:103D500041EB025141F0004140F2FE739A4238BFFC
:103D600070474FF00001A8BFC7F6F0714FF0000098
:103D7000704700217047EBD350F1000020F00100A4
:103D8000E6E70022B9B1B1FA81F30B3B16D4D3F1C7
:103D9000200C30FA0CFC9840994051EA0C011A446E
:103DA000524202F2324201EB025140F2FE739A4259
:103DB00038BF704720E0114600F066B803F12103D8
:103DC00010FA03FCA3F1010301FA03FCC3F1200381
:103DD00020FA03F021FA03F140EA0C00A3EB0202FF
:103DE00002F2324212D050F1000041EB025140F297
:103DF000FE739A4238BF70474FF00001A8BFC7F664
:103E0000F0714FF00000704700217047EDD350F182
:103E1000000020F00100E8E7002880F235804042F1
:103E2000B0FA80F30B3B11D4984001EB03025242ED
:103E300002F2124200EB025141F000414FF000004B
:103E400040F2FE739A4238BF704713E0C3F100039B
:103E500030FA03FCC3F120029040A3EB010202F20E
:103E600012420CEB025141F0004140F2FE739A42C3
:103E700038BF70474FF00041A8BFCFF6F0714FF048
:103E8000000070470021704760B3B0FA80F30B3B2D
:103E90000FD4984001EB0302524202F2124200EBAF
:103EA00002514FF0000040F2FE739A4238BF704753
:103EB00010E05B4230FA03FCC3F120029040A3EB18
:103EC000010202F212420CEB025140F2FE739A42DE
:103ED00038BF70474FF00001A8BFC7F6F0714FF030
:103EE00000007047002170470022A2F232425FEAD0
:103EF000215CACF10103A1EB03515B0513F5800FCD
:103F000032D212EB535210D40B2A36DA9140D2F14E
:103F1000200330FA03F319439040BCF1000FA8BF0F
:103F20007047404261EB4101704720320EDD01FADB
:103F300002F3D2F12002D140D0401843BCF1000F6F
:103F4000A8BF7047404261EB41017047524282F383
:103F5000050231FA02F00021BCF1000FA8BF704742
:103F6000404261EB4101704702D0002000217047C0
:103F700050EA013118BF4FF0000C6FF0004101EB27
:103F8000DC716FEAEC70704710B5044602F01EFA5F
:103F900028B10346034A2344934200D810BD024887
:103FA000FEF766FB0000082038C1001010B50C4673
:103FB00002F0D2FC28B10346034A2344934200D8BE
:103FC00010BD0248FEF754FB0000082038C1001065
:103FD00002F004BA9A4238BF88547047704700BF55
:103FE0002DE9F04F83B09946DDE90DAB0F9B884674
:103FF00011469A07074616D1DA453AD20C460D46C5
:10400000ABEB0A060E4422464B46414620200134C3
:10401000B847B442F7D12946BAF1000F08D120467B
:1040200003B0BDE8F08F0C46BAF1000F10D00E4679
:1040300055460C9B2E449A440191721B4B46013D00
:1040400041461AF8010D3446B847002DF5D10199C3
:104050000F9B9B07E3D5651AAB45E0D922464B463B
:10406000414620200135B8475D4504F10104F5D3F0
:10407000D5E7BAF1000FDAD10C46D0E72DE9F04FC1
:104080000F9FDDF824E017F0020F0A9C9DF82C909A
:104090000E9DDDE90C8629D1002D6FD1B44225D2C9
:1040A000202C07F0010B00F0128104F1FF3C4FF0CF
:1040B000300AF44401E0202C7AD00134A6420CF8F6
:1040C00001AFF8D8BBF1000F10D0AC420ED2202CBB
:1040D00074D004F1FF3C4FF0300AF44401E0202C8E
:1040E00029D00134AC420CF801AFF8D117F0100F11
:1040F0003AD017F4806F28D11CBBB8F1100F00F034
:10410000CA80B8F1020F00F0D48030248EF800404D
:104110000124B9F1000F67D17E0740F1AA802B2658
:104120000EF804600134CDE90B57CDE909E4BDE890
:10413000F04FFFF755BFFC0640F189807C0535D470
:104140002024A6426AD0AC4268D0B8F1100F00F02B
:104150008780B8F1020F5AD0202CE4D026460134D3
:104160004FF0300C0EF806C0202CD2D1CDE90B5701
:10417000CDE909E4BDE8F04FFFF732BF17F0010BBE
:104180003ED0B9F1000F47D117F00C0F44D1B44223
:104190009BD2202C89D1202D10D8FC0657D57C0528
:1041A00055D4202E00F0B980202D10D02024CCE74B
:1041B000BBF1000F00F0A580202DBCD9FC0646D530
:1041C0007C0544D4202E00F0A880202D3FD12C4621
:1041D0001F26B8F1100F7FD0B8F1020FC0D14FF0F9
:1041E000620C0EF806C0B7E72D260EF80460013405
:1041F000CDE90B57CDE909E4BDE8F04FFFF7F0BE7C
:10420000B442BFF473AF202C7FF44FAFD6E7202C1D
:1042100089D026460134E2E7013DB8E7661ED8D1D1
:10422000B8F1100F64D0B8F1020F7FF46EAF6226C0
:104230008EF80060302644468EF80160B9F1000F18
:104240003FF46AAFD0E7B8F1100F7FF46CAF2024D1
:10425000CDE90B57CDE909E4BDE8F04FFFF7C0BE4B
:10426000BE060ED4202CF2D078260EF8046001345D
:1042700072E73E077FF557AF20260EF80460013441
:1042800051E7202CE3D04FF0580C0EEB040686F8D3
:1042900000C0013460E7BE0617D558248EF80040F0
:1042A00030248EF801400224B9F1000F3FF434AFFE
:1042B0009AE762248EF8004030248EF801400224F0
:1042C000B9F1000F3FF428AF8EE77824F2E7BBF195
:1042D000000F7FF462AF71E717F0200F0CBF4FF0B3
:1042E000780C4FF0580CA61E0EF806C0013C35E7BE
:1042F000BC06EAD558248EF8004030248EF80140E0
:10430000DDE717F0100F3FF40EAF17F4806F9AD16E
:10431000202E7FF418AF1F265BE734461F2658E790
:1043200000B9704701F050BB10B1D1E90031184716
:10433000704700BF000000002DE9F04F9FB09DEDD9
:10434000287BDDE92AA558EC177B83461E460D9194
:10435000109243463A46384641468DED087B2C9CE8
:10436000FFF74CFC002840F0D880384641464FF01B
:10437000FF32754BFFF7A2FC002840F0CE80384694
:1043800041464FF0FF326FF48013FFF75BFC0028CB
:1043900040F0C380DDE9087800223846414600231A
:1043A000FFF750FC002840F0C081CDE90A78DDE934
:1043B0000A2390461F4614F4806308BF4FF0060A94
:1043C000139304F4006258EA0703119240F0C0808E
:1043D000002A00F0A2819FED5A7B00278DED0E7B15
:1043E0004FF00009BA45CCBFAAEB070A4FF0000A0C
:1043F0004F46C8BF0AF1FF3A44F480644D4594BF6C
:104400004FF00008A5EB090814F00203119304D043
:10441000B9F1000F18BF4FF000083FB1DDE90A0104
:10442000DDE90E23FFF746FBCDE90A01DDE90801CE
:1044300000220023FFF706FC30B1DDE90A01024645
:1044400001F10043CDE90A239DED0A7BCDE902A8E5
:10445000DDF834A024F4006304938DED007B334633
:1044600051465846109A00F097F98046B9F1000F6E
:104470004FD014F0200F024600F1010433460CBF68
:10448000652045205146D84709F1FF3087EAE77C8F
:104490000DF1580900224B46DFF8B080ACEBE77C09
:1044A0004FEAD77E01E0202A10D0E246A8FB0C712B
:1044B000C90801EB8107ACEB47073037BAF1090FA8
:1044C0008C4602F1010203F8017BECD8052305902C
:1044D000069300200A230D9FCDE90330CDE9012E7C
:1044E0003346224639465846CDF80090FFF7C6FDC0
:1044F000119B80466BB1109BC41AA54209D9424654
:104500003346394620200134D847A54208F1010836
:10451000F5D840461FB0BDE8F08F9DED087B3346CF
:104520005846109A0D998DED287BCDE92B54CDF886
:10453000A8A01FB0BDE8F04F00F02EB9AFF3008087
:104540000000000000000000FFFFEF7FCDCCCCCCCE
:10455000C7F30A50A0F2FF30FFF708FB8AA3D3E9A4
:104560000023FFF781FA8AA3D3E90023FFF754FA67
:10457000C7F31307CDE90E0147F07F5140460022F3
:104580007B4B41F44011FFF75BFA6BA3D3E90023A7
:10459000FFF76AFA02460B46DDE90E01FFF73CFA27
:1045A000FFF708FB0746FFF7E1FA65A3D3E900230D
:1045B00080468946FFF758FA00226E4BFFF72CFA27
:1045C000FFF7F8FA03464946404612935EA3D3E943
:1045D0000023FFF749FA804612988946FFF7C6FA8A
:1045E0005BA3D3E90023FFF73FFA02460B464046A0
:1045F0004946FFF725FA02460B4680468946FFF7F3
:1046000033FA42464B46CDE90E0140464946FFF794
:1046100003FA0022CDE91401DDE90E01564BFFF744
:1046200049FA0022554BFFF7F7F902460B46DDE940
:104630000E01FFF73FFA0022514BFFF7EDF902465A
:104640000B46DDE90E01FFF735FA42464B46804640
:10465000894600204FF08041FFF7F2F902460B46F1
:1046600040464946FFF7D8F902460B46DDE91401FA
:10467000FFF720FA0022434BFFF7CEF9129B0022EE
:1046800003F2FF3C4FEA0C53FFF7EEF980468946F0
:10469000DDE90A0142464B46CDE90E89FFF7D2FA21
:1046A00068BB4346494607F16302C62A119A8CBF8C
:1046B0004FF005094FF00409002A3FF49FAE0B4369
:1046C0003FF48EAEDDE90A0123A3D3E90023FFF70F
:1046D000E1FA48B1DDE90A0121A3D3E90023FFF79C
:1046E000B1FA00287FF47CAEBAF1000F3FF486AE39
:1046F000139B002B3FF482AE0AF1FF3A7EE60022C4
:104700001E4B40464946FFF7D5F90A460146034687
:10471000CDE90E12013F1146C5E79FED137B174609
:104720004FF004098DED0E7B68E608F100430A970F
:104730000B933CE6AFF3008061436F63A787D23FE2
:1047400071A379094F930A401655B5BBB16B02406E
:10475000EF39FAFE422EE63F2D431CEBE2361A3FBC
:104760000000000080842E410000000000000000D6
:104770000000F83F0000E03F00002C400000244013
:10478000000018400000F03FFB799F501344D33FD6
:10479000B3C8608B288AC63F2DE9F04F97B0DDE99A
:1047A0002089CDE90401DDE9224BCDE9062340460D
:1047B00042464B464946DDF890A0FFF71FFA002815
:1047C00040F0C581404649464FF0FF326FF48013F8
:1047D000FFF738FA002840F01D81404649464FF067
:1047E000FF32C14BFFF76AFA002840F0E380B8A31C
:1047F000D3E9002340464946FFF760FA002840F01D
:10480000CB80B5A3D3E9002340464946FFF71AFA07
:10481000002840F0C1804046494600220023FFF7AF
:1048200011FA002840F0E0801AF480650D9000F045
:10483000E980092C40F296810EAB1A460C93302188
:104840000023A4F109050133202B02F8011BA4EB7E
:10485000030600F03A81AB42F5D19FED9D7B8DEDD3
:10486000087B49464046FFF7A5F90446FFF77EF965
:1048700002460B4640464946FFF7E2F8DDE90823C9
:10488000FFF7F2F802460B46CDE90A23FFF7A4F939
:104890000746FFF77DF902460B46DDE90A01FFF7FF
:1048A000CFF802460B46CDE90A2300228F4BFFF7D3
:1048B00005FA002800F0DB8001373846FFF768F979
:1048C000DDE90823FFF7E6F908B100270134002EDF
:1048D00040F0B1802046FFF749F902460B464046BA
:1048E0004946FFF7ADF80022804B06460F46FFF71A
:1048F000A9F940B93046394600227C4BFFF7DEF972
:10490000002800F015810C9B691E7948194410E0BD
:1049100080FB0462C3EBA20303EB8302A4EB42041B
:1049200004F1300201351C4601F8012F002B00F084
:10493000AB80202D4FEAE473EAD10AF00303012B88
:104940001CD1BBF1000F19D00D9B002B40F0F9805A
:104950001AF00C0F40F0F580AB4540F2D380202DCB
:104960000BD030220C996B1E0B4401355D4503F8CA
:10497000012F00F08D80202DF7D12025DDE90623C1
:10498000DDE904010C9CCDE902BA01950094FFF722
:1049900027FB17B0BDE8F08FCDE92089DDE90623BC
:1049A000DDE90401CDE923BA229417B0BDE8F04F48
:1049B000FFF7C2BC4F4DCDF88CA00AF0040ABAF143
:1049C000000F4D4C18BF2C46DDE90623DDE904013C
:1049D00020940CBF03240424CDF888B0219417B090
:1049E000BDE8F04FFFF7FCBA4B46424600200021DD
:1049F000FFF726F801231AF48065804689460D9357
:104A00007FF417AF9FED367B0EAB06268DED087B4E
:104A10000C9326E70424DDE90623DDE90401374D84
:104A2000CDF88CA0CDF888B02095219417B0BDE8C2
:104A3000F04FFFF7D5BA0C9B681EDFF8C4C01844CE
:104A40000DE0ACFB0721C90801EB8102A7EB420294
:104A50003032092F00F8012F27D90F461D46202D8F
:104A600005F1010306F1FF36EBD120254BE70022CB
:104A7000DDE90A011D4BFFF7E5F800287FF427AFB9
:104A8000002F5AD1013722E70AF00303012B75D01A
:104A9000202D3FF473AF0D9BBBB32D2205F15803BE
:104AA0006B4403F8202C013568E7202BDDD0AEB332
:104AB0000C9A1E441544302201E0B3422ED001333B
:104AC000202B05F8012FF8D1CFE71D46C5E600BF22
:104AD0000000000065CDCD410000000065CDCDC1D6
:104AE0000000000080842E41FFFFEF7F0000E03FC8
:104AF0006766666684C100108CC1001094C1001006
:104B0000CDCCCCCC202D3FF439AF1AF0040F0DD111
:104B10001AF0080F3FF432AF2022BFE72E2103F135
:104B200058026A4402F8201C5D1CECE62B22B5E713
:104B3000E3077FF5E8AE0134E5E6FA077FF5C7AE97
:104B4000A0E70BF1FF3BAB453FF609AFA0E703241D
:104B5000DDE90623DDE904010A4DCDF88CA0CDF88E
:104B600088B061E7084B264603EBC40393ED007B56
:104B70000EAB8DED087B00250C9372E6BBF1000FA8
:104B800086D0E1E690C1001000C400102DE9F04F7E
:104B90009A469BB0249C964D0B94964C0B1E18BFC6
:104BA000834625609AF80000934C0A9308BFA346F9
:104BB0000992002800F0BC824FF000090AE04A4642
:104BC000099B0A9909F10109D8479AF800000028C1
:104BD00000F0CE8025280AF1010AF0D100235246C8
:104BE00012F8010BA0F1200110290AD8DFE801F02A
:104BF0004009093C09090909090909380934090961
:104C00003000A0F13001092940F28C802A2800F000
:104C1000F58000210C912E2800F099800027A0F14A
:104C2000680112292DD8DFE811F057012C0051013D
:104C30002C0045012C002C002C002C002C002C00FA
:104C40002C0027002C002C002C002C002C0027000E
:104C5000924643F00103C2E7924643F00203BEE7E7
:104C6000924643F00403BAE7924643F01003B6E7D6
:104C7000924643F00803B2E79AF8010043F48073C8
:104C800001326728924600F28280242840F2C680D2
:104C9000A0F12502422A00F2C180DFE812F05F0194
:104CA000BF00BF00BF00BF00BF00BF00BF00BF000C
:104CB000BF00BF00BF00BF00BF00BF00BF00BF00FC
:104CC000BF00BF00BF00BF00BF00BF00BF00BF00EC
:104CD000BF00BF00BF00BF00BF00BF00BF00260174
:104CE00045012601BF00BF00BF00BF00BF00BF00DD
:104CF000BF00BF00BF00BF00BF00BF00BF00BF00BC
:104D0000BF00BF00D301BF00BF00BF00BF00BF0096
:104D1000BF00BF00BF00BF00D3016701D301260160
:104D200045012601002100E0013201EB810100EB89
:104D3000410110789246A0F13004092CA1F1300114
:104D4000F2D92E280C9102F101027FF467AF9AF894
:104D500001001146A0F13006092E43F4806340F2B1
:104D600031812A2800F03E8192460027013256E721
:104D70004C46099B994501D303F1FF394A4600206F
:104D8000099B0A99D84720461BB0BDE8F08FA0F1D7
:104D90006902D2B20F2A41D8012649F24101964058
:104DA0000E4040F001810A2A3FD0072A36D10B9CE1
:104DB00054F8042B002A00F0288143F021010DF162
:104DC000480E704603E0202E00F029811A4602F0BA
:104DD0000F052B46092D94BF303337330F2A00F8C7
:104DE000013B06F101064FEA1213ECD817E100BFB0
:104DF0008D4B00100C130020DD3F00100B9C9AF827
:104E0000010054F8045B9246002DBDBF694243F097
:104E100002030C910C950B940132FCE64A46099B67
:104E20000A9909F10109D847CFE60B9951F8048B8B
:104E300098F800201046002F40F0E18072B16FF02A
:104E4000010C0CF1010C4646C44401E0664503D058
:104E500016F8014F002CF9D1A6EB080613F4806C6C
:104E600002D0BE4228BF3E4613F0020400F0878104
:104E7000002A00F02B81BCF1000F00F041810B945F
:104E80000D964A46DDE909540E464F4408E02B468C
:104E90002146D84718F8010F09F1010910B14A4617
:104EA0004F45F4D131460B9C0D9E002C40F00E81F5
:104EB0000B918AE69AF801006C287FF4DFAE9AF82D
:104EC000020043F440730AF10302DAE69AF80100A3
:104ED00043F400730132D4E69AF80100682800F028
:104EE000208143F080030132CBE6672800F0E780A1
:104EF000472800F00081452800F0FF800B9C0493B8
:104F00000C9B0734CDE9027324F007031C46DDE94E
:104F10000931F4E802674A465846CDE900670B9428
:104F2000FFF70AFA814650E646280B9C08BF43F07B
:104F3000200304930C9B0734CDE9027324F007038C
:104F40001C46DDE90931F4E802674A465846CDE9D6
:104F500000670B94FFF720FC814636E64A46252081
:104F6000099B0A9909F10109D8472EE60B9A9C077B
:104F700002F1040709F1010640F1E6801078099B6F
:104F80004A460A99D8470C9B012B40F22C81DDE957
:104F90000954994432462B46214620200136D847F1
:104FA0004E45F7D10B9710E66F2800F08B8040F24A
:104FB0006581782800F008814FF00A0823F010037B
:104FC000C44647E0002707EB870700EB4700A0F146
:104FD000300711F8010FA0F13002092AF3D98A46EF
:104FE0004A1C1CE60B9C9AF8020054F8047B0AF158
:104FF000020A0AF101020B9427EAE7770FE6002A7A
:105000003FF42CAF07F1FF3C1BE723F0100113F432
:10501000806241F021013FF4D2AE0DF1480E082329
:105020001020059300234A46CDE9023006915846E8
:10503000DDE90931CDE900E60497FFF71FF80B948D
:105040008146C2E5582879D0622840F051824FF05D
:105050000208C44613F480606DD123F00C0313F4EE
:10506000007240F0C2800B9904310D9113F48071ED
:1050700040F02E825E060B9A40F1AA801278002A38
:1050800040F0DA8023F01003002800F0D5801146AC
:105090000DF1480E06930C9BCDF80CC0CDE90473BE
:1050A000019100234A4602935846DDE90931CDF8C3
:1050B00000E0FEF7E3FF0D9B81460B9385E543F48B
:1050C00000631BE74FF00808C446C3E70C9B4C463F
:1050D000B3427FF6EDAE0F464B44A3EB0609DDE984
:1050E000096522463346294620200134D8474C45DD
:1050F000F7D13946DCE643F4006343F02003FDE6D4
:105100000F460B94DDE909544A462B462146D84701
:1051100018F8010F09F101090028F5D139460B9C57
:10512000C3E69AF8020043F0C0030AF10302A8E5BF
:10513000044681461DE623F00D0390E74FF010086A
:1051400043F02003C44685E70C9B012B45D9DDE9DC
:1051500009544E4609F1FF38984432462B46214601
:1051600020200136D8474645F7D10C9B324699445A
:105170000B9B1878DDE90931D8470B9725E50C9B87
:10518000B34240F2EE81CDE90D48DDE9095488468D
:105190004B449E1BCDF82CC04A462B46214620206E
:1051A00009F10109D847B145F6D14146DDF838800B
:1051B0000C9BDDF82CC00D9C98F800205E1C10465E
:1051C000002A7FF458AE73E64FF01008C44641E75A
:1051D0001D064CBF1288126851E713464A461878DC
:1051E000DDE90931D847B146DCE60B9C073424F0F1
:1051F00007042246656852F8084B0B9254EA0502F0
:1052000040F02C8123F01003002800F027810026B5
:105210000DF1480E06930C9B4A46CDE9047300231A
:10522000CDE900E6CDF80CC002935846DDE909311E
:10523000FEF724FF8146C8E413F0200F14BF41207D
:1052400061200DF1480E7646A0F10A0803E02029FE
:105250003FF420AF2246B2FBFCF40CFB1425E8B26D
:10526000092D00F130058ABF4044E8B2C0B2624562
:1052700006F8010B01F10101E9D20BE723F010025E
:1052800069280D9240F06F8113F4806204D04FF4CE
:10529000806223F011030D930D9B13F4007640D12F
:1052A0000B9B03F104080D9B13F4807040F0988071
:1052B000590640F1C6800B9B19780C46CB0F00298C
:1052C00000F0B98022460DF1480E74461646DFF80C
:1052D000A0C201E020280FD03546ACFB0621C9084A
:1052E00001EB8102A6EB42023032092D0E4600F19D
:1052F000010004F8012BEDD80D9ACDE901030692C7
:105300000C9ACDE904720A234A4603935846DDE914
:105310000931CDF800E0FEF7B1FECDF82C808146D2
:1053200053E40B9C073424F00704214608466368C5
:1053300050F8081BDC0F0B9051EA030000F0C3800B
:105340000A46191E48DB13460DF1480EF4460026A6
:10535000CDE90E94DFF8188201E0202E2DD05A18E6
:1053600042F10002A8FB025929F0030505EB99055B
:10537000521B1C469B1A61F1000508464FF0CC31C8
:1053800001FB03F108FB0511A3FB08531944052396
:1053900005F00109A9FB03399B180A2C03F130031E
:1053A0004FEA550570F100000CF8013B06F10106CB
:1053B00045EAC1734FEA5101CFD2DDE90E940D9B4E
:1053C0004A4606930C9BCDE90164CDE904730A2398
:1053D000CDF800E0039328E7524261EB4101B2E7C8
:1053E0000B9B1968CB0F002900F0AB8081EAE172BA
:1053F000A2EBE1720DF1480E7046DFF874C101E0D6
:10540000202E10D01546ACFB0241C90801EB8104E7
:10541000A2EB440404F13002092D00F8012B06F13F
:1054200001060A46ECD80D9ACDE9016306920C9A62
:10543000CDE9047267E7002A3FF445AF0DF1480E4D
:105440005AE713F0800F0B9B00F08180B3F9001036
:1054500081EAE174A4EBE174A4B22FE713F0200F0A
:1054600014BF412261220DF1480E0A3ACDE90D9791
:10547000CDF844B000267746F3469146CDE90F3C7F
:1054800003E0202E17D004460D462946424600234D
:10549000204606F0ADFBD2B2092A02F1300388BFE4
:1054A00002EB09034445DBB275F1000507F8013B47
:1054B00006F10106E5D2DE46DDE90D97DDE90F3C98
:1054C000DDF844B0A6E6002A47D1134611463BE773
:1054D0000B990968A1B923F0100388B10DF1480EAA
:1054E00006930C9BCDF80CC0CDE904730192D8E56E
:1054F00013F480627FF4CBAE23F010030D93CBE660
:1055000013F0200F14BF412061200DF1480E7646A4
:10551000A0F10A0802E0202AE2D02146B1FBFCF407
:105520000CFB1415E8B2092D00F130058ABF404488
:10553000E8B2C0B2614506F8010B02F10102EAD2FD
:10554000CEE7002A3FF456AF0DF1480E6BE719681D
:1055500081EAE174A4EBE174B0E600260DF1480E97
:105560002DE701362BE64FF00A081346C44671E5D5
:10557000CDCCCCCC0EB410B585B007AC54F8043B00
:1055800001464FF0FF32009404480394FFF7FEFAFF
:1055900005B0BDE8104003B0704700BFD53F001014
:1055A00084460CB410B584B006AC54F8043B0A46EB
:1055B0000094614604480394FFF7E8FA04B0BDE89C
:1055C000104002B0704700BFD53F001070B5944640
:1055D0001E4605460C4684B04FF0FF32634602A9D2
:1055E00000960348CDE90254FFF7D0FA04B070BD2D
:1055F000294300100FB410B50E4B84B006A91C68E7
:1056000051F8043B03915CB100914FF0FF3202A9C5
:105610000948A047012004B0BDE8104004B070471D
:10562000184600F013FA204604B0BDE8104004B05C
:10563000704700BF0C1300202143001010B5094B28
:1056400084B01C684CB1034600914FF0FF3203A9AF
:105650000548A047012004B010BD00F0F7F920462E
:1056600004B010BD0C1300202143001000BEFDE764
:10567000074A0346106838B1064903448B428CBF81
:105680004FF0FF3013607047034908461160F3E79D
:105690000813002000000820A013002008B5FFF721
:1056A000E5FF00BF9C46144600B50B460246614626
:1056B00083B044B1054D064801940095FFF79AFF69
:1056C0000120FFF7D3FF034D2C46F4E79CC10010E7
:1056D000ACC10010D0BD001038B5064C064DFEF729
:1056E0008FF8AC4204D254F8043B9847AC42FAD34A
:1056F00038BD00BF58BC001060BC001003680846ED
:1057000011461847437D2DE9F04781460F4616465E
:10571000002B43D0002A3BDD037D00204D1E0146B7
:1057200015F8012FDFF884800A2A01F101040ED058
:10573000A6421CD02B782146A3F10D03B3FA83F3C4
:1057400015F8012F5B090A2A01F10104F0D1002BA1
:10575000EED18142A1EB000138441BDC022140461E
:10576000D9F800309847A64208D02046E2E78642A2
:1057700004DD311AD9F8003038449847374417F817
:10578000013CA3F10D03B3FA83F35B0989F81430EC
:10579000BDE8F087D9F800309847DFE73846D9F8F8
:1057A00000301146BDE8F047184700BF50C4001054
:1057B0000B682DE9F041802B0D46064605D05A1C9A
:1057C0002B442A601E71BDE8F0810F4B1C68A4B108
:1057D0000E4F01F1040801E0246974B12368002B25
:1057E000FAD03B680BB1A342F6D1204641462A6865
:1057F000FFF788FF2469002CF0D1002301222B44FD
:105800002A601E71BDE8F081F4120020FC12002015
:105810002DE9F04782B00D46924699460746FDF7BE
:10582000D9FD4FF0FF366FF000442F4A821841F146
:105830000003964274EB03013CBF324623462B48DB
:1058400006F0DEF96B1C804603D1384601F0F0FC0F
:105850000546274B274E1C68274BB9F1000F18BF90
:105860001E46B4B1BAF1000F1AD1DFF8909001E0F2
:10587000246974B12368002BFAD0D9F800300BB139
:105880009C42F5D120462A463946B0472469002C6F
:10589000F0D1B8F1000F1FD1284602B0BDE8F08763
:1058A0004FF00A0ADFF8549002E02469002CF0D08F
:1058B0002368002BF9D0D9F800300BB1A342F4D102
:1058C0002A4639462046B047012220460DF10701FD
:1058D0008DF807A0B047E8E7044806F08DF92846A0
:1058E00002B0BDE8F08700BF40420F00BC0D0020B1
:1058F000F4120020FD56001005570010FC12002085
:105900000A4A13684BB1834202D109E0984207D09A
:1059100003F110021B69002BF8D101B11060704730
:105920000029FCD10369136001617047F412002063
:1059300008B500F0EBF9012008BD00BF2DE9F041EA
:1059400082B00646FDF746FD4FF0FF326FF0004390
:10595000361841F10007B24273EB07013CBF16460F
:105960001F46DFF86080154DD8F8004014B912E0EA
:10597000246984B12B680BB19C42F9D1A368002B38
:10598000F6D0012101A898470028F1DD9DF8040018
:1059900002B0BDE8F0810A4B5A6A974209D89B6A67
:1059A000B34204D36FF0010002B0BDE8F08197422A
:1059B000F8D101200021FDF717FDD5E7FC120020EA
:1059C00000000B40F4120020F0B583B006468DF8BD
:1059D0000700FDF7FFFC4FF0FF356FF00044174A5A
:1059E000821841F10003954274EB03013CBF23464A
:1059F0002A46134806F004F9124B07461C689CB16E
:105A0000114D01E024697CB12368002BFAD02B688A
:105A10000BB19C42F6D1204601220DF10701FFF7A0
:105A200071FE2469002CEFD117B9304603B0F0BDE8
:105A3000034806F0E1F8304603B0F0BD40420F00E5
:105A4000BC0D0020F4120020FC12002038B50446E2
:105A500001F0EEFB012305461A4620462946FFF7D2
:105A6000D7FE084B1C682CB163682BB1984724699A
:105A7000002CF9D1284638BD2469002CF4D12846E1
:105A800038BD00BFF41200202DE9F041A2B0044659
:105A90000D46FDF79FFC4FF0FF376FF00046274A99
:105AA000821841F10003974276EB03013CBF3A466E
:105AB0003346234806F0A4F800262B460746224624
:105AC000204801A90196FFF781FD019B06467BB99D
:105AD0001D4B1C682CB1636843B198472469002CA6
