:020000041000EA
:1000000000B5324B212058609868022188439860DF
:10001000D860186158612E4B002199600221596106
:100020000121F02299502B49196001219960352056
:1000300000F044F80222904214D00621196600F024
:1000400034F8196E01211966002018661A6600F04E
:100050002CF8196E196E196E052000F02FF8012189
:100060000842F9D1002199601B49196000215960AB
:100070001A491B48016001219960EB211966A021F2
:10008000196600F012F800219960164914480160C1
:100090000121996001BC002800D000471248134993
:1000A000086003C880F30888084703B5996A0420EC
:1000B0000142FBD001200142F8D103BD02B5186610
:1000C0001866FFF7F2FF186E186E02BD00000240BE
:1000D000000000180000070000035F00212200005C
:1000E000F4000018222000A00001001008ED00E03C
:1000F00000000000000000000000000074B24E7A12
:1001000000200420F7010010C3010010C5010010F9
:10011000C1010010C1010010C1010010C101001097
:10012000C1010010C1010010C1010010C701001081
:10013000C1010010C1010010C9010010CB01001065
:10014000CD010010CD010010CD010010CD01001037
:10015000CD010010CD010010CD010010CD01001027
:10016000CD010010CD010010CD010010CD01001017
:10017000CD010010CD010010CD010010CD01001007
:10018000CD010010CD010010CD010010CD010010F7
:10019000CD010010CD010010CD010010CD010010E7
:1001A000CD010010CD010010CD010010CD010010D7
:1001B000CD010010CD010010CD010010CD010010C7
:1001C00000BE00BE00BE00BE00BE00BEEFF3058054
:1001D000103800BEF2EB88711C4F01104C4F01101B
:1001E0003802001090A31AE71E481F49086006C88D
:1001F00081F3088810471D480068002801D019487D
:10020000F3E70DA40ECC002902D000F012F8F9E7B4
:100210001749184A002000E001C19142FCD116495B
:100220008847164988471649884700BEFDE701C937
:1002300001C29A42FBD370474C4F0110C00000200E
:10024000180B0020A4590110000004200000042015
:10025000A459011000100420001004200000000028
:10026000704700000000000008ED00E0000000D032
:10027000180B0020C8130020516300101103001058
:1002800011630010F8B5C04606480749091A8B10DB
:10029000C90FC91810B5491003D0044B002B00D06A
:1002A000984710BD180B0020180B0020000000001C
:1002B000054B10B5002B03D00449054800E000BFF2
:1002C000FFF7E2FF10BDC04600000000441300200D
:1002D000D4D2001010B50C490C4806F0B9FC03212B
:1002E000042002F07FF90321052002F07BF90022AF
:1002F0000121042002F090F905200022012102F0E2
:100300008BF9002010BDC046A086010038040020F3
:10031000F0B5DE4657464E464546E0B5D94C50222C
:10032000A544FFAB4C3300211800339304F0AAFB23
:10033000002319203C9302F083F9D02380221B066E
:1003400092045A62FFF7C6FF002801D000F021FC9A
:1003500002F0CCF8652402F0ADF806F06DF905E086
:10036000013C002C07D0642002F036FF002006F08C
:1003700069FD0028F4D0C44806F0FCF902F0E4FF5F
:100380003C220A900B9140A8002104F07BFB02F074
:10039000DBFF3C22069007914FA8002104F072FB7E
:1003A00002F0D2FF3C221C901D915EA8002104F0B7
:1003B00069FB02F0C9FF3C220C900D916DA8002151
:1003C00004F060FB02F0C0FF3C221A901B917CA855
:1003D00000218BAD04F056FB02F0B6FF3C22002159
:1003E000280004F04FFB02F0AFFF3C220E900F916B
:1003F0009AA8002104F046FB02F0A6FF3C221090D0
:100400001191A9A8002104F03DFB02F09DFF3C22C0
:1004100012901391B8A8002104F034FB02F094FF6D
:100420003C2214901591C7A8002104F02BFB02F088
:100430008BFF3C2216901791D6A8002104F022FBD6
:1004400002F082FF3C2220902191E5A8002104F0D7
:1004500019FB02F079FF3C2218901991F4A80021B1
:1004600004F010FB02F070FF0890FFA809913C22F5
:100470000021103004F006FB00232393834B844FAC
:100480003593844B3693844B0493844B1E93FFAB7C
:100490009C339A46824B0593824B3B93824B9B46FF
:1004A000824B1F93824B2E93824B2593824B229338
:1004B000824B3293824B2793824B3993824B2A9300
:1004C000824B2B93824B2C93824B2D93824B2F93F9
:1004D000824B3093824B3193824B2693824B2493F1
:1004E000824B2893824B3A93824B3893824B2993C9
:1004F000824B379302F028FF0A9B0B9CC01AA14144
:10050000002900DDCAE100D1C4E102F01DFF069B15
:10051000079CC01AA141002900DDB1E100D1ABE187
:1005200002F012FF1C9B1D9CC01AA141002900DD96
:10053000CAE100D1C4E102F007FF0C9B0D9CC01A78
:10054000A141002900DD61E100D15BE12B00259A8A
:1005500003CA03C312881A80239B002B00D047E2F2
:1005600002F0F2FE1A9B1B9CC01AA141002900DD7B
:10057000D2E200D1CCE202F0E7FE0E9B0F9CC01A43
:10058000A141002900DD2FE100D129E102F0DCFECC
:10059000109B119CC01AA141002900DD0CE100D183
:1005A00006E102F0D1FE129B139CC01AA141002962
:1005B00000DDEAE000D1E4E002F0C6FE149B159CE9
:1005C000C01AA141002900DDB7E000D1B1E002F07E
:1005D000BBFE169B179CC01AA141002900DD95E0C7
:1005E00000D18FE002F0B0FE209B219CC01AA141F7
:1005F000002900DDB8E000D1B2E002F0A5FE189BB2
:10060000199CC01AA14100292DDC29D002F09CFEC2
:10061000089B099CC01AA141002905DC00D069E7AC
:10062000374B984200D865E702F08EFE0890002014
:10063000099106F007F8269B1B68002B00DC3BE1C4
:10064000821C00D17AE226995A1C0A60249AD0545E
:10065000FFA8289B249A2999103005F0A9FD49E7A5
:10066000274B9842D2D902F06FFE1991BD21319AE1
:10067000189013688900F493137938AA52181370EC
:10068000C4E7C04664FAFFFFE4D2001000D30010B4
:1006900068D3001010D3001044D30010E0D2001033
:1006A00038040020DCD20010D8D20010A8D30010EB
:1006B0004CD3001058D3001064D300106CD300103A
:1006C00078D300108CD30010A4D30010ACD300104A
:1006D000B4D30010BCD30010C4D30010CCD300108E
:1006E000DCD300105C130020C41200207013002023
:1006F000ECD3001008D400101CD400108803002094
:100700003F420F00B24B984200D86BE702F01CFE4C
:1007100016909F202F9A1791136838A9D693938823
:10072000800009180B80AB49937938AA52181370CE
:1007300058E7A74B984200D849E702F005FE14900D
:1007400090202D9A1591136838A9C793938880003B
:1007500009180B80A049937938AA5218137036E70C
:100760009B4B984200D848E7D02340221B069A6151
:10077000309AE5AB13CA13C31188198092789A7026
:100780003BE7934B984200D816E702F0DDFD12904C
:1007900081202C9A1391136838A9B893938880000C
:1007A00009180B808D49937938AA5218137003E702
:1007B000874B984200D8F4E602F0C6FD1090E42082
:1007C0002B9A1191136838A9A993938840000918AE
:1007D0000B80E5219379490038AA52181370E0E69E
:1007E0007B4B984200D8D1E602F0AEFD0F91C621B6
:1007F0002A9A0E90136849009A93938838AA52183F
:100800001380C3E6724B984200D89FE602F09CFD2D
:100810002E9A0D910C906DAB03CA03C31278E5A814
:100820001A7006F02FF8FFA8103006F02BF86DA80C
:1008300006F028F85EA806F025F84FA806F022F882
:1008400040A806F01FF8B8A806F01CF8C7A806F0E4
:1008500019F8D6A806F016F8280006F013F87CA8B8
:1008600006F010F89AA806F00DF8A9A806F00AF804
:10087000F4A806F007F869E6594B984200D84FE60D
:1008800002F062FDD02380221B069204069007919D
:100890009A6145E6534B984200D836E602F054FD83
:1008A000D02380221B0692040A900B915A6102F019
:1008B0004BFD0690079128E6821C00D0C3E6C7E6F0
:1008C000434B984200D836E602F03EFD1C90359826
:1008D0001D9105F04FFF369805F04CFF002104985C
:1008E00005F0D0FF2E2005F0F9FE1E9805F0CAFF96
:1008F00001239846773399461F9B34970126474634
:10090000012498462BE0782B2ED002F01DFD002309
:10091000354A12184B41802109068B4202D301222D
:10092000324B52420292039300235246009331000D
:100930000598013306F0B4F9002815DB3B9805F063
:10094000A1FF0F2F15D14046013405F09BFF802CED
:1009500015D00F231F00E6B22740234211D04B468B
:100960004A4633403242CED1584605F08BFF0F2F16
:10097000E9D01E98013405F085FF802CE9D1349F21
:10098000D9E52100049805F07DFF02F0DDFC00238D
:10099000154A8018594180231B06994202D3012031
:1009A00012494042002302900391009352463100C5
:1009B0000598013306F074F9002804DB402005F0A7
:1009C0008DFE1E98D6E72E2005F088FE1E98D1E7F2
:1009D0003F420F007E0200004202000006020000BB
:1009E0001FA10700BFCF6A0010270000FFFFFF7F95
:1009F00001F044FD00239846339BFFAE99469C3698
:100A000001F020FA00282CD0504601F05DFB53463F
:100A1000424622991A5450463CAA07F0CFF84A465B
:100A200049463C9BB2469B00D2580132CA50FFABAC
:100A30004C3399461C00390004CC3DA805F0B8FBA6
:100A4000280007F0BBF93DA9281807F021F9A642B4
:100A5000F1D102221F9904F01BF801F0F3F90028EC
:100A6000D2D14B46339302F06FFC1A9B1B9CC01AE9
:100A7000A141002900DC90E002F066FC329A1A9055
:100A80001B917CAB03CA03C312881A801426B94693
:100A9000229F70B200F00EFA320039007CA805F0F7
:100AA00087FB7CA807F08AF9C1B27CA801F0D0F9D5
:100AB000032000F081F801F0C5FC052002F08CFB5A
:100AC0000B2402E0642002F087FB01F0B5F9002856
:100AD00002D0013C002CF5D101F0AEF9002813D171
:100AE000013E002ED5D1052000F066F801F0C6FCCD
:100AF000399A7CAB13CA13C303CA03C311884F4688
:100B0000198092789A7036E5279805F033FEE7E76A
:100B1000264B984200D82EE502F016FC329A1A9025
:100B20001B917CAB03CA03C312881A80379800F06C
:100B3000C5FA2390002800D11DE5A7E700222499DB
:100B4000CA54269B1A601A4B0A689A420CD03899EC
:100B5000249807F0EFF8002800D079E55022002112
:100B6000339803F08FFF73E5124B4A689A42EED137
:100B7000289B3A9A13CA13C313CA13C312781A7064
:100B8000D02340221B065A6102F0DEFB2090219107
:100B9000DDE702F09BFEFFF7DBFB002900D0EAE473
:100BA000024B984200D967E7E5E4C0463F420F0098
:100BB0004255524E5F4F4E00F0B5C64600B582B06A
:100BC0006B46D0259C1D802600232D06B601237080
:100BD00080460021052002F0C1FB05200021AE6106
:100BE00002F0BCFB6A460123D3716B461F4FD91D2F
:100BF000012238680CF03CFB2200012300213868F8
:100C00000CF016FB0520002102F0A8FB05200021B6
:100C10006E6102F0A3FB072320780021984343462E
:100C200018432070052002F099FB05200021AE61D9
:100C300002F094FB6A468123D3716B460122D91DD1
:100C400038680CF015FB0122210038680CF010FB0D
:100C50000520002102F082FB052000216E6102F0D8
:100C60007DFB02B080BCB846F0BDC04694030020B6
:100C7000F0B5CE46474680B5050000248749884A2E
:100C800083B006E00134E4B2A3009958002900D1F2
:100C9000B4E08D42F6D8834805F0F4FD2301984670
:100CA0006B469E1D002305200021337002F056FB89
:100CB000D024802324069B0105200021A3619946AE
:100CC00002F04CFB1D236A46D3716B46764FD91D4B
:100CD000012238680CF0CCFA320001230021386878
:100CE0000CF0A6FA0520002102F038FB4B46052047
:100CF0000021636102F032FBF02233780520934338
:100D0000424613430021337002F028FB4B46052076
:100D10000021A36102F022FB9D236A46D3716B463A
:100D20000122D91D38680CF0A3FA0122310038687D
:100D30000CF09EFA0520002102F010FB4B46052026
:100D40006361002102F00AFB584B9D4259D8534B76
:100D50009D4200D1A0E0564B9D4200D89AE040232E
:100D600005200021337002F0F9FA4B460520A361FB
:100D7000002102F0F3FAAF236A46D3716B460122D9
:100D8000D91D38680CF074FA0122310038680CF073
:100D90006FFA0520002102F0E1FA4B46052063615D
:100DA000002102F0DBFAD0240023802533700520D7
:100DB00000212406AD0102F0D1FA05200021A56131
:100DC00002F0CCFAB0236A46D3716B460122D91DDA
:100DD00038680CF04DFA0122310038680CF048FAFE
:100DE0000520002102F0BAFA05200021656102F019
:100DF000B5FA03B0C0BCB946B046F0BD90239846E2
:100E00004EE7022305203370002102F0A7FA4B467B
:100E10000520A361002102F0A1FA6A46B623D3712E
:100E20006B460122D91D38680CF022FA01223100EC
:100E300038680CF01DFA0520002102F08FFA4B46AD
:100E400005206361002102F089FA642305203370D4
:100E5000002102F083FA4B460520A361002102F035
:100E60007DFA6A46BA23D3716B460122D91D3868D0
:100E70000CF0FEF90122310038680CF0F9F9052078
:100E8000002102F06BFA4B4605200021636102F05D
:100E900065FAAEE7442363E7482361E7781E000064
:100EA00084D9001084D40010940300201FA10700EF
:100EB00023F40000F0B5DE464E4657464546E0B501
:100EC00085B002AB9C1D00230021019023700520FA
:100ED0009A46D02702F042FA80233F069B01052064
:100EE0000021BB61984602F039FA02ABDE1D0923EE
:100EF000714D012231003370286899460CF0B8F921
:100F000022000123002128680CF092F9052000211D
:100F100002F024FA4346052000217B6102F01EFA0C
:100F2000802322785B42134305200021237002F0C6
:100F300015FA434605200021BB6102F00FFA892310
:100F400001223370310028689B460CF091F9012290
:100F5000210028680CF08CF90520002102F0FEF930
:100F60004346052000217B6102F0F8F95346052035
:100F70000021237002F0F2F9434605200021BB61F5
:100F800002F0ECF94B4601223100337028680CF076
:100F90006FF922000123002128680CF049F905208F
:100FA000002102F0DBF94346052000217B6102F0BD
:100FB000D5F9702223780520934313430021237031
:100FC00002F0CCF9434605200021BB6102F0C6F9CE
:100FD0005B4601223370310028680CF049F9012288
:100FE000210028680CF044F90520002102F0B6F930
:100FF0004346052000217B6102F0B0F953460520ED
:101000000021237002F0AAF9434605200021BB61AC
:1010100002F0A4F94B4601223100337028680CF02D
:1010200027F922000123002128680CF001F905208E
:10103000002102F093F9434600217B61052002F074
:101040008DF9019922780B1C002933DB49B20E2956
:1010500000DD0E230F2101338A4313432370052043
:10106000002102F07BF9D02780233F069B01BB6162
:1010700005200021984602F071F989233100337070
:10108000012228680CF0F4F80122210028680CF0F5
:10109000EFF80520002102F061F943460520002108
:1010A0007B6102F05BF905B0F0BCBB46B246A946D5
:1010B000A046F0BDFF23CDE794030020F0B5DE4647
:1010C00057464E464546E0B5060083B0152001F070
:1010D000B7FAD0248023802580279B0324066362EF
:1010E0002D0163610B2001F0ABFA002200210B20DF
:1010F000A56201F091FABF010D20656101F0A0FA2F
:10110000002200210D20676201F086FA01210E20E5
:10111000676101F067FA01210F2001F063FA0121F4
:101120000C2001F05FFA002165626420A56102F0E5
:101130003FF80520A56202F04FF80A2002F042F9BC
:10114000FD4DFE492868B06005F0CEFD02222868FA
:10115000FB49436841180A60016813400532514059
:10116000C8320A408021490141180A60F54A8218B4
:1011700013606A4600235371C223D61D33700122C7
:101180003100A7610CF074F86A4601230021286839
:1011900005320CF04DF86761012801D100F036FEF0
:1011A000E94805F06FFB6B465979112901D100F030
:1011B0002AFEE64805F066FB142001F041FAD0272C
:1011C00080233F065B03012200211420BB6201F053
:1011D00023FA6B469C1D00230520002123709946AD
:1011E00002F0BCF880239B0105200021BB619846DA
:1011F00002F0B4F8C02301223370310028680CF0EB
:1012000037F80122210028680CF032F8052000216F
:1012100002F0A4F8434600217B61052002F09EF80D
:101220000120FFF7C9FC0A2001F0D6FF4B4605203C
:101230000021237002F092F8434605200021BB6193
:1012400002F08CF8242301223100337028680CF05E
:101250000FF822000123002128680BF0E9FF052088
:10126000002102F07BF84346052000217B6102F05B
:1012700075F808222378052013430021237002F01B
:101280006DF8434605200021BB6102F067F8A423F6
:1012900001223370310028689B460BF0E9FF0122E0
:1012A000210028680BF0E4FF0520002102F056F829
:1012B000434600217B61052002F050F8FA208000AF
:1012C00001F08AFF0020FFF777FC0A2001F084FF7D
:1012D0004B4605200021237002F040F843460520CC
:1012E0000021BB6102F03AF8012301223100337082
:1012F00028680BF0BDFF22000123002128680BF0B5
:1013000097FF0520002102F029F84346052000211F
:101310007B6102F023F8802322785B42134305208F
:101320000021237002F01AF8434605200021BB611A
:1013300002F014F8812301223370310028680BF089
:1013400097FF0122210028680BF092FF0520002161
:1013500002F004F84346052000217B6101F0FEFF06
:101360004B4605200021237001F0F8FF434605207D
:101370000021BB6101F0F2FF8E23012233703100A6
:1013800028680BF075FF0122210028680BF070FF20
:101390000520002101F0E2FF4346052000217B618A
:1013A00001F0DCFF4B4605200021237001F0D6FF41
:1013B000434605200021BB6101F0D0FF8F230122AD
:1013C0003370310028689A460BF052FF0122210049
:1013D00028680BF04DFF0520002101F0BFFF4346B8
:1013E000052000217B6101F0B9FF4B46052000215B
:1013F000237001F0B3FF434605200021BB6101F0DB
:10140000ADFF5B4601223370310028680BF030FFDE
:101410000122210028680BF02BFF0520002101F09C
:101420009DFF4346052000217B6101F097FF6D235E
:1014300005200021237001F091FF43460520002183
:10144000BB6101F08BFF86230122337031002868D5
:101450000BF00EFF0122210028680BF009FF052088
:10146000002101F07BFF4346052000217B6101F054
:1014700075FF962305200021237001F06FFF43467E
:1014800005200021BB6101F069FF87230122337031
:10149000310028680BF0ECFE0122210028680BF0D7
:1014A000E7FE0520002101F059FF434605200021F9
:1014B0007B6101F053FF534605200021237001F0AA
:1014C0004DFF434605200021BB6101F047FF882303
:1014D00001223370310028680BF0CAFE012221007E
:1014E00028680BF0C5FE0520002101F037FF4346B8
:1014F00005207B61002101F031FF1549154805F0F9
:10150000C1F94B4605200021237001F027FF434617
:1015100005200021BB6101F021FFA02301223370CF
:10152000310028680BF0A4FE0122210028680BF08E
:101530009FFE052000210FE09403002040420F0091
:101540000430000004200000C4D40010E0D40010D7
:1015500020E01C1A44D4001001F000FF434605208F
:1015600000217B6101F0FAFE082305200021237091
:1015700001F0F4FE434605200021BB6101F0EEFEC0
:10158000A12301223370310028680BF071FE012283
:10159000210028680BF06CFE0520002101F0DEFE22
:1015A0004346052000217B6101F0D8FE4B46052013
:1015B0000021237001F0D2FE434605200021BB61CB
:1015C00001F0CCFE202301223100337028680BF09B
:1015D0004FFE22000123002128680BF029FE052080
:1015E000002101F0BBFE4346052000217B6101F094
:1015F000B5FE237805209A464B460021237001F062
:10160000ADFE434605200021BB6101F0A7FE21236A
:1016100001223100337028680BF02AFE22000123DA
:10162000002128680BF004FE0520002101F096FE41
:10163000434605207B61002101F090FE534622784D
:101640001B021343082B02D0D44805F01BF9D44BDE
:10165000D02718009946FFF70BFB00230520002137
:10166000237001F07BFE80233F069B0105200021B3
:10167000BB61984601F072FE1D23012231003370D8
:1016800028680BF0F5FD22000123002128680BF0EB
:10169000CFFD0520002101F061FE434605207B615E
:1016A000002101F05BFE23781A098F2B00D9A6E3F5
:1016B000BC4B9200D3584B4500D0A0E30521BA485B
:1016C00005F0E0F800230520002123709B46D02779
:1016D00001F044FE80233F069B0105200021BB61F1
:1016E000984601F03BFE1D2301223100337028682B
:1016F0009A460BF0BDFD22000123002128680BF063
:1017000097FD0520002101F029FE43460520002118
:101710007B6101F023FE0E222378914693430C3A1D
:10172000134305200021237001F018FE43460520D5
:101730000021BB6101F012FE9D23012233703100B4
:1017400028680BF095FD0122210028680BF090FD20
:101750000520002101F002FE4346052000217B61A7
:1017600001F0FCFD5B4605200021237001F0F6FD31
:10177000434605200021BB6101F0F0FD53460122E4
:101780003100337028680BF073FD22000123002123
:1017900028680BF04DFD0520002101F0DFFD4346D8
:1017A00005207B61002101F0D9FD4A4623781340D2
:1017B000022B02D07D4805F065F8002305200021AA
:1017C00023709A46D02701F0C9FD80233F069B0174
:1017D00005200021BB61984601F0C0FD1E230122B7
:1017E00031003370286899460BF042FD2200012336
:1017F000002128680BF01CFD0520002101F0AEFD42
:101800004346052000217B6101F0A8FDF0222378EA
:1018100005209343803A13430021237001F09EFD7D
:10182000434605200021BB6101F098FD9E23012263
:101830003370310028680BF01BFD0122210028685D
:101840000BF016FD0520002101F088FD4346052020
:1018500000217B6101F082FD5346052000212370A9
:1018600001F07CFD434605200021BB6101F076FDBF
:101870004B4601223100337028680BF0F9FC01233C
:101880002200002128680BF0D3FC0520002101F084
:1018900065FD434605207B61002101F05FFD237853
:1018A0001B09072B02D0424804F0ECFF002305205F
:1018B000002123709A46D02701F050FD80233F0677
:1018C0009B0105200021BB61984601F047FD1E23C6
:1018D000012231003370286899460BF0C9FC2200C0
:1018E0000123002128680BF0A3FC0520002101F052
:1018F00035FD4346052000217B6101F02FFD0422C8
:101900002378052013430021237001F027FD43466F
:1019100005200021BB6101F021FD9E2301223370CF
:10192000310028680BF0A4FC0122210028680BF08C
:101930009FFC0520002101F011FD434605200021F8
:101940007B6101F00BFD534605200021237001F05F
:1019500005FD434605200021BB6101F0FFFC4B461D
:1019600001223100337028680BF082FC0123220031
:10197000002128680BF05CFC0520002101F0EEFC42
:10198000434605207B61002101F0E8FC23785B07DA
:1019900012D4084804F076FF0EE0C04630D500109F
:1019A00048E8010084D9001064D40010A0D50010CC
:1019B000D0D5001004D6001000230520002123708C
:1019C0009946D02701F0CAFC80233F069B010520E1
:1019D0000021BB61984601F0C1FCA62301223370AF
:1019E000310028680BF044FC0122210028680BF02C
:1019F0003FFC0520002101F0B1FC434605200021F9
:101A00007B6101F0ABFC4B4605200021237001F007
:101A1000A5FC434605200021BB6101F09FFC092382
:101A200001223100337028689B460BF021FC220014
:101A30000123002128680BF0FBFB0520002101F0A9
:101A40008DFC4346052000217B6101F087FC80234B
:101A500022785B42134305200021237001F07EFCB5
:101A6000434605200021BB6101F078FC8923012257
:101A70003370310028680BF0FBFB0122210028683D
:101A80000BF0F6FB0520002101F068FC4246052022
:101A900000217A6101F062FC4A4605200021227093
:101AA00001F05CFC424605200021BA6101F056FCC1
:101AB0005A46310032702868083A0BF0D9FB0123EE
:101AC0002200002128680BF0B3FB0520002101F063
:101AD00045FC4246052000217A6101F03FFC70225E
:101AE00023780520934313432370002101F036FC33
:101AF000424605200021BA6101F030FC8923012211
:101B00003370310028680BF0B3FB012221002868F4
:101B10000BF0AEFB0520002101F020FC4246052021
:101B200000217A6101F01AFC4A460520002122704A
:101B300001F014FC424605200021BA6101F00EFCC0
:101B40005A46310032702868083A0BF091FB0123A5
:101B50002200002128680BF06BFB0520002101F01A
:101B6000FDFB4246052000217A6101F0F7FB0F22C0
:101B7000237805209343134323700021924601F0FC
:101B8000EDFB424605200021BA6101F0E7FB892305
:101B900001223370310028680BF06AFB012221001A
:101BA00028680BF065FB0520002101F0D7FB4346B8
:101BB000052000217B6101F0D1FB4B46052000216F
:101BC000237001F0CBFB434605200021BB6101F0EF
:101BD000C5FB5B4601223100337028680BF048FBDF
:101BE00022000123002128680BF022FB05200021A0
:101BF00001F0B4FB434600217B61052001F0AEFB00
:101C0000864804F03FFE4B4605200021237001F07A
:101C1000A5FB434605200021BB6101F09FFB0A2381
:101C200001223100337028689B460BF021FB220013
:101C30000123002128680BF0FBFA0520002101F0A8
:101C40008DFB4346052000217B6101F087FB524656
:101C50002378052093430021237001F07FFB434646
:101C600005200021BB6101F079FB8A23012233703A
:101C7000310028680BF0FCFA0122210028680BF0E3
:101C8000F7FA0520002101F069FB434605200021F9
:101C90007B6101F063FB4B4605200021237001F0BE
:101CA0005DFB434605200021BB6101F057FB5B460D
:101CB00001223100337028680BF0DAFA2200012388
:101CC000002128680BF0B4FA0520002101F046FB42
:101CD000434605207B61002101F040FB52462378FA
:101CE0001A4200D095E000230520002123709B4676
:101CF000D02701F033FB80233F069B010520002104
:101D0000BB61984601F02AFB0C230122310033709D
:101D100028689A460BF0ACFA2200012300212868BB
:101D20000BF086FA0520002101F018FB4346052040
:101D300000217B6101F012FB0322237805209343ED
:101D4000134300212370914601F008FB4346052010
:101D50000021BB6101F002FB8C23012233703100B2
:101D600028680BF085FA0122210028680BF080FA20
:101D70000520002101F0F2FA4346052000217B6195
:101D800001F0ECFA5B4605200021237001F0E6FA31
:101D9000434605200021BB6101F0E0FA53460122D1
:101DA0003100337028680BF063FA22000123002110
:101DB00028680BF03DFA0520002101F0CFFA4346D8
:101DC00005207B61002101F0C9FA4A4623781340BF
:101DD000032B02D0124804F055FD0520FEF7ECFE5F
:101DE000104804F0C7FC6B4658791138431E9841DF
:101DF00003B0F0BCBB46B246A946A046F0BD0A48B7
:101E000004F040FD5AE40948FFF7D4F90848FFF709
:101E1000C8F9084804F036FD65E7C04634D600101E
:101E200090D60010C0D6001064D5001000D5001068
:101E3000A8D4001064D60010D0231B065868C00236
:101E4000C00F7047D0231B065868C002C00F7047F0
:101E5000F0B5DE4657464E464546E0B587B004AB82
:101E60009C1DD025002380262D06B60123700390EB
:101E70000191052000219A4601F070FA0520002109
:101E8000AE6101F06BFA04ABDF1D012399463B7094
:101E90008C4B39009846012218680BF0E9F943464B
:101EA00022000021186801230BF0C2F9052000214F
:101EB00001F054FA052000216E6101F04FFA5246FC
:101EC0002378052022700021029301F047FA0520B3
:101ED0000021AE6101F042FA4A463A7042463900AA
:101EE000106801220BF0C4F942460123002110685A
:101EF00022000BF09DF90520002101F02FFA0520AA
:101F000000216E6101F02AFA072223789346934359
:101F10004A46134323700520002101F01FFA0520D3
:101F20000021AE6101F01AFA8122404639003A7070
:101F30000068803A0BF09CF94046012221000068BD
:101F40000BF096F90520002101F008FA0520002188
:101F50006E6101F003FA504600212070052001F067
:101F6000FDF905200021AE6101F0F8F98D2340460E
:101F70003B703900012200680BF07AF940460122DB
:101F8000210000680BF074F90520002101F0E6F94A
:101F9000052000216E6101F0E1F90520002101F02A
:101FA000DDF905200021AE6101F0D8F9802340461B
:101FB0003B703900012200680BF05AF94046019A43
:101FC000039900680BF054F90520002101F0C6F9CF
:101FD000052000216E6101F0C1F9019905202170F1
:101FE000002101F0BBF905200021AE6101F0B6F936
:101FF000A22341463B700122086839000BF038F9F2
:1020000041460122086821000BF032F90520002129
:1020100001F0A4F9052000216E6101F09FF95146FD
:1020200005202170002101F099F905200021AE6101
:1020300001F094F949463970414601220868390097
:102040000BF016F9414622000123086800210BF02D
:10205000EFF80520002101F081F9052000216E61D3
:1020600001F07CF959462278029B8A430B401343C6
:1020700023700520002101F071F905200021AE61D7
:1020800001F06CF94346812239003A701868803AB1
:102090000BF0EEF843460122186821000BF0E8F837
:1020A0000520002101F05AF9052000216E6101F0A0
:1020B00055F9002007B0F0BCBB46B246A946A04681
:1020C000F0BDC04694030020F0B5DE464E465746AC
:1020D0004546E0B585B002AB9C1D00230021019070
:1020E000237005209A46D02701F038F980233F0657
:1020F0009B0105200021BB61984601F02FF902AB3E
:10210000DE1D0123CE4D012231003370286899462F
:102110000BF0AEF822000123002128680BF088F8AC
:102120000520002101F01AF94346052000217B61BA
:1021300001F014F90722237893461A4053460520EC
:1021400000212370009201F009F943460520002187
:10215000BB6101F003F94B4601223100337028685E
:102160000BF086F822000123002128680BF060F8AC
:102170000520002101F0F2F84346052000217B6193
:1021800001F0ECF85A462378052093434A4613435E
:102190000021237001F0E2F8434605200021BB61D5
:1021A00001F0DCF8812301223370310028680BF044
:1021B0005FF80122210028680BF05AF80520002161
:1021C00001F0CCF84346052000217B6101F0C6F800
:1021D000534605200021237001F0C0F84346052036
:1021E0000021BB6101F0BAF81E23012231003370D7
:1021F00028680BF03DF801232200002128680BF02D
:1022000017F80520002101F0A9F8434605207B615D
:10221000002101F0A3F823785B0700D47EE0534649
:1022200005200021237001F099F843460520002184
:10223000BB6101F093F8122301223100337028684A
:102240000BF016F822000123002128680AF0F0FFA5
:102250000520002101F082F8434605207B61002122
:1022600001F07CF8002292464A4623785B111A421C
:1022700054D0002305202370002101F06FF8D027EF
:1022800080233F069B01BB6105200021984601F099
:1022900065F8012331003370012228680AF0E8FF55
:1022A00022000123002128680AF0C2FF0520002136
:1022B00001F054F8434605207B61002101F04EF8FF
:1022C0000722237805209343009A002113432370AB
:1022D00001F044F843460520BB61002101F03EF8BF
:1022E000812331003370012228680AF0C1FF0122E6
:1022F000210028680AF0BCFF0520002101F02EF81B
:102300004346052000217B6101F028F8504605B0C6
:10231000F0BCBB46B246A946A046F0BD002305204E
:10232000002123709946D02701F018F880233F063A
:102330009B0105200021BB61984601F00FF8132393
:1023400001223100337028680AF092FF0123220035
:10235000002128680AF06CFF0520002100F0FEFF34
:10236000434605207B61002100F0F8FF23789A4660
:10237000002B00D17DE74B4605202370002100F0A3
:10238000EDFF43460520BB61002100F0E7FF10236D
:1023900031003370012228680AF06AFF220001230D
:1023A000002128680AF044FF0520002100F0D6FF34
:1023B000434605207B61002100F0D0FF052000216D
:1023C00000F0CCFF43460520BB61002100F0C6FFB2
:1023D0008D2331003370012228680AF049FF012261
:1023E000210028680AF044FF0520002100F0B6FF14
:1023F000434605207B61002100F0B0FF052000214D
:1024000000F0ACFF43460520BB61002100F0A6FFB1
:102410004B4631003370012228680AF029FF5346E9
:10242000019A002128680AF003FF0520002100F02E
:1024300095FF4346052000217B6100F08FFF18E7E0
:10244000940300200B4B1A680B4B18680123010002
:1024500010318B4051680B42FCD180218000101854
:102460004903016151681942FCD180235B03036178
:102470007047C04634130020381300200B4B1A68F5
:102480000B4B18680123010010318B4051680B423F
:10249000FCD18021800010180905016151681942A2
:1024A000FCD180231B0503617047C0463413002014
:1024B000381300200A4B1A680A4B186801230100E0
:1024C00010318B4051680B42FCD107498000101835
:1024D000016151681942FCD1034B03617047C0464A
:1024E000341300203813002000010101F0B5C64666
:1024F00000B502218CB0344804F0C4F901230293E2
:10250000019301330093314807AB06AA05A904F0F3
:1025100081FD002854D0059D2D4B0220E918090D9E
:102520000631C9B2079F069E00F05CF80123310016
:1025300002220093280004F0C5FC80235B0208936C
:10254000FB1CFA011B031343224A05201340099385
:10255000214B0B93214B0A9301F010F902F0ECF997
:102560001F4902F0CEF9EC21890502F0C7F9804637
:1025700002F00AFA84B20023002C0ED0200002F0F0
:10258000DBF9011C404602F0B6F98721C90502F0CB
:10259000CCF902F0F9F9C3B21B0224043A001C433F
:1025A000310008AB2800089404F0E6FC0123B34096
:1025B00000202A6813432B600CB080BCB846F0BDE5
:1025C00001F084F9A7E7C046E0D60010ACD90010AE
:1025D0000000E0AFFFFFFF9F000800200000067032
:1025E0000024F44A094A83009A1810B5146840225E
:1025F000544080322240064CC000A44663441A6016
:10260000044B9C466044416010BDC04604C001407C
:1026100004D0014000400140074B8000C3181B68F4
:10262000C90092000A435A400C231340034A9446BF
:10263000604403607047C04604C0014004D00140BC
:102640000123D0228340120693629361094A8300DA
:102650009A1811684022514080320A400649C00051
:102660008C4663441A60054B9C46052360444360D6
:102670007047C04604C0014004D001400040014002
:102680000FB400B5084883B004F074F8049B002B25
:1026900007D005A91800019103F0D0FD034804F00C
:1026A00069F8012003F0E2FD08D70010A8D300105C
:1026B000EFF3108072B6034A1368002BFCD0BFF30F
:1026C0005F8F70472C0100D0BFF35F8F0022024B59
:1026D0001A6080F3108870472C0100D070B5EFF3BA
:1026E000108C72B60D4D2B68002BFCD0BFF35F8FA2
:1026F0000724CB08C618C05C01230C40A3401C0073
:102700000440034207D118433070BFF35F8F2C6041
:102710008CF3108870BD1000FFF7B2FF2C0100D0C1
:10272000F8B54746CE46884680B5EFF3108C72B6B2
:10273000214D2C68002CFCD0BFF35F8F9A422CD81F
:10274000D4080727055D061901241740BC402C4218
:102750001FD007210127894609E0D408055D061925
:102760004C4639001440A1400C00294211D00132DE
:102770009342F2D201204042BFF35F8F00220E4B02
:102780001A608CF3108800280FDBC0BCB946B04635
:10279000F8BD254310003570EEE7BFF35F8F0023CF
:1027A0002B608CF31088012040424346002BECD074
:1027B0000898FFF765FFC0462C0100D030B5EFF355
:1027C000108C72B60A4C2368002BFCD0BFF35F8FCD
:1027D000072301220B409A40CD08435D93434355A4
:1027E000BFF35F8F002323608CF3108830BDC04699
:1027F0002C0100D0044A1078431CDBB2172B00D9FF
:10280000102313707047C046980300200021044B2A
:10281000044ABFF35F8F02C39342FAD17047C046A8
:10282000000100D0800100D0054B064A1360064A23
:10283000136053609360D360136153619361704779
:102840008080808000E400E004E400E01F23184062
:102850001E3B8340002905D0C021044A4900535043
:1028600013607047802201498B50FAE700E100E0D5
:1028700070B50D00EFF3108672B60F4A1368002B87
:10288000FCD0BFF35F8F0D4B10309B6884001B5949
:102890000B4A934203D09D4201D001F017F8074B39
:1028A0009B681D51BFF35F8FBFF35F8F0022024B08
:1028B0001A6086F3108870BD240100D000ED00E09E
:1028C000CD010010F0B5DE4657464E464546E0B510
:1028D0000C0083B0EFF3108872B6634A1368002BC4
:1028E000FCD0BFF35F8F614B61499A6803001033DE
:1028F0009F00D55900938D4243D0A54254D05D4EE0
:10290000AA1B2F2A3DD85C4B9C461B689A46012384
:102910001A0099468240534613401F2201934B46AA
:10292000024093409A468022634650469850BFF337
:102930005F8FEFF305839B46002B37D0009B5B45F1
:1029400001D000F0C3FF2A004B469A4390688442AE
:1029500008D177E04B005B189B00F318986884421D
:1029600036D01A00062151560029F3DA844255D098
:10297000019B002B27D0C02251463F4B520099505B
:1029800019603A4B9B68DD51BFF35F8FBFF35F8FD8
:102990000022354B1A6088F3108803B0F0BCBB46A8
:1029A000B246A946A046F0BD0D00EAE72A004B4614
:1029B0009A4390688442D5D106201056130000280F
:1029C0000ADA0D0032E0802351462B4AD150D8E775
:1029D00006201856002822DB4200111889007418BE
:1029E0008946A1689960E179D9710621615699718A
:1029F000002925DBA488F11A640524154C44091923
:102A0000E0240905490D24022143998013181B4A2B
:102A10009B001178F31899711070A9E713005946BB
:102A2000002914D1FF3191711549918013490A7819
:102A30009A71144A9B1B5B415A43120D0A7097E727
:102A40001149E2E70620105613000028C4DA0F4AA5
:102A50000F49D21A083A5002400D014399800D499E
:102A600052080A43DA8083E7240100D000ED00E039
:102A7000CD0100109C03002000E100E0C513002000
:102A800001BDFFFFAAAA000001BD0000D60300207F
:102A900000F0FFFF00F8FFFF70B501240443EFF3DF
:102AA0000581EFF3108C72B6214A1368002BFCD01D
:102AB000BFF35F8F1F4B05001F4AED1A6D416A433C
:102AC000120D1E4D8900AE6852B27658A6421CD037
:102AD0000621595691421CD012215956914222D0BA
:102AE0001E215956914220D02A2159560324914241
:102AF00010D0134B19781A708171BFF35F8F0022C9
:102B00000B4B1A608CF3108870BDAB680D4C5C5099
:102B1000EFE700246100091989005B18FF21997112
:102B200009499980E5E70124F4E70224F2E7C04669
:102B3000240100D09C030020AAAA000000ED00E0C0
:102B4000C5130020CD01001001BDFFFF024B9C46C4
:102B500061448900016070474000003470B5114C39
:102B6000114DAC420FD2FF262368002B0CD0FFF78B
:102B700041FE01002000FFF7E9FFA680BFF35F8F51
:102B80000834AC42F0D370BDFFF734FE01002000E2
:102B9000FFF7DCFF2671BFF35F8F0834AC42E3D34D
:102BA000F1E7C046100B0020180B00200A4B1968F3
:102BB000EFF3108072B60A68002AFCD0BFF35F8F73
:102BC0001B68BFF35F8F00221A6080F3108840BF3C
:102BD000002000217047C046B8130020F0B5DE4643
:102BE00057464E464546E0B583B0EFF305820323D2
:102BF0001340B54A990052580091904601229A40DC
:102C0000B24B93461A60B24B01932EE043469B8829
:102C10001BB2002B00DB99E043469B79002B00D0D0
:102C2000DDE0434608241C5F002C00DA06E1434641
:102C30005A6963001B19DB00D3189D68DC686B1CA4
:102C400000D107E1A34B00999C4661449A6A0B6945
:102C5000A81A9B1A984200D20D619E4800F06CFBA6
:102C60008C4200DDEAE000D126E15B4699484363EF
:102C7000434608229B5E9946002BC7DB42465269B9
:102C80005B0092464B44DB009A4453469E68DF68E3
:102C900000F052FB8F42B9DC00D100E1002F00DAD6
:102CA000E1E05246534654691B69019A934200D1B0
:102CB000D4E0414652460820085E528800042100B4
:102CC0001043984704000D0023002B4300D1CAE0B5
:102CD000002D00DBE7E030003900001BA94153461E
:102CE0009860D96000229A5E002A8FDB43465D69B6
:102CF00053009C18E4002C19A768E4688C4200DD9E
:102D000084E702D1874200D980E7464632810836FF
:102D10000DE08C4200D1D3E01E000023F25E002AB9
:102D20000ADB53009C18E4002C19A768E4689B1880
:102D3000DB00EB188C42ECDD53461A804B463380A7
:102D400043469B881BB2002B00DA65E743461A69AD
:102D5000EFF3108172B61368002BFCD0BFF35F8FC6
:102D600043469E88012342465B42938036B21369F4
:102D7000BFF35F8F00221A6081F31088002E00DA03
:102D80004AE743465D69083342469C467700BF19CF
:102D9000FF00EF19BB68604698460823D15E924653
:102DA000FC68002907DA0EE0A2424FD01800002389
:102DB000C15E002906DB4B005B18DB00EB18DA680C
:102DC000A242F1DD524606800023FE5E3980002ECD
:102DD000DCDA904643469B79002B00D121E70023A3
:102DE00042469371434646460821595E08364B1CBD
:102DF00024D047468946556902E006004B1C18D08E
:102E00004B005B18DB00E8180A008C46E95E43883B
:102E10001BB2002BF1DA01235B42DC178360C46034
:102E20004A4503D031803B8903803A81E1464B1CFF
:102E3000E6D14C46B846002C00DBF8E640BF03B0B4
:102E4000F0BCBB46B246A946A046F0BD9A684245D2
:102E5000ACD9B7E7631C00D0F4E6FEE62000236996
:102E60009847002825D1534642461B881381126992
:102E7000EFF3108372B611680029FCD0BFF35F8FA7
:102E80004246514652880A8042464946518012695C
:102E9000BFF35F8F0021116083F31088B6E686428E
:102EA00000D8FBE6B2E60B4800F046FA001969418B
:102EB00015E76568246807E7854200D8D5E6BDE7D1
:102EC000874200D828E737E7601300203C700540B0
:102ED000DD2B00100040054070B52E4C2569002DFB
:102EE00004D00A212C48FFF731FE70BD2B4E032180
:102EF000300000F017FAE660FFF77CFC284B032255
:102F00009C46D02322701B061B6801216370254B51
:102F10006044A3600F238000206102206380636906
:102F20004942A18019800231198647311D835852C8
:102F300018315A5275325C3999521832013199520E
:102F4000183201319952183201319952083518322C
:102F50009D52023118329952183201319952183269
:102F60000131995218320131995218320131995276
:102F70001832013199520C4B0C49DC60013035623A
:102F8000FFF776FC01210320FFF760FC084B1D6072
:102F9000A7E7C046E4030020B81300200040054026
:102FA00040000034FFFF100060130020DD2B0010F4
:102FB0003860054070B501000469EFF3108C72B6FB
:102FC00020680028FCD0BFF35F8F02200D5E4C69A3
:102FD00068004019C0002418002D37DB2088488085
:102FE0000869BFF35F8F002606608CF31088E360EA
:102FF00063880498013320615B0405985B0CA26030
:1030000060611A1C002B1FD093B228046280184301
:103010000A69EFF3108C72B61368002BFCD0BFF373
:103020005F8F8B8823808D800B69BFF35F8F0022B9
:103030001A608CF310880B7801329A40CB680849EB
:103040008C4663441A6070BD0122DDE70B69BFF353
:103050005F8F00221A608CF3108801204042F2E753
:103060003C20000010B543890A1493421ADD530036
:103070009B184269DB00D3180469EFF3108C72B619
:103080002268002AFCD0BFF35F8F5A88090494B2EB
:10309000090C8A4208D00369BFF35F8F00221A60CF
:1030A0008CF31088002010BD8022120214435C8033
:1030B000012302698371BFF35F8F002111608CF3DC
:1030C0001088044902788C469340C268012062440B
:1030D0001360E8E73C200000F0B504000D00062670
:1030E0007642F717C64636196F4100B582B08F4257
:1030F00014D811D000F028F932003B00121A8B418D
:10310000002B17DC002B47D02000290000F0A8F985
:1031100002B080BCB846F0BD8642EBD90022002345
:1031200016001F0000F010F932003B00121A8B410C
:10313000002BE7DD00F008F932003B00121A8B414A
:10314000002B0ADB00230193154B32000093154836
:103150003B00FFF72FFF0028D6DB00239C46B0463C
:10316000114A124E736A9F4204D8B16A8845CBD97E
:103170009F42C9D11168EFF3108072B60B68002B23
:10318000FCD0BFF35F8F1368BFF35F8F6146196098
:1031900080F3108820BFE5E7002AB5D0CAE7C04613
:1031A000AD2B0010E4030020B813002000400540C0
:1031B00070B504000D0000F0C7F8802300196941C4
:1031C0001B06994202D3012002494042FFF784FFC7
:1031D00070BDC046FFFFFF7F70B5060000F0B4F879
:1031E000FA2204000D00002330000021920001F0BB
:1031F00065FB8023001969411B06994202D3012017
:1032000002494042FFF768FF70BDC046FFFFFF7FE5
:10321000F0B5CE46474680B504000D0083B0EFF30D
:1032200005878846002F3ED12E4EA1463378F068A0
:1032300004339B00816A1B58601A5B1A98420ED3B4
:1032400020BF294900204B6AAB4203D38A6A013070
:10325000944231D803B0C0BCB946B046F0BD00F0CE
:1032600073F822002B00121A8B41002B2FDB1F4B0F
:103270002200009330002B000197FFF79BFE011EF8
:1032800025DD194B5A6AAA421BD220BF3000FFF736
:10329000E9FE154A0020536A4345DBD3926A0130A8
:1032A0009145D7D908E0104900204B6AAB42D1D3F1
:1032B0008A6A0130A242CDD25B1B5A1E9341D8B21A
:1032C000C8E79B6A9C42E1D9AA42DFD1DDE7064A02
:1032D0000020536A4345BDD3926A01209145B9D974
:1032E000EAE7C046E403002000400540AD2B001093
:1032F000084A4368516A10B5046800208B4203D81D
:10330000926A0130A24200D310BD5B1A5A1E93414B
:10331000D8B2F9E7004005400260436000487047BA
:10332000F132001010B5024A0248FFF7D7F910BD7C
:1033300018D70010BC1200200300416A0A00986AE6
:10334000596A8A42FAD17047034B596A0A00986A4F
:10335000596A9142FAD170470040054070B50400A7
:103360000D00174A536A1900966A536A8B42FAD1C4
:103370003000190024184D41AB4216D813D0104A22
:103380002B00526A954203D90D494A6A9A42FCD3EE
:103390009A4207D10A4A02E0516A994202D1916ADF
:1033A000A142F9D370BDA642E9D9054B5B6A1C0066
:1033B0005A1CEFD0012301246442E5175B42E3E786
:1033C00000400540244B70B598420BD843011B1AAE
:1033D000224A9B001818916AC000936A5B1A9842AF
:1033E000FBD870BDFA2200239200002101F066FA9A
:1033F00004000D00194A536A1900966A536A8B42F9
:10340000FAD13000190024184D41AB4218D9134BA2
:103410005B6A1C005A1C0AD0012301246442E51790
:103420005B420E494A6A9A42FCD39A42D9D10B4A6E
:1034300002E0516A9942D4D1916AA142F9D3D0E70E
:10344000AB4205D0054A2B00526A9542E9D8ECE719
:10345000A642F7D9DBE7C0469BC4200000400540E8
:10346000064A536A9942FCD807D1044B02E05A6AD3
:10347000914202D19A6A8242F9D3704700400540D6
:10348000F8B5040006200D0000F078F9002844D0BB
:10349000374B3849E3185A1E934180221204944650
:1034A0005B429B0D344A9B0563441360334A1360AF
:1034B00018000A689043FBD12D4B314AE31859425A
:1034C0004B4180215B0049000620995200F056F9DB
:1034D0002900C00000F000FB0130C3091ED14027C5
:1034E00001226262A362266BF30722D4E36A254BB2
:1034F0000620E51800232B60266300F03FF9390011
:10350000800000F0E9FA7023E26A5A400E3313405B
:103510002B601D4B23630323A364F8BD1B4A934216
:103520001ED900231A4A1B4F6262A362266BF3075F
:10353000DCD5194B144AE3181A60656AA36A0620A1
:10354000AD01ED1800F01AF9144900F0C5FAAD020A
:103550000100280000F0C0FA0021FFF7FFFEC5E7D8
:103560004006800E9F011A003F180300B9E7C046CD
:103570000080FCBF08C0004000E0004000F00040B8
:10358000BC1300202C10000001030000FEFF00000F
:10359000FFFF0000C0FF3F00303000004E0E000073
:1035A000F8B5DE464E4657464546E0B58B46050023
:1035B0000A991800160000F08FFA0A9B6C001F028F
:1035C000324B64199C46A4006444636881469F4260
:1035D00000D967602B1FDBB29846012B30D9C0237E
:1035E00080229B01E31812011A60294BAD00595942
:1035F0009A4600291BD17301E026226853401E40E1
:10360000802342465B01E3181E60012A30D98023E3
:1036100080229B01E31812011A6053464A466760F4
:103620005A51F0BCBB46B246A946A046F8BD5869FF
:1036300000F052FA013043001B18033BFDD2DAE7D9
:103640005B46012BCBD1C02303229B01E3181A60F8
:10365000023AA3681A42FCD07301E0262268AD004A
:1036600053401E4080230A4A5B019246E3181E60C5
:103670005A462168514003220A401A6001225B46E3
:103680009A40A3681A42FCD0C1E7C04600800040BF
:1036900000130020F0B546464F46D646C0B51F0081
:1036A000344B44009C462418A40064446368884654
:1036B0001600FF2B02D880235B006360031FDBB280
:1036C0009A46012B30D9C02380229B01E3181201B6
:1036D0001A60294B85005959994600291BD173015D
:1036E000E026226853401E40802352465B01E318C7
:1036F0001E60012A30D9802380229B01E318120129
:103700001A6080235B0063604B465F51E0BCBA46A1
:10371000B146A846F0BD586900F0DEF9013043001B
:103720001B18033BFDD2DAE74346012BCBD1C02364
:1037300003229B01E3181A60023AA3681A42FCD0E4
:103740007301E0262268850053401E4080230A4A08
:103750005B019146E3181E604246216851400322F6
:103760000A401A60012342469340A2681342FCD0EB
:10377000C1E7C0460080004000130020014B8000DC
:10378000C058704700130020F8B5040021481E00FF
:1037900017000D0000F0A0F90100380000F09CF9BE
:1037A000069B36041B031E432368002B20DB1A4BA9
:1037B0001A49E3185A1E93418022920194465B42B3
:1037C0001B0B174A1B0363441360164A13601F0048
:1037D0000A689743FBD1144B2560E2182123A060AF
:1037E00013602368002BFCDA0823E6601360F8BD41
:1037F0003F2322681340AB42D9D1A3681B051B0DA0
:103800008342D4D1EE22E368D2021340B342CED138
:10381000EDE7C046001BB7000040FDBF08C00040F8
:1038200000E0004000F00040043000008023024A25
:103830009B000B43D362704700800540142310B5F2
:103840000100188804331B88984710BD162310B553
:103850000100188802331B88984710BDF8B5474609
:10386000CE4680B50F1E19D01423994604330400A8
:103870000025012698464B461888434621681B8838
:10388000984701C4431E9841013540420640AF426B
:10389000F1D13000C0BCB946B046F8BD0126F8E70A
:1038A000AA23064A1B0113602F230549D360054B49
:1038B00019605368002BFCDA7047C0460040024094
:1038C00000B0FA00006002407047C04610B50148E1
:1038D000FEF7D6FE3CD7001070B5074D074EB54237
:1038E00009D20024013E761BB60808CD9847230074
:1038F0000134B342F9D170BD90D20010CCD2001087
:10390000054B064A06491A60064A074B1A60100022
:103910000B689843FBD1704700E00040BFCDFBFE31
:1039200008C00040FE7F3C0000F00040044BDB6C10
:10393000002B03D18022034BD2021A607047C0468D
:10394000000011504C201150044A054B1A60054AE2
:103950001368DB018033FBD17047C046FFFFFF01D6
:1039600000F0004008C000404022034B9A675A67AD
:103970001A67DA667047C04600F0014010B5FEF7DE
:1039800045FF10BD70B5044D044CA968C02220004D
:1039900001F07EF8AC6070BD00ED00E0000000209A
:1039A000002310B5294C82B0A367FFF779FF0122ED
:1039B000274B1A60636C012BFCD10322254B1A6044
:1039C000224A936B012BFCD1013300930121224A3F
:1039D00022480433FFF7D8FE052301210093204A33
:1039E0002048FFF7D1FE0022022104201E4BFFF7E2
:1039F00051FE0022012105201C4BFFF74BFE002247
:103A0000002107201A4BFFF745FE00220021082065
:103A1000174BFFF73FFE8023DB00009300220021BD
:103A20000920134BFFF7BCFD0022104B002106209C
:103A3000FFF730FE0420FFF7A1FE0E4900F04CF81E
:103A400001000020FFF7F2FE02B010BD0080004030
:103A50003CB0004030B00040002F68590080024068
:103A6000008C864700C00240001BB7004059730716
:103A7000006CDC0240420F0001480421014B184752
:103A8000000400205D380010124A936F9B0815D285
:103A90009066D166002905D0FFE7FFE7FFE7516F89
:103AA000106F704704B580210906C21751400028E5
:103AB00000D0C84309F0D4FB002104BDF0B5146E5A
:103AC000556E576F166FFFF7E3FF1466556657671D
:103AD0001667F0BD000000D0114A936F9B0813D207
:103AE00010665166002905D0FFE7FFE7FFE7516F39
:103AF000106F704704B5002801D00020C04309F0C2
:103B0000AFFB002104BDC046F0B5146E556E576F73
:103B1000166FFFF7E5FF1466556657671667F0BD29
:103B2000000000D094464A4A926F9208624601D241
:103B300028E0C046F0B5464E346E756E776F366F2E
:103B400000F020F89446424A146655665767166797
:103B50006246F0BD94463E4A926F9208624601D298
:103B600054E0C046F0B53A4E346E756E776F366FDE
:103B700000F04CF89446364A146655665767166747
:103B80006246F0BD002B24DB11D000293EDA00B5DF
:103B9000C943404200D1013100F038F8C9434042E6
:103BA00000D10131DB43524200D1013300BD002A74
:103BB000EBD1002801D1002905D00020C90FC90789
:103BC00001D1C043410800B509F042FB00220023A7
:103BD00000BD00B500290ADBDB43524200D10133AE
:103BE00000F014F8C943404200D1013100BDC9437F
:103BF000404200D10131DB43524200D1013300F099
:103C000005F8DB43524200D1013300BD002923D126
:103C1000002B18D1002A0CD0BC460D4F38667A66AE
:103C200000210023FFE7FFE7FFE77A6F386F674661
:103C30007047002801D00748010000B509F008FBD3
:103C40000022002300BD02000B000020002170476D
:103C5000000000D0FFFFFFFF002B00D0BFE0130CDF
:103C600028D1002AE7D080B4114F39667A66FFE781
:103C7000FFE730B4040C7B6F396F1B0423433B66B2
:103C80007A66FFE7FFE7FFE7C04684B27B6F3D6FD0
:103C90001B0423433B667A66FFE7FFE7C046002329
:103CA0002C042D0C7A6F386F00196941B0BC704735
:103CB000000000D0F0B594460025140E01D1120288
:103CC0000835140F01D112010435940F01D192006F
:103CD0000235D40F01D152000135D40B0134254FE8
:103CE0007C66254C3C660E0C93B2FFE7FFE7FFE7CE
:103CF0003C6F6643360C7703BE467343DF0B5B04B1
:103D0000C01AB941130C7343DB18C91ACE086643B5
:103D1000360CB64493B273431F0F1B01C01AB9414E
:103D2000130C73431F0B1B05C01AB941860D8F027C
:103D30003E436643360C092D24DB520A7243801A37
:103D40007703460A6643360C16235B1BDE40DF40D2
:103D5000BF1964466643821B704604350633010072
:103D6000D940A840C01900D30131A24206D2002395
:103D7000F0BD0000000000D0FFFFFFFF121B01306C
:103D8000F3D3F1E709277F1BFE406446A2B27243DA
:103D9000801A00D20139220C7243130C1204821AC9
:103DA00099410B007046043513370100F940A840D3
:103DB000801900D30131002B02D1A2420AD2F0BDFA
:103DC000013000D30131121BFAD2013BF8D1A242DB
:103DD00000D2F0BD013000D30131121BF7E7F0B57E
:103DE0001C0C00D080E00CB400251C0A04D11B027E
:103DF000160E3343120208351C0B04D11B01160F9B
:103E00003343120104359C0B04D19B00960F3343BE
:103E100092000235DC0B02D192185B4101351C0087
:103E2000971864410134464F7C66464C3C660E0C44
:103E3000FFE7FFE7FFE7C0463C6F6643360C7703BA
:103E4000BE4697B27743C01B00D20139C01B00D2D7
:103E500001399FB27743C91BC91B170C77437E04F6
:103E6000FF0B801BB941CE086643360C0C2D33DBAB
:103E7000B644120B1F053A431B0B97B27743C01B86
:103E800000D201399FB27743C91B170C77433E0418
:103E90003F0C801BB941860D8F023E4366432927A4
:103EA0007F1BFE400C3D7746AF40BF1930BCA2B22D
:103EB000ABB272437343801A9941220C7243130CC4
:103EC0001204801A994102000B000137001BA9411E
:103ED000F9D2781E0021F0BD0C277F1BFE407746EB
:103EE0007F0BAF40FF19E0E700245D1C07D0144FA3
:103EF0007D663966FFE7FFE7FFE7FFE73C6F95B2B6
:103F00009EB265436643401BB141150C1E0C6543D0
:103F1000664336042F0C3E432D04401BB1419942A9
:103F200004D202000B0020000021F0BD01D190421C
:103F3000F7D3801A994101349942F2D3F6E7000091
:103F4000000000D0FFFFFFFF48404140484018B448
:103F50001B4B5B68FC46019308BD04DF8B420010DD
:103F600018B4174B1B68FC46019308BD00DF95424F
:103F700000109446134A926F920809D2624618B410
:103F80000F4BDB68FC46019308BD0CDF4D4500106C
:103F90000C4AF0B5146E556E576F166F6246FFF7F8
:103FA000EEFF084A1466556657671667F0BD18B4E9
:103FB000034B9B68FC46019308BD08DFF1430010EA
:103FC000980C0020000000D0FFB550404240504007
:103FD00059404B40594000E0FFB5154F4C00640D6F
:103FE00003D0BC4204D10C0314D80020090D0905EC
:103FF0005C00640D03D0BC4204D11C030AD800222B
:104000001B0D1B0501264B4009D44B4003D58B42A9
:1040100000D18242FFBD9942FCD19042FFBD0B43CB
:10402000DB1803431343F5D0C9434918FFBD000013
:10403000FF07000000B5FFF7CFFF01D0002000BD53
:10404000012000BD00B5FFF7C7FF804100BDC0469D
:1040500000B5FFF7C1FF01D9002000BD012000BD60
:1040600000B5FFF7B1FF01D9002000BD012000BD60
:1040700000B5FFF7A9FF804100BD012040054A00BF
:10408000121804D85A00121801D8002070470120D5
:10409000704700000021002805D17047C117484033
:1040A000401AFAD0C90713B5064B1B6898470CBCD9
:1040B000441CA2401005120B0349091B09051943B2
:1040C000114310BDB41300201F04000010B54C00B4
:1040D000620D8023D218DB00D21A5B057E2A10DD28
:1040E0009E3A13DACC170903490819435242D140CA
:1040F000640001341532202A05DAD04008436043B9
:1041000010BD002010BD0846604310BDC80FC01888
:10411000013810BD18B4044B5B6AFC46019308BD1E
:1041200024DFFD4600100000980C002018B4044B5A
:10413000DB6DFC46019308BD5CDF09480010000000
:10414000980C0020C94211D300B54900490800224B
:1041500000F018F8002904D4002240428A41114698
:1041600000BD80210906002000BD000018B4044BEA
:10417000DB6EFC46019308BD6CDF0B4700100000AE
:10418000980C002018B4044B9B6FFC46019308BDAB
:1041900078DF274700100000980C002018B4044B6B
:1041A000DB6FFC46019308BD7CDF954700100000E3
:1041B000980C0020132370B51D78012D19D014DD43
:1041C0001F48FFF743FB06001E48FFF73FFB1E4C4E
:1041D00080223100200000F05BFC022D2DD01B4816
:1041E000FFF72CFB1A4B186070BD1A4B164CA364DA
:1041F000F5E7184B144C23606360A360E360236110
:104200006361A361E36123626362A362E362236388
:104210006363A363E36323646364A364E364236568
:104220006365A365E36523666366A366E366236748
:104230006367A367E367A364D1E7064BA364CEE794
:104240005344000053460000980C00204C330000FB
:10425000B41300205942001007B5604601880A0ACD
:104260000230DF2AFAD1C9B2820804D3028840881A
:104270000004104300E00068014A5050039007BD5D
:10428000980C00200FB403BC0CBCF0B50124E4076B
:10429000634000E0F0B50C0DCF0F661E3605891B9C
:1042A000640503D3C943404200D30131640D03D0F8
:1042B000661CF60A07D0E41B00207F00791C8907E2
:1042C0008912803C24031D0DDF0F6E1E36059B1BDB
:1042D0006D0503D3DB43524200D301336D0D03D090
:1042E0006E1CF60A07D0ED1B00227F007B1C9B078B
:1042F0009B12803D2D032F1B661B58D4A446202EF5
:1043000046DA20371400BC401D00BD40F240334166
:104310002A4380185941CB0F05D0C943C04300221E
:1043200064425041514162464D0D28D10D0D07D1D7
:1043300000281FD0241940414941013A0D0DF9D000
:10434000640006D3013000D30131002C01D14008B4
:104350004000013A0BD4941CE40A04D11205114424
:10436000DB071944F0BDD907204B194300E0D907FA
:104370000020F0BD0029DDD1002CDBD1F0BD0132E1
:10438000C6074008CD0728434908002EE1D0D9E7E9
:104390003C2E29DA203E40371400BC4000D00124D6
:1043A000F24014431A00BB401C43D317ACE7AC46A1
:1043B000202F08DA20360400B4400D00B540F84044
:1043C00039412843A5E73C2F0CDA203F4036040052
:1043D000B44000D00124F84004430800B1400C432D
:1043E000C117EAE710001900002494E70000F07FED
:1043F000F0B50C0D661E3605891BE60A6405640DD2
:1044000002D0651CED0A04D0002001210905803C82
:104410002403A4461C0D671E3F05DB1BE70A640549
:10442000640D02D0651CED0A04D0002201231B0597
:10443000803C24037740644497B484B296B27443BA
:10444000070C7E43150C6F4380B26843361802D3C5
:10445000012000043F183004350C00197D418446CA
:1044600088B29AB250430C0C62431F0C7C438EB24C
:104470007E43921902D301263604A4191604170CA0
:104480003618674101BC81B29AB25143040C6243B1
:104490001B0C5C4380B25843121802D30120000465
:1044A00024181004130C401863412D185E4100209D
:1044B000474106BC88B293B258430C0C6343120CBC
:1044C000544389B251435B1802D301210904641893
:1044D00019041A0C091862416D1856410020474111
:1044E00018BCF902720D1143F0026A0D1043ED027F
:1044F0000A0D03D16D1940414941013B124E9B1BEE
:104500007600B3420ED26D0007D301300026714110
:104510006646354301D1400840001B05C918E40731
:104520002144F0BD0BDA013306D1013004D1013151
:104530004F0D01D04908F2E7E1070020F0BD013638
:1045400031050020EBE70000FF030000F0B51C0D73
:10455000671E3F05DB1BE70A6405640D02D0661C7D
:10456000F60A04D0002201231B05803C2403D02539
:104570002D060026F6432E661E096E66CE0FF6192E
:10458000B44649004F0D02D07E1CF60A03D000202D
:104590000021403F3F033E1BB600B444013F7F056E
:1045A000C91B49082E6F013676089C02950D2543DC
:1045B0007543ED137543AD1301356D10F603761B8E
:1045C0000CB4CC02450D2C43A2B2B3B25A43270C13
:1045D0007B43350C6F43A4B26C431B1902D30124F7
:1045E00024043F191C041D0CA4187D4124196D419D
:1045F000009A91B2ACB26143170C7C432B0C5F4321
:1046000092B25A43A41802D301221204BF18220402
:10461000230C52187B41019C6C431B19520ED9018B
:104620000A434401A01A81B2B2B2514303145A435F
:10463000360C734387B27743D617D21900277E41D1
:1046400036049B191704160C7F185E417316ED187B
:10465000F301002680337541A90F06D16400690A71
:10466000E8055B0A184309D22FE004229444803302
:104670007541A90AA8059B0A184326D34041494120
:104680002404009A019B0D005543641B4343E41A24
:1046900095B286B27543170C7E43030C5F4392B20A
:1046A0005A43B61802D301221204BF183204330C45
:1046B00052197B4152429C41002C02D4002201300D
:1046C00051414008CA071043490802B06246D70763
:1046D0009210084BD218084B9A4203D2120589183F
:1046E000C919F0BD0020002A01DC3900F0BD0133FA
:1046F0001905F5E7FD030000FE070000002200B5E4
:10470000203200F010F8080000BD002200B500F0D3
:104710000CF8CA179A4200D100BDD8430121C9073D
:10472000414000BD00220B150AD410B5944600F09C
:10473000A7F81414013400DA0021CB17144C2047D9
:104740000020002170476244343A0CD40C2A07DA66
:1047500004009140904052422032D440214310BD89
:10476000D843D94310BD203207D40C46944052425E
:1047700020321141D040204310BD0800C91720321B
:1047800003D452422032104110BD1800190010BD50
:10479000474700104A00520D144BD21A13DDFF2A6E
:1047A0001EDAD205CB0FDB071A43C300400F090303
:1047B000490A084310435B0001D301D00130704720
:1047C0004308FBD2704702D0C80FC00770470A03E6
:1047D00012130132F8D1420F072AF5D1012200E06D
:1047E000FF22C80F00028018C00570478003000038
:1047F00000210A00002104E000210A00C11704E0A2
:104800000022002306E0C0460022CB175840594042
:10481000C01A994130B5184CA21A002903D10100E1
:1048200010D00020203A4C1512D104D2013A0018C1
:1048300049414C0DFAD3114CA24204D212058918F9
:10484000DB07C91830BDD243520D00200021F5E727
:1048500003D4013A00184941FBD50B324405C00A84
:104860004D052843C90A640003D00024604161411A
:10487000E1E7E0D34408F8E732040000FE07000057
:104880000A0DCC0F531E1B05C91A520503D3C94389
:10489000404200D30131520D03D0531CDB0A07D034
:1048A000121B00206400611C89078912803A1203E0
:1048B000014BD21A70470000FF03000051434343ED
:1048C000C9188C46110C83B24B4310B4040C6143DD
:1048D00092B280B2504362431C041B0C001910BCFE
:1048E00059411304120CC018514161447047000033
:1048F0004840414048400E4B5B6818470C4B1B68D2
:1049000018470C4A936F9B0802D2094BDB68184783
:10491000F0B5146E556E576F166FFFF7F6FF054A28
:104920001466556657671667F0BD014B9B681847BC
:10493000980D0020000000D0491A002808D1084630
:1049400070470000C10FC90700D54042002817D0AA
:10495000F44603B40B4B1B68984706BC81409E3855
:104960004042803107D20B0607D04900490AC005F2
:104970001043084360470130F8E7490A8902F5E728
:1049800070470000B4130020014B5B6A1847000019
:10499000980D0020132310B512481C78FEF756FF1F
:1049A0000100012C0AD003DD80220F4800F070F8CE
:1049B0000E48FEF743FF0E4B186010BD0A4C542200
:1049C000200000F065F80B4B6365A365E365236683
:1049D0006366A366E36623676367A367E36723628F
:1049E000E361E5E753460000980D00204C330000DA
:1049F000B4130020F949001007B5604601880A0A7F
:104A00000230DF2AFAD1C9B2820804D30288408872
:104A10000004104300E00068014A5050039007BDB5
:104A2000980D002010B5040002F00EFC002804D000
:104A3000034B04199C4200D810BD0248FDF720FE2C
:104A40000000042048D7001010B50C0002F002FF4F
:104A5000002804D0034B04199C4200D810BD024822
:104A6000FDF70EFE0000042048D7001010B502F03C
:104A7000F5FB10BD01480421014B1847100400202C
:104A80005D380010014B1B6818470000100400201F
:104A9000014B5B6818470000100400209A4200D2C6
:104AA000885470477047C046F8B55746DE464E46B4
:104AB0004546E0B599460A9B07009A460D9B8846F5
:104AC00093460B9C9B073BD10C9B9C423DD21E1BEB
:104AD0000B9415000C005E442A004B460135210062
:104AE0002020B847B542F7D1A0460B9C002C20D01F
:104AF000454636195346321B013C185D29004B468A
:104B0000B847002CF6D12B00350098460D9B9B072B
:104B10000FD55B46EC1A0C9BA3420AD94646984631
:104B20002A004B46310020200134B8470135444566
:104B3000F6D32800F0BCBB46B246A946A046F8BD55
:104B400016001500002CD3D1E0E71600002CCFD1C1
:104B50001500EEE7F0B54F464646D646C0B584B0E0
:104B600098460EAB1B7894469946129B0D9C109F5D
:104B7000119E9A0725D4002E65D1BC4221D2012274
:104B80001A409246202C00D1E9E00C9A551E3022A2
:104B900002E0202C00D17BE001342A55A742F8D84E
:104BA0005246002A0DD0B4420BD20C9A551E302228
:104BB000202C02D171E0202C2DD001342A55B44292
:104BC000F9D1DA063CD55A052ED4002C28D10F9AFB
:104BD000102A00D1B6E0022A00D1BCE030220C9CA1
:104BE000227001244A46002A65D15A0700D499E070
:104BF0002B220C9D2A55013403930C9B6246009393
:104C0000029643460194FFF74FFF04B0E0BCBA465A
:104C1000B146A846F0BD2024DA06EDD55A0503D4E6
:104C2000A74266D0B44264D00F9A102A71D0022AEB
:104C300057D0202CE0D02200013430250C9FBD54E9
:104C4000202CD9D0CEE7012215001D40AA461A42D9
:104C500036D04A46002A4AD10C321A4247D1BC42C9
:104C6000A1D2202C91D1202E17D82024DA06C3D52A
:104C70005A051BD4202F01D0202ED5D11F220F9DE5
:104C8000102D6FD0022DD8D162250C9FBD54D0E7D6
:104C90005246002A79D0202EBDD92024DA06ABD581
:104CA0005A0503D4202FE9D0202EE7D00F9A102ADE
:104CB000A2D12024A0E72D220C9D2A5501349BE788
:104CC000BC4200D37DE7202C00D05EE7DA06F0D5A9
:104CD0005A05EED4202F62D0202EEAD134001F22B4
:104CE000CDE7202C00D187E722000134CCE7013E3C
:104CF000B5E7621E012CC2D10F9A102A00D06AE7D4
:104D00009A063BD558220C9C2270283A62700224E5
:104D100068E79A060ED4202CCBD078220C9D2A5519
:104D2000013486E71A0700D466E720220C9D2A5535
:104D3000013461E7202CBCD058250C9A121915704B
:104D4000013476E79A0608D558220C9C227030224E
:104D50006270022446E76032F7E77822F5E7002A1E
:104D600083D1B3E7A21E013C9D0603D478250C9F96
:104D7000BD5460E758250C9FBD545CE778220C9C1D
:104D80002270483A627002242CE7DA0600D433E736
:104D90005A058BD4202F00D044E71F226FE73C0038
:104DA0001F226CE710B5002800D110BD01F096FC61
:104DB000FBE7C0460B0010B5002802D049681B680D
:104DC000984710BDF0B557464E464546DE46E0B51D
:104DD00099B08246894690460893229A239B1000F8
:104DE0001900FFF74AF9002800D0CDE02298239956
:104DF0000122D94B5242FFF73BF9002800D0C3E013
:104E0000229823990122D54B5242FFF71BF9002823
:104E100000D0B9E02298239900220023FFF712F96D
:104E2000002800D0F1E1229E239F8023269ADB00F8
:104E30001A400D92269A1A4201D106232493802308
:104E4000269A1B011A403B0093460996334300D033
:104E5000B3E0002A00D0C2E1002300240A930B949F
:104E6000002304250993259B0024AB4200D95C1B39
:104E70000223269A1A400C92269A134203D06B42C0
:104E80006B415B421C40099B002B07D00A9A0B9B8D
:104E900030003900FFF76DF806000F0022982399C3
:104EA00000220023FFF7CEF8002803D08021090656
:104EB0007B181F00269AAA4B009601971340089E64
:104EC0000493249B03940293424633004946504680
:104ED00000F0AAF90400002D67D02020269A494648
:104EE000024013005A4253415B42621C18400A922E
:104EF000330022004530D047099A6F1ED317D418CB
:104F00005C40D30F9B46002501E0202D13D008AA5A
:104F100094461F23200063440A2101355E19FEF7E1
:104F2000DBFD3031317020000A21FEF7D5FD26006F
:104F30000400092EE9D805230693002304930A33BD
:104F400003935B46089E029310AB0A9A009349466E
:104F50003300504605970195FFF7FCFD0C9A0400BD
:104F6000002A22D04246851A259AAA421DD9B04667
:104F70005746160022004346494620200135B847CF
:104F80000134AE42F6D810E0269B42460493259B9E
:104F900049460393249B50460293229B239C0093F3
:104FA0000194089B00F040F90400200019B0F0BC07
:104FB000BB46B246A946A046F0BD6A4B78009C4667
:104FC000400D6044FFF76AF8674A684BFEF7EFFF51
:104FD000674A684BFEF7C4FF674A3B031B0B1A4343
:104FE00004000D0009981100644B0022FEF7AFFF8A
:104FF000634A644BFEF7DBFF02000B002000290030
:10500000FEF7AEFFFFF762F80990FFF747F85E4A38
:105010005E4B04000D00FEF7CAFF00225C4BFEF75A
:105020009FFFFFF753F85B4A5B4B29000C90200071
:10503000FEF7BDFF04000C980D00FFF72FF8574A4C
:10504000574BFEF7B4FF02000B0020002900FEF7CB
:105050007EFF04000D0002000B000A940B95FEF782
:10506000A6FF04000D000A980B9902000B00FEF742
:1050700077FF00220E900F914A4B20002900FEF787
:1050800078FF0022484BFEF76BFF02000B00200068
:105090002900FEF76EFF0022444BFEF761FF02007D
:1050A0000B0020002900FEF764FF0A9A0B9B0D00FD
:1050B00080210400C9050020FEF749FF02000B0013
:1050C00020002900FEF74CFF02000B000E980F99FC
:1050D000FEF74FFF0022284BFEF742FF344B0C9C9B
:1050E0009C46644423050022FEF761FF04000D0086
:1050F00002000B00300039000A940B95FEF7A2FF66
:1051000000285DD123002A00C625099963318D420C
:10511000AD4159466D420435002900D1A3E6134341
:1051200063D030003900234A234BFEF799FF002853
:1051300007D0002230003900204BFEF783FF002803
:1051400053D1249B002B00D18DE60D9B5A1E934119
:10515000249AD31A249386E6FFFFEF7FFFFFEFFF29
:10516000FFF7FFFF01FCFFFFFB799F501344D33F84
:10517000B3C8608B288AC63F0000F03F0000F83FAC
:1051800061436F63A787D23F71A379094F930A40A8
:105190000000E03F1655B5BBB16B0240EF39FAFE97
:1051A000422EE63F00002C40000024400000184042
:1051B000FF0300002D431CEBE2361A3F80842E4192
:1051C000099B0022013B09932000164B2900FEF7A2
:1051D000D0FE0A00010003000A910B9294E700231D
:1051E00000240A930B9400230993249A099B9A4262
:1051F00014DDD31A013B24938023269ADB001A4343
:1052000000230025269209932DE68022120694465B
:10521000229B1E00239B63441F0006E60023249369
:10522000EAE7C04600002440F0B54546DE464E465B
:105230005746E0B595B08B46904699461E9A1F9BFF
:105240000A9019001000209DFEF717FF002800D0DB
:10525000B0E11E981F990122C74B5242FEF7F2FEA1
:10526000002800D037E11E981F990122C34B5242FB
:10527000FEF7FEFE002800D0A7E01E981F9900222E
:10528000BF4BFEF7F5FE002800D088E01E981F995E
:105290000022BC4BFEF7D6FE002800D07FE01E980F
:1052A0001F9900220023FEF7CDFE002800D0FAE06F
:1052B00000230B938023229C229ADB001C401A427D
:1052C00000D102E1092D00D87CE106A98C462C0012
:1052D000172200233021093C62440133D154EF1AD4
:1052E000202B00D132E1A342F7D10022A44B069239
:1052F00007931E981F99FEF7E9FE0500FEF7CEFE04
:1053000002000B001E981F99FEF721FE069A079BCC
:10531000FEF74DFE08900991FEF7FCFE0600FEF731
:10532000B9FE02000B0008980999FEF710FE002252
:10533000954B08900991FEF79BFE002800D1D2E022
:1053400001363000FEF7A6FE069A079BFEF788FEA0
:10535000002801D000260135AA46002F00D098E091
:105360002800FEF79BFE02000B001E981F99FEF717
:10537000EEFD854B002206000F00FEF763FE0CAB2E
:105380009A46002845D10022300039007E4BFEF7B6
:105390006FFE00283DD1EB073BD5013539E0229B5C
:1053A00042460493219B594603930A981E9B1F9CD7
:1053B0000295009301944B46FFF704FD15B0F0BC35
:1053C000BB46B246A946A046F0BD229B5B0767D408
:1053D00003226E4B2299019203912199029100932D
:1053E00042464B4659460A98FFF75EFBE6E706AA97
:1053F00094461723280063440A2101341E19FEF73E
:1054000043FB3031280031700A21FEF73DFB051EB9
:1054100076D0202CEBD10323229A1340012B1DD1EF
:10542000219B002B1AD00B9B002B00D0BBE0229AB3
:105430000C33134200D0B6E0219BA34200D887E092
:1054400006AB9C4617223023624404E021990134C4
:1054500013558C4259D0202CF8D12024229B019442
:105460000393219B02935346B9E706AA9446172358
:105470000A216344300001341D19FEF72DFB303141
:10548000297030000A21013FFEF726FB092E46D97C
:105490000600202CE9D155460CAB20249A46B8E7EB
:1054A00004223B4B96E71E9A1F9B00200021FEF72B
:1054B0004EFD01230B938023229C229ADB001E9039
:1054C0001F911C401A4200D0FCE60022314B0627F7
:1054D000069207930DE7229B0393219B02930423DB
:1054E00001932D4B7BE7002208980999264BFEF784
:1054F000A9FD002800D02FE7002E4FD101362BE761
:105500000323229A1340012B66D0202CA6D00B9B9C
:10551000002B1FD02D235246135501349EE75546CC
:10552000202CB9D030233A19002F08D0172006A913
:10553000013409180B55202CAED09442F6D10CAB97
:105540009A462E2352461355013462E72024CCE6B6
:10555000202C83D0229B5B0708D4229B1B0700D4FE
:105560007CE7202352461355013477E72B2352461C
:105570001355013472E7C046FFFFEFFFFFFFEF7FD7
:1055800065CDCD4165CDCDC10000E03F9CD7001079
:1055900094D7001080842E41A4D70010F30700D4C4
:1055A000DAE60136D8E6219B013B2193A34200D9DC
:1055B00046E7AAE7229B0393219B029303230193CF
:1055C000074B0CE7074BEA009B185C681B682F0031
:1055D0000693079400248CE6219B002B95D022E7AC
:1055E000A0D70010B8DB0010F0B55746DE464E4697
:1055F0004546E0B5A5B01F002E9B91460D93CA4AC3
:10560000CA4B82468B461A60002900D129E200234A
:1056100038789846002800D12BE2C54B44460C93BD
:10562000C44B55464E460E930AE0631C9846220032
:1056300033005946A84744463878002800D187E00F
:1056400001372528F1D108239A46043B9946023BAD
:105650009846013B00229C460B943878791C030045
:10566000203BDBB2102B03D80C9C9B00E3589F46D9
:105670000300303B0B9C0B92092B3AD90023984630
:105680002A2800D1DDE000239A462E284BD00300C3
:10569000683BDBB2122B1ED80E9A9B00D3589F4654
:1056A00063460F001A43D8E743460F001A43D4E776
:1056B0004B460F001A43D0E710230F001A43CCE7E4
:1056C00053460F001A43C8E780235B000B9A787893
:1056D0001A430B9201310F0067284FD82428A4D910
:1056E0000300253BDBB2422B9FD893499B00CB584C
:1056F0009F46002398460B9B47469C4600E001319D
:10570000BB00DB195B001F180878303F0300303BFB
:10571000092BF4D963460B930023B8469A460F0031
:1057200001312E28B3D180200B9AC00002430B9286
:1057300030225242944678780B0084446246092A0B
:1057400000D8AAE12A2800D1B9E10F0001319EE773
:10575000A046AA46B146C84503D301235B424B4449
:1057600098464B46424659460020D047200025B077
:10577000F0BCBB46B246A946A046F0BD010069395F
:10578000C9B20F2900D950E701238B409C466B4BCF
:10579000994663464A4613400F9362464B461A4267
:1057A00000D068E10A2956D0072900D03DE70D9BBB
:1057B00002CB9846002900D092E10B9B10211A00E1
:1057C0008A43100011310843814680201A00C0002E
:1057D0000240110003421CD114AB9C461F220F2330
:1057E00062440D959C4615000F9B0B9402E0202B04
:1057F0000CD0110064460C4020003730092C00D832
:1058000007380133E8540A090F29F0D80B9C0D9D85
:105810000F934B4608220693534605920832039293
:10582000002204930F9B029201931CAB2200009371
:10583000594633002800FFF78DF9434604000D93C5
:10584000FAE60D9B04CB9046002A79DB78780D931D
:105850000F00013117E70D9B02CB14930B789C4688
:1058600018005346002B00D134E1002815D05346D0
:10587000013B013399460D940B9C89444A460B0029
:10588000A14601E0934203D05C780133002CF9D1AA
:105890004A465B1A0D9C0B920F938023DB009946BE
:1058A0000B9A13400D934B461A4204D00F9B53455D
:1058B00001D953460F93022399460B9A13400B9339
:1058C0004B46134200D1F5E16346002B00D1D6E1EF
:1058D0000D9B002B00D182E10B1BD14631009A4673
:1058E0003B00A1442E005F464D4622009B46894660
:1058F00009E04B463900541CB0475346185D002858
:1059000000D192E122009542F3D14B465A46A94676
:10591000BB46350017001E004C460B9B002B00D0E9
:10592000ADE1149B0D9387E6E9550010401300206C
:105930001CDA001060DA0010ACDA001041900000B0
:105940000B9A283802430B9242465242787890468E
:105950000F000D93013196E678786C2800D15DE157
:1059600080230B9A5B001A430B920131B3E680232C
:105970009B00ABE67878682800D148E180230B9A39
:1059800001311A430B92A6E6672800D1B2E04728FE
:1059900000D11AE1452800D11CE10B9A072104929D
:1059A00042460D9B0392073352468B4319000292E5
:1059B0000CC92800009201930D9122003300594632
:1059C000FFF700FA040037E6462800D18DE00B9A75
:1059D0000721049242460D9B0392073352468B43A4
:1059E000190002920CC92800009201930D91220027
:1059F00033005946FFF718FC04001DE6631C984667
:105A00002200330059462520A847444614E60D9B42
:105A100004330F93631C99460B9B9A0700D40AE149
:105A20000D9B2200187859463300A847434644444A
:105A3000012B00D86FE1B0462E0025004C46B94638
:105A40005F4622004346013439002020B047AC4273
:105A5000F7D12C00BB4635004F4646460F9B0D93B1
:105A6000EAE5D64B38789A4600239846002800D0BD
:105A7000D3E500246FE66F2842D000D8FDE1102363
:105A8000782800D19BE00B9A9A430B920A239C46FC
:105A9000002314930A330F9338E057460B9AB9004A
:105AA000C919490001330F181878303F0100303907
:105AB0000929F4D9BA460B921F00591CE7E50D9B42
:105AC000B87804CB0237D143C9170A4092460D93E8
:105AD000791CDCE5002800D1DFE602235B42C8E642
