:020000041000EA
:10000000002008205D0100101301001015010010F0
:100010001101001011010010110100101101001058
:100020001101001011010010110100101701001042
:100030001101001011010010190100101B01001026
:100040001D0100101D0100101D0100101D010010F8
:100050001D0100101D0100101D0100101D010010E8
:100060001D0100101D0100101D0100101D010010D8
:100070001D0100101D0100101D0100101D010010C8
:100080001D0100101D0100101D0100101D010010B8
:100090001D0100101D0100101D0100101D010010A8
:1000A0001D0100101D0100101D0100101D01001098
:1000B0001D0100101D0100101D0100101D01001088
:1000C0001D0100101D0100101D0100101D01001078
:1000D0001D0100101D0100101D0100101D01001068
:1000E0001D0100101D0100101D0100101D01001058
:1000F0001D0100101D0100101D0100101D01001048
:100100001D0100101D0100101D0100101D01001037
:1001100000BE00BE00BE00BE00BE00BEEFF3058004
:10012000103800BEF2EB88718C370110BC3701101B
:10013000A801001090A31AE7D3DEFFFF42012110AF
:10014000FF01000038430100793512AB4FF0000089
:100150002049086006C881F3088810474FF05040D6
:10016000006810B14FF00000F2E70FA40ECC002998
:1001700002D000F015F8F9E71749184A002000E00E
:1001800001C19142FCD1002080F30A8814498847BC
:10019000144988471449884700BEFDE701C901C2D8
:1001A0009A42FBD3704700BFBC37011010010020FA
:1001B000C40D002070440110000008200000082039
:1001C00070440110001008200010082000000000FA
:1001D0007047000008ED00E0C40D0020A0130020CF
:1001E000B95A0010790200107D5A0010F8B500BF0E
:1001F000064B0749C91A891048BF0131491003D07D
:10020000044B0BB101481847704700BFC40D0020D4
:10021000C40D00200000000008B5054B1BB10549C6
:100220000548AFF30080BDE80840FFF7E1BF00BF1D
:10023000000000001013002040C0001008B50C4959
:100240000C4806F027F80321042002F0ABFB032141
:10025000052002F0A7FB00220121042002F0C0FBD0
:1002600000220121052002F0BBFB002008BD00BFD9
:10027000A0860100EC0600202DE9F04FADF2245DD0
:100280000DF5747950220021484606F0C3FF002383
:100290001920219302F0B8FB19234FF0010242EC20
:1002A0004430FFF7CBFF002840F0C78302F0F0FA9C
:1002B000652402F0D1FA05F02BFD04E0013C07D0E3
:1002C000642003F0D3F9002006F0B2F80028F5D03E
:1002D000B74805F0ABFD03F06DFA0B463C22002158
:1002E0000A9022A80B9306F095FF03F063FA0B46E1
:1002F0003C220021069031A8079306F08BFF03F003
:1003000059FA0B463C2200211C9040A81D9306F090
:1003100081FF03F04FFA0B463C2200210C904FA8BE
:100320000D9306F077FF03F045FA0B463C220021BF
:100330001A905EA81B9306F06DFF9E4801F082F8AC
:10034000059003F037FA3C2200216DA806F062FF09
:1003500003F030FA0B463C2200210E907CA80F934C
:1003600006F058FF03F026FA0B463C2200211090BD
:100370008BA8119306F04EFF03F01CFA0B463C22AB
:10038000002112909AA8139306F044FF03F012FA8A
:100390000B463C2200211490A9A8159306F03AFFC1
:1003A00003F008FA0B463C2200211690B8A81793D8
:1003B00006F030FF03F0FEF90B463C2200211E90B0
:1003C000C7A81F9306F026FF03F0F4F90B463C2262
:1003D00000211890D6A8199306F01CFF03F0EAF943
:1003E0000B4608903C220021E5A80993002706F05F
:1003F00011FFDFF8E8810DF5846503F0DBF90A9A57
:100400006D4B801A0B9A61EB0201984271F1000169
:1004100080F2C08003F0CEF9069A684B801A079AE2
:1004200061EB0201834277EB0101C0F2698103F0C5
:10043000C1F91C9BC01A1D9B61EB0301604B8342F9
:1004400077EB0101C0F2108203F0B4F90C9A5D4B16
:10045000801A0D9A61EB0201834277EB0101C0F231
:100460001B81594E6DAC0FCE0FC433682380059BA2
:10047000002B40F04F8103F09DF91A9A514B801ADE
:100480001B9A61EB02018342059B73EB0101C0F2F1
:10049000908203F08FF90E9A4A4B801A0F9A61EB03
:1004A0000201834277EB0101C0F2EB8003F082F995
:1004B000109A444B801A119A61EB0201834277EB48
:1004C0000101C0F2D08003F075F9129A3D4B801AF9
:1004D000139A61EB0201834277EB0101C0F2B58010
:1004E00003F068F9149A374B801A159A61EB0201F0
:1004F000834277EB0101C0F29A8003F05BF9169A10
:10050000304B801A179A61EB0201834277EB0101AD
:100510007FDB03F04FF91E9A2A4B801A1F9A61EB7A
:100520000201834277EB010165DB03F043F9189A7E
:10053000244B801A199A61EB0201834277EB010187
:100540004EDB03F037F9089A1E4B801A099A61EBCB
:100550000201834277EB0101BFF64FAF03F02AF9A6
:1005600003460020CDE9083105F0D8FB174B1B6886
:10057000002B40F37581811C00F02C82144AD0546A
:10058000124A01331360134B114A1349E5A805F0D1
:10059000E1F932E703F00EF919234FF00102CDE93A
:1005A0000A0142EC403003F005F9CDE9060131E7DC
:1005B0004CC0001060060020C0CF6A001FA10700D9
:1005C000FFE0F5053F420F00C0C0001028130020D7
:1005D000901200204C130020FCC1001088C10010B4
:1005E00003F0E8F8AE4BCDE9180193E80300D6908C
:1005F0008DF85C13A5E706234FF0000242EC403073
:10060000A84BC7AC0FCB07C424F8023B1B0C2370CC
:100610008BE703F0CFF8A44BCDE9160193E8030074
:10062000ADF8E412090CB8908DF8E61271E703F00A
:10063000C1F89E4BCDE9140193E80300ADF8A81270
:10064000090CA9908DF8AA1257E703F0B3F8984B5C
:10065000CDE9120193E80300ADF86C12090C9A90F1
:100660008DF86E123CE703F0A5F8924BCDE910012E
:1006700093E80300ADF83012090C8B908DF832121C
:1006800021E703F097F88C4BCDE90E0193E80300C6
:100690007C90ADF8F41109E703F08CF8874A4FAB72
:1006A0000C900D9107CA03C3C7A81A7005F040FC4F
:1006B000E5A805F03DFC4FA805F03AFC40A805F080
:1006C00037FC31A805F034FC22A805F031FC9AA8CB
:1006D00005F02EFCA9A805F02BFCB8A805F028FC15
:1006E0006DA805F0A3FB5EA805F022FC7CA805F030
:1006F0001FFC8BA805F01CFCD6A805F019FCB0E681
:1007000003F058F819234FF00002CDE9060142EC3E
:1007100040308CE6DFF8D0A1694E01F0C5FD00281D
:1007200044D000F007FA0446B8BB284601F08CFE1E
:100730002C5400F035FD02F073F8514621AA0DF259
:100740002F4006F0B9FC012840F059812199132966
:100750001FD859F82130013349F821306DA806F02F
:1007600057FFD0F13B0BD8D04C460DF5DA7C023860
:100770005946324654F8043B604405F001F983457C
:10078000ABEB000BC9D9AC42C7D06DA806F040FF57
:10079000EBE74C4805F0CCFBE0E76DA806F038FF2E
:1007A0004949C0F13B026DA806F086FD00F0F8FC57
:1007B00002F036F802F0FEFF1A9A444B801A1B9A98
:1007C00061EB0201834277EB0101BFF662AE02F0FA
:1007D000F1FF3F4A5EAB1A901B9107CA03C31A8010
:1007E0000A26DFF808A1DFF808B170B200F002FBBA
:1007F000324651465EA805F0ADF85EA806F008FF47
:10080000C1B25EA801F056FD00F0F8FB01F0ECFF6C
:100810004FF4AF7002F02AFF0B2402E0642002F0D4
:1008200025FF01F03BFD08B9013CF7D101F036FD91
:1008300090B1013ED9D1274E5EAC00F0B1FC01F081
:10084000EFFF0FCE0FC496E8030044F8040B24F822
:10085000021B090C21701CE6584605F0E7FAE8E790
:10086000821C7FF48BAE8EE602F0A4FF03464FF0AD
:10087000010B1948CDE91C3105F0D8FA174805F0ED
:10088000D5FA0021164805F053FB2E2005F08CFA0E
:10089000144805F04DFB5E465C46DFF858A05AE070
:1008A000BCC10010ACC10010A4C100109CC100105C
:1008B00094C100108CC1001084C10010B4C000109D
:1008C00040C10010D8C000109CC500103F420F006E
:1008D00024C200106CC1001068C0001078C0001065
:1008E000ACC0001048C00010D4C0001044C10010BB
:1008F00058C1001040C00010782B2FD002F05AFFD2
:1009000042F21073C01841F100034FF0FF316FF055
:100910000042814272EB030C3CBF08461346594625
:10092000CDE902032A4601234548009705F0D8FC8B
:10093000002813DB434805F0FBFA0F2E33D1404665
:10094000013405F0F5FA802C3FF47EAD14F00F066B
:100950005FFA84FB04D01BF07803CDD15046EAE760
:100960002146394805F0E4FA02F024FF42F2107300
:100970004FF0FF32C0186FF0004341F10001824296
:1009800073EB01063CBF104619462A46CDE9020129
:10099000012359462A48009705F0A2FC002804DBF1
:1009A000402005F001FA2948CAE72E2005F0FCF99D
:1009B000F9E702F0FFFE264A5EAB1A901B9107CAC8
:1009C00003C324481A8000F03DFD059000283FF441
:1009D00060AD05E7204AD754204B1F601368204ABA
:1009E000934212D01F491C4806F0BEFC00287FF439
:1009F000CAAD01465022484606F00CFCC3E50DF294
:100A00002441194805F094FAD0E6134B174A5B6865
:100A10009342E7D1164C174E4FF0060C0FCE0FC481
:100A200096E8070003C44FF0010E22704EEC40C060
:100A300002F0C0FECDE91E01D4E703F0CBF835E4A7
:100A4000EC06002044C00010ACC0001048C00010EC
:100A500024C20010600600209012002028130020FD
:100A60004255524EE8C1001008C100105F4F4E00C1
:100A70004C130020CCC100102DE9F0474FF0000AC4
:100A800082B08146002105208DF806A0112502F0D4
:100A90009BFE4AEC40500124254E0520002102F027
:100AA00093FE22460DF1070130688DF807400BF0E8
:100AB0009FFA514623460DF1060230680BF094FA76
:100AC0000520002102F080FE44EC4050052000216A
:100AD00002F07AFE9DF80630052023F0070343EA72
:100AE000090300218DF8063002F06EFE4AEC4050FA
:100AF0000520002102F068FE812322460DF1070146
:100B000030688DF807300BF073FA22460DF10601BC
:100B100030680BF06DFA0520002102F055FE44EC20
:100B200040500520002102F04FFE02B0BDE8F087E2
:100B30006C06002070B5002482B0052000218DF8DD
:100B40000640112502F040FE44EC405005200021F3
:100B500002F03AFE1223114E0DF107010122306816
:100B60008DF807300BF044FA012321460DF10602FF
:100B700030680BF039FA0520002102F025FE4FF015
:100B8000010343EC40500520002102F01DFE9DF8BA
:100B90000600C0F3401002B070BD00BF6C0600201C
:100BA0002DE9F04341F67861002405468D4A83B073
:100BB00005E0DCB252F82410002900F0BF808D421D
:100BC00004F10103F5D8884805F0B2F924014FF08B
:100BD0000008052000218DF80680C14602F0F4FDD2
:100BE000112748EC40700520002102F0EDFD1D2387
:100BF0007E4E0DF10701012230688DF807300BF0B1
:100C0000F7F9012341460DF1060230680BF0ECF9CB
:100C10000520002102F0D8FD4FF0010848EC40709B
:100C20000520002102F0D0FD9DF80630052023F0BC
:100C3000F003234300218DF8063002F0C5FD49EC96
:100C400040700520002102F0BFFD9D230DF107013A
:100C5000012230688DF807300BF0CAF901220DF13E
:100C6000060130680BF0C4F90520002102F0ACFD4C
:100C700048EC40700520002102F0A6FD5C4B9D422F
:100C80005ED841F678639D4200F0A9804FF223437D
:100C90009D428CBF40234423052000218DF806305F
:100CA00002F092FD49EC40700520002102F08CFD1D
:100CB000AF230DF10701012230688DF807300BF0EA
:100CC00097F901220DF1060130680BF091F905202A
:100CD000002102F079FD48EC40700520002102F06F
:100CE00073FD0023052000211D468DF806301124D8
:100CF00002F06AFD45EC40400520002102F064FD51
:100D0000B0230DF10701012230688DF807300BF098
:100D10006FF901220DF1060130680BF069F9052029
:100D2000002102F051FD4FF0010343EC404005204B
:100D3000002102F049FD03B0BDE8F083902446E7AE
:100D40000223052000218DF8063002F03DFD49EC1C
:100D500040700520002102F037FDB6230DF1070198
:100D6000012230688DF807300BF042F901220DF1B5
:100D7000060130680BF03CF90520002102F024FD4B
:100D800048EC40700520002102F01EFD6423052080
:100D900000218DF8063002F017FD49EC4070052067
:100DA000002102F011FDBA230DF107010122306884
:100DB0008DF807300BF01CF901220DF106013068A7
:100DC0000BF016F90520002102F0FEFC48EC407003
:100DD0000520002102F0F8FC03B0BDE8F0834823B1
:100DE0005AE700BF4CC8001070C200106C0600200B
:100DF0001FA107002DE9F04F0346002785B005200D
:100E0000002101938DF80E70112402F0DDFC47ECF7
:100E100040404FF0090B784D0520002102F0D4FC32
:100E20000DF10F01012228688DF80FB00BF0E0F8EA
:100E3000012339460DF10E0228680BF0D5F8052084
:100E4000002102F0C1FC012646EC404005200021B3
:100E500002F0BAFC9DF80E30052063F07F030021FC
:100E60008DF80E3002F0B0FC47EC40404FF0890A9C
:100E70000520002102F0A8FC32460DF10F01286880
:100E80008DF80FA00BF0B4F832460DF10E01286872
:100E90000BF0AEF80520002102F096FC46EC404035
:100EA0000520002102F090FC052000218DF80E7035
:100EB00002F08AFC47EC40400520002102F084FC4F
:100EC00032460DF10F0128688DF80FB00BF090F845
:100ED000334639460DF10E0228680BF085F80520DF
:100EE000002102F071FC46EC40400520002102F098
:100EF0006BFC9DF80E30052023F0700343F0700367
:100F000000218DF80E3002F05FFC47EC40400520D8
:100F1000002102F059FC32460DF10F0128688DF8CE
:100F20000FA00BF065F832460DF10E0128680BF0AA
:100F30005FF80520002102F047FC46EC4040052008
:100F4000002102F041FC052000218DF80E7002F016
:100F50003BFC47EC40400520002102F035FC3246C6
:100F60000DF10F0128688DF80FB00BF041F83346F2
:100F700039460DF10E0228680BF036F805200021E5
:100F800002F022FC46EC40400520002102F01CFC4F
:100F9000019B9DF80E2043EAE3730E2BA8BF0E239E
:100FA00022F00F0233441343052000218DF80E3048
:100FB00002F00AFC47EC40400520002102F004FC4E
:100FC00032460DF10F0128688DF80FA00BF010F8D4
:100FD00032460DF10E0128680BF00AF805200021B9
:100FE00002F0F2FB46EC40400520002102F0ECFB51
:100FF00005B0BDE8F08F00BF6C0600202DE9F0437E
:10100000002783B0052000218DF80670112402F01E
:10101000DBFB47EC40400520002102F0D5FB4023DC
:101020005E4D0DF10701012228688DF807300AF0A6
:10103000DFFF012339460DF1060228680AF0D4FFCC
:101040000520002102F0C0FB012646EC40400520AF
:10105000002102F0B9FB9DF80630052023F0C00303
:1010600043F0400300218DF8063002F0ADFB47EC61
:1010700040400520002102F0A7FBC02332460DF1BD
:10108000070128688DF807300AF0B2FF32460DF1EB
:10109000060128680AF0ACFF0520002102F094FB4D
:1010A00046EC40400520002102F08EFB0520002187
:1010B0008DF8067002F088FB47EC404005200021C7
:1010C00002F082FB922332460DF1070128688DF869
:1010D00007300AF08DFF32460DF1060128680AF04C
:1010E00087FF0520002102F06FFB46EC4040052001
:1010F000002102F069FB052000218DF8067002F046
:1011000063FB47EC40400520002102F05DFB3246C6
:101110000DF1070128688DF807600AF069FF334672
:1011200039460DF1060228680AF05EFF052000210D
:1011300002F04AFB46EC40400520002102F044FB4F
:101140009DF80630052023F0070343F00303002138
:101150008DF8063002F038FB47EC404005200021B6
:1011600002F032FB812332460DF1070128688DF829
:1011700007300AF03DFF32460DF1060128680AF0FB
:1011800037FF0520002102F01FFB46EC4040052000
:10119000002102F019FB03B0BDE8F0836C060020CB
:1011A0002DE9F043002683B0052000218DF806606C
:1011B000112502F009FB46EC40500520002102F009
:1011C00003FB40239D4C0DF10701012220688DF89F
:1011D00007300AF00DFF012331460DF106022068A9
:1011E0000AF002FF0520002102F0EEFA4FF001079D
:1011F00047EC40500520002102F0E6FA9DF8063049
:10120000052023F0C00300218DF8063002F0DCFA3F
:1012100046EC40500520002102F0D6FAC0230DF123
:101220000701012220688DF807300AF0E1FE012253
:101230000DF1060120680AF0DBFE0520002102F016
:10124000C3FA47EC40500520002102F0BDFAFF230D
:10125000052000218DF8063002F0B6FA46EC405029
:101260000520002102F0B0FA92230DF107010122BE
:1012700020688DF807300AF0BBFE01220DF106014F
:1012800020680AF0B5FE0520002102F09DFA47EC27
:1012900040500520002102F097FA052000218DF82A
:1012A000066002F091FA46EC40500520002102F061
:1012B0008BFA12230DF10701012220688DF8073007
:1012C0000AF096FE012331460DF1060220680AF06D
:1012D0008BFE0520002102F077FA47EC40500520F4
:1012E000002102F071FA9DF80630002B40F0A18039
:1012F0004FF00009052000218DF80690112502F01D
:1013000063FA49EC40500520002102F05DFA8D237C
:101310000DF10701012220688DF807300AF068FE00
:1013200001220DF1060120680AF062FE052000216D
:1013300002F04AFA012646EC40500520002102F056
:1013400043FA052000218DF8069002F03DFA49ECA1
:1013500040500520002102F037FA902332460DF16B
:10136000070120688DF807300AF042FE32460DF181
:10137000060120680AF03CFE0520002102F024FA54
:1013800046EC40500520002102F01EFA0520002105
:101390008DF8069002F018FA49EC40500520002123
:1013A00002F012FA32460DF1070120688DF807604D
:1013B0000AF01EFE334649460DF1060220680AF087
:1013C00013FE0520002102F0FFF946EC40500520F5
:1013D000002102F0F9F99DF80630052023F00703FB
:1013E00043F0050300218DF8063002F0EDF949ECD9
:1013F00040500520002102F0E7F9812332460DF12B
:10140000070120688DF807300AF0F2FD32460DF131
:10141000060120680AF0ECFD0520002102F0D4F955
:1014200046EC40500520002102F0CEF903B0BDE8A3
:10143000F083034804F0FAFC5AE700BF6C06002072
:1014400094C200102DE9F0470027064682B015200F
:1014500001F0DAFA1524B94647EC44403A463946D9
:10146000204601F0BDFA4FF0010848EC4040112041
:1014700001F0CAFA112548EC44503A46394628464C
:1014800001F0AEFA48EC40500121122001F08AFA36
:101490000121132001F086FA0121102001F082FAC7
:1014A00048EC444047EC40406420002102F0C6F87C
:1014B00047EC4440A84C052002F0D8F80A2002F07E
:1014C000B5F92068A549B06004F028FF20684FF006
:1014D000020E0346C22653F8041F00F5805C03F594
:1014E0004052C2F800E0026801EA0E0182F00702F1
:1014F00003F5005302F0CF02CCF800208DF8057000
:1015000019608DF8076047EC405001220DF107018A
:101510000AF06EFD0123394620680DF105020AF03C
:1015200063FD48EC40508E4A8E4B012814BF104694
:10153000184604F0FDFC8C4B9DF805108B48A94221
:1015400018BF184604F0F4FC142001F05DFA1420D2
:1015500047EC44000122394601F042FA05200021FF
:101560008DF8067002F030F947EC40500126052056
:10157000002102F029F932460DF1070120688DF8AB
:1015800007600AF035FD334639460DF10602206842
:101590000AF02AFD0520002102F016F948EC40501F
:1015A0000520002102F010F99DF80630052023F0F7
:1015B000070300218DF8063002F006F947EC405091
:1015C0004FF0810A0520002102F0FEF832460DF1AD
:1015D000070120688DF807A00AF00AFD32460DF1D8
:1015E000060120680AF004FD0520002102F0ECF855
:1015F00048EC40500021052002F0E6F80A2002F0F5
:1016000035F8052000218DF8067002F0DDF847EC72
:1016100040500520002102F0D7F832460DF10701B5
:1016200020688DF807600AF0E3FC334639460DF177
:10163000060220680AF0D8FC0520002102F0C4F858
:1016400048EC40500520002102F0BEF89DF806301D
:10165000052063F07F0300218DF8063002F0B4F816
:1016600047EC40500520002102F0AEF832460DF163
:10167000070120688DF807A00AF0BAFC32460DF188
:10168000060120680AF0B4FC0520002102F09CF855
:1016900048EC40500021052002F096F80A2001F0A5
:1016A000E5FF052000218DF8067002F08DF847EC6B
:1016B00040500520002102F087F832460DF1070165
:1016C00020688DF807600AF093FC334639460DF127
:1016D000060220680AF088FC0520002102F074F858
:1016E00048EC40500520002102F06EF89DF806708D
:1016F00017F0070728D1052000218DF8067002F0A9
:1017000063F849EC40500520002102F05DF83246B4
:101710000DF1070120688DF807600AF069FC334677
:1017200039460DF1060220680AF05EFC0520002112
:1017300002F04AF848EC40500520002102F044F83D
:101740009DF80660F60915D1094804F06FFB0120E9
:1017500002B0BDE8F08700BF6C060020404B4C0093
:10176000E4C20010C8C2001000C3001020C3001063
:1017700050C300103046FFF77FF9052000218DF897
:10178000067002F021F849EC40500520002102F0DB
:101790001BF88E2332460DF1070120688DF80730C3
:1017A0000AF026FC32460DF1060120680AF020FC02
:1017B0000520002102F008F848EC405005200021E7
:1017C00002F002F8052000218DF8067001F0FCFF00
:1017D00049EC40500520002101F0F6FF8F233246EE
:1017E0000DF1070120688DF807300AF001FC324640
:1017F0000DF1060120680AF0FBFB0520002101F035
:10180000E3FF48EC40500520002101F0DDFF6D238F
:10181000052000218DF8063001F0D6FF49EC40503C
:101820004FF0860A0520002101F0CEFF32460DF16F
:10183000070120688DF807A00AF0DAFB32460DF1A7
:10184000060120680AF0D4FB0520002101F0BCFF4E
:1018500048EC40500520002101F0B6FF0520002192
:101860008DF806A001F0B0FF49EC405005200021A2
:1018700001F0AAFF872332460DF1070120688DF899
:1018800007300AF0B5FB32460DF1060120680AF078
:10189000AFFB0520002101F097FF48EC40500520E8
:1018A000002101F091FF6623052000218DF806300C
:1018B00001F08AFF49EC40500520002101F084FF2F
:1018C000882332460DF1070120688DF807300AF0B1
:1018D0008FFB32460DF1060120680AF089FB0520D6
:1018E000002101F071FF48EC40500520002101F07B
:1018F0006BFFB449B44804F01BFB052000218DF8B0
:10190000067001F061FF49EC40500520002101F014
:101910005BFFA02332460DF1070120688DF80730E8
:101920000AF066FB32460DF1060120680AF060FB02
:101930000520002101F048FF48EC4050052000211F
:1019400001F042FF0823052000218DF8063001F048
:101950003BFF49EC40500520002101F035FFA12359
:1019600032460DF1070120688DF807300AF040FB80
:1019700032460DF1060120680AF03AFB05200021ED
:1019800001F022FF48EC40500520002101F01CFF2F
:10199000052000218DF8067001F016FF49EC40503B
:1019A0000520002101F010FF202332460DF1070130
:1019B00020688DF807300AF01BFB334639460DF1DD
:1019C000060220680AF010FB0520002101F0FCFE51
:1019D00048EC40500520002101F0F6FE05200021D2
:1019E0009DF806A08DF8067001F0EEFE49EC40501F
:1019F0000520002101F0E8FE212332460DF1070108
:101A000020688DF807300AF0F3FA334639460DF1B5
:101A1000060220680AF0E8FA0520002101F0D4FE51
:101A200048EC40500520002101F0CEFE9DF8063024
:101A300043EA0A23082B40F018840025634F11263F
:101A40003846FFF7ADF8052000218DF8065001F06B
:101A5000BBFE45EC40600520002101F0B5FE1D23D2
:101A60000DF10701012220688DF807300AF0C0FA55
:101A7000012329460DF1060220680AF0B5FA052077
:101A8000002101F0A1FE4FF0010343EC406005206E
:101A9000002101F099FE9DF806308F2B4FEA1312BA
:101AA00000F2E8834A4B53F82230BB4240F0E28315
:101AB00000260521474804F03BFA052000218DF857
:101AC0000660112501F080FE46EC40504FF01D09E4
:101AD0000520002101F078FE0DF1070101222068A8
:101AE0008DF807900AF084FA012331460DF10602C1
:101AF00020680AF079FA0520002101F065FE4FF018
:101B0000010747EC40500520002101F05DFE9DF8E3
:101B10000630052023F00E0343F0020300218DF868
:101B2000063001F051FE46EC40500520002101F046
:101B30004BFE9D230DF10701012220688DF807302F
:101B40000AF056FA01220DF1060120680AF050FA57
:101B50000520002101F038FE47EC4050052000210F
:101B600001F032FE052000218DF8066001F02CFE08
:101B700046EC40500520002101F026FE0DF1070142
:101B8000012220688DF807900AF032FA01233146CD
:101B90000DF1060220680AF027FA0520002101F065
:101BA00013FE47EC40500520002101F00DFE9DF88A
:101BB000063003F00E03022B10D0074804F0B8F9EA
:101BC0000CE000BF20E01C1A30C2001048E8010001
:101BD0004CC8001050C20010ECC3001000260520B5
:101BE00000218DF80660112501F0EEFD46EC405015
:101BF0004FF01E090520002101F0E6FD0DF107015F
:101C0000012220688DF807900AF0F2F9012331468D
:101C10000DF1060220680AF0E7F90520002101F025
:101C2000D3FD4FF0010747EC40500520002101F0A3
:101C3000CBFD9DF80630052023F0F00343F0700340
:101C400000218DF8063001F0BFFD46EC4050052024
:101C5000002101F0B9FD9E230DF10701012220684A
:101C60008DF807300AF0C4F901220DF10601206851
:101C70000AF0BEF90520002101F0A6FD47EC405016
:101C80000520002101F0A0FD052000218DF806604F
:101C900001F09AFD46EC40500520002101F094FD32
:101CA0000DF10701012220688DF807900AF0A0F9D4
:101CB000012331460DF1060220680AF095F905204E
:101CC000002101F081FD47EC40500520002101F08A
:101CD0007BFD9DF806301B09072B02D0C14804F09C
:101CE00027F90026052000218DF80660112501F056
:101CF0006BFD46EC40504FF01E090520002101F01D
:101D000063FD0DF10701012220688DF807900AF0AC
:101D10006FF9012331460DF1060220680AF064F9DB
:101D20000520002101F050FD4FF0010747EC405025
:101D30000520002101F048FD9DF80630052043F004
:101D4000040300218DF8063001F03EFD46EC4050C2
:101D50000520002101F038FD9E230DF1070101222D
:101D600020688DF807300AF043F901220DF10601D1
:101D700020680AF03DF90520002101F025FD47EC1F
:101D800040500520002101F01FFD052000218DF8A5
:101D9000066001F019FD46EC40500520002101F0DD
:101DA00013FD0DF10701012220688DF807900AF05C
:101DB0001FF9012331460DF1060220680AF014F9DB
:101DC0000520002101F000FD47EC405005200021D6
:101DD00001F0FAFC9DF80630580702D4824804F05E
:101DE000A7F80026052000218DF80660112501F0D6
:101DF000EBFC46EC40504FF026090520002101F095
:101E0000E3FC0DF10701012220688DF807900AF02C
:101E1000EFF8012331460DF1060220680AF0E4F8DC
:101E20000520002101F0D0FC4FF0010747EC4050A5
:101E30000520002101F0C8FC9DF80630052043F084
:101E4000040300218DF8063001F0BEFC46EC405042
:101E50000520002101F0B8FCA6230DF107010122A5
:101E600020688DF807300AF0C3F801220DF1060151
:101E700020680AF0BDF80520002101F0A5FC47EC20
:101E800040500520002101F09FFC052000218DF825
:101E9000066001F099FC46EC40500520002101F05D
:101EA00093FC0DF10701012220688DF807900AF0DC
:101EB0009FF8012331460DF1060220680AF094F8DC
:101EC0000520002101F080FC47EC40500021052056
:101ED00001F07AFC9DF80630590702D4434804F01B
:101EE00027F80026052000218DF80660112501F055
:101EF0006BFC46EC40504FF026090520002101F014
:101F000063FC0DF10701012220688DF807900AF0AB
:101F10006FF8012331460DF1060220680AF064F8DB
:101F20000520002101F050FC4FF0010747EC405024
:101F30000520002101F048FC9DF80630052043F003
:101F4000080300218DF8063001F03EFC46EC4050BD
:101F50000520002101F038FCA6230DF10701012224
:101F600020688DF807300AF043F801220DF10601D0
:101F700020680AF03DF80520002101F025FC47EC1F
:101F800040500520002101F01FFC052000218DF8A4
:101F9000066001F019FC46EC40500520002101F0DC
:101FA00013FC0DF10701012220688DF807900AF05B
:101FB0001FF8012331460DF1060220680AF014F8DB
:101FC0000520002101F000FC47EC405005200021D5
:101FD00001F0FAFB9DF806301A070BD4044803F011
:101FE000A7FF07E01CC4001050C4001080C40010FC
:101FF000A8C4001000260F20FEF7FCFE05200021DB
:102000008DF80660112501F0DFFB46EC40500520FD
:10201000002101F0D9FB09230DF1070101222068FD
:102020008DF8073009F0E4FF012331460DF1060277
:10203000206809F0D9FF0520002101F0C5FB4FF011
:10204000010747EC40500021052001F0BDFB8D4801
:1020500003F06EFF052000218DF8066001F0B4FB4F
:1020600046EC40504FF00A090520002101F0ACFB7E
:102070000DF10701012220688DF8079009F0B8FFE3
:10208000012331460DF10602206809F0ADFF05205D
:10209000002101F099FB47EC40500520002101F0A0
:1020A00093FB9DF80630052023F00F0300218DF8E7
:1020B000063001F089FB46EC40500520002101F07C
:1020C00083FB8A230DF10701012220688DF8073078
:1020D00009F08EFF01220DF10601206809F088FF4A
:1020E0000520002101F070FB47EC40500520002145
:1020F00001F06AFB052000218DF8066001F064FB09
:1021000046EC40500520002101F05EFB0DF1070177
:10211000012220688DF8079009F06AFF01233146FB
:102120000DF10602206809F05FFF0520002101F093
:102130004BFB47EC40500520002101F045FB9DF88A
:1021400006301B0740F09A800026052000218DF8FC
:102150000660112501F038FB46EC40504FF00C09A9
:102160000520002101F030FB0DF10701012220685C
:102170008DF8079009F03CFF012331460DF106026E
:10218000206809F031FF0520002101F01DFB4FF010
:10219000010747EC40500520002101F015FB9DF898
:1021A0000630052023F0030343F0030300218DF8DC
:1021B000063001F009FB46EC40500520002101F0FB
:1021C00003FB8C230DF10701012220688DF80730F5
:1021D00009F00EFF01220DF10601206809F008FF49
:1021E0000520002101F0F0FA47EC405005200021C5
:1021F00001F0EAFA052000218DF8066001F0E4FA0A
:1022000046EC40500520002101F0DEFA0DF10701F7
:10221000012220688DF8079009F0EAFE012331467B
:102220000DF10602206809F0DFFE0520002101F013
:10223000CBFA47EC40500520002101F0C5FA9DF88B
:10224000063003F00303032B02D00F4803F070FEA7
:10225000FEF7A6FF0D4803F0E9FD9DF805001138D3
:1022600018BF012002B0BDE8F087094803F060FE06
:10227000FFF7E3BB074803F05BFE19E4064803F0F1
:1022800057FE61E7D0C400102CC500105CC50010DB
:102290007CC30010B0C3001000C500104FF05043C5
:1022A0005868C0F3005070474FF050435868C0F36F
:1022B000005070472DE9F04F002783B083468A46CF
:1022C000052000218DF80670112501F07DFA47ECFC
:1022D000405001245B4E0520002101F075FA224692
:1022E0000DF1070130688DF8074009F081FE2346A3
:1022F00039460DF10602306809F076FE052000210E
:1023000001F062FA44EC40500520002101F05CFA33
:102310009DF80630052023F00703234300218DF8A4
:10232000063001F051FA47EC40500520002101F041
:102330004BFA812322460DF1070130688DF80730F2
:1023400009F056FE22460DF10601306809F050FEF4
:102350000520002101F038FA44EC4050052000210E
:1023600001F032FA052000218DF8067001F02CFAF8
:1023700047EC40500520002101F026FA8D2322462B
:102380000DF1070130688DF8073009F031FE224663
:102390000DF10601306809F02BFE0520002101F047
:1023A00013FA44EC40500520002101F00DFA0520FD
:1023B000002101F009FA47EC40500520002101F00E
:1023C00003FA802322460DF1070130688DF80730AB
:1023D00009F00EFE52465946306809F009FE052004
:1023E000002101F0F1F944EC40500520002101F0FA
:1023F000EBF9052000218DF806A001F0E5F947EC86
:1024000040500520002101F0DFF9A22322460DF102
:10241000070130688DF8073009F0EAFD22460DF11A
:102420000601306809F0E4FD0520002101F0CCF937
:1024300044EC40500520002101F0C6F9384603B0B5
:10244000BDE8F08F6C0600202DE9F04F002783B027
:102450008246002105208DF80670112601F0B4F99E
:1024600047EC40600125A64C0520002101F0ACF9A5
:102470002A460DF1070120688DF8075009F0B8FDD4
:102480002B4639460DF10602206809F0ADFD052006
:10249000002101F099F945EC40600520002101F090
:1024A00093F99DF80680052000218DF8067008F04C
:1024B000070801F089F947EC40600520002101F090
:1024C00083F92A460DF1070120688DF8075009F0BD
:1024D0008FFD2B4639460DF10602206809F084FD78
:1024E0000520002101F070F945EC40600520002135
:1024F00001F06AF99DF80630052023F007032B430D
:1025000000218DF8063001F05FF947EC40600520AE
:10251000002101F059F981232A460DF107012068B5
:102520008DF8073009F064FD2A460DF10601206898
:1025300009F05EFD0520002101F046F945EC406000
:102540000520002101F040F9052000218DF80670DA
:1025500001F03AF947EC40600520002101F034F920
:102560001E232A460DF1070120688DF8073009F077
:102570003FFD2B4639460DF10602206809F034FD77
:102580000520002101F020F945EC406005200021E4
:1025900001F01AF99DF806305A072AD505200021C6
:1025A0008DF8067001F010F947EC4060052000211D
:1025B00001F00AF912232A460DF1070120688DF86F
:1025C000073009F015FD2B4639460DF1060220684B
:1025D00009F00AFD0520002101F0F6F845EC406005
:1025E0000520002101F0F0F89DF806309B0600F16F
:1025F000F5800025052000218DF80650112601F0F8
:10260000E3F845EC40600520002101F0DDF81323DC
:102610000DF10701012220688DF8073009F0E8FC70
:10262000012329460DF10602206809F0DDFC052092
:10263000002101F0C9F84FF0010949EC4060052084
:10264000002101F0C1F89DF80670002F5AD14FF01B
:10265000000B052000218DF806B0112601F0B4F81A
:102660004BEC406001250520002101F0ADF82A4621
:102670000DF1070120688DF8075009F0B9FC2B46D1
:1026800059460DF10602206809F0AEFC0520002134
:1026900001F09AF845EC40600520002101F094F823
:1026A0009DF80630052023F0070343EA08030021C4
:1026B0008DF8063001F088F84BEC406005200021D1
:1026C00001F082F881232A460DF1070120688DF878
:1026D000073009F08DFC2A460DF10601206809F04B
:1026E00087FC0520002101F06FF845EC40600520D3
:1026F000002101F069F8384603B0BDE8F08F00BF53
:102700006C060020052000218DF8065001F05CF8D1
:1027100045EC40600520002101F056F810230DF132
:102720000701012220688DF8073009F061FC0123C0
:1027300029460DF10602206809F056FC052000210B
:1027400001F042F849EC40600520002101F03CF81E
:102750000520002101F038F845EC406005200021FB
:1027600001F032F88D230DF10701012220688DF868
:10277000073009F03DFC01220DF10601206809F047
:1027800037FC0520002101F01FF849EC40600520CE
:10279000002101F019F80520002101F015F845ECA1
:1027A00040600520002101F00FF80DF10701012222
:1027B00020688DF8075009F01BFC3B46524629461D
:1027C000206809F011FC0520002100F0FDFF49EC14
:1027D00040600520002100F0F7FF38E7014803F0D2
:1027E00025FB34E77CC5001001230B490B4A086820
:1027F000126800F110018B4051681942FCD14FF46E
:10280000801102EB8000016151680B42FCD14FF452
:1028100080130361704700BF0413002000130020E1
:1028200001230B490B4A0868126800F110018B4024
:1028300051681942FCD14FF0006102EB8000016148
:1028400051680B42FCD14FF000630361704700BF39
:10285000041300200013002001230A490A4A0868D3
:10286000126800F110018B4051681942FCD10749F0
:1028700002EB8000016151680B42FCD1034B036104
:10288000704700BF04130020001300200001010165
:1028900070B502218EB03A4803F04AFB01220221B2
:1028A000CDE901220091374809AB08AA07A903F036
:1028B00087FE002860D0DDE90856079C022004F15D
:1028C0002F4101F56001090D0631C9B200F06AF827
:1028D0000123022229460093204603F0D7FD4FF43E
:1028E0008033294A0A930C92F301F21C274943EAE8
:1028F000023323F0C04305200B930D9101F0D6F86D
:1029000007EE100A9FED226AB8EE477ADFED216AE2
:10291000C7EE067A77EEA67ABCEEE77A17EE103AA3
:102920009BB23BB307EE103AB8EE477ADFED1A6A76
:1029300077EEC77A67EEA67AFCEEE77ACDED057AF8
:102940009DF81400000240EA0340324629460AABD3
:102950000A90204603F0E0FD0121002022680F4E7E
:102960000F4BA94011432160DDE9071231601A6065
:102970000EB070BD1846E6E701F02CF99BE700BFEA
:10298000A8C5001074C800100000067000080020E0
:102990000024F44A0000003B0000804300130020A4
:1029A0000413002010B44FF480740C4B53F8202013
:1029B00003EB8003C00082F0400200F1804003F589
:1029C000805C02F0C00200F5203003F54053CCF8E3
:1029D000002041601C605DF8044B70470480034098
:1029E00010B4084CC90041EA820154F8202004EBDD
:1029F0008003514003F5805301F00C015DF8044B56
:102A0000196070470480034030B44FF0000343EC7A
:102A1000440043EC400005254FF480740B4BC2008A
:102A200053F8201003EB800081F0400102F1804355
:102A300003F5203301F0C00200F5805100F540504D
:102A40000A605D60046030BC704700BF04800340D2
:102A50000FB400B583B0049C074803F0E7F93CB11C
:102A600005A92046019102F0D9FF044803F0DEF9E0
:102A7000012002F0EBFF00BFD0C5001088C100109C
:102A8000EFF3108072B6064BD3E8CF1F0122002966
:102A9000FAD1C3E8412F0029F6D1BFF35F8F704709
:102AA0000B1200200023034AC2E88F3F80F31088F6
:102AB000704700BF0B12002070B58646EFF31085FB
:102AC00072B6124CD4E8CF6F0120002EFAD1C4E8C0
:102AD000460F002EF6D1BFF35F8F4FF0010CC808F0
:102AE00001F007030CFA03F31EF800C01CEA03060A
:102AF00008D14CEA030C0EF800C0C4E88F6F85F3D0
:102B0000108870BD1046FFF7A3FF00BF0B12002016
:102B1000F8B5EFF3108572B6234CD4E8CF7F0126C9
:102B2000002FFAD1C4E8476F002FF6D1BFF35F8FB3
:102B30009A4227D80126D70810F807E002F0070CC0
:102B400006FA0CFC1EEA0C0F00EBD2070DD125E0B3
:102B50004FEAD20E10F80EE002F0070C06FA0CFC59
:102B60001EEA0C0F00EBD20718D001329342EFD2CD
:102B70004FF0FF300023C4E88F3F85F31088984260
:102B800007DBF8BD0023C4E88F3F85F310884FF0C2
:102B9000FF300029F5D00698FFF75AFF4EEA0C0ED9
:102BA000104687F800E0E5E70B12002000B5EFF3D0
:102BB000108E72B6104BD3E8CFCF0122BCF1000FBC
:102BC000F9D1C3E84C2FBCF1000FF4D1BFF35F8FF4
:102BD00001224FEAD10C01F0070102FA01F110F8CD
:102BE0000C2022EA010200F80C200022C3E88F2FFB
:102BF0008EF310885DF804FB0B120020044A107855
:102C0000431CDBB2182B28BF10231370704700BF82
:102C1000700600204FF0E022936843F00053936069
:102C2000704700BF0021044B03F12002C3E88F1F4F
:102C300001339342FAD17047001200204FF0E02395
:102C40004FF08032C3F80024C3F80424C3F80824EA
:102C5000C3F80C24C3F81024C3F81424C3F81824B0
:102C6000C3F81C24C3F82024C3F82424C3F8282460
:102C7000C3F82C24C3F83024704700BF012300F0B0
:102C80001F029340400941B1800000F1604000F50F
:102C90006140C0F8803103607047024A203042F83A
:102CA0002030704700E100E0F8B50D46EFF31087E3
:102CB00072B6124ED6E8CF2F0123002AFAD1C6E809
:102CC000423F002AF6D1BFF35F8F0D4B00F1100495
:102CD0009B680C4A53F82430934203D0994201D0A8
:102CE00000F078FF064B9B6843F82450BFF35F8FDA
:102CF0000023C6E88F3F87F31088F8BD0912002033
:102D000000ED00E01D0100102DE9F04F83B0EFF35E
:102D1000108A72B6744ED6E8CF2F0123002AFAD15A
:102D2000C6E8423F002AF6D1BFF35F8F6F4B00F138
:102D300010089B686E4A53F8285095423FD08D4248
:102D40000C464AD06B4FEB1B2F2B38D801214FEA92
:102D500050194FEA890909F1604909F5614900F004
:102D60001F0301FA03F0D9F80030C9F8800000EA27
:102D7000030BBFF35F8FEFF30581C9B279B38845C9
:102D800077D125F0010EDEF808C0644505D17CE05E
:102D9000D3F808C0644532D09E469EF9062002EB67
:102DA0004203002A07EB8303F2DA644500F08180D6
:102DB000BBF1000F20D0C9F88001C9F800004B4BCF
:102DC0009B6843F82850BFF35F8F0023C6E88F3F0E
:102DD0008AF3108803B0BDE8F08F1546EFE725F0C1
:102DE000010EDEF808C06445D7D19EF9064073464F
:102DF000002C08DA154666E0C9F88000DFE793F991
:102E00000640002C56DB04EB440C07EB8C0CDCF882
:102E1000082061009A609CF80720DA719CF906206E
:102E2000002A9A715DDBBCF80420520504D502F536
:102E3000FF1202F5FF521F32521502F1020C4FF041
:102E4000040E0C2212FB04E202EB4C026FF0070CA2
:102E50003A44ACEB030C6244C2F34A0242F46042CF
:102E60009A80254B21441A7807EB81011C708A71E6
:102E70009EE7CDE9000100F0ADFEDDE9000125F09F
:102E8000010EDEF808C0644587D19EF906407346FE
:102E9000002CB8DA194A1A4CD21A083AC2F30A318D
:102EA0006FEA01516FEA115144EA5202DA809980C7
:102EB0007EE773460029EDD1FF228EF806204BF6FF
:102EC0000152AEF804200C4C4AF6AA2294F800C035
:102ED0001946C91B49414A43120D83F806C02270A6
:102EE00066E74BF60152BBE70912002000ED00E057
:102EF0001D010010740600209C130020AE06002067
:102F000000F8FFFFF0B5EFF30585EDB2EFF3108C9D
:102F100072B62649D1E8CF2F0123002AFAD1C1E8A1
:102F2000423F002AF6D1BFF35F8F214E40F0010EE1
:102F3000B4684AF6AA2354F825701E4A0446A41A17
:102F4000644163431B0D77455BB21BD092F9064089
:102F50009C421CD092F912409C4223D092F91E4010
:102F60009C4221D092F92A409C4208BF03240FD0F2
:102F7000114A0024157813708571C1E88F4F8CF3C6
:102F80001088F0BDB2680D4C42F82540F0E70024EF
:102F900004EB440402EB8402FF2494714BF60154C9
:102FA0009480E5E70124F3E70224F1E70912002009
:102FB00000ED00E0740600209C1300201D010010AD
:102FC000014B0B44036070470012002070B5104C99
:102FD000104DAC420ED2FF26236863B1FFF70EFE00
:102FE00001462046FFF7ECFFA680BFF35F8F083451
:102FF000AC42F1D370BDFFF701FE01462046FFF75A
:10300000DFFF2671BFF35F8F0834AC42E4D370BD9D
:10301000BC0D0020C40D00200D4B1A68EFF3108189
:1030200072B6D2E8CFCF0120BCF1000FF9D1C2E8CF
:103030004C0FBCF1000FF4D1BFF35F8F00221B686F
:10304000C3E88F2F81F3108840BF00200021704714
:1030500090130020000000002DE9F04F2DED028BB1
:1030600085B0EFF30583DBB2103B9A0818BF01224D
:103070004FF0010103F0030018BFAB4DAB4B08BF8D
:10308000AB4D00EB820201FA00FB53F8226005F51C
:1030900041539FEDA38B0190C3F804B0CDF800B06D
:1030A0002AE0B388180440F18C80B379002B40F0FB
:1030B000D580B6F908100029C0F21581736901EBBB
:1030C000410103EBC103D3E90247B7F1FF3F08BF5A
:1030D000B4F1FF3F09D0019B05EB8301AB6A0A699C
:1030E000D21AE31A934238BF0C61284600F05AFB0B
:1030F000A042B941C0F2F780B6F90840009B002C0D
:10310000EB63CEDBD6F8149004EB440A284609EBB7
:10311000CA07D7E902B800F045FB584571EB080132
:10312000BFDBB8F1000FC0F2C180D7E90431814A9A
:10313000934200F0EA807A88B6F9080092B242EA37
:103140000040984702460B4652EA030100F0AE8069
:10315000002B80F2CE80BBEB020B68EB030839F941
:103160003A30C7E902B8002B9BDB716903EB4302DD
:1031700001EBC202D2E90270BB4578EB000C4FEACA
:1031800043028EDBB4462CF8083F0BE031F93230B5
:10319000F446002B0DDB03EB430001EBC0005A00AB
:1031A000D0E90270BB451A4478EB000001EBC20E77
:1031B000ECDA29F83A30ACF80040B38818043FF54F
:1031C00074AF3369EFF3108272B6D3E8CF0F0121E9
:1031D0000028FAD1C3E8401F0028F6D1BFF35F8F63
:1031E0004FF6FF74B0880023316900B2B480C1E8A3
:1031F0008F3F82F310889842FFF657AF0746A946E3
:10320000746906F1080807EB470E04EBCE03D3E917
:103210000250B6F90830C446002BA8BFB34605DA01
:103220000FE034F93A309446002B09DB03EB430AF4
:1032300004EBCA02D2E90261B54270EB0101F0DA97
:103240005E46ACF8007034F93E7024F83E30002F32
:10325000D9DAB3794D46002B3FF42BAF0023B3717D
:10326000B6F9083006F10808591C3CD019467769B0
:1032700003E080465A1C3FF41EAF03EB430207EB0A
:10328000C200B0F802C01C461CF4004F9E4637F93D
:103290003230EED08C4280ED028B05D0A8F80030A1
:1032A000318927F8321034817146E3E739F83A3032
:1032B00033813369EFF3108272B6D3E8CF0F012167
:1032C0000028FAD1C3E8401F0028F6D1BFF35F8F72
:1032D0007388316929F83A3000237480C1E88F3F40
:1032E00082F31088DDE640BF05B0BDEC028BBDE87F
:1032F000F08F2846CDE9022300F054FA029A039B8E
:1033000010EB020B43EB010829E708460B69029119
:1033100098470028CAD00299D1E9002314E700BFDA
:10332000FFFFFFFFFFFFFFFF00800B402C1300207B
:1033300000000B40593000102DE9F84F364C25693C
:103340002DB1BDE8F84F0A213448FFF739BEDFF848
:10335000E4800321404600F013FA0326C4F80C80F1
:10336000FFF74CFC4FF0504C2D4B2670034423616B
:10337000DCF800300F216370636961801D834FF0BA
:103380000405A3F878504FF00505A3F890504FF0CE
:103390000605A3F8A8504FF007050E214FF6FF725F
:1033A00008274FF00A0EA3F8C0504FF001094FF064
:1033B0000C0C4FF0020B4FF0090A0D204FF00B05DB
:1033C000A3F868111749A280A3F808E1A160A3F847
:1033D00048B0A3F8F0A0A3F82051A3F838C1A3F88F
:1033E0005001A3F83090A3F86060A3F8D8701A8059
:1033F0000D4B3046C8F820700C49DC60FFF754FCD8
:1034000049463046FFF73AFC094B0A211F6403483E
:10341000BDE8F84FFFF7D4BDBC0600209013002094
:1034200000120020FFFF10002C1300205930001064
:1034300000200B4000000B400146F0B50069EFF39F
:10344000108772B6D0E8CF5F0124002DFAD1C0E812
:10345000454F002DF6D1BFF35F8FB1F902E04C6903
:103460000EEB4E0CBEF1000F4FEACC0504EBCC0C7A
:103470003DDB605B002648800869C0E88F6F87F3FA
:103480001088BCF80200CCE902230130C0F30E0022
:10349000012838BF0120059BACF80200CCF81030A1
:1034A000069B40EA0E40CCF814300B69EFF3108213
:1034B00072B6D3E8CFCF0127BCF1000FF9D1C3E832
:1034C0004C7FBCF1000FF4D1BFF35F8F8B88635347
:1034D000A1F804E00B69C3E88F6F82F31088012222
:1034E000CB68097803F501538A405A60F0BD002388
:1034F0000A69C2E88F3F87F310884FF0FF30F0BDB4
:1035000003464089B0EB214F37DD58690A1402EBBE
:10351000420210B500EBC2001C69EFF3108C72B6CA
:10352000D4E8CFEF0122BEF1000FF9D1C4E84E2F4D
:10353000BEF1000FF4D1BFF35F8F428889B292B21F
:103540008A4207D000221B69C3E88F2F8CF31088B2
:10355000002010BD42F4004242800121002218697F
:103560009971C0E88F2F8CF310881C78DA680846B0
:1035700002F50153A140596010BD0020704700BF03
:103580002DE9F041861F41F1FF35B04271EB050393
:1035900038BF002682B038BF354604460F4600F0DB
:1035A00009F9301A65EB0103012873F1000306DA0B
:1035B0002046394602B0BDE8F04100F07BB900F08A
:1035C000F9F8864265EB010100290ADB0021174B5F
:1035D0003246009316482B460191FFF72DFF002835
:1035E000E6DB4FF0000C1348134A436A9D4204D8AF
:1035F000816AB142DCD29D42DAD11368EFF31081C7
:1036000072B6D3E8CF8F5FF0010EB8F1000FF8D19A
:10361000C3E848EFB8F1000FF3D1BFF35F8F136831
:10362000C3E88FCF81F3108820BFDEE71930001088
:10363000BC06002000000B409013002038B5044663
:103640000D4600F0B7F84FF0FF326FF0004320183E
:1036500045EB0101824273EB010438BF1946BDE816
:10366000384038BF1046FFF78BBF00BF10B5044687
:1036700000F0A0F84FF47A734FF0FF3C6FF0004277
:10368000E4FB0301BDE81040844572EB01033CBF3D
:1036900060461146FFF774BFF0B506460D4683B08D
:1036A000EFF30584E4B2002C35D1244F3A78F96861
:1036B00004328B6A51F82220D21AC31A934207D3DC
:1036C00020BF1F4B586AA8421FD2002003B0F0BD94
:1036D00000F070F8864265EB0101002911DB194BFF
:1036E0003846CDE9003432462B46FFF7A5FE011ED1
:1036F00007DD134B5A6AAA4219D220BF0F48FFF7C1
:10370000FFFE0F4B586AA842DFD39B6A9E4209D83E
:10371000012003B0F0BD0A4B586A8842D5D39B6A9A
:10372000B342F5D2401B18BF012003B0F0BD9B6A25
:103730009E42E3D9AA42E1D1DFE700BFBC060020E8
:1037400000000B4019300010084AD0E90003516A0C
:103750008B4204D8926A824203D301207047002032
:103760007047581A18BF0120704700BF00000B4077
:1037700001460248C1E90023704700BF49370010E5
:1037800010B4054B054C064AA04214BF1846581CFD
:103790005DF8044BFFF790B98812002000800B40C1
:1037A000E0C500100346416A0A46986A596A8A428F
:1037B000FAD17047034B596A0A46986A596A91428E
:1037C000FAD1704700000B4010B4174A536A9C4668
:1037D000946A536A6345FAD1001959414FF00002C7
:1037E00028BF01220346CAB10F4B596A4B1C08BFC0
:1037F0000B4608D04FF0FF310B460B48426A8A4215
:10380000FCD38A4207D1084A02E0506A884202D1BA
:10381000906A9842F9D35DF8044B7047024A526AA5
:103820009142EAD8EDE700BF00000B401F4B9842E1
:103830000AD84FF47A731E4A03FB00F0916A936A28
:103840005B1A9842FBD870474FF47A7130B4184B2A
:10385000A0FB01015A6A94469C6A5A6A6245FAD1F1
:1038600003194A414FF0000528BF01259DB91049B1
:10387000496A8A4203D90E48416A9142FCD3914277
:1038800007D10B4902E0486A904202D1886A984207
:10389000F9D330BC7047064B5A6A531C08BF134615
:1038A000EFD04FF0FF321346E5E700BF9BC4200086
:1038B00000000B40074A536A9942FCD8994207D14D
:1038C000044B02E05A6A914202D19A6A8242F9D3C9
:1038D000704700BF00000B40F8B5054606200E46B5
:1038E00000F0E4F8002842D0354A3648954214BF2B
:1038F0004FF080624FF00062334B344902601A602F
:103900008C6832EA0404FBD12D4B4FF48071EB1A22
:10391000B3FA83F32E4A5B09062022F8131000F055
:10392000C5F8C300B3FBF6F30133DA0920D1402612
:1039300001216962AA622F6BFB0722D42B46002269
:1039400053F82C1F062003F5805422602F6300F0EB
:10395000ADF840F2013103228000B0FBF6F0EB6AD3
:1039600083F0700303F07E0323602963AA64F8BD2B
:103970004FF6FE718A421BD922464FF6FF71154E53
:10398000D7E740F2013205F540531A636B6AAC6A1F
:10399000062004EB831400F089F80F4BA402A3FB6C
:1039A0000023DB0A0021B4FBF3F0FFF70DFFC5E7AE
:1039B000C3F34503114603EB82161A46B9E700BF6D
:1039C000008007400020024000300240000002401A
:1039D00094130020C0FF3F00757B2B8F00EB400C41
:1039E0004FEA8C0C0CF1804C0CF5803CF0B516467F
:1039F000DCF80420051FB2F5803F38BF4FF4803259
:103A0000EDB238BFCCF80420012D2AD94FF400675D
:103A1000254C0CF54052176054F82020B2B9DCF860
:103A20000020012D82EA461202F0E0020CF58056D9
:103A300032602AD94FF4006144F820304FF48033CB
:103A40000CF500521160CCF80430F0BD6769B7FB8B
:103A5000F2FE0EF1010E0EEB4E0EBEF1030EFCD285
:103A6000DDE70129D2D103240CF540521460DCF8C3
:103A70000820D207FBD5DCF800200B4C82EA461266
:103A800002F0E0020CF5805632600122DCF80050B2
:103A90004D4005F00305356002FA01F1DCF808201D
:103AA0000A42FBD0C6E700BFCC120020014B53F8FE
:103AB00020007047CC12002070B4039D04682D03D1
:103AC00045EA03451B4B002CB3FBF1F3B2FBF3F6C5
:103AD0001FDB194A194B904214BF4FF480424FF438
:103AE0000042174C1A6003F580531A60A36832EA4B
:103AF0000303FBD1212200F54053043301608660AB
:103B00001A600268002AFCDA0822C5601A6070BCDC
:103B10007047036803F03F038B42DAD18368C3F335
:103B20000B03B342D5D1C36803F4EE23AB42D0D12B
:103B3000EDE700BF001BB7000080054000200240F9
:103B400000000240012300EB4000800000F18040B3
:103B500000F5841041600360704700BF0023DB8ADA
:103B6000002242E800F2520201D410211847042139
:103B7000184700BF034AD2F82838002BFBD0BFF308
:103B80005F8F704700000E400021044B044ABFF3D2
:103B90005F8F43F8041B9342F9D170470C080E4025
:103BA0002C080E4010B42F204FF42A64054A064B0F
:103BB00006491460D06019605368002BFCDA5DF888
:103BC000044B70470080044000A0044000B0FA009D
:103BD000704700BF08B50148FEF73AFF04C6001061
:103BE00038B5054C054DAC4204D254F8043B984717
:103BF000AC42FAD338BD00BFF8BF001038C0001087
:103C000010B40748074C084B084A094904601A6079
:103C10008B6832EA0303FBD15DF8044B704700BFA9
:103C2000002002407F3BEFEF00300240F6FFF3033D
:103C300000000240044BDB6CB3F5004F03D14FF49E
:103C40008022024BDA6470470000115000201150AE
:103C50004FF0E022044BD2F8881D0B43C2F8883D98
:103C600010EE3004704700BF030330006FF0604176
:103C7000044B054A19609368DB4333F06043FAD183
:103C8000704700BF003002400000024010B545F20E
:103C90005320FFF763FFBDE8104003460420184798
:103CA00010B545F25320FFF759FFBDE81040034619
:103CB00001201847FEF7B6BF10B5054B054C4FF471
:103CC00088721846A16803F02DFCA06010BD00BFEB
:103CD0000000002000ED00E0002370B52B4C82B006
:103CE000C4F88430FFF75EFF0122294BDA63636C6E
:103CF000012BFCD10321264A244B11639C6B012C20
:103D0000FCD10226052521460523224A2248009699
:103D1000FFF7D2FE21462B46204A21480095FFF7A7
:103D2000CBFE0022042031461E4BFFF757FE2146F2
:103D3000284600221C4BFFF751FE002208201146A6
:103D40001A4BFFF74BFE002209201146174BFFF7D5
:103D500045FE002206201146134BFFF73FFE0022CE
:103D6000114B07201146FFF739FE0420FFF79EFE96
:103D700000240F4BA3FB0035AD0CE0B22946013403
:103D8000FFF7E0FE062CF8D102B070BD0000014044
:103D900000300140002F685900000540008C864724
:103DA00000800540001BB70080D1F008006CDC02E9
:103DB00083DE1B4386B003B451FC0804CDE9020145
:103DC00051FC0904CDE9040151EC0A04CDE90601D6
:103DD00003BCF047BDE800504EEC00C4BDE8005005
:103DE0004EEC01C4BDE800504EEC02C400BD000022
:103DF00000B5FFF7DFFF02E010FE30F4F8D441EC2D
:103E0000100443EC112400EE010410EE010480EED6
:103E1000200451EC1004704700B5FFF7CBFF02E01F
:103E200010FE30F4F8D441EC100443EC112400EE01
:103E3000010410EE210480EE200451EC30047047A0
:103E400000B5FFF7B7FF02E010FE30F4F8D410B56C
:103E500041EC100443EC112451EC040453EC052410
:103E6000A0FB024C5FF0000EE0FB03CEE1FB02CEB4
:103E70004CEC20440024E1FB03E444EC30E480EE0D
:103E8000200451EC5004BDE81040704700B5FFF726
:103E900091FF02E010FE30F4F8D441EC100443EC42
:103EA000112451EC2104A0FB01126FEA820252FBA3
:103EB000100052FB12F252FB1000A0EBD07C53EC2E
:103EC00004245CFB13F153EC1524A1FB022001FB3D
:103ED000030053EC4424A2EB000050FB1CF24FEA19
:103EE000111312EB017043EBE27140EA515020EAEA
:103EF000915020F0070053EC7524A0FB023C53ECDA
:103F0000752400FB03CC01FB02CC53EC0424ACEB86
:103F1000824C40EA5C70A0F1010041EC400480EE6C
:103F2000200451EC7004704700B5FFF743FF02E036
:103F300010FE30F4F8D441EC100480EE220410EEB0
:103F4000B204704700B5FFF735FF02E010FE30F411
:103F5000F8D440EC700400EE010410EE210480EE71
:103F6000200451EC3004704700B5FFF723FF02E056
:103F700010FE30F4F8D440EC600400EE010410EEC2
:103F8000210480EE200451EC3004704700B5FFF7A7
:103F900011FF02E010FE30F4F8D441EC800400EE92
:103FA000010410EE010480EE400410EE130470478B
:103FB00000B5FFF7FFFE02E010FE30F4F8D441EC4C
:103FC000800400EE010410EE010480EE400410EEC7
:103FD0003304704700B5FFF7EDFE02E010FE30F449
:103FE000F8D441EC100443EC112400EE010410EE6F
:103FF0003004C0F30070704700B5FFF7DBFE02E04D
:1040000010FE30F4F8D441EC100443EC112400EE1F
:10401000010410EE3004C0F38070704700B5FFF764
:10402000C9FE02E010FE30F4F8D443EC102441EC59
:10403000110400EE010410EE30F48CBF01200020CA
:10404000704700BF00B5FFF7B5FE02E010FE30F488
:10405000F8D443EC102441EC110400EE010410EEFE
:1040600030F42CBF01200020704700BF00B5FFF7DF
:10407000A1FE02E010FE30F4F8D441EC100443EC51
:10408000112400EE010410EE30F42CBF01200020BA
:10409000704700BF00B5FFF78DFE02E010FE30F460
:1040A000F8D441EC100443EC112400EE010410EEAE
:1040B00030F48CBF01200020704700BF002200298F
:1040C00050DA404261EB4101C9B1B1FA81F30B3BD7
:1040D00017D4D3F1200C30FA0CFC9840994051EAE7
:1040E0000C011A44524202F2324201EB025141F0F9
:1040F000004140F2FE739A4238BF704721E01146FA
:104100007EE003F1210310FA03FCA3F1010301FA9D
:1041100003FCC3F1200320FA03F021FA03F140EA83
:104120000C00A3EB020202F2324214D050F1000064
:1041300041EB025141F0004140F2FE739A4238BF18
:1041400070474FF00001A8BFC7F6F0714FF00000B4
:10415000704700217047EBD350F1000020F00100C0
:10416000E6E70022B9B1B1FA81F30B3B16D4D3F1E3
:10417000200C30FA0CFC9840994051EA0C011A448A
:10418000524202F2324201EB025140F2FE739A4275
:1041900038BF704720E0114600F066B803F12103F4
:1041A00010FA03FCA3F1010301FA03FCC3F120039D
:1041B00020FA03F021FA03F140EA0C00A3EB02021B
:1041C00002F2324212D050F1000041EB025140F2B3
:1041D000FE739A4238BF70474FF00001A8BFC7F680
:1041E000F0714FF00000704700217047EDD350F19F
:1041F000000020F00100E8E7002880F2358040420E
:10420000B0FA80F30B3B11D4984001EB0302524209
:1042100002F2124200EB025141F000414FF0000067
:1042200040F2FE739A4238BF704713E0C3F10003B7
:1042300030FA03FCC3F120029040A3EB010202F22A
:1042400012420CEB025141F0004140F2FE739A42DF
:1042500038BF70474FF00041A8BFCFF6F0714FF064
:10426000000070470021704760B3B0FA80F30B3B49
:104270000FD4984001EB0302524202F2124200EBCB
:1042800002514FF0000040F2FE739A4238BF70476F
:1042900010E05B4230FA03FCC3F120029040A3EB34
:1042A000010202F212420CEB025140F2FE739A42FA
:1042B00038BF70474FF00001A8BFC7F6F0714FF04C
:1042C00000007047002170470022A2F232425FEAEC
:1042D000215CACF10103A1EB03515B0513F5800FE9
:1042E00032D212EB535210D40B2A36DA9140D2F16B
:1042F000200330FA03F319439040BCF1000FA8BF2C
:104300007047404261EB4101704720320EDD01FAF7
:1043100002F3D2F12002D140D0401843BCF1000F8B
:10432000A8BF7047404261EB41017047524282F39F
:10433000050231FA02F00021BCF1000FA8BF70475E
:10434000404261EB4101704702D0002000217047DC
:1043500050EA013118BF4FF0000C6FF0004101EB43
:10436000DC716FEAEC70704710B5044602F01EFA7B
:1043700028B10346034A2344934200D810BD0248A3
:10438000FEF766FB0000082010C6001010B50C46B2
:1043900002F0D2FC28B10346034A2344934200D8DA
:1043A00010BD0248FEF754FB0000082010C60010A4
:1043B00002F004BA9A4238BF88547047704700BF71
:1043C0002DE9F04F83B09946DDE90DAB0F9B884690
:1043D00011469A07074616D1DA453AD20C460D46E1
:1043E000ABEB0A060E4422464B46414620200134E0
:1043F000B847B442F7D12946BAF1000F08D1204698
:1044000003B0BDE8F08F0C46BAF1000F10D00E4695
:1044100055460C9B2E449A440191721B4B46013D1C
:1044200041461AF8010D3446B847002DF5D10199DF
:104430000F9B9B07E3D5651AAB45E0D922464B4657
:10444000414620200135B8475D4504F10104F5D30C
:10445000D5E7BAF1000FDAD10C46D0E72DE9F04FDD
:104460000F9FDDF824E017F0020F0A9C9DF82C90B6
:104470000E9DDDE90C8629D1002D6FD1B44225D2E5
:10448000202C07F0010B00F0128104F1FF3C4FF0EB
:10449000300AF44401E0202C7AD00134A6420CF812
:1044A00001AFF8D8BBF1000F10D0AC420ED2202CD7
:1044B00074D004F1FF3C4FF0300AF44401E0202CAA
:1044C00029D00134AC420CF801AFF8D117F0100F2D
:1044D0003AD017F4806F28D11CBBB8F1100F00F050
:1044E000CA80B8F1020F00F0D48030248EF800406A
:1044F0000124B9F1000F67D17E0740F1AA802B2675
:104500000EF804600134CDE90B57CDE909E4BDE8AC
:10451000F04FFFF755BFFC0640F189807C0535D48C
:104520002024A6426AD0AC4268D0B8F1100F00F047
:104530008780B8F1020F5AD0202CE4D026460134EF
:104540004FF0300C0EF806C0202CD2D1CDE90B571D
:10455000CDE909E4BDE8F04FFFF732BF17F0010BDA
:104560003ED0B9F1000F47D117F00C0F44D1B4423F
:104570009BD2202C89D1202D10D8FC0657D57C0544
:1045800055D4202E00F0B980202D10D02024CCE767
:10459000BBF1000F00F0A580202DBCD9FC0646D54C
:1045A0007C0544D4202E00F0A880202D3FD12C463D
:1045B0001F26B8F1100F7FD0B8F1020FC0D14FF015
:1045C000620C0EF806C0B7E72D260EF80460013421
:1045D000CDE90B57CDE909E4BDE8F04FFFF7F0BE98
:1045E000B442BFF473AF202C7FF44FAFD6E7202C3A
:1045F00089D026460134E2E7013DB8E7661ED8D1EE
:10460000B8F1100F64D0B8F1020F7FF46EAF6226DC
:104610008EF80060302644468EF80160B9F1000F34
:104620003FF46AAFD0E7B8F1100F7FF46CAF2024ED
:10463000CDE90B57CDE909E4BDE8F04FFFF7C0BE67
:10464000BE060ED4202CF2D078260EF80460013479
:1046500072E73E077FF557AF20260EF8046001345D
:1046600051E7202CE3D04FF0580C0EEB040686F8EF
:1046700000C0013460E7BE0617D558248EF800400C
:1046800030248EF801400224B9F1000F3FF434AF1A
:104690009AE762248EF8004030248EF8014002240C
:1046A000B9F1000F3FF428AF8EE77824F2E7BBF1B1
:1046B000000F7FF462AF71E717F0200F0CBF4FF0CF
:1046C000780C4FF0580CA61E0EF806C0013C35E7DA
:1046D000BC06EAD558248EF8004030248EF80140FC
:1046E000DDE717F0100F3FF40EAF17F4806F9AD18B
:1046F000202E7FF418AF1F265BE734461F2658E7AD
:1047000000B9704701F050BB10B1D1E90031184732
:10471000704700BF000000002DE9F04F9FB09DEDF5
:10472000287BDDE92AA558EC177B83461E460D91B0
:10473000109243463A46384641468DED087B2C9C04
:10474000FFF74CFC002840F0D880384641464FF037
:10475000FF32754BFFF7A2FC002840F0CE803846B0
:1047600041464FF0FF326FF48013FFF75BFC0028E7
:1047700040F0C380DDE90878002238464146002336
:10478000FFF750FC002840F0C081CDE90A78DDE950
:104790000A2390461F4614F4806308BF4FF0060AB0
:1047A000139304F4006258EA0703119240F0C080AA
:1047B000002A00F0A2819FED5A7B00278DED0E7B31
:1047C0004FF00009BA45CCBFAAEB070A4FF0000A28
:1047D0004F46C8BF0AF1FF3A44F480644D4594BF88
:1047E0004FF00008A5EB090814F00203119304D060
:1047F000B9F1000F18BF4FF000083FB1DDE90A0121
:10480000DDE90E23FFF746FBCDE90A01DDE90801EA
:1048100000220023FFF706FC30B1DDE90A01024661
:1048200001F10043CDE90A239DED0A7BCDE902A801
:10483000DDF834A024F4006304938DED007B33464F
:1048400051465846109A00F097F98046B9F1000F8A
:104850004FD014F0200F024600F1010433460CBF84
:10486000652045205146D84709F1FF3087EAE77CAB
:104870000DF1580900224B46DFF8B080ACEBE77C25
:104880004FEAD77E01E0202A10D0E246A8FB0C7147
:10489000C90801EB8107ACEB47073037BAF1090FC4
:1048A0008C4602F1010203F8017BECD80523059048
:1048B000069300200A230D9FCDE90330CDE9012E98
:1048C0003346224639465846CDF80090FFF7C6FDDC
:1048D000119B80466BB1109BC41AA54209D9424670
:1048E0003346394620200134D847A54208F1010853
:1048F000F5D840461FB0BDE8F08F9DED087B3346EC
:104900005846109A0D998DED287BCDE92B54CDF8A2
:10491000A8A01FB0BDE8F04F00F02EB9AFF30080A3
:104920000000000000000000FFFFEF7FCDCCCCCCEA
:10493000C7F30A50A0F2FF30FFF708FB8AA3D3E9C0
:104940000023FFF781FA8AA3D3E90023FFF754FA83
:10495000C7F31307CDE90E0147F07F51404600220F
:104960007B4B41F44011FFF75BFA6BA3D3E90023C3
:10497000FFF76AFA02460B46DDE90E01FFF73CFA43
:10498000FFF708FB0746FFF7E1FA65A3D3E9002329
:1049900080468946FFF758FA00226E4BFFF72CFA43
:1049A000FFF7F8FA03464946404612935EA3D3E95F
:1049B0000023FFF749FA804612988946FFF7C6FAA6
:1049C0005BA3D3E90023FFF73FFA02460B464046BC
:1049D0004946FFF725FA02460B4680468946FFF70F
:1049E00033FA42464B46CDE90E0140464946FFF7B1
:1049F00003FA0022CDE91401DDE90E01564BFFF761
:104A000049FA0022554BFFF7F7F902460B46DDE95C
:104A10000E01FFF73FFA0022514BFFF7EDF9024676
:104A20000B46DDE90E01FFF735FA42464B4680465C
:104A3000894600204FF08041FFF7F2F902460B460D
:104A400040464946FFF7D8F902460B46DDE9140116
:104A5000FFF720FA0022434BFFF7CEF9129B00220A
:104A600003F2FF3C4FEA0C53FFF7EEF9804689460C
:104A7000DDE90A0142464B46CDE90E89FFF7D2FA3D
:104A800068BB4346494607F16302C62A119A8CBFA8
:104A90004FF005094FF00409002A3FF49FAE0B4385
:104AA0003FF48EAEDDE90A0123A3D3E90023FFF72B
:104AB000E1FA48B1DDE90A0121A3D3E90023FFF7B8
:104AC000B1FA00287FF47CAEBAF1000F3FF486AE55
:104AD000139B002B3FF482AE0AF1FF3A7EE60022E0
:104AE0001E4B40464946FFF7D5F90A4601460346A4
:104AF000CDE90E12013F1146C5E79FED137B174626
:104B00004FF004098DED0E7B68E608F100430A972B
:104B10000B933CE6AFF3008061436F63A787D23FFE
:104B200071A379094F930A401655B5BBB16B02408A
:104B3000EF39FAFE422EE63F2D431CEBE2361A3FD8
:104B40000000000080842E410000000000000000F2
:104B50000000F83F0000E03F00002C40000024402F
:104B6000000018400000F03FFB799F501344D33FF2
:104B7000B3C8608B288AC63F2DE9F04F97B0DDE9B6
:104B80002089CDE90401DDE9224BCDE90623404629
:104B900042464B464946DDF890A0FFF71FFA002831
:104BA00040F0C581404649464FF0FF326FF4801314
:104BB000FFF738FA002840F01D81404649464FF083
:104BC000FF32C14BFFF76AFA002840F0E380B8A338
:104BD000D3E9002340464946FFF760FA002840F039
:104BE000CB80B5A3D3E9002340464946FFF71AFA24
:104BF000002840F0C1804046494600220023FFF7CC
:104C000011FA002840F0E0801AF480650D9000F061
:104C1000E980092C40F296810EAB1A460C933021A4
:104C20000023A4F109050133202B02F8011BA4EB9A
:104C3000030600F03A81AB42F5D19FED9D7B8DEDEF
:104C4000087B49464046FFF7A5F90446FFF77EF981
:104C500002460B4640464946FFF7E2F8DDE90823E5
:104C6000FFF7F2F802460B46CDE90A23FFF7A4F955
:104C70000746FFF77DF902460B46DDE90A01FFF71B
:104C8000CFF802460B46CDE90A2300228F4BFFF7EF
:104C900005FA002800F0DB8001373846FFF768F995
:104CA000DDE90823FFF7E6F908B100270134002EFB
:104CB00040F0B1802046FFF749F902460B464046D6
:104CC0004946FFF7ADF80022804B06460F46FFF736
:104CD000A9F940B93046394600227C4BFFF7DEF98E
:104CE000002800F015810C9B691E7948194410E0DA
:104CF00080FB0462C3EBA20303EB8302A4EB420438
:104D000004F1300201351C4601F8012F002B00F0A0
:104D1000AB80202D4FEAE473EAD10AF00303012BA4
:104D20001CD1BBF1000F19D00D9B002B40F0F98076
:104D30001AF00C0F40F0F580AB4540F2D380202DE7
:104D40000BD030220C996B1E0B4401355D4503F8E6
:104D5000012F00F08D80202DF7D12025DDE90623DD
:104D6000DDE904010C9CCDE902BA01950094FFF73E
:104D700027FB17B0BDE8F08FCDE92089DDE90623D8
:104D8000DDE90401CDE923BA229417B0BDE8F04F64
:104D9000FFF7C2BC4F4DCDF88CA00AF0040ABAF15F
:104DA000000F4D4C18BF2C46DDE90623DDE9040158
:104DB00020940CBF03240424CDF888B0219417B0AC
:104DC000BDE8F04FFFF7FCBA4B46424600200021F9
:104DD000FFF726F801231AF48065804689460D9373
:104DE0007FF417AF9FED367B0EAB06268DED087B6B
:104DF0000C9326E70424DDE90623DDE90401374DA1
:104E0000CDF88CA0CDF888B02095219417B0BDE8DE
:104E1000F04FFFF7D5BA0C9B681EDFF8C4C01844EA
:104E20000DE0ACFB0721C90801EB8102A7EB4202B0
:104E30003032092F00F8012F27D90F461D46202DAB
:104E400005F1010306F1FF36EBD120254BE70022E7
:104E5000DDE90A011D4BFFF7E5F800287FF427AFD5
:104E6000002F5AD1013722E70AF00303012B75D036
:104E7000202D3FF473AF0D9BBBB32D2205F15803DA
:104E80006B4403F8202C013568E7202BDDD0AEB34E
:104E90000C9A1E441544302201E0B3422ED0013357
:104EA000202B05F8012FF8D1CFE71D46C5E600BF3E
:104EB0000000000065CDCD410000000065CDCDC1F2
:104EC0000000000080842E41FFFFEF7F0000E03FE4
:104ED000676666665CC6001064C600106CC600108B
:104EE000CDCCCCCC202D3FF439AF1AF0040F0DD12E
:104EF0001AF0080F3FF432AF2022BFE72E2103F152
:104F000058026A4402F8201C5D1CECE62B22B5E72F
:104F1000E3077FF5E8AE0134E5E6FA077FF5C7AEB3
:104F2000A0E70BF1FF3BAB453FF609AFA0E7032439
:104F3000DDE90623DDE904010A4DCDF88CA0CDF8AA
:104F400088B061E7084B264603EBC40393ED007B72
:104F50000EAB8DED087B00250C9372E6BBF1000FC4
:104F600086D0E1E668C60010D8C800102DE9F04FE1
:104F70009A469BB0249C964D0B94964C0B1E18BFE2
:104F8000834625609AF80000934C0A9308BFA34615
:104F90000992002800F0BC824FF000090AE04A465E
:104FA000099B0A9909F10109D8479AF800000028DD
:104FB00000F0CE8025280AF1010AF0D100235246E4
:104FC00012F8010BA0F1200110290AD8DFE801F046
:104FD0004009093C0909090909090938093409097D
:104FE0003000A0F13001092940F28C802A2800F01D
:104FF000F58000210C912E2800F099800027A0F167
:10500000680112292DD8DFE811F057012C00510159
:105010002C0045012C002C002C002C002C002C0016
:105020002C0027002C002C002C002C002C0027002A
:10503000924643F00103C2E7924643F00203BEE703
:10504000924643F00403BAE7924643F01003B6E7F2
:10505000924643F00803B2E79AF8010043F48073E4
:1050600001326728924600F28280242840F2C680EE
:10507000A0F12502422A00F2C180DFE812F05F01B0
:10508000BF00BF00BF00BF00BF00BF00BF00BF0028
:10509000BF00BF00BF00BF00BF00BF00BF00BF0018
:1050A000BF00BF00BF00BF00BF00BF00BF00BF0008
:1050B000BF00BF00BF00BF00BF00BF00BF00260190
:1050C00045012601BF00BF00BF00BF00BF00BF00F9
:1050D000BF00BF00BF00BF00BF00BF00BF00BF00D8
:1050E000BF00BF00D301BF00BF00BF00BF00BF00B3
:1050F000BF00BF00BF00BF00D3016701D30126017D
:1051000045012601002100E0013201EB810100EBA5
:10511000410110789246A0F13004092CA1F1300130
:10512000F2D92E280C9102F101027FF467AF9AF8B0
:1051300001001146A0F13006092E43F4806340F2CD
:1051400031812A2800F03E8192460027013256E73D
:105150004C46099B994501D303F1FF394A4600208B
:10516000099B0A99D84720461BB0BDE8F08FA0F1F3
:105170006902D2B20F2A41D8012649F24101964074
:105180000E4040F001810A2A3FD0072A36D10B9CFD
:1051900054F8042B002A00F0288143F021010DF17E
:1051A000480E704603E0202E00F029811A4602F0D6
:1051B0000F052B46092D94BF303337330F2A00F8E3
:1051C000013B06F101064FEA1213ECD817E100BFCC
:1051D0006D4F00100C130020BD4300100B9C9AF87B
:1051E000010054F8045B9246002DBDBF694243F0B4
:1051F00002030C910C950B940132FCE64A46099B84
:105200000A9909F10109D847CFE60B9951F8048BA7
:1052100098F800201046002F40F0E18072B16FF046
:10522000010C0CF1010C4646C44401E0664503D074
:1052300016F8014F002CF9D1A6EB080613F4806C88
:1052400002D0BE4228BF3E4613F0020400F0878120
:10525000002A00F02B81BCF1000F00F041810B947B
:105260000D964A46DDE909540E464F4408E02B46A8
:105270002146D84718F8010F09F1010910B14A4633
:105280004F45F4D131460B9C0D9E002C40F00E8111
:105290000B918AE69AF801006C287FF4DFAE9AF849
:1052A000020043F440730AF10302DAE69AF80100BF
:1052B00043F400730132D4E69AF80100682800F044
:1052C000208143F080030132CBE6672800F0E780BD
:1052D000472800F00081452800F0FF800B9C0493D4
:1052E0000C9B0734CDE9027324F007031C46DDE96B
:1052F0000931F4E802674A465846CDE900670B9445
:10530000FFF70AFA814650E646280B9C08BF43F097
:10531000200304930C9B0734CDE9027324F00703A8
:105320001C46DDE90931F4E802674A465846CDE9F2
:1053300000670B94FFF720FC814636E64A4625209D
:10534000099B0A9909F10109D8472EE60B9A9C0797
:1053500002F1040709F1010640F1E6801078099B8B
:105360004A460A99D8470C9B012B40F22C81DDE973
:105370000954994432462B46214620200136D8470D
:105380004E45F7D10B9710E66F2800F08B8040F266
:105390006581782800F008814FF00A0823F0100397
:1053A000C44647E0002707EB870700EB4700A0F162
:1053B000300711F8010FA0F13002092AF3D98A460B
:1053C0004A1C1CE60B9C9AF8020054F8047B0AF174
:1053D000020A0AF101020B9427EAE7770FE6002A96
:1053E0003FF42CAF07F1FF3C1BE723F0100113F44F
:1053F000806241F021013FF4D2AE0DF1480E082346
:105400001020059300234A46CDE902300691584604
:10541000DDE90931CDE900E60497FFF71FF80B94A9
:105420008146C2E5582879D0622840F051824FF079
:105430000208C44613F480606DD123F00C0313F40A
:10544000007240F0C2800B9904310D9113F4807109
:1054500040F02E825E060B9A40F1AA801278002A54
:1054600040F0DA8023F01003002800F0D5801146C8
:105470000DF1480E06930C9BCDF80CC0CDE90473DA
:10548000019100234A4602935846DDE90931CDF8DF
:1054900000E0FEF7E3FF0D9B81460B9385E543F4A7
:1054A00000631BE74FF00808C446C3E70C9B4C465B
:1054B000B3427FF6EDAE0F464B44A3EB0609DDE9A0
:1054C000096522463346294620200134D8474C45F9
:1054D000F7D13946DCE643F4006343F02003FDE6F0
:1054E0000F460B94DDE909544A462B462146D8471E
:1054F00018F8010F09F101090028F5D139460B9C74
:10550000C3E69AF8020043F0C0030AF10302A8E5DB
:10551000044681461DE623F00D0390E74FF0100886
:1055200043F02003C44685E70C9B012B45D9DDE9F8
:1055300009544E4609F1FF38984432462B4621461D
:1055400020200136D8474645F7D10C9B3246994476
:105550000B9B1878DDE90931D8470B9725E50C9BA3
:10556000B34240F2EE81CDE90D48DDE909548846A9
:105570004B449E1BCDF82CC04A462B46214620208A
:1055800009F10109D847B145F6D14146DDF8388027
:105590000C9BDDF82CC00D9C98F800205E1C10467A
:1055A000002A7FF458AE73E64FF01008C44641E776
:1055B0001D064CBF1288126851E713464A461878F8
:1055C000DDE90931D847B146DCE60B9C073424F00D
:1055D00007042246656852F8084B0B9254EA05020C
:1055E00040F02C8123F01003002800F027810026D2
:1055F0000DF1480E06930C9B4A46CDE90473002337
:10560000CDE900E6CDF80CC002935846DDE909313A
:10561000FEF724FF8146C8E413F0200F14BF412099
:1056200061200DF1480E7646A0F10A0803E020291A
:105630003FF420AF2246B2FBFCF40CFB1425E8B289
:10564000092D00F130058ABF4044E8B2C0B262457E
:1056500006F8010B01F10101E9D20BE723F010027A
:1056600069280D9240F06F8113F4806204D04FF4EA
:10567000806223F011030D930D9B13F4007640D14B
:105680000B9B03F104080D9B13F4807040F098808D
:10569000590640F1C6800B9B19780C46CB0F0029A8
:1056A00000F0B98022460DF1480E74461646DFF828
:1056B000A0C201E020280FD03546ACFB0621C90866
:1056C00001EB8102A6EB42023032092D0E4600F1B9
:1056D000010004F8012BEDD80D9ACDE901030692E3
:1056E0000C9ACDE904720A234A4603935846DDE931
:1056F0000931CDF800E0FEF7B1FECDF82C808146EF
:1057000053E40B9C073424F00704214608466368E1
:1057100050F8081BDC0F0B9051EA030000F0C38027
:105720000A46191E48DB13460DF1480EF4460026C2
:10573000CDE90E94DFF8188201E0202E2DD05A1802
:1057400042F10002A8FB025929F0030505EB990577
:10575000521B1C469B1A61F1000508464FF0CC31E4
:1057600001FB03F108FB0511A3FB085319440523B2
:1057700005F00109A9FB03399B180A2C03F130033A
:105780004FEA550570F100000CF8013B06F10106E7
:1057900045EAC1734FEA5101CFD2DDE90E940D9B6A
:1057A0004A4606930C9BCDE90164CDE904730A23B4
:1057B000CDF800E0039328E7524261EB4101B2E7E4
:1057C0000B9B1968CB0F002900F0AB8081EAE172D6
:1057D000A2EBE1720DF1480E7046DFF874C101E0F2
:1057E000202E10D01546ACFB0241C90801EB810404
:1057F000A2EB440404F13002092D00F8012B06F15C
:1058000001060A46ECD80D9ACDE9016306920C9A7E
:10581000CDE9047267E7002A3FF445AF0DF1480E69
:105820005AE713F0800F0B9B00F08180B3F9001052
:1058300081EAE174A4EBE174A4B22FE713F0200F26
:1058400014BF412261220DF1480E0A3ACDE90D97AD
:10585000CDF844B000267746F3469146CDE90F3C9B
:1058600003E0202E17D004460D4629464246002369
:10587000204606F0ADFBD2B2092A02F1300388BF00
:1058800002EB09034445DBB275F1000507F8013B63
:1058900006F10106E5D2DE46DDE90D97DDE90F3CB4
:1058A000DDF844B0A6E6002A47D1134611463BE78F
:1058B0000B990968A1B923F0100388B10DF1480EC6
:1058C00006930C9BCDF80CC0CDE904730192D8E58A
:1058D00013F480627FF4CBAE23F010030D93CBE67C
:1058E00013F0200F14BF412061200DF1480E7646C1
:1058F000A0F10A0802E0202AE2D02146B1FBFCF424
:105900000CFB1415E8B2092D00F130058ABF4044A4
:10591000E8B2C0B2614506F8010B02F10102EAD219
:10592000CEE7002A3FF456AF0DF1480E6BE7196839
:1059300081EAE174A4EBE174B0E600260DF1480EB3
:105940002DE701362BE64FF00A081346C44671E5F1
:10595000CDCCCCCC0EB410B585B007AC54F8043B1C
:1059600001464FF0FF32009404480394FFF7FEFA1B
:1059700005B0BDE8104003B0704700BFB54300104C
:1059800084460CB410B584B006AC54F8043B0A4607
:105990000094614604480394FFF7E8FA04B0BDE8B8
:1059A000104002B0704700BFB543001070B5944678
:1059B0001E4605460C4684B04FF0FF32634602A9EE
:1059C00000960348CDE90254FFF7D0FA04B070BD49
:1059D000094700100FB410B50E4B84B006A91C681F
:1059E00051F8043B03915CB100914FF0FF3202A9E2
:1059F0000948A047012004B0BDE8104004B070473A
:105A0000184600F013FA204604B0BDE8104004B078
:105A1000704700BF0C1300200147001010B5094B60
:105A200084B01C684CB1034600914FF0FF3203A9CB
:105A30000548A047012004B010BD00F0F7F920464A
:105A400004B010BD0C1300200147001000BEFDE79C
:105A5000074A0346106838B1064903448B428CBF9D
:105A60004FF0FF3013607047034908461160F3E7B9
:105A70000813002000000820A013002008B5FFF73D
:105A8000E5FF00BF9C46144600B50B460246614642
:105A900083B044B1054D064801940095FFF79AFF85
:105AA0000120FFF7D3FF034D2C46F4E774C6001026
:105AB00084C60010C0C1001038B5064C064DFEF774
:105AC0008FF8AC4204D254F8043B9847AC42FAD366
:105AD00038BD00BF38C0001040C000100368084641
