:020000041000EA
:10000000002008205D0100101301001015010010F0
:100010001101001011010010110100101101001058
:100020001101001011010010110100101701001042
:100030001101001011010010190100101B01001026
:100040001D0100101D0100101D0100101D010010F8
:100050001D0100101D0100101D0100101D010010E8
:100060001D0100101D0100101D0100101D010010D8
:100070001D0100101D0100101D0100101D010010C8
:100080001D0100101D0100101D0100101D010010B8
:100090001D0100101D0100101D0100101D010010A8
:1000A0001D0100101D0100101D0100101D01001098
:1000B0001D0100101D0100101D0100101D01001088
:1000C0001D0100101D0100101D0100101D01001078
:1000D0001D0100101D0100101D0100101D01001068
:1000E0001D0100101D0100101D0100101D01001058
:1000F0001D0100101D0100101D0100101D01001048
:100100001D0100101D0100101D0100101D01001037
:1001100000BE00BE00BE00BE00BE00BEEFF3058004
:10012000103800BEF2EB8871046B0010346B0010C5
:10013000A801001090A31AE7D3DEFFFF42012110AF
:10014000FF010000E86F0000793512AB4FF00000AE
:100150002049086006C881F3088810474FF05040D6
:10016000006810B14FF00000F2E70FA40ECC002998
:1001700002D000F015F8F9E71749184A002000E00E
:1001800001C19142FCD1002080F30A8814498847BC
:10019000144988471449884700BEFDE701C901C2D8
:1001A0009A42FBD3704700BF346B0010100100204F
:1001B000FC0600202071001000000820000008202C
:1001C000207100100010082000100820000000001E
:1001D0007047000008ED00E0FC060020600B0020E6
:1001E00065530010790200105D530010F8B500BF90
:1001F000064B0749C91A891048BF0131491003D07D
:10020000044B0BB101481847704700BFFC060020A3
:10021000FC0600200000000008B5054B1BB1054995
:100220000548AFF30080BDE80840FFF7E1BF00BF1D
:1002300000000000D00A00206064001008B50C49DE
:100240000C4805F07DFC0321042002F01BFA032179
:10025000052002F017FA00220121042002F030FAF2
:1002600000220121052002F02BFA002008BD00BF6A
:10027000A0860100EC0600202DE9F04FADF2244DE0
:1002800050220021F4A805F0AFFE192002F02CFA4C
:1002900019234FF0010242EC4430FFF7CFFF002852
:1002A00040F0768302F064F9652402F045F905F028
:1002B00085F904E0013C07D0642003F047F80020F2
:1002C00005F00CFD0028F5D0B54805F005FA03F05F
:1002D000E1F80B463C220021109022A8119305F072
:1002E00083FE03F0D7F80B463C220021069031A88C
:1002F000079305F079FE03F0CDF80B463C22002170
:100300001C9040A81D9305F06FFE03F0C3F80B4648
:100310003C2200210A904FA80B9305F065FE03F0E4
:10032000B9F80B463C2200210C905EA80D9305F015
:100330005BFE03F0AFF83C2200216DA805F054FEEF
:1003400003F0A8F80B463C2200210E907CA80F93E6
:1003500005F04AFE03F09EF80B463C220021129065
:100360008BA8139305F040FE03F094F80B463C2253
:10037000002114909AA8159305F036FE03F08AF830
:100380000B463C2200211690A9A8179305F02CFEDD
:1003900003F080F80B463C2200211890B8A819936E
:1003A00005F022FE03F076F80B463C2200211E9059
:1003B000C7A81F9305F018FE03F06CF80B463C220B
:1003C00000211A90D6A81B9305F00EFE03F062F8E8
:1003D0000B4608903C220021E5A8099305F004FE95
:1003E00000231E466F4FDFF8E081059303F052F8BB
:1003F000109A6D4B801A119A61EB0201984271F1CB
:10040000000180F2B48003F045F8069A674B801A29
:10041000079A61EB0201834276EB0101C0F2B881D9
:1004200003F038F81C9BC01A1D9B61EB0301874247
:1004300076EB0101C0F2BA8103F02CF80A9BC01AD6
:100440000B9B61EB0301874276EB0101C0F26C81EB
:10045000574A6DAB07CA03C31A70059B002B40F0C7
:10046000068103F017F80C9BC01A0D9B61EB03018A
:10047000059B874273EB0101C0F24C8203F00AF83E
:100480000E9BC01A0F9B61EB0301874276EB0101C3
:10049000C0F2E28002F0FEFF129BC01A139B61EBD8
:1004A0000301874276EB0101C0F2C88002F0F2FF3F
:1004B000149BC01A159B61EB0301874276EB010187
:1004C000C0F2AE8002F0E6FF169BC01A179B61EBEC
:1004D0000301874276EB0101C0F2948002F0DAFF5B
:1004E000189BC01A199B61EB0301874276EB01014F
:1004F0007ADB02F0CFFF1E9BC01A1F9B61EB03014A
:10050000874276EB010161DB02F0C4FF1A9BC01A3F
:100510001B9B61EB0301874276EB010135DB02F0A7
:10052000B9FF089BC01A099B61EB0301874276EB78
:100530000101BFF65BAF02F0ADFF03460020CDE93D
:10054000083105F041F81B4B1B68002B40F32A8152
:10055000811C00F0F081184AD054164A0133136010
:10056000164B154A1649E5A804F0B4FE3EE702F022
:1005700091FF19234FF00102CDE9100142EC403008
:1005800002F088FFCDE906013DE702F083FF0D4B45
:10059000CDE91A0193E80300D6908DF85C13BEE70D
:1005A000706400103F420F00C0CF6A001FA1070017
:1005B000E4640010E80A0020580A00200C0B002018
:1005C000BC6500107C6500106864001006234FF0C5
:1005D000000242EC4030BC4BC7AC0FCB07C424F840
:1005E000023B1B0C23708FE702F054FFB74BCDE9A1
:1005F000180193E80300ADF8E412090CB8908DF8E7
:10060000E61276E702F046FFB14BCDE9160193E81A
:100610000300ADF8A812090CA9908DF8AA125DE7A5
:1006200002F038FFAB4BCDE9140193E80300ADF8BD
:100630006C12090C9A908DF86E1243E702F02AFFB3
:10064000A54BCDE9120193E80300ADF83012090C77
:100650008B908DF8321229E702F01CFF9F4BCDE9F9
:100660000E0193E803007C90ADF8F41112E701F05D
:10067000DDFD002840F01C8100F0D6FC01F040FFB9
:1006800002F008FF0C9BC01A0D9B61EB030187422F
:1006900076EB0101BFF6F2AE02F0FCFE904A5EABD3
:1006A0000C900D9107CA03C31A801425DFF858A2D5
:1006B000DFF858B268B200F0E1FA2A4651465EA867
:1006C00004F008FE5EA805F063FEC1B25EA801F06A
:1006D000B3FD00F0D7FB01F0F7FE052002F036FE77
:1006E0000B2402E0642002F031FE01F099FD08B90C
:1006F000013CF7D101F094FD90B1013DDAD1794D83
:100700005EAC00F091FC01F0FBFE0FCD0FC495E84C
:10071000030044F8040B24F8021B090C2170ADE619
:10072000584604F0D9FFE8E702F0B4FE6E4A4FAB3A
:100730000A900B9107CA03C3C7A81A7005F04EF8B8
:10074000E5A805F04BF84FA805F048F840A805F0DB
:1007500045F831A805F042F822A805F03FF89AA81C
:1007600005F03CF8A9A805F039F8B8A805F036F866
:100770006DA804F0B1FF5EA805F030F87CA805F084
:100780002DF88BA805F02AF8D6A805F027F85FE623
:1007900002F080FE19234FF00002CDE9060142EC81
:1007A00040303DE6821C7FF4D6AED9E602F072FE00
:1007B000034601254D48CDE91C3104F08DFF4C481E
:1007C00004F08AFF00214B4805F008F82E2004F0C1
:1007D00041FF494805F002F82C46A946DFF830A150
:1007E000DFF814B12FE0782B30D002F053FE42F244
:1007F0001073C01841F100034FF0FF316FF0004259
:10080000814272EB030C3CBF084613464946CDE9D2
:1008100002030096012339480DF1870205F0B6F96D
:10082000002813DB364804F0D9FF0F2D13D14046C2
:10083000013404F0D3FF802C3FF4FEAD14F00F051B
:100840005FFA84F909D019F07803CCD1504604F04E
:10085000C5FF0F2DEBD05846EAE72146254804F0A6
:10086000BDFF02F017FE42F210734FF0FF32C018C6
:100870006FF0004341F10001824273EB01053CBF80
:10088000104619460096CDE90201012349461B484E
:100890000DF1870205F07AF9002804DB402004F00E
:1008A000D9FE5846C4E72E2004F0D4FE5846BFE7D0
:1008B00000F084F86DA805F06BFD1249C0F13B0211
:1008C0006DA805F0E3FBD7E66C65001064650010C9
:1008D0005C650010546500104C6500104465001004
:1008E000E46500102C650010D86400108C640010C2
:1008F0009C640010D06400106C640010EC060020B2
:1009000064640010F0640010FC64001018650010AE
:100910006064001002F0BEFD1F4A5EAB0C900D91AA
:1009200007CA03C31D481A8000F098FC05900028F0
:100930003FF4A4ADB9E61A4AD6541A4B1E601368A8
:10094000194A93420CD01949154805F0CDFB0028EF
:100950007FF406AE01465022F4A805F045FBFFE502
:100960000F4B134A5B689342EDD1124C124D4FF07E
:10097000060C0FCD0FC495E8070003C44FF0010E1D
:1009800022704EEC40C002F085FDCDE91E01DAE791
:1009900002F090FF86E400BFE465001060060020CE
:1009A000580A0020E80A00204255524EA86500105F
:1009B0005F4F4E000C0B00208C65001070B50024BA
:1009C00082B0052000218DF806400D2502F06CFD57
:1009D00044EC40500520002102F066FD1223114E28
:1009E0000DF10701012230688DF8073005F010FD88
:1009F000012321460DF10602306805F005FD0520B2
:100A0000002102F051FD4FF0010343EC405005205E
:100A1000002102F049FD9DF80600C0F3401002B02D
:100A200070BD00BF6C0600202DE9F04341F67861EF
:100A3000002405468D4A83B005E0DCB252F824104C
:100A4000002900F0BF808D4204F10103F5D88848E9
:100A500004F0C4FE24014FF00008052000218DF8A9
:100A60000680C14602F020FD0D2748EC40700520AD
:100A7000002102F019FD1D237E4E0DF10701012218
:100A800030688DF8073005F0C3FC012341460DF1B5
:100A90000602306805F0B8FC0520002102F004FDD4
:100AA0004FF0010848EC40700520002102F0FCFCEA
:100AB0009DF80630052023F0F003234300218DF834
:100AC000063002F0F1FC49EC40700520002102F0F4
:100AD000EBFC9D230DF10701012230688DF80730F2
:100AE00005F096FC01220DF10601306805F090FC3E
:100AF0000520002102F0D8FC48EC407005200021C0
:100B000002F0D2FC5C4B9D425ED841F678639D4278
:100B100000F0A9804FF223439D428CBF4023442321
:100B2000052000218DF8063002F0BEFC49EC407033
:100B30000520002102F0B8FCAF230DF107010122CE
:100B400030688DF8073005F063FC01220DF10601D5
:100B5000306805F05DFC0520002102F0A5FC48ECA2
:100B600040700520002102F09FFC00230520002199
:100B70001D468DF806300D2402F096FC45EC4040F1
:100B80000520002102F090FCB0230DF107010122A5
:100B900030688DF8073005F03BFC01220DF10601AD
:100BA000306805F035FC0520002102F07DFC4FF097
:100BB000010343EC40400520002102F075FC03B026
:100BC000BDE8F083902446E70223052000218DF83C
:100BD000063002F069FC49EC40700520002102F06B
:100BE00063FCB6230DF10701012230688DF8073050
:100BF00005F00EFC01220DF10601306805F008FC3D
:100C00000520002102F050FC48EC40700520002136
:100C100002F04AFC6423052000218DF8063002F022
:100C200043FC49EC40700520002102F03DFCBA2352
:100C30000DF10701012230688DF8073005F0E8FB5F
:100C400001220DF10601306805F0E2FB05200021CC
:100C500002F02AFC48EC40700520002102F024FC40
:100C600003B0BDE8F08348235AE700BFEC690010E9
:100C7000306600106C0600201FA107002DE9F04F20
:100C80000346002785B00520002101938DF80E70E2
:100C90000D2402F009FC47EC40404FF0090B784D61
:100CA0000520002102F000FC0DF10F01012228684F
:100CB0008DF80FB005F0ACFB012339460DF10E02A3
:100CC000286805F0A1FB0520002102F0EDFB0126BC
:100CD00046EC40400520002102F0E6FB9DF80E3076
:100CE000052063F07F0300218DF80E3002F0DCFB5D
:100CF00047EC40404FF0890A0520002102F0D4FB68
:100D000032460DF10F0128688DF80FA005F080FB29
:100D100032460DF10E01286805F07AFB052000210E
:100D200002F0C2FB46EC40400520002102F0BCFB73
:100D3000052000218DF80E7002F0B6FB47EC404014
:100D40000520002102F0B0FB32460DF10F012868AA
:100D50008DF80FB005F05CFB334639460DF10E02FD
:100D6000286805F051FB0520002102F09DFB46ECB0
:100D700040400520002102F097FB9DF80E30052031
:100D800023F0700343F0700300218DF80E3002F061
:100D90008BFB47EC40400520002102F085FB3246EA
:100DA0000DF10F0128688DF80FA005F031FB3246D8
:100DB0000DF10E01286805F02BFB0520002102F043
:100DC00073FB46EC40400520002102F06DFB05203E
:100DD00000218DF80E7002F067FB47EC40400520C3
:100DE000002102F061FB32460DF10F0128688DF8F9
:100DF0000FB005F00DFB334639460DF10E022868A1
:100E000005F002FB0520002102F04EFB46EC4040BD
:100E10000520002102F048FB019B9DF80E2043EACB
:100E2000E3730E2BA8BF0E2322F00F0233441343AB
:100E3000052000218DF80E3002F036FB47EC4040D3
:100E40000520002102F030FB32460DF10F01286829
:100E50008DF80FA005F0DCFA32460DF10E0128687E
:100E600005F0D6FA0520002102F01EFB46EC4040BA
:100E70000520002102F018FB05B0BDE8F08F00BF8F
:100E80006C0600202DE9F043002783B005200021E7
:100E90008DF806700D2402F007FB47EC404005205A
:100EA000002102F001FB92235E4D0DF107010122AA
:100EB00028688DF8073005F0ABFA01220DF1060124
:100EC000286805F0A5FA0520002102F0EDFA0126B8
:100ED00046EC40400520002102F0E6FA0520002102
:100EE0008DF8067002F0E0FA47EC40400520002142
:100EF00002F0DAFA402332460DF1070128688DF836
:100F0000073005F085FA334639460DF106022868A8
:100F100005F07AFA0520002102F0C6FA46EC4040BE
:100F20000520002102F0C0FA9DF80630052023F0CC
:100F3000C00343F0400300218DF8063002F0B4FAFC
:100F400047EC40400520002102F0AEFAC0233246B3
:100F50000DF1070128688DF8073005F059FA32467F
:100F60000DF10601286805F053FA0520002102F072
:100F70009BFA46EC40400520002102F095FA05203E
:100F800000218DF8067002F08FFA47EC40400520F2
:100F9000002102F089FA32460DF1070128688DF828
:100FA000076005F035FA334639460DF10602286828
:100FB00005F02AFA0520002102F076FA46EC4040BE
:100FC0000520002102F070FA9DF80630052023F07C
:100FD000070343F0030300218DF8063002F064FAA2
:100FE00047EC40400520002102F05EFA81233246A2
:100FF0000DF1070128688DF8073005F009FA32462F
:101000000DF10601286805F003FA0520002102F021
:101010004BFA46EC40400520002102F045FA03B0AF
:10102000BDE8F0836C0600202DE9F043002783B073
:10103000052000218DF806700D2402F035FA47ECEA
:1010400040400520002102F02FFA4023824D0DF18F
:101050000701012228688DF8073005F0D9F901232E
:1010600039460DF10602286805F0CEF90520002169
:1010700002F01AFA012646EC40400520002102F059
:1010800013FA9DF80630052023F0C00300218DF8E7
:10109000063002F009FA47EC40400520002102F03A
:1010A00003FAC02332460DF1070128688DF8073096
:1010B00005F0AEF932460DF10601286805F0A8F9F1
:1010C0000520002102F0F0F946EC40400520002107
:1010D00002F0EAF9052000218DF8067002F0E4F92B
:1010E00047EC40400520002102F0DEF98D23324616
:1010F0000DF1070128688DF8073005F089F93246AF
:101100000DF10601286805F083F90520002102F0A1
:10111000CBF946EC40400520002102F0C5F905203E
:1011200000218DF8067002F0BFF947EC4040052021
:10113000002102F0B9F9902332460DF10701286829
:101140008DF8073005F064F932460DF10601286884
:1011500005F05EF90520002102F0A6F946EC4040BA
:101160000520002102F0A0F9052000218DF806706D
:1011700002F09AF947EC40400520002102F094F972
:10118000922332460DF1070128688DF8073005F0EB
:101190003FF932460DF10601286805F039F90520BE
:1011A000002102F081F946EC40400520002102F0C8
:1011B0007BF9052000218DF8067002F075F947ECE7
:1011C00040400520002102F06FF932460DF1070181
:1011D00028688DF8076005F01BF9334639460DF194
:1011E0000602286805F010F90520002102F05CF9DC
:1011F00046EC40400520002102F056F99DF80630EB
:10120000052023F0070343F0050300218DF8063085
:1012100002F04AF947EC40400520002102F044F971
:10122000812332460DF1070128688DF8073005F05B
:10123000EFF832460DF10601286805F0E9F80520BF
:10124000002102F031F946EC40400520002102F077
:101250002BF903B0BDE8F0836C0600202DE9F047C0
:10126000064682B0152001F03FFA4FF00107152322
:1012700047EC443047EC40300B2001F035FA4FF09A
:1012800000080B2448EC444042464146204601F009
:1012900017FA47EC40400D2001F026FA0D2547ECE7
:1012A000445042464146284601F00AFA47EC405075
:1012B00001210E2001F0E6F901210F2001F0E2F9F1
:1012C00001210C2001F0DEF947EC444048EC40409D
:1012D0006420002102F022F848EC4440D74C05205D
:1012E00002F034F80A2002F011F92068D449B06005
:1012F00004F06AFC20684FF0020E0346C22653F841
:10130000041F00F5805C03F54052C2F800E002685B
:1013100001EA0E0182F0070203F5005302F0CF024A
:10132000CCF800208DF8058019608DF8076048EC36
:10133000405001220DF1070105F06AF801234146F2
:1013400020680DF1050205F05FF847EC4050BD4AFA
:10135000BD4B012814BF1046184604F03FFABB4BA2
:101360009DF80510BA48112918BF184604F036FA3E
:10137000142001F0B9F9142048EC44000122414640
:1013800001F09EF9052000218DF8068002F08CF80E
:1013900048EC405001260520002102F085F8324635
:1013A0000DF1070120688DF8076005F031F833462C
:1013B00041460DF10602206805F026F805200021BF
:1013C00002F072F847EC40500520002102F06CF862
:1013D0009DF80630052023F0070300218DF8063024
:1013E00002F062F848EC40504FF0810A05200021DD
:1013F00002F05AF832460DF1070120688DF807A077
:1014000005F006F832460DF10601206805F000F8F7
:101410000520002102F048F847EC4050002105204B
:1014200002F042F80A2001F091FF052000218DF81A
:10143000068002F039F848EC40500520002102F007
:1014400033F832460DF1070120688DF8076004F08B
:10145000DFFF334641460DF10602206804F0D4FF59
:101460000520002102F020F847EC40500520002123
:1014700002F01AF89DF80630052063F07F03002182
:101480008DF8063002F010F848EC4050052000219D
:1014900002F00AF832460DF1070120688DF807A026
:1014A00004F0B6FF32460DF10601206804F0B0FFEB
:1014B0000520002101F0F8FF47EC405005200021F5
:1014C00001F0F2FF052000218DF8068001F0ECFF0D
:1014D00048EC40500520002101F0E6FF8E23324603
:1014E0000DF1070120688DF8073004F091FF3246B6
:1014F0000DF10601206804F08BFF0520002101F0AA
:10150000D3FF47EC40500520002101F0CDFF05201E
:1015100000218DF8068001F0C7FF48EC40504FF0E5
:101520008F0A0520002101F0BFFF32460DF10701AF
:1015300020688DF807A004F06BFF32460DF106011C
:10154000206804F065FF0520002101F0ADFF47ECA5
:1015500040500520002101F0A7FF052000218DF853
:10156000068001F0A1FF48EC40500520002101F069
:101570009BFFA42332460DF1070120688DF8073048
:1015800004F046FF32460DF10601206804F040FFEA
:101590000520002101F088FF47EC40500520002184
:1015A00001F082FF6D23052000218DF8063001F047
:1015B0007BFF48EC40500520002101F075FF862399
:1015C00032460DF1070120688DF8073004F020FF46
:1015D00032460DF10601206804F01AFF05200021B3
:1015E00001F062FF47EC40500520002101F05CFF54
:1015F0009623052000218DF8063001F055FF48ECB8
:1016000040500520002101F04FFF872332460DF1A5
:10161000070120688DF8073004F0FAFE32460DF11C
:101620000601206804F0F4FE0520002101F03CFFD3
:1016300047EC4050052000210CE000BF6C06002064
:1016400040420F0070660010546600108C66001057
:10165000AC66001001F028FF052000218DF806A0DF
:1016600001F022FF48EC40500520002101F01CFF52
:10167000882332460DF1070120688DF8073004F009
:10168000C7FE32460DF10601206804F0C1FE0520B8
:10169000002101F009FF47EC40500520002101F036
:1016A00003FFB549B54804F099F8052000218DF8ED
:1016B000068001F0F9FE48EC40500520002101F0C1
:1016C000F3FEA02332460DF1070120688DF80730A4
:1016D00004F09EFE32460DF10601206804F098FEEB
:1016E0000520002101F0E0FE47EC405005200021DC
:1016F00001F0DAFE0823052000218DF8063001F004
:10170000D3FE48EC40500520002101F0CDFEA1237E
:1017100032460DF1070120688DF8073004F078FE9D
:1017200032460DF10601206804F072FE052000210A
:1017300001F0BAFE47EC40500520002101F0B4FE54
:10174000052000218DF8068001F0AEFE48EC4050E7
:101750000520002101F0A8FE202332460DF10701EB
:1017600020688DF8073004F053FE334641460DF1F2
:101770000602206804F048FE0520002101F094FED6
:1017800047EC40500520002101F08EFE052000218D
:101790009DF806A08DF8068001F086FE48EC4050CA
:1017A0000520002101F080FE212332460DF10701C2
:1017B00020688DF8073004F02BFE334641460DF1CA
:1017C0000602206804F020FE0520002101F06CFED6
:1017D00047EC40500520002101F066FE9DF80630E0
:1017E00043EA0A23082B02D0654803F0F7FF0025DF
:1017F000644F0D263846FFF717F9052000218DF8B4
:10180000065001F051FE45EC40600520002101F03A
:101810004BFE1D230DF10701012220688DF80730D2
:1018200004F0F6FD012329460DF10602206804F0BC
:10183000EBFD0520002101F037FE4FF0010343ECE2
:1018400040600520002101F02FFE9DF806308F2B0F
:101850004FEA131200F2D0844B4B53F82230BB42B4
:1018600040F0CA8400260521484803F0B7FF052050
:1018700000218DF806600D2501F016FE46EC405063
:101880004FF01D090520002101F00EFE0DF10701AA
:10189000012220688DF8079004F0BAFD012331463B
:1018A0000DF10602206804F0AFFD0520002101F0D3
:1018B000FBFD4FF0010747EC40500520002101F0EF
:1018C000F3FD9DF80630052023F00E0343F00203DC
:1018D00000218DF8063001F0E7FD46EC4050052070
:1018E000002101F0E1FD9D230DF107010122206897
:1018F0008DF8073004F08CFD01220DF106012068FF
:1019000004F086FD0520002101F0CEFD47EC40509B
:101910000520002101F0C8FD052000218DF806609A
:1019200001F0C2FD46EC40500520002101F0BCFD55
:101930000DF10701012220688DF8079004F068FD81
:10194000012331460DF10602206804F05DFD0520FB
:10195000002101F0A9FD47EC40500520002101F0D5
:10196000A3FD9DF8063003F00E03022B12D00848A9
:1019700003F034FF0EE000BF20E01C1AF0650010F9
:10198000DC66001048E80100EC69001010660010E9
:101990004C6700100026052000218DF806600D25FB
:1019A00001F082FD46EC40504FF01E090520002159
:1019B00001F07AFD0DF10701012220688DF80790F2
:1019C00004F026FD012331460DF10602206804F0E3
:1019D0001BFD0520002101F067FD4FF0010747ECDA
:1019E00040500520002101F05FFD9DF806300520E4
:1019F00023F0F00343F0700300218DF8063001F06E
:101A000053FD46EC40500520002101F04DFD9E2382
:101A10000DF10701012220688DF8073004F0F8FC71
:101A200001220DF10601206804F0F2FC05200021DE
:101A300001F03AFD47EC40500520002101F034FD53
:101A4000052000218DF8066001F02EFD46EC405087
:101A50000520002101F028FD0DF107010122206879
:101A60008DF8079004F0D4FC012331460DF10602F5
:101A7000206804F0C9FC0520002101F015FD47ECA9
:101A800040500520002101F00FFD9DF806301B0994
:101A9000072B02D0C14803F0A1FE0026052000213B
:101AA0008DF806600D2501F0FFFC46EC40504FF02C
:101AB0001E090520002101F0F7FC0DF107010122AC
:101AC00020688DF8079004F0A3FC012331460DF146
:101AD0000602206804F098FC0520002101F0E4FCD7
:101AE0004FF0010747EC40500520002101F0DCFCDD
:101AF0009DF80630052043F0040300218DF80630E0
:101B000001F0D2FC46EC40500520002101F0CCFC55
:101B10009E230DF10701012220688DF8073004F0A3
:101B200077FC01220DF10601206804F071FC05200C
:101B3000002101F0B9FC47EC40500520002101F0E4
:101B4000B3FC052000218DF8066001F0ADFC46ECE9
:101B500040500520002101F0A7FC0DF107010122F2
:101B600020688DF8079004F053FC012331460DF1F5
:101B70000602206804F048FC0520002101F094FCD6
:101B800047EC40500520002101F08EFC9DF8063006
:101B9000580702D4824803F021FE002605200021C8
:101BA0008DF806600D2501F07FFC46EC40504FF0AB
:101BB00026090520002101F077FC0DF10701012223
:101BC00020688DF8079004F023FC012331460DF1C5
:101BD0000602206804F018FC0520002101F064FCD6
:101BE0004FF0010747EC40500520002101F05CFC5C
:101BF0009DF80630052043F0040300218DF80630DF
:101C000001F052FC46EC40500520002101F04CFC54
:101C1000A6230DF10701012220688DF8073004F09A
:101C2000F7FB01220DF10601206804F0F1FB05200D
:101C3000002101F039FC47EC40500520002101F063
:101C400033FC052000218DF8066001F02DFC46ECE8
:101C500040500520002101F027FC0DF10701012271
:101C600020688DF8079004F0D3FB012331460DF175
:101C70000602206804F0C8FB0520002101F014FCD6
:101C800047EC40500021052001F00EFC9DF8063085
:101C9000590702D4434803F0A1FD00260520002186
:101CA0008DF806600D2501F0FFFB46EC40504FF02B
:101CB00026090520002101F0F7FB0DF107010122A3
:101CC00020688DF8079004F0A3FB012331460DF145
:101CD0000602206804F098FB0520002101F0E4FBD7
:101CE0004FF0010747EC40500520002101F0DCFBDC
:101CF0009DF80630052043F0080300218DF80630DA
:101D000001F0D2FB46EC40500520002101F0CCFB55
:101D1000A6230DF10701012220688DF8073004F099
:101D200077FB01220DF10601206804F071FB05200C
:101D3000002101F0B9FB47EC40500520002101F0E3
:101D4000B3FB052000218DF8066001F0ADFB46ECE9
:101D500040500520002101F0A7FB0DF107010122F1
:101D600020688DF8079004F053FB012331460DF1F4
:101D70000602206804F048FB0520002101F094FBD6
:101D800047EC40500520002101F08EFB9DF8063005
:101D90001A070BD4044803F021FD07E07C6700100C
:101DA000B0670010E06700100868001000260520EA
:101DB00000218DF806600D2501F076FB46EC4050C1
:101DC0004FF009090520002101F06EFB0DF107011C
:101DD000012220688DF8079004F01AFB0123314698
:101DE0000DF10602206804F00FFB0520002101F030
:101DF0005BFB4FF0010747EC40500520002101F04C
:101E000053FB9DF80630052063F07F0300218DF819
:101E1000063001F049FB46EC40504FF0890A05209E
:101E2000002101F041FB0DF10701012220688DF82E
:101E300007A004F0EDFA01220DF10601206804F07C
:101E4000E7FA0520002101F02FFB47EC4050052068
:101E5000002101F029FB052000218DF8066001F02A
:101E600023FB46EC40500520002101F01DFB0DF145
:101E70000701012220688DF8079004F0C9FA0123B8
:101E800031460DF10602206804F0BEFA052000215B
:101E900001F00AFB47EC40500520002101F004FB53
:101EA0009DF80630052023F0700343F070030021F5
:101EB0008DF8063001F0F8FA46EC4050052000217C
:101EC00001F0F2FA0DF10701012220688DF807A058
:101ED00004F09EFA01220DF10601206804F098FA40
:101EE0000520002101F0E0FA47EC405005200021D8
:101EF00001F0DAFA052000218DF8066001F0D4FA2D
:101F000046EC40500520002101F0CEFA0DF107010A
:101F1000012220688DF8079004F07AFA01233146F7
:101F20000DF10602206804F06FFA0520002101F08F
:101F3000BBFA47EC40500520002101F0B5FA9DF8AE
:101F40000630052023F00F0343F00F0300218DF826
:101F5000063001F0A9FA46EC40500520002101F0BE
:101F6000A3FA0DF10701012220688DF807A004F003
:101F70004FFA01220DF10601206804F049FA05200C
:101F8000002101F091FA47EC40500520002101F0BA
:101F90008BFA052000218DF8066001F085FA46ECE9
:101FA00040500520002101F07FFA0DF107010122C8
:101FB00020688DF8079004F02BFA012331460DF1CB
:101FC0000602206804F020FA0520002101F06CFAD6
:101FD00047EC40500021052001F066FA8B4803F0E1
:101FE000FDFB052000218DF8066001F05DFA46EC4E
:101FF00040504FF00A090520002101F055FA0DF17B
:102000000701012220688DF8079004F001FA0123EE
:1020100031460DF10602206804F0F6F90520002192
:1020200001F042FA47EC40500520002101F03CFA53
:102030009DF80630052023F00F0300218DF80630AF
:1020400001F032FA46EC40500520002101F02CFA54
:102050008A230DF10701012220688DF8073004F072
:10206000D7F901220DF10601206804F0D1F905200D
:10207000002101F019FA47EC40500520002101F041
:1020800013FA052000218DF8066001F00DFA46ECE8
:1020900040500520002101F007FA0DF1070101224F
:1020A00020688DF8079004F0B3F9012331460DF153
:1020B0000602206804F0A8F90520002101F0F4F9D7
:1020C00047EC40500520002101F0EEF99DF8063064
:1020D0001B0740F096800026052000218DF8066041
:1020E0000D2501F0E1F946EC40504FF00C090520B8
:1020F000002101F0D9F90DF10701012220688DF8C6
:10210000079004F085F9012331460DF1060220689D
:1021100004F07AF90520002101F0C6F94FF001071B
:1021200047EC40500520002101F0BEF99DF8063033
:10213000052023F0030343F0030300218DF806304C
:1021400001F0B2F946EC40500520002101F0ACF955
:102150008C230DF10701012220688DF8073004F06F
:1021600057F901220DF10601206804F051F905200C
:10217000002101F099F947EC40500520002101F0C1
:1021800093F9052000218DF8066001F08DF946ECE9
:1021900040500520002101F087F90DF107010122CF
:1021A00020688DF8079004F033F9012331460DF1D2
:1021B0000602206804F028F90520002101F074F9D6
:1021C00047EC40500520002101F06EF99DF80630E3
:1021D00003F00303032B02D00D4803F0FFFAFEF7D0
:1021E00023FF0C4803F078FA9DF80500113818BF5A
:1021F000012002B0BDE8F087074803F0EFFAFFF7CF
:1022000031BB064803F0EAFA65E700BF306800100A
:102210008C680010BC680010106700106068001027
:102220004FF050435868C0F3005070474FF0504390
:102230005868C0F3005070472DE9F04F034600275F
:1022400085B08A460520002101938DF80E700D257A
:1022500001F02AF947EC405001249A4E0520002154
:1022600001F022F922460DF10F0130688DF80F4080
:1022700004F0CEF8234639460DF10E02306804F022
:10228000C3F80520002101F00FF944EC405005206F
:10229000002101F009F99DF80E200520002100928F
:1022A0008DF80E7001F000F947EC40500520002138
:1022B00001F0FAF822460DF10F0130688DF80F4059
:1022C00004F0A6F80DF10E000246234639463068A8
:1022D00004F09AF80520002101F0E6F844EC4050A3
:1022E0000520002101F0E0F89DF80E30052023F0D4
:1022F0000703234300218DF80E3001F0D5F847EC99
:1023000040504FF0810B0520002101F0CDF822460E
:102310000DF10F0130688DF80FB004F079F8224606
:102320000DF10E01306804F073F80520002101F072
:10233000BBF844EC40500520002101F0B5F8052021
:1023400000218DF80E7001F0AFF847EC40500520E9
:10235000002101F0A9F88D2322460DF10F0130680C
:102360008DF80F3004F054F822460DF10E0130685C
:1023700004F04EF80520002101F096F844EC40509E
:102380000520002101F090F80520002101F08CF8D3
:1023900047EC40500520002101F086F880232246BA
:1023A0000DF10F0130688DF80F3004F031F852460E
:1023B0000199306804F02CF80520002101F074F830
:1023C00044EC40500520002101F06EF8052000216A
:1023D0008DF80EA001F068F847EC40500520002170
:1023E00001F062F8A22322460DF10F0130688DF84A
:1023F0000F3004F00DF822460DF10E01306804F0A4
:1024000007F80520002101F04FF844EC405005206A
:10241000002101F049F8052000218DF80E7001F02F
:1024200043F847EC40500520002101F03DF82246DA
:102430000DF10F0130688DF80F4003F0E9FF0DF149
:102440000E010A4623463946306803F0DDFF0520B9
:10245000002101F029F844EC40500520002101F052
:1024600023F8009A052002F007039DF80E200021B2
:1024700022F0070213438DF80E3001F015F847ECF7
:1024800040500520002101F00FF822460DF10F0108
:1024900030688DF80FB003F0BBFF22460DF10E013E
:1024A000306803F0B5FF0520002100F0FDFF44EC8B
:1024B00040500520002100F0F7FF384605B0BDE888
:1024C000F08F00BF6C06002001230B490B4A0868FF
:1024D000126800F110018B4051681942FCD14FF491
:1024E000801102EB8000016151680B42FCD14FF476
:1024F00080130361704700BFC80A0020C40A00208F
:1025000001230B490B4A0868126800F110018B4047
:1025100051681942FCD14FF0006102EB800001616B
:1025200051680B42FCD14FF000630361704700BF5C
:10253000C80A0020C40A002001230A490A4A086880
:10254000126800F110018B4051681942FCD1074913
:1025500002EB8000016151680B42FCD1034B036127
:10256000704700BFC80A0020C40A00200001010112
:1025700070B502218EB03A4803F030F901220221F1
:10258000CDE901220091374809AB08AA07A903F059
:102590006DFC002860D0DDE90856079C022004F19C
:1025A0002F4101F56001090D0631C9B200F06AF84A
:1025B0000123022229460093204603F0BDFB4FF47D
:1025C0008033294A0A930C92F301F21C274943EA0B
:1025D000023323F0C04305200B930D9101F0D6F890
:1025E00007EE100A9FED226AB8EE477ADFED216A06
:1025F000C7EE067A77EEA67ABCEEE77A17EE103AC7
:102600009BB23BB307EE103AB8EE477ADFED1A6A99
:1026100077EEC77A67EEA67AFCEEE77ACDED057A1B
:102620009DF81400000240EA0340324629460AABF6
:102630000A90204603F0C6FB0121002022680F4EBD
:102640000F4BA94011432160DDE9071231601A6088
:102650000EB070BD1846E6E701F02CF99BE700BF0D
:10266000DC680010146A00100000067000080020EA
:102670000024F44A0000003B00008043C40A00200C
:10268000C80A002010B44FF480740C4B53F820207B
:1026900003EB8003C00082F0400200F1804003F5AC
:1026A000805C02F0C00200F5203003F54053CCF806
:1026B000002041601C605DF8044B704704800340BB
:1026C00010B4084CC90041EA820154F8202004EB00
:1026D0008003514003F5805301F00C015DF8044B79
:1026E000196070470480034030B44FF0000343EC9E
:1026F000440043EC400005254FF480740B4BC200AE
:1027000053F8201003EB800081F0400102F1804378
:1027100003F5203301F0C00200F5805100F5405070
:102720000A605D60046030BC704700BF04800340F5
:102730000FB400B583B0049C074802F0CDFF3CB154
:1027400005A92046019102F0EFFD044802F0C4FF04
:10275000012002F001FE00BF04690010686400104F
:10276000EFF3108072B6064BD3E8CF1F0122002989
:10277000FAD1C3E8412F0029F6D1BFF35F8F70472C
:10278000D30900200023034AC2E88F3F80F310885A
:10279000704700BFD309002070B58646EFF310855F
:1027A00072B6124CD4E8CF6F0120002EFAD1C4E8E3
:1027B000460F002EF6D1BFF35F8F4FF0010CC80813
:1027C00001F007030CFA03F31EF800C01CEA03062D
:1027D00008D14CEA030C0EF800C0C4E88F6F85F3F3
:1027E000108870BD1046FFF7A3FF00BFD30900207B
:1027F000F8B5EFF3108572B6234CD4E8CF7F0126ED
:10280000002FFAD1C4E8476F002FF6D1BFF35F8FD6
:102810009A4227D80126D70810F807E002F0070CE3
:1028200006FA0CFC1EEA0C0F00EBD2070DD125E0D6
:102830004FEAD20E10F80EE002F0070C06FA0CFC7C
:102840001EEA0C0F00EBD20718D001329342EFD2F0
:102850004FF0FF300023C4E88F3F85F31088984283
:1028600007DBF8BD0023C4E88F3F85F310884FF0E5
:10287000FF300029F5D00698FFF75AFF4EEA0C0EFC
:10288000104687F800E0E5E7D309002000B5EFF334
:10289000108E72B6104BD3E8CFCF0122BCF1000FDF
:1028A000F9D1C3E84C2FBCF1000FF4D1BFF35F8F17
:1028B00001224FEAD10C01F0070102FA01F110F8F0
:1028C0000C2022EA010200F80C200022C3E88F2F1E
:1028D0008EF310885DF804FBD3090020044A1078B9
:1028E000431CDBB2182B28BF10231370704700BFA6
:1028F000700600204FF0E022936843F0005393608D
:10290000704700BF0021044B03F12002C3E88F1F72
:1029100001339342FAD17047C80900204FF0E023F9
:102920004FF08032C3F80024C3F80424C3F808240D
:10293000C3F80C24C3F81024C3F81424C3F81824D3
:10294000C3F81C24C3F82024C3F82424C3F8282483
:10295000C3F82C24C3F83024704700BF012300F0D3
:102960001F029340400941B1800000F1604000F532
:102970006140C0F8803103607047024A203042F85D
:102980002030704700E100E0F8B50D46EFF3108706
:1029900072B6124ED6E8CF2F0123002AFAD1C6E82C
:1029A000423F002AF6D1BFF35F8F0D4B00F11004B8
:1029B0009B680C4A53F82430934203D0994201D0CB
:1029C00000F078FF064B9B6843F82450BFF35F8FFD
:1029D0000023C6E88F3F87F31088F8BDD109002097
:1029E00000ED00E01D0100102DE9F04F83B0EFF382
:1029F000108A72B6744ED6E8CF2F0123002AFAD17E
:102A0000C6E8423F002AF6D1BFF35F8F6F4B00F15B
:102A100010089B686E4A53F8285095423FD08D426B
:102A20000C464AD06B4FEB1B2F2B38D801214FEAB5
:102A300050194FEA890909F1604909F5614900F027
:102A40001F0301FA03F0D9F80030C9F8800000EA4A
:102A5000030BBFF35F8FEFF30581C9B279B38845EC
:102A600077D125F0010EDEF808C0644505D17CE081
:102A7000D3F808C0644532D09E469EF9062002EB8A
:102A80004203002A07EB8303F2DA644500F08180F9
:102A9000BBF1000F20D0C9F88001C9F800004B4BF2
:102AA0009B6843F82850BFF35F8F0023C6E88F3F31
:102AB0008AF3108803B0BDE8F08F1546EFE725F0E4
:102AC000010EDEF808C06445D7D19EF90640734672
:102AD000002C08DA154666E0C9F88000DFE793F9B4
:102AE0000640002C56DB04EB440C07EB8C0CDCF8A6
:102AF000082061009A609CF80720DA719CF9062092
:102B0000002A9A715DDBBCF80420520504D502F559
:102B1000FF1202F5FF521F32521502F1020C4FF064
:102B2000040E0C2212FB04E202EB4C026FF0070CC5
:102B30003A44ACEB030C6244C2F34A0242F46042F2
:102B40009A80254B21441A7807EB81011C708A7109
:102B50009EE7CDE9000100F0ADFEDDE9000125F0C2
:102B6000010EDEF808C0644587D19EF90640734621
:102B7000002CB8DA194A1A4CD21A083AC2F30A31B0
:102B80006FEA01516FEA115144EA5202DA809980EA
:102B90007EE773460029EDD1FF228EF806204BF622
:102BA0000152AEF804200C4C4AF6AA2294F800C058
:102BB0001946C91B49414A43120D83F806C02270C9
:102BC00066E74BF60152BBE7D109002000ED00E0BB
:102BD0001D010010740600205C0B0020AE060020D2
:102BE00000F8FFFFF0B5EFF30585EDB2EFF3108CC1
:102BF00072B62649D1E8CF2F0123002AFAD1C1E8C5
:102C0000423F002AF6D1BFF35F8F214E40F0010E04
:102C1000B4684AF6AA2354F825701E4A0446A41A3A
:102C2000644163431B0D77455BB21BD092F90640AC
:102C30009C421CD092F912409C4223D092F91E4033
:102C40009C4221D092F92A409C4208BF03240FD015
:102C5000114A0024157813708571C1E88F4F8CF3E9
:102C60001088F0BDB2680D4C42F82540F0E7002412
:102C700004EB440402EB8402FF2494714BF60154EC
:102C80009480E5E70124F3E70224F1E7D10900206D
:102C900000ED00E0740600205C0B00201D01001018
:102CA000014B0B4403607047C809002070B5104CFD
:102CB000104DAC420ED2FF26236863B1FFF70EFE23
:102CC00001462046FFF7ECFFA680BFF35F8F083474
:102CD000AC42F1D370BDFFF701FE01462046FFF77D
:102CE000DFFF2671BFF35F8F0834AC42E4D370BDC1
:102CF000F4060020FC0600200D4B1A68EFF310814B
:102D000072B6D2E8CFCF0120BCF1000FF9D1C2E8F2
:102D10004C0FBCF1000FF4D1BFF35F8F00221B6892
:102D2000C3E88F2F81F3108840BF00200021704737
:102D3000500B0020000000002DE9F04F2DED028B1C
:102D400085B0EFF30583DBB2103B9A0818BF012270
:102D50004FF0010103F0030018BFAB4DAB4B08BFB0
:102D6000AB4D00EB820201FA00FB53F8226005F53F
:102D700041539FEDA38B0190C3F804B0CDF800B090
:102D80002AE0B388180440F18C80B379002B40F01E
:102D9000D580B6F908100029C0F21581736901EBDE
:102DA000410103EBC103D3E90247B7F1FF3F08BF7D
:102DB000B4F1FF3F09D0019B05EB8301AB6A0A69BF
:102DC000D21AE31A934238BF0C61284600F05AFB2E
:102DD000A042B941C0F2F780B6F90840009B002C30
:102DE000EB63CEDBD6F8149004EB440A284609EBDB
:102DF000CA07D7E902B800F045FB584571EB080156
:102E0000BFDBB8F1000FC0F2C180D7E90431814ABD
:102E1000934200F0EA807A88B6F9080092B242EA5A
:102E20000040984702460B4652EA030100F0AE808C
:102E3000002B80F2CE80BBEB020B68EB030839F964
:102E40003A30C7E902B8002B9BDB716903EB430200
:102E500001EBC202D2E90270BB4578EB000C4FEAED
:102E600043028EDBB4462CF8083F0BE031F93230D8
:102E7000F446002B0DDB03EB430001EBC0005A00CE
:102E8000D0E90270BB451A4478EB000001EBC20E9A
:102E9000ECDA29F83A30ACF80040B38818043FF572
:102EA00074AF3369EFF3108272B6D3E8CF0F01210C
:102EB0000028FAD1C3E8401F0028F6D1BFF35F8F86
:102EC0004FF6FF74B0880023316900B2B480C1E8C6
:102ED0008F3F82F310889842FFF657AF0746A94606
:102EE000746906F1080807EB470E04EBCE03D3E93B
:102EF0000250B6F90830C446002BA8BFB34605DA25
:102F00000FE034F93A309446002B09DB03EB430A17
:102F100004EBCA02D2E90261B54270EB0101F0DABA
:102F20005E46ACF8007034F93E7024F83E30002F55
:102F3000D9DAB3794D46002B3FF42BAF0023B371A0
:102F4000B6F9083006F10808591C3CD019467769D3
:102F500003E080465A1C3FF41EAF03EB430207EB2D
:102F6000C200B0F802C01C461CF4004F9E4637F960
:102F70003230EED08C4280ED028B05D0A8F80030C4
:102F8000318927F8321034817146E3E739F83A3055
:102F900033813369EFF3108272B6D3E8CF0F01218A
:102FA0000028FAD1C3E8401F0028F6D1BFF35F8F95
:102FB0007388316929F83A3000237480C1E88F3F63
:102FC00082F31088DDE640BF05B0BDEC028BBDE8A2
:102FD000F08F2846CDE9022300F054FA029A039BB1
:102FE00010EB020B43EB010829E708460B6902913D
:102FF00098470028CAD00299D1E9002314E700BFFE
:10300000FFFFFFFFFFFFFFFF00800B40EC0A0020E7
:1030100000000B40392D00102DE9F84F364C256982
:103020002DB1BDE8F84F0A213448FFF739BEDFF86B
:10303000E4800321404600F013FA0326C4F80C8014
:10304000FFF74CFC4FF0504C2D4B2670034423618E
:10305000DCF800300F216370636961801D834FF0DD
:103060000405A3F878504FF00505A3F890504FF0F1
:103070000605A3F8A8504FF007050E214FF6FF7282
:1030800008274FF00A0EA3F8C0504FF001094FF087
:103090000C0C4FF0020B4FF0090A0D204FF00B05FE
:1030A000A3F868111749A280A3F808E1A160A3F86A
:1030B00048B0A3F8F0A0A3F82051A3F838C1A3F8B2
:1030C0005001A3F83090A3F86060A3F8D8701A807C
:1030D0000D4B3046C8F820700C49DC60FFF754FCFB
:1030E00049463046FFF73AFC094B0A211F64034862
:1030F000BDE8F84FFFF7D4BDBC060020500B002000
:10310000C8090020FFFF1000EC0A0020392D001034
:1031100000200B4000000B400146F0B50069EFF3C2
:10312000108772B6D0E8CF5F0124002DFAD1C0E835
:10313000454F002DF6D1BFF35F8FB1F902E04C6926
:103140000EEB4E0CBEF1000F4FEACC0504EBCC0C9D
:103150003DDB605B002648800869C0E88F6F87F31D
:103160001088BCF80200CCE902230130C0F30E0045
:10317000012838BF0120059BACF80200CCF81030C4
:10318000069B40EA0E40CCF814300B69EFF3108236
:1031900072B6D3E8CFCF0127BCF1000FF9D1C3E855
:1031A0004C7FBCF1000FF4D1BFF35F8F8B8863536A
:1031B000A1F804E00B69C3E88F6F82F31088012245
:1031C000CB68097803F501538A405A60F0BD0023AB
:1031D0000A69C2E88F3F87F310884FF0FF30F0BDD7
:1031E00003464089B0EB214F37DD58690A1402EBE2
:1031F000420210B500EBC2001C69EFF3108C72B6EE
:10320000D4E8CFEF0122BEF1000FF9D1C4E84E2F70
:10321000BEF1000FF4D1BFF35F8F428889B292B242
:103220008A4207D000221B69C3E88F2F8CF31088D5
:10323000002010BD42F400424280012100221869A2
:103240009971C0E88F2F8CF310881C78DA680846D3
:1032500002F50153A140596010BD0020704700BF26
:103260002DE9F041861F41F1FF35B04271EB0503B6
:1032700038BF002682B038BF354604460F4600F0FE
:1032800009F9301A65EB0103012873F1000306DA2E
:103290002046394602B0BDE8F04100F07BB900F0AD
:1032A000F9F8864265EB010100290ADB0021174B82
:1032B0003246009316482B460191FFF72DFF002858
:1032C000E6DB4FF0000C1348134A436A9D4204D8D2
:1032D000816AB142DCD29D42DAD11368EFF31081EA
:1032E00072B6D3E8CF8F5FF0010EB8F1000FF8D1BE
:1032F000C3E848EFB8F1000FF3D1BFF35F8F136855
:10330000C3E88FCF81F3108820BFDEE7F92C0010CF
:10331000BC06002000000B40500B002038B50446CE
:103320000D4600F0B7F84FF0FF326FF00043201861
:1033300045EB0101824273EB010438BF1946BDE839
:10334000384038BF1046FFF78BBF00BF10B50446AA
:1033500000F0A0F84FF47A734FF0FF3C6FF000429A
:10336000E4FB0301BDE81040844572EB01033CBF60
:1033700060461146FFF774BFF0B506460D4683B0B0
:10338000EFF30584E4B2002C35D1244F3A78F96884
:1033900004328B6A51F82220D21AC31A934207D3FF
:1033A00020BF1F4B586AA8421FD2002003B0F0BDB7
:1033B00000F070F8864265EB0101002911DB194B22
:1033C0003846CDE9003432462B46FFF7A5FE011EF4
:1033D00007DD134B5A6AAA4219D220BF0F48FFF7E4
:1033E000FFFE0F4B586AA842DFD39B6A9E4209D862
:1033F000012003B0F0BD0A4B586A8842D5D39B6ABE
:10340000B342F5D2401B18BF012003B0F0BD9B6A48
:103410009E42E3D9AA42E1D1DFE700BFBC0600200B
:1034200000000B40F92C0010084AD0E90003516A53
:103430008B4204D8926A824203D301207047002055
:103440007047581A18BF0120704700BF00000B409A
:1034500001460248C1E90023704700BF293400102B
:1034600010B4054B054C064AA04214BF1846581C20
:103470005DF8044BFFF790B9500A002000800B4024
:10348000146900100346416A0A46986A596A8A42DA
:10349000FAD17047034B596A0A46986A596A9142B1
:1034A000FAD1704700000B4010B4174A536A9C468B
:1034B000946A536A6345FAD1001959414FF00002EA
:1034C00028BF01220346CAB10F4B596A4B1C08BFE3
:1034D0000B4608D04FF0FF310B460B48426A8A4238
:1034E000FCD38A4207D1084A02E0506A884202D1DE
:1034F000906A9842F9D35DF8044B7047024A526AC9
:103500009142EAD8EDE700BF00000B401F4B984204
:103510000AD84FF47A731E4A03FB00F0916A936A4B
:103520005B1A9842FBD870474FF47A7130B4184B4D
:10353000A0FB01015A6A94469C6A5A6A6245FAD114
:1035400003194A414FF0000528BF01259DB91049D4
:10355000496A8A4203D90E48416A9142FCD391429A
:1035600007D10B4902E0486A904202D1886A98422A
:10357000F9D330BC7047064B5A6A531C08BF134638
:10358000EFD04FF0FF321346E5E700BF9BC42000A9
:1035900000000B40074A536A9942FCD8994207D170
:1035A000044B02E05A6A914202D19A6A8242F9D3EC
:1035B000704700BF00000B40F8B5054606200E46D8
:1035C00000F0E4F8002842D0354A3648954214BF4E
:1035D0004FF080624FF00062334B344902601A6052
:1035E0008C6832EA0404FBD12D4B4FF48071EB1A46
:1035F000B3FA83F32E4A5B09062022F8131000F079
:10360000C5F8C300B3FBF6F30133DA0920D1402635
:1036100001216962AA622F6BFB0722D42B4600228C
:1036200053F82C1F062003F5805422602F6300F00E
:10363000ADF840F2013103228000B0FBF6F0EB6AF6
:1036400083F0700303F07E0323602963AA64F8BD4E
:103650004FF6FE718A421BD922464FF6FF71154E76
:10366000D7E740F2013205F540531A636B6AAC6A42
:10367000062004EB831400F089F80F4BA402A3FB8F
:103680000023DB0A0021B4FBF3F0FFF70DFFC5E7D1
:10369000C3F34503114603EB82161A46B9E700BF90
:1036A000008007400020024000300240000002403D
:1036B000540B0020C0FF3F00757B2B8F00EB400CAC
:1036C0004FEA8C0C0CF1804C0CF5803CF0B51646A2
:1036D000DCF80420051FB2F5803F38BF4FF480327C
:1036E000EDB238BFCCF80420012D2AD94FF4006781
:1036F000254C0CF54052176054F82020B2B9DCF884
:103700000020012D82EA461202F0E0020CF58056FC
:1037100032602AD94FF4006144F820304FF48033EE
:103720000CF500521160CCF80430F0BD6769B7FBAE
:10373000F2FE0EF1010E0EEB4E0EBEF1030EFCD2A8
:10374000DDE70129D2D103240CF540521460DCF8E6
:103750000820D207FBD5DCF800200B4C82EA461289
:1037600002F0E0020CF5805632600122DCF80050D5
:103770004D4005F00305356002FA01F1DCF8082040
:103780000A42FBD0C6E700BF940A0020014B53F861
:1037900020007047940A002070B4039D04682D0334
:1037A00045EA03451B4B002CB3FBF1F3B2FBF3F6E8
:1037B0001FDB194A194B904214BF4FF480424FF45B
:1037C0000042174C1A6003F580531A60A36832EA6E
:1037D0000303FBD1212200F54053043301608660CE
:1037E0001A600268002AFCDA0822C5601A6070BC00
:1037F0007047036803F03F038B42DAD18368C3F359
:103800000B03B342D5D1C36803F4EE23AB42D0D14E
:10381000EDE700BF001BB70000800540002002401C
:1038200000000240012300EB4000800000F18040D6
:1038300000F5841041600360704700BF0023DB8AFD
:10384000002242E800F2520201D41021184704215C
:10385000184700BF034AD2F82838002BFBD0BFF32B
:103860005F8F704700000E400021044B044ABFF3F5
:103870005F8F43F8041B9342F9D170470C080E4048
:103880002C080E4010B42F204FF42A64054A064B32
:1038900006491460D06019605368002BFCDA5DF8AB
:1038A000044B70470080044000A0044000B0FA00C0
:1038B000704700BF08B50148FEF73AFF38690010AD
:1038C00038B5054C054DAC4204D254F8043B98473A
:1038D000AC42FAD338BD00BF186400105864001021
:1038E00010B40748074C084B084A094904601A609D
:1038F0008B6832EA0303FBD15DF8044B704700BFCD
:10390000002002407F3BEFEF00300240F6FFF30360
:1039100000000240044BDB6CB3F5004F03D14FF4C1
:103920008022024BDA6470470000115000201150D1
:103930004FF0E022044BD2F8881D0B43C2F8883DBB
:1039400010EE3004704700BF030330006FF0604199
:10395000044B054A19609368DB4333F06043FAD1A6
:10396000704700BF003002400000024010B545F231
:103970005320FFF763FFBDE81040034604201847BB
:1039800010B545F25320FFF759FFBDE8104003463C
:1039900001201847FEF7B6BF10B5054B054C4FF494
:1039A00088721846A16802F07DFCA06010BD00BFBF
:1039B0000000002000ED00E0002370B52B4C82B029
:1039C000C4F88430FFF75EFF0122294BDA63636C91
:1039D000012BFCD10321264A244B11639C6B012C43
:1039E000FCD10226052521460523224A22480096BD
:1039F000FFF7D2FE21462B46204A21480095FFF7CB
:103A0000CBFE0022042031461E4BFFF757FE214615
:103A1000284600221C4BFFF751FE002208201146C9
:103A20001A4BFFF74BFE002209201146174BFFF7F8
:103A300045FE002206201146134BFFF73FFE0022F1
:103A4000114B07201146FFF739FE0420FFF79EFEB9
:103A500000240F4BA3FB0035AD0CE0B22946013426
:103A6000FFF7E0FE062CF8D102B070BD0000014067
:103A700000300140002F685900000540008C864747
:103A800000800540001BB70080D1F008006CDC020C
:103A900083DE1B4386B003B451FC0804CDE9020168
:103AA00051FC0904CDE9040151EC0A04CDE90601F9
:103AB00003BCF047BDE800504EEC00C4BDE8005028
:103AC0004EEC01C4BDE800504EEC02C400BD000045
:103AD00000B5FFF7DFFF02E010FE30F4F8D441EC50
:103AE000100443EC112400EE010410EE010480EEFA
:103AF000200451EC1004704700B5FFF7CBFF02E043
:103B000010FE30F4F8D441EC100443EC112400EE24
:103B1000010410EE210480EE200451EC30047047C3
:103B200000B5FFF7B7FF02E010FE30F4F8D410B58F
:103B300041EC100443EC112451EC040453EC052433
:103B4000A0FB024C5FF0000EE0FB03CEE1FB02CED7
:103B50004CEC20440024E1FB03E444EC30E480EE30
:103B6000200451EC5004BDE81040704700B5FFF749
:103B700091FF02E010FE30F4F8D441EC100443EC65
:103B8000112451EC2104A0FB01126FEA820252FBC6
:103B9000100052FB12F252FB1000A0EBD07C53EC51
:103BA00004245CFB13F153EC1524A1FB022001FB60
:103BB000030053EC4424A2EB000050FB1CF24FEA3C
:103BC000111312EB017043EBE27140EA515020EA0D
:103BD000915020F0070053EC7524A0FB023C53ECFD
:103BE000752400FB03CC01FB02CC53EC0424ACEBAA
:103BF000824C40EA5C70A0F1010041EC400480EE90
:103C0000200451EC7004704700B5FFF743FF02E059
:103C100010FE30F4F8D440EC700400EE010410EE15
:103C2000210480EE200451EC3004704700B5FFF70A
:103C300031FF02E010FE30F4F8D440EC600400EEF6
:103C4000010410EE210480EE200451EC3004704792
:103C500000B5FFF71FFF02E010FE30F4F8D441EC8E
:103C6000800400EE010410EE010480EE400410EE2A
:103C70001304704700B5FFF70DFF02E010FE30F4AB
:103C8000F8D441EC800400EE010410EE010480EE53
:103C9000400410EE3304704700B5FFF7FBFE02E06E
:103CA00010FE30F4F8D441EC100443EC112400EE83
:103CB000010410EE3004C0F30070704700B5FFF748
:103CC000E9FE02E010FE30F4F8D443EC102441EC9D
:103CD000110400EE010410EE30F48CBF012000202E
:103CE000704700BF00B5FFF7D5FE02E010FE30F4CC
:103CF000F8D441EC100443EC112400EE010410EE62
:103D000030F42CBF01200020704700BF00B5FFF742
:103D1000C1FE02E010FE30F4F8D441EC100443EC94
:103D2000112400EE010410EE30F48CBF01200020BD
:103D3000704700BF9A4238BF88547047704700BF31
:103D40002DE9F04F83B09946DDE90DAB0F9B884616
:103D500011469A07074616D1DA453AD20C460D4667
:103D6000ABEB0A060E4422464B4641462020013466
:103D7000B847B442F7D12946BAF1000F08D120461E
:103D800003B0BDE8F08F0C46BAF1000F10D00E461C
:103D900055460C9B2E449A440191721B4B46013DA3
:103DA00041461AF8010D3446B847002DF5D1019966
:103DB0000F9B9B07E3D5651AAB45E0D922464B46DE
:103DC000414620200135B8475D4504F10104F5D393
:103DD000D5E7BAF1000FDAD10C46D0E72DE9F04F64
:103DE0000F9FDDF824E017F0020F0A9C9DF82C903D
:103DF0000E9DDDE90C8629D1002D6FD1B44225D26C
:103E0000202C07F0010B00F0128104F1FF3C4FF071
:103E1000300AF44401E0202C7AD00134A6420CF898
:103E200001AFF8D8BBF1000F10D0AC420ED2202C5D
:103E300074D004F1FF3C4FF0300AF44401E0202C30
:103E400029D00134AC420CF801AFF8D117F0100FB3
:103E50003AD017F4806F28D11CBBB8F1100F00F0D6
:103E6000CA80B8F1020F00F0D48030248EF80040F0
:103E70000124B9F1000F67D17E0740F1AA802B26FB
:103E80000EF804600134CDE90B57CDE909E4BDE833
:103E9000F04FFFF755BFFC0640F189807C0535D413
:103EA0002024A6426AD0AC4268D0B8F1100F00F0CE
:103EB0008780B8F1020F5AD0202CE4D02646013476
:103EC0004FF0300C0EF806C0202CD2D1CDE90B57A4
:103ED000CDE909E4BDE8F04FFFF732BF17F0010B61
:103EE0003ED0B9F1000F47D117F00C0F44D1B442C6
:103EF0009BD2202C89D1202D10D8FC0657D57C05CB
:103F000055D4202E00F0B980202D10D02024CCE7ED
:103F1000BBF1000F00F0A580202DBCD9FC0646D5D2
:103F20007C0544D4202E00F0A880202D3FD12C46C3
:103F30001F26B8F1100F7FD0B8F1020FC0D14FF09B
:103F4000620C0EF806C0B7E72D260EF804600134A7
:103F5000CDE90B57CDE909E4BDE8F04FFFF7F0BE1E
:103F6000B442BFF473AF202C7FF44FAFD6E7202CC0
:103F700089D026460134E2E7013DB8E7661ED8D174
:103F8000B8F1100F64D0B8F1020F7FF46EAF622663
:103F90008EF80060302644468EF80160B9F1000FBB
:103FA0003FF46AAFD0E7B8F1100F7FF46CAF202474
:103FB000CDE90B57CDE909E4BDE8F04FFFF7C0BEEE
:103FC000BE060ED4202CF2D078260EF80460013400
:103FD00072E73E077FF557AF20260EF804600134E4
:103FE00051E7202CE3D04FF0580C0EEB040686F876
:103FF00000C0013460E7BE0617D558248EF8004093
:1040000030248EF801400224B9F1000F3FF434AFA0
:104010009AE762248EF8004030248EF80140022492
:10402000B9F1000F3FF428AF8EE77824F2E7BBF137
:10403000000F7FF462AF71E717F0200F0CBF4FF055
:10404000780C4FF0580CA61E0EF806C0013C35E760
:10405000BC06EAD558248EF8004030248EF8014082
:10406000DDE717F0100F3FF40EAF17F4806F9AD111
:10407000202E7FF418AF1F265BE734461F2658E733
:1040800000B9704701F0E6BA10B1D1E90031184724
:10409000704700BF000000002DE9F04F9FB09DED7C
:1040A000287BDDE92AA558EC177B83461E460D9137
:1040B000109243463A46384641468DED087B2C9C8B
:1040C000FFF7EEFD002840F0D880384641464FF01B
:1040D000FF32754BFFF71EFE002840F0CE803846B9
:1040E00041464FF0FF326FF48013FFF7EBFD0028DD
:1040F00040F0C380DDE908780022384641460023BD
:10410000FFF7E0FD002840F0C081CDE90A78DDE945
:104110000A2390461F4614F4806308BF4FF0060A36
:10412000139304F4006258EA0703119240F0C08030
:10413000002A00F0A2819FED5A7B00278DED0E7BB7
:104140004FF00009BA45CCBFAAEB070A4FF0000AAE
:104150004F46C8BF0AF1FF3A44F480644D4594BF0E
:104160004FF00008A5EB090814F00203119304D0E6
:10417000B9F1000F18BF4FF000083FB1DDE90A01A7
:10418000DDE90E23FFF7F6FCCDE90A01DDE90801C0
:1041900000220023FFF796FD30B1DDE90A01024657
:1041A00001F10043CDE90A239DED0A7BCDE902A888
:1041B000DDF834A024F4006304938DED007B3346D6
:1041C00051465846109A00F097F98046B9F1000F11
:1041D0004FD014F0200F024600F1010433460CBF0B
:1041E000652045205146D84709F1FF3087EAE77C32
:1041F0000DF1580900224B46DFF8B080ACEBE77CAC
:104200004FEAD77E01E0202A10D0E246A8FB0C71CD
:10421000C90801EB8107ACEB47073037BAF1090F4A
:104220008C4602F1010203F8017BECD805230590CE
:10423000069300200A230D9FCDE90330CDE9012E1E
:104240003346224639465846CDF80090FFF7C6FD62
:10425000119B80466BB1109BC41AA54209D94246F6
:104260003346394620200134D847A54208F10108D9
:10427000F5D840461FB0BDE8F08F9DED087B334672
:104280005846109A0D998DED287BCDE92B54CDF829
:10429000A8A01FB0BDE8F04F00F02EB9AFF300802A
:1042A0000000000000000000FFFFEF7FCDCCCCCC71
:1042B000C7F30A50A0F2FF30FFF7AAFC8AA3D3E9A4
:1042C0000023FFF731FC8AA3D3E90023FFF704FCA6
:1042D000C7F31307CDE90E0147F07F514046002296
:1042E0007B4B41F44011FFF70BFC6BA3D3E9002398
:1042F000FFF71AFC02460B46DDE90E01FFF7ECFB67
:10430000FFF7AAFC0746FFF783FC65A3D3E9002368
:1043100080468946FFF708FC00226E4BFFF7DCFB66
:10432000FFF79AFC03464946404612935EA3D3E941
:104330000023FFF7F9FB804612988946FFF768FCD7
:104340005BA3D3E90023FFF7EFFB02460B46404691
:104350004946FFF7D5FB02460B4680468946FFF7E4
:10436000E3FB42464B46CDE90E0140464946FFF786
:10437000B3FB0022CDE91401DDE90E01564BFFF736
:10438000F9FB0022554BFFF7A7FB02460B46DDE980
:104390000E01FFF7EFFB0022514BFFF79DFB02469A
:1043A0000B46DDE90E01FFF7E5FB42464B46804632
:1043B000894600204FF08041FFF7A2FB02460B46E2
:1043C00040464946FFF788FB02460B46DDE91401EB
:1043D000FFF7D0FB0022434BFFF77EFB129B00222E
:1043E00003F2FF3C4FEA0C53FFF79EFB80468946E1
:1043F000DDE90A0142464B46CDE90E89FFF762FC32
:1044000068BB4346494607F16302C62A119A8CBF2E
:104410004FF005094FF00409002A3FF49FAE0B430B
:104420003FF48EAEDDE90A0123A3D3E90023FFF7B1
:104430005DFC48B1DDE90A0121A3D3E90023FFF7C0
:1044400041FC00287FF47CAEBAF1000F3FF486AE49
:10445000139B002B3FF482AE0AF1FF3A7EE6002266
:104460001E4B40464946FFF785FB0A460146034678
:10447000CDE90E12013F1146C5E79FED137B1746AC
:104480004FF004098DED0E7B68E608F100430A97B2
:104490000B933CE6AFF3008061436F63A787D23F85
:1044A00071A379094F930A401655B5BBB16B024011
:1044B000EF39FAFE422EE63F2D431CEBE2361A3F5F
:1044C0000000000080842E41000000000000000079
:1044D0000000F83F0000E03F00002C4000002440B6
:1044E000000018400000F03FFB799F501344D33F79
:1044F000B3C8608B288AC63F2DE9F04F97B0DDE93D
:104500002089CDE90401DDE9224BCDE906234046AF
:1045100042464B464946DDF890A0FFF7C1FB002814
:1045200040F0C581404649464FF0FF326FF480139A
:10453000FFF7C8FB002840F01D81404649464FF078
:10454000FF32C14BFFF7E6FB002840F0E380B8A341
:10455000D3E9002340464946FFF7DCFB002840F042
:10456000CB80B5A3D3E9002340464946FFF7AAFB19
:10457000002840F0C1804046494600220023FFF752
:10458000A1FB002840F0E0801AF480650D9000F057
:10459000E980092C40F296810EAB1A460C9330212B
:1045A0000023A4F109050133202B02F8011BA4EB21
:1045B000030600F03A81AB42F5D19FED9D7B8DED76
:1045C000087B49464046FFF747FB0446FFF720FBC0
:1045D00002460B4640464946FFF792FADDE90823BA
:1045E000FFF7A2FA02460B46CDE90A23FFF746FB86
:1045F0000746FFF71FFB02460B46DDE90A01FFF7FE
:104600007FFA02460B46CDE90A2300228F4BFFF7C3
:1046100081FB002800F0DB8001373846FFF70AFBFA
:10462000DDE90823FFF762FB08B100270134002E03
:1046300040F0B1802046FFF7EBFA02460B464046B9
:104640004946FFF75DFA0022804B06460F46FFF70A
:1046500039FB40B93046394600227C4BFFF75AFB04
:10466000002800F015810C9B691E7948194410E060
:1046700080FB0462C3EBA20303EB8302A4EB4204BE
:1046800004F1300201351C4601F8012F002B00F027
:10469000AB80202D4FEAE473EAD10AF00303012B2B
:1046A0001CD1BBF1000F19D00D9B002B40F0F980FD
:1046B0001AF00C0F40F0F580AB4540F2D380202D6E
:1046C0000BD030220C996B1E0B4401355D4503F86D
:1046D000012F00F08D80202DF7D12025DDE9062364
:1046E000DDE904010C9CCDE902BA01950094FFF7C5
:1046F00027FB17B0BDE8F08FCDE92089DDE906235F
:10470000DDE90401CDE923BA229417B0BDE8F04FEA
:10471000FFF7C2BC4F4DCDF88CA00AF0040ABAF1E5
:10472000000F4D4C18BF2C46DDE90623DDE90401DE
:1047300020940CBF03240424CDF888B0219417B032
:10474000BDE8F04FFFF7FCBA4B464246002000217F
:10475000FFF7D6F901231AF48065804689460D9348
:104760007FF417AF9FED367B0EAB06268DED087BF1
:104770000C9326E70424DDE90623DDE90401374D27
:10478000CDF88CA0CDF888B02095219417B0BDE865
:10479000F04FFFF7D5BA0C9B681EDFF8C4C0184471
:1047A0000DE0ACFB0721C90801EB8102A7EB420237
:1047B0003032092F00F8012F27D90F461D46202D32
:1047C00005F1010306F1FF36EBD120254BE700226E
:1047D000DDE90A011D4BFFF775FA00287FF427AFCA
:1047E000002F5AD1013722E70AF00303012B75D0BD
:1047F000202D3FF473AF0D9BBBB32D2205F1580361
:104800006B4403F8202C013568E7202BDDD0AEB3D4
:104810000C9A1E441544302201E0B3422ED00133DD
:10482000202B05F8012FF8D1CFE71D46C5E600BFC4
:104830000000000065CDCD410000000065CDCDC178
:104840000000000080842E41FFFFEF7F0000E03F6A
:1048500067666666806900108869001090690010BC
:10486000CDCCCCCC202D3FF439AF1AF0040F0DD1B4
:104870001AF0080F3FF432AF2022BFE72E2103F1D8
:1048800058026A4402F8201C5D1CECE62B22B5E7B6
:10489000E3077FF5E8AE0134E5E6FA077FF5C7AE3A
:1048A000A0E70BF1FF3BAB453FF609AFA0E70324C0
:1048B000DDE90623DDE904010A4DCDF88CA0CDF831
:1048C00088B061E7084B264603EBC40393ED007BF9
:1048D0000EAB8DED087B00250C9372E6BBF1000F4B
:1048E00086D0E1E68C690010786A00102DE9F04F5F
:1048F0009A469BB0249C964D0B94964C0B1E18BF69
:10490000834625609AF80000934C0A9308BFA3469B
:104910000992002800F0BC824FF000090AE04A46E4
:10492000099B0A9909F10109D8479AF80000002863
:1049300000F0CE8025280AF1010AF0D1002352466A
:1049400012F8010BA0F1200110290AD8DFE801F0CC
:104950004009093C09090909090909380934090903
:104960003000A0F13001092940F28C802A2800F0A3
:10497000F58000210C912E2800F099800027A0F1ED
:10498000680112292DD8DFE811F057012C005101E0
:104990002C0045012C002C002C002C002C002C009D
:1049A0002C0027002C002C002C002C002C002700B1
:1049B000924643F00103C2E7924643F00203BEE78A
:1049C000924643F00403BAE7924643F01003B6E779
:1049D000924643F00803B2E79AF8010043F480736B
:1049E00001326728924600F28280242840F2C68075
:1049F000A0F12502422A00F2C180DFE812F05F0137
:104A0000BF00BF00BF00BF00BF00BF00BF00BF00AE
:104A1000BF00BF00BF00BF00BF00BF00BF00BF009E
:104A2000BF00BF00BF00BF00BF00BF00BF00BF008E
:104A3000BF00BF00BF00BF00BF00BF00BF00260116
:104A400045012601BF00BF00BF00BF00BF00BF007F
:104A5000BF00BF00BF00BF00BF00BF00BF00BF005E
:104A6000BF00BF00D301BF00BF00BF00BF00BF0039
:104A7000BF00BF00BF00BF00D3016701D301260103
:104A800045012601002100E0013201EB810100EB2C
:104A9000410110789246A0F13004092CA1F13001B7
:104AA000F2D92E280C9102F101027FF467AF9AF837
:104AB00001001146A0F13006092E43F4806340F254
:104AC00031812A2800F03E8192460027013256E7C4
:104AD0004C46099B994501D303F1FF394A46002012
:104AE000099B0A99D84720461BB0BDE8F08FA0F17A
:104AF0006902D2B20F2A41D8012649F241019640FB
:104B00000E4040F001810A2A3FD0072A36D10B9C83
:104B100054F8042B002A00F0288143F021010DF104
:104B2000480E704603E0202E00F029811A4602F05C
:104B30000F052B46092D94BF303337330F2A00F869
:104B4000013B06F101064FEA1213ECD817E100BF52
:104B5000ED480010CC0A00203D3D00100B9C9AF857
:104B6000010054F8045B9246002DBDBF694243F03A
:104B700002030C910C950B940132FCE64A46099B0A
:104B80000A9909F10109D847CFE60B9951F8048B2E
:104B900098F800201046002F40F0E18072B16FF0CD
:104BA000010C0CF1010C4646C44401E0664503D0FB
:104BB00016F8014F002CF9D1A6EB080613F4806C0F
:104BC00002D0BE4228BF3E4613F0020400F08781A7
:104BD000002A00F02B81BCF1000F00F041810B9402
:104BE0000D964A46DDE909540E464F4408E02B462F
:104BF0002146D84718F8010F09F1010910B14A46BA
:104C00004F45F4D131460B9C0D9E002C40F00E8197
:104C10000B918AE69AF801006C287FF4DFAE9AF8CF
:104C2000020043F440730AF10302DAE69AF8010045
:104C300043F400730132D4E69AF80100682800F0CA
:104C4000208143F080030132CBE6672800F0E78043
:104C5000472800F00081452800F0FF800B9C04935A
:104C60000C9B0734CDE9027324F007031C46DDE9F1
:104C70000931F4E802674A465846CDE900670B94CB
:104C8000FFF70AFA814650E646280B9C08BF43F01E
:104C9000200304930C9B0734CDE9027324F007032F
:104CA0001C46DDE90931F4E802674A465846CDE979
:104CB00000670B94FFF720FC814636E64A46252024
:104CC000099B0A9909F10109D8472EE60B9A9C071E
:104CD00002F1040709F1010640F1E6801078099B12
:104CE0004A460A99D8470C9B012B40F22C81DDE9FA
:104CF0000954994432462B46214620200136D84794
:104D00004E45F7D10B9710E66F2800F08B8040F2EC
:104D10006581782800F008814FF00A0823F010031D
:104D2000C44647E0002707EB870700EB4700A0F1E8
:104D3000300711F8010FA0F13002092AF3D98A4691
:104D40004A1C1CE60B9C9AF8020054F8047B0AF1FA
:104D5000020A0AF101020B9427EAE7770FE6002A1C
:104D60003FF42CAF07F1FF3C1BE723F0100113F4D5
:104D7000806241F021013FF4D2AE0DF1480E0823CC
:104D80001020059300234A46CDE90230069158468B
:104D9000DDE90931CDE900E60497FFF71FF80B9430
:104DA0008146C2E5582879D0622840F051824FF000
:104DB0000208C44613F480606DD123F00C0313F491
:104DC000007240F0C2800B9904310D9113F4807190
:104DD00040F02E825E060B9A40F1AA801278002ADB
:104DE00040F0DA8023F01003002800F0D58011464F
:104DF0000DF1480E06930C9BCDF80CC0CDE9047361
:104E0000019100234A4602935846DDE90931CDF865
:104E100000E0FEF7E3FF0D9B81460B9385E543F42D
:104E200000631BE74FF00808C446C3E70C9B4C46E1
:104E3000B3427FF6EDAE0F464B44A3EB0609DDE926
:104E4000096522463346294620200134D8474C457F
:104E5000F7D13946DCE643F4006343F02003FDE676
:104E60000F460B94DDE909544A462B462146D847A4
:104E700018F8010F09F101090028F5D139460B9CFA
:104E8000C3E69AF8020043F0C0030AF10302A8E562
:104E9000044681461DE623F00D0390E74FF010080D
:104EA00043F02003C44685E70C9B012B45D9DDE97F
:104EB00009544E4609F1FF38984432462B462146A4
:104EC00020200136D8474645F7D10C9B32469944FD
:104ED0000B9B1878DDE90931D8470B9725E50C9B2A
:104EE000B34240F2EE81CDE90D48DDE90954884630
:104EF0004B449E1BCDF82CC04A462B462146202011
:104F000009F10109D847B145F6D14146DDF83880AD
:104F10000C9BDDF82CC00D9C98F800205E1C104600
:104F2000002A7FF458AE73E64FF01008C44641E7FC
:104F30001D064CBF1288126851E713464A4618787E
:104F4000DDE90931D847B146DCE60B9C073424F093
:104F500007042246656852F8084B0B9254EA050292
:104F600040F02C8123F01003002800F02781002658
:104F70000DF1480E06930C9B4A46CDE904730023BD
:104F8000CDE900E6CDF80CC002935846DDE90931C1
:104F9000FEF724FF8146C8E413F0200F14BF412020
:104FA00061200DF1480E7646A0F10A0803E02029A1
:104FB0003FF420AF2246B2FBFCF40CFB1425E8B210
:104FC000092D00F130058ABF4044E8B2C0B2624505
:104FD00006F8010B01F10101E9D20BE723F0100201
:104FE00069280D9240F06F8113F4806204D04FF471
:104FF000806223F011030D930D9B13F4007640D1D2
:105000000B9B03F104080D9B13F4807040F0988013
:10501000590640F1C6800B9B19780C46CB0F00292E
:1050200000F0B98022460DF1480E74461646DFF8AE
:10503000A0C201E020280FD03546ACFB0621C908EC
:1050400001EB8102A6EB42023032092D0E4600F13F
:10505000010004F8012BEDD80D9ACDE90103069269
:105060000C9ACDE904720A234A4603935846DDE9B7
:105070000931CDF800E0FEF7B1FECDF82C80814675
:1050800053E40B9C073424F0070421460846636868
:1050900050F8081BDC0F0B9051EA030000F0C380AE
:1050A0000A46191E48DB13460DF1480EF446002649
:1050B000CDE90E94DFF8188201E0202E2DD05A1889
:1050C00042F10002A8FB025929F0030505EB9905FE
:1050D000521B1C469B1A61F1000508464FF0CC316B
:1050E00001FB03F108FB0511A3FB08531944052339
:1050F00005F00109A9FB03399B180A2C03F13003C1
:105100004FEA550570F100000CF8013B06F101066D
:1051100045EAC1734FEA5101CFD2DDE90E940D9BF0
:105120004A4606930C9BCDE90164CDE904730A233A
:10513000CDF800E0039328E7524261EB4101B2E76A
:105140000B9B1968CB0F002900F0AB8081EAE1725C
:10515000A2EBE1720DF1480E7046DFF874C101E078
:10516000202E10D01546ACFB0241C90801EB81048A
:10517000A2EB440404F13002092D00F8012B06F1E2
:1051800001060A46ECD80D9ACDE9016306920C9A05
:10519000CDE9047267E7002A3FF445AF0DF1480EF0
:1051A0005AE713F0800F0B9B00F08180B3F90010D9
:1051B00081EAE174A4EBE174A4B22FE713F0200FAD
:1051C00014BF412261220DF1480E0A3ACDE90D9734
:1051D000CDF844B000267746F3469146CDE90F3C22
:1051E00003E0202E17D004460D46294642460023F0
:1051F000204601F0FDF8D2B2092A02F1300388BF3F
:1052000002EB09034445DBB275F1000507F8013BE9
:1052100006F10106E5D2DE46DDE90D97DDE90F3C3A
:10522000DDF844B0A6E6002A47D1134611463BE715
:105230000B990968A1B923F0100388B10DF1480E4C
:1052400006930C9BCDF80CC0CDE904730192D8E510
:1052500013F480627FF4CBAE23F010030D93CBE602
:1052600013F0200F14BF412061200DF1480E764647
:10527000A0F10A0802E0202AE2D02146B1FBFCF4AA
:105280000CFB1415E8B2092D00F130058ABF40442B
:10529000E8B2C0B2614506F8010B02F10102EAD2A0
:1052A000CEE7002A3FF456AF0DF1480E6BE71968C0
:1052B00081EAE174A4EBE174B0E600260DF1480E3A
:1052C0002DE701362BE64FF00A081346C44671E578
:1052D000CDCCCCCC0EB410B585B007AC54F8043BA3
:1052E00001464FF0FF32009404480394FFF7FEFAA2
:1052F00005B0BDE8104003B0704700BF353D001059
:1053000070B594461E4605460C4684B04FF0FF32F9
:10531000634602A900960348CDE90254FFF7E6FA76
:1053200004B070BD8940001010B5094B84B01C68F2
:105330004CB1034600914FF0FF3203A90548A04746
:10534000012004B010BD00F0C7F9204604B010BD24
:10535000CC0A00208140001000BEFDE708B5FFF731
:10536000FBFF00BF38B5064C064DFEF7A9FAAC426C
:1053700004D254F8043B9847AC42FAD338BD00BF7E
:10538000586400106064001003680846114618470E
:10539000437D2DE9F04781460F461646002B43D04A
:1053A000002A3BDD037D00204D1E014615F8012F2C
:1053B000DFF884800A2A01F101040ED0A6421CD035
:1053C0002B782146A3F10D03B3FA83F315F8012FCF
:1053D0005B090A2A01F10104F0D1002BEED18142D0
:1053E000A1EB000138441BDC02214046D9F8003013
:1053F0009847A64208D02046E2E7864204DD311AEB
:10540000D9F8003038449847374417F8013CA3F1E5
:105410000D03B3FA83F35B0989F81430BDE8F08714
:10542000D9F800309847DFE73846D9F80030114600
:10543000BDE8F047184700BFC86A00100B682DE9A7
:10544000F041802B0D46064605D05A1C2B442A609D
:105450001E71BDE8F0810F4B1C68A4B10E4F01F125
:10546000040801E0246974B12368002BFAD03B687A
:105470000BB1A342F6D1204641462A68FFF788FFC8
:105480002469002CF0D1002301222B442A601E71D4
:10549000BDE8F081BC0A0020C00A00202DE9F047D9
:1054A00082B00D46924699460746FDF7F3FF4FF04E
:1054B000FF366FF000442F4A821841F100039642F4
:1054C00074EB03013CBF324623462B4800F098FFA3
:1054D0006B1C804603D1384600F05AFF0546274B27
:1054E000274E1C68274BB9F1000F18BF1E46B4B1F8
:1054F000BAF1000F1AD1DFF8909001E0246974B17D
:105500002368002BFAD0D9F800300BB19C42F5D1BA
:1055100020462A463946B0472469002CF0D1B8F11C
:10552000000F1FD1284602B0BDE8F0874FF00A0AED
:10553000DFF8549002E02469002CF0D02368002B9F
:10554000F9D0D9F800300BB1A342F4D12A4639463C
:105550002046B047012220460DF107018DF807A033
:10556000B047E8E7044800F047FF284602B0BDE82E
:10557000F08700BF40420F00F4060020BC0A002064
:105580008953001091530010C00A00200A4A136882
:105590004BB1834202D109E0984207D003F11002D7
:1055A0001B69002BF8D101B1106070470029FCD1B4
:1055B0000369136001617047BC0A002008B500F060
:1055C000EBF9012008BD00BF2DE9F04182B006468D
:1055D000FDF760FF4FF0FF326FF00043361841F1E6
:1055E0000007B24273EB07013CBF16461F46DFF8C7
:1055F0006080154DD8F8004014B912E0246984B1D8
:105600002B680BB19C42F9D1A368002BF6D0012185
:1056100001A898470028F1DD9DF8040002B0BDE81C
:10562000F0810A4B5A6A974209D89B6AB34204D365
:105630006FF0010002B0BDE8F0819742F8D101207F
:105640000021FDF731FFD5E7C00A002000000B4024
:10565000BC0A0020F0B583B006468DF80700FDF7C0
:1056600019FF4FF0FF356FF00044174A821841F1DF
:105670000003954274EB03013CBF23462A461348BE
:1056800000F0BEFE124B07461C689CB1114D01E0B4
:1056900024697CB12368002BFAD02B680BB19C42A3
:1056A000F6D1204601220DF10701FFF771FE2469B2
:1056B000002CEFD117B9304603B0F0BD034800F01D
:1056C0009BFE304603B0F0BD40420F00F4060020C0
:1056D000BC0A0020C00A002038B5044600F058FE7D
:1056E000012305461A4620462946FFF7D7FE084BF8
:1056F0001C682CB163682BB198472469002CF9D140
:10570000284638BD2469002CF4D1284638BD00BF96
:10571000BC0A00202DE9F041A2B004460D46FDF779
:10572000B9FE4FF0FF376FF00046274A821841F16B
:105730000003974276EB03013CBF3A4633462348C9
:1057400000F05EFE00262B4607462246204801A9AF
:105750000196FFF7D5FD019B06467BB91D4B1C68E2
:105760002CB1636843B198472469002CF9D10FBB71
:10577000304622B0BDE8F0812469F1E7DFF85480BB
:10578000D8F80050EDB1144C01E02D6975B12B68CB
:10579000002BFAD023680BB1AB42F6D12846019A10
:1057A00002A9FFF7F5FD2D69002DF0D1D8F80040D2
:1057B0000195D5E7054800F01FFE304622B0BDE850
:1057C000F0810195D3E700BF40420F00F4060020AE
:1057D0003D540010BC0A0020C00A00200FB400B5E0
:1057E00083B004A951F8040B0191FFF793FF03B0B4
:1057F0005DF804EB04B07047B1F1000C1DDD0F4AF9
:105800000F4B126830B5D31AB3FA83F30D240D4D44
:105810005B09411E35F913E08C4411F8010F8645F0
:1058200006D093699B06FCD461451060F5D130BD6C
:1058300093699D06FCD41460F3E77047580B002071
:1058400000800740540B0020224BB1F1000C10B433
:105850001C682EDD034600201F4A591E12689369FA
:10586000DB0617D401309369DB06FCD4136884454A
:1058700001F8013FF3D14CB150211346916353F825
:10588000342F02F0380203F580531A6060465DF849
:10589000044B70474CB150211346916353F8342F99
:1058A00002F0380203F580531A6078B15DF8044BBA
:1058B00070475CB1084B50211A681346916353F846
:1058C000342F02F0380203F580531A606FF00200A3
:1058D000ECE700BF480A0020580B0020054B1B686E
:1058E00033B10021044A05481268006891631847E3
:1058F000704700BF480A0020580B00204C0A0020C7
:10590000024B1A6893691B07FCD47047580B0020A0
:10591000F8B51C4F1C4D3A681C4EAA4214BF2125F5
:1059200022250446D6F800C018B1BCF1000F10D0F3
:10593000F8BDBCF1000FFBD0014690632846FDF78F
:105940000DF828461249FDF74FF8124B34601C60E1
:10595000F8BD0B460F4A0E49306028461360FDF72C
:1059600013F801212846FCF7F9FF3A685021134645
:10597000916353F8342F02F0380203F580531A6014
:10598000F8BD00BF580B002000800740480A0020E7
:10599000DD5800104C0A002010B50E490E4C0F487F
:1059A0000F4A104B007821600020022112781B78EA
:1059B000FCF768FE02210120FCF764FE4FF4E131A0
:1059C0002068FDF7F9FDBDE8104001210648FFF70A
:1059D000DDBD00BF00000740580B0020306B0010F9
:1059E0002C6B0010286B0010D40600202DE9F84F16
:1059F0004FF0010CDDE90B46002791460268B3F138
:105A00000008D766054651609DF828B0C2F86CC002
:105A100021DD08F1FF3A14B101213046A0472B687F
:105A20005A6F102AFCD0002F33D00022BA4504BF91
:105A30008BF0010142EA412242F480721A618CB17A
:105A4000D3F88020596B11F0400113D0002130466B
:105A50005B6DA047C743384685F804B0BDE8F88FB2
:105A60009A6F7AB9D3F880205A6B5206F8D5002085
:105A70005B6DEFE73046A0470028EBD12B689A6FAB
:105A8000002ADDD01B690137B84509F8013BC2D1B6
:105A9000E1E72A799202C9E7F8B5064605200C46E7
:105AA000FDF774FE00EB540CBCFBF4FC214B0CEB3B
:105AB0004C02A3FB025320499F088C42ACEB930598
:105AC00030D801F1D64101F5A10101F62C0100EB1E
:105AD0004003A1FB03139B0D013300244F2A98BF01
