:020000041000EA
:10000000002008205D0100101301001015010010F0
:100010001101001011010010110100101101001058
:100020001101001011010010110100101701001042
:100030001101001011010010190100101B01001026
:100040001D0100101D0100101D0100101D010010F8
:100050001D0100101D0100101D0100101D010010E8
:100060001D0100101D0100101D0100101D010010D8
:100070001D0100101D0100101D0100101D010010C8
:100080001D0100101D0100101D0100101D010010B8
:100090001D0100101D0100101D0100101D010010A8
:1000A0001D0100101D0100101D0100101D01001098
:1000B0001D0100101D0100101D0100101D01001088
:1000C0001D0100101D0100101D0100101D01001078
:1000D0001D0100101D0100101D0100101D01001068
:1000E0001D0100101D0100101D0100101D01001058
:1000F0001D0100101D0100101D0100101D01001048
:100100001D0100101D0100101D0100101D01001037
:1001100000BE00BE00BE00BE00BE00BEEFF3058004
:10012000103800BEF2EB8871B83D0010E03D0010C1
:10013000A801001090A31AE7D3DEFFFF42012110AF
:10014000FF0100008C410000793512AB4FF0000038
:100150002049086006C881F3088810474FF05040D6
:10016000006810B14FF00000F2E70FA40ECC002998
:1001700002D000F015F8F9E71749184A002000E00E
:1001800001C19142FCD1002080F30A8814498847BC
:10019000144988471449884700BEFDE701C901C2D8
:1001A0009A42FBD3704700BFE03D001010010020D1
:1001B000F4050020C44200100000082000000820C0
:1001C000C4420010001008200010082000000000A9
:1001D0007047000008ED00E0F40500202008002032
:1001E000E931001079020010E1310010F8B500BFCC
:1001F000064B0749C91A891048BF0131491003D07D
:10020000044B0BB101481847704700BFF4050020AC
:10021000F40500200000000008B5054B1BB105499E
:100220000548AFF30080BDE80840FFF7E1BF00BF1D
:1002300000000000D80700206C3B001008B50C49F6
:100240000C4803F079FB0321042000F065FA032138
:10025000052000F061FA00220121042000F07AFA62
:1002600000220121052000F075FA002008BD00BF22
:10027000A0860100E40500202DE9F04F1920ADF51E
:10028000737D00F07BFA19234FF0010242EC4430F9
:10029000FFF7D4FF002840F0348203F0D1F801F0DA
:1002A00099F8CDE9060101F095F8CDE9040101F0D6
:1002B00091F8CDE91C0101F08DF8CDE9080101F0BC
:1002C00089F8CDE90A0101F085F8CDE90C0101F0CA
:1002D00081F8CDE90E0101F07DF8CDE9100101F0C2
:1002E00079F8CDE9120101F075F8CDE9140101F0BA
:1002F00071F8CDE9160101F06DF8CDE9180101F0B2
:1003000069F8CDE91A0101F065F8DFF828B38046F5
:100310008A46B84FACE001F05DF8049BC01A059B1B
:1003200061EB0301B0F5FA7F71F1000180F23F81CA
:1003300001F050F81C9BC01A1D9B61EB0301B0F546
:100340007A7F71F1000180F23B8101F043F8089B54
:10035000C01A099B61EB0301B0F57A7F71F10001CE
:1003600080F2F18001F036F80A9BC01A0B9B61EB1A
:100370000301B0F57A7F71F1000180F2DB8001F0BA
:1003800029F80C9BC01A0D9B61EB0301B0F57A7F35
:1003900071F1000180F2C58001F01CF80E9BC01ABB
:1003A0000F9B61EB0301B0F57A7F71F1000180F2E0
:1003B000AF8001F00FF8109BC01A119B61EB030195
:1003C000B0F57A7F71F1000180F2998001F002F8B6
:1003D000129BC01A139B61EB0301B0F57A7F71F198
:1003E000000180F2838000F0F5FF149BC01A159B7A
:1003F00061EB0301B0F57A7F71F100016DDA00F075
:10040000E9FF169BC01A179B61EB0301B0F57A7FD9
:1004100071F1000158DA00F0DDFF189BC01A199B3A
:1004200061EB0301B0F57A7F71F1000143DA00F06E
:10043000D1FF1A9BC01A1B9B61EB0301B0F57A7FB9
:1004400071F100012EDA00F0C5FFB0EB080061EB9E
:100450000A01B0F57A7F71F1000106DB00F0BAFF06
:10046000804665488A4603F033F8642000F00EFFAA
:1004700000F0B0FF069BC01A079B61EB0301B0F5CB
:100480007A7F71F10001FFF646AF00F0A3FF192358
:100490000122CDE9060142EC403000F09BFFCDE99E
:1004A000040138E700F096FF03465448CDE91A31BD
:1004B00003F00EF8C7E700F08DFF03465048CDE982
:1004C000183103F005F8B2E700F084FF03464D4809
:1004D000CDE9163102F0FCFF9DE700F07BFF0346FB
:1004E0004948CDE9143102F0F3FF88E700F072FFCC
:1004F00003464648CDE9123102F0EAFF73E700F007
:1005000069FF03464248CDE9103102F0E1FF5DE7A3
:1005100000F060FF03463F48CDE90E3102F0D8FFFE
:1005200047E700F057FF03463B48CDE90C3102F0A6
:10053000CFFF31E700F04EFF03463848CDE90A31DE
:1005400002F0C6FF1BE700F045FF354A4DAB0890AF
:10055000099107CA03C3C5A81A7003F03BF8E3A8C2
:1005600003F038F84DA803F035F83EA803F032F850
:100570002FA803F02FF820A803F02CF898A803F078
:1005800029F8A7A803F026F8B6A803F023F86BA86B
:1005900003F020F85CA803F01DF87AA803F01AF81D
:1005A00089A803F017F8D4A803F014F8DAE600F0ED
:1005B00011FF19230022CDE9040142EC4030B7E6D7
:1005C00000F008FF034601241648CDE91C3102F073
:1005D0007FFF154802F07CFF0021144802F0FAFF6B
:1005E0002E2002F033FF584602F0F4FF2546A146C4
:1005F0000F4E51E0783B00101C3C0010183C0010DE
:100600000C3C0010043C0010FC3B0010F43B0010BC
:10061000EC3B0010E43B0010D83B0010CC3B00103A
:10062000C03B0010803B0010903B0010B83B001016
:10063000703B00107C3B0010782B30D000F0CAFEDD
:100640004FF0FF3C6FF000422F4BC01841F1000308
:10065000844572EB03013CBF13466046CDE90203BB
:10066000002349460093294801230DF17F0203F03E
:1006700089F9002813DB264802F0ACFF0F2D13D1B7
:100680003846013402F0A6FF802C3FF45EAE14F031
:100690000F055FFA84F909D019F07803CCD1304600
:1006A00002F098FF0F2DEBD05846EAE72146194893
:1006B00002F090FF00F08EFE4FF0FF356FF0004229
:1006C000114BC01841F10001854272EB01033CBFA0
:1006D000114628460023CDE9020100934946012333
:1006E0000A480DF17F0203F04DF9002804DB402099
:1006F00002F0ACFE5846C4E72E2002F0A7FE584692
:10070000BFE701F033F8C8E5A0860100E40500204A
:10071000743B0010B83B001010B44FF480740C4BC5
:1007200053F8202003EB8003C00082F0400200F168
:10073000804003F5805C02F0C00200F5203003F534
:100740004053CCF8002041601C605DF8044B7047BA
:100750000480034010B4084CC90041EA820154F8F7
:10076000202004EB8003514003F5805301F00C017D
:100770005DF8044B196070470480034030B44FF0BB
:10078000000343EC440043EC400005254FF4807423
:100790000B4BC20053F8201003EB800081F04001A6
:1007A00002F1804303F5203301F0C00200F58051CF
:1007B00000F540500A605D60046030BC704700BFC7
:1007C000048003400FB400B583B0049C074802F0D6
:1007D0007FFE3CB105A92046019102F0E7FC0448E8
:1007E00002F076FE012002F0F9FC00BF283C001068
:1007F000783B001070B58646EFF3108572B6124C48
:10080000D4E8CF6F0120002EFAD1C4E8460F002EA5
:10081000F6D1BFF35F8F4FF0010CC80801F007035A
:100820000CFA03F31EF800C01CEA030608D14CEAD8
:10083000030C0EF800C0C4E88F6F85F3108870BDFC
:100840001046FFF7BFFF00BF83070020044A10785F
:10085000431CDBB2182B28BF10231370704700BF56
:10086000680500204FF0E022936843F00053936046
:10087000704700BF0021044B03F12002C3E88F1F23
:1008800001339342FAD17047780700204FF0E023FC
:100890004FF08032C3F80024C3F80424C3F80824BE
:1008A000C3F80C24C3F81024C3F81424C3F8182484
:1008B000C3F81C24C3F82024C3F82424C3F8282434
:1008C000C3F82C24C3F83024704700BF012300F084
:1008D0001F029340400941B1800000F1604000F5E3
:1008E0006140C0F8803103607047024A203042F80E
:1008F0002030704700E100E0F8B50D46EFF31087B7
:1009000072B6124ED6E8CF2F0123002AFAD1C6E8DC
:10091000423F002AF6D1BFF35F8F0D4B00F1100468
:100920009B680C4A53F82430934203D0994201D07B
:1009300000F01CFF064B9B6843F82450BFF35F8F09
:100940000023C6E88F3F87F31088F8BD8107002099
:1009500000ED00E01D0100102DE9F04F83B0EFF332
:10096000108A72B6744ED6E8CF2F0123002AFAD12E
:10097000C6E8423F002AF6D1BFF35F8F6F4B00F10C
:1009800010089B686E4A53F8285095423FD08D421C
:100990000C464AD06B4FEB1B2F2B38D801214FEA66
:1009A00050194FEA890909F1604909F5614900F0D8
:1009B0001F0301FA03F0D9F80030C9F8800000EAFB
:1009C000030BBFF35F8FEFF30581C9B279B388459D
:1009D00077D125F0010EDEF808C0644505D17CE032
:1009E000D3F808C0644532D09E469EF9062002EB3B
:1009F0004203002A07EB8303F2DA644500F08180AA
:100A0000BBF1000F20D0C9F88001C9F800004B4BA2
:100A10009B6843F82850BFF35F8F0023C6E88F3FE1
:100A20008AF3108803B0BDE8F08F1546EFE725F094
:100A3000010EDEF808C06445D7D19EF90640734622
:100A4000002C08DA154666E0C9F88000DFE793F964
:100A50000640002C56DB04EB440C07EB8C0CDCF856
:100A6000082061009A609CF80720DA719CF9062042
:100A7000002A9A715DDBBCF80420520504D502F50A
:100A8000FF1202F5FF521F32521502F1020C4FF015
:100A9000040E0C2212FB04E202EB4C026FF0070C76
:100AA0003A44ACEB030C6244C2F34A0242F46042A3
:100AB0009A80254B21441A7807EB81011C708A71BA
:100AC0009EE7CDE9000100F051FEDDE9000125F0CF
:100AD000010EDEF808C0644587D19EF906407346D2
:100AE000002CB8DA194A1A4CD21A083AC2F30A3161
:100AF0006FEA01516FEA115144EA5202DA8099809B
:100B00007EE773460029EDD1FF228EF806204BF6D2
:100B10000152AEF804200C4C4AF6AA2294F800C008
:100B20001946C91B49414A43120D83F806C0227079
:100B300066E74BF60152BBE78107002000ED00E0BD
:100B40001D0100106C0500201C080020A6050020D7
:100B500000F8FFFFF0B5EFF30585EDB2EFF3108C71
:100B600072B62649D1E8CF2F0123002AFAD1C1E875
:100B7000423F002AF6D1BFF35F8F214E40F0010EB5
:100B8000B4684AF6AA2354F825701E4A0446A41AEB
:100B9000644163431B0D77455BB21BD092F906405D
:100BA0009C421CD092F912409C4223D092F91E40E4
:100BB0009C4221D092F92A409C4208BF03240FD0C6
:100BC000114A0024157813708571C1E88F4F8CF39A
:100BD0001088F0BDB2680D4C42F82540F0E70024C3
:100BE00004EB440402EB8402FF2494714BF601549D
:100BF0009480E5E70124F3E70224F1E78107002070
:100C000000ED00E06C0500201C0800201D01001014
:100C1000014B0B44036070477807002070B5104CFF
:100C2000104DAC420ED2FF26236863B1FFF70EFED3
:100C300001462046FFF7ECFFA680BFF35F8F083424
:100C4000AC42F1D370BDFFF701FE01462046FFF72D
:100C5000DFFF2671BFF35F8F0834AC42E4D370BD71
:100C6000EC050020F40500200D4B1A68EFF310810D
:100C700072B6D2E8CFCF0120BCF1000FF9D1C2E8A3
:100C80004C0FBCF1000FF4D1BFF35F8F00221B6843
:100C9000C3E88F2F81F3108840BF002000217047E8
:100CA00010080020000000002DE9F04F2DED028B10
:100CB00085B0EFF30583DBB2103B9A0818BF012221
:100CC0004FF0010103F0030018BFAB4DAB4B08BF61
:100CD000AB4D00EB820201FA00FB53F8226005F5F0
:100CE00041539FEDA38B0190C3F804B0CDF800B041
:100CF0002AE0B388180440F18C80B379002B40F0CF
:100D0000D580B6F908100029C0F21581736901EB8E
:100D1000410103EBC103D3E90247B7F1FF3F08BF2D
:100D2000B4F1FF3F09D0019B05EB8301AB6A0A696F
:100D3000D21AE31A934238BF0C61284600F042FBF6
:100D4000A042B941C0F2F780B6F90840009B002CE0
:100D5000EB63CEDBD6F8149004EB440A284609EB8B
:100D6000CA07D7E902B800F02DFB584571EB08011E
:100D7000BFDBB8F1000FC0F2C180D7E90431814A6E
:100D8000934200F0EA807A88B6F9080092B242EA0B
:100D90000040984702460B4652EA030100F0AE803D
:100DA000002B80F2CE80BBEB020B68EB030839F915
:100DB0003A30C7E902B8002B9BDB716903EB4302B1
:100DC00001EBC202D2E90270BB4578EB000C4FEA9E
:100DD00043028EDBB4462CF8083F0BE031F9323089
:100DE000F446002B0DDB03EB430001EBC0005A007F
:100DF000D0E90270BB451A4478EB000001EBC20E4B
:100E0000ECDA29F83A30ACF80040B38818043FF522
:100E100074AF3369EFF3108272B6D3E8CF0F0121BC
:100E20000028FAD1C3E8401F0028F6D1BFF35F8F36
:100E30004FF6FF74B0880023316900B2B480C1E876
:100E40008F3F82F310889842FFF657AF0746A946B6
:100E5000746906F1080807EB470E04EBCE03D3E9EB
:100E60000250B6F90830C446002BA8BFB34605DAD5
:100E70000FE034F93A309446002B09DB03EB430AC8
:100E800004EBCA02D2E90261B54270EB0101F0DA6B
:100E90005E46ACF8007034F93E7024F83E30002F06
:100EA000D9DAB3794D46002B3FF42BAF0023B37151
:100EB000B6F9083006F10808591C3CD01946776984
:100EC00003E080465A1C3FF41EAF03EB430207EBDE
:100ED000C200B0F802C01C461CF4004F9E4637F911
:100EE0003230EED08C4280ED028B05D0A8F8003075
:100EF000318927F8321034817146E3E739F83A3006
:100F000033813369EFF3108272B6D3E8CF0F01213A
:100F10000028FAD1C3E8401F0028F6D1BFF35F8F45
:100F20007388316929F83A3000237480C1E88F3F13
:100F300082F31088DDE640BF05B0BDEC028BBDE852
:100F4000F08F2846CDE9022300F03CFA029A039B79
:100F500010EB020B43EB010829E708460B690291ED
:100F600098470028CAD00299D1E9002314E700BFAE
:100F7000FFFFFFFFFFFFFFFF00800B40F007002097
:100F800000000B40A90C00102DE9F84F364C2569E4
:100F90002DB1BDE8F84F0A213448FFF739BEDFF81C
:100FA000E4800321404600F0FBF90326C4F80C80DE
:100FB000FFF74CFC4FF0504C2D4B2670034423613F
:100FC000DCF800300F216370636961801D834FF08E
:100FD0000405A3F878504FF00505A3F890504FF0A2
:100FE0000605A3F8A8504FF007050E214FF6FF7233
:100FF00008274FF00A0EA3F8C0504FF001094FF038
:101000000C0C4FF0020B4FF0090A0D204FF00B05AE
:10101000A3F868111749A280A3F808E1A160A3F81A
:1010200048B0A3F8F0A0A3F82051A3F838C1A3F862
:101030005001A3F83090A3F86060A3F8D8701A802C
:101040000D4B3046C8F820700C49DC60FFF754FCAB
:1010500049463046FFF73AFC094B0A211F64034812
:10106000BDE8F84FFFF7D4BDB405002010080020FC
:1010700078070020FFFF1000F0070020A90C0010E7
:1010800000200B4000000B400146F0B50069EFF373
:10109000108772B6D0E8CF5F0124002DFAD1C0E8E6
:1010A000454F002DF6D1BFF35F8FB1F902E04C69D7
:1010B0000EEB4E0CBEF1000F4FEACC0504EBCC0C4E
:1010C0003DDB605B002648800869C0E88F6F87F3CE
:1010D0001088BCF80200CCE902230130C0F30E00F6
:1010E000012838BF0120059BACF80200CCF8103075
:1010F000069B40EA0E40CCF814300B69EFF31082E7
:1011000072B6D3E8CFCF0127BCF1000FF9D1C3E805
:101110004C7FBCF1000FF4D1BFF35F8F8B8863531A
:10112000A1F804E00B69C3E88F6F82F310880122F5
:10113000CB68097803F501538A405A60F0BD00235B
:101140000A69C2E88F3F87F310884FF0FF30F0BD87
:1011500003464089B0EB214F37DD58690A1402EB92
:10116000420210B500EBC2001C69EFF3108C72B69E
:10117000D4E8CFEF0122BEF1000FF9D1C4E84E2F21
:10118000BEF1000FF4D1BFF35F8F428889B292B2F3
:101190008A4207D000221B69C3E88F2F8CF3108886
:1011A000002010BD42F40042428001210022186953
:1011B0009971C0E88F2F8CF310881C78DA68084684
:1011C00002F50153A140596010BD0020704700BFD7
:1011D0002DE9F041861F41F1FF35B04271EB050367
:1011E00038BF002682B038BF354604460F4600F0AF
:1011F000F1F8301A65EB0103012873F1000306DAF8
:101200002046394602B0BDE8F04100F01FB900F0B9
:10121000E1F8864265EB010100290ADB0021174B4A
:101220003246009316482B460191FFF72DFF002808
:10123000E6DB4FF0000C1348134A436A9D4204D882
:10124000816AB142DCD29D42DAD11368EFF310819A
:1012500072B6D3E8CF8F5FF0010EB8F1000FF8D16E
:10126000C3E848EFB8F1000FF3D1BFF35F8F136805
:10127000C3E88FCF81F3108820BFDEE7690C001030
:10128000B405002000000B401008002010B50446F3
:1012900000F0A0F84FF47A734FF0FF3C6FF000427B
:1012A000E4FB0301BDE81040844572EB01033CBF41
:1012B00060461146FFF78CBFF0B506460D4683B079
:1012C000EFF30584E4B2002C35D1244F3A78F96865
:1012D00004328B6A51F82220D21AC31A934207D3E0
:1012E00020BF1F4B586AA8421FD2002003B0F0BD98
:1012F00000F070F8864265EB0101002911DB194B03
:101300003846CDE9003432462B46FFF7BDFE011EBC
:1013100007DD134B5A6AAA4219D220BF0F48FFF7C4
:1013200017FF0F4B586AA842DFD39B6A9E4209D829
:10133000012003B0F0BD0A4B586A8842D5D39B6A9E
:10134000B342F5D2401B18BF012003B0F0BD9B6A29
:101350009E42E3D9AA42E1D1DFE700BFB4050020F5
:1013600000000B40690C0010084AD0E90003516AE4
:101370008B4204D8926A824203D301207047002036
:101380007047581A18BF0120704700BF00000B407B
:1013900001460248C1E90023704700BF69130010ED
:1013A00010B4054B054C064AA04214BF1846581C01
:1013B0005DF8044BFFF71EBAA007002000800B4029
:1013C000383C00100346416A0A46986A596A8A42C4
:1013D000FAD17047034B596A0A46986A596A914292
:1013E000FAD1704700000B4010B4174A536A9C466C
:1013F000946A536A6345FAD1001959414FF00002CB
:1014000028BF01220346CAB10F4B596A4B1C08BFC3
:101410000B4608D04FF0FF310B460B48426A8A4218
:10142000FCD38A4207D1084A02E0506A884202D1BE
:10143000906A9842F9D35DF8044B7047024A526AA9
:101440009142EAD8EDE700BF00000B40074A536A1B
:101450009942FCD8994207D1044B02E05A6A914262
:1014600002D19A6A8242F9D3704700BF00000B4054
:10147000F8B5054606200E4600F0E4F8002842D0F4
:10148000354A3648954214BF4FF080624FF00062F3
:10149000334B344902601A608C6832EA0404FBD191
:1014A0002D4B4FF48071EB1AB3FA83F32E4A5B098C
:1014B000062022F8131000F0C5F8C300B3FBF6F3C2
:1014C0000133DA0920D1402601216962AA622F6B1B
:1014D000FB0722D42B46002253F82C1F062003F5CD
:1014E000805422602F6300F0ADF840F201310322F6
:1014F0008000B0FBF6F0EB6A83F0700303F07E032C
:1015000023602963AA64F8BD4FF6FE718A421BD995
:1015100022464FF6FF71154ED7E740F2013205F52E
:1015200040531A636B6AAC6A062004EB831400F024
:1015300089F80F4BA402A3FB0023DB0A0021B4FBB4
:10154000F3F0FFF751FFC5E7C3F34503114603EB83
:1015500082161A46B9E700BF00800740002002400B
:10156000003002400000024014080020C0FF3F008D
:10157000757B2B8F00EB400C4FEA8C0C0CF1804CF0
:101580000CF5803CF0B51646DCF80420051FB2F5DA
:10159000803F38BF4FF48032EDB238BFCCF8042022
:1015A000012D2AD94FF40067254C0CF540521760E5
:1015B00054F82020B2B9DCF80020012D82EA46124E
:1015C00002F0E0020CF5805632602AD94FF4006137
:1015D00044F820304FF480330CF500521160CCF801
:1015E0000430F0BD6769B7FBF2FE0EF1010E0EEBA1
:1015F0004E0EBEF1030EFCD2DDE70129D2D1032449
:101600000CF540521460DCF80820D207FBD5DCF85A
:1016100000200B4C82EA461202F0E0020CF58056E4
:1016200032600122DCF800504D4005F003053560C2
:1016300002FA01F1DCF808200A42FBD0C6E700BF3D
:10164000A4070020014B53F820007047A407002096
:1016500070B4039D04682D0345EA03451B4B002C21
:10166000B3FBF1F3B2FBF3F61FDB194A194B9042BF
:1016700014BF4FF480424FF40042174C1A6003F538
:1016800080531A60A36832EA0303FBD1212200F5DC
:1016900040530433016086601A600268002AFCDA55
:1016A0000822C5601A6070BC7047036803F03F03EE
:1016B0008B42DAD18368C3F30B03B342D5D1C3683D
:1016C00003F4EE23AB42D0D1EDE700BF001BB7001F
:1016D000008005400020024000000240012300EB92
:1016E0004000800000F1804000F5841041600360FC
:1016F000704700BF0023DB8A002242E800F252025A
:1017000001D4102118470421184700BF034AD2F81A
:101710002838002BFBD0BFF35F8F704700000E40CE
:101720000021044B044ABFF35F8F43F8041B93422C
:10173000F9D170470C080E402C080E4010B42F2031
:101740004FF42A64054A064B06491460D0601960BC
:101750005368002BFCDA5DF8044B704700800440AE
:1017600000A0044000B0FA00704700BF08B501486F
:10177000FFF728F85C3C001038B5054C054DAC422D
:1017800004D254F8043B9847AC42FAD338BD00BFAA
:10179000283B0010683B001010B40748074C084B6A
:1017A000084A094904601A608B6832EA0303FBD1D6
:1017B0005DF8044B704700BF002002407F3BEFEF15
:1017C00000300240F6FFF30300000240044BDB6CE4
:1017D000B3F5004F03D14FF48022024BDA64704717
:1017E00000001150002011504FF0E022044BD2F8BD
:1017F000881D0B43C2F8883D10EE3004704700BFCF
:10180000030330006FF06041044B054A1960936890
:10181000DB4333F06043FAD1704700BF0030024031
:101820000000024010B545F25320FFF763FFBDE80A
:10183000104003460420184710B545F25320FFF727
:1018400059FFBDE81040034601201847FFF712B8C2
:1018500010B5054B054C4FF488721846A16802F08C
:10186000AFF8A06010BD00BF0000002000ED00E058
:10187000002370B52B4C82B0C4F88430FFF75EFFB4
:101880000122294BDA63636C012BFCD10321264A28
:10189000244B11639C6B012CFCD1022605252146AB
:1018A0000523224A22480096FFF7D2FE21462B4606
:1018B000204A21480095FFF7CBFE00220420314644
:1018C0001E4BFFF757FE2146284600221C4BFFF710
:1018D00051FE0022082011461A4BFFF74BFE002252
:1018E00009201146174BFFF745FE0022062011463E
:1018F000134BFFF73FFE0022114B07201146FFF765
:1019000039FE0420FFF79EFE00240F4BA3FB003599
:10191000AD0CE0B229460134FFF7E0FE062CF8D109
:1019200002B070BD0000014000300140002F685936
:1019300000000540008C864700800540001BB70072
:1019400080D1F008006CDC0283DE1B4386B003B458
:1019500051FC0804CDE9020151FC0904CDE9040160
:1019600051EC0A04CDE9060103BCF047BDE8005084
:101970004EEC00C4BDE800504EEC01C4BDE8005080
:101980004EEC02C400BD000000B5FFF7DFFF02E02F
:1019900010FE30F4F8D441EC100443EC112400EEB6
:1019A000010410EE010480EE200451EC1004704795
:1019B00000B5FFF7CBFF02E010FE30F4F8D441ECA5
:1019C000100443EC112400EE010410EE210480EE1B
:1019D000200451EC3004704700B5FFF7B7FF02E078
:1019E00010FE30F4F8D410B541EC100443EC11248F
:1019F00051EC040453EC0524A0FB024C5FF0000EF4
:101A0000E0FB03CEE1FB02CE4CEC20440024E1FBE2
:101A100003E444EC30E480EE200451EC5004BDE8D3
:101A20001040704700B5FFF791FF02E010FE30F460
:101A3000F8D441EC100443EC112451EC2104A0FB38
:101A400001126FEA820252FB100052FB12F252FBAB
:101A50001000A0EBD07C53EC04245CFB13F153EC9E
:101A60001524A1FB022001FB030053EC4424A2EB4C
:101A7000000050FB1CF24FEA111312EB017043EB14
:101A8000E27140EA515020EA915020F0070053ECF7
:101A90007524A0FB023C53EC752400FB03CC01FB36
:101AA00002CC53EC0424ACEB824C40EA5C70A0F115
:101AB000010041EC400480EE200451EC70047047BA
:101AC00000B5FFF743FF02E010FE30F4F8D440EC1D
:101AD000700400EE010410EE210480EE200451ECAD
:101AE0003004704700B5FFF731FF02E010FE30F41C
:101AF000F8D440EC600400EE010410EE210480EE06
:101B0000200451EC3004704700B5FFF71FFF02E0DE
:101B100010FE30F4F8D441EC800400EE010410EE25
:101B2000010480EE400410EE1304704700B5FFF787
:101B30000DFF02E010FE30F4F8D441EC800400EE1A
:101B4000010410EE010480EE400410EE33047047EF
:101B500000B5FFF7FBFE02E010FE30F4F8D441ECD4
:101B6000100443EC112400EE010410EE3004C0F325
:101B70000070704700B5FFF7E9FE02E010FE30F498
:101B8000F8D443EC102441EC110400EE010410EEF3
:101B900030F48CBF01200020704700BF00B5FFF774
:101BA000D5FE02E010FE30F4F8D441EC100443EC12
:101BB000112400EE010410EE30F42CBF01200020AF
:101BC000704700BF00B5FFF7C1FE02E010FE30F421
:101BD000F8D441EC100443EC112400EE010410EEA3
:101BE00030F48CBF01200020704700BF704700BF59
:101BF0002DE9F04F83B09946DDE90DAB0F9B884688
:101C000011469A07074616D1DA453AD20C460D46D8
:101C1000ABEB0A060E4422464B46414620200134D7
:101C2000B847B442F7D12946BAF1000F08D120468F
:101C300003B0BDE8F08F0C46BAF1000F10D00E468D
:101C400055460C9B2E449A440191721B4B46013D14
:101C500041461AF8010D3446B847002DF5D10199D7
:101C60000F9B9B07E3D5651AAB45E0D922464B464F
:101C7000414620200135B8475D4504F10104F5D304
:101C8000D5E7BAF1000FDAD10C46D0E72DE9F04FD5
:101C90000F9FDDF824E017F0020F0A9C9DF82C90AE
:101CA0000E9DDDE90C8629D1002D6FD1B44225D2DD
:101CB000202C07F0010B00F0128104F1FF3C4FF0E3
:101CC000300AF44401E0202C7AD00134A6420CF80A
:101CD00001AFF8D8BBF1000F10D0AC420ED2202CCF
:101CE00074D004F1FF3C4FF0300AF44401E0202CA2
:101CF00029D00134AC420CF801AFF8D117F0100F25
:101D00003AD017F4806F28D11CBBB8F1100F00F047
:101D1000CA80B8F1020F00F0D48030248EF8004061
:101D20000124B9F1000F67D17E0740F1AA802B266C
:101D30000EF804600134CDE90B57CDE909E4BDE8A4
:101D4000F04FFFF755BFFC0640F189807C0535D484
:101D50002024A6426AD0AC4268D0B8F1100F00F03F
:101D60008780B8F1020F5AD0202CE4D026460134E7
:101D70004FF0300C0EF806C0202CD2D1CDE90B5715
:101D8000CDE909E4BDE8F04FFFF732BF17F0010BD2
:101D90003ED0B9F1000F47D117F00C0F44D1B44237
:101DA0009BD2202C89D1202D10D8FC0657D57C053C
:101DB00055D4202E00F0B980202D10D02024CCE75F
:101DC000BBF1000F00F0A580202DBCD9FC0646D544
:101DD0007C0544D4202E00F0A880202D3FD12C4635
:101DE0001F26B8F1100F7FD0B8F1020FC0D14FF00D
:101DF000620C0EF806C0B7E72D260EF80460013419
:101E0000CDE90B57CDE909E4BDE8F04FFFF7F0BE8F
:101E1000B442BFF473AF202C7FF44FAFD6E7202C31
:101E200089D026460134E2E7013DB8E7661ED8D1E5
:101E3000B8F1100F64D0B8F1020F7FF46EAF6226D4
:101E40008EF80060302644468EF80160B9F1000F2C
:101E50003FF46AAFD0E7B8F1100F7FF46CAF2024E5
:101E6000CDE90B57CDE909E4BDE8F04FFFF7C0BE5F
:101E7000BE060ED4202CF2D078260EF80460013471
:101E800072E73E077FF557AF20260EF80460013455
:101E900051E7202CE3D04FF0580C0EEB040686F8E7
:101EA00000C0013460E7BE0617D558248EF8004004
:101EB00030248EF801400224B9F1000F3FF434AF12
:101EC0009AE762248EF8004030248EF80140022404
:101ED000B9F1000F3FF428AF8EE77824F2E7BBF1A9
:101EE000000F7FF462AF71E717F0200F0CBF4FF0C7
:101EF000780C4FF0580CA61E0EF806C0013C35E7D2
:101F0000BC06EAD558248EF8004030248EF80140F3
:101F1000DDE717F0100F3FF40EAF17F4806F9AD182
:101F2000202E7FF418AF1F265BE734461F2658E7A4
:101F300000B9704701F08ABA10B1D1E900311847F1
:101F4000704700BF000000002DE9F04F9FB09DEDED
:101F5000287BDDE92AA558EC177B83461E460D91A8
:101F6000109243463A46384641468DED087B2C9CFC
:101F7000FFF7F2FD002840F0D880384641464FF088
:101F8000FF32754BFFF722FE002840F0CE80384626
:101F900041464FF0FF326FF48013FFF7EFFD00284A
:101FA00040F0C380DDE9087800223846414600232E
:101FB000FFF7E4FD002840F0C081CDE90A78DDE9B3
:101FC0000A2390461F4614F4806308BF4FF0060AA8
:101FD000139304F4006258EA0703119240F0C080A2
:101FE000002A00F0A2819FED5A7B00278DED0E7B29
:101FF0004FF00009BA45CCBFAAEB070A4FF0000A20
:102000004F46C8BF0AF1FF3A44F480644D4594BF7F
:102010004FF00008A5EB090814F00203119304D057
:10202000B9F1000F18BF4FF000083FB1DDE90A0118
:10203000DDE90E23FFF7FAFCCDE90A01DDE908012D
:1020400000220023FFF79AFD30B1DDE90A010246C4
:1020500001F10043CDE90A239DED0A7BCDE902A8F9
:10206000DDF834A024F4006304938DED007B334647
:1020700051465846109A00F097F98046B9F1000F82
:102080004FD014F0200F024600F1010433460CBF7C
:10209000652045205146D84709F1FF3087EAE77CA3
:1020A0000DF1580900224B46DFF8B080ACEBE77C1D
:1020B0004FEAD77E01E0202A10D0E246A8FB0C713F
:1020C000C90801EB8107ACEB47073037BAF1090FBC
:1020D0008C4602F1010203F8017BECD80523059040
:1020E000069300200A230D9FCDE90330CDE9012E90
:1020F0003346224639465846CDF80090FFF7C6FDD4
:10210000119B80466BB1109BC41AA54209D9424667
:102110003346394620200134D847A54208F101084A
:10212000F5D840461FB0BDE8F08F9DED087B3346E3
:102130005846109A0D998DED287BCDE92B54CDF89A
:10214000A8A01FB0BDE8F04F00F02EB9AFF300809B
:102150000000000000000000FFFFEF7FCDCCCCCCE2
:10216000C7F30A50A0F2FF30FFF7AEFC8AA3D3E911
:102170000023FFF735FC8AA3D3E90023FFF708FC0F
:10218000C7F31307CDE90E0147F07F514046002207
:102190007B4B41F44011FFF70FFC6BA3D3E9002305
:1021A000FFF71EFC02460B46DDE90E01FFF7F0FBD0
:1021B000FFF7AEFC0746FFF787FC65A3D3E90023D2
:1021C00080468946FFF70CFC00226E4BFFF7E0FBD0
:1021D000FFF79EFC03464946404612935EA3D3E9AF
:1021E0000023FFF7FDFB804612988946FFF76CFC41
:1021F0005BA3D3E90023FFF7F3FB02460B464046FF
:102200004946FFF7D9FB02460B4680468946FFF751
:10221000E7FB42464B46CDE90E0140464946FFF7F3
:10222000B7FB0022CDE91401DDE90E01564BFFF7A3
:10223000FDFB0022554BFFF7ABFB02460B46DDE9E9
:102240000E01FFF7F3FB0022514BFFF7A1FB024603
:102250000B46DDE90E01FFF7E9FB42464B4680469F
:10226000894600204FF08041FFF7A6FB02460B464F
:1022700040464946FFF78CFB02460B46DDE9140158
:10228000FFF7D4FB0022434BFFF782FB129B002297
:1022900003F2FF3C4FEA0C53FFF7A2FB804689464E
:1022A000DDE90A0142464B46CDE90E89FFF766FC9F
:1022B00068BB4346494607F16302C62A119A8CBFA0
:1022C0004FF005094FF00409002A3FF49FAE0B437D
:1022D0003FF48EAEDDE90A0123A3D3E90023FFF723
:1022E00061FC48B1DDE90A0121A3D3E90023FFF72E
:1022F00045FC00287FF47CAEBAF1000F3FF486AEB7
:10230000139B002B3FF482AE0AF1FF3A7EE60022D7
:102310001E4B40464946FFF789FB0A4601460346E5
:10232000CDE90E12013F1146C5E79FED137B17461D
:102330004FF004098DED0E7B68E608F100430A9723
:102340000B933CE6AFF3008061436F63A787D23FF6
:1023500071A379094F930A401655B5BBB16B024082
:10236000EF39FAFE422EE63F2D431CEBE2361A3FD0
:102370000000000080842E410000000000000000EA
:102380000000F83F0000E03F00002C400000244027
:10239000000018400000F03FFB799F501344D33FEA
:1023A000B3C8608B288AC63F2DE9F04F97B0DDE9AE
:1023B0002089CDE90401DDE9224BCDE90623404621
:1023C00042464B464946DDF890A0FFF7C5FB002882
:1023D00040F0C581404649464FF0FF326FF480130C
:1023E000FFF7CCFB002840F01D81404649464FF0E6
:1023F000FF32C14BFFF7EAFB002840F0E380B8A3AF
:10240000D3E9002340464946FFF7E0FB002840F0AF
:10241000CB80B5A3D3E9002340464946FFF7AEFB86
:10242000002840F0C1804046494600220023FFF7C3
:10243000A5FB002840F0E0801AF480650D9000F0C4
:10244000E980092C40F296810EAB1A460C9330219C
:102450000023A4F109050133202B02F8011BA4EB92
:10246000030600F03A81AB42F5D19FED9D7B8DEDE7
:10247000087B49464046FFF74BFB0446FFF724FB29
:1024800002460B4640464946FFF796FADDE9082327
:10249000FFF7A6FA02460B46CDE90A23FFF74AFBEF
:1024A0000746FFF723FB02460B46DDE90A01FFF76B
:1024B00083FA02460B46CDE90A2300228F4BFFF731
:1024C00085FB002800F0DB8001373846FFF70EFB64
:1024D000DDE90823FFF766FB08B100270134002E71
:1024E00040F0B1802046FFF7EFFA02460B46404627
:1024F0004946FFF761FA0022804B06460F46FFF778
:102500003DFB40B93046394600227C4BFFF75EFB6D
:10251000002800F015810C9B691E7948194410E0D1
:1025200080FB0462C3EBA20303EB8302A4EB42042F
:1025300004F1300201351C4601F8012F002B00F098
:10254000AB80202D4FEAE473EAD10AF00303012B9C
:102550001CD1BBF1000F19D00D9B002B40F0F9806E
:102560001AF00C0F40F0F580AB4540F2D380202DDF
:102570000BD030220C996B1E0B4401355D4503F8DE
:10258000012F00F08D80202DF7D12025DDE90623D5
:10259000DDE904010C9CCDE902BA01950094FFF736
:1025A00027FB17B0BDE8F08FCDE92089DDE90623D0
:1025B000DDE90401CDE923BA229417B0BDE8F04F5C
:1025C000FFF7C2BC4F4DCDF88CA00AF0040ABAF157
:1025D000000F4D4C18BF2C46DDE90623DDE9040150
:1025E00020940CBF03240424CDF888B0219417B0A4
:1025F000BDE8F04FFFF7FCBA4B46424600200021F1
:10260000FFF7DAF901231AF48065804689460D93B5
:102610007FF417AF9FED367B0EAB06268DED087B62
:102620000C9326E70424DDE90623DDE90401374D98
:10263000CDF88CA0CDF888B02095219417B0BDE8D6
:10264000F04FFFF7D5BA0C9B681EDFF8C4C01844E2
:102650000DE0ACFB0721C90801EB8102A7EB4202A8
:102660003032092F00F8012F27D90F461D46202DA3
:1026700005F1010306F1FF36EBD120254BE70022DF
:10268000DDE90A011D4BFFF779FA00287FF427AF37
:10269000002F5AD1013722E70AF00303012B75D02E
:1026A000202D3FF473AF0D9BBBB32D2205F15803D2
:1026B0006B4403F8202C013568E7202BDDD0AEB346
:1026C0000C9A1E441544302201E0B3422ED001334F
:1026D000202B05F8012FF8D1CFE71D46C5E600BF36
:1026E0000000000065CDCD410000000065CDCDC1EA
:1026F0000000000080842E41FFFFEF7F0000E03FDC
:1027000067666666A43C0010AC3C0010B43C001048
:10271000CDCCCCCC202D3FF439AF1AF0040F0DD125
:102720001AF0080F3FF432AF2022BFE72E2103F149
:1027300058026A4402F8201C5D1CECE62B22B5E727
:10274000E3077FF5E8AE0134E5E6FA077FF5C7AEAB
:10275000A0E70BF1FF3BAB453FF609AFA0E7032431
:10276000DDE90623DDE904010A4DCDF88CA0CDF8A2
:1027700088B061E7084B264603EBC40393ED007B6A
:102780000EAB8DED087B00250C9372E6BBF1000FBC
:1027900086D0E1E6B03C0010403D00102DE9F04F3E
:1027A0009A469BB0249C964D0B94964C0B1E18BFDA
:1027B000834625609AF80000934C0A9308BFA3460D
:1027C0000992002800F0BC824FF000090AE04A4656
:1027D000099B0A9909F10109D8479AF800000028D5
:1027E00000F0CE8025280AF1010AF0D100235246DC
:1027F00012F8010BA0F1200110290AD8DFE801F03E
:102800004009093C09090909090909380934090974
:102810003000A0F13001092940F28C802A2800F014
:10282000F58000210C912E2800F099800027A0F15E
:10283000680112292DD8DFE811F057012C00510151
:102840002C0045012C002C002C002C002C002C000E
:102850002C0027002C002C002C002C002C00270022
:10286000924643F00103C2E7924643F00203BEE7FB
:10287000924643F00403BAE7924643F01003B6E7EA
:10288000924643F00803B2E79AF8010043F48073DC
:1028900001326728924600F28280242840F2C680E6
:1028A000A0F12502422A00F2C180DFE812F05F01A8
:1028B000BF00BF00BF00BF00BF00BF00BF00BF0020
:1028C000BF00BF00BF00BF00BF00BF00BF00BF0010
:1028D000BF00BF00BF00BF00BF00BF00BF00BF0000
:1028E000BF00BF00BF00BF00BF00BF00BF00260188
:1028F00045012601BF00BF00BF00BF00BF00BF00F1
:10290000BF00BF00BF00BF00BF00BF00BF00BF00CF
:10291000BF00BF00D301BF00BF00BF00BF00BF00AA
:10292000BF00BF00BF00BF00D3016701D301260174
:1029300045012601002100E0013201EB810100EB9D
:10294000410110789246A0F13004092CA1F1300128
:10295000F2D92E280C9102F101027FF467AF9AF8A8
:1029600001001146A0F13006092E43F4806340F2C5
:1029700031812A2800F03E8192460027013256E735
:102980004C46099B994501D303F1FF394A46002083
:10299000099B0A99D84720461BB0BDE8F08FA0F1EB
:1029A0006902D2B20F2A41D8012649F2410196406C
:1029B0000E4040F001810A2A3FD0072A36D10B9CF5
:1029C00054F8042B002A00F0288143F021010DF176
:1029D000480E704603E0202E00F029811A4602F0CE
:1029E0000F052B46092D94BF303337330F2A00F8DB
:1029F000013B06F101064FEA1213ECD817E100BFC4
:102A00009D270010D4070020ED1B00100B9C9AF8A6
:102A1000010054F8045B9246002DBDBF694243F0AB
:102A200002030C910C950B940132FCE64A46099B7B
:102A30000A9909F10109D847CFE60B9951F8048B9F
:102A400098F800201046002F40F0E18072B16FF03E
:102A5000010C0CF1010C4646C44401E0664503D06C
:102A600016F8014F002CF9D1A6EB080613F4806C80
:102A700002D0BE4228BF3E4613F0020400F0878118
:102A8000002A00F02B81BCF1000F00F041810B9473
:102A90000D964A46DDE909540E464F4408E02B46A0
:102AA0002146D84718F8010F09F1010910B14A462B
:102AB0004F45F4D131460B9C0D9E002C40F00E8109
:102AC0000B918AE69AF801006C287FF4DFAE9AF841
:102AD000020043F440730AF10302DAE69AF80100B7
:102AE00043F400730132D4E69AF80100682800F03C
:102AF000208143F080030132CBE6672800F0E780B5
:102B0000472800F00081452800F0FF800B9C0493CB
:102B10000C9B0734CDE9027324F007031C46DDE962
:102B20000931F4E802674A465846CDE900670B943C
:102B3000FFF70AFA814650E646280B9C08BF43F08F
:102B4000200304930C9B0734CDE9027324F00703A0
:102B50001C46DDE90931F4E802674A465846CDE9EA
:102B600000670B94FFF720FC814636E64A46252095
:102B7000099B0A9909F10109D8472EE60B9A9C078F
:102B800002F1040709F1010640F1E6801078099B83
:102B90004A460A99D8470C9B012B40F22C81DDE96B
:102BA0000954994432462B46214620200136D84705
:102BB0004E45F7D10B9710E66F2800F08B8040F25E
:102BC0006581782800F008814FF00A0823F010038F
:102BD000C44647E0002707EB870700EB4700A0F15A
:102BE000300711F8010FA0F13002092AF3D98A4603
:102BF0004A1C1CE60B9C9AF8020054F8047B0AF16C
:102C0000020A0AF101020B9427EAE7770FE6002A8D
:102C10003FF42CAF07F1FF3C1BE723F0100113F446
:102C2000806241F021013FF4D2AE0DF1480E08233D
:102C30001020059300234A46CDE9023006915846FC
:102C4000DDE90931CDE900E60497FFF71FF80B94A1
:102C50008146C2E5582879D0622840F051824FF071
:102C60000208C44613F480606DD123F00C0313F402
:102C7000007240F0C2800B9904310D9113F4807101
:102C800040F02E825E060B9A40F1AA801278002A4C
:102C900040F0DA8023F01003002800F0D5801146C0
:102CA0000DF1480E06930C9BCDF80CC0CDE90473D2
:102CB000019100234A4602935846DDE90931CDF8D7
:102CC00000E0FEF7E3FF0D9B81460B9385E543F49F
:102CD00000631BE74FF00808C446C3E70C9B4C4653
:102CE000B3427FF6EDAE0F464B44A3EB0609DDE998
:102CF000096522463346294620200134D8474C45F1
:102D0000F7D13946DCE643F4006343F02003FDE6E7
:102D10000F460B94DDE909544A462B462146D84715
:102D200018F8010F09F101090028F5D139460B9C6B
:102D3000C3E69AF8020043F0C0030AF10302A8E5D3
:102D4000044681461DE623F00D0390E74FF010087E
:102D500043F02003C44685E70C9B012B45D9DDE9F0
:102D600009544E4609F1FF38984432462B46214615
:102D700020200136D8474645F7D10C9B324699446E
:102D80000B9B1878DDE90931D8470B9725E50C9B9B
:102D9000B34240F2EE81CDE90D48DDE909548846A1
:102DA0004B449E1BCDF82CC04A462B462146202082
:102DB00009F10109D847B145F6D14146DDF838801F
:102DC0000C9BDDF82CC00D9C98F800205E1C104672
:102DD000002A7FF458AE73E64FF01008C44641E76E
:102DE0001D064CBF1288126851E713464A461878F0
:102DF000DDE90931D847B146DCE60B9C073424F005
:102E000007042246656852F8084B0B9254EA050203
:102E100040F02C8123F01003002800F027810026C9
:102E20000DF1480E06930C9B4A46CDE9047300232E
:102E3000CDE900E6CDF80CC002935846DDE9093132
:102E4000FEF724FF8146C8E413F0200F14BF412091
:102E500061200DF1480E7646A0F10A0803E0202912
:102E60003FF420AF2246B2FBFCF40CFB1425E8B281
:102E7000092D00F130058ABF4044E8B2C0B2624576
:102E800006F8010B01F10101E9D20BE723F0100272
:102E900069280D9240F06F8113F4806204D04FF4E2
:102EA000806223F011030D930D9B13F4007640D143
:102EB0000B9B03F104080D9B13F4807040F0988085
:102EC000590640F1C6800B9B19780C46CB0F0029A0
:102ED00000F0B98022460DF1480E74461646DFF820
:102EE000A0C201E020280FD03546ACFB0621C9085E
:102EF00001EB8102A6EB42023032092D0E4600F1B1
:102F0000010004F8012BEDD80D9ACDE901030692DA
:102F10000C9ACDE904720A234A4603935846DDE928
:102F20000931CDF800E0FEF7B1FECDF82C808146E6
:102F300053E40B9C073424F00704214608466368D9
:102F400050F8081BDC0F0B9051EA030000F0C3801F
:102F50000A46191E48DB13460DF1480EF4460026BA
:102F6000CDE90E94DFF8188201E0202E2DD05A18FA
:102F700042F10002A8FB025929F0030505EB99056F
:102F8000521B1C469B1A61F1000508464FF0CC31DC
:102F900001FB03F108FB0511A3FB085319440523AA
:102FA00005F00109A9FB03399B180A2C03F1300332
:102FB0004FEA550570F100000CF8013B06F10106DF
:102FC00045EAC1734FEA5101CFD2DDE90E940D9B62
:102FD0004A4606930C9BCDE90164CDE904730A23AC
:102FE000CDF800E0039328E7524261EB4101B2E7DC
:102FF0000B9B1968CB0F002900F0AB8081EAE172CE
:10300000A2EBE1720DF1480E7046DFF874C101E0E9
:10301000202E10D01546ACFB0241C90801EB8104FB
:10302000A2EB440404F13002092D00F8012B06F153
:1030300001060A46ECD80D9ACDE9016306920C9A76
:10304000CDE9047267E7002A3FF445AF0DF1480E61
:103050005AE713F0800F0B9B00F08180B3F900104A
:1030600081EAE174A4EBE174A4B22FE713F0200F1E
:1030700014BF412261220DF1480E0A3ACDE90D97A5
:10308000CDF844B000267746F3469146CDE90F3C93
:1030900003E0202E17D004460D4629464246002361
:1030A000204600F035FDD2B2092A02F1300388BF74
:1030B00002EB09034445DBB275F1000507F8013B5B
:1030C00006F10106E5D2DE46DDE90D97DDE90F3CAC
:1030D000DDF844B0A6E6002A47D1134611463BE787
:1030E0000B990968A1B923F0100388B10DF1480EBE
:1030F00006930C9BCDF80CC0CDE904730192D8E582
:1031000013F480627FF4CBAE23F010030D93CBE673
:1031100013F0200F14BF412061200DF1480E7646B8
:10312000A0F10A0802E0202AE2D02146B1FBFCF41B
:103130000CFB1415E8B2092D00F130058ABF40449C
:10314000E8B2C0B2614506F8010B02F10102EAD211
:10315000CEE7002A3FF456AF0DF1480E6BE7196831
:1031600081EAE174A4EBE174B0E600260DF1480EAB
:103170002DE701362BE64FF00A081346C44671E5E9
:10318000CDCCCCCC70B594461E4605460C4684B0DA
:103190004FF0FF32634602A900960348CDE902547E
:1031A000FFF7FCFA04B070BD391F001010B5094BD1
:1031B00084B01C684CB1034600914FF0FF3203A964
:1031C0000548A047012004B010BD00F081F9204659
:1031D00004B010BDD4070020311F001000BEFDE771
:1031E00008B5FFF7FBFF00BF38B5064C064DFEF7EC
:1031F000C3FAAC4204D254F8043B9847AC42FAD329
:1032000038BD00BF683B00106C3B001003680846E7
:1032100011461847437D2DE9F04781460F46164673
:10322000002B43D0002A3BDD037D00204D1E0146CC
:1032300015F8012FDFF884800A2A01F101040ED06D
:10324000A6421CD02B782146A3F10D03B3FA83F3D9
:1032500015F8012F5B090A2A01F10104F0D1002BB6
:10326000EED18142A1EB000138441BDC0221404633
:10327000D9F800309847A64208D02046E2E78642B7
:1032800004DD311AD9F8003038449847374417F82C
:10329000013CA3F10D03B3FA83F35B0989F8143001
:1032A000BDE8F087D9F800309847DFE73846D9F80D
:1032B00000301146BDE8F047184700BF903D0010B0
:1032C0000B682DE9F041802B0D46064605D05A1CAF
:1032D0002B442A601E71BDE8F0810F4B1C68A4B11D
:1032E0000E4F01F1040801E0246974B12368002B3A
:1032F000FAD03B680BB1A342F6D1204641462A687A
:10330000FFF788FF2469002CF0D1002301222B4411
:103310002A601E71BDE8F081CC070020D007002094
:103320002DE9F04782B00D46924699460746FEF7D2
:1033300051F84FF0FF366FF000442F4A821841F1E8
:103340000003964274EB03013CBF324623462B48F0
:1033500000F0E6FB6B1C804603D1384600F0A6FB6C
:103360000546274B274E1C68274BB9F1000F18BFA5
:103370001E46B4B1BAF1000F1AD1DFF8909001E007
:10338000246974B12368002BFAD0D9F800300BB14E
:103390009C42F5D120462A463946B0472469002C84
:1033A000F0D1B8F1000F1FD1284602B0BDE8F08778
:1033B0004FF00A0ADFF8549002E02469002CF0D0A4
:1033C0002368002BF9D0D9F800300BB1A342F4D117
:1033D0002A4639462046B047012220460DF1070112
:1033E0008DF807A0B047E8E7044800F095FB2846B1
:1033F00002B0BDE8F08700BF40420F00EC0500209E
:10340000CC0700200D32001015320010D00700202C
:103410000A4A13684BB1834202D109E0984207D0AF
:1034200003F110021B69002BF8D101B11060704745
:103430000029FCD10369136001617047CC070020AB
:1034400008B500F0A5F9012008BD00BFF0B583B0B4
:1034500006468DF80700FDF7BDFF4FF0FF356FF012
:103460000044174A821841F10003954274EB0301AE
:103470003CBF23462A46134800F052FB124B074636
:103480001C689CB1114D01E024697CB12368002BBC
:10349000FAD02B680BB19C42F6D1204601220DF1E7
:1034A0000701FFF7B7FE2469002CEFD117B93046AA
:1034B00003B0F0BD034800F02FFB304603B0F0BD71
:1034C00040420F00EC050020CC070020D007002070
:1034D00038B5044600F0EAFA012305461A462046AC
:1034E0002946FFF71DFF084B1C682CB163682BB100
:1034F00098472469002CF9D1284638BD2469002C4E
:10350000F4D1284638BD00BFCC0700202DE9F0419A
:10351000A2B004460D46FDF75DFF4FF0FF376FF098
:103520000046274A821841F10003974276EB0301D7
:103530003CBF3A463346234800F0F2FA00262B46B9
:1035400007462246204801A90196FFF71BFE019B72
:1035500006467BB91D4B1C682CB1636843B1984784
:103560002469002CF9D10FBB304622B0BDE8F081B0
:103570002469F1E7DFF85480D8F80050EDB1144C1D
:1035800001E02D6975B12B68002BFAD023680BB1CF
:10359000AB42F6D12846019A02A9FFF73BFE2D69FE
:1035A000002DF0D1D8F800400195D5E7054800F08E
:1035B000B3FA304622B0BDE8F0810195D3E700BFF1
:1035C00040420F00EC050020C1320010CC07002063
:1035D000D00700200FB400B583B004A951F8040B44
:1035E0000191FFF793FF03B05DF804EB04B070475F
:1035F000B1F1000C1DDD0F4A0F4B126830B5D31A24
:10360000B3FA83F30D240D4D5B09411E35F913E028
:103610008C4411F8010F864506D093699B06FCD4B3
:1036200061451060F5D130BD93699D06FCD41460EE
:10363000F3E77047180800200080074014080020B6
:10364000224BB1F1000C10B41C682EDD03460020A3
:103650001F4A591E12689369DB0617D4013093691B
:10366000DB06FCD41368844501F8013FF3D14CB16B
:1036700050211346916353F8342F02F0380203F5BA
:1036800080531A6060465DF8044B70474CB150217E
:103690001346916353F8342F02F0380203F5805338
:1036A0001A6078B15DF8044B70475CB1084B50214B
:1036B0001A681346916353F8342F02F0380203F569
:1036C00080531A606FF00200ECE700BF98070020FB
:1036D00018080020054B1B6833B10021044A054837
:1036E0001268006891631847704700BF9807002070
:1036F000180800209C070020024B1A6893691B07DA
:10370000FCD4704718080020F8B51C4F1C4D3A68CF
:103710001C4EAA4214BF212522250446D6F800C01B
:1037200018B1BCF1000F10D0F8BDBCF1000FFBD0F8
:10373000014690632846FDF7C9F828461249FDF76F
:103740000BF9124B34601C60F8BD0B460F4A0E4952
:10375000306028461360FDF7CFF801212846FDF7B9
:10376000B5F83A6850211346916353F8342F02F0AC
:10377000380203F580531A60F8BD00BF1808002016
:103780000080074098070020D53600109C070020D5
:1037900010B50E490E4C0F480F4A104B00782160AF
:1037A0000020022112781B78FCF7B6FF02210120CD
:1037B000FCF7B2FF4FF4E1312068FDF759FEBDE898
:1037C000104001210648FFF723BE00BF000007405C
:1037D00018080020DC3D0010D83D0010D43D00103A
:1037E000CC0500202DE9F84F4FF0010CDDE90B4628
:1037F000002791460268B3F10008D766054651607C
:103800009DF828B0C2F86CC021DD08F1FF3A14B170
:1038100001213046A0472B685A6F102AFCD0002F98
:1038200033D00022BA4504BF8BF0010142EA4122A5
:1038300042F480721A618CB1D3F88020596B11F078
:10384000400113D0002130465B6DA047C743384686
:1038500085F804B0BDE8F88F9A6F7AB9D3F8802064
:103860005A6B5206F8D500205B6DEFE73046A04753
:103870000028EBD12B689A6F002ADDD01B69013735
:10388000B84509F8013BC2D1E1E72A799202C9E7BC
:10389000F8B5064605200C46FDF7D4FE00EB540CA7
:1038A000BCFBF4FC214B0CEB4C02A3FB0253204964
:1038B0009F088C42ACEB930530D801F1D64101F55D
:1038C000A10101F62C0100EB4003A1FB03139B0DAA
:1038D000013300244F2A98BF01223168B0FBFCF06D
:1038E000CC660C6801F5805684F0040404F00604EC
:1038F000346088BF0D4CCD6184BFA4FB02429209A5
:103900000F62C1F8A0200A46012452F87C5F6B4088
:103910009BB202F580521360CC66F8BD054900EBFE
:103920004003A1FB0313DB0D0133D2E7CDCCCCCC9C
:103930003F420F00893BE6550E4A30B4904214BF17
:10394000202210220C4D0D4B0D4C2A601A60A368EA
:1039500032EA0303FBD140F26515032402680371C8
:10396000D3661560D3639363C2F8884030BCFFF719
:103970008FBF00BFE405002000200240003002405D
:10398000000002402DE9F04389B00DF11008044613
:1039900016461F46DDE9122340460D469DF840902D
:1039A000FDF7F6FC3B46CDE90108324629462046A4
:1039B000CDF80090FFF716FF09B0BDE8F08300BF17
:1039C000844641EA000313F0030349D1403A23D36C
:1039D0000B6803604B6843608B688360CB68C3608F
:1039E0000B6903614B6943618B698361CB69C36177
:1039F0000B6A03624B6A43628B6A8362CB6AC3625F
:103A00000B6B03634B6B43638B6B8363CB6BC36346
:103A100040304031403ADBD230320BD30B68036088
:103A20004B6843608B688360CB68C3601030103193
:103A3000103AF3D20C3205D351F8043B40F8043B62
:103A4000043AF9D2043208D0D2071CBF11F8013B66
:103A500000F8013B01D30B8803806046704700BF2C
:103A6000082A13D38B07B1D010F00303AED0C3F1F3
:103A70000403D21ADB071CBF11F8013B00F8013B1D
:103A8000A4D331F8023B20F8023B9FE7043AD9D394
:103A9000013A11F8013B00F8013BF9D20B780370B1
:103AA0004B7843708B7883706046704720F0030139
:103AB00010F00300C0F1000051F8043B00F1040CC9
:103AC0004FEACC0C6FF000021CBF22FA0CF2134339
:103AD0004FF0010C4CEA0C2C4CEA0C4CA3EB0C0202
:103AE00022EA030212EACC1204BF51F8043B04306C
:103AF000F4D0C2F1000102EA0102B2FA82F2C2F18C
:103B00001F0200EBD2007047F8B500BF00000000B4
:103B10005FF800F0290200205FF800F0ED010020BE
:103B20005FF800F08101002025180010991700109F
:103B3000CD17001071180010051800102117001083
:103B40004D1800100D1700101D0C0010511800101A
:103B5000890F00106917001039180010E9170010BC
:0C3B6000650800108D080010190200100C
:103B70002E000000400000000A000000202000008D
:103B800049324320427573205363616E0000000088
:103B900020202030202031202032202033203420CB
:103BA000352036203720382039204120422043203C
:103BB00044204520460000002530327820000000D7
:103BC000446973706C61790A0000000052414449F5
:103BD0004F5F545800000000524144494F5F525813
:103BE000000000005541525400000000554152545D
:103BF000320000004D505054310000004D505054E0
:103C000032000000506F7765720000004255524E3E
:103C10005F5749524500000057445400434F4D4DF3
:103C2000414E4453000000000A2A2A2A2050414EE7
:103C30004943202A2A2A0A00486172647761726522
:103C400020616C61726D20256420616C7265616415
:103C50007920636C61696D6564000000486172647D
:103C6000206173736572740052656C6561736500E1
:103C7000626F6F74325F7732357130383000000018
:103C8000322E312E300000007069636F3200000068
:103C9000626C696E6B0000004D6172202031203231
:103CA00030323500666E692B00000000666E6900D8
:103CB0006E616E00666E692D000000005541525421
:103CC00020737464696E000055415254207374640B
:103CD0006F7574005541525420737464696E202FBF
:103CE000207374646F75740006005250D3F07542EF
:103CF000683C001006005250E182887F703C001042
:103D000006005250ABB36053803C00100600525086
:103D1000BBFF3CB6883C001006005250861C0302D4
:103D2000903C0010060052505422A29D983C001076
:103D300005005250DE65F468D84200100000000013
:103D4000000000000000F03F0000000000002440E0
:103D500000000000000059400000000000408F40BB
:103D6000000000000088C34000000000006AF84026
:103D70000000000080842E4100000000D01263414A
:103D80000000000084D797410000000065CDCD41C0
:103D90000D0A00000600525053B4F4A1D43C0010A8
:103DA000080052501200000008005250921000000B
:083DB00010FCFF7F0100000080
:103DB800E83C0010F43C0010003D00100C3D0010E1
:103DC800183D0010243D0010303D0010A83D0010A3
:083DD800A03D0010943D001015
:103DE0004FF050412DE9F0410027044616461D468C
:103DF000D1F8008009E02368C3E88F7F8CF3108836
:103E00003046294600F014FAF0B92168EFF3108C1F
:103E100072B6D1E8CF2F0123002AFAD1C1E8423F80
:103E2000002AF6D1BFF35F8F94F904E0BEF1000FD2
:103E3000E1DA0023226884F80480C2E88F3F8CF323
:103E400010880120BDE8F0810020BDE8F08100BFAE
:103E500030B501460468EFF3108C72B6D4E8CFEFAA
:103E60000125BEF1000FF9D1C4E84E5FBEF1000F8D
:103E7000F4D1BFF35F8F90F90440002C11DB0021D7
:103E80000568C5E88F1F8CF310884FF0504C9CF9E3
:103E900000C0A44501D1084630BDBDE83040FFF761
:103EA0009FBF4FF05040006800230A680871C2E8C5
:103EB0008F3F8CF31088012030BD00BF0368EFF303
:103EC000108272B6D3E8CFCF0121BCF1000FF9D137
:103ED000C3E84C1FBCF1000FF4D1BFF35F8F4FF06C
:103EE000FF0C0023016880F804C0C1E88F3F82F313
:103EF000108840BF704700BF53B94AB9002908BFB6
:103F000000281CBF4FF0FF314FF0FF3000F08CB99C
:103F1000ADF1080C6DE904CE00F006F8DDF804E020
:103F2000DDE9022304B070472DE9F04F099D0E46EC
:103F300004460F46002B47D18A429446B2FA82F3D8
:103F40005AD943B102FA03FCC3F120029F409C40BE
:103F500020FA02F217434FEA1C461FFA8CFE220C8D
:103F6000B7FBF6F106FB117701FB0EF042EA0742C0
:103F7000904208D91CEB020201F1FF3702D29042B5
:103F800000F23C813946121AA4B2B2FBF6F006FBED
:103F9000102200FB0EFE44EA0244A64508D91CEBA1
:103FA000040400F1FF3202D2A64500F22A81104635
:103FB00040EA0140A4EB0E0400211DB1DC400023C7
:103FC000C5E90043BDE8F08F8B4205D90DB1C5E9C5
:103FD000000100210846F5E7B3FA83F100294FD12B
:103FE000B342C0F00281824240F2FF800846002DB9
:103FF000E8D0C5E90047E5E7002B40F0AF808A1A1A
:104000004FEA1C4E1FFA8CF70121B2FBFEF60EFBA5
:104010001620220C42EA004207FB06F090420FD91C
:104020001CEB020206F1FF382CBF4FF001094FF0E4
:104030000009904203D9B9F1000F00F0DC80464638
:10404000121AA4B2B2FBFEF00EFB102200FB07F71F
:1040500044EA0244A7420FD91CEB040400F1FF32EA
:104060002CBF4FF0010E4FF0000EA74203D9BEF156
:10407000000F00F0C9801046E41B40EA06409CE7B0
:10408000C1F120048B4006FA01FC00FA01FE22FA7D
:1040900004F7E6408A401F4320FA04F34FEA17482A
:1040A00043EA0C031FFA87FC4FEA1349B6FBF8F00A
:1040B00008FB106649EA064600FB0CF9B1450ED92B
:1040C000BE1900F1FF3A2CBF4FF0010B4FF0000B6F
:1040D000B14503D9BBF1000F00F0A2805046A6EB1A
:1040E00009061FFA83F9B6FBF8F308FB136603FB16
:1040F0000CFC49EA0646B4450ED9BE1903F1FF3857
:104100002CBF4FF001094FF00009B44503D9B9F1B4
:10411000000F00F08280434643EA0040A6EB0C0605
:10412000A0FB028C66454346E14602D307D1C64553
:1041300005D2B8EB02036CEB070C0138E1465DB128
:10414000BEEB030266EB090606FA04F422FA01F359
:10415000CE401C43C5E90046002133E702FA03FCC8
:10416000C3F1200299409C40D6404FEA1C4E20FAF1
:1041700002F21FFA8CF7B6FBFEF00A430EFB106644
:10418000110C41EA064100FB07F68E420ED91CEBEA
:10419000010100F1FF382CBF4FF001094FF0000979
:1041A0008E4202D9B9F1000F34D04046891B92B239
:1041B000B1FBFEF60EFB161142EA014206FB07F1C7
:1041C00091420ED91CEB020206F1FF382CBF4FF0D2
:1041D00001094FF00009914202D9B9F1000F16D040
:1041E0004646521A46EA00410FE7841A66EB03027C
:1041F00001201746FBE6023E624421E70239624491
:10420000C1E664440238D3E66444023834E7023E2F
:104210006244E6E702386144C8E7023B3E447BE77C
:1042200002383E445BE700BF704700BF000000005B
:104230005FF800F0B912001010000000000000004C
:10424000000001000000000000000000000002006B
:10425000000000000000000000000300000000005B
:10426000000000000000FF000000000001B54868E9
:1042700001318E460047704609380149884701BD23
:10428000550B0010000000000000000000000000BE
:104290000000000000000000F8050020F1350010CB
:1042A000F9360010413600100937001000000000F8
:1042B00000010000000009400000000000000000B4
:0442C00000000000FA
:1042C400D3DEFFFFFE010000FF01000074BEFFFF0C
:0442D400793512AB7B
:040000051000014D99
:00000001FF
