:020000041000EA
:10000000002008205D0100101301001015010010F0
:100010001101001011010010110100101101001058
:100020001101001011010010110100101701001042
:100030001101001011010010190100101B01001026
:100040001D0100101D0100101D0100101D010010F8
:100050001D0100101D0100101D0100101D010010E8
:100060001D0100101D0100101D0100101D010010D8
:100070001D0100101D0100101D0100101D010010C8
:100080001D0100101D0100101D0100101D010010B8
:100090001D0100101D0100101D0100101D010010A8
:1000A0001D0100101D0100101D0100101D01001098
:1000B0001D0100101D0100101D0100101D01001088
:1000C0001D0100101D0100101D0100101D01001078
:1000D0001D0100101D0100101D0100101D01001068
:1000E0001D0100101D0100101D0100101D01001058
:1000F0001D0100101D0100101D0100101D01001048
:100100001D0100101D0100101D0100101D01001037
:1001100000BE00BE00BE00BE00BE00BEEFF3058004
:10012000103800BEF2EB88717C6A0010AC6A0010D7
:10013000A801001090A31AE7D3DEFFFF42012110AF
:10014000FF010000606F0000793512AB4FF0000036
:100150002049086006C881F3088810474FF05040D6
:10016000006810B14FF00000F2E70FA40ECC002998
:1001700002D000F015F8F9E71749184A002000E00E
:1001800001C19142FCD1002080F30A8814498847BC
:10019000144988471449884700BEFDE701C901C2D8
:1001A0009A42FBD3704700BFAC6A001010010020D8
:1001B000FC060020987000100000082000000820B5
:1001C00098700010001008200010082000000000A7
:1001D0007047000008ED00E0FC060020600B0020E6
:1001E000AD52001079020010A5520010F8B500BF02
:1001F000064B0749C91A891048BF0131491003D07D
:10020000044B0BB101481847704700BFFC060020A3
:10021000FC0600200000000008B5054B1BB1054995
:100220000548AFF30080BDE80840FFF7E1BF00BF1D
:1002300000000000D00A0020A863001008B50C4997
:100240000C4805F021FC0321042002F0C1F9032130
:10025000052002F0BDF900220121042002F0D6F9A8
:1002600000220121052002F0D1F9002008BD00BFC5
:10027000A0860100EC0600202DE9F04FADF2244DE0
:1002800050220021F4A805F053FE192002F0D2F903
:1002900019234FF0010242EC4430FFF7CFFF002852
:1002A00040F0778302F00AF9652402F0EBF805F0DC
:1002B00029F904E0013C07D0642002F0EBFF0020A4
:1002C00005F0B0FC0028F5D0B54805F0A9F903F019
:1002D00085F80B463C220021109022A8119305F0CE
:1002E00027FE03F07BF80B463C220021069031A844
:1002F000079305F01DFE03F071F80B463C22002128
:100300001C9040A81D9305F013FE03F067F80B4600
:100310003C2200210A904FA80B9305F009FE03F040
:100320005DF80B463C2200210C905EA80D9305F071
:10033000FFFD03F053F83C2200216DA805F0F8FD05
:1003400003F04CF80B463C2200210E907CA80F9342
:1003500005F0EEFD03F042F80B463C22002112901E
:100360008BA8139305F0E4FD03F038F80B463C220C
:10037000002114909AA8159305F0DAFD03F02EF8E9
:100380000B463C2200211690A9A8179305F0D0FD3A
:1003900003F024F80B463C2200211890B8A81993CA
:1003A00005F0C6FD03F01AF80B463C2200211E9012
:1003B000C7A81F9305F0BCFD03F010F80B463C22C4
:1003C00000211A90D6A81B9305F0B2FD03F006F8A1
:1003D0000B4608903C220021E5A8099305F0A8FDF2
:1003E00000231E466F4FDFF8E091059302F0F6FF01
:1003F000109A6D4B801A119A61EB0201984271F1CB
:10040000000180F2B48002F0E9FF069A674B801A7F
:10041000079A61EB0201834276EB0101C0F2B581DC
:1004200002F0DCFF1C9BC01A1D9B61EB030187429D
:1004300076EB0101C0F2BB8102F0D0FF0A9BC01A2B
:100440000B9B61EB0301874276EB0101C0F26981EE
:10045000574A6DAB07CA03C31A70059B002B40F0C7
:10046000068102F0BBFF0C9BC01A0D9B61EB0301E0
:10047000059B874273EB0101C0F21B8202F0AEFFC5
:100480000E9BC01A0F9B61EB0301874276EB0101C3
:10049000C0F2E28002F0A2FF129BC01A139B61EB34
:1004A0000301874276EB0101C0F2C88002F096FF9B
:1004B000149BC01A159B61EB0301874276EB010187
:1004C000C0F2AE8002F08AFF169BC01A179B61EB48
:1004D0000301874276EB0101C0F2948002F07EFFB7
:1004E000189BC01A199B61EB0301874276EB01014F
:1004F0007ADB02F073FF1E9BC01A1F9B61EB0301A6
:10050000874276EB010161DB02F068FF1A9BC01A9B
:100510001B9B61EB0301874276EB010135DB02F0A7
:100520005DFF089BC01A099B61EB0301874276EBD4
:100530000101BFF65BAF02F051FF03460020CDE999
:10054000083104F0E5FF1B4B1B68002B40F32B81A7
:10055000811C00F0F181184AD054164A013313600F
:10056000164B154A1649E5A804F058FE3EE702F07E
:1005700035FF19234FF00102CDE9100142EC403064
:1005800002F02CFFCDE906013DE702F027FF0D4BFD
:10059000CDE91A0193E80300D6908DF85C13BEE70D
:1005A000B86300103F420F00C0CF6A001FA10700D0
:1005B0002C640010E80A0020580A00200C0B0020D0
:1005C00004650010C4640010B063001006234FF0EF
:1005D000000242EC4030BF4BC7AC0FCB07C424F83D
:1005E000023B1B0C23708FE702F0F8FEBA4BCDE9FB
:1005F000180193E80300ADF8E412090CB8908DF8E7
:10060000E61276E702F0EAFEB44BCDE9160193E874
:100610000300ADF8A812090CA9908DF8AA125DE7A5
:1006200002F0DCFEAE4BCDE9140193E80300ADF817
:100630006C12090C9A908DF86E1243E702F0CEFE10
:10064000A84BCDE9120193E80300ADF83012090C74
:100650008B908DF8321229E702F0C0FEA24BCDE953
:100660000E0193E803007C90ADF8F41112E701F05D
:1006700083FD002840F0548100F032FD01F0E6FED9
:1006800002F0ACFE0C9BC01A0D9B61EB030187428C
:1006900076EB0101BFF6F2AE02F0A0FE934A5EAB2C
:1006A0000C900D9107CA03C31A800A25DFF86482F3
:1006B000DFF864B268B200F03DFB2A4641465EA80E
:1006C00004F0ACFD5EA805F007FEC1B25EA801F023
:1006D00059FD00F033FC01F09DFE052002F0DAFD2B
:1006E0000B2402E0642002F0D5FD01F03FFD08B9C3
:1006F000013CF7D101F03AFD002850D0013DD9D19D
:100700007B4D5EAC00F0ECFC01F0A0FE0FCD0FC401
:1007100095E8030044F8040B24F8021B090C21702F
:10072000ACE602F05BFE734A4FAB0A900B9107CA2E
:1007300003C3C7A81A7004F0F5FFE5A804F0F2FFA0
:100740004FA804F0EFFF40A804F0ECFF31A804F03C
:10075000E9FF22A804F0E6FF9AA804F0E3FFA9A8A5
:1007600004F0E0FFB8A804F0DDFF6DA804F058FF26
:100770005EA804F0D7FF7CA804F0D4FF8BA804F097
:10078000D1FFD6A804F0CEFF62E602F027FE1923BF
:100790004FF00002CDE9060142EC403040E65846F9
:1007A00004F03EFFAAE7821C7FF4D5AED8E602F043
:1007B00015FE034601255048CDE91C3104F030FFF9
:1007C0004E4804F02DFF00214D4804F0ABFF2E20D1
:1007D00004F0E4FE4B4804F0A5FF2C46AA46DFF8DF
:1007E0003C81DFF820B12FE0782B30D002F0F6FD0D
:1007F00042F21073C01841F100034FF0FF316FF067
:100800000042814272EB030C3CBF0846134651463E
:10081000CDE90203009601233B480DF1870205F064
:1008200059F9002813DB394804F07CFF0F2D13D150
:100830004846013404F076FF802C3FF4FDAD14F0FF
:100840000F055FFA84FA09D01AF07803CCD140463C
:1008500004F068FF0F2DEBD05846EAE72146284800
:1008600004F060FF02F0BAFD42F210734FF0FF3265
:10087000C0186FF0004341F10001824273EB0105A3
:100880003CBF104619460096CDE9020101235146AE
:100890001D480DF1870205F01DF9002804DB4020FA
:1008A00004F07CFE5846C4E72E2004F077FE58463C
:1008B000BFE702F093FD0D4A5EAB0C900D9107CAA5
:1008C00003C313481A8000F025FD059000283FF46B
:1008D000D5ADEAE6B4640010AC640010A464001066
:1008E0009C640010946400108C6400102C6500104F
:1008F0007464001020640010D4630010E4630010DE
:1009000018640010B4630010EC060020AC63001003
:10091000600600204464001060640010A8630010AA
:1009200000F0A8F86DA805F0D7FC1B49C0F13B0208
:100930006DA805F04FFB9FE6184AD654184B1E6071
:100940001368184A93420CD01749144805F070FBFD
:1009500000287FF405AE01465022F4A805F0E8FA1D
:10096000FEE50E4B114A5B689342EDD1104C114DE0
:100970004FF0060C0FCD0FC495E8070003C44FF0ED
:10098000010E22704EEC40C002F028FDCDE91E01A0
:10099000DAE702F033FF85E438640010580A0020DB
:1009A000E80A00204255524EF06400105F4F4E009E
:1009B0000C0B0020D46400102DE9F0474FF0000A22
:1009C00082B08146002105208DF806A0112502F095
:1009D0000FFD4AEC40500124254E0520002102F075
:1009E00007FD22460DF1070130688DF8074005F03C
:1009F000B3FC514623460DF10602306805F0A8FC11
:100A00000520002102F0F4FC44EC405005200021B8
:100A100002F0EEFC9DF80630052023F0070343EAC0
:100A2000090300218DF8063002F0E2FC4AEC405048
:100A30000520002102F0DCFC812322460DF1070194
:100A400030688DF8073005F087FC22460DF106016D
:100A5000306805F081FC0520002102F0C9FC44EC5F
:100A600040500520002102F0C3FC02B0BDE8F08731
:100A70006C06002070B5002482B0052000218DF89E
:100A80000640112502F0B4FC44EC40500520002142
:100A900002F0AEFC1223114E0DF107010122306865
:100AA0008DF8073005F058FC012321460DF10602B0
:100AB000306805F04DFC0520002102F099FC4FF054
:100AC000010343EC40500520002102F091FC9DF809
:100AD0000600C0F3401002B070BD00BF6C060020DD
:100AE0002DE9F04341F67861002405468D4A83B034
:100AF00005E0DCB252F82410002900F0BF808D42DE
:100B000004F10103F5D8884804F00CFE24014FF0ED
:100B10000008052000218DF80680C14602F068FC1F
:100B2000112748EC40700520002102F061FC1D23D4
:100B30007E4E0DF10701012230688DF8073005F077
:100B40000BFC012341460DF10602306805F000FC64
:100B50000520002102F04CFC4FF0010848EC4070E9
:100B60000520002102F044FC9DF80630052023F00A
:100B7000F003234300218DF8063002F039FC49ECE4
:100B800040700520002102F033FC9D230DF1070188
:100B9000012230688DF8073005F0DEFB01220DF1EF
:100BA0000601306805F0D8FB0520002102F020FC8A
:100BB00048EC40700520002102F01AFC5C4B9D427D
:100BC0005ED841F678639D4200F0A9804FF223433E
:100BD0009D428CBF40234423052000218DF8063020
:100BE00002F006FC49EC40700520002102F000FCF8
:100BF000AF230DF10701012230688DF8073005F0B1
:100C0000ABFB01220DF10601306805F0A5FB0520C4
:100C1000002102F0EDFB48EC40700520002102F0BD
:100C2000E7FB0023052000211D468DF80630112426
:100C300002F0DEFB45EC40400520002102F0D8FB2D
:100C4000B0230DF10701012230688DF8073005F05F
:100C500083FB01220DF10601306805F07DFB0520C4
:100C6000002102F0C5FB4FF0010343EC404005209A
:100C7000002102F0BDFB03B0BDE8F083902446E7FD
:100C80000223052000218DF8063002F0B1FB49EC6B
:100C900040700520002102F0ABFBB6230DF10701E7
:100CA000012230688DF8073005F056FB01220DF166
:100CB0000601306805F050FB0520002102F098FB8A
:100CC00048EC40700520002102F092FB64230520CF
:100CD00000218DF8063002F08BFB49EC40700520B6
:100CE000002102F085FBBA230DF1070101223068D3
:100CF0008DF8073005F030FB01220DF10601306858
:100D000005F02AFB0520002102F072FB48EC407040
:100D10000520002102F06CFB03B0BDE8F0834823FE
:100D20005AE700BF60690010786500106C0600206B
:100D30001FA107002DE9F04F0346002785B00520CD
:100D4000002101938DF80E70112402F051FB47EC45
:100D500040404FF0090B784D0520002102F048FB80
:100D60000DF10F01012228688DF80FB005F0F4FA9B
:100D7000012339460DF10E02286805F0E9FA052035
:100D8000002102F035FB012646EC40400520002101
:100D900002F02EFB9DF80E30052063F07F0300214A
:100DA0008DF80E3002F024FB47EC40404FF0890AEA
:100DB0000520002102F01CFB32460DF10F012868CE
:100DC0008DF80FA005F0C8FA32460DF10E01286823
:100DD00005F0C2FA0520002102F00AFB46EC404073
:100DE0000520002102F004FB052000218DF80E7083
:100DF00002F0FEFA47EC40400520002102F0F8FA2C
:100E000032460DF10F0128688DF80FB005F0A4FAF5
:100E1000334639460DF10E02286805F099FA05208F
:100E2000002102F0E5FA46EC40400520002102F0E6
:100E3000DFFA9DF80E30052023F0700343F07003B5
:100E400000218DF80E3002F0D3FA47EC4040052027
:100E5000002102F0CDFA32460DF10F0128688DF81D
:100E60000FA005F079FA32460DF10E01286805F061
:100E700073FA0520002102F0BBFA46EC4040052041
:100E8000002102F0B5FA052000218DF80E7002F065
:100E9000AFFA47EC40400520002102F0A9FA3246A3
:100EA0000DF10F0128688DF80FB005F055FA3346A3
:100EB00039460DF10E02286805F04AFA0520002196
:100EC00002F096FA46EC40400520002102F090FA2C
:100ED000019B9DF80E2043EAE3730E2BA8BF0E235F
:100EE00022F00F0233441343052000218DF80E3009
:100EF00002F07EFA47EC40400520002102F078FA2B
:100F000032460DF10F0128688DF80FA005F024FA84
:100F100032460DF10E01286805F01EFA0520002169
:100F200002F066FA46EC40400520002102F060FA2B
:100F300005B0BDE8F08F00BF6C0600202DE9F0433E
:100F4000002783B0052000218DF80670112402F0DF
:100F50004FFA47EC40400520002102F049FA922365
:100F60005E4D0DF10701012228688DF8073005F06C
:100F7000F3F901220DF10601286805F0EDF90520CD
:100F8000002102F035FA012646EC40400520002100
:100F900002F02EFA052000218DF8067002F028FAE2
:100FA00047EC40400520002102F022FA402332465F
:100FB0000DF1070128688DF8073005F0CDF93346AB
:100FC00039460DF10602286805F0C2F90520002116
:100FD00002F00EFA46EC40400520002102F008FA2B
:100FE0009DF80630052023F0C00343F040030021A4
:100FF0008DF8063002F0FCF947EC40400520002156
:1010000002F0F6F9C02332460DF1070128688DF889
:10101000073005F0A1F932460DF10601286805F008
:101020009BF90520002102F0E3F946EC4040052041
:10103000002102F0DDF9052000218DF8067002F094
:10104000D7F947EC40400520002102F0D1F93246A3
:101050000DF1070128688DF8076005F07DF933462A
:1010600039460DF10602286805F072F905200021C5
:1010700002F0BEF946EC40400520002102F0B8F92C
:101080009DF80630052023F0070343F003030021F9
:101090008DF8063002F0ACF947EC40400520002105
:1010A00002F0A6F9812332460DF1070128688DF878
:1010B000073005F051F932460DF10601286805F0B8
:1010C0004BF90520002102F093F946EC4040052041
:1010D000002102F08DF903B0BDE8F0836C0600201A
:1010E0002DE9F043002783B0052000218DF806701C
:1010F000112402F07DF947EC40400520002102F068
:1011000077F94023824D0DF10701012228688DF8FF
:10111000073005F021F9012339460DF10602286850
:1011200005F016F90520002102F062F9012646ECCF
:1011300040400520002102F05BF99DF806300520B3
:1011400023F0C00300218DF8063002F051F947EC7E
:1011500040400520002102F04BF9C02332460DF13A
:10116000070128688DF8073005F0F6F832460DF1D2
:101170000601286805F0F0F80520002102F038F992
:1011800046EC40400520002102F032F90520002104
:101190008DF8067002F02CF947EC40400520002144
:1011A00002F026F98D2332460DF1070128688DF8EB
:1011B000073005F0D1F832460DF10601286805F038
:1011C000CBF80520002102F013F946EC4040052041
:1011D000002102F00DF9052000218DF8067002F0C3
:1011E00007F947EC40400520002102F001F9902367
:1011F00032460DF1070128688DF8073005F0ACF88C
:1012000032460DF10601286805F0A6F805200021F8
:1012100002F0EEF846EC40400520002102F0E8F82C
:10122000052000218DF8067002F0E2F847EC4040FE
:101230000520002102F0DCF8922332460DF107016F
:1012400028688DF8073005F087F832460DF1060161
:10125000286805F081F80520002102F0C9F846EC65
:1012600040400520002102F0C3F8052000218DF840
:10127000067002F0BDF847EC40400520002102F066
:10128000B7F832460DF1070128688DF8076005F0C0
:1012900063F8334639460DF10602286805F058F820
:1012A0000520002102F0A4F846EC40400520002172
:1012B00002F09EF89DF80630052023F0070343F066
:1012C000050300218DF8063002F092F847EC40400B
:1012D0000520002102F08CF8812332460DF1070130
:1012E00028688DF8073005F037F832460DF1060111
:1012F000286805F031F80520002102F079F846EC65
:1013000040400520002102F073F803B0BDE8F083EF
:101310006C0600202DE9F0470027064682B0152014
:1013200001F088F91524B94647EC44403A4639465D
:10133000204601F06BF94FF0010848EC40401120C5
:1013400001F078F9112548EC44503A4639462846D0
:1013500001F05CF948EC40500121122001F038F90D
:101360000121132001F034F90121102001F030F99E
:1013700048EC444047EC40406420002101F072FFFB
:1013800047EC4440A84C052001F084FF0A2002F0FD
:1013900061F82068A549B06004F0BAFB20684FF0FE
:1013A000020E0346C22653F8041F00F5805C03F5C5
:1013B0004052C2F800E0026801EA0E0182F0070222
:1013C00003F5005302F0CF02CCF800208DF8057031
:1013D00019608DF8076047EC405001220DF10701BC
:1013E00004F0BAFF0123394620680DF1050204F02C
:1013F000AFFF48EC40508E4A8E4B012814BF104678
:10140000184604F08FF98C4B9DF805108B48A942C3
:1014100018BF184604F086F9142001F00BF91420C7
:1014200047EC44000122394601F0F0F80520002184
:101430008DF8067001F0DCFF47EC405001260520D6
:10144000002101F0D5FF32460DF1070120688DF82B
:10145000076004F081FF334639460DF1060220682B
:1014600004F076FF0520002101F0C2FF48EC405057
:101470000520002101F0BCFF9DF80630052023F077
:10148000070300218DF8063001F0B2FF47EC405011
:101490004FF0810A0520002101F0AAFF32460DF12C
:1014A000070120688DF807A004F056FF32460DF1C1
:1014B0000601206804F050FF0520002101F098FF8C
:1014C00048EC40500021052001F092FF0A2001F075
:1014D000E1FE052000218DF8067001F089FF47EC40
:1014E00040500520002101F083FF32460DF1070135
:1014F00020688DF8076004F02FFF334639460DF160
:101500000602206804F024FF0520002101F070FF8E
:1015100048EC40500520002101F06AFF9DF806309C
:10152000052063F07F0300218DF8063001F060FF95
:1015300047EC40500520002101F05AFF32460DF1E2
:10154000070120688DF807A004F006FF32460DF170
:101550000601206804F000FF0520002101F048FF8B
:1015600048EC40500021052001F042FF0A2001F024
:1015700091FE052000218DF8067001F039FF47EC3F
:1015800040500520002101F033FF32460DF10701E4
:1015900020688DF8076004F0DFFE334639460DF110
:1015A0000602206804F0D4FE0520002101F020FF8F
:1015B00048EC40500520002101F01AFF9DF806700C
:1015C00017F0070728D1052000218DF8067001F0DB
:1015D0000FFF49EC40500520002101F009FF324681
:1015E0000DF1070120688DF8076004F0B5FE334661
:1015F00039460DF10602206804F0AAFE05200021FC
:1016000001F0F6FE48EC40500520002101F0F0FE0C
:101610009DF80660F60915D1094804F001F801208B
:1016200002B0BDE8F08700BF6C060020404B4C00C4
:10163000B86500109C650010D4650010F4650010BA
:10164000246600103046FFF7B7F9052000218DF819
:10165000067001F0CDFE49EC40500520002101F05C
:10166000C7FE8E2332460DF1070120688DF8073042
:1016700004F072FE32460DF10601206804F06CFEA3
:101680000520002101F0B4FE48EC40500520002167
:1016900001F0AEFE052000218DF8067001F0A8FED5
:1016A00049EC40504FF08F0A0520002101F0A0FEC8
:1016B00032460DF1070120688DF807A004F04CFEBA
:1016C00032460DF10601206804F046FE0520002197
:1016D00001F08EFE48EC40500520002101F088FE0C
:1016E0006D23052000218DF8063001F081FE49ECC4
:1016F00040500520002101F07BFE862332460DF18B
:10170000070120688DF8073004F026FE32460DF1FF
:101710000601206804F020FE0520002101F068FE8B
:1017200048EC40500520002101F062FE9623052080
:1017300000218DF8063001F05BFE49EC4050052099
:10174000002101F055FE872332460DF10701206884
:101750008DF8073004F000FE32460DF106012068D6
:1017600004F0FAFD0520002101F042FE48EC405053
:101770000520002101F03CFE052000218DF806A087
:1017800001F036FE49EC40500520002101F030FE0A
:10179000882332460DF1070120688DF8073004F0E8
:1017A000DBFD32460DF10601206804F0D5FD052071
:1017B000002101F01DFE48EC40500520002101F001
:1017C00017FEB449B44803F0ADFF052000218DF8A1
:1017D000067001F00DFE49EC40500520002101F09B
:1017E00007FEA02332460DF1070120688DF807306F
:1017F00004F0B2FD32460DF10601206804F0ACFDA4
:101800000520002101F0F4FD48EC405005200021A6
:1018100001F0EEFD0823052000218DF8063001F0CF
:10182000E7FD49EC40500520002101F0E1FDA12336
:1018300032460DF1070120688DF8073004F08CFD69
:1018400032460DF10601206804F086FD05200021D6
:1018500001F0CEFD48EC40500520002101F0C8FD0C
:10186000052000218DF8067001F0C2FD49EC4050C2
:101870000520002101F0BCFD202332460DF10701B7
:1018800020688DF8073004F067FD334639460DF1C6
:101890000602206804F05CFD0520002101F0A8FD8F
:1018A00048EC40500520002101F0A2FD0520002158
:1018B0009DF806A08DF8067001F09AFD49EC4050A5
:1018C0000520002101F094FD212332460DF107018E
:1018D00020688DF8073004F03FFD334639460DF19E
:1018E0000602206804F034FD0520002101F080FD8F
:1018F00048EC40500520002101F07AFD9DF80630AB
:1019000043EA0A23082B40F018840025634F112670
:101910003846FFF7E5F8052000218DF8065001F064
:1019200067FD45EC40600520002101F061FD1D23AD
:101930000DF10701012220688DF8073004F00CFD3D
:10194000012329460DF10602206804F001FD05205F
:10195000002101F04DFD4FF0010343EC40600520F4
:10196000002101F045FD9DF806308F2B4FEA131240
:1019700000F2E8834A4B53F82230BB4240F0E28346
:1019800000260521474803F0CDFE052000218DF8F3
:101990000660112501F02CFD46EC40504FF01D096A
:1019A0000520002101F024FD0DF10701012220682E
:1019B0008DF8079004F0D0FC012331460DF10602AA
:1019C000206804F0C5FC0520002101F011FD4FF056
:1019D000010747EC40500520002101F009FD9DF86A
:1019E0000630052023F00E0343F0020300218DF89A
:1019F000063001F0FDFC46EC40500520002101F0CE
:101A0000F7FC9D230DF10701012220688DF80730B6
:101A100004F0A2FC01220DF10601206804F09CFCF8
:101A20000520002101F0E4FC47EC40500520002196
:101A300001F0DEFC052000218DF8066001F0D8FCE5
:101A400046EC40500520002101F0D2FC0DF10701C9
:101A5000012220688DF8079004F07EFC01233146B6
:101A60000DF10602206804F073FC0520002101F04E
:101A7000BFFC47EC40500520002101F0B9FC9DF867
:101A8000063003F00E03022B10D0074803F04AFE85
:101A90000CE000BF20E01C1A3865001048E8010087
:101AA0006069001058650010C0660010002605200F
:101AB00000218DF80660112501F09AFC46EC40509B
:101AC0004FF01E090520002101F092FC0DF10701E5
:101AD000012220688DF8079004F03EFC0123314676
:101AE0000DF10602206804F033FC0520002101F00E
:101AF0007FFC4FF0010747EC40500520002101F02A
:101B000077FC9DF80630052023F0F00343F07003C6
:101B100000218DF8063001F06BFC46EC40500520AA
:101B2000002101F065FC9E230DF1070101222068D0
:101B30008DF8073004F010FC01220DF10601206839
:101B400004F00AFC0520002101F052FC47EC405053
:101B50000520002101F04CFC052000218DF80660D5
:101B600001F046FC46EC40500520002101F040FC0D
:101B70000DF10701012220688DF8079004F0ECFBBD
:101B8000012331460DF10602206804F0E1FB052037
:101B9000002101F02DFC47EC40500520002101F010
:101BA00027FC9DF806301B09072B02D0C14803F023
:101BB000B9FD0026052000218DF80660112501F0F1
:101BC00017FC46EC40504FF01E090520002101F0A3
:101BD0000FFC0DF10701012220688DF8079004F039
:101BE000BBFB012331460DF10602206804F0B0FB77
:101BF0000520002101F0FCFB4FF0010747EC4050AD
:101C00000520002101F0F4FB9DF80630052043F08B
:101C1000040300218DF8063001F0EAFB46EC405049
:101C20000520002101F0E4FB9E230DF107010122B4
:101C300020688DF8073004F08FFB01220DF10601BA
:101C4000206804F089FB0520002101F0D1FB47EC5E
:101C500040500520002101F0CBFB052000218DF82C
:101C6000066001F0C5FB46EC40500520002101F064
:101C7000BFFB0DF10701012220688DF8079004F0E9
:101C80006BFB012331460DF10602206804F060FB76
:101C90000520002101F0ACFB47EC4050052000215D
:101CA00001F0A6FB9DF80630580702D4824803F0E5
:101CB00039FD0026052000218DF80660112501F070
:101CC00097FB46EC40504FF026090520002101F01B
:101CD0008FFB0DF10701012220688DF8079004F0B9
:101CE0003BFB012331460DF10602206804F030FB76
:101CF0000520002101F07CFB4FF0010747EC40502C
:101D00000520002101F074FB9DF80630052043F00A
:101D1000040300218DF8063001F06AFB46EC4050C8
:101D20000520002101F064FBA6230DF1070101222B
:101D300020688DF8073004F00FFB01220DF1060139
:101D4000206804F009FB0520002101F051FB47EC5D
:101D500040500520002101F04BFB052000218DF8AB
:101D6000066001F045FB46EC40500520002101F0E3
:101D70003FFB0DF10701012220688DF8079004F068
:101D8000EBFA012331460DF10602206804F0E0FA77
:101D90000520002101F02CFB47EC405000210520DC
:101DA00001F026FB9DF80630590702D4434803F0A2
:101DB000B9FC0026052000218DF80660112501F0F0
:101DC00017FB46EC40504FF026090520002101F09A
:101DD0000FFB0DF10701012220688DF8079004F038
:101DE000BBFA012331460DF10602206804F0B0FA77
:101DF0000520002101F0FCFA4FF0010747EC4050AC
:101E00000520002101F0F4FA9DF80630052043F08A
:101E1000080300218DF8063001F0EAFA46EC405044
:101E20000520002101F0E4FAA6230DF107010122AB
:101E300020688DF8073004F08FFA01220DF10601B9
:101E4000206804F089FA0520002101F0D1FA47EC5E
:101E500040500520002101F0CBFA052000218DF82B
:101E6000066001F0C5FA46EC40500520002101F063
:101E7000BFFA0DF10701012220688DF8079004F0E8
:101E80006BFA012331460DF10602206804F060FA76
:101E90000520002101F0ACFA47EC4050052000215C
:101EA00001F0A6FA9DF806301A070BD4044803F097
:101EB00039FC07E0F066001024670010546700103A
:101EC0007C67001000260F20FEF734FF052000215C
:101ED0008DF80660112501F08BFA46EC4050052084
:101EE000002101F085FA09230DF107010122206884
:101EF0008DF8073004F030FA012331460DF1060267
:101F0000206804F025FA0520002101F071FA4FF055
:101F1000010747EC40500021052001F069FA8D4887
:101F200003F000FC052000218DF8066001F060FA46
:101F300046EC40504FF00A090520002101F058FA04
:101F40000DF10701012220688DF8079004F004FAD2
:101F5000012331460DF10602206804F0F9F905204D
:101F6000002101F045FA47EC40500520002101F026
:101F70003FFA9DF80630052023F00F0300218DF86D
:101F8000063001F035FA46EC40500520002101F002
:101F90002FFA8A230DF10701012220688DF80730FE
:101FA00004F0DAF901220DF10601206804F0D4F9F9
:101FB0000520002101F01CFA47EC405005200021CB
:101FC00001F016FA052000218DF8066001F010FAE4
:101FD00046EC40500520002101F00AFA0DF10701FE
:101FE000012220688DF8079004F0B6F901233146EC
:101FF0000DF10602206804F0ABF90520002101F084
:10200000F7F947EC40500520002101F0F1F99DF867
:1020100006301B0740F09A800026052000218DF82D
:102020000660112501F0E4F946EC40504FF00C0930
:102030000520002101F0DCF90DF1070101222068E3
:102040008DF8079004F088F9012331460DF106025E
:10205000206804F07DF90520002101F0C9F94FF056
:10206000010747EC40500520002101F0C1F99DF81F
:102070000630052023F0030343F0030300218DF80D
:10208000063001F0B5F946EC40500520002101F082
:10209000AFF98C230DF10701012220688DF807307C
:1020A00004F05AF901220DF10601206804F054F9F8
:1020B0000520002101F09CF947EC4050052000214B
:1020C00001F096F9052000218DF8066001F090F9E5
:1020D00046EC40500520002101F08AF90DF107017E
:1020E000012220688DF8079004F036F9012331466B
:1020F0000DF10602206804F02BF90520002101F003
:1021000077F947EC40500520002101F071F99DF866
:10211000063003F00303032B02D00F4803F002FB49
:10212000FEF7DEFF0D4803F07BFA9DF8050011383D
:1021300018BF012002B0BDE8F087094803F0F2FAA9
:10214000FFF7E3BB074803F0EDFA19E4064803F094
:10215000E9FA61E7A4670010006800103068001019
:102160005066001084660010D46700104FF0504392
:102170005868C0F3005070474FF050435868C0F3A0
:10218000005070472DE9F04F0346002785B08A467E
:102190000520002101938DF80E70112501F028F91A
:1021A00047EC405001249A4E0520002101F020F90F
:1021B00022460DF10F0130688DF80F4004F0CCF885
:1021C000234639460DF10E02306804F0C1F80520AF
:1021D000002101F00DF944EC40500520002101F0F0
:1021E00007F99DF80E200520002100928DF80E7051
:1021F00001F0FEF847EC40500520002101F0F8F80E
:1022000022460DF10F0130688DF80F4004F0A4F85C
:102210000DF10E00024623463946306804F098F866
:102220000520002101F0E4F844EC40500520002195
:1022300001F0DEF89DF80E30052023F0070323435C
:1022400000218DF80E3001F0D3F847EC40504FF0EC
:10225000810B0520002101F0CBF822460DF10F0182
:1022600030688DF80FB004F077F822460DF10E01BA
:10227000306804F071F80520002101F0B9F844EC51
:1022800040500520002101F0B3F8052000218DF811
:102290000E7001F0ADF847EC40500520002101F030
:1022A000A7F88D2322460DF10F0130688DF80F300D
:1022B00004F052F822460DF10E01306804F04CF89B
:1022C0000520002101F094F844EC40500520002145
:1022D00001F08EF80520002101F08AF847EC40500B
:1022E0000520002101F084F8802322460DF10F0122
:1022F00030688DF80F3004F02FF85246019930689D
:1023000004F02AF80520002101F072F844EC405056
:102310000520002101F06CF8052000218DF80EA0A9
:1023200001F066F847EC40500520002101F060F80C
:10233000A22322460DF10F0130688DF80F3004F012
:102340000BF822460DF10E01306804F005F8052067
:10235000002101F04DF844EC40500520002101F02F
:1023600047F8052000218DF80E7001F041F847EC88
:1023700040500520002101F03BF822460DF10F01ED
:1023800030688DF80F4003F0E7FF0DF10E010A46AB
:1023900023463946306803F0DBFF0520002101F0B9
:1023A00027F844EC40500520002101F021F8009A64
:1023B000052002F007039DF80E20002122F00702FD
:1023C00013438DF80E3001F013F847EC4050052010
:1023D000002101F00DF822460DF10F0130688DF853
:1023E0000FB003F0B9FF22460DF10E01306803F083
:1023F000B3FF0520002100F0FBFF44EC4050052016
:10240000002100F0F5FF384605B0BDE8F08F00BFB1
:102410006C06002001230B490B4A0868126800F182
:1024200010018B4051681942FCD14FF4801102EB2E
:102430008000016151680B42FCD14FF480130361AD
:10244000704700BFC80A0020C40A002001230B49BE
:102450000B4A0868126800F110018B40516819425C
:10246000FCD14FF0006102EB8000016151680B422A
:10247000FCD14FF000630361704700BFC80A002021
:10248000C40A002001230A490A4A0868126800F1B8
:1024900010018B4051681942FCD1074902EB8000C2
:1024A000016151680B42FCD1034B0361704700BFCF
:1024B000C80A0020C40A00200001010170B50221F1
:1024C0008EB03A4803F02EF901220221CDE9012213
:1024D0000091374809AB08AA07A903F06BFC002854
:1024E00060D0DDE90856079C022004F12F4101F578
:1024F0006001090D0631C9B200F06AF80123022219
:1025000029460093204603F0BBFB4FF48033294A51
:102510000A930C92F301F21C274943EA023323F099
:10252000C04305200B930D9101F0D4F807EE100A7B
:102530009FED226AB8EE477ADFED216AC7EE067A90
:1025400077EEA67ABCEEE77A17EE103A9BB23BB371
:1025500007EE103AB8EE477ADFED1A6A77EEC77ADF
:1025600067EEA67AFCEEE77ACDED057A9DF81400C9
:10257000000240EA0340324629460AAB0A90204650
:1025800003F0C4FB0121002022680F4E0F4BA9402D
:1025900011432160DDE9071231601A600EB070BD91
:1025A0001846E6E701F02AF99BE700BF50680010E3
:1025B0008869001000000670000800200024F44A1A
:1025C0000000003B00008043C40A0020C80A00202D
:1025D00010B44FF480740C4B53F8202003EB8003AD
:1025E000C00082F0400200F1804003F5805C02F000
:1025F000C00200F5203003F54053CCF800204160C4
:102600001C605DF8044B70470480034010B4084C14
:10261000C90041EA820154F8202004EB80035140B4
:1026200003F5805301F00C015DF8044B196070470D
:102630000480034030B44FF0000343EC440043EC0B
:10264000400005254FF480740B4BC20053F8201056
:1026500003EB800081F0400102F1804303F5203359
:1026600001F0C00200F5805100F540500A605D6045
:10267000046030BC704700BF048003400FB400B555
:1026800083B0049C074802F0CBFF3CB105A920466B
:10269000019102F0EDFD044802F0C2FF012002F0BA
:1026A000FFFD00BF78680010B0630010EFF31080EA
:1026B00072B6064BD3E8CF1F01220029FAD1C3E836
:1026C000412F0029F6D1BFF35F8F7047D309002057
:1026D0000023034AC2E88F3F80F31088704700BF91
:1026E000D309002070B58646EFF3108572B6124C00
:1026F000D4E8CF6F0120002EFAD1C4E8460F002E97
:10270000F6D1BFF35F8F4FF0010CC80801F007034B
:102710000CFA03F31EF800C01CEA030608D14CEAC9
:10272000030C0EF800C0C4E88F6F85F3108870BDED
:102730001046FFF7A3FF00BFD3090020F8B5EFF361
:10274000108572B6234CD4E8CF7F0126002FFAD132
:10275000C4E8476F002FF6D1BFF35F8F9A4227D8A6
:102760000126D70810F807E002F0070C06FA0CFC67
:102770001EEA0C0F00EBD2070DD125E04FEAD20E76
:1027800010F80EE002F0070C06FA0CFC1EEA0C0F23
:1027900000EBD20718D001329342EFD24FF0FF3056
:1027A0000023C4E88F3F85F31088984207DBF8BD0B
:1027B0000023C4E88F3F85F310884FF0FF300029D5
:1027C000F5D00698FFF75AFF4EEA0C0E104687F830
:1027D00000E0E5E7D309002000B5EFF3108E72B6F4
:1027E000104BD3E8CFCF0122BCF1000FF9D1C3E8E1
:1027F0004C2FBCF1000FF4D1BFF35F8F01224FEAE1
:10280000D10C01F0070102FA01F110F80C2022EAC4
:10281000010200F80C200022C3E88F2F8EF31088ED
:102820005DF804FBD3090020044A1078431CDBB296
:10283000182B28BF10231370704700BF70060020AC
:102840004FF0E022936843F000539360704700BF5D
:102850000021044B03F12002C3E88F1F0133934290
:10286000FAD17047C80900204FF0E0234FF08032C2
:10287000C3F80024C3F80424C3F80824C3F80C24C4
:10288000C3F81024C3F81424C3F81824C3F81C2474
:10289000C3F82024C3F82424C3F82824C3F82C2424
:1028A000C3F83024704700BF012300F01F0293409B
:1028B000400941B1800000F1604000F56140C0F87E
:1028C000803103607047024A203042F82030704760
:1028D00000E100E0F8B50D46EFF3108772B6124E36
:1028E000D6E8CF2F0123002AFAD1C6E8423F002ABA
:1028F000F6D1BFF35F8F0D4B00F110049B680C4ABB
:1029000053F82430934203D0994201D000F076FF6F
:10291000064B9B6843F82450BFF35F8F0023C6E843
:102920008F3F87F31088F8BDD109002000ED00E04B
:102930001D0100102DE9F04F83B0EFF3108A72B63D
:10294000744ED6E8CF2F0123002AFAD1C6E8423FC1
:10295000002AF6D1BFF35F8F6F4B00F110089B6820
:102960006E4A53F8285095423FD08D420C464AD0CB
:102970006B4FEB1B2F2B38D801214FEA50194FEA30
:10298000890909F1604909F5614900F01F0301FA5D
:1029900003F0D9F80030C9F8800000EA030BBFF358
:1029A0005F8FEFF30581C9B279B3884577D125F000
:1029B000010EDEF808C0644505D17CE0D3F808C0FC
:1029C000644532D09E469EF9062002EB4203002A5F
:1029D00007EB8303F2DA644500F08180BBF1000F5E
:1029E00020D0C9F88001C9F800004B4B9B6843F820
:1029F0002850BFF35F8F0023C6E88F3F8AF310880B
:102A000003B0BDE8F08F1546EFE725F0010EDEF8C4
:102A100008C06445D7D19EF906407346002C08DAF9
:102A2000154666E0C9F88000DFE793F90640002C00
:102A300056DB04EB440C07EB8C0CDCF8082061003F
:102A40009A609CF80720DA719CF90620002A9A7196
:102A50005DDBBCF80420520504D502F5FF1202F537
:102A6000FF521F32521502F1020C4FF0040E0C22DD
:102A700012FB04E202EB4C026FF0070C3A44ACEBA1
:102A8000030C6244C2F34A0242F460429A80254B2E
:102A900021441A7807EB81011C708A719EE7CDE909
:102AA000000100F0ABFEDDE9000125F0010EDEF8CB
:102AB00008C0644587D19EF906407346002CB8DAF9
:102AC000194A1A4CD21A083AC2F30A316FEA015174
:102AD0006FEA115144EA5202DA8099807EE7734628
:102AE0000029EDD1FF228EF806204BF60152AEF8F8
:102AF00004200C4C4AF6AA2294F800C01946C91BBF
:102B000049414A43120D83F806C0227066E74BF62E
:102B10000152BBE7D109002000ED00E01D010010CB
:102B2000740600205C0B0020AE06002000F8FFFFBA
:102B3000F0B5EFF30585EDB2EFF3108C72B62649D0
:102B4000D1E8CF2F0123002AFAD1C1E8423F002A61
:102B5000F6D1BFF35F8F214E40F0010EB4684AF604
:102B6000AA2354F825701E4A0446A41A64416343FC
:102B70001B0D77455BB21BD092F906409C421CD0DE
:102B800092F912409C4223D092F91E409C4221D0DF
:102B900092F92A409C4208BF03240FD0114A002416
:102BA000157813708571C1E88F4F8CF31088F0BDD4
:102BB000B2680D4C42F82540F0E7002404EB4404D1
:102BC00002EB8402FF2494714BF601549480E5E7F4
:102BD0000124F3E70224F1E7D109002000ED00E031
:102BE000740600205C0B00201D010010014B0B44FB
:102BF00003607047C809002070B5104C104DAC42FE
:102C00000ED2FF26236863B1FFF70EFE0146204671
:102C1000FFF7ECFFA680BFF35F8F0834AC42F1D31F
:102C200070BDFFF701FE01462046FFF7DFFF26716A
:102C3000BFF35F8F0834AC42E4D370BDF4060020CC
:102C4000FC0600200D4B1A68EFF3108172B6D2E833
:102C5000CFCF0120BCF1000FF9D1C2E84C0FBCF17D
:102C6000000FF4D1BFF35F8F00221B68C3E88F2FE2
:102C700081F3108840BF002000217047500B0020D6
:102C80002DE9F04F2DED028B85B0EFF30583DBB21C
:102C9000103B9A0818BF01224FF0010103F0030016
:102CA00018BFAB4DAB4B08BFAB4D00EB820201FA36
:102CB00000FB53F8226005F541539FEDA38B019073
:102CC000C3F804B0CDF800B02AE0B388180440F18E
:102CD0008C80B379002B40F0D580B6F9081000291C
:102CE000C0F21581736901EB410103EBC103D3E924
:102CF0000247B7F1FF3F08BFB4F1FF3F09D0019B86
:102D000005EB8301AB6A0A69D21AE31A934238BF12
:102D10000C61284600F05AFBA042B941C0F2F7808E
:102D2000B6F90840009B002CEB63CEDBD6F814907C
:102D300004EB440A284609EBCA07D7E902B800F0B9
:102D400045FB584571EB0801BFDBB8F1000FC0F23D
:102D5000C180D7E90431814A934200F0EA807A8841
:102D6000B6F9080092B242EA0040984702460B4684
:102D700052EA030100F0AE80002B80F2CE80BBEB64
:102D8000020B68EB030839F93A30C7E902B8002BA7
:102D90009BDB716903EB430201EBC202D2E90270D3
:102DA000BB4578EB000C4FEA43028EDBB4462CF8AF
:102DB000083F0BE031F93230F446002B0DDB03EB1A
:102DC000430001EBC0005A00D0E90270BB451A4431
:102DD00078EB000001EBC20EECDA29F83A30ACF8DF
:102DE0000040B38818043FF574AF3369EFF31082E5
:102DF00072B6D3E8CF0F01210028FAD1C3E8401FF3
:102E00000028F6D1BFF35F8F4FF6FF74B088002320
:102E1000316900B2B480C1E88F3F82F310889842D4
:102E2000FFF657AF0746A946746906F1080807EB95
:102E3000470E04EBCE03D3E90250B6F90830C4467E
:102E4000002BA8BFB34605DA0FE034F93A309446B8
:102E5000002B09DB03EB430A04EBCA02D2E902614F
:102E6000B54270EB0101F0DA5E46ACF8007034F95F
:102E70003E7024F83E30002FD9DAB3794D46002B4E
:102E80003FF42BAF0023B371B6F9083006F1080800
:102E9000591C3CD01946776903E080465A1C3FF420
:102EA0001EAF03EB430207EBC200B0F802C01C46A2
:102EB0001CF4004F9E4637F93230EED08C4280ED44
:102EC000028B05D0A8F80030318927F83210348100
:102ED0007146E3E739F83A3033813369EFF3108212
:102EE00072B6D3E8CF0F01210028FAD1C3E8401F02
:102EF0000028F6D1BFF35F8F7388316929F83A3023
:102F000000237480C1E88F3F82F31088DDE640BF64
:102F100005B0BDEC028BBDE8F08F2846CDE9022359
:102F200000F054FA029A039B10EB020B43EB0108EA
:102F300029E708460B69029198470028CAD00299F0
:102F4000D1E9002314E700BFFFFFFFFFFFFFFFFFF2
:102F500000800B40EC0A002000000B40812C001088
:102F60002DE9F84F364C25692DB1BDE8F84F0A21FF
:102F70003448FFF73BBEDFF8E4800321404600F011
:102F800013FA0326C4F80C80FFF74EFC4FF0504CA8
:102F90002D4B267003442361DCF800300F21637051
:102FA000636961801D834FF00405A3F878504FF0EA
:102FB0000505A3F890504FF00605A3F8A8504FF070
:102FC00007050E214FF6FF7208274FF00A0EA3F8EF
:102FD000C0504FF001094FF00C0C4FF0020B4FF0B6
:102FE000090A0D204FF00B05A3F868111749A280BC
:102FF000A3F808E1A160A3F848B0A3F8F0A0A3F8F3
:103000002051A3F838C1A3F85001A3F83090A3F8D9
:103010006060A3F8D8701A800D4B3046C8F8207055
:103020000C49DC60FFF756FC49463046FFF73CFC94
:10303000094B0A211F640348BDE8F84FFFF7D6BDCE
:10304000BC060020500B0020C8090020FFFF100024
:10305000EC0A0020812C001000200B4000000B40E7
:103060000146F0B50069EFF3108772B6D0E8CF5F84
:103070000124002DFAD1C0E8454F002DF6D1BFF351
:103080005F8FB1F902E04C690EEB4E0CBEF1000F00
:103090004FEACC0504EBCC0C3DDB605B002648809E
:1030A0000869C0E88F6F87F31088BCF80200CCE98C
:1030B00002230130C0F30E00012838BF0120059B18
:1030C000ACF80200CCF81030069B40EA0E40CCF879
:1030D00014300B69EFF3108272B6D3E8CFCF01271B
:1030E000BCF1000FF9D1C3E84C7FBCF1000FF4D163
:1030F000BFF35F8F8B886353A1F804E00B69C3E8CB
:103100008F6F82F310880122CB68097803F5015391
:103110008A405A60F0BD00230A69C2E88F3F87F3F6
:1031200010884FF0FF30F0BD03464089B0EB214FCF
:1031300037DD58690A1402EB420210B500EBC200F9
:103140001C69EFF3108C72B6D4E8CFEF0122BEF108
:10315000000FF9D1C4E84E2FBEF1000FF4D1BFF338
:103160005F8F428889B292B28A4207D000221B69DF
:10317000C3E88F2F8CF31088002010BD42F400426A
:1031800042800121002218699971C0E88F2F8CF3C9
:1031900010881C78DA68084602F50153A14059608E
:1031A00010BD0020704700BF2DE9F041861F41F19E
:1031B000FF35B04271EB050338BF002682B038BF3F
:1031C000354604460F4600F009F9301A65EB010355
:1031D000012873F1000306DA2046394602B0BDE843
:1031E000F04100F07BB900F0F9F8864265EB01018F
:1031F00000290ADB0021174B3246009316482B4664
:103200000191FFF72DFF0028E6DB4FF0000C13487B
:10321000134A436A9D4204D8816AB142DCD29D427E
:10322000DAD11368EFF3108172B6D3E8CF8F5FF075
:10323000010EB8F1000FF8D1C3E848EFB8F1000F64
:10324000F3D1BFF35F8F1368C3E88FCF81F310888A
:1032500020BFDEE7452C0010BC06002000000B401C
:10326000500B002038B504460D4600F0B7F84FF07B
:10327000FF326FF00043201845EB0101824273EBEF
:10328000010438BF1946BDE8384038BF1046FFF783
:103290008BBF00BF10B5044600F0A0F84FF47A735E
:1032A0004FF0FF3C6FF00042E4FB0301BDE810402B
:1032B000844572EB01033CBF60461146FFF774BFC3
:1032C000F0B506460D4683B0EFF30584E4B2002C5A
:1032D00035D1244F3A78F96804328B6A51F82220AC
:1032E000D21AC31A934207D320BF1F4B586AA84271
:1032F0001FD2002003B0F0BD00F070F8864265EBED
:103300000101002911DB194B3846CDE90034324662
:103310002B46FFF7A5FE011E07DD134B5A6AAA4292
:1033200019D220BF0F48FFF7FFFE0F4B586AA84283
:10333000DFD39B6A9E4209D8012003B0F0BD0A4B3F
:10334000586A8842D5D39B6AB342F5D2401B18BF56
:10335000012003B0F0BD9B6A9E42E3D9AA42E1D1AD
:10336000DFE700BFBC06002000000B40452C00102A
:10337000084AD0E90003516A8B4204D8926A82421B
:1033800003D30120704700207047581A18BF01204E
:10339000704700BF00000B4001460248C1E900230E
:1033A000704700BF7133001010B4054B054C064A3E
:1033B000A04214BF1846581C5DF8044BFFF792B9A1
:1033C000500A002000800B40886800100346416AC4
:1033D0000A46986A596A8A42FAD17047034B596A79
:1033E0000A46986A596A9142FAD1704700000B4028
:1033F00010B4174A536A9C46946A536A6345FAD1DB
:10340000001959414FF0000228BF01220346CAB1FA
:103410000F4B596A4B1C08BF0B4608D04FF0FF31C9
:103420000B460B48426A8A42FCD38A4207D1084ABB
:1034300002E0506A884202D1906A9842F9D35DF85E
:10344000044B7047024A526A9142EAD8EDE700BF46
:1034500000000B401F4B98420AD84FF47A731E4A63
:1034600003FB00F0916A936A5B1A9842FBD870479D
:103470004FF47A7130B4184BA0FB01015A6A94469C
:103480009C6A5A6A6245FAD103194A414FF0000515
:1034900028BF01259DB91049496A8A4203D90E48BF
:1034A000416A9142FCD3914207D10B4902E0486A3C
:1034B000904202D1886A9842F9D330BC7047064BDB
:1034C0005A6A531C08BF1346EFD04FF0FF32134621
:1034D000E5E700BF9BC4200000000B40074A536A89
:1034E0009942FCD8994207D1044B02E05A6A9142B2
:1034F00002D19A6A8242F9D3704700BF00000B40A4
:10350000F8B5054606200E4600F0E4F8002842D043
:10351000354A3648954214BF4FF080624FF0006242
:10352000334B344902601A608C6832EA0404FBD1E0
:103530002D4B4FF48071EB1AB3FA83F32E4A5B09DB
:10354000062022F8131000F0C5F8C300B3FBF6F311
:103550000133DA0920D1402601216962AA622F6B6A
:10356000FB0722D42B46002253F82C1F062003F51C
:10357000805422602F6300F0ADF840F20131032245
:103580008000B0FBF6F0EB6A83F0700303F07E037B
:1035900023602963AA64F8BD4FF6FE718A421BD9E5
:1035A00022464FF6FF71154ED7E740F2013205F57E
:1035B00040531A636B6AAC6A062004EB831400F074
:1035C00089F80F4BA402A3FB0023DB0A0021B4FB04
:1035D000F3F0FFF70DFFC5E7C3F34503114603EB17
:1035E00082161A46B9E700BF00800740002002405B
:1035F0000030024000000240540B0020C0FF3F009A
:10360000757B2B8F00EB400C4FEA8C0C0CF1804C3F
:103610000CF5803CF0B51646DCF80420051FB2F529
:10362000803F38BF4FF48032EDB238BFCCF8042071
:10363000012D2AD94FF40067254C0CF54052176034
:1036400054F82020B2B9DCF80020012D82EA46129D
:1036500002F0E0020CF5805632602AD94FF4006186
:1036600044F820304FF480330CF500521160CCF850
:103670000430F0BD6769B7FBF2FE0EF1010E0EEBF0
:103680004E0EBEF1030EFCD2DDE70129D2D1032498
:103690000CF540521460DCF80820D207FBD5DCF8AA
:1036A00000200B4C82EA461202F0E0020CF5805634
:1036B00032600122DCF800504D4005F00305356012
:1036C00002FA01F1DCF808200A42FBD0C6E700BF8D
:1036D000940A0020014B53F820007047940A002000
:1036E00070B4039D04682D0345EA03451B4B002C71
:1036F000B3FBF1F3B2FBF3F61FDB194A194B90420F
:1037000014BF4FF480424FF40042174C1A6003F587
:1037100080531A60A36832EA0303FBD1212200F52B
:1037200040530433016086601A600268002AFCDAA4
:103730000822C5601A6070BC7047036803F03F033D
:103740008B42DAD18368C3F30B03B342D5D1C3688C
:1037500003F4EE23AB42D0D1EDE700BF001BB7006E
:10376000008005400020024000000240012300EBE1
:103770004000800000F1804000F58410416003604B
:10378000704700BF0023DB8A002242E800F25202A9
:1037900001D4102118470421184700BF034AD2F86A
:1037A0002838002BFBD0BFF35F8F704700000E401E
:1037B0000021044B044ABFF35F8F43F8041B93427C
:1037C000F9D170470C080E402C080E4010B42F2081
:1037D0004FF42A64054A064B06491460D06019600C
:1037E0005368002BFCDA5DF8044B704700800440FE
:1037F00000A0044000B0FA00704700BF08B50148BF
:10380000FEF73CFFAC68001038B5054C054DAC42E6
:1038100004D254F8043B9847AC42FAD338BD00BFF9
:1038200060630010A063001010B40748074C084BF9
:10383000084A094904601A608B6832EA0303FBD125
:103840005DF8044B704700BF002002407F3BEFEF64
:1038500000300240F6FFF30300000240044BDB6C33
:10386000B3F5004F03D14FF48022024BDA64704766
:1038700000001150002011504FF0E022044BD2F80C
:10388000881D0B43C2F8883D10EE3004704700BF1E
:10389000030330006FF06041044B054A19609368E0
:1038A000DB4333F06043FAD1704700BF0030024081
:1038B0000000024010B545F25320FFF763FFBDE85A
:1038C000104003460420184710B545F25320FFF777
:1038D00059FFBDE81040034601201847FEF7B8BF66
:1038E00010B5054B054C4FF488721846A16802F0DC
:1038F0007DFCA06010BD00BF0000002000ED00E0D6
:10390000002370B52B4C82B0C4F88430FFF75EFF03
:103910000122294BDA63636C012BFCD10321264A77
:10392000244B11639C6B012CFCD1022605252146FA
:103930000523224A22480096FFF7D2FE21462B4655
:10394000204A21480095FFF7CBFE00220420314693
:103950001E4BFFF757FE2146284600221C4BFFF75F
:1039600051FE0022082011461A4BFFF74BFE0022A1
:1039700009201146174BFFF745FE0022062011468D
:10398000134BFFF73FFE0022114B07201146FFF7B4
:1039900039FE0420FFF79EFE00240F4BA3FB0035E9
:1039A000AD0CE0B229460134FFF7E0FE062CF8D159
:1039B00002B070BD0000014000300140002F685986
:1039C00000000540008C864700800540001BB700C2
:1039D00080D1F008006CDC0283DE1B4386B003B4A8
:1039E00051FC0804CDE9020151FC0904CDE90401B0
:1039F00051EC0A04CDE9060103BCF047BDE80050D4
:103A00004EEC00C4BDE800504EEC01C4BDE80050CF
:103A10004EEC02C400BD000000B5FFF7DFFF02E07E
:103A200010FE30F4F8D441EC100443EC112400EE05
:103A3000010410EE010480EE200451EC10047047E4
:103A400000B5FFF7CBFF02E010FE30F4F8D441ECF4
:103A5000100443EC112400EE010410EE210480EE6A
:103A6000200451EC3004704700B5FFF7B7FF02E0C7
:103A700010FE30F4F8D410B541EC100443EC1124DE
:103A800051EC040453EC0524A0FB024C5FF0000E43
:103A9000E0FB03CEE1FB02CE4CEC20440024E1FB32
:103AA00003E444EC30E480EE200451EC5004BDE823
:103AB0001040704700B5FFF791FF02E010FE30F4B0
:103AC000F8D441EC100443EC112451EC2104A0FB88
:103AD00001126FEA820252FB100052FB12F252FBFB
:103AE0001000A0EBD07C53EC04245CFB13F153ECEE
:103AF0001524A1FB022001FB030053EC4424A2EB9C
:103B0000000050FB1CF24FEA111312EB017043EB63
:103B1000E27140EA515020EA915020F0070053EC46
:103B20007524A0FB023C53EC752400FB03CC01FB85
:103B300002CC53EC0424ACEB824C40EA5C70A0F164
:103B4000010041EC400480EE200451EC7004704709
:103B500000B5FFF743FF02E010FE30F4F8D440EC6C
:103B6000700400EE010410EE210480EE200451ECFC
:103B70003004704700B5FFF731FF02E010FE30F46B
:103B8000F8D440EC600400EE010410EE210480EE55
:103B9000200451EC3004704700B5FFF71FFF02E02E
:103BA00010FE30F4F8D441EC800400EE010410EE75
:103BB000010480EE400410EE1304704700B5FFF7D7
:103BC0000DFF02E010FE30F4F8D441EC800400EE6A
:103BD000010410EE010480EE400410EE330470473F
:103BE00000B5FFF7FBFE02E010FE30F4F8D441EC24
:103BF000100443EC112400EE010410EE3004C0F375
:103C00000070704700B5FFF7E9FE02E010FE30F4E7
:103C1000F8D443EC102441EC110400EE010410EE42
:103C200030F48CBF01200020704700BF00B5FFF7C3
:103C3000D5FE02E010FE30F4F8D441EC100443EC61
:103C4000112400EE010410EE30F42CBF01200020FE
:103C5000704700BF00B5FFF7C1FE02E010FE30F470
:103C6000F8D441EC100443EC112400EE010410EEF2
:103C700030F48CBF01200020704700BF9A4238BF4B
:103C800088547047704700BF2DE9F04F83B09946C4
:103C9000DDE90DAB0F9B884611469A07074616D102
:103CA000DA453AD20C460D46ABEB0A060E442246E4
:103CB0004B46414620200134B847B442F7D129464B
:103CC000BAF1000F08D1204603B0BDE8F08F0C46D2
:103CD000BAF1000F10D00E4655460C9B2E449A4464
:103CE0000191721B4B46013D41461AF8010D3446C5
:103CF000B847002DF5D101990F9B9B07E3D5651AB5
:103D0000AB45E0D922464B46414620200135B84715
:103D10005D4504F10104F5D3D5E7BAF1000FDAD11E
:103D20000C46D0E72DE9F04F0F9FDDF824E017F0A7
:103D3000020F0A9C9DF82C900E9DDDE90C8629D17E
:103D4000002D6FD1B44225D2202C07F0010B00F0DA
:103D5000128104F1FF3C4FF0300AF44401E0202CC2
:103D60007AD00134A6420CF801AFF8D8BBF1000FAD
:103D700010D0AC420ED2202C74D004F1FF3C4FF096
:103D8000300AF44401E0202C29D00134AC420CF874
:103D900001AFF8D117F0100F3AD017F4806F28D187
:103DA0001CBBB8F1100F00F0CA80B8F1020F00F090
:103DB000D48030248EF800400124B9F1000F67D17F
:103DC0007E0740F1AA802B260EF804600134CDE96D
:103DD0000B57CDE909E4BDE8F04FFFF755BFFC06EE
:103DE00040F189807C0535D42024A6426AD0AC42BB
:103DF00068D0B8F1100F00F08780B8F1020F5AD0E8
:103E0000202CE4D0264601344FF0300C0EF806C0CA
:103E1000202CD2D1CDE90B57CDE909E4BDE8F04F14
:103E2000FFF732BF17F0010B3ED0B9F1000F47D1B9
:103E300017F00C0F44D1B4429BD2202C89D1202DF5
:103E400010D8FC0657D57C0555D4202E00F0B9803B
:103E5000202D10D02024CCE7BBF1000F00F0A5806E
:103E6000202DBCD9FC0646D57C0544D4202E00F07C
:103E7000A880202D3FD12C461F26B8F1100F7FD0EF
:103E8000B8F1020FC0D14FF0620C0EF806C0B7E7D0
:103E90002D260EF804600134CDE90B57CDE909E475
:103EA000BDE8F04FFFF7F0BEB442BFF473AF202C73
:103EB0007FF44FAFD6E7202C89D026460134E2E7C5
:103EC000013DB8E7661ED8D1B8F1100F64D0B8F143
:103ED000020F7FF46EAF62268EF8006030264446F3
:103EE0008EF80160B9F1000F3FF46AAFD0E7B8F186
:103EF000100F7FF46CAF2024CDE90B57CDE909E416
:103F0000BDE8F04FFFF7C0BEBE060ED4202CF2D0A5
:103F100078260EF80460013472E73E077FF557AF4C
:103F200020260EF80460013451E7202CE3D04FF036
:103F3000580C0EEB040686F800C0013460E7BE069C
:103F400017D558248EF8004030248EF80140022402
:103F5000B9F1000F3FF434AF9AE762248EF80040C5
:103F600030248EF801400224B9F1000F3FF428AF4D
:103F70008EE77824F2E7BBF1000F7FF462AF71E7C0
:103F800017F0200F0CBF4FF0780C4FF0580CA61E06
:103F90000EF806C0013C35E7BC06EAD558248EF879
:103FA000004030248EF80140DDE717F0100F3FF499
:103FB0000EAF17F4806F9AD1202E7FF418AF1F2612
:103FC0005BE734461F2658E700B9704701F0E6BAB0
:103FD00010B1D1E900311847704700BF0000000060
:103FE0002DE9F04F9FB09DED287BDDE92AA558EC27
:103FF000177B83461E460D91109243463A4638463B
:1040000041468DED087B2C9CFFF7EEFD002840F02B
:10401000D880384641464FF0FF32754BFFF71EFE01
:10402000002840F0CE80384641464FF0FF326FF412
:104030008013FFF7EBFD002840F0C380DDE908782E
:104040000022384641460023FFF7E0FD002840F0FB
:10405000C081CDE90A78DDE90A2390461F4614F4B1
:10406000806308BF4FF0060A139304F4006258EA15
:104070000703119240F0C080002A00F0A2819FED5A
:104080005A7B00278DED0E7B4FF00009BA45CCBF5F
:10409000AAEB070A4FF0000A4F46C8BF0AF1FF3AE1
:1040A00044F480644D4594BF4FF00008A5EB090827
:1040B00014F00203119304D0B9F1000F18BF4FF0B0
:1040C00000083FB1DDE90A01DDE90E23FFF7F6FC48
:1040D000CDE90A01DDE9080100220023FFF796FD82
:1040E00030B1DDE90A01024601F10043CDE90A23BE
:1040F0009DED0A7BCDE902A8DDF834A024F400632D
:1041000004938DED007B334651465846109A00F0DB
:1041100097F98046B9F1000F4FD014F0200F0246F6
:1041200000F1010433460CBF652045205146D847B5
:1041300009F1FF3087EAE77C0DF1580900224B4670
:10414000DFF8B080ACEBE77C4FEAD77E01E0202AB5
:1041500010D0E246A8FB0C71C90801EB8107ACEB5B
:1041600047073037BAF1090F8C4602F1010203F814
:10417000017BECD805230590069300200A230D9FB0
:10418000CDE90330CDE9012E334622463946584663
:10419000CDF80090FFF7C6FD119B80466BB1109BD8
:1041A000C41AA54209D94246334639462020013473
:1041B000D847A54208F10108F5D840461FB0BDE830
:1041C000F08F9DED087B33465846109A0D998DED82
:1041D000287BCDE92B54CDF8A8A01FB0BDE8F04F47
:1041E00000F02EB9AFF300800000000000000000D6
:1041F000FFFFEF7FCDCCCCCCC7F30A50A0F2FF304D
:10420000FFF7AAFC8AA3D3E90023FFF731FC8AA3B6
:10421000D3E90023FFF704FCC7F31307CDE90E0130
:1042200047F07F51404600227B4B41F44011FFF79D
:104230000BFC6BA3D3E90023FFF71AFC02460B46E5
:10424000DDE90E01FFF7ECFBFFF7AAFC0746FFF7DD
:1042500083FC65A3D3E9002380468946FFF708FC69
:1042600000226E4BFFF7DCFBFFF79AFC0346494642
:10427000404612935EA3D3E90023FFF7F9FB804683
:1042800012988946FFF768FC5BA3D3E90023FFF788
:10429000EFFB02460B4640464946FFF7D5FB024678
:1042A0000B4680468946FFF7E3FB42464B46CDE985
:1042B0000E0140464946FFF7B3FB0022CDE9140149
:1042C000DDE90E01564BFFF7F9FB0022554BFFF7D6
:1042D000A7FB02460B46DDE90E01FFF7EFFB0022CC
:1042E000514BFFF79DFB02460B46DDE90E01FFF740
:1042F000E5FB42464B468046894600204FF0804110
:10430000FFF7A2FB02460B4640464946FFF788FBF3
:1043100002460B46DDE91401FFF7D0FB0022434BB8
:10432000FFF77EFB129B002203F2FF3C4FEA0C5387
:10433000FFF79EFB80468946DDE90A0142464B466F
:10434000CDE90E89FFF762FC68BB4346494607F199
:104350006302C62A119A8CBF4FF005094FF0040979
:10436000002A3FF49FAE0B433FF48EAEDDE90A0115
:1043700023A3D3E90023FFF75DFC48B1DDE90A017F
:1043800021A3D3E90023FFF741FC00287FF47CAE92
:10439000BAF1000F3FF486AE139B002B3FF482AEC0
:1043A0000AF1FF3A7EE600221E4B40464946FFF7DF
:1043B00085FB0A4601460346CDE90E12013F114630
:1043C000C5E79FED137B17464FF004098DED0E7B7B
:1043D00068E608F100430A970B933CE6AFF30080D0
:1043E00061436F63A787D23F71A379094F930A4056
:1043F0001655B5BBB16B0240EF39FAFE422EE63FCF
:104400002D431CEBE2361A3F0000000080842E4151
:1044100000000000000000000000F83F0000E03F46
:1044200000002C4000002440000018400000F03F35
:10443000FB799F501344D33FB3C8608B288AC63F93
:104440002DE9F04F97B0DDE92089CDE90401DDE9E0
:10445000224BCDE90623404642464B464946DDF80D
:1044600090A0FFF7C1FB002840F0C58140464946B7
:104470004FF0FF326FF48013FFF7C8FB002840F0C5
:104480001D81404649464FF0FF32C14BFFF7E6FB26
:10449000002840F0E380B8A3D3E900234046494612
:1044A000FFF7DCFB002840F0CB80B5A3D3E9002365
:1044B00040464946FFF7AAFB002840F0C18040462D
:1044C000494600220023FFF7A1FB002840F0E080CE
:1044D0001AF480650D9000F0E980092C40F2968175
:1044E0000EAB1A460C9330210023A4F109050133C9
:1044F000202B02F8011BA4EB030600F03A81AB422B
:10450000F5D19FED9D7B8DED087B49464046FFF739
:1045100047FB0446FFF720FB02460B464046494650
:10452000FFF792FADDE90823FFF7A2FA02460B46ED
:10453000CDE90A23FFF746FB0746FFF71FFB0246BC
:104540000B46DDE90A01FFF77FFA02460B46CDE98B
:104550000A2300228F4BFFF781FB002800F0DB804D
:1045600001373846FFF70AFBDDE90823FFF762FB56
:1045700008B100270134002E40F0B1802046FFF73B
:10458000EBFA02460B4640464946FFF75DFA002229
:10459000804B06460F46FFF739FB40B93046394697
:1045A00000227C4BFFF75AFB002800F015810C9B82
:1045B000691E7948194410E080FB0462C3EBA20332
:1045C00003EB8302A4EB420404F1300201351C46E4
:1045D00001F8012F002B00F0AB80202D4FEAE4738F
:1045E000EAD10AF00303012B1CD1BBF1000F19D053
:1045F0000D9B002B40F0F9801AF00C0F40F0F58075
:10460000AB4540F2D380202D0BD030220C996B1E8D
:104610000B4401355D4503F8012F00F08D80202DFE
:10462000F7D12025DDE90623DDE904010C9CCDE965
:1046300002BA01950094FFF727FB17B0BDE8F08F91
:10464000CDE92089DDE90623DDE90401CDE923BABE
:10465000229417B0BDE8F04FFFF7C2BC4F4DCDF824
:104660008CA00AF0040ABAF1000F4D4C18BF2C467A
:10467000DDE90623DDE9040120940CBF03240424B2
:10468000CDF888B0219417B0BDE8F04FFFF7FCBA21
:104690004B46424600200021FFF7D6F901231AF4C9
:1046A0008065804689460D937FF417AF9FED367B7A
:1046B0000EAB06268DED087B0C9326E70424DDE97E
:1046C0000623DDE90401374DCDF88CA0CDF888B084
:1046D0002095219417B0BDE8F04FFFF7D5BA0C9B99
:1046E000681EDFF8C4C018440DE0ACFB0721C90800
:1046F00001EB8102A7EB42023032092F00F8012FB3
:1047000027D90F461D46202D05F1010306F1FF367E
:10471000EBD120254BE70022DDE90A011D4BFFF715
:1047200075FA00287FF427AF002F5AD1013722E70E
:104730000AF00303012B75D0202D3FF473AF0D9BBE
:10474000BBB32D2205F158036B4403F8202C01352F
:1047500068E7202BDDD0AEB30C9A1E4415443022FE
:1047600001E0B3422ED00133202B05F8012FF8D100
:10477000CFE71D46C5E600BF0000000065CDCD4176
:104780000000000065CDCDC10000000080842E41F6
:10479000FFFFEF7F0000E03F67666666F468001089
:1047A000FC68001004690010CDCCCCCC202D3FF467
:1047B00039AF1AF0040F0DD11AF0080F3FF432AFE1
:1047C0002022BFE72E2103F158026A4402F8201C80
:1047D0005D1CECE62B22B5E7E3077FF5E8AE01347C
:1047E000E5E6FA077FF5C7AEA0E70BF1FF3BAB4567
:1047F0003FF609AFA0E70324DDE90623DDE9040164
:104800000A4DCDF88CA0CDF888B061E7084B26465C
:1048100003EBC40393ED007B0EAB8DED087B00250D
:104820000C9372E6BBF1000F86D0E1E60069001040
:10483000F06900102DE9F04F9A469BB0249C964DEC
:104840000B94964C0B1E18BF834625609AF8000007
:10485000934C0A9308BFA3460992002800F0BC823B
:104860004FF000090AE04A46099B0A9909F101093B
:10487000D8479AF80000002800F0CE8025280AF1D9
:10488000010AF0D10023524612F8010BA0F12001D9
:1048900010290AD8DFE801F04009093C0909090993
:1048A00009090938093409093000A0F13001092942
:1048B00040F28C802A2800F0F58000210C912E28EF
:1048C00000F099800027A0F1680112292DD8DFE8B7
:1048D00011F057012C0051012C0045012C002C0037
:1048E0002C002C002C002C002C0027002C002C006D
:1048F0002C002C002C002700924643F00103C2E755
:10490000924643F00203BEE7924643F00403BAE73F
:10491000924643F01003B6E7924643F00803B2E72D
:104920009AF8010043F4807301326728924600F23E
:104930008280242840F2C680A0F12502422A00F29B
:10494000C180DFE812F05F01BF00BF00BF00BF0001
:10495000BF00BF00BF00BF00BF00BF00BF00BF005F
:10496000BF00BF00BF00BF00BF00BF00BF00BF004F
:10497000BF00BF00BF00BF00BF00BF00BF00BF003F
:10498000BF00BF00BF00260145012601BF00BF00D8
:10499000BF00BF00BF00BF00BF00BF00BF00BF001F
:1049A000BF00BF00BF00BF00BF00BF00D301BF00FA
:1049B000BF00BF00BF00BF00BF00BF00BF00BF00FF
:1049C000D3016701D301260145012601002100E042
:1049D000013201EB810100EB410110789246A0F118
:1049E0003004092CA1F13001F2D92E280C9102F1EA
:1049F00001027FF467AF9AF801001146A0F130067A
:104A0000092E43F4806340F231812A2800F03E8170
:104A100092460027013256E74C46099B994501D33F
:104A200003F1FF394A460020099B0A99D8472046DE
:104A30001BB0BDE8F08FA0F16902D2B20F2A41D8B5
:104A4000012649F2410196400E4040F001810A2AB8
:104A50003FD0072A36D10B9C54F8042B002A00F0D3
:104A6000288143F021010DF1480E704603E0202E0D
:104A700000F029811A4602F00F052B46092D94BF3C
:104A8000303337330F2A00F8013B06F101064FEAB5
:104A90001213ECD817E100BF35480010CC0A0020F3
:104AA000853C00100B9C9AF8010054F8045B924678
:104AB000002DBDBF694243F002030C910C950B948D
:104AC0000132FCE64A46099B0A9909F10109D847D7
:104AD000CFE60B9951F8048B98F800201046002F70
:104AE00040F0E18072B16FF0010C0CF1010C464610
:104AF000C44401E0664503D016F8014F002CF9D1FB
:104B0000A6EB080613F4806C02D0BE4228BF3E46D6
:104B100013F0020400F08781002A00F02B81BCF121
:104B2000000F00F041810B940D964A46DDE90954CF
:104B30000E464F4408E02B462146D84718F8010F8F
:104B400009F1010910B14A464F45F4D131460B9C99
:104B50000D9E002C40F00E810B918AE69AF8010020
:104B60006C287FF4DFAE9AF8020043F440730AF138
:104B70000302DAE69AF8010043F400730132D4E646
:104B80009AF80100682800F0208143F08003013288
:104B9000CBE6672800F0E780472800F00081452831
:104BA00000F0FF800B9C04930C9B0734CDE902734B
:104BB00024F007031C46DDE90931F4E802674A46A0
:104BC0005846CDE900670B94FFF70AFA814650E694
:104BD00046280B9C08BF43F0200304930C9B07342A
:104BE000CDE9027324F007031C46DDE90931F4E83E
:104BF00002674A465846CDE900670B94FFF720FC50
:104C0000814636E64A462520099B0A9909F10109A1
:104C1000D8472EE60B9A9C0702F1040709F101061A
:104C200040F1E6801078099B4A460A99D8470C9BC8
:104C3000012B40F22C81DDE90954994432462B4680
:104C4000214620200136D8474E45F7D10B9710E674
:104C50006F2800F08B8040F26581782800F0088191
:104C60004FF00A0823F01003C44647E0002707EB83
:104C7000870700EB4700A0F1300711F8010FA0F102
:104C80003002092AF3D98A464A1C1CE60B9C9AF882
:104C9000020054F8047B0AF1020A0AF101020B94A3
:104CA00027EAE7770FE6002A3FF42CAF07F1FF3C35
:104CB0001BE723F0100113F4806241F021013FF45F
:104CC000D2AE0DF1480E08231020059300234A466A
:104CD000CDE9023006915846DDE90931CDE900E61B
:104CE0000497FFF71FF80B948146C2E5582879D046
:104CF000622840F051824FF00208C44613F48060ED
:104D00006DD123F00C0313F4007240F0C2800B99B4
:104D100004310D9113F4807140F02E825E060B9ADF
:104D200040F1AA801278002A40F0DA8023F01003C4
:104D3000002800F0D58011460DF1480E06930C9B1B
:104D4000CDF80CC0CDE90473019100234A460293CB
:104D50005846DDE90931CDF800E0FEF7E3FF0D9B91
:104D600081460B9385E543F400631BE74FF0080889
:104D7000C446C3E70C9B4C46B3427FF6EDAE0F46EC
:104D80004B44A3EB0609DDE9096522463346294673
:104D900020200134D8474C45F7D13946DCE643F4AE
:104DA000006343F02003FDE60F460B94DDE9095450
:104DB0004A462B462146D84718F8010F09F1010948
:104DC0000028F5D139460B9CC3E69AF8020043F05F
:104DD000C0030AF10302A8E5044681461DE623F05C
:104DE0000D0390E74FF0100843F02003C44685E719
:104DF0000C9B012B45D9DDE909544E4609F1FF38DA
:104E0000984432462B46214620200136D847464555
:104E1000F7D10C9B324699440B9B1878DDE9093198
:104E2000D8470B9725E50C9BB34240F2EE81CDE9C4
:104E30000D48DDE9095488464B449E1BCDF82CC033
:104E40004A462B462146202009F10109D847B145A1
:104E5000F6D14146DDF838800C9BDDF82CC00D9C66
:104E600098F800205E1C1046002A7FF458AE73E6C6
:104E70004FF01008C44641E71D064CBF1288126867
:104E800051E713464A461878DDE90931D847B1465B
:104E9000DCE60B9C073424F007042246656852F8D0
:104EA000084B0B9254EA050240F02C8123F01003CA
:104EB000002800F0278100260DF1480E06930C9B78
:104EC0004A46CDE904730023CDE900E6CDF80CC0D5
:104ED00002935846DDE90931FEF724FF8146C8E414
:104EE00013F0200F14BF412061200DF1480E7646CB
:104EF000A0F10A0803E020293FF420AF2246B2FBCC
:104F0000FCF40CFB1425E8B2092D00F130058ABF32
:104F10004044E8B2C0B2624506F8010B01F101015C
:104F2000E9D20BE723F0100269280D9240F06F815F
:104F300013F4806204D04FF4806223F011030D93C8
:104F40000D9B13F4007640D10B9B03F104080D9BDD
:104F500013F4807040F09880590640F1C6800B9B96
:104F600019780C46CB0F002900F0B98022460DF1CC
:104F7000480E74461646DFF8A0C201E020280FD084
:104F80003546ACFB0621C90801EB8102A6EB4202C3
:104F90003032092D0E4600F1010004F8012BEDD846
:104FA0000D9ACDE9010306920C9ACDE904720A2309
:104FB0004A4603935846DDE90931CDF800E0FEF793
:104FC000B1FECDF82C80814653E40B9C073424F0CD
:104FD000070421460846636850F8081BDC0F0B9055
:104FE00051EA030000F0C3800A46191E48DB13464D
:104FF0000DF1480EF4460026CDE90E94DFF8188234
:1050000001E0202E2DD05A1842F10002A8FB0259CF
:1050100029F0030505EB9905521B1C469B1A61F10B
:10502000000508464FF0CC3101FB03F108FB0511E8
:10503000A3FB08531944052305F00109A9FB033913
:105040009B180A2C03F130034FEA550570F100005C
:105050000CF8013B06F1010645EAC1734FEA510124
:10506000CFD2DDE90E940D9B4A4606930C9BCDE909
:105070000164CDE904730A23CDF800E0039328E727
:10508000524261EB4101B2E70B9B1968CB0F00293B
:1050900000F0AB8081EAE172A2EBE1720DF1480E03
:1050A0007046DFF874C101E0202E10D01546ACFB2D
:1050B0000241C90801EB8104A2EB440404F130026F
:1050C000092D00F8012B06F101060A46ECD80D9ACD
:1050D000CDE9016306920C9ACDE9047267E7002AD4
:1050E0003FF445AF0DF1480E5AE713F0800F0B9BCC
:1050F00000F08180B3F9001081EAE174A4EBE1745F
:10510000A4B22FE713F0200F14BF412261220DF14A
:10511000480E0A3ACDE90D97CDF844B000267746FF
:10512000F3469146CDE90F3C03E0202E17D004460C
:105130000D46294642460023204601F0FDF8D2B232
:10514000092A02F1300388BF02EB09034445DBB2B0
:1051500075F1000507F8013B06F10106E5D2DE46D0
:10516000DDE90D97DDE90F3CDDF844B0A6E6002A45
:1051700047D1134611463BE70B990968A1B923F0C3
:10518000100388B10DF1480E06930C9BCDF80CC0AE
:10519000CDE904730192D8E513F480627FF4CBAEBD
:1051A00023F010030D93CBE613F0200F14BF412022
:1051B00061200DF1480E7646A0F10A0802E0202A8F
:1051C000E2D02146B1FBFCF40CFB1415E8B2092D2A
:1051D00000F130058ABF4044E8B2C0B2614506F82C
:1051E000010B02F10102EAD2CEE7002A3FF456AFEA
:1051F0000DF1480E6BE7196881EAE174A4EBE174E4
:10520000B0E600260DF1480E2DE701362BE64FF0F3
:105210000A081346C44671E5CDCCCCCC0EB410B50B
:1052200085B007AC54F8043B01464FF0FF320094C0
:1052300004480394FFF7FEFA05B0BDE8104003B040
:10524000704700BF7D3C001070B594461E46054671
:105250000C4684B04FF0FF32634602A90096034823
:10526000CDE90254FFF7E6FA04B070BDD13F00105B
:1052700010B5094B84B01C684CB1034600914FF047
:10528000FF3203A90548A047012004B010BD00F07B
:10529000C7F9204604B010BDCC0A0020C93F001059
:1052A00000BEFDE708B5FFF7FBFF00BF38B5064CB1
:1052B000064DFEF7A9FAAC4204D254F8043B9847D5
:1052C000AC42FAD338BD00BFA0630010A863001041
:1052D0000368084611461847437D2DE9F04781468B
:1052E0000F461646002B43D0002A3BDD037D0020ED
:1052F0004D1E014615F8012FDFF884800A2A01F1BE
:1053000001040ED0A6421CD02B782146A3F10D0338
:10531000B3FA83F315F8012F5B090A2A01F101049E
:10532000F0D1002BEED18142A1EB000138441BDC0F
:1053300002214046D9F800309847A64208D02046BE
:10534000E2E7864204DD311AD9F800303844984744
:10535000374417F8013CA3F10D03B3FA83F35B095B
:1053600089F81430BDE8F087D9F800309847DFE7B6
:105370003846D9F800301146BDE8F047184700BF5D
:10538000406A00100B682DE9F041802B0D4606465F
:1053900005D05A1C2B442A601E71BDE8F0810F4BCA
:1053A0001C68A4B10E4F01F1040801E0246974B136
:1053B0002368002BFAD03B680BB1A342F6D12046FC
:1053C00041462A68FFF788FF2469002CF0D10023AA
:1053D00001222B442A601E71BDE8F081BC0A002026
:1053E000C00A00202DE9F04782B00D46924699464A
:1053F0000746FDF7F3FF4FF0FF366FF000442F4AEA
:10540000821841F10003964274EB03013CBF32461F
:1054100023462B4800F098FF6B1C804603D138468A
:1054200000F05AFF0546274B274E1C68274BB9F161
:10543000000F18BF1E46B4B1BAF1000F1AD1DFF841
:10544000909001E0246974B12368002BFAD0D9F858
:1054500000300BB19C42F5D120462A463946B04770
:105460002469002CF0D1B8F1000F1FD1284602B0FA
:10547000BDE8F0874FF00A0ADFF8549002E0246993
:10548000002CF0D02368002BF9D0D9F800300BB1F4
:10549000A342F4D12A4639462046B047012220468D
:1054A0000DF107018DF807A0B047E8E7044800F0C8
:1054B00047FF284602B0BDE8F08700BF40420F001A
:1054C000F4060020BC0A0020D1520010D95200106E
:1054D000C00A00200A4A13684BB1834202D109E096
:1054E000984207D003F110021B69002BF8D101B1DB
:1054F000106070470029FCD1036913600161704797
:10550000BC0A002008B500F0EBF9012008BD00BF7F
:105510002DE9F04182B00646FDF760FF4FF0FF3203
:105520006FF00043361841F10007B24273EB0701F8
:105530003CBF16461F46DFF86080154DD8F8004086
:1055400014B912E0246984B12B680BB19C42F9D1E3
:10555000A368002BF6D0012101A898470028F1DDAF
:105560009DF8040002B0BDE8F0810A4B5A6A9742E8
:1055700009D89B6AB34204D36FF0010002B0BDE8C2
:10558000F0819742F8D101200021FDF731FFD5E7E6
:10559000C00A002000000B40BC0A0020F0B583B018
:1055A00006468DF80700FDF719FF4FF0FF356FF045
:1055B0000044174A821841F10003954274EB03013D
:1055C0003CBF23462A46134800F0BEFE124B074656
:1055D0001C689CB1114D01E024697CB12368002B4B
:1055E000FAD02B680BB19C42F6D1204601220DF176
:1055F0000701FFF771FE2469002CEFD117B930467F
:1056000003B0F0BD034800F09BFE304603B0F0BD90
:1056100040420F00F4060020BC0A0020C00A00200F
:1056200038B5044600F058FE012305461A462046C8
:105630002946FFF7D7FE084B1C682CB163682BB1D5
:1056400098472469002CF9D1284638BD2469002CDC
:10565000F4D1284638BD00BFBC0A00202DE9F04136
:10566000A2B004460D46FDF7B9FE4FF0FF376FF0CC
:105670000046274A821841F10003974276EB030166
:105680003CBF3A463346234800F05EFE00262B46D8
:1056900007462246204801A90196FFF7D5FD019B48
:1056A00006467BB91D4B1C682CB1636843B1984713
:1056B0002469002CF9D10FBB304622B0BDE8F0813F
:1056C0002469F1E7DFF85480D8F80050EDB1144CAC
:1056D00001E02D6975B12B68002BFAD023680BB15E
:1056E000AB42F6D12846019A02A9FFF7F5FD2D69D4
:1056F000002DF0D1D8F800400195D5E7054800F01D
:105700001FFE304622B0BDE8F0810195D3E700BF0F
:1057100040420F00F406002085530010BC0A002010
:10572000C00A00200FB400B583B004A951F8040BDF
:105730000191FFF793FF03B05DF804EB04B07047ED
:10574000B1F1000C1DDD0F4A0F4B126830B5D31AB2
:10575000B3FA83F30D240D4D5B09411E35F913E0B7
:105760008C4411F8010F864506D093699B06FCD442
:1057700061451060F5D130BD93699D06FCD414607D
:10578000F3E77047580B002000800740540B0020BF
:10579000224BB1F1000C10B41C682EDD0346002032
:1057A0001F4A591E12689369DB0617D401309369AA
:1057B000DB06FCD41368844501F8013FF3D14CB1FA
:1057C00050211346916353F8342F02F0380203F549
:1057D00080531A6060465DF8044B70474CB150210D
:1057E0001346916353F8342F02F0380203F58053C7
:1057F0001A6078B15DF8044B70475CB1084B5021DA
:105800001A681346916353F8342F02F0380203F5F7
:1058100080531A606FF00200ECE700BF480A0020D6
:10582000580B0020054B1B6833B10021044A054882
:105830001268006891631847704700BF480A00204B
:10584000580B00204C0A0020024B1A6893691B0772
:10585000FCD47047580B0020F8B51C4F1C4D3A681B
:105860001C4EAA4214BF212522250446D6F800C0AA
:1058700018B1BCF1000F10D0F8BDBCF1000FFBD087
:10588000014690632846FDF70FF828461249FDF7B8
:1058900051F8124B34601C60F8BD0B460F4A0E499C
:1058A000306028461360FDF715F801212846FCF703
:1058B000FBFF3A6850211346916353F8342F02F0EE
:1058C000380203F580531A60F8BD00BF580B002062
:1058D00000800740480A0020255800104C0A00208C
:1058E00010B50E490E4C0F480F4A104B007821603E
:1058F0000020022112781B78FCF76AFE02210120A9
:10590000FCF766FE4FF4E1312068FDF7F9FDBDE8D4
:10591000104001210648FFF7DDBD00BF0000074031
:10592000580B0020A86A0010A46A0010A06A00109A
:10593000D40600202DE9F84F4FF0010CDDE90B46AD
:10594000002791460268B3F10008D766054651600A
:105950009DF828B0C2F86CC021DD08F1FF3A14B1FF
:1059600001213046A0472B685A6F102AFCD0002F27
:1059700033D00022BA4504BF8BF0010142EA412234
:1059800042F480721A618CB1D3F88020596B11F007
:10599000400113D0002130465B6DA047C743384615
:1059A00085F804B0BDE8F88F9A6F7AB9D3F88020F3
:1059B0005A6B5206F8D500205B6DEFE73046A047E2
:1059C0000028EBD12B689A6F002ADDD01B690137C4
:1059D000B84509F8013BC2D1E1E72A799202C9E74B
:1059E000F8B5064605200C46FDF774FE00EB540C96
:1059F000BCFBF4FC214B0CEB4C02A3FB02532049F3
:105A00009F088C42ACEB930530D801F1D64101F5EB
:105A1000A10101F62C0100EB4003A1FB03139B0D38
:105A2000013300244F2A98BF01223168B0FBFCF0FB
:105A3000CC660C6801F5805684F0040404F006047A
:105A4000346088BF0D4CCD6184BFA4FB0242920933
:105A50000F62C1F8A0200A46012452F87C5F6B4017
:105A60009BB202F580521360CC66F8BD054900EB8D
:105A70004003A1FB0313DB0D0133D2E7CDCCCCCC2B
:105A80003F420F00893BE6550E4A30B4904214BFA6
:105A9000202210220C4D0D4B0D4C2A601A60A36879
:105AA00032EA0303FBD140F2651503240268037157
:105AB000D3661560D3639363C2F8884030BCFFF7A8
:105AC0008FBF00BFEC0600200020024000300240E3
:105AD000000002402DE9F04389B00DF110080446A2
